{"abi":[{"type":"constructor","inputs":[{"name":"appName","type":"string","internalType":"string"},{"name":"appVersion","type":"string","internalType":"string"}],"stateMutability":"nonpayable"},{"type":"function","name":"PROOF_TYPEHASH","inputs":[],"outputs":[{"name":"","type":"bytes32","internalType":"bytes32"}],"stateMutability":"view"},{"type":"function","name":"domainSeparator","inputs":[],"outputs":[{"name":"","type":"bytes32","internalType":"bytes32"}],"stateMutability":"view"},{"type":"function","name":"eip712Domain","inputs":[],"outputs":[{"name":"fields","type":"bytes1","internalType":"bytes1"},{"name":"name","type":"string","internalType":"string"},{"name":"version","type":"string","internalType":"string"},{"name":"chainId","type":"uint256","internalType":"uint256"},{"name":"verifyingContract","type":"address","internalType":"address"},{"name":"salt","type":"bytes32","internalType":"bytes32"},{"name":"extensions","type":"uint256[]","internalType":"uint256[]"}],"stateMutability":"view"},{"type":"function","name":"isSigner","inputs":[{"name":"account","type":"address","internalType":"address"}],"outputs":[{"name":"","type":"bool","internalType":"bool"}],"stateMutability":"view"},{"type":"function","name":"owner","inputs":[],"outputs":[{"name":"","type":"address","internalType":"address"}],"stateMutability":"view"},{"type":"function","name":"renounceOwnership","inputs":[],"outputs":[],"stateMutability":"nonpayable"},{"type":"function","name":"setSigner","inputs":[{"name":"signer","type":"address","internalType":"address"},{"name":"authorized","type":"bool","internalType":"bool"}],"outputs":[],"stateMutability":"nonpayable"},{"type":"function","name":"transferOwnership","inputs":[{"name":"newOwner","type":"address","internalType":"address"}],"outputs":[],"stateMutability":"nonpayable"},{"type":"function","name":"verifyProof","inputs":[{"name":"proof","type":"tuple","internalType":"struct IXPOracle.Proof","components":[{"name":"user","type":"address","internalType":"address"},{"name":"verifier","type":"address","internalType":"address"},{"name":"contextHash","type":"bytes32","internalType":"bytes32"},{"name":"xpAmount","type":"uint256","internalType":"uint256"},{"name":"validAfter","type":"uint256","internalType":"uint256"},{"name":"validBefore","type":"uint256","internalType":"uint256"}]},{"name":"signature","type":"bytes","internalType":"bytes"}],"outputs":[{"name":"","type":"bool","internalType":"bool"}],"stateMutability":"view"},{"type":"event","name":"EIP712DomainChanged","inputs":[],"anonymous":false},{"type":"event","name":"OwnershipTransferred","inputs":[{"name":"previousOwner","type":"address","indexed":true,"internalType":"address"},{"name":"newOwner","type":"address","indexed":true,"internalType":"address"}],"anonymous":false},{"type":"event","name":"SignerUpdated","inputs":[{"name":"signer","type":"address","indexed":true,"internalType":"address"},{"name":"authorized","type":"bool","indexed":false,"internalType":"bool"}],"anonymous":false},{"type":"error","name":"ECDSAInvalidSignature","inputs":[]},{"type":"error","name":"ECDSAInvalidSignatureLength","inputs":[{"name":"length","type":"uint256","internalType":"uint256"}]},{"type":"error","name":"ECDSAInvalidSignatureS","inputs":[{"name":"s","type":"bytes32","internalType":"bytes32"}]},{"type":"error","name":"InvalidShortString","inputs":[]},{"type":"error","name":"OwnableInvalidOwner","inputs":[{"name":"owner","type":"address","internalType":"address"}]},{"type":"error","name":"OwnableUnauthorizedAccount","inputs":[{"name":"account","type":"address","internalType":"address"}]},{"type":"error","name":"StringTooLong","inputs":[{"name":"str","type":"string","internalType":"string"}]}],"bytecode":{"object":"0x610160604052348015610010575f5ffd5b5060405161106838038061106883398101604081905261002f91610273565b8181338061005757604051631e4fbdf760e01b81525f60048201526024015b60405180910390fd5b61006081610118565b5061006c826001610167565b6101205261007b816002610167565b61014052815160208084019190912060e052815190820120610100524660a05261010760e05161010051604080517f8b73c3c69bb8fe3d512ecc4cf759cc79239f7b179b0ffacaa9a75d522b39400f60208201529081019290925260608201524660808201523060a08201525f9060c00160405160208183030381529060405280519060200120905090565b60805250503060c0525061046e9050565b5f80546001600160a01b038381166001600160a01b0319831681178455604051919092169283917f8be0079c531659141344cd1fd0a4f28419497f9722a3daafe3b4186f6b6457e09190a35050565b5f6020835110156101825761017b83610199565b9050610193565b8161018d848261035c565b5060ff90505b92915050565b5f5f829050601f815111156101c3578260405163305a27a960e01b815260040161004e9190610416565b80516101ce8261044b565b179392505050565b634e487b7160e01b5f52604160045260245ffd5b5f82601f8301126101f9575f5ffd5b81516001600160401b03811115610212576102126101d6565b604051601f8201601f19908116603f011681016001600160401b0381118282101715610240576102406101d6565b604052818152838201602001851015610257575f5ffd5b8160208501602083015e5f918101602001919091529392505050565b5f5f60408385031215610284575f5ffd5b82516001600160401b03811115610299575f5ffd5b6102a5858286016101ea565b602085015190935090506001600160401b038111156102c2575f5ffd5b6102ce858286016101ea565b9150509250929050565b600181811c908216806102ec57607f821691505b60208210810361030a57634e487b7160e01b5f52602260045260245ffd5b50919050565b601f82111561035757805f5260205f20601f840160051c810160208510156103355750805b601f840160051c820191505b81811015610354575f8155600101610341565b50505b505050565b81516001600160401b03811115610375576103756101d6565b6103898161038384546102d8565b84610310565b6020601f8211600181146103bb575f83156103a45750848201515b5f19600385901b1c1916600184901b178455610354565b5f84815260208120601f198516915b828110156103ea57878501518255602094850194600190920191016103ca565b508482101561040757868401515f19600387901b60f8161c191681555b50505050600190811b01905550565b602081525f82518060208401528060208501604085015e5f604082850101526040601f19601f83011684010191505092915050565b8051602080830151919081101561030a575f1960209190910360031b1b16919050565b60805160a05160c05160e051610100516101205161014051610ba96104bf5f395f6104ee01525f6104c101525f61064701525f61061f01525f61057a01525f6105a401525f6105ce0152610ba95ff3fe608060405234801561000f575f5ffd5b5060043610610090575f3560e01c80638b3e3bf6116100635780638b3e3bf61461010c5780638da5cb5b14610141578063d869893e1461015b578063f2fde38b1461016e578063f698da2514610181575f5ffd5b806331cb610514610094578063715018a6146100a95780637df73e27146100b157806384b0196e146100f1575b5f5ffd5b6100a76100a236600461098c565b610189565b005b6100a761023b565b6100dc6100bf3660046109c5565b6001600160a01b03165f9081526003602052604090205460ff1690565b60405190151581526020015b60405180910390f35b6100f961024e565b6040516100e89796959493929190610a0c565b6101337f0f73a281fde0bcb83238ac9a28dcd883afb5aa45c72e80f3b8ea14f8e9909f4381565b6040519081526020016100e8565b5f546040516001600160a01b0390911681526020016100e8565b6100dc610169366004610aa2565b610290565b6100a761017c3660046109c5565b6103f4565b610133610431565b61019161043f565b6001600160a01b0382166101dd5760405162461bcd60e51b815260206004820152600e60248201526d34b73b30b634b21039b4b3b732b960911b60448201526064015b60405180910390fd5b6001600160a01b0382165f81815260036020908152604091829020805460ff191685151590811790915591519182527ffcaa24b1276bfa7dbf77797c0a984b9df924acbeaabd48cd2f1b0eca379b78fa910160405180910390a25050565b61024361043f565b61024c5f61046b565b565b5f6060805f5f5f606061025f6104ba565b6102676104e7565b604080515f80825260208201909252600f60f81b9b939a50919850469750309650945092509050565b5f6080840135158015906102a75750836080013542105b156102b357505f6103ed565b60a0840135158015906102c957508360a0013542115b156102d557505f6103ed565b5f7f0f73a281fde0bcb83238ac9a28dcd883afb5aa45c72e80f3b8ea14f8e9909f4361030460208701876109c5565b61031460408801602089016109c5565b6040805160208101949094526001600160a01b03928316848201529116606083810191909152908701356080838101919091529087013560a0838101919091529087013560c083015286013560e0820152610100016040516020818303038152906040528051906020012090505f61038b82610514565b90505f6103cd8287878080601f0160208091040260200160405190810160405280939291908181526020018383808284375f9201919091525061054692505050565b6001600160a01b03165f9081526003602052604090205460ff1693505050505b9392505050565b6103fc61043f565b6001600160a01b03811661042557604051631e4fbdf760e01b81525f60048201526024016101d4565b61042e8161046b565b50565b5f61043a61056e565b905090565b5f546001600160a01b0316331461024c5760405163118cdaa760e01b81523360048201526024016101d4565b5f80546001600160a01b038381166001600160a01b0319831681178455604051919092169283917f8be0079c531659141344cd1fd0a4f28419497f9722a3daafe3b4186f6b6457e09190a35050565b606061043a7f00000000000000000000000000000000000000000000000000000000000000006001610697565b606061043a7f00000000000000000000000000000000000000000000000000000000000000006002610697565b5f61054061052061056e565b8360405161190160f01b8152600281019290925260228201526042902090565b92915050565b5f5f5f5f6105548686610740565b9250925092506105648282610789565b5090949350505050565b5f306001600160a01b037f0000000000000000000000000000000000000000000000000000000000000000161480156105c657507f000000000000000000000000000000000000000000000000000000000000000046145b156105f057507f000000000000000000000000000000000000000000000000000000000000000090565b61043a604080517f8b73c3c69bb8fe3d512ecc4cf759cc79239f7b179b0ffacaa9a75d522b39400f60208201527f0000000000000000000000000000000000000000000000000000000000000000918101919091527f000000000000000000000000000000000000000000000000000000000000000060608201524660808201523060a08201525f9060c00160405160208183030381529060405280519060200120905090565b606060ff83146106b1576106aa83610845565b9050610540565b8180546106bd90610b27565b80601f01602080910402602001604051908101604052809291908181526020018280546106e990610b27565b80156107345780601f1061070b57610100808354040283529160200191610734565b820191905f5260205f20905b81548152906001019060200180831161071757829003601f168201915b50505050509050610540565b5f5f5f8351604103610777576020840151604085015160608601515f1a61076988828585610882565b955095509550505050610782565b505081515f91506002905b9250925092565b5f82600381111561079c5761079c610b5f565b036107a5575050565b60018260038111156107b9576107b9610b5f565b036107d75760405163f645eedf60e01b815260040160405180910390fd5b60028260038111156107eb576107eb610b5f565b0361080c5760405163fce698f760e01b8152600481018290526024016101d4565b600382600381111561082057610820610b5f565b03610841576040516335e2f38360e21b8152600481018290526024016101d4565b5050565b60605f6108518361094a565b6040805160208082528183019092529192505f91906020820181803683375050509182525060208101929092525090565b5f80807f7fffffffffffffffffffffffffffffff5d576e7357a4501ddfe92f46681b20a08411156108bb57505f91506003905082610940565b604080515f808252602082018084528a905260ff891692820192909252606081018790526080810186905260019060a0016020604051602081039080840390855afa15801561090c573d5f5f3e3d5ffd5b5050604051601f1901519150506001600160a01b03811661093757505f925060019150829050610940565b92505f91508190505b9450945094915050565b5f60ff8216601f81111561054057604051632cd44ac360e21b815260040160405180910390fd5b80356001600160a01b0381168114610987575f5ffd5b919050565b5f5f6040838503121561099d575f5ffd5b6109a683610971565b9150602083013580151581146109ba575f5ffd5b809150509250929050565b5f602082840312156109d5575f5ffd5b6103ed82610971565b5f81518084528060208401602086015e5f602082860101526020601f19601f83011685010191505092915050565b60ff60f81b8816815260e060208201525f610a2a60e08301896109de565b8281036040840152610a3c81896109de565b606084018890526001600160a01b038716608085015260a0840186905283810360c0850152845180825260208087019350909101905f5b81811015610a91578351835260209384019390920191600101610a73565b50909b9a5050505050505050505050565b5f5f5f83850360e0811215610ab5575f5ffd5b60c0811215610ac2575f5ffd5b5083925060c084013567ffffffffffffffff811115610adf575f5ffd5b8401601f81018613610aef575f5ffd5b803567ffffffffffffffff811115610b05575f5ffd5b866020828401011115610b16575f5ffd5b939660209190910195509293505050565b600181811c90821680610b3b57607f821691505b602082108103610b5957634e487b7160e01b5f52602260045260245ffd5b50919050565b634e487b7160e01b5f52602160045260245ffdfea264697066735822122044e7cf39f5602a0223e209da998edca59254e3fedcadf702f2f63ff6d9500f0464736f6c634300081c0033","linkReferences":{}},"methodIdentifiers":{"PROOF_TYPEHASH()":"8b3e3bf6","domainSeparator()":"f698da25","eip712Domain()":"84b0196e","isSigner(address)":"7df73e27","owner()":"8da5cb5b","renounceOwnership()":"715018a6","setSigner(address,bool)":"31cb6105","transferOwnership(address)":"f2fde38b","verifyProof((address,address,bytes32,uint256,uint256,uint256),bytes)":"d869893e"},"id":37}