{"abi":[{"type":"constructor","inputs":[{"name":"name_","type":"string","internalType":"string"},{"name":"symbol_","type":"string","internalType":"string"},{"name":"_treasury","type":"address","internalType":"address"},{"name":"_table","type":"address","internalType":"address"},{"name":"_whitelist","type":"address","internalType":"address"},{"name":"_discountList","type":"address","internalType":"address"}],"stateMutability":"nonpayable"},{"type":"function","name":"approve","inputs":[{"name":"to","type":"address","internalType":"address"},{"name":"tokenId","type":"uint256","internalType":"uint256"}],"outputs":[],"stateMutability":"nonpayable"},{"type":"function","name":"balanceOf","inputs":[{"name":"owner","type":"address","internalType":"address"}],"outputs":[{"name":"","type":"uint256","internalType":"uint256"}],"stateMutability":"view"},{"type":"function","name":"getApproved","inputs":[{"name":"tokenId","type":"uint256","internalType":"uint256"}],"outputs":[{"name":"","type":"address","internalType":"address"}],"stateMutability":"view"},{"type":"function","name":"isApprovedForAll","inputs":[{"name":"owner","type":"address","internalType":"address"},{"name":"operator","type":"address","internalType":"address"}],"outputs":[{"name":"","type":"bool","internalType":"bool"}],"stateMutability":"view"},{"type":"function","name":"mintTo","inputs":[{"name":"to","type":"address","internalType":"address"}],"outputs":[],"stateMutability":"nonpayable"},{"type":"function","name":"name","inputs":[],"outputs":[{"name":"","type":"string","internalType":"string"}],"stateMutability":"view"},{"type":"function","name":"owner","inputs":[],"outputs":[{"name":"","type":"address","internalType":"address"}],"stateMutability":"view"},{"type":"function","name":"ownerOf","inputs":[{"name":"tokenId","type":"uint256","internalType":"uint256"}],"outputs":[{"name":"","type":"address","internalType":"address"}],"stateMutability":"view"},{"type":"function","name":"renounceOwnership","inputs":[],"outputs":[],"stateMutability":"nonpayable"},{"type":"function","name":"safeTransferFrom","inputs":[{"name":"from","type":"address","internalType":"address"},{"name":"to","type":"address","internalType":"address"},{"name":"tokenId","type":"uint256","internalType":"uint256"}],"outputs":[],"stateMutability":"nonpayable"},{"type":"function","name":"safeTransferFrom","inputs":[{"name":"from","type":"address","internalType":"address"},{"name":"to","type":"address","internalType":"address"},{"name":"tokenId","type":"uint256","internalType":"uint256"},{"name":"data","type":"bytes","internalType":"bytes"}],"outputs":[],"stateMutability":"nonpayable"},{"type":"function","name":"setApprovalForAll","inputs":[{"name":"operator","type":"address","internalType":"address"},{"name":"approved","type":"bool","internalType":"bool"}],"outputs":[],"stateMutability":"nonpayable"},{"type":"function","name":"supportsInterface","inputs":[{"name":"interfaceId","type":"bytes4","internalType":"bytes4"}],"outputs":[{"name":"","type":"bool","internalType":"bool"}],"stateMutability":"view"},{"type":"function","name":"symbol","inputs":[],"outputs":[{"name":"","type":"string","internalType":"string"}],"stateMutability":"view"},{"type":"function","name":"tokenURI","inputs":[{"name":"tokenId","type":"uint256","internalType":"uint256"}],"outputs":[{"name":"","type":"string","internalType":"string"}],"stateMutability":"view"},{"type":"function","name":"totalSupply","inputs":[],"outputs":[{"name":"","type":"uint256","internalType":"uint256"}],"stateMutability":"view"},{"type":"function","name":"transferFrom","inputs":[{"name":"from","type":"address","internalType":"address"},{"name":"to","type":"address","internalType":"address"},{"name":"tokenId","type":"uint256","internalType":"uint256"}],"outputs":[],"stateMutability":"nonpayable"},{"type":"function","name":"transferOwnership","inputs":[{"name":"newOwner","type":"address","internalType":"address"}],"outputs":[],"stateMutability":"nonpayable"},{"type":"event","name":"Approval","inputs":[{"name":"owner","type":"address","indexed":true,"internalType":"address"},{"name":"approved","type":"address","indexed":true,"internalType":"address"},{"name":"tokenId","type":"uint256","indexed":true,"internalType":"uint256"}],"anonymous":false},{"type":"event","name":"ApprovalForAll","inputs":[{"name":"owner","type":"address","indexed":true,"internalType":"address"},{"name":"operator","type":"address","indexed":true,"internalType":"address"},{"name":"approved","type":"bool","indexed":false,"internalType":"bool"}],"anonymous":false},{"type":"event","name":"OwnershipTransferred","inputs":[{"name":"previousOwner","type":"address","indexed":true,"internalType":"address"},{"name":"newOwner","type":"address","indexed":true,"internalType":"address"}],"anonymous":false},{"type":"event","name":"Transfer","inputs":[{"name":"from","type":"address","indexed":true,"internalType":"address"},{"name":"to","type":"address","indexed":true,"internalType":"address"},{"name":"tokenId","type":"uint256","indexed":true,"internalType":"uint256"}],"anonymous":false},{"type":"error","name":"ERC721IncorrectOwner","inputs":[{"name":"sender","type":"address","internalType":"address"},{"name":"tokenId","type":"uint256","internalType":"uint256"},{"name":"owner","type":"address","internalType":"address"}]},{"type":"error","name":"ERC721InsufficientApproval","inputs":[{"name":"operator","type":"address","internalType":"address"},{"name":"tokenId","type":"uint256","internalType":"uint256"}]},{"type":"error","name":"ERC721InvalidApprover","inputs":[{"name":"approver","type":"address","internalType":"address"}]},{"type":"error","name":"ERC721InvalidOperator","inputs":[{"name":"operator","type":"address","internalType":"address"}]},{"type":"error","name":"ERC721InvalidOwner","inputs":[{"name":"owner","type":"address","internalType":"address"}]},{"type":"error","name":"ERC721InvalidReceiver","inputs":[{"name":"receiver","type":"address","internalType":"address"}]},{"type":"error","name":"ERC721InvalidSender","inputs":[{"name":"sender","type":"address","internalType":"address"}]},{"type":"error","name":"ERC721NonexistentToken","inputs":[{"name":"tokenId","type":"uint256","internalType":"uint256"}]},{"type":"error","name":"OwnableInvalidOwner","inputs":[{"name":"owner","type":"address","internalType":"address"}]},{"type":"error","name":"OwnableUnauthorizedAccount","inputs":[{"name":"account","type":"address","internalType":"address"}]}],"bytecode":{"object":"0x608060405234801561000f575f5ffd5b5060405161143738038061143783398101604081905261002e91610197565b3386865f61003c83826102bf565b50600161004982826102bf565b5050506001600160a01b03811661007957604051631e4fbdf760e01b81525f600482015260240160405180910390fd5b6100828161008e565b50505050505050610379565b600680546001600160a01b038381166001600160a01b0319831681179093556040519116919082907f8be0079c531659141344cd1fd0a4f28419497f9722a3daafe3b4186f6b6457e0905f90a35050565b634e487b7160e01b5f52604160045260245ffd5b5f82601f830112610102575f5ffd5b81516001600160401b0381111561011b5761011b6100df565b604051601f8201601f19908116603f011681016001600160401b0381118282101715610149576101496100df565b604052818152838201602001851015610160575f5ffd5b8160208501602083015e5f918101602001919091529392505050565b80516001600160a01b0381168114610192575f5ffd5b919050565b5f5f5f5f5f5f60c087890312156101ac575f5ffd5b86516001600160401b038111156101c1575f5ffd5b6101cd89828a016100f3565b602089015190975090506001600160401b038111156101ea575f5ffd5b6101f689828a016100f3565b9550506102056040880161017c565b93506102136060880161017c565b92506102216080880161017c565b915061022f60a0880161017c565b90509295509295509295565b600181811c9082168061024f57607f821691505b60208210810361026d57634e487b7160e01b5f52602260045260245ffd5b50919050565b601f8211156102ba57805f5260205f20601f840160051c810160208510156102985750805b601f840160051c820191505b818110156102b7575f81556001016102a4565b50505b505050565b81516001600160401b038111156102d8576102d86100df565b6102ec816102e6845461023b565b84610273565b6020601f82116001811461031e575f83156103075750848201515b5f19600385901b1c1916600184901b1784556102b7565b5f84815260208120601f198516915b8281101561034d578785015182556020948501946001909201910161032d565b508482101561036a57868401515f19600387901b60f8161c191681555b50505050600190811b01905550565b6110b1806103865f395ff3fe608060405234801561000f575f5ffd5b5060043610610111575f3560e01c8063715018a61161009e578063a22cb4651161006e578063a22cb46514610224578063b88d4fde14610237578063c87b56dd1461024a578063e985e9c51461025d578063f2fde38b14610270575f5ffd5b8063715018a6146101f0578063755edd17146101f85780638da5cb5b1461020b57806395d89b411461021c575f5ffd5b806318160ddd116100e457806318160ddd1461019257806323b872dd146101a457806342842e0e146101b75780636352211e146101ca57806370a08231146101dd575f5ffd5b806301ffc9a71461011557806306fdde031461013d578063081812fc14610152578063095ea7b31461017d575b5f5ffd5b610128610123366004610d3f565b610283565b60405190151581526020015b60405180910390f35b6101456102d4565b6040516101349190610d88565b610165610160366004610d9a565b610363565b6040516001600160a01b039091168152602001610134565b61019061018b366004610dcc565b61038a565b005b6008545b604051908152602001610134565b6101906101b2366004610df4565b610399565b6101906101c5366004610df4565b610427565b6101656101d8366004610d9a565b610446565b6101966101eb366004610e2e565b610450565b61019061045a565b610190610206366004610e2e565b61046d565b6006546001600160a01b0316610165565b610145610499565b610190610232366004610e47565b6104a8565b610190610245366004610e94565b6104b3565b610145610258366004610d9a565b6104cb565b61012861026b366004610f71565b61053c565b61019061027e366004610e2e565b610569565b5f6001600160e01b031982166380ac58cd60e01b14806102b357506001600160e01b03198216635b5e139f60e01b145b806102ce57506301ffc9a760e01b6001600160e01b03198316145b92915050565b60605f80546102e290610fa2565b80601f016020809104026020016040519081016040528092919081815260200182805461030e90610fa2565b80156103595780601f1061033057610100808354040283529160200191610359565b820191905f5260205f20905b81548152906001019060200180831161033c57829003601f168201915b5050505050905090565b5f61036d826105a6565b505f828152600460205260409020546001600160a01b03166102ce565b6103958282336105de565b5050565b6001600160a01b0382166103c757604051633250574960e11b81525f60048201526024015b60405180910390fd5b5f6103d38383336105eb565b9050836001600160a01b0316816001600160a01b031614610421576040516364283d7b60e01b81526001600160a01b03808616600483015260248201849052821660448201526064016103be565b50505050565b61044183838360405180602001604052805f8152506104b3565b505050565b5f6102ce826105a6565b5f6102ce826106dd565b610462610722565b61046b5f61074f565b565b610475610722565b600160085f8282546104879190610fda565b909155505060085461039582826107a0565b6060600180546102e290610fa2565b6103953383836107b9565b6104be848484610399565b6104213385858585610857565b60606104d6826105a6565b505f6104ec60408051602081019091525f815290565b90505f81511161050a5760405180602001604052805f815250610535565b806105148461097f565b604051602001610525929190611010565b6040516020818303038152906040525b9392505050565b6001600160a01b039182165f90815260056020908152604080832093909416825291909152205460ff1690565b610571610722565b6001600160a01b03811661059a57604051631e4fbdf760e01b81525f60048201526024016103be565b6105a38161074f565b50565b5f818152600260205260408120546001600160a01b0316806102ce57604051637e27328960e01b8152600481018490526024016103be565b6104418383836001610a0f565b5f828152600260205260408120546001600160a01b039081169083161561061757610617818486610b13565b6001600160a01b03811615610651576106325f855f5f610a0f565b6001600160a01b0381165f90815260036020526040902080545f190190555b6001600160a01b0385161561067f576001600160a01b0385165f908152600360205260409020805460010190555b5f8481526002602052604080822080546001600160a01b0319166001600160a01b0389811691821790925591518793918516917fddf252ad1be2c89b69c2b068fc378daa952ba7f163c4a11628f55a4df523b3ef91a4949350505050565b5f6001600160a01b038216610707576040516322718ad960e21b81525f60048201526024016103be565b506001600160a01b03165f9081526003602052604090205490565b6006546001600160a01b0316331461046b5760405163118cdaa760e01b81523360048201526024016103be565b600680546001600160a01b038381166001600160a01b0319831681179093556040519116919082907f8be0079c531659141344cd1fd0a4f28419497f9722a3daafe3b4186f6b6457e0905f90a35050565b610395828260405180602001604052805f815250610b77565b6001600160a01b0382166107eb57604051630b61174360e31b81526001600160a01b03831660048201526024016103be565b6001600160a01b038381165f81815260056020908152604080832094871680845294825291829020805460ff191686151590811790915591519182527f17307eab39ab6107e8899845ad3d59bd9653f200f220920489ca2b5937696c31910160405180910390a3505050565b6001600160a01b0383163b1561097857604051630a85bd0160e11b81526001600160a01b0384169063150b7a0290610899908890889087908790600401611024565b6020604051808303815f875af19250505080156108d3575060408051601f3d908101601f191682019092526108d091810190611060565b60015b61093a573d808015610900576040519150601f19603f3d011682016040523d82523d5f602084013e610905565b606091505b5080515f0361093257604051633250574960e11b81526001600160a01b03851660048201526024016103be565b805160208201fd5b6001600160e01b03198116630a85bd0160e11b1461097657604051633250574960e11b81526001600160a01b03851660048201526024016103be565b505b5050505050565b60605f61098b83610b8e565b60010190505f8167ffffffffffffffff8111156109aa576109aa610e80565b6040519080825280601f01601f1916602001820160405280156109d4576020820181803683370190505b5090508181016020015b5f19016f181899199a1a9b1b9c1cb0b131b232b360811b600a86061a8153600a85049450846109de57509392505050565b8080610a2357506001600160a01b03821615155b15610ae4575f610a32846105a6565b90506001600160a01b03831615801590610a5e5750826001600160a01b0316816001600160a01b031614155b8015610a715750610a6f818461053c565b155b15610a9a5760405163a9fbf51f60e01b81526001600160a01b03841660048201526024016103be565b8115610ae25783856001600160a01b0316826001600160a01b03167f8c5be1e5ebec7d5bd14f71427d1e84f3dd0314c0f7b2291e5b200ac8c7c3b92560405160405180910390a45b505b50505f90815260046020526040902080546001600160a01b0319166001600160a01b0392909216919091179055565b610b1e838383610c65565b610441576001600160a01b038316610b4c57604051637e27328960e01b8152600481018290526024016103be565b60405163177e802f60e01b81526001600160a01b0383166004820152602481018290526044016103be565b610b818383610cc9565b610441335f858585610857565b5f8072184f03e93ff9f4daa797ed6e38ed64bf6a1f0160401b8310610bcc5772184f03e93ff9f4daa797ed6e38ed64bf6a1f0160401b830492506040015b6d04ee2d6d415b85acef81000000008310610bf8576d04ee2d6d415b85acef8100000000830492506020015b662386f26fc100008310610c1657662386f26fc10000830492506010015b6305f5e1008310610c2e576305f5e100830492506008015b6127108310610c4257612710830492506004015b60648310610c54576064830492506002015b600a83106102ce5760010192915050565b5f6001600160a01b03831615801590610cc15750826001600160a01b0316846001600160a01b03161480610c9e5750610c9e848461053c565b80610cc157505f828152600460205260409020546001600160a01b038481169116145b949350505050565b6001600160a01b038216610cf257604051633250574960e11b81525f60048201526024016103be565b5f610cfe83835f6105eb565b90506001600160a01b03811615610441576040516339e3563760e11b81525f60048201526024016103be565b6001600160e01b0319811681146105a3575f5ffd5b5f60208284031215610d4f575f5ffd5b813561053581610d2a565b5f81518084528060208401602086015e5f602082860101526020601f19601f83011685010191505092915050565b602081525f6105356020830184610d5a565b5f60208284031215610daa575f5ffd5b5035919050565b80356001600160a01b0381168114610dc7575f5ffd5b919050565b5f5f60408385031215610ddd575f5ffd5b610de683610db1565b946020939093013593505050565b5f5f5f60608486031215610e06575f5ffd5b610e0f84610db1565b9250610e1d60208501610db1565b929592945050506040919091013590565b5f60208284031215610e3e575f5ffd5b61053582610db1565b5f5f60408385031215610e58575f5ffd5b610e6183610db1565b915060208301358015158114610e75575f5ffd5b809150509250929050565b634e487b7160e01b5f52604160045260245ffd5b5f5f5f5f60808587031215610ea7575f5ffd5b610eb085610db1565b9350610ebe60208601610db1565b925060408501359150606085013567ffffffffffffffff811115610ee0575f5ffd5b8501601f81018713610ef0575f5ffd5b803567ffffffffffffffff811115610f0a57610f0a610e80565b604051601f8201601f19908116603f0116810167ffffffffffffffff81118282101715610f3957610f39610e80565b604052818152828201602001891015610f50575f5ffd5b816020840160208301375f6020838301015280935050505092959194509250565b5f5f60408385031215610f82575f5ffd5b610f8b83610db1565b9150610f9960208401610db1565b90509250929050565b600181811c90821680610fb657607f821691505b602082108103610fd457634e487b7160e01b5f52602260045260245ffd5b50919050565b808201808211156102ce57634e487b7160e01b5f52601160045260245ffd5b5f81518060208401855e5f93019283525090919050565b5f610cc161101e8386610ff9565b84610ff9565b6001600160a01b03858116825284166020820152604081018390526080606082018190525f9061105690830184610d5a565b9695505050505050565b5f60208284031215611070575f5ffd5b815161053581610d2a56fea264697066735822122078304ae0dd587f44b04e1700f6c5a9fc55615824261a7e8d8f57e2d40e1ea69964736f6c634300081c0033","linkReferences":{}},"methodIdentifiers":{"approve(address,uint256)":"095ea7b3","balanceOf(address)":"70a08231","getApproved(uint256)":"081812fc","isApprovedForAll(address,address)":"e985e9c5","mintTo(address)":"755edd17","name()":"06fdde03","owner()":"8da5cb5b","ownerOf(uint256)":"6352211e","renounceOwnership()":"715018a6","safeTransferFrom(address,address,uint256)":"42842e0e","safeTransferFrom(address,address,uint256,bytes)":"b88d4fde","setApprovalForAll(address,bool)":"a22cb465","supportsInterface(bytes4)":"01ffc9a7","symbol()":"95d89b41","tokenURI(uint256)":"c87b56dd","totalSupply()":"18160ddd","transferFrom(address,address,uint256)":"23b872dd","transferOwnership(address)":"f2fde38b"},"id":50}