{"abi":[{"type":"constructor","inputs":[{"name":"_oracle","type":"address","internalType":"address"}],"stateMutability":"nonpayable"},{"type":"function","name":"claimId","inputs":[{"name":"user","type":"address","internalType":"address"},{"name":"context","type":"bytes","internalType":"bytes"}],"outputs":[{"name":"","type":"bytes32","internalType":"bytes32"}],"stateMutability":"view"},{"type":"function","name":"isEligible","inputs":[{"name":"user","type":"address","internalType":"address"},{"name":"context","type":"bytes","internalType":"bytes"}],"outputs":[{"name":"eligible","type":"bool","internalType":"bool"},{"name":"xpAmount","type":"uint256","internalType":"uint256"}],"stateMutability":"view"},{"type":"function","name":"name","inputs":[],"outputs":[{"name":"","type":"string","internalType":"string"}],"stateMutability":"pure"},{"type":"function","name":"oracle","inputs":[],"outputs":[{"name":"","type":"address","internalType":"contract IXPOracle"}],"stateMutability":"view"},{"type":"function","name":"owner","inputs":[],"outputs":[{"name":"","type":"address","internalType":"address"}],"stateMutability":"view"},{"type":"function","name":"renounceOwnership","inputs":[],"outputs":[],"stateMutability":"nonpayable"},{"type":"function","name":"transferOwnership","inputs":[{"name":"newOwner","type":"address","internalType":"address"}],"outputs":[],"stateMutability":"nonpayable"},{"type":"function","name":"updateOracle","inputs":[{"name":"newOracle","type":"address","internalType":"address"}],"outputs":[],"stateMutability":"nonpayable"},{"type":"function","name":"validAfter","inputs":[{"name":"","type":"address","internalType":"address"},{"name":"","type":"bytes","internalType":"bytes"}],"outputs":[{"name":"","type":"uint256","internalType":"uint256"}],"stateMutability":"pure"},{"type":"event","name":"OracleUpdated","inputs":[{"name":"oldOracle","type":"address","indexed":true,"internalType":"address"},{"name":"newOracle","type":"address","indexed":true,"internalType":"address"}],"anonymous":false},{"type":"event","name":"OwnershipTransferred","inputs":[{"name":"previousOwner","type":"address","indexed":true,"internalType":"address"},{"name":"newOwner","type":"address","indexed":true,"internalType":"address"}],"anonymous":false},{"type":"error","name":"OwnableInvalidOwner","inputs":[{"name":"owner","type":"address","internalType":"address"}]},{"type":"error","name":"OwnableUnauthorizedAccount","inputs":[{"name":"account","type":"address","internalType":"address"}]}],"bytecode":{"object":"0x608060405234801561000f575f5ffd5b5060405161090e38038061090e83398101604081905261002e9161012a565b80338061005557604051631e4fbdf760e01b81525f60048201526024015b60405180910390fd5b61005e816100db565b506001600160a01b0381166100b55760405162461bcd60e51b815260206004820152601660248201527f496e76616c6964206f7261636c65206164647265737300000000000000000000604482015260640161004c565b600180546001600160a01b0319166001600160a01b039290921691909117905550610157565b5f80546001600160a01b038381166001600160a01b0319831681178455604051919092169283917f8be0079c531659141344cd1fd0a4f28419497f9722a3daafe3b4186f6b6457e09190a35050565b5f6020828403121561013a575f5ffd5b81516001600160a01b0381168114610150575f5ffd5b9392505050565b6107aa806101645f395ff3fe608060405234801561000f575f5ffd5b5060043610610090575f3560e01c806361d013351161006357806361d013351461012a578063715018a6146101405780637dc0d1d0146101485780638da5cb5b14610173578063f2fde38b14610183575f5ffd5b806306fdde03146100945780631cb44dfc146100ca5780634e3c1509146100df5780635dcbc01b14610100575b5f5ffd5b604080518082018252600b81526a486173566f7465643a763160a81b602082015290516100c1919061053b565b60405180910390f35b6100dd6100d836600461056f565b610196565b005b6100f26100ed366004610588565b610243565b6040519081526020016100c1565b61011361010e366004610588565b6102e7565b6040805192151583526020830191909152016100c1565b6100f2610138366004610588565b5f9392505050565b6100dd61034d565b60015461015b906001600160a01b031681565b6040516001600160a01b0390911681526020016100c1565b5f546001600160a01b031661015b565b6100dd61019136600461056f565b610360565b61019e61039d565b6001600160a01b0381166101f25760405162461bcd60e51b8152602060048201526016602482015275496e76616c6964206f7261636c65206164647265737360501b60448201526064015b60405180910390fd5b600180546001600160a01b038381166001600160a01b0319831681179093556040519116919082907f078c3b417dadf69374a59793b829c52001247130433427049317bde56607b1b7905f90a35050565b5f808080806102548688018861061a565b5060408051602080820196909652808201949094526060808501939093526080808501929092528051808503909201825260a0840181528151918501919091206bffffffffffffffffffffffff1930841b811660c08601529c90921b909b1660d483015260e8808301919091528a5180830390910181526101089091019099528851980197909720979650505050505050565b5f8080808080806102fa888a018a61061a565b9450945094509450945061033a8a8660405160200161031b91815260200190565b60405160208183030381529060405280519060200120868686866103c9565b5060019a93995092975050505050505050565b61035561039d565b61035e5f6104be565b565b61036861039d565b6001600160a01b03811661039157604051631e4fbdf760e01b81525f60048201526024016101e9565b61039a816104be565b50565b5f546001600160a01b0316331461035e5760405163118cdaa760e01b81523360048201526024016101e9565b6040805160c0810182526001600160a01b038089168252306020830152818301889052606082018790526080820186905260a082018590526001549251636c34c49f60e11b81525f938492169063d869893e9061042c90859088906004016106f2565b602060405180830381865afa158015610447573d5f5f3e3d5ffd5b505050506040513d601f19601f8201168201806040525081019061046b9190610755565b9050806104b15760405162461bcd60e51b815260206004820152601460248201527324b73b30b634b21037b930b1b63290383937b7b360611b60448201526064016101e9565b5094979650505050505050565b5f80546001600160a01b038381166001600160a01b0319831681178455604051919092169283917f8be0079c531659141344cd1fd0a4f28419497f9722a3daafe3b4186f6b6457e09190a35050565b5f81518084528060208401602086015e5f602082860101526020601f19601f83011685010191505092915050565b602081525f61054d602083018461050d565b9392505050565b80356001600160a01b038116811461056a575f5ffd5b919050565b5f6020828403121561057f575f5ffd5b61054d82610554565b5f5f5f6040848603121561059a575f5ffd5b6105a384610554565b9250602084013567ffffffffffffffff8111156105be575f5ffd5b8401601f810186136105ce575f5ffd5b803567ffffffffffffffff8111156105e4575f5ffd5b8660208284010111156105f5575f5ffd5b939660209190910195509293505050565b634e487b7160e01b5f52604160045260245ffd5b5f5f5f5f5f60a0868803121561062e575f5ffd5b85359450602086013593506040860135925060608601359150608086013567ffffffffffffffff811115610660575f5ffd5b8601601f81018813610670575f5ffd5b803567ffffffffffffffff81111561068a5761068a610606565b604051601f8201601f19908116603f0116810167ffffffffffffffff811182821017156106b9576106b9610606565b6040528181528282016020018a10156106d0575f5ffd5b816020840160208301375f602083830101528093505050509295509295909350565b60018060a01b03835116815260018060a01b03602084015116602082015260408301516040820152606083015160608201526080830151608082015260a083015160a082015260e060c08201525f61074d60e083018461050d565b949350505050565b5f60208284031215610765575f5ffd5b8151801515811461054d575f5ffdfea2646970667358221220cd8938b6a18cf60bf9957bc2e50d31c7a23d682bccdbf0c73b741399cb885e8464736f6c634300081c0033","linkReferences":{}},"methodIdentifiers":{"claimId(address,bytes)":"4e3c1509","isEligible(address,bytes)":"5dcbc01b","name()":"06fdde03","oracle()":"7dc0d1d0","owner()":"8da5cb5b","renounceOwnership()":"715018a6","transferOwnership(address)":"f2fde38b","updateOracle(address)":"1cb44dfc","validAfter(address,bytes)":"61d01335"},"id":40}