{"abi":[{"type":"constructor","inputs":[{"name":"_xpManager","type":"address","internalType":"address"},{"name":"_rewardToken","type":"address","internalType":"address"}],"stateMutability":"nonpayable"},{"type":"function","name":"checkUserRewards","inputs":[{"name":"user","type":"address","internalType":"address"}],"outputs":[{"name":"","type":"uint256","internalType":"uint256"}],"stateMutability":"view"},{"type":"function","name":"claimRewardsForUser","inputs":[{"name":"user","type":"address","internalType":"address"}],"outputs":[],"stateMutability":"nonpayable"},{"type":"function","name":"rewardToken","inputs":[],"outputs":[{"name":"","type":"address","internalType":"contract ERC20"}],"stateMutability":"view"},{"type":"function","name":"setupRewards","inputs":[],"outputs":[],"stateMutability":"nonpayable"},{"type":"function","name":"xpManager","inputs":[],"outputs":[{"name":"","type":"address","internalType":"contract XPManager"}],"stateMutability":"view"}],"bytecode":{"object":"0x6080604052348015600e575f5ffd5b5060405161052b38038061052b833981016040819052602b916074565b5f80546001600160a01b039384166001600160a01b0319918216179091556001805492909316911617905560a0565b80516001600160a01b0381168114606f575f5ffd5b919050565b5f5f604083850312156084575f5ffd5b608b83605a565b9150609760208401605a565b90509250929050565b61047e806100ad5f395ff3fe608060405234801561000f575f5ffd5b5060043610610055575f3560e01c806337619e761461005957806339b8b0741461006e5780639a1e9c33146100765780639c23b8d01461009c578063f7c618c1146100c6575b5f5ffd5b61006c610067366004610377565b6100d9565b005b61006c610131565b610089610084366004610377565b610305565b6040519081526020015b60405180910390f35b5f546100ae906001600160a01b031681565b6040516001600160a01b039091168152602001610093565b6001546100ae906001600160a01b031681565b5f80546040805163149d5c7b60e11b815290516001600160a01b039092169263293ab8f69260048084019382900301818387803b158015610118575f5ffd5b505af115801561012a573d5f5f3e3d5ffd5b5050505050565b60408051600480825260a082019092525f91602082016080803683370190505090506064815f81518110610167576101676103a4565b6020026020010181815250506101f481600181518110610189576101896103a4565b6020026020010181815250506103e8816002815181106101ab576101ab6103a4565b602002602001018181525050611388816003815181106101cd576101cd6103a4565b602090810291909101015260408051600480825260a082019092525f91816020016020820280368337019050509050678ac7230489e80000815f81518110610217576102176103a4565b6020026020010181815250506802b5e3af16b188000081600181518110610240576102406103a4565b60200260200101818152505068056bc75e2d6310000081600281518110610269576102696103a4565b602002602001018181525050681b1ae4d6e2ef50000081600381518110610292576102926103a4565b60209081029190910101525f5460015460405163262055a360e01b81526001600160a01b039283169263262055a3926102d492911690869086906004016103f2565b5f604051808303815f87803b1580156102eb575f5ffd5b505af11580156102fd573d5f5f3e3d5ffd5b505050505050565b5f8054604051633c4c06cd60e11b81526001600160a01b038481166004830152909116906378980d9a90602401602060405180830381865afa15801561034d573d5f5f3e3d5ffd5b505050506040513d601f19601f820116820180604052508101906103719190610431565b92915050565b5f60208284031215610387575f5ffd5b81356001600160a01b038116811461039d575f5ffd5b9392505050565b634e487b7160e01b5f52603260045260245ffd5b5f8151808452602084019350602083015f5b828110156103e85781518652602095860195909101906001016103ca565b5093949350505050565b6001600160a01b03841681526060602082018190525f90610415908301856103b8565b828103604084015261042781856103b8565b9695505050505050565b5f60208284031215610441575f5ffd5b505191905056fea26469706673582212202311434b8282f8cb6364430bb8531d8541240950091a66d69612b85eba76f9a564736f6c634300081c0033","linkReferences":{}},"methodIdentifiers":{"checkUserRewards(address)":"9a1e9c33","claimRewardsForUser(address)":"37619e76","rewardToken()":"f7c618c1","setupRewards()":"39b8b074","xpManager()":"9c23b8d0"},"id":45}