{"abi":[{"type":"constructor","inputs":[],"stateMutability":"nonpayable"},{"type":"function","name":"calculateAvailableERC20Reward","inputs":[{"name":"user","type":"address","internalType":"address"}],"outputs":[{"name":"","type":"uint256","internalType":"uint256"}],"stateMutability":"view"},{"type":"function","name":"claimBulkXP","inputs":[{"name":"conditionId","type":"uint256","internalType":"uint256"},{"name":"context","type":"bytes","internalType":"bytes"}],"outputs":[],"stateMutability":"nonpayable"},{"type":"function","name":"claimBulkXPFor","inputs":[{"name":"user","type":"address","internalType":"address"},{"name":"conditionId","type":"uint256","internalType":"uint256"},{"name":"context","type":"bytes","internalType":"bytes"}],"outputs":[],"stateMutability":"nonpayable"},{"type":"function","name":"claimXP","inputs":[{"name":"conditionId","type":"uint256","internalType":"uint256"},{"name":"context","type":"bytes","internalType":"bytes"}],"outputs":[],"stateMutability":"nonpayable"},{"type":"function","name":"claimXPFor","inputs":[{"name":"user","type":"address","internalType":"address"},{"name":"conditionId","type":"uint256","internalType":"uint256"},{"name":"context","type":"bytes","internalType":"bytes"}],"outputs":[],"stateMutability":"nonpayable"},{"type":"function","name":"claimedERC20Rewards","inputs":[{"name":"","type":"address","internalType":"address"}],"outputs":[{"name":"","type":"uint256","internalType":"uint256"}],"stateMutability":"view"},{"type":"function","name":"deactivateERC20RewardConfig","inputs":[],"outputs":[],"stateMutability":"nonpayable"},{"type":"function","name":"emergencyWithdrawERC20","inputs":[{"name":"tokenAddress","type":"address","internalType":"address"},{"name":"amount","type":"uint256","internalType":"uint256"}],"outputs":[],"stateMutability":"nonpayable"},{"type":"function","name":"getAllLevelInfo","inputs":[{"name":"user","type":"address","internalType":"address"}],"outputs":[{"name":"thresholds","type":"uint256[]","internalType":"uint256[]"},{"name":"levels","type":"uint256[]","internalType":"uint256[]"},{"name":"userLevel","type":"uint256","internalType":"uint256"},{"name":"currentUserXP","type":"uint256","internalType":"uint256"},{"name":"nextLevel","type":"uint256","internalType":"uint256"},{"name":"xpRequired","type":"uint256","internalType":"uint256"},{"name":"xpProgress","type":"uint256","internalType":"uint256"}],"stateMutability":"view"},{"type":"function","name":"getAvailableERC20Reward","inputs":[{"name":"user","type":"address","internalType":"address"}],"outputs":[{"name":"","type":"uint256","internalType":"uint256"}],"stateMutability":"view"},{"type":"function","name":"getClaimedVerifierCount","inputs":[{"name":"user","type":"address","internalType":"address"}],"outputs":[{"name":"","type":"uint256","internalType":"uint256"}],"stateMutability":"view"},{"type":"function","name":"getClaimedVerifiers","inputs":[{"name":"user","type":"address","internalType":"address"}],"outputs":[{"name":"","type":"uint256[]","internalType":"uint256[]"}],"stateMutability":"view"},{"type":"function","name":"getERC20RewardConfig","inputs":[],"outputs":[{"name":"tokenAddress","type":"address","internalType":"address"},{"name":"conversionRate","type":"uint256","internalType":"uint256"},{"name":"active","type":"bool","internalType":"bool"}],"stateMutability":"view"},{"type":"function","name":"getLevelForXP","inputs":[{"name":"xpAmount","type":"uint256","internalType":"uint256"}],"outputs":[{"name":"","type":"uint256","internalType":"uint256"}],"stateMutability":"view"},{"type":"function","name":"getNextLevelInfo","inputs":[{"name":"user","type":"address","internalType":"address"}],"outputs":[{"name":"nextLevel","type":"uint256","internalType":"uint256"},{"name":"xpRequired","type":"uint256","internalType":"uint256"},{"name":"xpProgress","type":"uint256","internalType":"uint256"}],"stateMutability":"view"},{"type":"function","name":"getTotalXP","inputs":[{"name":"user","type":"address","internalType":"address"}],"outputs":[{"name":"","type":"uint256","internalType":"uint256"}],"stateMutability":"view"},{"type":"function","name":"getUserLevel","inputs":[{"name":"user","type":"address","internalType":"address"}],"outputs":[{"name":"","type":"uint256","internalType":"uint256"}],"stateMutability":"view"},{"type":"function","name":"getXPLevels","inputs":[],"outputs":[{"name":"thresholds","type":"uint256[]","internalType":"uint256[]"},{"name":"levels","type":"uint256[]","internalType":"uint256[]"},{"name":"active","type":"bool","internalType":"bool"}],"stateMutability":"view"},{"type":"function","name":"hasClaimedFromVerifier","inputs":[{"name":"user","type":"address","internalType":"address"},{"name":"verifierId","type":"uint256","internalType":"uint256"}],"outputs":[{"name":"","type":"bool","internalType":"bool"}],"stateMutability":"view"},{"type":"function","name":"owner","inputs":[],"outputs":[{"name":"","type":"address","internalType":"address"}],"stateMutability":"view"},{"type":"function","name":"registerVerifier","inputs":[{"name":"id","type":"uint256","internalType":"uint256"},{"name":"verifier","type":"address","internalType":"address"}],"outputs":[],"stateMutability":"nonpayable"},{"type":"function","name":"renounceOwnership","inputs":[],"outputs":[],"stateMutability":"nonpayable"},{"type":"function","name":"resetUser","inputs":[{"name":"user","type":"address","internalType":"address"}],"outputs":[],"stateMutability":"nonpayable"},{"type":"function","name":"resetVerifierProofs","inputs":[{"name":"verifierId","type":"uint256","internalType":"uint256"}],"outputs":[],"stateMutability":"nonpayable"},{"type":"function","name":"resetVerifierProofsForUser","inputs":[{"name":"verifierId","type":"uint256","internalType":"uint256"},{"name":"user","type":"address","internalType":"address"}],"outputs":[],"stateMutability":"nonpayable"},{"type":"function","name":"setERC20RewardConfig","inputs":[{"name":"tokenAddress","type":"address","internalType":"address"},{"name":"conversionRate","type":"uint256","internalType":"uint256"}],"outputs":[],"stateMutability":"nonpayable"},{"type":"function","name":"setXPLevels","inputs":[{"name":"thresholds","type":"uint256[]","internalType":"uint256[]"},{"name":"levels","type":"uint256[]","internalType":"uint256[]"}],"outputs":[],"stateMutability":"nonpayable"},{"type":"function","name":"transferOwnership","inputs":[{"name":"newOwner","type":"address","internalType":"address"}],"outputs":[],"stateMutability":"nonpayable"},{"type":"function","name":"updateVerifier","inputs":[{"name":"id","type":"uint256","internalType":"uint256"},{"name":"verifier","type":"address","internalType":"address"}],"outputs":[],"stateMutability":"nonpayable"},{"type":"function","name":"usedProofs","inputs":[{"name":"","type":"bytes32","internalType":"bytes32"}],"outputs":[{"name":"","type":"bool","internalType":"bool"}],"stateMutability":"view"},{"type":"function","name":"userClaimedVerifiers","inputs":[{"name":"","type":"address","internalType":"address"},{"name":"","type":"uint256","internalType":"uint256"}],"outputs":[{"name":"","type":"uint256","internalType":"uint256"}],"stateMutability":"view"},{"type":"function","name":"userVerifierClaims","inputs":[{"name":"","type":"address","internalType":"address"},{"name":"","type":"uint256","internalType":"uint256"}],"outputs":[{"name":"","type":"bool","internalType":"bool"}],"stateMutability":"view"},{"type":"function","name":"userXP","inputs":[{"name":"","type":"address","internalType":"address"}],"outputs":[{"name":"","type":"uint256","internalType":"uint256"}],"stateMutability":"view"},{"type":"function","name":"verifiers","inputs":[{"name":"","type":"uint256","internalType":"uint256"}],"outputs":[{"name":"","type":"address","internalType":"address"}],"stateMutability":"view"},{"type":"event","name":"ERC20RewardClaimed","inputs":[{"name":"user","type":"address","indexed":true,"internalType":"address"},{"name":"tokenAddress","type":"address","indexed":true,"internalType":"address"},{"name":"amount","type":"uint256","indexed":false,"internalType":"uint256"}],"anonymous":false},{"type":"event","name":"ERC20RewardConfigDeactivated","inputs":[{"name":"tokenAddress","type":"address","indexed":true,"internalType":"address"}],"anonymous":false},{"type":"event","name":"ERC20RewardConfigSet","inputs":[{"name":"tokenAddress","type":"address","indexed":true,"internalType":"address"},{"name":"conversionRate","type":"uint256","indexed":false,"internalType":"uint256"}],"anonymous":false},{"type":"event","name":"LevelUp","inputs":[{"name":"user","type":"address","indexed":true,"internalType":"address"},{"name":"newLevel","type":"uint256","indexed":false,"internalType":"uint256"},{"name":"totalXP","type":"uint256","indexed":false,"internalType":"uint256"}],"anonymous":false},{"type":"event","name":"OwnershipTransferred","inputs":[{"name":"previousOwner","type":"address","indexed":true,"internalType":"address"},{"name":"newOwner","type":"address","indexed":true,"internalType":"address"}],"anonymous":false},{"type":"event","name":"UserReset","inputs":[{"name":"user","type":"address","indexed":true,"internalType":"address"},{"name":"previousXP","type":"uint256","indexed":false,"internalType":"uint256"},{"name":"claimedVerifiersCount","type":"uint256","indexed":false,"internalType":"uint256"}],"anonymous":false},{"type":"event","name":"VerifierClaimed","inputs":[{"name":"user","type":"address","indexed":true,"internalType":"address"},{"name":"verifierId","type":"uint256","indexed":true,"internalType":"uint256"},{"name":"xpAmount","type":"uint256","indexed":false,"internalType":"uint256"}],"anonymous":false},{"type":"event","name":"VerifierRegistered","inputs":[{"name":"id","type":"uint256","indexed":true,"internalType":"uint256"},{"name":"verifier","type":"address","indexed":false,"internalType":"address"}],"anonymous":false},{"type":"event","name":"VerifierUpdated","inputs":[{"name":"id","type":"uint256","indexed":true,"internalType":"uint256"},{"name":"oldVerifier","type":"address","indexed":false,"internalType":"address"},{"name":"newVerifier","type":"address","indexed":false,"internalType":"address"}],"anonymous":false},{"type":"event","name":"XPEarned","inputs":[{"name":"user","type":"address","indexed":true,"internalType":"address"},{"name":"xpAmount","type":"uint256","indexed":false,"internalType":"uint256"},{"name":"totalXP","type":"uint256","indexed":false,"internalType":"uint256"}],"anonymous":false},{"type":"event","name":"XPLevelsSet","inputs":[{"name":"thresholds","type":"uint256[]","indexed":false,"internalType":"uint256[]"},{"name":"levels","type":"uint256[]","indexed":false,"internalType":"uint256[]"}],"anonymous":false},{"type":"error","name":"OwnableInvalidOwner","inputs":[{"name":"owner","type":"address","internalType":"address"}]},{"type":"error","name":"OwnableUnauthorizedAccount","inputs":[{"name":"account","type":"address","internalType":"address"}]},{"type":"error","name":"SafeERC20FailedOperation","inputs":[{"name":"token","type":"address","internalType":"address"}]}],"bytecode":{"object":"0x608080604052346071573315605e575f8054336001600160a01b0319821681178355916001600160a01b03909116907f8be0079c531659141344cd1fd0a4f28419497f9722a3daafe3b4186f6b6457e09080a361311f90816100768239f35b631e4fbdf760e01b5f525f60045260245ffd5b5f80fdfe60806040526004361015610011575f80fd5b5f5f3560e01c8063106e9a45146124bb57806321923bde14612498578063239322301461200b578063278fd9f414612449578063293de3541461235257806329a1e093146120435780633327ab2d1461178e578063341774a41461200b578063343959b414611dc357806336ceadec14611d395780634b226aa914611ca35780635b851b2d146119a45780635baffa86146118865780635d5a4462146118685780636a031db014611810578063715018a6146117b957806378980d9a1461178e57806381b1b801146115525780638bc363ee1461151a5780638da5cb5b146114f3578063914bfcee146114b8578063a2b8ffe2146113d6578063ac1eff68146113a4578063b07c797014611169578063b5c9770214611120578063c30a0f25146110f1578063c596618314610c91578063db7b7f9714610c59578063df29b98214610c1b578063eacf428a1461093b578063f1f616151461060d578063f2fde38b14610587578063f67b59c11461053e5763f8c327e914610190575f80fd5b3461053b5761019e3661257e565b91926001600160a01b038116929185906101b98515156128b0565b858252600260205260408220546101da906001600160a01b031615156128eb565b858252600260205260018060a01b036040832054166040519163aa5fe60160e01b83526020838061021089858a6004850161292c565b0381855afa9283156105305784936104f9575b50828452600360205261023d60ff60408620541615612961565b6040516361d0133560e01b81526020818061025d8a868b6004850161292c565b0381865afa9081156104ee5785916104b6575b50956060916102846102a09842101561299f565b604051630508b96d60e01b81529788928392896004850161292c565b0381845afa9182156104ab57838496859461046e575b506102c090612a0c565b6102cb861515612a47565b60ff60085416610391575b8352600360205260408320805460ff191660011790556102f68785612ddf565b803b1561038d57604051633d026e9360e01b81526001600160a01b0385166004820152602481019290925282908290604490829084905af1801561038257610369575b50508161035f8261035a5f5160206130ca5f395f51905f5295602095612e6a565b612f2c565b604051908152a380f35b81610373916126fd565b61037e57845f610339565b8480fd5b6040513d84823e3d90fd5b8280fd5b86845260016020526103b36103aa876040872054612a84565b60075490612a91565b878552600a60205260408520548082116103cf575b50506102d6565b6103d891612aa4565b6006546040516370a0823160e01b815230600482015290602090829060249082906001600160a01b03165afa908115610463578691610426575b509061041f911015612ab1565b5f806103c8565b919550506020813d60201161045b575b81610443602093836126fd565b81010312610457575189949061041f610412565b5f80fd5b3d9150610436565b6040513d88823e3d90fd5b90506104989196506102c0935060603d6060116104a4575b61049081836126fd565b810190612d17565b969193909693906102b6565b503d610486565b6040513d85823e3d90fd5b919450506020813d6020116104e6575b816104d3602093836126fd565b8101031261045757518893906060610270565b3d91506104c6565b6040513d87823e3d90fd5b935091506020833d602011610528575b81610516602093836126fd565b8101031261045757879251915f610223565b3d9150610509565b6040513d86823e3d90fd5b80fd5b503461053b57604036600319011261053b5760209060ff906040906001600160a01b036105696124f1565b16815260048452818120602435825284522054166040519015158152f35b503461053b57602036600319011261053b576105a16124f1565b6105a9612db9565b6001600160a01b031680156105f95781546001600160a01b03198116821783556001600160a01b03167f8be0079c531659141344cd1fd0a4f28419497f9722a3daafe3b4186f6b6457e08380a380f35b631e4fbdf760e01b82526004829052602482fd5b50346104575761061c3661260b565b5f8381526002602052604090205461063e906001600160a01b031615156128eb565b825f52600260205260018060a01b0360405f2054166040519163aa5fe60160e01b8352602083806106748488336004850161292c565b0381855afa9283156107d9575f93610907575b50825f5260036020526106a160ff60405f20541615612961565b6040516361d0133560e01b8152602081806106c18589336004850161292c565b0381865afa9081156107d9575f916108d1575b5090610704946106e860609342101561299f565b604051630508b96d60e01b81529586928392336004850161292c565b0381845afa9182156107d9575f5f945f946108a4575b5061072490612a0c565b61072f841515612a47565b60ff600854166107e4575b5f52600360205260405f20600160ff1982541617905561075a8433612ddf565b803b1561045757604051633d026e9360e01b815233600482015260248101929092525f908290604490829084905af180156107d9576107c4575b5061079f8133612e6a565b6107a833612f2c565b6040519081525f5160206130ca5f395f51905f5260203392a380f35b6107d19193505f906126fd565b5f915f610794565b6040513d5f823e3d90fd5b335f5260016020526107fd6103aa8560405f2054612a84565b335f52600a60205260405f20549081811161081a575b505061073a565b60249161082691612aa4565b6006546040516370a0823160e01b81523060048201529260209184919082906001600160a01b03165afa80156107d9575f90610870575b61086992501015612ab1565b5f80610813565b506020823d60201161089c575b8161088a602093836126fd565b8101031261045757610869915161085d565b3d915061087d565b90506108c5919450610724935060603d6060116104a45761049081836126fd565b9491939094939061071a565b9190506020823d6020116108ff575b816108ed602093836126fd565b810103126104575790516107046106d4565b3d91506108e0565b9092506020813d602011610933575b81610923602093836126fd565b810103126104575751915f610687565b3d9150610916565b34610457576109493661260b565b5f8381526002602052604090205461096b906001600160a01b031615156128eb565b5f83815260026020908152604091829020549151634e3c150960e01b815292916001600160a01b03169083806109a68588336004850161292c565b0381845afa9283156107d9575f93610be7575b50825f5260036020526109d360ff60405f20541615612961565b6040516361d0133560e01b8152602081806109f38689336004850161292c565b0381855afa9081156107d9575f91610bad575b5090610a3794610a1b6040949342101561299f565b8351809681948293635dcbc01b60e01b8452336004850161292c565b03915afa9182156107d9575f905f93610b79575b50610a5590612a0c565b610a60821515612a47565b60ff60085416610ab9575b5f52600360205260405f20600160ff19825416179055610a8b8233612ddf565b610a958133612e6a565b610a9e33612f2c565b6040519081525f5160206130ca5f395f51905f5260203392a3005b335f526001602052610ad26103aa8360405f2054612a84565b335f52600a60205260405f205490818111610aef575b5050610a6b565b602491610afb91612aa4565b6006546040516370a0823160e01b81523060048201529260209184919082906001600160a01b03165afa80156107d9575f90610b45575b610b3e92501015612ab1565b8380610ae8565b506020823d602011610b71575b81610b5f602093836126fd565b8101031261045757610b3e9151610b32565b3d9150610b52565b610a559350610ba0915060403d604011610ba6575b610b9881836126fd565b8101906129ef565b92610a4b565b503d610b8e565b929190506020833d602011610bdf575b81610bca602093836126fd565b81010312610457579151909190610a37610a06565b3d9150610bbd565b9092506020813d602011610c13575b81610c03602093836126fd565b81010312610457575191856109b9565b3d9150610bf6565b3461045757604036600319011261045757610c57610c376124f1565b610c3f612db9565b5f54602435916001600160a01b03918216911661303d565b005b34610457576020366003190112610457576001600160a01b03610c7a6124f1565b165f52600a602052602060405f2054604051908152f35b3461045757604036600319011261045757600435610cad612507565b90610cb6612db9565b5f81815260026020526040902054610cd8906001600160a01b031615156128eb565b610cec6001600160a01b0383161515612b56565b5f9081526002602052604090819020549051906001600160a01b0316610120610d1581846126fd565b60088352601f190136602084013760405160208101905f825260208152610d3d6040826126fd565b519020610d4983612769565b5260405160208101906001825260208152610d656040826126fd565b519020610d7183612776565b5260405160208101906064825260208152610d8d6040826126fd565b519020610d9983612786565b5260405160208101906103e8825260208152610db66040826126fd565b519020610dc283612796565b526040516020810190612710825260208152610ddf6040826126fd565b519020610deb836127a6565b528151600510156110dd575f60c083015260405160208101906032825260208152610e176040826126fd565b5190208251600610156110dd5760e083015260405160208101906101f4825260208152610e456040826126fd565b5190208251600710156110dd576101008301525f5b8251811015610f0a57610e6d81846127b6565b51604051610e9381610e856020820194898887612c43565b03601f1981018352826126fd565b5190205f52600360205260405f2060ff1981541690555f5b600a811115610ebd5750600101610e5a565b610f0290610ece83869794976127b6565b51604051610ee781610e85602082019486898b88612c82565b5190205f52600360205260405f2060ff198154169055612c74565b939093610eab565b505f835b60188210610f1857005b610e108202828104610e1014831517156110c95780421015610f40575b509060010190610f0e565b610f4a9042612aa4565b60405160809491610f5b86836126fd565b60038252601f198601366020840137610e10610f7683612769565b52611c20610f8383612776565b5262015180610f9183612786565b525f5b82518110156110ba575f5b60058110610fb05750600101610f94565b6110138160c060405190610fc481836126fd565b600582525060a03660208301375f610fdb82612769565b526032610fe782612776565b526064610ff382612786565b526103e861100082612796565b5261271061100d826127a6565b526127b6565b5161102861102184876127b6565b5185612a84565b60405190602082019283525f60408301528560608301528a82015289815261105160a0826126fd565b519020604051602081019061106c81610e85858c8c87612c43565b5190205f52600360205260405f2060ff1981541690555f5b6005811115611097575050600101610f9f565b6040516110b591906020810190610ee781610e8587868f8f88612c82565b611084565b5091945060019150610f359050565b634e487b7160e01b5f52601160045260245ffd5b634e487b7160e01b5f52603260045260245ffd5b34610457576020366003190112610457576004355f526003602052602060ff60405f2054166040519015158152f35b34610457576040366003190112610457576001600160a01b036111416124f1565b165f52600460205260405f206024355f52602052602060ff60405f2054166040519015158152f35b34610457576020366003190112610457576111826124f1565b6040516309e3f67d60e21b81525f81600481305afa9182156107d9575f915f93611331575b506040516310c91def60e11b81526001600160a01b0390911660048201819052602082602481305afa9182156107d9575f926112fd575b50604051630d05dd2960e21b81526004810182905290602082602481305afa9182156107d9575f926112c9575b506040519063106e9a4560e01b82526004820152606081602481305afa9182156107d9575f905f925f94611282575b506112646112569760405198899860e08a5260e08a019061251d565b9088820360208a015261251d565b9460408701526060860152608085015260a084015260c08301520390f35b9693509150506060853d6060116112c1575b816112a1606093836126fd565b81010312610457578451602086015160409096015192959161126461123a565b3d9150611294565b9091506020813d6020116112f5575b816112e5602093836126fd565b810103126104575751908561120b565b3d91506112d8565b9091506020813d602011611329575b81611319602093836126fd565b81010312610457575190846111de565b3d915061130c565b915091503d805f833e61134481836126fd565b810160608282031261045757815167ffffffffffffffff8111610457578161136d918401612cba565b9060208301519067ffffffffffffffff82116104575761139460409161139b938601612cba565b93016129e2565b509091836111a7565b34610457576020366003190112610457576004355f526002602052602060018060a01b0360405f205416604051908152f35b34610457576040366003190112610457576004356113f2612507565b6113fa612db9565b6001600160a01b031661140e811515612864565b5f828152600260205260409020546001600160a01b03166114735760207f3d47d745bf8c193d19b6eff4f8bb5ff806af27c6fe2863b21a76c292b8f48e1391835f526002825260405f20816001600160601b0360a01b825416179055604051908152a2005b60405162461bcd60e51b815260206004820152601a60248201527f566572696669657220494420616c7265616479206578697374730000000000006044820152606490fd5b34610457575f36600319011261045757606060018060a01b036006541660075460ff6008541690604051928352602083015215156040820152f35b34610457575f366003190112610457575f546040516001600160a01b039091168152602090f35b34610457576020366003190112610457576001600160a01b0361153b6124f1565b165f526005602052602060405f2054604051908152f35b346104575760203660031901126104575760043561156e612db9565b5f81815260026020526040902054611590906001600160a01b031615156128eb565b5f52600260205260018060a01b0360405f20541660c0604051916115b482846126fd565b6005835260a036602085013760405160208101905f8252602081526115da6040826126fd565b5190206115e684612769565b52604051602081019060018252602081526116026040826126fd565b51902061160e84612776565b526040516020810190606482526020815261162a6040826126fd565b51902061163684612786565b5260405160208101906103e88252602081526116536040826126fd565b51902061165f84612796565b525f61166a846127a6565b526040519161167981846126fd565b600583525060a0366020840137600161169183612769565b52600261169d83612776565b5260036116a983612786565b526101236116b683612796565b526104566116c3836127a6565b525f925b8051841015610c57575f5b8351811015611783576001600160a01b036116ed82866127b6565b5116610e856117126116ff88866127b6565b5160405192839160208301958987612c43565b5190205f52600360205260405f2060ff1981541690555f5b600581111561173c57506001016116d2565b90949061177b906001600160a01b0361175588886127b6565b5116610e85610ee761176786886127b6565b516040519283918660208401968c88612c82565b94909461172a565b5092600101926116c7565b346104575760203660031901126104575760206117b16117ac6124f1565b612afd565b604051908152f35b34610457575f366003190112610457576117d1612db9565b5f80546001600160a01b0319811682556001600160a01b03167f8be0079c531659141344cd1fd0a4f28419497f9722a3daafe3b4186f6b6457e08280a3005b34610457576040366003190112610457576118296124f1565b6001600160a01b03165f9081526005602052604090208054602435919082101561045757602091611859916125f6565b90549060031b1c604051908152f35b346104575760203660031901126104575760206117b1600435612bcd565b346104575760403660031901126104575761189f6124f1565b602435906118ab612db9565b6001600160a01b03169081156119675780156119135760207fc68b0dfcac00d972ce513d7a9dc1475c67bb83d8e01c9df9e7a1ed2ffc618aea91836001600160601b0360a01b600654161760065580600755600160ff196008541617600855604051908152a2005b60405162461bcd60e51b815260206004820152602660248201527f436f6e76657273696f6e2072617465206d75737420626520677265617465722060448201526507468616e20360d41b6064820152608490fd5b60405162461bcd60e51b8152602060048201526015602482015274496e76616c696420746f6b656e206164647265737360581b6044820152606490fd5b346104575760403660031901126104575760043567ffffffffffffffff8111610457576119d59036906004016125c5565b9060243567ffffffffffffffff8111610457576119f69036906004016125c5565b611a01939193612db9565b808203611c65578115611c2b5760015b828110611bb557506009545f60095580611b3a575b505f5b828110611a8157507f4806ed2da1cc73d3b2fa4e36106a16d5b7b85555dfc0e148b7f0f6d1418397b493611a7c91611a6e604051958695604087526040870191612ba9565b918483036020860152612ba9565b0390a1005b611a8c818486612b99565b3590611a99818488612b99565b3591604051906060820182811067ffffffffffffffff821117611b2657604052815260208101928352604081019060018252600954600160401b811015611b2657806001611aea920160095561263b565b611b13576001946002925182555185820155019051151560ff8019835416911617905501611a29565b634e487b7160e01b5f525f60045260245ffd5b634e487b7160e01b5f52604160045260245ffd5b806003029060038204036110c95760095f527f6e1540171b6c0c960b71a7020d9f60077f6af931a8bbf590da0223dacf75c7af017f6e1540171b6c0c960b71a7020d9f60077f6af931a8bbf590da0223dacf75c7af5b818110611b9d5750611a26565b805f600392555f60018201555f600282015501611b90565b611bc0818486612b99565b355f1982018281116110c957611bd7908587612b99565b351015611be657600101611a11565b60405162461bcd60e51b815260206004820152601c60248201527f5468726573686f6c6473206d75737420626520617363656e64696e67000000006044820152606490fd5b60405162461bcd60e51b8152602060048201526012602482015271139bc81b195d995b1cc81c1c9bdd9a59195960721b6044820152606490fd5b60405162461bcd60e51b8152602060048201526016602482015275082e4e4c2f2e640d8cadccee8d040dad2e6dac2e8c6d60531b6044820152606490fd5b34610457575f36600319011261045757611cbb612db9565b60085460ff811615611d005760ff19166008556006546001600160a01b03167f92a92ff9a8516fadeb9dbf01de37d6970e4ee0f393c9e8922669df315c1f37bb5f80a2005b60405162461bcd60e51b8152602060048201526011602482015270436f6e666967206e6f742061637469766560781b6044820152606490fd5b34610457576020366003190112610457576001600160a01b03611d5a6124f1565b165f52600560205260405f206040519081602082549182815201915f5260205f20905f5b818110611dad57611da985611d95818703826126fd565b60405191829160208352602083019061251d565b0390f35b8254845260209093019260019283019201611d7e565b3461045757602036600319011261045757611ddc6124f1565b611de4612db9565b6001600160a01b03811690611dfa821515612b56565b5f82815260016020908152604080832080546005808552838620805493879055600a8652848720879055908552925183548082529386528486209095919492939092869290830191905b818110611ff2575050611e59925003846126fd565b5f5b8351811015611e9557600190865f52600460205260405f20611e7d82876127b6565b515f5260205260405f2060ff19815416905501611e5b565b50915091835f52600560205260405f208054905f815581611fd4575b505060015b600a811115611ef257847fc769b04a77ef3e20d7f1b71c9e758a5e9ca421d76936a7fd3487888ac83370596040868682519182526020820152a2005b5f81815260026020526040902054611f1791906001600160a01b0316611f1c57612c74565b611eb6565b805f52600260205260018060a01b0360405f205416610e85611f6660405160208101905f825260208152611f516040826126fd565b51902060405192839188602084019687612c43565b5190205f52600360205260405f2060ff198154169055805f52600260205260405f205460405160208101916001600160601b0319906001600160601b03199060601b161682526001600160601b03198560601b1660348201525f604882015260488152610ee76068826126fd565b5f5260205f20908101905b81811015611eb1575f8155600101611fdf565b8454835260019485019488945060209093019201611e44565b34610457576020366003190112610457576001600160a01b0361202c6124f1565b165f526001602052602060405f2054604051908152f35b34610457576120513661257e565b91926001600160a01b03811692919061206b8415156128b0565b5f8581526002602052604090205461208d906001600160a01b031615156128eb565b5f85815260026020908152604091829020549151634e3c150960e01b815294916001600160a01b03169085806120c88588886004850161292c565b0381845afa9485156107d9575f9561231e575b50845f5260036020526120f560ff60405f20541615612961565b6040516361d0133560e01b8152602081806121158689896004850161292c565b0381855afa9081156107d9575f916122e4575b50906121599461213d6040949342101561299f565b8351809681948293635dcbc01b60e01b8452886004850161292c565b03915afa9182156107d9575f905f936122c0575b5061217790612a0c565b612182821515612a47565b60ff600854166121d5575b906121cc6020925f5160206130ca5f395f51905f52945f526003845260405f20600160ff198254161790556121c28782612ddf565b61035a8382612e6a565b604051908152a3005b835f5260016020526121ee6103aa8360405f2054612a84565b845f52600a60205260405f20549081811161220b575b505061218d565b9061221591612aa4565b6006546040516370a0823160e01b815230600482015290602090829060249082906001600160a01b03165afa9081156107d9575f9161227b575b50915f5160206130ca5f395f51905f52946122726121cc93602096951015612ab1565b94509192612204565b939290506020843d6020116122b8575b81612298602093836126fd565b810103126104575792519192915f5160206130ca5f395f51905f5261224f565b3d915061228b565b61217793506122de915060403d604011610ba657610b9881836126fd565b9261216d565b929190506020833d602011612316575b81612301602093836126fd565b81010312610457579151909190612159612128565b3d91506122f4565b9094506020813d60201161234a575b8161233a602093836126fd565b81010312610457575193876120db565b3d915061232d565b346104575760403660031901126104575760043561236e612507565b612376612db9565b6001600160a01b031661238a811515612864565b5f828152600260205260409020546001600160a01b031615612404575f8281526002602090815260409182902080546001600160a01b03198116851790915582516001600160a01b039091168152908101929092527fc70de5941dadb2f76c3ca7256288c2ffc2c8ae6a3546b864767bf8bd552c51e691a2005b60405162461bcd60e51b815260206004820152601a60248201527f566572696669657220494420646f6573206e6f742065786973740000000000006044820152606490fd5b34610457575f3660031901126104575761247e61248c6124676127ca565b91929060405194859460608652606086019061251d565b90848203602086015261251d565b90151560408301520390f35b346104575760203660031901126104575760206117b16124b66124f1565b612d39565b346104575760203660031901126104575760606124de6124d96124f1565b612657565b9060405192835260208301526040820152f35b600435906001600160a01b038216820361045757565b602435906001600160a01b038216820361045757565b90602080835192838152019201905f5b81811061253a5750505090565b825184526020938401939092019160010161252d565b9181601f840112156104575782359167ffffffffffffffff8311610457576020838186019501011161045757565b6060600319820112610457576004356001600160a01b03811681036104575791602435916044359067ffffffffffffffff8211610457576125c191600401612550565b9091565b9181601f840112156104575782359167ffffffffffffffff8311610457576020808501948460051b01011161045757565b80548210156110dd575f5260205f2001905f90565b90604060031983011261045757600435916024359067ffffffffffffffff8211610457576125c191600401612550565b6009548110156110dd5760095f52600360205f20910201905f90565b6009549081156126f3576001600160a01b03165f90815260016020526040812054905b82811061268c575050505f905f905f90565b60ff60026126998361263b565b50015416806126df575b156126be578060016126b5819361263b565b5050500161267a565b929091506126d960016126d08561263b565b5001549361263b565b50549190565b506126e98161263b565b50548210156126a3565b50505f905f905f90565b90601f8019910116810190811067ffffffffffffffff821117611b2657604052565b67ffffffffffffffff8111611b265760051b60200190565b906127418261271f565b61274e60405191826126fd565b828152809261275f601f199161271f565b0190602036910137565b8051156110dd5760200190565b8051600110156110dd5760400190565b8051600210156110dd5760600190565b8051600310156110dd5760800190565b8051600410156110dd5760a00190565b80518210156110dd5760209160051b010190565b600954908115612830576127dd82612737565b6127e683612737565b925f5b8181106127f95750509190600190565b8061280560019261263b565b505461281182866127b6565b528161281c8261263b565b50015461282982886127b6565b52016127e9565b6040516020925061284183826126fd565b5f81525f3681376040519261285681856126fd565b5f8452505f36813791905f90565b1561286b57565b60405162461bcd60e51b815260206004820152601860248201527f496e76616c6964207665726966696572206164647265737300000000000000006044820152606490fd5b156128b757565b60405162461bcd60e51b815260206004820152600c60248201526b24b73b30b634b2103ab9b2b960a11b6044820152606490fd5b156128f257565b60405162461bcd60e51b815260206004820152601260248201527115995c9a599a595c881b9bdd08199bdd5b9960721b6044820152606490fd5b9192606093819260018060a01b0316845260406020850152816040850152848401375f828201840152601f01601f1916010190565b1561296857565b60405162461bcd60e51b815260206004820152600f60248201526e105b1c9958591e4818db185a5b5959608a1b6044820152606490fd5b156129a657565b60405162461bcd60e51b815260206004820152601460248201527310dbdbdb191bdddb881b9bdd08195e1c1a5c995960621b6044820152606490fd5b5190811515820361045757565b9190826040910312610457576020612a06836129e2565b92015190565b15612a1357565b60405162461bcd60e51b815260206004820152600c60248201526b4e6f7420656c696769626c6560a01b6044820152606490fd5b15612a4e57565b60405162461bcd60e51b815260206004820152600e60248201526d4e6f20585020746f20636c61696d60901b6044820152606490fd5b919082018092116110c957565b818102929181159184041417156110c957565b919082039182116110c957565b15612ab857565b60405162461bcd60e51b815260206004820152601a60248201527f496e73756666696369656e742045524332302062616c616e63650000000000006044820152606490fd5b60ff6008541615612b51576001600160a01b03165f81815260016020526040902054600754612b2b91612a91565b905f52600a60205260405f2054808211612b455750505f90565b612b4e91612aa4565b90565b505f90565b15612b5d57565b60405162461bcd60e51b8152602060048201526014602482015273496e76616c69642075736572206164647265737360601b6044820152606490fd5b91908110156110dd5760051b0190565b81835290916001600160fb1b0383116104575760209260051b809284830137010190565b600954908115612c3d57905f915f905b828210612beb575b50505090565b90919260ff6002612bfb8561263b565b5001541680612c29575b15612c235750600180612c178461263b565b50015493920190612bdd565b92612be5565b50612c338361263b565b5054821015612c05565b50505f90565b91604893916001600160601b03199060601b1683526001600160601b03199060601b16601483015260288201520190565b5f1981146110c95760010190565b929091606894926001600160601b03199060601b1684526001600160601b03199060601b166014840152602883015260488201520190565b9080601f83011215610457578151612cd18161271f565b92612cdf60405194856126fd565b81845260208085019260051b82010192831161045757602001905b828210612d075750505090565b8151815260209182019101612cfa565b9081606091031261045757612d2b816129e2565b916040602083015192015190565b600954908115612c3d576001600160a01b03165f9081526001602052604081205490919082905b828210612d6d5750505090565b90919260ff6002612d7d8561263b565b5001541680612da5575b15612c235750600180612d998461263b565b50015493920190612d60565b50612daf8361263b565b5054821015612d87565b5f546001600160a01b03163303612dcc57565b63118cdaa760e01b5f523360045260245ffd5b60018060a01b0316805f52600460205260405f20825f5260205260ff60405f20541615612e0a575050565b805f52600460205260405f20825f5260205260405f20600160ff198254161790555f52600560205260405f208054600160401b811015611b2657612e53916001820181556125f6565b819291549060031b91821b915f19901b1916179055565b6001600160a01b0381165f81905260016020529190827f88aa8dc54d932e03d7c68f4a351b2bdba3301584d381c5ea472e0ce76dafe80a6040612ecd612eaf85612d39565b94845f526001602052825f20612ec6888254612a84565b9055612d39565b94835f526001602052815f205482519182526020820152a28111612eef575050565b60407feec61667dd6eeecdccfef3c906e0fd047cca672804901ac4254d8545e9a426d491835f526001602052815f205482519182526020820152a2565b60ff600854161561303a57612f4081612afd565b9081612f4a575050565b6006546040516370a0823160e01b815230600482015290602090829060249082906001600160a01b03165afa80156107d95783905f90613004575b612f9192501015612ab1565b612fc98260018060a01b03831692835f52600a60205260405f20612fb6838254612a84565b90556006546001600160a01b031661303d565b6006546040519283526001600160a01b0316917f617dc33bfe6c05895429aa10442ff5716e0040e90d0c04faa92ced6a4d0ae78790602090a3565b50506020813d602011613032575b8161301f602093836126fd565b810103126104575782612f919151612f85565b3d9150613012565b50565b60405163a9059cbb60e01b60208281019182526001600160a01b039094166024830152604482019490945290925f916130798160648101610e85565b519082855af1156107d9575f513d6130c057506001600160a01b0381163b155b6130a05750565b635274afe760e01b5f9081526001600160a01b0391909116600452602490fd5b6001141561309956fe9247c30d8578acdebab7896bb5daf0c872387fb77dc7390c1874dbea3f5d3135a26469706673582212203c7b7479bf655d5038291190ca47365bed9a36e71806764e28a2377c36892cf564736f6c634300081c0033","linkReferences":{}},"methodIdentifiers":{"calculateAvailableERC20Reward(address)":"3327ab2d","claimBulkXP(uint256,bytes)":"f1f61615","claimBulkXPFor(address,uint256,bytes)":"f8c327e9","claimXP(uint256,bytes)":"eacf428a","claimXPFor(address,uint256,bytes)":"29a1e093","claimedERC20Rewards(address)":"db7b7f97","deactivateERC20RewardConfig()":"4b226aa9","emergencyWithdrawERC20(address,uint256)":"df29b982","getAllLevelInfo(address)":"b07c7970","getAvailableERC20Reward(address)":"78980d9a","getClaimedVerifierCount(address)":"8bc363ee","getClaimedVerifiers(address)":"36ceadec","getERC20RewardConfig()":"914bfcee","getLevelForXP(uint256)":"5d5a4462","getNextLevelInfo(address)":"106e9a45","getTotalXP(address)":"341774a4","getUserLevel(address)":"21923bde","getXPLevels()":"278fd9f4","hasClaimedFromVerifier(address,uint256)":"b5c97702","owner()":"8da5cb5b","registerVerifier(uint256,address)":"a2b8ffe2","renounceOwnership()":"715018a6","resetUser(address)":"343959b4","resetVerifierProofs(uint256)":"81b1b801","resetVerifierProofsForUser(uint256,address)":"c5966183","setERC20RewardConfig(address,uint256)":"5baffa86","setXPLevels(uint256[],uint256[])":"5b851b2d","transferOwnership(address)":"f2fde38b","updateVerifier(uint256,address)":"293de354","usedProofs(bytes32)":"c30a0f25","userClaimedVerifiers(address,uint256)":"6a031db0","userVerifierClaims(address,uint256)":"f67b59c1","userXP(address)":"23932230","verifiers(uint256)":"ac1eff68"},"id":35}