{"abi":[{"type":"constructor","inputs":[],"stateMutability":"nonpayable"},{"type":"function","name":"calculateERC20Reward","inputs":[{"name":"user","type":"address","internalType":"address"}],"outputs":[{"name":"","type":"uint256","internalType":"uint256"}],"stateMutability":"view"},{"type":"function","name":"claimERC20Rewards","inputs":[],"outputs":[],"stateMutability":"nonpayable"},{"type":"function","name":"claimXP","inputs":[{"name":"conditionId","type":"uint256","internalType":"uint256"},{"name":"context","type":"bytes","internalType":"bytes"}],"outputs":[],"stateMutability":"nonpayable"},{"type":"function","name":"claimXPFor","inputs":[{"name":"user","type":"address","internalType":"address"},{"name":"conditionId","type":"uint256","internalType":"uint256"},{"name":"context","type":"bytes","internalType":"bytes"}],"outputs":[],"stateMutability":"nonpayable"},{"type":"function","name":"deactivateERC20RewardConfig","inputs":[],"outputs":[],"stateMutability":"nonpayable"},{"type":"function","name":"emergencyWithdrawERC20","inputs":[{"name":"tokenAddress","type":"address","internalType":"address"},{"name":"amount","type":"uint256","internalType":"uint256"}],"outputs":[],"stateMutability":"nonpayable"},{"type":"function","name":"getAvailableERC20Reward","inputs":[{"name":"user","type":"address","internalType":"address"}],"outputs":[{"name":"","type":"uint256","internalType":"uint256"}],"stateMutability":"view"},{"type":"function","name":"getERC20RewardConfig","inputs":[],"outputs":[{"name":"","type":"address","internalType":"address"},{"name":"thresholds","type":"uint256[]","internalType":"uint256[]"},{"name":"rewardAmounts","type":"uint256[]","internalType":"uint256[]"},{"name":"active","type":"bool","internalType":"bool"}],"stateMutability":"view"},{"type":"function","name":"getTotalXP","inputs":[{"name":"user","type":"address","internalType":"address"}],"outputs":[{"name":"","type":"uint256","internalType":"uint256"}],"stateMutability":"view"},{"type":"function","name":"highestThresholdReached","inputs":[{"name":"","type":"address","internalType":"address"}],"outputs":[{"name":"","type":"uint256","internalType":"uint256"}],"stateMutability":"view"},{"type":"function","name":"owner","inputs":[],"outputs":[{"name":"","type":"address","internalType":"address"}],"stateMutability":"view"},{"type":"function","name":"registerVerifier","inputs":[{"name":"id","type":"uint256","internalType":"uint256"},{"name":"verifier","type":"address","internalType":"address"}],"outputs":[],"stateMutability":"nonpayable"},{"type":"function","name":"renounceOwnership","inputs":[],"outputs":[],"stateMutability":"nonpayable"},{"type":"function","name":"setERC20RewardConfig","inputs":[{"name":"tokenAddress","type":"address","internalType":"address"},{"name":"thresholds","type":"uint256[]","internalType":"uint256[]"},{"name":"rewardAmounts","type":"uint256[]","internalType":"uint256[]"}],"outputs":[],"stateMutability":"nonpayable"},{"type":"function","name":"transferOwnership","inputs":[{"name":"newOwner","type":"address","internalType":"address"}],"outputs":[],"stateMutability":"nonpayable"},{"type":"function","name":"usedProofs","inputs":[{"name":"","type":"bytes32","internalType":"bytes32"}],"outputs":[{"name":"","type":"bool","internalType":"bool"}],"stateMutability":"view"},{"type":"function","name":"userXP","inputs":[{"name":"","type":"address","internalType":"address"}],"outputs":[{"name":"","type":"uint256","internalType":"uint256"}],"stateMutability":"view"},{"type":"function","name":"verifiers","inputs":[{"name":"","type":"uint256","internalType":"uint256"}],"outputs":[{"name":"","type":"address","internalType":"address"}],"stateMutability":"view"},{"type":"event","name":"ERC20RewardClaimed","inputs":[{"name":"user","type":"address","indexed":true,"internalType":"address"},{"name":"tokenAddress","type":"address","indexed":true,"internalType":"address"},{"name":"amount","type":"uint256","indexed":false,"internalType":"uint256"}],"anonymous":false},{"type":"event","name":"ERC20RewardConfigDeactivated","inputs":[{"name":"tokenAddress","type":"address","indexed":true,"internalType":"address"}],"anonymous":false},{"type":"event","name":"ERC20RewardConfigSet","inputs":[{"name":"tokenAddress","type":"address","indexed":true,"internalType":"address"},{"name":"thresholds","type":"uint256[]","indexed":false,"internalType":"uint256[]"},{"name":"rewardAmounts","type":"uint256[]","indexed":false,"internalType":"uint256[]"}],"anonymous":false},{"type":"event","name":"OwnershipTransferred","inputs":[{"name":"previousOwner","type":"address","indexed":true,"internalType":"address"},{"name":"newOwner","type":"address","indexed":true,"internalType":"address"}],"anonymous":false},{"type":"event","name":"VerifierRegistered","inputs":[{"name":"id","type":"uint256","indexed":true,"internalType":"uint256"},{"name":"verifier","type":"address","indexed":false,"internalType":"address"}],"anonymous":false},{"type":"event","name":"XPEarned","inputs":[{"name":"user","type":"address","indexed":true,"internalType":"address"},{"name":"xpAmount","type":"uint256","indexed":false,"internalType":"uint256"},{"name":"totalXP","type":"uint256","indexed":false,"internalType":"uint256"}],"anonymous":false},{"type":"error","name":"OwnableInvalidOwner","inputs":[{"name":"owner","type":"address","internalType":"address"}]},{"type":"error","name":"OwnableUnauthorizedAccount","inputs":[{"name":"account","type":"address","internalType":"address"}]},{"type":"error","name":"SafeERC20FailedOperation","inputs":[{"name":"token","type":"address","internalType":"address"}]}],"bytecode":{"object":"0x6080604052348015600e575f5ffd5b503380603357604051631e4fbdf760e01b81525f600482015260240160405180910390fd5b603a81603f565b50608e565b5f80546001600160a01b038381166001600160a01b0319831681178455604051919092169283917f8be0079c531659141344cd1fd0a4f28419497f9722a3daafe3b4186f6b6457e09190a35050565b6117c88061009b5f395ff3fe608060405234801561000f575f5ffd5b5060043610610111575f3560e01c80638da5cb5b1161009e578063c0e351871161006e578063c0e3518714610258578063c30a0f251461026b578063df29b9821461029d578063eacf428a146102b0578063f2fde38b146102c3575f5ffd5b80638da5cb5b146101e1578063914bfcee14610205578063a2b8ffe21461021d578063ac1eff6814610230575f5ffd5b8063341774a4116100e4578063341774a4146101775780634b226aa91461019f578063715018a6146101a757806378980d9a146101af57806386e852f5146101c2575f5ffd5b80632393223014610115578063262055a314610147578063293ab8f61461015c57806329a1e09314610164575b5f5ffd5b610134610123366004611399565b60016020525f908152604090205481565b6040519081526020015b60405180910390f35b61015a610155366004611401565b6102d6565b005b61015a61057f565b61015a6101723660046114bf565b610738565b610134610185366004611399565b6001600160a01b03165f9081526001602052604090205490565b61015a610a80565b61015a610b11565b6101346101bd366004611399565b610b24565b6101346101d0366004611399565b60076020525f908152604090205481565b5f546001600160a01b03165b6040516001600160a01b03909116815260200161013e565b61020d610b34565b60405161013e949392919061154f565b61015a61022b366004611598565b610c8c565b6101ed61023e3660046115c2565b60026020525f90815260409020546001600160a01b031681565b610134610266366004611399565b610d4d565b61028d6102793660046115c2565b60036020525f908152604090205460ff1681565b604051901515815260200161013e565b61015a6102ab3660046115d9565b610e04565b61015a6102be366004611601565b610e35565b61015a6102d1366004611399565b611137565b6102de611174565b6001600160a01b0385166103315760405162461bcd60e51b8152602060048201526015602482015274496e76616c696420746f6b656e206164647265737360581b60448201526064015b60405180910390fd5b8281146103795760405162461bcd60e51b8152602060048201526016602482015275082e4e4c2f2e640d8cadccee8d040dad2e6dac2e8c6d60531b6044820152606401610328565b826103bf5760405162461bcd60e51b8152602060048201526016602482015275139bc81d1a1c995cda1bdb191cc81c1c9bdd9a59195960521b6044820152606401610328565b60015b8381101561045b5784846103d760018461165d565b8181106103e6576103e6611670565b905060200201358585838181106103ff576103ff611670565b90506020020135116104535760405162461bcd60e51b815260206004820152601c60248201527f5468726573686f6c6473206d75737420626520617363656e64696e67000000006044820152606401610328565b6001016103c2565b5061046760055f61133b565b600480546001600160a01b0319166001600160a01b0387161790556006805460ff191660011790555f5b8381101561053057600460010160405180606001604052808787858181106104bb576104bb611670565b9050602002013581526020018585858181106104d9576104d9611670565b602090810292909201358352506001918101829052835480830185555f948552938190208351600390950201938455820151838201556040909101516002909201805460ff19169215159290921790915501610491565b50846001600160a01b03167ff52651a6e0035c94157b8aa7df44f2839af793023f8c9c13d5db5cf14fcd02258585858560405161057094939291906116b4565b60405180910390a25050505050565b60065460ff166105d15760405162461bcd60e51b815260206004820152601860248201527f52657761726420636f6e666967206e6f742061637469766500000000000000006044820152606401610328565b335f9081526001602090815260408083205460079092528220549091906005825b815481101561067e575f82828154811061060e5761060e611670565b5f9182526020909120600390910201600281015490915060ff168015610635575080548610155b801561064f5750335f908152600760205260409020548154115b1561067557600181015461066390866116e5565b945083815f0154111561067557805493505b506001016105f2565b505f83116106c45760405162461bcd60e51b81526020600482015260136024820152724e6f207265776172647320746f20636c61696d60681b6044820152606401610328565b335f8181526007602052604090208390556004546106ee916001600160a01b0390911690856111a0565b6004546040518481526001600160a01b039091169033907f617dc33bfe6c05895429aa10442ff5716e0040e90d0c04faa92ced6a4d0ae7879060200160405180910390a350505050565b6001600160a01b03841661077d5760405162461bcd60e51b815260206004820152600c60248201526b24b73b30b634b2103ab9b2b960a11b6044820152606401610328565b5f838152600260205260409020546001600160a01b03166107d55760405162461bcd60e51b815260206004820152601260248201527115995c9a599a595c881b9bdd08199bdd5b9960721b6044820152606401610328565b5f83815260026020526040808220549051634e3c150960e01b81526001600160a01b0390911691908290634e3c150990610817908990889088906004016116f8565b602060405180830381865afa158015610832573d5f5f3e3d5ffd5b505050506040513d601f19601f820116820180604052508101906108569190611737565b5f8181526003602052604090205490915060ff16156108a95760405162461bcd60e51b815260206004820152600f60248201526e105b1c9958591e4818db185a5b5959608a1b6044820152606401610328565b6040516361d0133560e01b81525f906001600160a01b038416906361d01335906108db908a90899089906004016116f8565b602060405180830381865afa1580156108f6573d5f5f3e3d5ffd5b505050506040513d601f19601f8201168201806040525081019061091a9190611737565b9050804210156109635760405162461bcd60e51b815260206004820152601460248201527310dbdbdb191bdddb881b9bdd08195e1c1a5c995960621b6044820152606401610328565b5f5f846001600160a01b0316635dcbc01b8a89896040518463ffffffff1660e01b8152600401610995939291906116f8565b6040805180830381865afa1580156109af573d5f5f3e3d5ffd5b505050506040513d601f19601f820116820180604052508101906109d3919061174e565b9150915081610a135760405162461bcd60e51b815260206004820152600c60248201526b4e6f7420656c696769626c6560a01b6044820152606401610328565b5f8111610a535760405162461bcd60e51b815260206004820152600e60248201526d4e6f20585020746f20636c61696d60901b6044820152606401610328565b5f848152600360205260409020805460ff19166001179055610a7589826111f7565b505050505050505050565b610a88611174565b60065460ff16610ace5760405162461bcd60e51b8152602060048201526011602482015270436f6e666967206e6f742061637469766560781b6044820152606401610328565b6006805460ff191690556004546040516001600160a01b03909116907f92a92ff9a8516fadeb9dbf01de37d6970e4ee0f393c9e8922669df315c1f37bb905f90a2565b610b19611174565b610b225f61127a565b565b5f610b2e82610d4d565b92915050565b6005545f906060908190839060049067ffffffffffffffff811115610b5b57610b5b61177e565b604051908082528060200260200182016040528015610b84578160200160208202803683370190505b50600182015490945067ffffffffffffffff811115610ba557610ba561177e565b604051908082528060200260200182016040528015610bce578160200160208202803683370190505b5092505f5b6001820154811015610c6b57816001018181548110610bf457610bf4611670565b905f5260205f2090600302015f0154858281518110610c1557610c15611670565b602002602001018181525050816001018181548110610c3657610c36611670565b905f5260205f20906003020160010154848281518110610c5857610c58611670565b6020908102919091010152600101610bd3565b5080546002909101546001600160a01b03909116945060ff16905090919293565b610c94611174565b6001600160a01b038116610cea5760405162461bcd60e51b815260206004820152601860248201527f496e76616c6964207665726966696572206164647265737300000000000000006044820152606401610328565b5f8281526002602090815260409182902080546001600160a01b0319166001600160a01b038516908117909155915191825283917f3d47d745bf8c193d19b6eff4f8bb5ff806af27c6fe2863b21a76c292b8f48e13910160405180910390a25050565b6006545f9060ff16610d6057505f919050565b6001600160a01b0382165f9081526001602090815260408083205460079092528220549091906005825b8154811015610df9575f828281548110610da657610da6611670565b5f9182526020909120600390910201600281015490915060ff168015610dcd575080548610155b8015610dd95750805484105b15610df0576001810154610ded90866116e5565b94505b50600101610d8a565b509195945050505050565b610e0c611174565b610e31610e205f546001600160a01b031690565b6001600160a01b03841690836111a0565b5050565b5f838152600260205260409020546001600160a01b0316610e8d5760405162461bcd60e51b815260206004820152601260248201527115995c9a599a595c881b9bdd08199bdd5b9960721b6044820152606401610328565b5f83815260026020526040808220549051634e3c150960e01b81526001600160a01b0390911691908290634e3c150990610ecf903390889088906004016116f8565b602060405180830381865afa158015610eea573d5f5f3e3d5ffd5b505050506040513d601f19601f82011682018060405250810190610f0e9190611737565b5f8181526003602052604090205490915060ff1615610f615760405162461bcd60e51b815260206004820152600f60248201526e105b1c9958591e4818db185a5b5959608a1b6044820152606401610328565b6040516361d0133560e01b81525f906001600160a01b038416906361d0133590610f93903390899089906004016116f8565b602060405180830381865afa158015610fae573d5f5f3e3d5ffd5b505050506040513d601f19601f82011682018060405250810190610fd29190611737565b90508042101561101b5760405162461bcd60e51b815260206004820152601460248201527310dbdbdb191bdddb881b9bdd08195e1c1a5c995960621b6044820152606401610328565b5f5f846001600160a01b0316635dcbc01b3389896040518463ffffffff1660e01b815260040161104d939291906116f8565b6040805180830381865afa158015611067573d5f5f3e3d5ffd5b505050506040513d601f19601f8201168201806040525081019061108b919061174e565b91509150816110cb5760405162461bcd60e51b815260206004820152600c60248201526b4e6f7420656c696769626c6560a01b6044820152606401610328565b5f811161110b5760405162461bcd60e51b815260206004820152600e60248201526d4e6f20585020746f20636c61696d60901b6044820152606401610328565b5f848152600360205260409020805460ff1916600117905561112d33826111f7565b5050505050505050565b61113f611174565b6001600160a01b03811661116857604051631e4fbdf760e01b81525f6004820152602401610328565b6111718161127a565b50565b5f546001600160a01b03163314610b225760405163118cdaa760e01b8152336004820152602401610328565b604080516001600160a01b038416602482015260448082018490528251808303909101815260649091019091526020810180516001600160e01b031663a9059cbb60e01b1790526111f29084906112c9565b505050565b6001600160a01b0382165f90815260016020526040812080549183919061121e83856116e5565b90915550506001600160a01b0383165f818152600160209081526040918290205482518681529182015281517f88aa8dc54d932e03d7c68f4a351b2bdba3301584d381c5ea472e0ce76dafe80a929181900390910190a2505050565b5f80546001600160a01b038381166001600160a01b0319831681178455604051919092169283917f8be0079c531659141344cd1fd0a4f28419497f9722a3daafe3b4186f6b6457e09190a35050565b5f5f60205f8451602086015f885af1806112e8576040513d5f823e3d81fd5b50505f513d915081156112ff57806001141561130c565b6001600160a01b0384163b155b1561133557604051635274afe760e01b81526001600160a01b0385166004820152602401610328565b50505050565b5080545f8255600302905f5260205f209081019061117191905b8082111561137a575f808255600182015560028101805460ff19169055600301611355565b5090565b80356001600160a01b0381168114611394575f5ffd5b919050565b5f602082840312156113a9575f5ffd5b6113b28261137e565b9392505050565b5f5f83601f8401126113c9575f5ffd5b50813567ffffffffffffffff8111156113e0575f5ffd5b6020830191508360208260051b85010111156113fa575f5ffd5b9250929050565b5f5f5f5f5f60608688031215611415575f5ffd5b61141e8661137e565b9450602086013567ffffffffffffffff811115611439575f5ffd5b611445888289016113b9565b909550935050604086013567ffffffffffffffff811115611464575f5ffd5b611470888289016113b9565b969995985093965092949392505050565b5f5f83601f840112611491575f5ffd5b50813567ffffffffffffffff8111156114a8575f5ffd5b6020830191508360208285010111156113fa575f5ffd5b5f5f5f5f606085870312156114d2575f5ffd5b6114db8561137e565b935060208501359250604085013567ffffffffffffffff8111156114fd575f5ffd5b61150987828801611481565b95989497509550505050565b5f8151808452602084019350602083015f5b82811015611545578151865260209586019590910190600101611527565b5093949350505050565b6001600160a01b03851681526080602082018190525f9061157290830186611515565b82810360408401526115848186611515565b915050821515606083015295945050505050565b5f5f604083850312156115a9575f5ffd5b823591506115b96020840161137e565b90509250929050565b5f602082840312156115d2575f5ffd5b5035919050565b5f5f604083850312156115ea575f5ffd5b6115f38361137e565b946020939093013593505050565b5f5f5f60408486031215611613575f5ffd5b83359250602084013567ffffffffffffffff811115611630575f5ffd5b61163c86828701611481565b9497909650939450505050565b634e487b7160e01b5f52601160045260245ffd5b81810381811115610b2e57610b2e611649565b634e487b7160e01b5f52603260045260245ffd5b8183525f6001600160fb1b0383111561169b575f5ffd5b8260051b80836020870137939093016020019392505050565b604081525f6116c7604083018688611684565b82810360208401526116da818587611684565b979650505050505050565b80820180821115610b2e57610b2e611649565b6001600160a01b03841681526040602082018190528101829052818360608301375f818301606090810191909152601f909201601f1916010192915050565b5f60208284031215611747575f5ffd5b5051919050565b5f5f6040838503121561175f575f5ffd5b8251801515811461176e575f5ffd5b6020939093015192949293505050565b634e487b7160e01b5f52604160045260245ffdfea2646970667358221220e70c139b2fb6a56156a7471eb620b662c37d461a532b43691ea5f1f8bb9db4d964736f6c634300081c0033","linkReferences":{}},"methodIdentifiers":{"calculateERC20Reward(address)":"c0e35187","claimERC20Rewards()":"293ab8f6","claimXP(uint256,bytes)":"eacf428a","claimXPFor(address,uint256,bytes)":"29a1e093","deactivateERC20RewardConfig()":"4b226aa9","emergencyWithdrawERC20(address,uint256)":"df29b982","getAvailableERC20Reward(address)":"78980d9a","getERC20RewardConfig()":"914bfcee","getTotalXP(address)":"341774a4","highestThresholdReached(address)":"86e852f5","owner()":"8da5cb5b","registerVerifier(uint256,address)":"a2b8ffe2","renounceOwnership()":"715018a6","setERC20RewardConfig(address,uint256[],uint256[])":"262055a3","transferOwnership(address)":"f2fde38b","usedProofs(bytes32)":"c30a0f25","userXP(address)":"23932230","verifiers(uint256)":"ac1eff68"},"id":46}