{"abi":[{"type":"constructor","inputs":[{"name":"_owner","type":"address","internalType":"address"},{"name":"_jbMultiTerminalAddress","type":"address","internalType":"address"},{"name":"_stargateRouter","type":"address","internalType":"address"}],"stateMutability":"nonpayable"},{"type":"fallback","stateMutability":"payable"},{"type":"receive","stateMutability":"payable"},{"type":"function","name":"crossChainPay","inputs":[{"name":"_dstEid","type":"uint32","internalType":"uint32"},{"name":"_projectId","type":"uint256","internalType":"uint256"},{"name":"_amount","type":"uint256","internalType":"uint256"},{"name":"_beneficiary","type":"address","internalType":"address"},{"name":"_minReturnedTokens","type":"uint256","internalType":"uint256"},{"name":"_memo","type":"string","internalType":"string"},{"name":"_metadata","type":"bytes","internalType":"bytes"}],"outputs":[],"stateMutability":"payable"},{"type":"function","name":"emergencyWithdraw","inputs":[],"outputs":[],"stateMutability":"nonpayable"},{"type":"function","name":"jbMultiTerminal","inputs":[],"outputs":[{"name":"","type":"address","internalType":"contract IJBMultiTerminal"}],"stateMutability":"view"},{"type":"function","name":"lzCompose","inputs":[{"name":"_from","type":"address","internalType":"address"},{"name":"","type":"bytes32","internalType":"bytes32"},{"name":"_message","type":"bytes","internalType":"bytes"},{"name":"","type":"address","internalType":"address"},{"name":"","type":"bytes","internalType":"bytes"}],"outputs":[],"stateMutability":"payable"},{"type":"function","name":"owner","inputs":[],"outputs":[{"name":"","type":"address","internalType":"address"}],"stateMutability":"view"},{"type":"function","name":"quoteCrossChainPay","inputs":[{"name":"_dstEid","type":"uint32","internalType":"uint32"},{"name":"_amount","type":"uint256","internalType":"uint256"},{"name":"_projectId","type":"uint256","internalType":"uint256"},{"name":"_beneficiary","type":"address","internalType":"address"},{"name":"_minReturnedTokens","type":"uint256","internalType":"uint256"},{"name":"_memo","type":"string","internalType":"string"},{"name":"_metadata","type":"bytes","internalType":"bytes"}],"outputs":[{"name":"nativeFee","type":"uint256","internalType":"uint256"}],"stateMutability":"view"},{"type":"function","name":"renounceOwnership","inputs":[],"outputs":[],"stateMutability":"nonpayable"},{"type":"function","name":"setJbMultiTerminalAddress","inputs":[{"name":"_jbMultiTerminalAddress","type":"address","internalType":"address"}],"outputs":[],"stateMutability":"nonpayable"},{"type":"function","name":"setStargateRouter","inputs":[{"name":"_stargateRouter","type":"address","internalType":"address"}],"outputs":[],"stateMutability":"nonpayable"},{"type":"function","name":"stargateRouter","inputs":[],"outputs":[{"name":"","type":"address","internalType":"contract IStargate"}],"stateMutability":"view"},{"type":"function","name":"transferOwnership","inputs":[{"name":"newOwner","type":"address","internalType":"address"}],"outputs":[],"stateMutability":"nonpayable"},{"type":"event","name":"CrossChainPayInitiated","inputs":[{"name":"dstEid","type":"uint32","indexed":true,"internalType":"uint32"},{"name":"projectId","type":"uint256","indexed":true,"internalType":"uint256"},{"name":"amount","type":"uint256","indexed":false,"internalType":"uint256"},{"name":"beneficiary","type":"address","indexed":false,"internalType":"address"}],"anonymous":false},{"type":"event","name":"CrossChainPayReceived","inputs":[{"name":"projectId","type":"uint256","indexed":true,"internalType":"uint256"},{"name":"amount","type":"uint256","indexed":false,"internalType":"uint256"},{"name":"beneficiary","type":"address","indexed":false,"internalType":"address"}],"anonymous":false},{"type":"event","name":"OwnershipTransferred","inputs":[{"name":"previousOwner","type":"address","indexed":true,"internalType":"address"},{"name":"newOwner","type":"address","indexed":true,"internalType":"address"}],"anonymous":false},{"type":"error","name":"InvalidOptionType","inputs":[{"name":"optionType","type":"uint16","internalType":"uint16"}]},{"type":"error","name":"OwnableInvalidOwner","inputs":[{"name":"owner","type":"address","internalType":"address"}]},{"type":"error","name":"OwnableUnauthorizedAccount","inputs":[{"name":"account","type":"address","internalType":"address"}]},{"type":"error","name":"SafeCastOverflowedUintDowncast","inputs":[{"name":"bits","type":"uint8","internalType":"uint8"},{"name":"value","type":"uint256","internalType":"uint256"}]}],"bytecode":{"object":"0x60803461010657601f61163838819003918201601f19168301916001600160401b0383118484101761010a57808492606094604052833981010312610106576100478161011e565b61005f60406100586020850161011e565b930161011e565b6001600160a01b039091169182156100f3575f80546001600160a01b031981168517825560405194916001600160a01b03909116907f8be0079c531659141344cd1fd0a4f28419497f9722a3daafe3b4186f6b6457e09080a3600180546001600160a01b039283166001600160a01b0319918216179091556002805493909216921691909117905561150590816101338239f35b631e4fbdf760e01b5f525f60045260245ffd5b5f80fd5b634e487b7160e01b5f52604160045260245ffd5b51906001600160a01b03821682036101065756fe60806040526004361015610018575b361561001657005b005b5f3560e01c806309f1fefc146100c75780633fe663cd146100c25780634860f3fa146100bd57806351b78b47146100b8578063715018a6146100b35780638da5cb5b146100ae578063a9e56f3c146100a9578063d0a10260146100a4578063db2e21bc1461009f578063e286994d1461009a5763f2fde38b0361000e57610aa5565b610a54565b6109e7565b610834565b6107e3565b610793565b6106f9565b610673565b61040d565b610387565b6101b7565b73ffffffffffffffffffffffffffffffffffffffff8116036100ea57565b5f80fd5b9181601f840112156100ea5782359167ffffffffffffffff83116100ea57602083818601950101116100ea57565b9060e07ffffffffffffffffffffffffffffffffffffffffffffffffffffffffffffffffc8301126100ea5760043563ffffffff811681036100ea5791602435916044359160643561016c816100cc565b916084359160a43567ffffffffffffffff81116100ea5781610190916004016100ee565b9290929160c4359067ffffffffffffffff82116100ea576101b3916004016100ee565b9091565b346100ea5761021561031160406101e96101d03661011c565b938a9c979c999598999391935198899760208901610bd3565b037fffffffffffffffffffffffffffffffffffffffffffffffffffffffffffffffe08101835282610c52565b80511561037a5761025961022761118b565b61025361023e61023689610d24565b6103e8900490565b6fffffffffffffffffffffffffffffffff1690565b906111c2565b61026561023687610d24565b61027c610270610c98565b63ffffffff9095168552565b30602085015286858501526060840152608083015260a082015261029e610ce3565b60c08201526102de6102c560025473ffffffffffffffffffffffffffffffffffffffff1690565b73ffffffffffffffffffffffffffffffffffffffff1690565b825180809581947f3b6f743b00000000000000000000000000000000000000000000000000000000835260048301610e3e565b03915afa9182156103755761034292610332925f91610346575b5051610e65565b6040519081529081906020820190565b0390f35b610368915060403d60401161036e575b6103608183610c52565b810190610d7a565b5f61032b565b503d610356565b610e5a565b610382610ce3565b610259565b346100ea5760207ffffffffffffffffffffffffffffffffffffffffffffffffffffffffffffffffc3601126100ea5773ffffffffffffffffffffffffffffffffffffffff6004356103d7816100cc565b6103df6112bd565b167fffffffffffffffffffffffff000000000000000000000000000000000000000060015416176001555f80f35b61047861044c61041c3661011c565b9161042f879a94989b9699971515610e72565b61043b8a341015610ed7565b6040519788958a8d60208901610bd3565b037fffffffffffffffffffffffffffffffffffffffffffffffffffffffffffffffe08101845283610c52565b8151156106655761049961048a61118b565b61025361023e61023688610d24565b915b6104a761023686610d24565b926104b0610c98565b63ffffffff84168152933060208601528660408601526060850152608084015260a08301526104dd610ce3565b60c08301526105046102c560025473ffffffffffffffffffffffffffffffffffffffff1690565b91604051907f3b6f743b0000000000000000000000000000000000000000000000000000000082526040828061053d8460048301610e3e565b0381875afa938415610375576105a5946080935f91610646575b5061056e61056682518a610e65565b341015610f3c565b6040518096819482937fc7c7f5b3000000000000000000000000000000000000000000000000000000008452339160048501611022565b039134905af18015610375577f5182e24bee1df595f8f3530956539279c801e1cbd1dee29126b7144630b481ff9363ffffffff9361061492610619575b5060405193849316958390929173ffffffffffffffffffffffffffffffffffffffff6020916040840195845216910152565b0390a3005b61063a9060803d60801161063f575b6106328183610c52565b810190610fc7565b6105e2565b503d610628565b61065f915060403d60401161036e576103608183610c52565b5f610557565b61066d610ce3565b9161049b565b346100ea5760207ffffffffffffffffffffffffffffffffffffffffffffffffffffffffffffffffc3601126100ea5773ffffffffffffffffffffffffffffffffffffffff6004356106c3816100cc565b6106cb6112bd565b167fffffffffffffffffffffffff000000000000000000000000000000000000000060025416176002555f80f35b346100ea575f7ffffffffffffffffffffffffffffffffffffffffffffffffffffffffffffffffc3601126100ea5761072f6112bd565b5f73ffffffffffffffffffffffffffffffffffffffff81547fffffffffffffffffffffffff000000000000000000000000000000000000000081168355167f8be0079c531659141344cd1fd0a4f28419497f9722a3daafe3b4186f6b6457e08280a3005b346100ea575f7ffffffffffffffffffffffffffffffffffffffffffffffffffffffffffffffffc3601126100ea57602073ffffffffffffffffffffffffffffffffffffffff5f5416604051908152f35b346100ea575f7ffffffffffffffffffffffffffffffffffffffffffffffffffffffffffffffffc3601126100ea57602073ffffffffffffffffffffffffffffffffffffffff60025416604051908152f35b60a07ffffffffffffffffffffffffffffffffffffffffffffffffffffffffffffffffc3601126100ea576108696004356100cc565b60443567ffffffffffffffff81116100ea576108899036906004016100ee565b6108946064356100cc565b6084359067ffffffffffffffff82116100ea576108ec6108de73ffffffffffffffffffffffffffffffffffffffff926020956108d761094f9636906004016100ee565b5050611309565b84808251830101910161109b565b60015494979590931694936109169073ffffffffffffffffffffffffffffffffffffffff166102c5565b91604051968794859384937ffef43257000000000000000000000000000000000000000000000000000000008552898c60048701611130565b039134905af1908115610375577fbd7c06c604d4219312f0a29397e7d16a3fcddf7d27f27e0eea39d573ffc0d946926109b5926109ba575b506040805134815273ffffffffffffffffffffffffffffffffffffffff909216602083015290918291820190565b0390a2005b6109db9060203d6020116109e0575b6109d38183610c52565b810190611121565b610987565b503d6109c9565b346100ea575f7ffffffffffffffffffffffffffffffffffffffffffffffffffffffffffffffffc3601126100ea57610a1d6112bd565b5f80808073ffffffffffffffffffffffffffffffffffffffff8154164790828215610a4b575bf11561037557005b506108fc610a43565b346100ea575f7ffffffffffffffffffffffffffffffffffffffffffffffffffffffffffffffffc3601126100ea57602073ffffffffffffffffffffffffffffffffffffffff60015416604051908152f35b346100ea5760207ffffffffffffffffffffffffffffffffffffffffffffffffffffffffffffffffc3601126100ea5773ffffffffffffffffffffffffffffffffffffffff600435610af5816100cc565b610afd6112bd565b168015610b695773ffffffffffffffffffffffffffffffffffffffff5f54827fffffffffffffffffffffffff00000000000000000000000000000000000000008216175f55167f8be0079c531659141344cd1fd0a4f28419497f9722a3daafe3b4186f6b6457e05f80a3005b7f1e4fbdf7000000000000000000000000000000000000000000000000000000005f525f60045260245ffd5b601f82602094937fffffffffffffffffffffffffffffffffffffffffffffffffffffffffffffffe093818652868601375f8582860101520116010190565b9593919273ffffffffffffffffffffffffffffffffffffffff610c1494610c229997938952166020880152604087015260a0606087015260a0860191610b95565b926080818503910152610b95565b90565b7f4e487b71000000000000000000000000000000000000000000000000000000005f52604160045260245ffd5b90601f7fffffffffffffffffffffffffffffffffffffffffffffffffffffffffffffffe0910116810190811067ffffffffffffffff821117610c9357604052565b610c25565b60405190610ca760e083610c52565b565b67ffffffffffffffff8111610c9357601f017fffffffffffffffffffffffffffffffffffffffffffffffffffffffffffffffe01660200190565b60405190610cf2602083610c52565b5f8252565b7f4e487b71000000000000000000000000000000000000000000000000000000005f52601160045260245ffd5b906103e68202918083046103e61490151715610d3c57565b610cf7565b91908260409103126100ea576040516040810181811067ffffffffffffffff821117610c93576040526020808294805184520151910152565b906040828203126100ea57610c2291610d41565b907fffffffffffffffffffffffffffffffffffffffffffffffffffffffffffffffe0601f602080948051918291828752018686015e5f8582860101520116010190565b610c229163ffffffff825116815260208201516020820152604082015160408201526060820151606082015260c0610e2d610e1b608085015160e0608086015260e0850190610d8e565b60a085015184820360a0860152610d8e565b9201519060c0818403910152610d8e565b91906020610e555f92604086526040860190610dd1565b930152565b6040513d5f823e3d90fd5b91908201809211610d3c57565b15610e7957565b60646040517f08c379a000000000000000000000000000000000000000000000000000000000815260206004820152601d60248201527f416d6f756e74206d7573742062652067726561746572207468616e20300000006044820152fd5b15610ede57565b60646040517f08c379a000000000000000000000000000000000000000000000000000000000815260206004820152601560248201527f496e73756666696369656e74204554482073656e7400000000000000000000006044820152fd5b15610f4357565b60846040517f08c379a000000000000000000000000000000000000000000000000000000000815260206004820152602660248201527f496e73756666696369656e742045544820666f72207472616e7366657220616e60448201527f64206665657300000000000000000000000000000000000000000000000000006064820152fd5b6080818303126100ea57604051916060830183811067ffffffffffffffff821117610c935760405281518352602082015167ffffffffffffffff811681036100ea57602084015261101a91604001610d41565b604082015290565b91939273ffffffffffffffffffffffffffffffffffffffff906020611051606094608087526080870190610dd1565b968051828701520151604085015216910152565b92919261107182610ca9565b9161107f6040519384610c52565b8294818452818301116100ea578281602093845f96015e010152565b919060a0838203126100ea5782519260208101516110b8816100cc565b92604082015192606083015167ffffffffffffffff81116100ea57830181601f820112156100ea57818160206110f093519101611065565b9260808101519067ffffffffffffffff82116100ea57019080601f830112156100ea578151610c2292602001611065565b908160209103126100ea575190565b93909273ffffffffffffffffffffffffffffffffffffffff61117d93610c229795875261eeee60208801525f6040880152166060860152608085015260e060a085015260e0840190610d8e565b9160c0818403910152610d8e565b6040517e03000000000000000000000000000000000000000000000000000000000000602082015260028152610c22602282610c52565b90600361ffff6111d18461138b565b160361128557610c2291906fffffffffffffffffffffffffffffffff811661122957506040515f6020820152720c350000000000000000000000000000000000602282015261122381603281016101e9565b9061140b565b7fffffffffffffffffffffffffffffffff00000000000000000000000000000000604051915f6020840152720c350000000000000000000000000000000000602284015260801b16603282015260228152611223604282610c52565b61ffff6112918361138b565b7f3a51740d000000000000000000000000000000000000000000000000000000005f521660045260245ffd5b73ffffffffffffffffffffffffffffffffffffffff5f541633036112dd57565b7f118cdaa7000000000000000000000000000000000000000000000000000000005f523360045260245ffd5b81604c116100ea577fffffffffffffffffffffffffffffffffffffffffffffffffffffffffffffffb482019061133e82610ca9565b9261134c6040519485610c52565b82845236818301116100ea575f92604c7fffffffffffffffffffffffffffffffffffffffffffffffffffffffffffffffd4930160208601378301015290565b600281511061139b576002015190565b60646040517f08c379a000000000000000000000000000000000000000000000000000000000815260206004820152601460248201527f746f55696e7431365f6f75744f66426f756e64730000000000000000000000006044820152fd5b805191908290602001825e015f815290565b90600361ffff61141a8461138b565b160361128557805161ffff81116114d55761ffff60019116019161ffff8311610d3c576101e9610c2292600461147b957fffff00000000000000000000000000000000000000000000000000000000000060405197889660208801906113f9565b917f0100000000000000000000000000000000000000000000000000000000000000835260f01b1660018201527f0300000000000000000000000000000000000000000000000000000000000000600382015201906113f9565b7f6dfcc650000000000000000000000000000000000000000000000000000000005f52601060045260245260445ffd","linkReferences":{}},"methodIdentifiers":{"crossChainPay(uint32,uint256,uint256,address,uint256,string,bytes)":"4860f3fa","emergencyWithdraw()":"db2e21bc","jbMultiTerminal()":"e286994d","lzCompose(address,bytes32,bytes,address,bytes)":"d0a10260","owner()":"8da5cb5b","quoteCrossChainPay(uint32,uint256,uint256,address,uint256,string,bytes)":"09f1fefc","renounceOwnership()":"715018a6","setJbMultiTerminalAddress(address)":"3fe663cd","setStargateRouter(address)":"51b78b47","stargateRouter()":"a9e56f3c","transferOwnership(address)":"f2fde38b"},"id":236}