{"abi":[{"type":"constructor","inputs":[{"name":"owner","type":"address","internalType":"address"},{"name":"_poolManager","type":"address","internalType":"contract IPoolManager"},{"name":"_posm","type":"address","internalType":"contract IPositionManager"},{"name":"_lzEndpoint","type":"address","internalType":"address"},{"name":"_destinationChainId","type":"uint256","internalType":"uint256"},{"name":"_destinationEid","type":"uint16","internalType":"uint16"},{"name":"_vMooneyAddress","type":"address","internalType":"address"},{"name":"_router","type":"address","internalType":"address"},{"name":"_donID","type":"bytes32","internalType":"bytes32"},{"name":"_subscriptionId","type":"uint64","internalType":"uint64"}],"stateMutability":"nonpayable"},{"type":"fallback","stateMutability":"payable"},{"type":"receive","stateMutability":"payable"},{"type":"function","name":"afterAddLiquidity","inputs":[{"name":"sender","type":"address","internalType":"address"},{"name":"key","type":"tuple","internalType":"struct PoolKey","components":[{"name":"currency0","type":"address","internalType":"Currency"},{"name":"currency1","type":"address","internalType":"Currency"},{"name":"fee","type":"uint24","internalType":"uint24"},{"name":"tickSpacing","type":"int24","internalType":"int24"},{"name":"hooks","type":"address","internalType":"contract IHooks"}]},{"name":"params","type":"tuple","internalType":"struct IPoolManager.ModifyLiquidityParams","components":[{"name":"tickLower","type":"int24","internalType":"int24"},{"name":"tickUpper","type":"int24","internalType":"int24"},{"name":"liquidityDelta","type":"int256","internalType":"int256"},{"name":"salt","type":"bytes32","internalType":"bytes32"}]},{"name":"delta","type":"int256","internalType":"BalanceDelta"},{"name":"feesAccrued","type":"int256","internalType":"BalanceDelta"},{"name":"hookData","type":"bytes","internalType":"bytes"}],"outputs":[{"name":"","type":"bytes4","internalType":"bytes4"},{"name":"","type":"int256","internalType":"BalanceDelta"}],"stateMutability":"nonpayable"},{"type":"function","name":"afterDonate","inputs":[{"name":"sender","type":"address","internalType":"address"},{"name":"key","type":"tuple","internalType":"struct PoolKey","components":[{"name":"currency0","type":"address","internalType":"Currency"},{"name":"currency1","type":"address","internalType":"Currency"},{"name":"fee","type":"uint24","internalType":"uint24"},{"name":"tickSpacing","type":"int24","internalType":"int24"},{"name":"hooks","type":"address","internalType":"contract IHooks"}]},{"name":"amount0","type":"uint256","internalType":"uint256"},{"name":"amount1","type":"uint256","internalType":"uint256"},{"name":"hookData","type":"bytes","internalType":"bytes"}],"outputs":[{"name":"","type":"bytes4","internalType":"bytes4"}],"stateMutability":"nonpayable"},{"type":"function","name":"afterInitialize","inputs":[{"name":"sender","type":"address","internalType":"address"},{"name":"key","type":"tuple","internalType":"struct PoolKey","components":[{"name":"currency0","type":"address","internalType":"Currency"},{"name":"currency1","type":"address","internalType":"Currency"},{"name":"fee","type":"uint24","internalType":"uint24"},{"name":"tickSpacing","type":"int24","internalType":"int24"},{"name":"hooks","type":"address","internalType":"contract IHooks"}]},{"name":"sqrtPriceX96","type":"uint160","internalType":"uint160"},{"name":"tick","type":"int24","internalType":"int24"}],"outputs":[{"name":"","type":"bytes4","internalType":"bytes4"}],"stateMutability":"nonpayable"},{"type":"function","name":"afterRemoveLiquidity","inputs":[{"name":"sender","type":"address","internalType":"address"},{"name":"key","type":"tuple","internalType":"struct PoolKey","components":[{"name":"currency0","type":"address","internalType":"Currency"},{"name":"currency1","type":"address","internalType":"Currency"},{"name":"fee","type":"uint24","internalType":"uint24"},{"name":"tickSpacing","type":"int24","internalType":"int24"},{"name":"hooks","type":"address","internalType":"contract IHooks"}]},{"name":"params","type":"tuple","internalType":"struct IPoolManager.ModifyLiquidityParams","components":[{"name":"tickLower","type":"int24","internalType":"int24"},{"name":"tickUpper","type":"int24","internalType":"int24"},{"name":"liquidityDelta","type":"int256","internalType":"int256"},{"name":"salt","type":"bytes32","internalType":"bytes32"}]},{"name":"delta","type":"int256","internalType":"BalanceDelta"},{"name":"feesAccrued","type":"int256","internalType":"BalanceDelta"},{"name":"hookData","type":"bytes","internalType":"bytes"}],"outputs":[{"name":"","type":"bytes4","internalType":"bytes4"},{"name":"","type":"int256","internalType":"BalanceDelta"}],"stateMutability":"nonpayable"},{"type":"function","name":"afterSwap","inputs":[{"name":"sender","type":"address","internalType":"address"},{"name":"key","type":"tuple","internalType":"struct PoolKey","components":[{"name":"currency0","type":"address","internalType":"Currency"},{"name":"currency1","type":"address","internalType":"Currency"},{"name":"fee","type":"uint24","internalType":"uint24"},{"name":"tickSpacing","type":"int24","internalType":"int24"},{"name":"hooks","type":"address","internalType":"contract IHooks"}]},{"name":"params","type":"tuple","internalType":"struct IPoolManager.SwapParams","components":[{"name":"zeroForOne","type":"bool","internalType":"bool"},{"name":"amountSpecified","type":"int256","internalType":"int256"},{"name":"sqrtPriceLimitX96","type":"uint160","internalType":"uint160"}]},{"name":"delta","type":"int256","internalType":"BalanceDelta"},{"name":"hookData","type":"bytes","internalType":"bytes"}],"outputs":[{"name":"","type":"bytes4","internalType":"bytes4"},{"name":"","type":"int128","internalType":"int128"}],"stateMutability":"nonpayable"},{"type":"function","name":"allowInitializePath","inputs":[{"name":"origin","type":"tuple","internalType":"struct Origin","components":[{"name":"srcEid","type":"uint32","internalType":"uint32"},{"name":"sender","type":"bytes32","internalType":"bytes32"},{"name":"nonce","type":"uint64","internalType":"uint64"}]}],"outputs":[{"name":"","type":"bool","internalType":"bool"}],"stateMutability":"view"},{"type":"function","name":"beforeAddLiquidity","inputs":[{"name":"sender","type":"address","internalType":"address"},{"name":"key","type":"tuple","internalType":"struct PoolKey","components":[{"name":"currency0","type":"address","internalType":"Currency"},{"name":"currency1","type":"address","internalType":"Currency"},{"name":"fee","type":"uint24","internalType":"uint24"},{"name":"tickSpacing","type":"int24","internalType":"int24"},{"name":"hooks","type":"address","internalType":"contract IHooks"}]},{"name":"params","type":"tuple","internalType":"struct IPoolManager.ModifyLiquidityParams","components":[{"name":"tickLower","type":"int24","internalType":"int24"},{"name":"tickUpper","type":"int24","internalType":"int24"},{"name":"liquidityDelta","type":"int256","internalType":"int256"},{"name":"salt","type":"bytes32","internalType":"bytes32"}]},{"name":"hookData","type":"bytes","internalType":"bytes"}],"outputs":[{"name":"","type":"bytes4","internalType":"bytes4"}],"stateMutability":"nonpayable"},{"type":"function","name":"beforeDonate","inputs":[{"name":"sender","type":"address","internalType":"address"},{"name":"key","type":"tuple","internalType":"struct PoolKey","components":[{"name":"currency0","type":"address","internalType":"Currency"},{"name":"currency1","type":"address","internalType":"Currency"},{"name":"fee","type":"uint24","internalType":"uint24"},{"name":"tickSpacing","type":"int24","internalType":"int24"},{"name":"hooks","type":"address","internalType":"contract IHooks"}]},{"name":"amount0","type":"uint256","internalType":"uint256"},{"name":"amount1","type":"uint256","internalType":"uint256"},{"name":"hookData","type":"bytes","internalType":"bytes"}],"outputs":[{"name":"","type":"bytes4","internalType":"bytes4"}],"stateMutability":"nonpayable"},{"type":"function","name":"beforeInitialize","inputs":[{"name":"sender","type":"address","internalType":"address"},{"name":"key","type":"tuple","internalType":"struct PoolKey","components":[{"name":"currency0","type":"address","internalType":"Currency"},{"name":"currency1","type":"address","internalType":"Currency"},{"name":"fee","type":"uint24","internalType":"uint24"},{"name":"tickSpacing","type":"int24","internalType":"int24"},{"name":"hooks","type":"address","internalType":"contract IHooks"}]},{"name":"sqrtPriceX96","type":"uint160","internalType":"uint160"}],"outputs":[{"name":"","type":"bytes4","internalType":"bytes4"}],"stateMutability":"nonpayable"},{"type":"function","name":"beforeRemoveLiquidity","inputs":[{"name":"sender","type":"address","internalType":"address"},{"name":"key","type":"tuple","internalType":"struct PoolKey","components":[{"name":"currency0","type":"address","internalType":"Currency"},{"name":"currency1","type":"address","internalType":"Currency"},{"name":"fee","type":"uint24","internalType":"uint24"},{"name":"tickSpacing","type":"int24","internalType":"int24"},{"name":"hooks","type":"address","internalType":"contract IHooks"}]},{"name":"params","type":"tuple","internalType":"struct IPoolManager.ModifyLiquidityParams","components":[{"name":"tickLower","type":"int24","internalType":"int24"},{"name":"tickUpper","type":"int24","internalType":"int24"},{"name":"liquidityDelta","type":"int256","internalType":"int256"},{"name":"salt","type":"bytes32","internalType":"bytes32"}]},{"name":"hookData","type":"bytes","internalType":"bytes"}],"outputs":[{"name":"","type":"bytes4","internalType":"bytes4"}],"stateMutability":"nonpayable"},{"type":"function","name":"beforeSwap","inputs":[{"name":"sender","type":"address","internalType":"address"},{"name":"key","type":"tuple","internalType":"struct PoolKey","components":[{"name":"currency0","type":"address","internalType":"Currency"},{"name":"currency1","type":"address","internalType":"Currency"},{"name":"fee","type":"uint24","internalType":"uint24"},{"name":"tickSpacing","type":"int24","internalType":"int24"},{"name":"hooks","type":"address","internalType":"contract IHooks"}]},{"name":"params","type":"tuple","internalType":"struct IPoolManager.SwapParams","components":[{"name":"zeroForOne","type":"bool","internalType":"bool"},{"name":"amountSpecified","type":"int256","internalType":"int256"},{"name":"sqrtPriceLimitX96","type":"uint160","internalType":"uint160"}]},{"name":"hookData","type":"bytes","internalType":"bytes"}],"outputs":[{"name":"","type":"bytes4","internalType":"bytes4"},{"name":"","type":"int256","internalType":"BeforeSwapDelta"},{"name":"","type":"uint24","internalType":"uint24"}],"stateMutability":"nonpayable"},{"type":"function","name":"endpoint","inputs":[],"outputs":[{"name":"","type":"address","internalType":"contract ILayerZeroEndpointV2"}],"stateMutability":"view"},{"type":"function","name":"getHookPermissions","inputs":[],"outputs":[{"name":"","type":"tuple","internalType":"struct Hooks.Permissions","components":[{"name":"beforeInitialize","type":"bool","internalType":"bool"},{"name":"afterInitialize","type":"bool","internalType":"bool"},{"name":"beforeAddLiquidity","type":"bool","internalType":"bool"},{"name":"afterAddLiquidity","type":"bool","internalType":"bool"},{"name":"beforeRemoveLiquidity","type":"bool","internalType":"bool"},{"name":"afterRemoveLiquidity","type":"bool","internalType":"bool"},{"name":"beforeSwap","type":"bool","internalType":"bool"},{"name":"afterSwap","type":"bool","internalType":"bool"},{"name":"beforeDonate","type":"bool","internalType":"bool"},{"name":"afterDonate","type":"bool","internalType":"bool"},{"name":"beforeSwapReturnDelta","type":"bool","internalType":"bool"},{"name":"afterSwapReturnDelta","type":"bool","internalType":"bool"},{"name":"afterAddLiquidityReturnDelta","type":"bool","internalType":"bool"},{"name":"afterRemoveLiquidityReturnDelta","type":"bool","internalType":"bool"}]}],"stateMutability":"pure"},{"type":"function","name":"handleOracleFulfillment","inputs":[{"name":"requestId","type":"bytes32","internalType":"bytes32"},{"name":"response","type":"bytes","internalType":"bytes"},{"name":"err","type":"bytes","internalType":"bytes"}],"outputs":[],"stateMutability":"nonpayable"},{"type":"function","name":"isComposeMsgSender","inputs":[{"name":"","type":"tuple","internalType":"struct Origin","components":[{"name":"srcEid","type":"uint32","internalType":"uint32"},{"name":"sender","type":"bytes32","internalType":"bytes32"},{"name":"nonce","type":"uint64","internalType":"uint64"}]},{"name":"","type":"bytes","internalType":"bytes"},{"name":"_sender","type":"address","internalType":"address"}],"outputs":[{"name":"","type":"bool","internalType":"bool"}],"stateMutability":"view"},{"type":"function","name":"lzReceive","inputs":[{"name":"_origin","type":"tuple","internalType":"struct Origin","components":[{"name":"srcEid","type":"uint32","internalType":"uint32"},{"name":"sender","type":"bytes32","internalType":"bytes32"},{"name":"nonce","type":"uint64","internalType":"uint64"}]},{"name":"_guid","type":"bytes32","internalType":"bytes32"},{"name":"_message","type":"bytes","internalType":"bytes"},{"name":"_executor","type":"address","internalType":"address"},{"name":"_extraData","type":"bytes","internalType":"bytes"}],"outputs":[],"stateMutability":"payable"},{"type":"function","name":"minWithdraw","inputs":[],"outputs":[{"name":"","type":"uint256","internalType":"uint256"}],"stateMutability":"view"},{"type":"function","name":"nextNonce","inputs":[{"name":"","type":"uint32","internalType":"uint32"},{"name":"","type":"bytes32","internalType":"bytes32"}],"outputs":[{"name":"nonce","type":"uint64","internalType":"uint64"}],"stateMutability":"view"},{"type":"function","name":"oAppVersion","inputs":[],"outputs":[{"name":"senderVersion","type":"uint64","internalType":"uint64"},{"name":"receiverVersion","type":"uint64","internalType":"uint64"}],"stateMutability":"pure"},{"type":"function","name":"owner","inputs":[],"outputs":[{"name":"","type":"address","internalType":"address"}],"stateMutability":"view"},{"type":"function","name":"peers","inputs":[{"name":"eid","type":"uint32","internalType":"uint32"}],"outputs":[{"name":"peer","type":"bytes32","internalType":"bytes32"}],"stateMutability":"view"},{"type":"function","name":"poolIdToTokenId","inputs":[{"name":"","type":"bytes32","internalType":"PoolId"}],"outputs":[{"name":"","type":"uint256","internalType":"uint256"}],"stateMutability":"view"},{"type":"function","name":"poolIds","inputs":[{"name":"","type":"uint256","internalType":"uint256"}],"outputs":[{"name":"","type":"bytes32","internalType":"bytes32"}],"stateMutability":"view"},{"type":"function","name":"poolManager","inputs":[],"outputs":[{"name":"","type":"address","internalType":"contract IPoolManager"}],"stateMutability":"view"},{"type":"function","name":"renounceOwnership","inputs":[],"outputs":[],"stateMutability":"nonpayable"},{"type":"function","name":"requestIdToSender","inputs":[{"name":"","type":"bytes32","internalType":"bytes32"}],"outputs":[{"name":"","type":"address","internalType":"address"}],"stateMutability":"view"},{"type":"function","name":"sendCrossChain","inputs":[{"name":"payload","type":"bytes","internalType":"bytes"},{"name":"options","type":"bytes","internalType":"bytes"},{"name":"messageFee","type":"uint256","internalType":"uint256"},{"name":"refundAddress","type":"address","internalType":"address"}],"outputs":[],"stateMutability":"payable"},{"type":"function","name":"setDelegate","inputs":[{"name":"_delegate","type":"address","internalType":"address"}],"outputs":[],"stateMutability":"nonpayable"},{"type":"function","name":"setMinWithdraw","inputs":[{"name":"_minWithdraw","type":"uint256","internalType":"uint256"}],"outputs":[],"stateMutability":"nonpayable"},{"type":"function","name":"setPeer","inputs":[{"name":"_eid","type":"uint32","internalType":"uint32"},{"name":"_peer","type":"bytes32","internalType":"bytes32"}],"outputs":[],"stateMutability":"nonpayable"},{"type":"function","name":"setSource","inputs":[{"name":"_source","type":"string","internalType":"string"}],"outputs":[],"stateMutability":"nonpayable"},{"type":"function","name":"setSubscriptionId","inputs":[{"name":"_subscriptionId","type":"uint64","internalType":"uint64"}],"outputs":[],"stateMutability":"nonpayable"},{"type":"function","name":"setvMooneyAddress","inputs":[{"name":"_vMooneyAddress","type":"address","internalType":"address"}],"outputs":[],"stateMutability":"nonpayable"},{"type":"function","name":"totalReceived","inputs":[],"outputs":[{"name":"","type":"uint256","internalType":"uint256"}],"stateMutability":"view"},{"type":"function","name":"totalWithdrawn","inputs":[],"outputs":[{"name":"","type":"uint256","internalType":"uint256"}],"stateMutability":"view"},{"type":"function","name":"totalWithdrawnPerUser","inputs":[{"name":"","type":"address","internalType":"address"}],"outputs":[{"name":"","type":"uint256","internalType":"uint256"}],"stateMutability":"view"},{"type":"function","name":"transferOwnership","inputs":[{"name":"newOwner","type":"address","internalType":"address"}],"outputs":[],"stateMutability":"nonpayable"},{"type":"function","name":"transferPosition","inputs":[{"name":"to","type":"address","internalType":"address"},{"name":"poolId","type":"bytes32","internalType":"bytes32"}],"outputs":[],"stateMutability":"nonpayable"},{"type":"function","name":"transferredPoolIds","inputs":[{"name":"","type":"uint256","internalType":"uint256"}],"outputs":[{"name":"","type":"bytes32","internalType":"bytes32"}],"stateMutability":"view"},{"type":"function","name":"uncollectedFees","inputs":[{"name":"","type":"bytes32","internalType":"PoolId"}],"outputs":[{"name":"","type":"uint256","internalType":"uint256"}],"stateMutability":"view"},{"type":"function","name":"vMooneyAddress","inputs":[],"outputs":[{"name":"","type":"address","internalType":"address"}],"stateMutability":"view"},{"type":"function","name":"withdrawFees","inputs":[],"outputs":[{"name":"requestId","type":"bytes32","internalType":"bytes32"}],"stateMutability":"nonpayable"},{"type":"event","name":"OwnershipTransferred","inputs":[{"name":"previousOwner","type":"address","indexed":true,"internalType":"address"},{"name":"newOwner","type":"address","indexed":true,"internalType":"address"}],"anonymous":false},{"type":"event","name":"PeerSet","inputs":[{"name":"eid","type":"uint32","indexed":false,"internalType":"uint32"},{"name":"peer","type":"bytes32","indexed":false,"internalType":"bytes32"}],"anonymous":false},{"type":"event","name":"RequestFulfilled","inputs":[{"name":"id","type":"bytes32","indexed":true,"internalType":"bytes32"}],"anonymous":false},{"type":"event","name":"RequestSent","inputs":[{"name":"id","type":"bytes32","indexed":true,"internalType":"bytes32"}],"anonymous":false},{"type":"event","name":"Withdraw","inputs":[{"name":"requestId","type":"bytes32","indexed":true,"internalType":"bytes32"},{"name":"totalSupply","type":"uint256","indexed":false,"internalType":"uint256"},{"name":"userBalance","type":"uint256","indexed":false,"internalType":"uint256"},{"name":"user","type":"address","indexed":false,"internalType":"address"},{"name":"withdrawAmount","type":"uint256","indexed":false,"internalType":"uint256"}],"anonymous":false},{"type":"error","name":"EmptyArgs","inputs":[]},{"type":"error","name":"EmptySource","inputs":[]},{"type":"error","name":"HookNotImplemented","inputs":[]},{"type":"error","name":"InvalidDelegate","inputs":[]},{"type":"error","name":"InvalidEndpointCall","inputs":[]},{"type":"error","name":"InvalidOptionType","inputs":[{"name":"optionType","type":"uint16","internalType":"uint16"}]},{"type":"error","name":"LzTokenUnavailable","inputs":[]},{"type":"error","name":"NoInlineSecrets","inputs":[]},{"type":"error","name":"NoPeer","inputs":[{"name":"eid","type":"uint32","internalType":"uint32"}]},{"type":"error","name":"NotEnoughNative","inputs":[{"name":"msgValue","type":"uint256","internalType":"uint256"}]},{"type":"error","name":"NotPoolManager","inputs":[]},{"type":"error","name":"OnlyEndpoint","inputs":[{"name":"addr","type":"address","internalType":"address"}]},{"type":"error","name":"OnlyPeer","inputs":[{"name":"eid","type":"uint32","internalType":"uint32"},{"name":"sender","type":"bytes32","internalType":"bytes32"}]},{"type":"error","name":"OnlyRouterCanFulfill","inputs":[]},{"type":"error","name":"OwnableInvalidOwner","inputs":[{"name":"owner","type":"address","internalType":"address"}]},{"type":"error","name":"OwnableUnauthorizedAccount","inputs":[{"name":"account","type":"address","internalType":"address"}]},{"type":"error","name":"SafeCastOverflowedUintDowncast","inputs":[{"name":"bits","type":"uint8","internalType":"uint8"},{"name":"value","type":"uint256","internalType":"uint256"}]},{"type":"error","name":"SafeERC20FailedOperation","inputs":[{"name":"token","type":"address","internalType":"address"}]},{"type":"error","name":"StringsInsufficientHexLength","inputs":[{"name":"value","type":"uint256","internalType":"uint256"},{"name":"length","type":"uint256","internalType":"uint256"}]},{"type":"error","name":"UnexpectedRequestID","inputs":[{"name":"requestId","type":"bytes32","internalType":"bytes32"}]}],"bytecode":{"object":"0x60e08060405234610d2a575f906101408161471780380380916100228285610e31565b833981010312610d2a5761003581610e54565b602082015192906001600160a01b0384168403610d2a5760408301516001600160a01b0381169290839003610d2a5761007060608501610e54565b9260808501519160a08601519361ffff8516809503610d2a5761009560c08801610e54565b956100a260e08901610e54565b916101206101008a01519901519960018060401b038b168b03610d2a576080525f6101a06040516100d281610e01565b8281528260208201528260408201528260608201528260808201528260a08201528260c08201528260e0820152826101008201528261012082015282610140820152826101608201528261018082015201525f6101a060405161013481610e01565b828152826020820152600160408201528260608201528260808201528260a08201528260c0820152600160e08201528261010082015282610120820152826101408201526001610160820152826101808201520152612000301615801590610df4575b8015610de3575b8015610dd6575b8015610dc9575b8015610dbc575b8015610db0575b8015610da0575b8015610d94575b8015610d88575b8015610d7c575b8015610d6c575b8015610d60575b8015610d54575b610d41576001600160a01b03168015610d2e575f80546001600160a01b0319811683178255604051939183916001600160a01b0316907f8be0079c531659141344cd1fd0a4f28419497f9722a3daafe3b4186f6b6457e09080a36001600160a01b031660a0819052803b15610d2a576024835f8193819563ca5eb5e160e01b845260048401525af18015610d1f57610d0a575b506001600160a01b031660c052662386f26fc10000600a55600e805463ffffffff1916620493e0179055601054600181811c91168015610d00575b6020821014610cec57601f8111610c99575b506108616010908155908190527f636f6e737420746f6b656e73203d205b7b20636861696e3a20276d61696e6e655f805160206146f7833981519152557f74272c20616464726573733a20273078436337314338306438303333383146447f1b6847dc741a1b0cd08d278845f9d819d87b734759afb55fe2de5cb82a9ae673557f36456539383446416666343038663835303144423137343027207d2c7b6368617f1b6847dc741a1b0cd08d278845f9d819d87b734759afb55fe2de5cb82a9ae674557f696e3a2027617262697472756d2d6d61696e6e6574272c616464726573733a207f1b6847dc741a1b0cd08d278845f9d819d87b734759afb55fe2de5cb82a9ae675557f27307842323535633734463835373666313833353763453631383444413033337f1b6847dc741a1b0cd08d278845f9d819d87b734759afb55fe2de5cb82a9ae676557f6336643933433731383939272c7d2c7b636861696e3a2027706f6c79676f6e2d7f1b6847dc741a1b0cd08d278845f9d819d87b734759afb55fe2de5cb82a9ae677557f6d61696e6e6574272c616464726573733a2027307865326431424665663041367f1b6847dc741a1b0cd08d278845f9d819d87b734759afb55fe2de5cb82a9ae678557f3432423731376432393437313133353662343638636345363842456136272c7d7f1b6847dc741a1b0cd08d278845f9d819d87b734759afb55fe2de5cb82a9ae679557f2c7b636861696e3a2027626173652d6d61696e6e6574272c616464726573733a7f1b6847dc741a1b0cd08d278845f9d819d87b734759afb55fe2de5cb82a9ae67a557f20273078376638663142343563334644364265344634363735323046633143667f1b6847dc741a1b0cd08d278845f9d819d87b734759afb55fe2de5cb82a9ae67b557f303330643543614241634635272c7d2c5d3b636f6e73742075323536546f42797f1b6847dc741a1b0cd08d278845f9d819d87b734759afb55fe2de5cb82a9ae67c557f746573203d20286e29203d3e41727261792e66726f6d287b206c656e6774683a7f1b6847dc741a1b0cd08d278845f9d819d87b734759afb55fe2de5cb82a9ae67d557f203332207d2c20285f2c206929203d3e4e756d62657228286e203e3e2028386e7f1b6847dc741a1b0cd08d278845f9d819d87b734759afb55fe2de5cb82a9ae67e557f202a20426967496e74283331202d2069292929202620307866666e29293b636f7f1b6847dc741a1b0cd08d278845f9d819d87b734759afb55fe2de5cb82a9ae67f557f6e7374206275696c6443616c6c73203d2028616464722c2075737229203d3e5b7f1b6847dc741a1b0cd08d278845f9d819d87b734759afb55fe2de5cb82a9ae680557f2730783138313630646464272c206030783730613038323331247b7573722e737f1b6847dc741a1b0cd08d278845f9d819d87b734759afb55fe2de5cb82a9ae681557f6c6963652832292e70616453746172742836342c20273027297d605d2e6d61707f1b6847dc741a1b0cd08d278845f9d819d87b734759afb55fe2de5cb82a9ae682557f2828646174612c20696429203d3e20287b6a736f6e7270633a2027322e30272c7f1b6847dc741a1b0cd08d278845f9d819d87b734759afb55fe2de5cb82a9ae683557f69642c6d6574686f643a20276574685f63616c6c272c706172616d733a205b7b7f1b6847dc741a1b0cd08d278845f9d819d87b734759afb55fe2de5cb82a9ae684557f20746f3a20616464722c2064617461207d2c20276c6174657374275d2c7d29297f1b6847dc741a1b0cd08d278845f9d819d87b734759afb55fe2de5cb82a9ae685557f3b636f6e737420726573706f6e736573203d2061776169742050726f6d6973657f1b6847dc741a1b0cd08d278845f9d819d87b734759afb55fe2de5cb82a9ae686557f2e616c6c28746f6b656e732e6d617028287429203d3e46756e6374696f6e732e7f1b6847dc741a1b0cd08d278845f9d819d87b734759afb55fe2de5cb82a9ae687557f6d616b654874747052657175657374287b75726c3a206068747470733a2f2f247f1b6847dc741a1b0cd08d278845f9d819d87b734759afb55fe2de5cb82a9ae688557f7b742e636861696e7d2e696e667572612e696f2f76332f3335376433363734347f1b6847dc741a1b0cd08d278845f9d819d87b734759afb55fe2de5cb82a9ae689557f3464623435363838373436343838613036303634653763602c6d6574686f643a7f1b6847dc741a1b0cd08d278845f9d819d87b734759afb55fe2de5cb82a9ae68a557f2027504f5354272c646174613a206275696c6443616c6c7328742e61646472657f1b6847dc741a1b0cd08d278845f9d819d87b734759afb55fe2de5cb82a9ae68b557f73732c20617267735b305d292c7d2929293b636f6e7374205b746f74616c53757f1b6847dc741a1b0cd08d278845f9d819d87b734759afb55fe2de5cb82a9ae68c557f70706c7953756d2c2062616c616e636553756d5d203d205b302c20315d2e6d617f1b6847dc741a1b0cd08d278845f9d819d87b734759afb55fe2de5cb82a9ae68d557f70282863616c6c49647829203d3e726573706f6e7365732e72656475636528287f1b6847dc741a1b0cd08d278845f9d819d87b734759afb55fe2de5cb82a9ae68e557f73756d2c207229203d3e2073756d202b20426967496e7428722e646174615b637f1b6847dc741a1b0cd08d278845f9d819d87b734759afb55fe2de5cb82a9ae68f557f616c6c4964785d2e726573756c74207c7c20306e292c20306e29293b726574757f1b6847dc741a1b0cd08d278845f9d819d87b734759afb55fe2de5cb82a9ae690557f726e206e65772055696e74384172726179285b2e2e2e75323536546f427974657f1b6847dc741a1b0cd08d278845f9d819d87b734759afb55fe2de5cb82a9ae691557f7328746f74616c537570706c7953756d292c2e2e2e75323536546f42797465737f1b6847dc741a1b0cd08d278845f9d819d87b734759afb55fe2de5cb82a9ae692556f2862616c616e636553756d292c5d293b60801b7f1b6847dc741a1b0cd08d278845f9d819d87b734759afb55fe2de5cb82a9ae69355600980546001600160a01b03191692909217909155600b91909155600c80546001600160b01b0319169290921792901b62010000600160b01b0316919091179055600f55600e8054600160201b600160601b03191660209290921b6bffffffffffffffff000000001691909117905560405161388e9081610e698239608051818181610864015281816108ca01528181610ca501528181610dea01528181610e88015281816111d60152818161168c015281816119bb0152611a1d015260a0518181816106fa01528181610cf7015281816114740152818161191401528181611d4a01526130ae015260c05181818161043401526128ca0152f35b60108252601f0160051c5f805160206146f7833981519152017f1b6847dc741a1b0cd08d278845f9d819d87b734759afb55fe2de5cb82a9ae6945b818110610ce157506102cb565b828155600101610cd4565b634e487b7160e01b82526022600452602482fd5b90607f16906102b9565b610d179192505f90610e31565b5f905f61027e565b6040513d5f823e3d90fd5b5f80fd5b631e4fbdf760e01b5f525f60045260245ffd5b630732d7b560e51b5f523060045260245ffd5b506001301615156101eb565b506002301615156101e4565b50600430161515600114156101dd565b506008301615156101d6565b506010301615156101cf565b506020301615156101c8565b50604030161515600114156101c1565b506080301615156101ba565b50610100301615156101b3565b50610200301615156101ac565b50610400301615156101a5565b50610800301615156001141561019e565b5061100030161515610197565b6101c081019081106001600160401b03821117610e1d57604052565b634e487b7160e01b5f52604160045260245ffd5b601f909101601f19168101906001600160401b03821190821017610e1d57604052565b51906001600160a01b0382168203610d2a5756fe60806040526004361015610026575b361561001e5761001c612124565b005b61001c612124565b5f3560e01c80630ca76175146102bb57806313137d65146102b657806317442b70146102b1578063219c0eee146102ac57806321d0ee70146102a7578063259982e5146102a2578063264e78e41461029d5780633400288b1461029857806335aa134a14610293578063476343ee1461028e5780634b31971314610289578063543e617f14610284578063575e24b41461027f5780635e280f111461027a57806369883b4e146102755780636c2bbe7e146102485780636fe7e6eb14610270578063715018a61461026b578063763cef93146102665780637d25a05e1461026157806382413eac1461025c5780638da5cb5b1461025757806390b0f1551461025257806399d254551461024d5780639f063efc14610248578063a3c2c46214610243578063b47b2fb11461023e578063b6a8b0fa14610211578063bb0b6a5314610239578063c41b613f14610234578063c4e833ce1461022f578063ca5eb5e11461022a578063cc3d272114610225578063dc4c90d314610220578063dc98354e1461021b578063e04bc0fa14610216578063e1b4af6914610211578063ea7b4f771461020c578063ec5c496214610207578063f2fde38b14610202578063f8ad9a6d146101fd5763ff7bd03d0361000e57611db7565b611c42565b611bb9565b611ae7565b611a95565b611679565b611a5a565b6119ea565b6119a6565b611989565b6118ec565b6117fd565b611707565b6116ce565b611182565b611165565b610dd7565b61103f565b610ff1565b610fca565b610f6c565b610f46565b610f1c565b610ec5565b610e4b565b610d26565b610ce2565b610c50565b610c24565b610c07565b610ae2565b610ac1565b610a54565b6109f6565b6108b4565b610851565b6107b2565b610791565b610695565b6103e0565b634e487b7160e01b5f52604160045260245ffd5b6101c081019081106001600160401b038211176102f057604052565b6102c0565b604081019081106001600160401b038211176102f057604052565b606081019081106001600160401b038211176102f057604052565b90601f801991011681019081106001600160401b038211176102f057604052565b6040519061035b60a08361032b565b565b6040519061035b6101c08361032b565b6001600160401b0381116102f057601f01601f191660200190565b9291926103948261036d565b916103a2604051938461032b565b8294818452818301116103be578281602093845f960137010152565b5f80fd5b9080601f830112156103be578160206103dd93359101610388565b90565b346103be5760603660031901126103be576004356024356001600160401b0381116103be576104139036906004016103c2565b6044356001600160401b0381116103be576104329036906004016103c2565b7f00000000000000000000000000000000000000000000000000000000000000006001600160a01b0316330361062657805161060657507fe2c3fa2ef335e52cb3e40c84dabc659380941f50cdfed434bd8c35a59f50c5d461049e82602080869551830101910161216b565b906104aa811515612181565b6104b58215156121c4565b6105dd6104e76104d96104d0846104cb87612207565b61226c565b60045490612259565b670de0b6b3a7640000900490565b61053f61050c6104ff885f52600d60205260405f2090565b546001600160a01b031690565b916105216001600160a01b038416151561228a565b6001600160a01b0383165f90815260026020526040902054906122e7565b9061054b8215156122f4565b6001600160a01b0381165f90815260026020526040902061056d838254612117565b905561058361057e83600354612117565b600355565b61058d8282612c05565b6105b26105a2885f52600d60205260405f2090565b80546001600160a01b0319169055565b604051948594859094939260609260808301968352602083015260018060a01b031660408201520152565b0390a27f85e1543bf2f84fe80c6badbce3648c8539ad1df4d2b3d822938ca0538be727e65f80a2005b60405162461bcd60e51b8152908190610622906004830161215a565b0390fd5b63c6829f8360e01b5f5260045ffd5b60609060031901126103be57600490565b60609060c31901126103be5760c490565b9181601f840112156103be578235916001600160401b0383116103be57602083818601950101116103be57565b6001600160a01b038116036103be57565b60e03660031901126103be576106aa36610635565b6084356001600160401b0381116103be576106c9903690600401610657565b50506106d660a435610684565b60c4356001600160401b0381116103be576106f5903690600401610657565b5050337f00000000000000000000000000000000000000000000000000000000000000006001600160a01b03160361077457803561073281610a46565b602061073d82612336565b92013580920361074f5761001c612124565b8061075e63ffffffff92610a46565b63309afaf360e21b5f521660045260245260445ffd5b6391ac5e4f60e01b5f523360045260245ffd5b5f9103126103be57565b346103be575f3660031901126103be57604080516001815260026020820152f35b346103be5760203660031901126103be576004355f52600d602052602060018060a01b0360405f205416604051908152f35b60a09060231901126103be57602490565b906101606003198301126103be5760043561080f81610684565b9160a06023198201126103be57602491608060c3198301126103be5760c49161014435906001600160401b0382116103be5761084d91600401610657565b9091565b346103be5761085f366107f5565b5050507f00000000000000000000000000000000000000000000000000000000000000006001600160a01b0316330391506108a5905057630a85dc2960e01b5f5260045ffd5b63570c108560e11b5f5260045ffd5b346103be576108c2366107f5565b5091925050507f00000000000000000000000000000000000000000000000000000000000000006001600160a01b031633036108a55761090661090d913690612373565b60a0902090565b61091f815f52600860205260405f2090565b541561093c575b60405163259982e560e01b8152602090f35b0390f35b60095460049190602090610960906001600160a01b03165b6001600160a01b031690565b604051631d5e528f60e21b815293849182905afa9182156109dd576109a892610990915f916109ae575b506122ca565b6109a2825f52600860205260405f2090565b55612042565b5f610926565b6109d0915060203d6020116109d6575b6109c8818361032b565b8101906123f4565b5f61098a565b503d6109be565b611ff6565b634e487b7160e01b5f52603260045260245ffd5b346103be5760203660031901126103be576004356006548110156103be5760209060065f527ff652222313e28459528d920b65115c16c04f3efc82aaedc97be59f3f377c0d3f0154604051908152f35b63ffffffff8116036103be57565b346103be5760403660031901126103be577f238399d427b947898edb290f5ff0f9109849b1c3ba196a42e35f00c50a54b98b6040600435610a9481610a46565b63ffffffff60243591610aa5612403565b1690815f52600160205280835f205582519182526020820152a1005b346103be5760203660031901126103be57600435610add612403565b600a55005b346103be575f3660031901126103be57600b544603610bb757610938610b72610b51610b0c611dfc565b610b1d610b17611e7a565b82612c7c565b610b4c610b293361249c565b610b31611f4b565b90610b3b82611f70565b52610b4581611f70565b5082612552565b6126aa565b600e54600f549163ffffffff82169160201c6001600160401b031690612873565b610ba733610b88835f52600d60205260405f2090565b80546001600160a01b0319166001600160a01b03909216919091179055565b6040519081529081906020820190565b60405162461bcd60e51b815260206004820152602260248201527f57697468647261773a206e6f74206f6e2064657374696e6174696f6e2063686160448201526134b760f11b6064820152608490fd5b346103be575f3660031901126103be576020600354604051908152f35b346103be575f3660031901126103be57600c5460405160109190911c6001600160a01b03168152602090f35b346103be576101403660031901126103be57610c6d600435610684565b610c76366107e4565b50610c8036610646565b50610124356001600160401b0381116103be57610ca1903690600401610657565b50507f00000000000000000000000000000000000000000000000000000000000000006001600160a01b031633036108a557630a85dc2960e01b5f5260045ffd5b346103be575f3660031901126103be576040517f00000000000000000000000000000000000000000000000000000000000000006001600160a01b03168152602090f35b346103be5760203660031901126103be576004356005548110156103be5760209060055f527f036b6384b5eca791c62761152d0c79bb0604c104a5fb6f4eb0703f3154bb3db00154604051908152f35b906101a06003198301126103be57600435610d9081610684565b9160a06023198201126103be57602491608060c48303126103be5760c4916101443591610164359161018435906001600160401b0382116103be5761084d91600401610657565b346103be57610de536610d76565b5050507f00000000000000000000000000000000000000000000000000000000000000006001600160a01b0316330393506108a59250505057630a85dc2960e01b5f5260045ffd5b60e435908160020b82036103be57565b35908160020b82036103be57565b346103be576101003660031901126103be57610e68600435610684565b610e71366107e4565b50610e7d60c435610684565b610e85610e2d565b507f00000000000000000000000000000000000000000000000000000000000000006001600160a01b031633036108a557630a85dc2960e01b5f5260045ffd5b346103be575f3660031901126103be57610edd612403565b5f80546001600160a01b0319811682556001600160a01b03167f8be0079c531659141344cd1fd0a4f28419497f9722a3daafe3b4186f6b6457e08280a3005b346103be5760203660031901126103be576004355f526007602052602060405f2054604051908152f35b346103be5760403660031901126103be57610f62600435610a46565b60206040515f8152f35b346103be5760a03660031901126103be57610f8636610635565b506064356001600160401b0381116103be57610fa6903690600401610657565b50506020608435610fb681610684565b6040516001600160a01b0390911630148152f35b346103be575f3660031901126103be575f546040516001600160a01b039091168152602090f35b346103be5760203660031901126103be5760043561100e81610684565b611016612403565b600c805462010000600160b01b03191660109290921b62010000600160b01b0316919091179055005b346103be5760203660031901126103be576004356001600160401b0381116103be57366023820112156103be57611080903690602481600401359101610388565b611088612403565b80516001600160401b0381116102f0576110ac816110a7601054611e42565b611fa6565b602091601f82116001146110ea576110da925f91836110df575b50508160011b915f199060031b1c19161790565b601055005b015190505f806110c6565b60105f52601f198216927f1b6847dc741a1b0cd08d278845f9d819d87b734759afb55fe2de5cb82a9ae672915f5b85811061114d57508360019510611135575b505050811b01601055005b01515f1960f88460031b161c191690555f808061112a565b91926020600181928685015181550194019201611118565b346103be575f3660031901126103be576020600454604051908152f35b346103be576101603660031901126103be5761119f600435610684565b6111a8366107e4565b6111b136610646565b90610144356001600160401b0381116103be576111d2903690600401610657565b50507f00000000000000000000000000000000000000000000000000000000000000006001600160a01b031633036108a5576112116109063683612373565b9161121b8161294a565b8061161c575b6115be575b50611239825f52600760205260405f2090565b54600a54111561125a575b6040805163b47b2fb160e01b81525f6020820152f35b604051600160f81b6020820152601160f81b602182015261128881602281015b03601f19810183528261032b565b611290612971565b906112a3845f52600860205260405f2090565b546112c26112af612429565b9161127a60405193849260208401612996565b6112cb83611f70565b526112d582611f70565b5060206112e1846129bf565b93019261131c6112f0856129bf565b604080516001600160a01b0394851660208201529390911690830152306060830152816080810161127a565b61132583611f82565b5261132f82611f82565b50600954611345906001600160a01b0316610954565b91823b156103be57611370925f92836040518096819582946312bf8e4f60e21b8452600484016129c9565b03925af180156109dd576115aa575b5061139161138c826129bf565b612edd565b611585575b50600b5446036113b7575b5f9081526007602052604081205b555f80611244565b604051905f82526113c960208361032b565b6001600160801b0347169161147060406113f36113e4612fca565b6113ed87612a3b565b90612fe6565b600c5461ffff16906114118261ffff165f52600160205260405f2090565b545f1a60f81b61143361ffff61142561034c565b9416849063ffffffff169052565b6001600160f81b031916602083015282820185905260608201525f60808201528151631bb8518b60e31b8152928391829190309060048401612abc565b03817f00000000000000000000000000000000000000000000000000000000000000006001600160a01b03165afa9081156109dd576114e5916114c2915f91611556575b50516001600160801b031690565b6113ed6114cd612fca565b916114e0876114db81612a3b565b612b2a565b612a60565b90303b156103be578361151b946001600160801b035f946040519788958694859363f8ad9a6d60e01b8552309260048601612b4a565b039216305af19081156109dd575f926113af9261153c575b509150506113a1565b8061154a856115509361032b565b80610787565b5f611533565b611578915060403d60401161157e575b611570818361032b565b810190612aa8565b5f6114b4565b503d611566565b8061159e61138c6115986115a4946129bf565b926129bf565b90612f43565b5f611396565b8061154a5f6115b89361032b565b5f61137f565b6115ee6115d160206115f7930135612957565b6115e86115e060408601612967565b62ffffff1690565b90612259565b620f4240900490565b61161461160c845f52600760205260405f2090565b918254612117565b90555f611226565b505f602082013512611221565b6101206003198201126103be5760043561164281610684565b9160a06023198301126103be5760249160c4359160e4359161010435906001600160401b0382116103be5761084d91600401610657565b346103be5761168736611629565b5050507f00000000000000000000000000000000000000000000000000000000000000006001600160a01b0316330392506108a591505057630a85dc2960e01b5f5260045ffd5b346103be5760203660031901126103be5763ffffffff6004356116f081610a46565b165f526001602052602060405f2054604051908152f35b346103be5760203660031901126103be5760043561172481610684565b60018060a01b03165f526002602052602060405f2054604051908152f35b61035b909291926101a0806101c083019561175f84825115159052565b60208181015115159085015260408181015115159085015260608181015115159085015260808181015115159085015260a08181015115159085015260c08181015115159085015260e081810151151590850152610100818101511515908501526101208181015115159085015261014081810151151590850152610160818101511515908501526101808181015115159085015201511515910152565b346103be575f3660031901126103be575f6101a060405161181d816102d4565b8281528260208201528260408201528260608201528260808201528260a08201528260c08201528260e08201528261010082015282610120820152826101408201528261016082015282610180820152015261093861187a61035d565b5f8082526020820152600160408201525f60608201525f60808201525f60a08201525f60c08201526118af60e0820160019052565b5f6101008201525f6101208201525f6101408201526118d2610160820160019052565b5f6101808201525f6101a082015260405191829182611742565b346103be575f60203660031901126103be5760043561190a81610684565b611912612403565b7f00000000000000000000000000000000000000000000000000000000000000006001600160a01b031690813b156103be5760405163ca5eb5e160e01b81526001600160a01b039091166004820152905f908290602490829084905af180156109dd5761197d575080f35b61001c91505f9061032b565b346103be575f3660031901126103be576020600a54604051908152f35b346103be575f3660031901126103be576040517f00000000000000000000000000000000000000000000000000000000000000006001600160a01b03168152602090f35b346103be5760e03660031901126103be57611a06600435610684565b611a0f366107e4565b50611a1b60c435610684565b7f00000000000000000000000000000000000000000000000000000000000000006001600160a01b031633036108a557630a85dc2960e01b5f5260045ffd5b346103be5760203660031901126103be576004355f526008602052602060405f2054604051908152f35b6001600160401b038116036103be57565b346103be5760203660031901126103be57600435611ab281611a84565b611aba612403565b6bffffffffffffffff00000000600e549160201b16906bffffffffffffffff00000000191617600e555f80f35b346103be5760403660031901126103be57600435611b0481610684565b60243590611b10612403565b611b37611b25835f52600860205260405f2090565b5492611b32841515612001565b61208b565b600954611b529061095490819081906001600160a01b031681565b91823b156103be57604051635c46a7ef60e11b81523060048201526001600160a01b039290921660248301526044820152608060648201525f608482018190529091829060a490829084905af180156109dd57611bab57005b8061154a5f61001c9361032b565b346103be5760203660031901126103be57600435611bd681610684565b611bde612403565b6001600160a01b03168015611c2f575f80546001600160a01b03198116831782556001600160a01b0316907f8be0079c531659141344cd1fd0a4f28419497f9722a3daafe3b4186f6b6457e09080a3005b631e4fbdf760e01b5f525f60045260245ffd5b60803660031901126103be576004356001600160401b0381116103be57611c6d9036906004016103c2565b6024356001600160401b0381116103be57611d4691611c9260809236906004016103c2565b90606435611d1c604435611ca583610684565b61ffff600c54169460405191611cba836102f5565b8252611cd660208301925f8452611ccf612b91565b5051613082565b94825180611da8575b50611ce987612336565b9251151592611d05611cf961034c565b63ffffffff9099168952565b602088015260408701526060860152151585850152565b6040516302637a4560e41b815294859384928392916001600160a01b039091169060048401612abc565b03917f00000000000000000000000000000000000000000000000000000000000000006001600160a01b03165af180156109dd57611d8057005b61001c9060803d608011611da1575b611d99818361032b565b810190612bc3565b503d611d8f565b611db19061309f565b5f611cdf565b346103be5760603660031901126103be576020611dd336610635565b63ffffffff8135611de381610a46565b165f52600182528160405f205491013560405191148152f35b6040519060e082018281106001600160401b038211176102f057604052606060c0835f81525f60208201525f604082015282808201528260808201528260a08201520152565b90600182811c92168015611e70575b6020831014611e5c57565b634e487b7160e01b5f52602260045260245ffd5b91607f1691611e51565b604051905f8260105491611e8d83611e42565b8083529260018116908115611f105750600114611eb1575b61035b9250038361032b565b5060105f90815290917f1b6847dc741a1b0cd08d278845f9d819d87b734759afb55fe2de5cb82a9ae6725b818310611ef457505090602061035b92820101611ea5565b6020919350806001915483858901015201910190918492611edc565b6020925061035b94915060ff191682840152151560051b820101611ea5565b5f5b828110611f3d57505050565b606082820152602001611f31565b604080519190611f5b818461032b565b6001835261035b90601f190160208401611f2f565b805115611f7d5760200190565b6109e2565b805160011015611f7d5760400190565b8051821015611f7d5760209160051b010190565b601f8111611fb2575050565b60105f5260205f20906020601f840160051c83019310611fec575b601f0160051c01905b818110611fe1575050565b5f8155600101611fd6565b9091508190611fcd565b6040513d5f823e3d90fd5b1561200857565b60405162461bcd60e51b8152602060048201526012602482015271151bdad95b881251081b9bdd08199bdd5b9960721b6044820152606490fd5b600554600160401b8110156102f05760018101600555600554811015611f7d5760055f527f036b6384b5eca791c62761152d0c79bb0604c104a5fb6f4eb0703f3154bb3db00155565b600654600160401b8110156102f05760018101600655600654811015611f7d5760065f527ff652222313e28459528d920b65115c16c04f3efc82aaedc97be59f3f377c0d3f0155565b634e487b7160e01b5f52601160045260245ffd5b90600282018092116120f657565b6120d4565b90600182018092116120f657565b90602082018092116120f657565b919082018092116120f657565b6004543481018091116120f657600455565b805180835260209291819084018484015e5f828201840152601f01601f1916010190565b9060206103dd928181520190612136565b91908260409103126103be576020825192015190565b1561218857565b60405162461bcd60e51b8152602060048201526014602482015273546f74616c20737570706c79206973207a65726f60601b6044820152606490fd5b156121cb57565b60405162461bcd60e51b8152602060048201526014602482015273557365722062616c616e6365206973207a65726f60601b6044820152606490fd5b90670de0b6b3a7640000820291808304670de0b6b3a764000014901517156120f657565b600181901b91906001600160ff1b038116036120f657565b908160011b91808304600214901517156120f657565b818102929181159184041417156120f657565b8115612276570490565b634e487b7160e01b5f52601260045260245ffd5b1561229157565b60405162461bcd60e51b8152602060048201526011602482015270155b9adb9bdddb881c995c5d595cdd1259607a1b6044820152606490fd5b5f198101919082116120f657565b601f198101919082116120f657565b919082039182116120f657565b156122fb57565b60405162461bcd60e51b81526020600482015260136024820152724e6f7468696e6720746f20776974686472617760681b6044820152606490fd5b63ffffffff16805f52600160205260405f2054908115612354575090565b63f6ff4fb760e01b5f5260045260245ffd5b62ffffff8116036103be57565b91908260a09103126103be5760405160a081018181106001600160401b038211176102f057604052608080829480356123ab81610684565b845260208101356123bb81610684565b602085015260408101356123ce81612366565b60408501526123df60608201610e3d565b60608501520135916123f083610684565b0152565b908160209103126103be575190565b5f546001600160a01b0316330361241657565b63118cdaa760e01b5f523360045260245ffd5b6040519061243860208361032b565b5f8252565b906124478261036d565b612454604051918261032b565b8281528092612465601f199161036d565b0190602036910137565b805160011015611f7d5760210190565b908151811015611f7d570160200190565b80156120f6575f190190565b806124b76124b26124ad601461222b565b6120e8565b61243d565b9160306124c384611f70565b5360786124cf8461246f565b536124e26124dd601461222b565b6120fb565b6001811161250a57506124f3575090565b63e22e27eb60e01b5f52600452601460245260445ffd5b90600f81166010811015611f7d5761254d91612547916f181899199a1a9b1b9c1cb0b131b232b360811b901a612540858861247f565b5360041c90565b91612490565b6124e2565b81511561255f5760a00152565b63fe936cb760e01b5f5260045ffd5b6040519061257d60408361032b565b600c82526b31b7b232a637b1b0ba34b7b760a11b6020830152565b634e487b7160e01b5f52602160045260245ffd5b600311156125b657565b612598565b604051906125ca60408361032b565b60088252676c616e677561676560c01b6020830152565b600111156125b657565b604051906125fa60408361032b565b6006825265736f7572636560d01b6020830152565b6040519061261e60408361032b565b60048252636172677360e01b6020830152565b6040519061264060408361032b565b600f82526e39b2b1b932ba39a637b1b0ba34b7b760891b6020830152565b6040519061266d60408361032b565b60078252667365637265747360c81b6020830152565b6040519061269260408361032b565b600982526862797465734172677360b81b6020830152565b6126b2612cba565b906126c46126be61256e565b83612cea565b6126e181516126d2816125ac565b6126db816125ac565b83612dd3565b6126ec6126be6125bb565b61270660408201516126fd816125e1565b6126db816125e1565b6127116126be6125eb565b61271f606082015183612cea565b60a0810180515161281b575b50608081019081515161279e575b60c091500180515161274c575b50515190565b916127586126be612683565b61276182612e00565b5f5b8351805182101561278b579061278561277e82600194611f92565b5185612e44565b01612763565b5050915061279881612e22565b5f612746565b6020810180516127ad816125ac565b6127b6816125ac565b1561280c5760c0926127ef612807926127d66127d0612631565b88612cea565b516127e0816125ac565b6127e9816125ac565b86612dd3565b6128006127fa61265e565b86612cea565b5184612e44565b612739565b63a80d31f760e01b5f5260045ffd5b9261282d61282761260f565b84612cea565b61283683612e00565b5f5b84518051821015612860579061285a61285382600194611f92565b5186612cea565b01612838565b5050925061286d82612e22565b5f61272b565b92906020926001600160401b039263ffffffff6128b2604051978896879663230e93b160e11b885216600487015260a0602487015260a4860190612136565b6001604486015292166064840152608483015203815f7f00000000000000000000000000000000000000000000000000000000000000006001600160a01b03165af19081156109dd575f9161292b575b50807f1131472297a800fee664d1d89cfa8f7676ff07189ecc53f80bbb5f4969099db85f80a290565b612944915060203d6020116109d6576109c8818361032b565b5f612902565b3580151581036103be5790565b600160ff1b81146120f6575f0390565b356103dd81612366565b604051906060612981818461032b565b6002835261035b90601f190160208401611f2f565b60a0906103dd939281525f60208201525f60408201525f60608201528160808201520190612136565b356103dd81610684565b906129dc90604083526040830190612136565b906020818303910152815180825260208201916020808360051b8301019401925f915b838310612a0e57505050505090565b9091929394602080612a2c600193601f198682030187528951612136565b970193019301919392906129ff565b6001600160801b036601c6bf52633fff19911601906001600160801b0382116120f657565b906001600160801b03809116911603906001600160801b0382116120f657565b91908260409103126103be57604051612a98816102f5565b6020808294805184520151910152565b906040828203126103be576103dd91612a80565b906020909392936040835263ffffffff81511660408401528181015160608401526080612b10612afa604084015160a08488015260e0870190612136565b6060840151868203603f190160a0880152612136565b910151151560c08401526001600160a01b03909416910152565b906001600160801b03809116911601906001600160801b0382116120f657565b92949390612b7c606093612b6e6001600160801b0393608088526080880190612136565b908682036020880152612136565b951660408401526001600160a01b0316910152565b60405190612b9e82610310565b815f81525f60208201526040805191612bb6836102f5565b5f83525f60208401520152565b906080828203126103be57612bfd906040805193612be085610310565b805185526020810151612bf281611a84565b602086015201612a80565b604082015290565b5f80809381935af13d15612c77573d612c1d8161036d565b90612c2b604051928361032b565b81525f60203d92013e5b15612c3c57565b60405162461bcd60e51b8152602060048201526013602482015272115512081d1c985b9cd9995c8819985a5b1959606a1b6044820152606490fd5b612c35565b815115612c92575f808252604082015260600152565b6322ce3edd60e01b5f5260045ffd5b60405190612cae826102f5565b5f602083606081520152565b604051612cc6816102f5565b5f612ccf612ca1565b808352612ce56101006020850192848452613155565b505290565b8151612d3b9291906001600160401b031660178111612d3e578151612d2691612d2090612d1960605b60ff1690565b1760ff1690565b906132d5565b505b5190612d32612ca1565b5080519161379c565b50565b60ff8111612d6b578151612d659190612d5d90601860605b17906132d5565b50825161371c565b50612d28565b61ffff8111612d90578151612d659190612d889060196060612d56565b5082516136a3565b63ffffffff8111612db7578151612d659190612daf90601a6060612d56565b50825161362a565b8151612d659190612dcb90601b6060612d56565b5082516135ac565b9061035b91612de28151613265565b5060405191602083015260208252612dfb60408361032b565b612e44565b602090612e0f609f82516132d5565b5001805190600182018092116120f65752565b602090612e3160ff82516132d5565b500180515f198101919082116120f65752565b8151612d3b9291906001600160401b031660178111612e71578151612d2691612d2090612d196040612d13565b60ff8111612e8d578151612d659190612d5d9060186040612d56565b61ffff8111612eaa578151612d659190612d889060196040612d56565b63ffffffff8111612ec9578151612d659190612daf90601a6040612d56565b8151612d659190612dcb90601b6040612d56565b6001600160a01b038116612ef057504790565b6040516370a0823160e01b815230600482015290602090829060249082906001600160a01b03165afa9081156109dd575f91612f2a575090565b6103dd915060203d6020116109d6576109c8818361032b565b6001600160a01b038116612f7157505f808080612f639461dead5af11590565b612f6957565b61dead6133ad565b906040519063a9059cbb60e01b825261dead600483015260248201525f604060208260448582885af13d15601f3d11600185511416171692828152826020820152015215612fbc5750565b6001600160a01b0316613340565b604051600360f01b6020820152600281526103dd60228261032b565b90600361ffff612ff584613416565b1603613063576103dd91906001600160801b0381166130325750604051613d0960851b60208201526010815261302c60308261032b565b90613474565b60405190613d0960851b60208301526001600160801b03199060801b1660308201526020815261302c60408261032b565b61ffff61306f83613416565b633a51740d60e01b5f521660045260245ffd5b80340361308c5790565b6304fb820960e51b5f523460045260245ffd5b60405163393f876560e21b81527f00000000000000000000000000000000000000000000000000000000000000006001600160a01b03169190602081600481865afa9081156109dd575f9161311a575b506001600160a01b031691821561310b5761035b923390613506565b6329b99a9560e11b5f5260045ffd5b90506020813d60201161314d575b816131356020938361032b565b810103126103be575161314781610684565b5f6130ef565b3d9150613128565b9061315e612ca1565b50601f81168061318c575b50806020830152604051908183525f825281016020019081106103be5760405290565b602003602081116120f65781018091116120f6575f613169565b906131af612ca1565b5080516131ba612ca1565b506131c88251821115613795565b825151916131d68284612117565b906020850151821161324e575b602091855183815196820101958211613246575b505001905b6020811015613220575f19906020036101000a019081199051169082511617905290565b909161323b6132356132419285518152612109565b93612109565b916122d8565b6131fc565b525f806131f7565b61326061325a83612243565b86613841565b6131e3565b61326d612ca1565b5080515160018101908181116120f65760208301518110156132a6575b60c2602084519283010153805182116132a257505090565b5290565b8160011b828104600214831517156120f6576132cf906132c885519186613155565b50846131a6565b5061328a565b906132de612ca1565b5081515160018101918282116120f6576020840151821015613311575b602084519283010153805182116132a257505090565b8260011b838104600214841517156120f65761333a9061333386519187613155565b50856131a6565b506132fb565b6040516390bfb86560e01b81526001600160a01b03909116600482015263a9059cbb60e01b60248201526080604482015260a03d601f01601f191690810160648301523d60848301523d5f60a484013e808201600460a482015260c4633c9fd93960e21b91015260e40190fd5b6040516390bfb86560e01b81526001600160a01b0390911660048201525f602482018190526080604483015260a03d601f01601f191690810160648401523d6084840152903d9060a484013e808201600460a482015260c4633d2cec6f60e21b91015260e40190fd5b6002815110613426576002015190565b60405162461bcd60e51b8152602060048201526014602482015273746f55696e7431365f6f75744f66426f756e647360601b6044820152606490fd5b805191908290602001825e015f815290565b90600361ffff61348384613416565b160361306357805161ffff81116134ef5761ffff60019116019161ffff83116120f65761127a6103dd9260046134c3956040519687956020870190613462565b600160f81b80825260f09290921b6001600160f01b031916600182015260038101919091520190613462565b6306dfcc6560e41b5f52601060045260245260445ffd5b6040516323b872dd60e01b60208083019182526001600160a01b039485166024840152949093166044820152606480820195909552938452925f919061354d60848261032b565b519082855af115611ff6575f513d61359457506001600160a01b0381163b155b6135745750565b635274afe760e01b5f9081526001600160a01b0391909116600452602490fd5b6001141561356d565b601f81116120f6576101000a90565b906135b5612ca1565b508151518060080191826008116120f65760208401518311613602575b6135e46135df600861359d565b6122ca565b9060088551938401019119825116179052805182116132a257505090565b8260011b838104600214841517156120f6576136249061333386519187613155565b506135d2565b90613633612ca1565b508151518060040191826004116120f6576020840151831161367b575b61365d6135df600461359d565b9060048551938401019119825116179052805182116132a257505090565b8260011b838104600214841517156120f65761369d9061333386519187613155565b50613650565b906136ac612ca1565b508151518060020191826002116120f657602084015183116136f4575b6136d66135df600261359d565b9060028551938401019119825116179052805182116132a257505090565b8260011b838104600214841517156120f6576137169061333386519187613155565b506136c9565b90613725612ca1565b508151518060010191826001116120f6576020840151831161376d575b61374f6135df600161359d565b9060018551938401019119825116179052805182116132a257505090565b8260011b838104600214841517156120f65761378f9061333386519187613155565b50613742565b156103be57565b916137a5612ca1565b506137b38251821115613795565b6020835151926137c38385612117565b82860151811161382a575b855183815196820101958211613822575b505001905b6020811015613808575f19906020036101000a019081199051169082511617905290565b909161323b61323561381d9285518152612109565b6137e4565b525f806137df565b61383c61383682612243565b87613841565b6137ce565b90612d3b9161385281519282613155565b506131a656fea26469706673582212206e9aeda1ec2998737fbafe2a5353a37311dde8cc103dca601d2a15a0f046350564736f6c634300081a00331b6847dc741a1b0cd08d278845f9d819d87b734759afb55fe2de5cb82a9ae672","linkReferences":{}},"methodIdentifiers":{"afterAddLiquidity(address,(address,address,uint24,int24,address),(int24,int24,int256,bytes32),int256,int256,bytes)":"9f063efc","afterDonate(address,(address,address,uint24,int24,address),uint256,uint256,bytes)":"e1b4af69","afterInitialize(address,(address,address,uint24,int24,address),uint160,int24)":"6fe7e6eb","afterRemoveLiquidity(address,(address,address,uint24,int24,address),(int24,int24,int256,bytes32),int256,int256,bytes)":"6c2bbe7e","afterSwap(address,(address,address,uint24,int24,address),(bool,int256,uint160),int256,bytes)":"b47b2fb1","allowInitializePath((uint32,bytes32,uint64))":"ff7bd03d","beforeAddLiquidity(address,(address,address,uint24,int24,address),(int24,int24,int256,bytes32),bytes)":"259982e5","beforeDonate(address,(address,address,uint24,int24,address),uint256,uint256,bytes)":"b6a8b0fa","beforeInitialize(address,(address,address,uint24,int24,address),uint160)":"dc98354e","beforeRemoveLiquidity(address,(address,address,uint24,int24,address),(int24,int24,int256,bytes32),bytes)":"21d0ee70","beforeSwap(address,(address,address,uint24,int24,address),(bool,int256,uint160),bytes)":"575e24b4","endpoint()":"5e280f11","getHookPermissions()":"c4e833ce","handleOracleFulfillment(bytes32,bytes,bytes)":"0ca76175","isComposeMsgSender((uint32,bytes32,uint64),bytes,address)":"82413eac","lzReceive((uint32,bytes32,uint64),bytes32,bytes,address,bytes)":"13137d65","minWithdraw()":"cc3d2721","nextNonce(uint32,bytes32)":"7d25a05e","oAppVersion()":"17442b70","owner()":"8da5cb5b","peers(uint32)":"bb0b6a53","poolIdToTokenId(bytes32)":"e04bc0fa","poolIds(uint256)":"69883b4e","poolManager()":"dc4c90d3","renounceOwnership()":"715018a6","requestIdToSender(bytes32)":"219c0eee","sendCrossChain(bytes,bytes,uint256,address)":"f8ad9a6d","setDelegate(address)":"ca5eb5e1","setMinWithdraw(uint256)":"35aa134a","setPeer(uint32,bytes32)":"3400288b","setSource(string)":"99d25455","setSubscriptionId(uint64)":"ea7b4f77","setvMooneyAddress(address)":"90b0f155","totalReceived()":"a3c2c462","totalWithdrawn()":"4b319713","totalWithdrawnPerUser(address)":"c41b613f","transferOwnership(address)":"f2fde38b","transferPosition(address,bytes32)":"ec5c4962","transferredPoolIds(uint256)":"264e78e4","uncollectedFees(bytes32)":"763cef93","vMooneyAddress()":"543e617f","withdrawFees()":"476343ee"},"id":204}