{"abi":[{"type":"constructor","inputs":[{"name":"owner","type":"address","internalType":"address"},{"name":"_poolManager","type":"address","internalType":"contract IPoolManager"},{"name":"_posm","type":"address","internalType":"contract IPositionManager"},{"name":"_vMooneyAddress","type":"address","internalType":"address"}],"stateMutability":"nonpayable"},{"type":"fallback","stateMutability":"payable"},{"type":"receive","stateMutability":"payable"},{"type":"function","name":"afterAddLiquidity","inputs":[{"name":"sender","type":"address","internalType":"address"},{"name":"key","type":"tuple","internalType":"struct PoolKey","components":[{"name":"currency0","type":"address","internalType":"Currency"},{"name":"currency1","type":"address","internalType":"Currency"},{"name":"fee","type":"uint24","internalType":"uint24"},{"name":"tickSpacing","type":"int24","internalType":"int24"},{"name":"hooks","type":"address","internalType":"contract IHooks"}]},{"name":"params","type":"tuple","internalType":"struct IPoolManager.ModifyLiquidityParams","components":[{"name":"tickLower","type":"int24","internalType":"int24"},{"name":"tickUpper","type":"int24","internalType":"int24"},{"name":"liquidityDelta","type":"int256","internalType":"int256"},{"name":"salt","type":"bytes32","internalType":"bytes32"}]},{"name":"delta","type":"int256","internalType":"BalanceDelta"},{"name":"feesAccrued","type":"int256","internalType":"BalanceDelta"},{"name":"hookData","type":"bytes","internalType":"bytes"}],"outputs":[{"name":"","type":"bytes4","internalType":"bytes4"},{"name":"","type":"int256","internalType":"BalanceDelta"}],"stateMutability":"nonpayable"},{"type":"function","name":"afterDonate","inputs":[{"name":"sender","type":"address","internalType":"address"},{"name":"key","type":"tuple","internalType":"struct PoolKey","components":[{"name":"currency0","type":"address","internalType":"Currency"},{"name":"currency1","type":"address","internalType":"Currency"},{"name":"fee","type":"uint24","internalType":"uint24"},{"name":"tickSpacing","type":"int24","internalType":"int24"},{"name":"hooks","type":"address","internalType":"contract IHooks"}]},{"name":"amount0","type":"uint256","internalType":"uint256"},{"name":"amount1","type":"uint256","internalType":"uint256"},{"name":"hookData","type":"bytes","internalType":"bytes"}],"outputs":[{"name":"","type":"bytes4","internalType":"bytes4"}],"stateMutability":"nonpayable"},{"type":"function","name":"afterInitialize","inputs":[{"name":"sender","type":"address","internalType":"address"},{"name":"key","type":"tuple","internalType":"struct PoolKey","components":[{"name":"currency0","type":"address","internalType":"Currency"},{"name":"currency1","type":"address","internalType":"Currency"},{"name":"fee","type":"uint24","internalType":"uint24"},{"name":"tickSpacing","type":"int24","internalType":"int24"},{"name":"hooks","type":"address","internalType":"contract IHooks"}]},{"name":"sqrtPriceX96","type":"uint160","internalType":"uint160"},{"name":"tick","type":"int24","internalType":"int24"}],"outputs":[{"name":"","type":"bytes4","internalType":"bytes4"}],"stateMutability":"nonpayable"},{"type":"function","name":"afterRemoveLiquidity","inputs":[{"name":"sender","type":"address","internalType":"address"},{"name":"key","type":"tuple","internalType":"struct PoolKey","components":[{"name":"currency0","type":"address","internalType":"Currency"},{"name":"currency1","type":"address","internalType":"Currency"},{"name":"fee","type":"uint24","internalType":"uint24"},{"name":"tickSpacing","type":"int24","internalType":"int24"},{"name":"hooks","type":"address","internalType":"contract IHooks"}]},{"name":"params","type":"tuple","internalType":"struct IPoolManager.ModifyLiquidityParams","components":[{"name":"tickLower","type":"int24","internalType":"int24"},{"name":"tickUpper","type":"int24","internalType":"int24"},{"name":"liquidityDelta","type":"int256","internalType":"int256"},{"name":"salt","type":"bytes32","internalType":"bytes32"}]},{"name":"delta","type":"int256","internalType":"BalanceDelta"},{"name":"feesAccrued","type":"int256","internalType":"BalanceDelta"},{"name":"hookData","type":"bytes","internalType":"bytes"}],"outputs":[{"name":"","type":"bytes4","internalType":"bytes4"},{"name":"","type":"int256","internalType":"BalanceDelta"}],"stateMutability":"nonpayable"},{"type":"function","name":"afterSwap","inputs":[{"name":"sender","type":"address","internalType":"address"},{"name":"key","type":"tuple","internalType":"struct PoolKey","components":[{"name":"currency0","type":"address","internalType":"Currency"},{"name":"currency1","type":"address","internalType":"Currency"},{"name":"fee","type":"uint24","internalType":"uint24"},{"name":"tickSpacing","type":"int24","internalType":"int24"},{"name":"hooks","type":"address","internalType":"contract IHooks"}]},{"name":"params","type":"tuple","internalType":"struct IPoolManager.SwapParams","components":[{"name":"zeroForOne","type":"bool","internalType":"bool"},{"name":"amountSpecified","type":"int256","internalType":"int256"},{"name":"sqrtPriceLimitX96","type":"uint160","internalType":"uint160"}]},{"name":"delta","type":"int256","internalType":"BalanceDelta"},{"name":"hookData","type":"bytes","internalType":"bytes"}],"outputs":[{"name":"","type":"bytes4","internalType":"bytes4"},{"name":"","type":"int128","internalType":"int128"}],"stateMutability":"nonpayable"},{"type":"function","name":"balanceOf","inputs":[],"outputs":[{"name":"","type":"uint256","internalType":"uint256"}],"stateMutability":"view"},{"type":"function","name":"beforeAddLiquidity","inputs":[{"name":"sender","type":"address","internalType":"address"},{"name":"key","type":"tuple","internalType":"struct PoolKey","components":[{"name":"currency0","type":"address","internalType":"Currency"},{"name":"currency1","type":"address","internalType":"Currency"},{"name":"fee","type":"uint24","internalType":"uint24"},{"name":"tickSpacing","type":"int24","internalType":"int24"},{"name":"hooks","type":"address","internalType":"contract IHooks"}]},{"name":"params","type":"tuple","internalType":"struct IPoolManager.ModifyLiquidityParams","components":[{"name":"tickLower","type":"int24","internalType":"int24"},{"name":"tickUpper","type":"int24","internalType":"int24"},{"name":"liquidityDelta","type":"int256","internalType":"int256"},{"name":"salt","type":"bytes32","internalType":"bytes32"}]},{"name":"hookData","type":"bytes","internalType":"bytes"}],"outputs":[{"name":"","type":"bytes4","internalType":"bytes4"}],"stateMutability":"nonpayable"},{"type":"function","name":"beforeDonate","inputs":[{"name":"sender","type":"address","internalType":"address"},{"name":"key","type":"tuple","internalType":"struct PoolKey","components":[{"name":"currency0","type":"address","internalType":"Currency"},{"name":"currency1","type":"address","internalType":"Currency"},{"name":"fee","type":"uint24","internalType":"uint24"},{"name":"tickSpacing","type":"int24","internalType":"int24"},{"name":"hooks","type":"address","internalType":"contract IHooks"}]},{"name":"amount0","type":"uint256","internalType":"uint256"},{"name":"amount1","type":"uint256","internalType":"uint256"},{"name":"hookData","type":"bytes","internalType":"bytes"}],"outputs":[{"name":"","type":"bytes4","internalType":"bytes4"}],"stateMutability":"nonpayable"},{"type":"function","name":"beforeInitialize","inputs":[{"name":"sender","type":"address","internalType":"address"},{"name":"key","type":"tuple","internalType":"struct PoolKey","components":[{"name":"currency0","type":"address","internalType":"Currency"},{"name":"currency1","type":"address","internalType":"Currency"},{"name":"fee","type":"uint24","internalType":"uint24"},{"name":"tickSpacing","type":"int24","internalType":"int24"},{"name":"hooks","type":"address","internalType":"contract IHooks"}]},{"name":"sqrtPriceX96","type":"uint160","internalType":"uint160"}],"outputs":[{"name":"","type":"bytes4","internalType":"bytes4"}],"stateMutability":"nonpayable"},{"type":"function","name":"beforeRemoveLiquidity","inputs":[{"name":"sender","type":"address","internalType":"address"},{"name":"key","type":"tuple","internalType":"struct PoolKey","components":[{"name":"currency0","type":"address","internalType":"Currency"},{"name":"currency1","type":"address","internalType":"Currency"},{"name":"fee","type":"uint24","internalType":"uint24"},{"name":"tickSpacing","type":"int24","internalType":"int24"},{"name":"hooks","type":"address","internalType":"contract IHooks"}]},{"name":"params","type":"tuple","internalType":"struct IPoolManager.ModifyLiquidityParams","components":[{"name":"tickLower","type":"int24","internalType":"int24"},{"name":"tickUpper","type":"int24","internalType":"int24"},{"name":"liquidityDelta","type":"int256","internalType":"int256"},{"name":"salt","type":"bytes32","internalType":"bytes32"}]},{"name":"hookData","type":"bytes","internalType":"bytes"}],"outputs":[{"name":"","type":"bytes4","internalType":"bytes4"}],"stateMutability":"nonpayable"},{"type":"function","name":"beforeSwap","inputs":[{"name":"sender","type":"address","internalType":"address"},{"name":"key","type":"tuple","internalType":"struct PoolKey","components":[{"name":"currency0","type":"address","internalType":"Currency"},{"name":"currency1","type":"address","internalType":"Currency"},{"name":"fee","type":"uint24","internalType":"uint24"},{"name":"tickSpacing","type":"int24","internalType":"int24"},{"name":"hooks","type":"address","internalType":"contract IHooks"}]},{"name":"params","type":"tuple","internalType":"struct IPoolManager.SwapParams","components":[{"name":"zeroForOne","type":"bool","internalType":"bool"},{"name":"amountSpecified","type":"int256","internalType":"int256"},{"name":"sqrtPriceLimitX96","type":"uint160","internalType":"uint160"}]},{"name":"hookData","type":"bytes","internalType":"bytes"}],"outputs":[{"name":"","type":"bytes4","internalType":"bytes4"},{"name":"","type":"int256","internalType":"BeforeSwapDelta"},{"name":"","type":"uint24","internalType":"uint24"}],"stateMutability":"nonpayable"},{"type":"function","name":"checkIn","inputs":[],"outputs":[],"stateMutability":"nonpayable"},{"type":"function","name":"checkedIn","inputs":[{"name":"","type":"uint256","internalType":"uint256"}],"outputs":[{"name":"","type":"address","internalType":"address"}],"stateMutability":"view"},{"type":"function","name":"distributeFees","inputs":[],"outputs":[],"stateMutability":"nonpayable"},{"type":"function","name":"getCheckedInCount","inputs":[],"outputs":[{"name":"","type":"uint256","internalType":"uint256"}],"stateMutability":"view"},{"type":"function","name":"getHookPermissions","inputs":[],"outputs":[{"name":"","type":"tuple","internalType":"struct Hooks.Permissions","components":[{"name":"beforeInitialize","type":"bool","internalType":"bool"},{"name":"afterInitialize","type":"bool","internalType":"bool"},{"name":"beforeAddLiquidity","type":"bool","internalType":"bool"},{"name":"afterAddLiquidity","type":"bool","internalType":"bool"},{"name":"beforeRemoveLiquidity","type":"bool","internalType":"bool"},{"name":"afterRemoveLiquidity","type":"bool","internalType":"bool"},{"name":"beforeSwap","type":"bool","internalType":"bool"},{"name":"afterSwap","type":"bool","internalType":"bool"},{"name":"beforeDonate","type":"bool","internalType":"bool"},{"name":"afterDonate","type":"bool","internalType":"bool"},{"name":"beforeSwapReturnDelta","type":"bool","internalType":"bool"},{"name":"afterSwapReturnDelta","type":"bool","internalType":"bool"},{"name":"afterAddLiquidityReturnDelta","type":"bool","internalType":"bool"},{"name":"afterRemoveLiquidityReturnDelta","type":"bool","internalType":"bool"}]}],"stateMutability":"pure"},{"type":"function","name":"lastCheckIn","inputs":[{"name":"","type":"address","internalType":"address"}],"outputs":[{"name":"","type":"uint256","internalType":"uint256"}],"stateMutability":"view"},{"type":"function","name":"minWithdraw","inputs":[],"outputs":[{"name":"","type":"uint256","internalType":"uint256"}],"stateMutability":"view"},{"type":"function","name":"owner","inputs":[],"outputs":[{"name":"","type":"address","internalType":"address"}],"stateMutability":"view"},{"type":"function","name":"poolIdToTokenId","inputs":[{"name":"","type":"bytes32","internalType":"PoolId"}],"outputs":[{"name":"","type":"uint256","internalType":"uint256"}],"stateMutability":"view"},{"type":"function","name":"poolIds","inputs":[{"name":"","type":"uint256","internalType":"uint256"}],"outputs":[{"name":"","type":"bytes32","internalType":"bytes32"}],"stateMutability":"view"},{"type":"function","name":"poolManager","inputs":[],"outputs":[{"name":"","type":"address","internalType":"contract IPoolManager"}],"stateMutability":"view"},{"type":"function","name":"renounceOwnership","inputs":[],"outputs":[],"stateMutability":"nonpayable"},{"type":"function","name":"setMinWithdraw","inputs":[{"name":"_minWithdraw","type":"uint256","internalType":"uint256"}],"outputs":[],"stateMutability":"nonpayable"},{"type":"function","name":"setvMooneyAddress","inputs":[{"name":"_vMooneyAddress","type":"address","internalType":"address"}],"outputs":[],"stateMutability":"nonpayable"},{"type":"function","name":"totalReceived","inputs":[],"outputs":[{"name":"","type":"uint256","internalType":"uint256"}],"stateMutability":"view"},{"type":"function","name":"transferOwnership","inputs":[{"name":"newOwner","type":"address","internalType":"address"}],"outputs":[],"stateMutability":"nonpayable"},{"type":"function","name":"transferPosition","inputs":[{"name":"to","type":"address","internalType":"address"},{"name":"poolId","type":"bytes32","internalType":"bytes32"}],"outputs":[],"stateMutability":"nonpayable"},{"type":"function","name":"transferredPoolIds","inputs":[{"name":"","type":"uint256","internalType":"uint256"}],"outputs":[{"name":"","type":"bytes32","internalType":"bytes32"}],"stateMutability":"view"},{"type":"function","name":"uncollectedFees","inputs":[{"name":"","type":"bytes32","internalType":"PoolId"}],"outputs":[{"name":"","type":"uint256","internalType":"uint256"}],"stateMutability":"view"},{"type":"function","name":"vMooneyAddress","inputs":[],"outputs":[{"name":"","type":"address","internalType":"address"}],"stateMutability":"view"},{"type":"function","name":"weekStart","inputs":[],"outputs":[{"name":"","type":"uint256","internalType":"uint256"}],"stateMutability":"view"},{"type":"event","name":"CheckedIn","inputs":[{"name":"user","type":"address","indexed":true,"internalType":"address"},{"name":"weekStart","type":"uint256","indexed":false,"internalType":"uint256"}],"anonymous":false},{"type":"event","name":"FeesDistributed","inputs":[{"name":"amount","type":"uint256","indexed":false,"internalType":"uint256"}],"anonymous":false},{"type":"event","name":"OwnershipTransferred","inputs":[{"name":"previousOwner","type":"address","indexed":true,"internalType":"address"},{"name":"newOwner","type":"address","indexed":true,"internalType":"address"}],"anonymous":false},{"type":"error","name":"HookNotImplemented","inputs":[]},{"type":"error","name":"NotPoolManager","inputs":[]},{"type":"error","name":"OwnableInvalidOwner","inputs":[{"name":"owner","type":"address","internalType":"address"}]},{"type":"error","name":"OwnableUnauthorizedAccount","inputs":[{"name":"account","type":"address","internalType":"address"}]}],"bytecode":{"object":"0x60a0604052346100825761001d6100146101cd565b9291909161033d565b610025610087565b613964610d568239608051818181610f5b0152818161153b015281816115ba01528181611685015281816117160152818161179e01528181611936015281816119df01528181611a890152818161244701526124bd015261396490f35b61008d565b60405190565b5f80fd5b601f801991011690565b634e487b7160e01b5f52604160045260245ffd5b906100b990610091565b810190811060018060401b038211176100d157604052565b61009b565b906100e96100e2610087565b92836100af565b565b5f80fd5b60018060a01b031690565b610103906100ef565b90565b61010f816100fa565b0361011657565b5f80fd5b9050519061012782610106565b565b610132906100fa565b90565b61013e81610129565b0361014557565b5f80fd5b9050519061015682610135565b565b610161906100fa565b90565b61016d81610158565b0361017457565b5f80fd5b9050519061018582610164565b565b6080818303126101c85761019d825f830161011a565b926101c56101ae8460208501610149565b936101bc8160408601610178565b9360600161011a565b90565b6100eb565b6101eb6146ba803803806101e0816100d6565b928339810190610187565b90919293565b5f1b90565b906102025f19916101f1565b9181191691161790565b90565b90565b90565b61022961022461022e9261020c565b610212565b61020f565b90565b90565b9061024961024461025092610215565b610231565b82546101f6565b9055565b9061026560018060a01b03916101f1565b9181191691161790565b61028361027e610288926100ef565b610212565b6100ef565b90565b6102949061026f565b90565b6102a09061028b565b90565b90565b906102bb6102b66102c292610297565b6102a3565b8254610254565b9055565b6102cf9061026f565b90565b6102db906102c6565b90565b90565b906102f66102f16102fd926102d2565b6102de565b8254610254565b9055565b61031561031061031a9261020f565b610212565b61020f565b90565b9061033261032d61033992610301565b610231565b82546101f6565b9055565b9161034f6103689261036f95946103c9565b610361662386f26fc100006006610234565b60056102a6565b60076102e1565b61037a42600961031d565b565b90565b61039361038e6103989261037c565b610212565b6100ef565b90565b6103a49061037f565b90565b6103b0906100fa565b9052565b91906103c7905f602085019401906103a7565b565b906103d390610425565b806103ee6103e86103e35f61039b565b6100fa565b916100fa565b146103fe576103fc9061047f565b565b61042161040a5f61039b565b5f918291631e4fbdf760e01b8352600483016103b4565b0390fd5b61042e90610430565b565b61043990610444565b610442306104f6565b565b608052565b5f1c90565b60018060a01b031690565b61046561046a91610449565b61044e565b90565b6104779054610459565b90565b5f0190565b6104885f61046d565b610492825f6102e1565b906104c66104c07f8be0079c531659141344cd1fd0a4f28419497f9722a3daafe3b4186f6b6457e0936102d2565b916102d2565b916104cf610087565b806104d98161047a565b0390a3565b6104e79061026f565b90565b6104f3906104de565b90565b6105109061050b610505610607565b916104ea565b610983565b565b61051d6101c06100d6565b90565b5f90565b6020908180808080808080808080808061053c610512565b9e8f610546610520565b815201610551610520565b81520161055c610520565b815201610567610520565b815201610572610520565b81520161057d610520565b815201610588610520565b815201610593610520565b81520161059e610520565b8152016105a9610520565b8152016105b4610520565b8152016105bf610520565b8152016105ca610520565b8152016105d5610520565b81525050565b6105e3610524565b90565b6105f16101c06100d6565b90565b151590565b90610603906105f4565b9052565b61060f6105db565b505f8060015f805f8060015f915f935f956001975f995f9b61062f6105e6565b809e5f82019061063e916105f9565b6020019061064b916105f9565b60408d0190610659916105f9565b60608c0190610667916105f9565b60808b0190610675916105f9565b60a08a0190610683916105f9565b60c0890190610691916105f9565b60e088019061069f916105f9565b6101008701906106ae916105f9565b6101208601906106bd916105f9565b6101408501906106cc916105f9565b6101608401906106db916105f9565b6101808301906106ea916105f9565b6101a08201906106f9916105f9565b90565b61070690516105f4565b90565b90565b61072061071b61072592610709565b610212565b6100ef565b90565b61073361200061070c565b90565b90565b61074d61074861075292610736565b610212565b6100ef565b90565b610760611000610739565b90565b90565b61077a61077561077f92610763565b610212565b6100ef565b90565b61078d610800610766565b90565b90565b6107a76107a26107ac92610790565b610212565b6100ef565b90565b6107ba610400610793565b90565b90565b6107d46107cf6107d9926107bd565b610212565b6100ef565b90565b6107e76102006107c0565b90565b90565b6108016107fc610806926107ea565b610212565b6100ef565b90565b6108146101006107ed565b90565b90565b61082e61082961083392610817565b610212565b6100ef565b90565b610840608061081a565b90565b90565b61085a61085561085f92610843565b610212565b6100ef565b90565b61086c6040610846565b90565b90565b61088661088161088b9261086f565b610212565b6100ef565b90565b6108986020610872565b90565b90565b6108b26108ad6108b79261089b565b610212565b6100ef565b90565b6108c4601061089e565b90565b90565b6108de6108d96108e3926108c7565b610212565b6100ef565b90565b6108f060086108ca565b90565b90565b61090a61090561090f926108f3565b610212565b6100ef565b90565b61091c60046108f6565b90565b90565b61093661093161093b9261091f565b610212565b6100ef565b90565b6109486002610922565b90565b90565b61096261095d6109679261094b565b610212565b6100ef565b90565b610974600161094e565b90565b610980906102c6565b90565b9061098f5f82016106fc565b6109b26109ac6109a7856109a1610728565b90610d11565b6105f4565b916105f4565b14158015610cca575b8015610c93575b8015610c5c575b8015610c25575b8015610bee575b8015610bb7575b8015610b80575b8015610b48575b8015610b10575b8015610ad8575b8015610aa0575b8015610a68575b908115610a2f575b50610a185750565b610a29630732d7b560e51b91610977565b90610d43565b610a3d91506101a0016106fc565b610a60610a5a610a5584610a4f61096a565b90610d11565b6105f4565b916105f4565b14155f610a10565b50610a7661018082016106fc565b610a99610a93610a8e85610a8861093e565b90610d11565b6105f4565b916105f4565b1415610a08565b50610aae61016082016106fc565b610ad1610acb610ac685610ac0610912565b90610d11565b6105f4565b916105f4565b1415610a01565b50610ae661014082016106fc565b610b09610b03610afe85610af86108e6565b90610d11565b6105f4565b916105f4565b14156109fa565b50610b1e61012082016106fc565b610b41610b3b610b3685610b306108ba565b90610d11565b6105f4565b916105f4565b14156109f3565b50610b5661010082016106fc565b610b79610b73610b6e85610b6861088e565b90610d11565b6105f4565b916105f4565b14156109ec565b50610b8d60e082016106fc565b610bb0610baa610ba585610b9f610862565b90610d11565b6105f4565b916105f4565b14156109e5565b50610bc460c082016106fc565b610be7610be1610bdc85610bd6610836565b90610d11565b6105f4565b916105f4565b14156109de565b50610bfb60a082016106fc565b610c1e610c18610c1385610c0d610809565b90610d11565b6105f4565b916105f4565b14156109d7565b50610c32608082016106fc565b610c55610c4f610c4a85610c446107dc565b90610d11565b6105f4565b916105f4565b14156109d0565b50610c69606082016106fc565b610c8c610c86610c8185610c7b6107af565b90610d11565b6105f4565b916105f4565b14156109c9565b50610ca0604082016106fc565b610cc3610cbd610cb885610cb2610782565b90610d11565b6105f4565b916105f4565b14156109c2565b50610cd7602082016106fc565b610cfa610cf4610cef85610ce9610755565b90610d11565b6105f4565b916105f4565b14156109bb565b5f90565b610d0e9061026f565b90565b610d26610d2b91610d20610d01565b50610977565b610d05565b16610d3e610d385f61037f565b916100ef565b141590565b5f5260018060a01b031660045260245ffdfe60806040526004361015610028575b361561001e5761001c6128d6565b005b6100266128b7565b005b6100325f35610231565b8063020865961461022c578063183ff0851461022757806321d0ee7014610222578063259982e51461021d578063264e78e41461021857806335aa134a146102135780633b6983481461020e578063543e617f14610209578063575e24b41461020457806369883b4e146101ff5780636c2bbe7e146101fa5780636fe7e6eb146101f5578063715018a6146101f0578063722713f7146101eb578063763cef93146101e65780638da5cb5b146101e157806390b0f155146101dc5780639f063efc146101d7578063a3c2c462146101d2578063a76308ad146101cd578063b47b2fb1146101c8578063b6a8b0fa146101c3578063bb57ad20146101be578063c4e833ce146101b9578063cc3d2721146101b4578063dc4c90d3146101af578063dc98354e146101aa578063e04bc0fa146101a5578063e1b4af69146101a0578063ec5c49621461019b578063ef6fdb1c146101965763f2fde38b0361000e576111c0565b61118b565b61111c565b6110ab565b611076565b611042565b610fd3565b610f24565b610ee0565b610d7e565b610d5d565b610cae565b610bd0565b610b9b565b610b6b565b610b38565b610ae5565b610ab0565b6109ff565b6109cc565b6109ae565b6108fa565b610822565b6107d8565b610720565b6106dc565b61064f565b61061a565b610532565b610514565b6103b9565b610370565b60e01c90565b60405190565b5f80fd5b5f80fd5b5f80fd5b90565b61025581610249565b0361025c57565b5f80fd5b9050359061026d8261024c565b565b9060208282031261028857610285915f01610260565b90565b610241565b634e487b7160e01b5f52603260045260245ffd5b5490565b5f5260205f2090565b6102b7816102a1565b8210156102d1576102c96001916102a5565b910201905f90565b61028d565b1c90565b60018060a01b031690565b6102f59060086102fa93026102d6565b6102da565b90565b9061030891546102e5565b90565b600a610316816102a1565b821015610333576103309161032a916102ae565b906102fd565b90565b5f80fd5b60018060a01b031690565b61034b90610337565b90565b61035790610342565b9052565b919061036e905f6020850194019061034e565b565b346103a05761039c61038b61038636600461026f565b61030b565b610393610237565b9182918261035b565b0390f35b61023d565b5f9103126103af57565b610241565b5f0190565b346103e7576103c93660046103a5565b6103d1611439565b6103d9610237565b806103e3816103b4565b0390f35b61023d565b6103f581610342565b036103fc57565b5f80fd5b9050359061040d826103ec565b565b5f80fd5b908160a09103126104215790565b61040f565b908160809103126104345790565b61040f565b5f80fd5b5f80fd5b5f80fd5b909182601f8301121561047f5781359167ffffffffffffffff831161047a57602001926001830284011161047557565b610441565b61043d565b610439565b90610160828203126104e15761049c815f8401610400565b926104aa8260208501610413565b926104b88360c08301610426565b9261014082013567ffffffffffffffff81116104dc576104d89201610445565b9091565b610245565b610241565b63ffffffff60e01b1690565b6104fb906104e6565b9052565b9190610512905f602085019401906104f2565b565b3461052d57610524366004610484565b9392909261159c565b61023d565b3461056657610562610551610548366004610484565b9392909261162e565b610559610237565b918291826104ff565b0390f35b61023d565b5490565b5f5260205f2090565b6105818161056b565b82101561059b5761059360019161056f565b910201905f90565b61028d565b90565b6105b39060086105b893026102d6565b6105a0565b90565b906105c691546105a3565b90565b60026105d48161056b565b8210156105f1576105ee916105e891610578565b906105bb565b90565b5f80fd5b90565b610601906105f5565b9052565b9190610618905f602085019401906105f8565b565b3461064a5761064661063561063036600461026f565b6105c9565b61063d610237565b91829182610605565b0390f35b61023d565b3461067d5761066761066236600461026f565b611666565b61066f610237565b80610679816103b4565b0390f35b61023d565b90565b61069590600861069a93026102d6565b610682565b90565b906106a89154610685565b90565b6106b760095f9061069d565b90565b6106c390610249565b9052565b91906106da905f602085019401906106ba565b565b3461070c576106ec3660046103a5565b6107086106f76106ab565b6106ff610237565b918291826106c7565b0390f35b61023d565b61071d60075f906102fd565b90565b34610750576107303660046103a5565b61074c61073b610711565b610743610237565b9182918261035b565b0390f35b61023d565b908160609103126107635790565b61040f565b90610140828203126107c557610780815f8401610400565b9261078e8260208501610413565b9261079c8360c08301610755565b9261012082013567ffffffffffffffff81116107c0576107bc9201610445565b9091565b610245565b610241565b90565b90565b62ffffff1690565b346107f1576107e8366004610768565b939290926116e8565b61023d565b60016108018161056b565b82101561081e5761081b9161081591610578565b906105bb565b90565b5f80fd5b346108525761084e61083d61083836600461026f565b6107f6565b610845610237565b91829182610605565b0390f35b61023d565b610860816107ca565b0361086757565b5f80fd5b9050359061087882610857565b565b916101a0838303126108f557610892825f8501610400565b926108a08360208301610413565b926108ae8160c08401610426565b926108bd82610140850161086b565b926108cc83610160830161086b565b9261018082013567ffffffffffffffff81116108f0576108ec9201610445565b9091565b610245565b610241565b346109165761090a36600461087a565b9594909493919361177c565b61023d565b61092481610337565b0361092b57565b5f80fd5b9050359061093c8261091b565b565b60020b90565b61094d8161093e565b0361095457565b5f80fd5b9050359061096582610944565b565b610100818303126109a95761097e825f8301610400565b926109a661098f8460208501610413565b9361099d8160c0860161092f565b9360e001610958565b90565b610241565b346109c7576109be366004610967565b929190916117fd565b61023d565b346109fa576109dc3660046103a5565b6109e461185a565b6109ec610237565b806109f6816103b4565b0390f35b61023d565b34610a2f57610a0f3660046103a5565b610a2b610a1a611874565b610a22610237565b918291826106c7565b0390f35b61023d565b610a3d816105f5565b03610a4457565b5f80fd5b90503590610a5582610a34565b565b90602082820312610a7057610a6d915f01610a48565b90565b610241565b610a7e906105f5565b90565b90610a8b90610a75565b5f5260205260405f2090565b610aad90610aa86003915f92610a81565b61069d565b90565b34610ae057610adc610acb610ac6366004610a57565b610a97565b610ad3610237565b918291826106c7565b0390f35b61023d565b34610b1557610af53660046103a5565b610b11610b006118af565b610b08610237565b9182918261035b565b0390f35b61023d565b90602082820312610b3357610b30915f01610400565b90565b610241565b34610b6657610b50610b4b366004610b1a565b61191f565b610b58610237565b80610b62816103b4565b0390f35b61023d565b34610b8757610b7b36600461087a565b9594909493919361199c565b61023d565b610b9860085f9061069d565b90565b34610bcb57610bab3660046103a5565b610bc7610bb6610b8c565b610bbe610237565b918291826106c7565b0390f35b61023d565b34610c0057610be03660046103a5565b610bfc610beb6119b2565b610bf3610237565b918291826106c7565b0390f35b61023d565b91909161016081840312610c7357610c1f835f8301610400565b92610c2d8160208401610413565b92610c3b8260c08501610755565b92610c4a83610120830161086b565b9261014082013567ffffffffffffffff8111610c6e57610c6a9201610445565b9091565b610245565b610241565b600f0b90565b610c8790610c78565b9052565b916020610cac929493610ca560408201965f8301906104f2565b0190610c7e565b565b34610ce657610ccd610cc1366004610c05565b94939093929192611a5a565b90610ce2610cd9610237565b92839283610c8b565b0390f35b61023d565b91909161012081840312610d5857610d05835f8301610400565b92610d138160208401610413565b92610d218260c08501610260565b92610d2f8360e08301610260565b9261010082013567ffffffffffffffff8111610d5357610d4f9201610445565b9091565b610245565b610241565b34610d7957610d6d366004610ceb565b94939093929192611aec565b61023d565b34610dac57610d8e3660046103a5565b610d96611f20565b610d9e610237565b80610da8816103b4565b0390f35b61023d565b151590565b610dbf90610db1565b9052565b906101a080610ec893610ddc5f8201515f860190610db6565b610dee60208201516020860190610db6565b610e0060408201516040860190610db6565b610e1260608201516060860190610db6565b610e2460808201516080860190610db6565b610e3660a082015160a0860190610db6565b610e4860c082015160c0860190610db6565b610e5a60e082015160e0860190610db6565b610e6e610100820151610100860190610db6565b610e82610120820151610120860190610db6565b610e96610140820151610140860190610db6565b610eaa610160820151610160860190610db6565b610ebe610180820151610180860190610db6565b0151910190610db6565b565b9190610ede905f6101c08501940190610dc3565b565b34610f1057610ef03660046103a5565b610f0c610efb612346565b610f03610237565b91829182610eca565b0390f35b61023d565b610f2160065f9061069d565b90565b34610f5457610f343660046103a5565b610f50610f3f610f15565b610f47610237565b918291826106c7565b0390f35b61023d565b7f000000000000000000000000000000000000000000000000000000000000000090565b610f91610f8c610f9692610337565b6107cd565b610337565b90565b610fa290610f7d565b90565b610fae90610f99565b90565b610fba90610fa5565b9052565b9190610fd1905f60208501940190610fb1565b565b3461100357610fe33660046103a5565b610fff610fee610f59565b610ff6610237565b91829182610fbe565b0390f35b61023d565b909160e08284031261103d5761103a611023845f8501610400565b936110318160208601610413565b9360c00161092f565b90565b610241565b3461105857611052366004611008565b916124a4565b61023d565b6110739061106e6004915f92610a81565b61069d565b90565b346110a6576110a261109161108c366004610a57565b61105d565b611099610237565b918291826106c7565b0390f35b61023d565b346110c7576110bb366004610ceb565b94939093929192612520565b61023d565b6110d5816105f5565b036110dc57565b5f80fd5b905035906110ed826110cc565b565b9190604083820312611117578061110b611114925f8601610400565b936020016110e0565b90565b610241565b3461114b5761113561112f3660046110ef565b9061283b565b61113d610237565b80611147816103b4565b0390f35b61023d565b61115990610f99565b90565b9061116690611150565b5f5260205260405f2090565b61118890611183600b915f9261115c565b61069d565b90565b346111bb576111b76111a66111a1366004610b1a565b611172565b6111ae610237565b918291826106c7565b0390f35b61023d565b346111ee576111d86111d3366004610b1a565b6128ac565b6111e0610237565b806111ea816103b4565b0390f35b61023d565b5f1c90565b611204611209916111f3565b610682565b90565b61121690546111f8565b90565b90565b61123061122b61123592611219565b6107cd565b610249565b90565b61124462093a8061121c565b90565b634e487b7160e01b5f52601160045260245ffd5b61126a61127091939293610249565b92610249565b820180921161127b57565b611247565b60209181520190565b5f7f5765656b206f7665720000000000000000000000000000000000000000000000910152565b6112bd6009602092611280565b6112c681611289565b0190565b6112df9060208101905f8183039101526112b0565b90565b156112e957565b6112f1610237565b62461bcd60e51b815280611307600482016112ca565b0390fd5b5f1b90565b9061131c5f199161130b565b9181191691161790565b61133a61133561133f92610249565b6107cd565b610249565b90565b90565b9061135a61135561136192611326565b611342565b8254611310565b9055565b90565b634e487b7160e01b5f52604160045260245ffd5b5f5260205f2090565b5490565b61139281611385565b8210156113ac576113a460019161137c565b910201905f90565b61028d565b1b90565b919060086113d59102916113cf60018060a01b03846113b1565b926113b1565b9181191691161790565b90565b91906113f86113f361140093611150565b6113df565b9083546113b5565b9055565b9081549168010000000000000000831015611434578261142c91600161143295018155611389565b906113e2565b565b611368565b61146f4261146961146361145e611450600961120c565b611458611238565b9061125b565b610249565b91610249565b106112e2565b61148361147e600b339061115c565b61120c565b61149e611498611493600961120c565b610249565b91610249565b106114a6575b565b6114c46114b3600961120c565b6114bf600b339061115c565b611345565b6114d86114d1600a611365565b3390611404565b336114e3600961120c565b906115236115117fdddb6e14f7f2101397a6526aab95e964de7f1f44ed06aa47a1c9a0e6b992445692611150565b9261151a610237565b918291826106c7565b0390a26114a4565b5f90565b3361156a61156461155f7f0000000000000000000000000000000000000000000000000000000000000000610fa5565b610342565b91610342565b031561158c575f63570c108560e11b815280611588600482016103b4565b0390fd5b94939291945093909192936128f5565b6115a461152b565b61152f565b9493929190336115e96115e36115de7f0000000000000000000000000000000000000000000000000000000000000000610fa5565b610342565b91610342565b036115fa576115f795611616565b90565b5f63570c108560e11b815280611612600482016103b4565b0390fd5b9061162b959391949294509390919293612a16565b90565b906116439493929161163e61152b565b6115a9565b90565b61165790611652612b3c565b611659565b565b611664906006611345565b565b61166f90611646565b565b5f90565b5f90565b336116b46116ae6116a97f0000000000000000000000000000000000000000000000000000000000000000610fa5565b610342565b91610342565b03156116d6575f63570c108560e11b8152806116d2600482016103b4565b0390fd5b96959493965050509390919293612b8a565b6116f061152b565b6116f8611671565b611700611675565b91611679565b5f90565b3361174561173f61173a7f0000000000000000000000000000000000000000000000000000000000000000610fa5565b610342565b91610342565b0315611767575f63570c108560e11b815280611763600482016103b4565b0390fd5b97969594939297505095909192939495612bc1565b61178461152b565b61178c611706565b9061170a565b336117cd6117c76117c27f0000000000000000000000000000000000000000000000000000000000000000610fa5565b610342565b91610342565b03156117ef575f63570c108560e11b8152806117eb600482016103b4565b0390fd5b939291935092909192612bef565b61180561152b565b611792565b611812612b3c565b61181a611847565b565b90565b61183361182e6118389261181c565b6107cd565b610337565b90565b6118449061181f565b90565b6118586118535f61183b565b612c14565b565b61186261180a565b565b5f90565b61187190610f99565b90565b61187c611864565b5061188630611868565b3190565b5f90565b61189a61189f916111f3565b6102da565b90565b6118ac905461188e565b90565b6118b761188a565b506118c15f6118a2565b90565b6118d5906118d0612b3c565b611912565b565b906118e860018060a01b039161130b565b9181191691161790565b9061190761190261190e92611150565b6113df565b82546118d7565b9055565b61191d9060076118f2565b565b611928906118c4565b565b3361196561195f61195a7f0000000000000000000000000000000000000000000000000000000000000000610fa5565b610342565b91610342565b0315611987575f63570c108560e11b815280611983600482016103b4565b0390fd5b97969594939297505095909192939495612c73565b6119a461152b565b6119ac611706565b9061192a565b6119ba611864565b506119c5600a6102a1565b90565b5f90565b9695949392919033611a0e611a08611a037f0000000000000000000000000000000000000000000000000000000000000000610fa5565b610342565b91610342565b03611a2057611a1c97611a3c565b9091565b5f63570c108560e11b815280611a38600482016103b4565b0390fd5b90611a54979593969492915050949091929394613148565b91909190565b90611a799594939291611a6b61152b565b611a736119c8565b906119cc565b9091565b33611ab8611ab2611aad7f0000000000000000000000000000000000000000000000000000000000000000610fa5565b610342565b91610342565b0315611ada575f63570c108560e11b815280611ad6600482016103b4565b0390fd5b959493929195509490919293946134d3565b611af461152b565b611a7d565b5f7f5765656b206e6f742066696e6973686564000000000000000000000000000000910152565b611b2d6011602092611280565b611b3681611af9565b0190565b611b4f9060208101905f818303910152611b20565b90565b15611b5957565b611b61610237565b62461bcd60e51b815280611b7760048201611b3a565b0390fd5b611b8f611b8a611b949261181c565b6107cd565b610249565b90565b5f7f4e6f20636865636b696e73000000000000000000000000000000000000000000910152565b611bcb600b602092611280565b611bd481611b97565b0190565b611bed9060208101905f818303910152611bbe565b90565b15611bf757565b611bff610237565b62461bcd60e51b815280611c1560048201611bd8565b0390fd5b6001611c259101610249565b90565b611c3190610f7d565b90565b611c3d90611c28565b90565b611c4990610f99565b90565b5f80fd5b601f801991011690565b90611c6490611c50565b810190811067ffffffffffffffff821117611c7e57604052565b611368565b60e01b90565b90505190611c968261024c565b565b90602082820312611cb157611cae915f01611c89565b90565b610241565b611cbe610237565b3d5f823e3d90fd5b5f7f4e6f2062616c616e636500000000000000000000000000000000000000000000910152565b611cfa600a602092611280565b611d0381611cc6565b0190565b611d1c9060208101905f818303910152611ced565b90565b15611d2657565b611d2e610237565b62461bcd60e51b815280611d4460048201611d07565b0390fd5b90565b611d5f611d5a611d6492611d48565b6107cd565b610249565b90565b611d76611d7c91939293610249565b92610249565b8203918211611d8757565b611247565b611d9b611da191939293610249565b92610249565b91611dad838202610249565b928184041490151715611dbc57565b611247565b634e487b7160e01b5f52601260045260245ffd5b611de1611de791610249565b91610249565b908115611df2570490565b611dc1565b600190818003010490565b91906008611e1d910291611e175f19846113b1565b926113b1565b9181191691161790565b9190611e3d611e38611e4593611326565b611342565b908354611e02565b9055565b611e5b91611e55611864565b91611e27565b565b5b818110611e69575050565b80611e765f600193611e49565b01611e5e565b9091828110611e8b575b505050565b611ea9611ea3611e9d611eb495611df7565b92611df7565b926102a5565b918201910190611e5d565b5f8080611e86565b90680100000000000000008111611ee55781611eda611ee3936102a1565b90828155611e7c565b565b611368565b5f611ef491611ebc565b565b634e487b7160e01b5f525f60045260245ffd5b905f03611f1b57611f1990611eea565b565b611ef6565b611f5742611f50611f4a611f45611f37600961120c565b611f3f611238565b9061125b565b610249565b91610249565b1015611b52565b611f61600a6102a1565b611f7d81611f77611f715f611b7b565b91610249565b11611bf0565b611f85611864565b91611f8f5f611b7b565b925b83611fa4611f9e85610249565b91610249565b1015612067576120076020611fc9611fc4611fbf60076118a2565b611c34565b611c40565b6370a0823190611ffc611fe7611fe1600a8b906102ae565b906102fd565b92611ff0610237565b95869485938493611c83565b83526004830161035b565b03915afa80156120625761202c92612026925f92612032575b5061125b565b93611c19565b92611f91565b61205491925060203d811161205b575b61204c8183611c5a565b810190611c98565b905f612020565b503d612042565b611cb6565b919092506120878261208161207b5f611b7b565b91610249565b11611d1f565b61209030611868565b3191829061209d5f611b7b565b915b826120b26120ac86610249565b91610249565b10156121ec576121176120d06120ca600a86906102ae565b906102fd565b9160206120ed6120e86120e360076118a2565b611c34565b611c40565b6370a082319061210c8692612100610237565b96879485938493611c83565b83526004830161035b565b03915afa9283156121e75761218993612183935f916121b9575b508661215861215261214d8b6121476001611d4b565b90611d67565b610249565b91610249565b145f146121a05750815b90816121766121705f611b7b565b91610249565b1161218f575b5090611d67565b92611c19565b9161209f565b61219a908290613602565b5f61217c565b6121ad6121b4918a611d8c565b8690611dd5565b612162565b6121da915060203d81116121e0575b6121d28183611c5a565b810190611c98565b5f612131565b503d6121c8565b611cb6565b505050506121fb5f600a611f09565b612206426009611345565b61223c7f8959421a1320789a49eeec01a4750caf8a30733c3db14f000d84484df89300f991612233610237565b918291826106c7565b0390a1565b9061225461224d610237565b9283611c5a565b565b6122616101c0612241565b90565b5f90565b60209081808080808080808080808080612280612256565b9e8f61228a612264565b815201612295612264565b8152016122a0612264565b8152016122ab612264565b8152016122b6612264565b8152016122c1612264565b8152016122cc612264565b8152016122d7612264565b8152016122e2612264565b8152016122ed612264565b8152016122f8612264565b815201612303612264565b81520161230e612264565b815201612319612264565b81525050565b612327612268565b90565b6123356101c0612241565b90565b9061234290610db1565b9052565b61234e61231f565b505f8060015f805f8060015f915f935f956001975f995f9b61236e61232a565b809e5f82019061237d91612338565b6020019061238a91612338565b60408d019061239891612338565b60608c01906123a691612338565b60808b01906123b491612338565b60a08a01906123c291612338565b60c08901906123d091612338565b60e08801906123de91612338565b6101008701906123ed91612338565b6101208601906123fc91612338565b61014085019061240b91612338565b61016084019061241a91612338565b61018083019061242991612338565b6101a082019061243891612338565b90565b3361247661247061246b7f0000000000000000000000000000000000000000000000000000000000000000610fa5565b610342565b91610342565b0315612498575f63570c108560e11b815280612494600482016103b4565b0390fd5b92919250919091613631565b6124ac61152b565b61243b565b336124ec6124e66124e17f0000000000000000000000000000000000000000000000000000000000000000610fa5565b610342565b91610342565b031561250e575f63570c108560e11b81528061250a600482016103b4565b0390fd5b95949392919550949091929394613656565b61252861152b565b6124b1565b9061253f9161253a612b3c565b61273b565b565b5f7f546f6b656e204944206e6f7420666f756e640000000000000000000000000000910152565b6125756012602092611280565b61257e81612541565b0190565b6125979060208101905f818303910152612568565b90565b156125a157565b6125a9610237565b62461bcd60e51b8152806125bf60048201612582565b0390fd5b90565b5f5260205f2090565b5490565b6125dc816125cf565b8210156125f6576125ee6001916125c6565b910201905f90565b61028d565b612604906111f3565b90565b919061261d61261861262593610a75565b6125fb565b908354611e02565b9055565b90815491680100000000000000008310156126595782612651916001612657950181556125d3565b90612607565b565b611368565b60018060a01b031690565b61267561267a916111f3565b61265e565b90565b6126879054612669565b90565b61269390610f99565b90565b61269f90610f7d565b90565b6126ab90612696565b90565b6126b790610f7d565b90565b6126c3906126ae565b90565b6126cf90610f99565b90565b5f9103126126dc57565b610241565b60209181520190565b6126f55f80926126e1565b0190565b90916127389361272161272b9261271760808601965f87019061034e565b602085019061034e565b60408301906106ba565b60608183039101526126ea565b90565b61278661275961275461274d85610a75565b6004610a81565b61120c565b926127778461277061276a5f611b7b565b91610249565b141561259a565b61278160026125c3565b612629565b6127b06127ab6127a66127a161279c600561267d565b61268a565b6126a2565b6126ba565b6126c6565b9063b88d4fde916127c030611868565b919392813b15612836575f6127e8916127f382966127dc610237565b98899788968795611c83565b8552600485016126f9565b03925af1801561283157612805575b50565b612824905f3d811161282a575b61281c8183611c5a565b8101906126d2565b5f612802565b503d612812565b611cb6565b611c4c565b906128459161252d565b565b61285890612853612b3c565b61285a565b565b8061287561286f61286a5f61183b565b610342565b91610342565b146128855761288390612c14565b565b6128a86128915f61183b565b5f918291631e4fbdf760e01b83526004830161035b565b0390fd5b6128b590612847565b565b6128d46128cd346128c8600861120c565b61125b565b6008611345565b565b6128f36128ec346128e7600861120c565b61125b565b6008611345565b565b6128fd61152b565b505f630a85dc2960e01b815280612916600482016103b4565b0390fd5b5f80fd5b61292781610342565b0361292e57565b5f80fd5b9050359061293f8261291e565b565b61294a816107d0565b0361295157565b5f80fd5b9050359061296282612941565b565b61296d90610342565b90565b61297981612964565b0361298057565b5f80fd5b9050359061299182612970565b565b919060a083820312612a03576129fc906129ad60a0612241565b936129ba825f8301612932565b5f8601526129cb8260208301612932565b60208601526129dd8260408301612955565b60408601526129ef8260608301610958565b6060860152608001612984565b6080830152565b61291a565b612a13903690612993565b90565b509050612a369250612a319150612a2b61152b565b50612a08565b61367f565b612a4a612a4560048390610a81565b61120c565b612a5c612a565f611b7b565b91610249565b14612a6e575b5063259982e560e01b90565b612a9c906020612a86612a81600561267d565b61268a565b6375794a3c90612a94610237565b948592611c83565b82528180612aac600482016103b4565b03915afa8015612b3757612ad9612aea91612b03945f91612b09575b50612ad36001611d4b565b90611d67565b612ae560048490610a81565b611345565b612afd612af760016125c3565b91610a75565b90612629565b5f612a62565b612b2a915060203d8111612b30575b612b228183611c5a565b810190611c98565b5f612ac8565b503d612b18565b611cb6565b612b446118af565b612b5d612b57612b5261368f565b610342565b91610342565b03612b6457565b612b86612b6f61368f565b5f91829163118cdaa760e01b83526004830161035b565b0390fd5b612b9261152b565b50612b9b611671565b50612ba4611675565b505f630a85dc2960e01b815280612bbd600482016103b4565b0390fd5b612bc961152b565b50612bd2611706565b505f630a85dc2960e01b815280612beb600482016103b4565b0390fd5b612bf761152b565b505f630a85dc2960e01b815280612c10600482016103b4565b0390fd5b612c1d5f6118a2565b612c27825f6118f2565b90612c5b612c557f8be0079c531659141344cd1fd0a4f28419497f9722a3daafe3b4186f6b6457e093611150565b91611150565b91612c64610237565b80612c6e816103b4565b0390a3565b612c7b61152b565b50612c84611706565b505f630a85dc2960e01b815280612c9d600482016103b4565b0390fd5b612caa81610db1565b03612cb157565b5f80fd5b35612cbf81612ca1565b90565b612ccb816107ca565b03612cd257565b5f80fd5b35612ce081612cc2565b90565b612cf7612cf2612cfc9261181c565b6107cd565b6107ca565b90565b612d08906107ca565b600160ff1b8114612d18575f0390565b611247565b612d31612d2c612d36926107ca565b6107cd565b610249565b90565b35612d4381612941565b90565b612d5a612d55612d5f926107d0565b6107cd565b610249565b90565b90565b612d79612d74612d7e92612d62565b6107cd565b610249565b90565b612d8b6001611d4b565b90565b60ff1690565b612da8612da3612dad92610249565b6107cd565b612d8e565b90565b90565b612dc7612dc2612dcc92612db0565b6107cd565b610249565b90565b612dd96011612db3565b90565b60f81b90565b612deb90612ddc565b90565b612dfa612dff91612d8e565b612de2565b9052565b600181612e15612e1d93839695612dee565b018092612dee565b0190565b90565b612e38612e33612e3d92612e21565b6107cd565b610249565b90565b67ffffffffffffffff8111612e585760208091020190565b611368565b90612e6f612e6a83612e40565b612241565b918252565b606090565b5f5b828110612e8757505050565b602090612e92612e74565b8184015201612e7b565b90612ec1612ea983612e5d565b92602080612eb78693612e40565b9201910390612e79565b565b67ffffffffffffffff8111612ee157612edd602091611c50565b0190565b611368565b90612ef8612ef383612ec3565b612241565b918252565b612f065f612ee6565b90565b612f11612efd565b90565b612f28612f23612f2d9261181c565b6107cd565b612d8e565b90565b612f3990612f14565b9052565b5190565b90825f9392825e0152565b612f6b612f74602093612f7993612f6281612f3d565b938480936126e1565b95869101612f41565b611c50565b0190565b9193612fb4612fcb9694612faa612fbe9497612fa060a08801995f8901906106ba565b6020870190612f30565b6040850190612f30565b6060830190612f30565b6080818403910152612f4c565b90565b5190565b90612fdc82612fce565b811015612fed576020809102010190565b61028d565b35612ffc8161291e565b90565b61300890611150565b9052565b60409061303561303c949695939661302b60608401985f850190612fff565b6020830190612fff565b019061034e565b565b60209181520190565b60200190565b60209181520190565b61307561307e6020936130839361306c81612f3d565b9384809361304d565b95869101612f41565b611c50565b0190565b9061309191613056565b90565b60200190565b906130ae6130a783612fce565b809261303e565b90816130bf60208302840194613047565b925f915b8383106130d257505050505090565b909192939460206130f46130ee83856001950387528951613087565b97613094565b93019301919392906130c3565b909161311b6131299360408401908482035f860152612f4c565b91602081840391015261309a565b90565b61314061313b6131459261181c565b6107cd565b610c78565b90565b50935091505061315661152b565b5061315f6119c8565b5061317161316c83612a08565b61367f565b9061317d5f8201612cb5565b806134ae575b613433575b5061319d61319860038390610a81565b61120c565b6131b86131b26131ad600661120c565b610249565b91610249565b10156131d6575b505063b47b2fb160e01b906131d35f61312c565b90565b6131e66131e1612d81565b612d94565b6132206131f96131f4612dcf565b612d94565b91613211613205610237565b93849260208401612e03565b60208201810382520382611c5a565b9161323361322e6002612e24565b612e9c565b926132a661324b61324660048690610a81565b61120c565b6132815f916132725f8061325d612f09565b91613266610237565b96879560208701612f7d565b60208201810382520382611c5a565b6132a086915f9061329a61329483611b7b565b85612fd2565b52611b7b565b90612fd2565b515061331b6132b65f8401612ff2565b6132f56132c560208601612ff2565b916132e66132d230611868565b6132da610237565b9485936020850161300c565b60208201810382520382611c5a565b613315869160019061330f61330983611d4b565b85612fd2565b52611d4b565b90612fd2565b515061332f61332a600561267d565b61268a565b93634afe393c919094803b1561342e5761335c5f8094613367613350610237565b998a9687958694611c83565b845260048401613101565b03925af1928315613429576133c2936133fd575b5061339061338b60208301612ff2565b6136cc565b6133a261339c5f611b7b565b91610249565b116133c9575b506133bd6133b55f611b7b565b916003610a81565b611345565b5f806131bf565b806133d960206133f79301612ff2565b906133f16133ec602061dead9301612ff2565b6136cc565b916137ab565b5f6133a8565b61341c905f3d8111613422575b6134148183611c5a565b8101906126d2565b5f61337b565b503d61340a565b611cb6565b611c4c565b61348461347261345861345361344e60206134a89601612cd6565b612cff565b612d1d565b61346c61346760408801612d39565b612d46565b90611d8c565b61347e620f4240612d65565b90611dd5565b6134a261349360038590610a81565b9161349d8361120c565b61125b565b90611345565b5f613188565b506134bb60208201612cd6565b6134cd6134c75f612ce3565b916107ca565b12613183565b6134db61152b565b505f630a85dc2960e01b8152806134f4600482016103b4565b0390fd5b905090565b6135085f80926134f8565b0190565b613515906134fd565b90565b67ffffffffffffffff811161353657613532602091611c50565b0190565b611368565b9061354d61354883613518565b612241565b918252565b606090565b3d5f14613572576135673d61353b565b903d5f602084013e5b565b61357a613552565b90613570565b5f7f455448207472616e73666572206661696c656400000000000000000000000000910152565b6135b46013602092611280565b6135bd81613580565b0190565b6135d69060208101905f8183039101526135a7565b90565b156135e057565b6135e8610237565b62461bcd60e51b8152806135fe600482016135c1565b0390fd5b5f61362f92819290613612610237565b908161361d8161350c565b03925af1613629613557565b506135d9565b565b61363961152b565b505f630a85dc2960e01b815280613652600482016103b4565b0390fd5b61365e61152b565b505f630a85dc2960e01b815280613677600482016103b4565b0390fd5b5f90565b60a09061368a61367b565b502090565b61369761188a565b503390565b6136a590610f7d565b90565b6136b19061369c565b90565b6136bd90610f99565b90565b6136c990610f99565b90565b6136d4611864565b506136de81613886565b5f146136f257506136ee306136c0565b3190565b602061371061370b61370661374294611150565b6136a8565b6136b4565b6370a0823190613737613722306136c0565b9261372b610237565b95869485938493611c83565b83526004830161035b565b03915afa908115613786575f91613758575b5090565b613779915060203d811161377f575b6137718183611c5a565b810190611c98565b5f613754565b503d613767565b611cb6565b5f90565b6137a361379e6137a89261181c565b611c83565b6104e6565b90565b9190916137b661378b565b506137c081613886565b5f146137f757505f8080806137d894865af115610db1565b6137e057505b565b6137e95f61378f565b633d2cec6f60e21b916138bd565b91613849916040519163a9059cbb60e01b835260018060a01b0316600483015260248201525f604060208260448582895af13d15601f3d11600185511416171692828152826020820152015215610db1565b61385357506137de565b61385c90611150565b63a9059cbb60e01b633c9fd93960e21b916138bd565b61388361387e5f61183b565b611150565b90565b6138989061389261378b565b50611150565b6138b96138b36138ae6138a9613872565b611150565b610342565b91610342565b1490565b826390bfb86560e01b92602080601f3d0104029260405194855260018060a01b0316600485015263ffffffff60e01b166024840152608060448401528160a00160648401523d60848401523d5f60a485013e60048260a40184015263ffffffff60e01b168160c40183015260e40190fdfea26469706673582212204485abf5208e0953baceb18f51fe3fb4b908e7c0395db413547751a1dec092b164736f6c634300081a0033","linkReferences":{}},"methodIdentifiers":{"afterAddLiquidity(address,(address,address,uint24,int24,address),(int24,int24,int256,bytes32),int256,int256,bytes)":"9f063efc","afterDonate(address,(address,address,uint24,int24,address),uint256,uint256,bytes)":"e1b4af69","afterInitialize(address,(address,address,uint24,int24,address),uint160,int24)":"6fe7e6eb","afterRemoveLiquidity(address,(address,address,uint24,int24,address),(int24,int24,int256,bytes32),int256,int256,bytes)":"6c2bbe7e","afterSwap(address,(address,address,uint24,int24,address),(bool,int256,uint160),int256,bytes)":"b47b2fb1","balanceOf()":"722713f7","beforeAddLiquidity(address,(address,address,uint24,int24,address),(int24,int24,int256,bytes32),bytes)":"259982e5","beforeDonate(address,(address,address,uint24,int24,address),uint256,uint256,bytes)":"b6a8b0fa","beforeInitialize(address,(address,address,uint24,int24,address),uint160)":"dc98354e","beforeRemoveLiquidity(address,(address,address,uint24,int24,address),(int24,int24,int256,bytes32),bytes)":"21d0ee70","beforeSwap(address,(address,address,uint24,int24,address),(bool,int256,uint160),bytes)":"575e24b4","checkIn()":"183ff085","checkedIn(uint256)":"02086596","distributeFees()":"bb57ad20","getCheckedInCount()":"a76308ad","getHookPermissions()":"c4e833ce","lastCheckIn(address)":"ef6fdb1c","minWithdraw()":"cc3d2721","owner()":"8da5cb5b","poolIdToTokenId(bytes32)":"e04bc0fa","poolIds(uint256)":"69883b4e","poolManager()":"dc4c90d3","renounceOwnership()":"715018a6","setMinWithdraw(uint256)":"35aa134a","setvMooneyAddress(address)":"90b0f155","totalReceived()":"a3c2c462","transferOwnership(address)":"f2fde38b","transferPosition(address,bytes32)":"ec5c4962","transferredPoolIds(uint256)":"264e78e4","uncollectedFees(bytes32)":"763cef93","vMooneyAddress()":"543e617f","weekStart()":"3b698348"},"id":180}