{"abi":[{"type":"constructor","inputs":[{"name":"owner","type":"address","internalType":"address"},{"name":"_poolManager","type":"address","internalType":"contract IPoolManager"},{"name":"_posm","type":"address","internalType":"contract IPositionManager"},{"name":"_lzEndpoint","type":"address","internalType":"address"},{"name":"_destinationChainId","type":"uint256","internalType":"uint256"},{"name":"_destinationEid","type":"uint16","internalType":"uint16"},{"name":"_vMooneyAddress","type":"address","internalType":"address"}],"stateMutability":"nonpayable"},{"type":"fallback","stateMutability":"payable"},{"type":"receive","stateMutability":"payable"},{"type":"function","name":"afterAddLiquidity","inputs":[{"name":"sender","type":"address","internalType":"address"},{"name":"key","type":"tuple","internalType":"struct PoolKey","components":[{"name":"currency0","type":"address","internalType":"Currency"},{"name":"currency1","type":"address","internalType":"Currency"},{"name":"fee","type":"uint24","internalType":"uint24"},{"name":"tickSpacing","type":"int24","internalType":"int24"},{"name":"hooks","type":"address","internalType":"contract IHooks"}]},{"name":"params","type":"tuple","internalType":"struct IPoolManager.ModifyLiquidityParams","components":[{"name":"tickLower","type":"int24","internalType":"int24"},{"name":"tickUpper","type":"int24","internalType":"int24"},{"name":"liquidityDelta","type":"int256","internalType":"int256"},{"name":"salt","type":"bytes32","internalType":"bytes32"}]},{"name":"delta","type":"int256","internalType":"BalanceDelta"},{"name":"feesAccrued","type":"int256","internalType":"BalanceDelta"},{"name":"hookData","type":"bytes","internalType":"bytes"}],"outputs":[{"name":"","type":"bytes4","internalType":"bytes4"},{"name":"","type":"int256","internalType":"BalanceDelta"}],"stateMutability":"nonpayable"},{"type":"function","name":"afterDonate","inputs":[{"name":"sender","type":"address","internalType":"address"},{"name":"key","type":"tuple","internalType":"struct PoolKey","components":[{"name":"currency0","type":"address","internalType":"Currency"},{"name":"currency1","type":"address","internalType":"Currency"},{"name":"fee","type":"uint24","internalType":"uint24"},{"name":"tickSpacing","type":"int24","internalType":"int24"},{"name":"hooks","type":"address","internalType":"contract IHooks"}]},{"name":"amount0","type":"uint256","internalType":"uint256"},{"name":"amount1","type":"uint256","internalType":"uint256"},{"name":"hookData","type":"bytes","internalType":"bytes"}],"outputs":[{"name":"","type":"bytes4","internalType":"bytes4"}],"stateMutability":"nonpayable"},{"type":"function","name":"afterInitialize","inputs":[{"name":"sender","type":"address","internalType":"address"},{"name":"key","type":"tuple","internalType":"struct PoolKey","components":[{"name":"currency0","type":"address","internalType":"Currency"},{"name":"currency1","type":"address","internalType":"Currency"},{"name":"fee","type":"uint24","internalType":"uint24"},{"name":"tickSpacing","type":"int24","internalType":"int24"},{"name":"hooks","type":"address","internalType":"contract IHooks"}]},{"name":"sqrtPriceX96","type":"uint160","internalType":"uint160"},{"name":"tick","type":"int24","internalType":"int24"}],"outputs":[{"name":"","type":"bytes4","internalType":"bytes4"}],"stateMutability":"nonpayable"},{"type":"function","name":"afterRemoveLiquidity","inputs":[{"name":"sender","type":"address","internalType":"address"},{"name":"key","type":"tuple","internalType":"struct PoolKey","components":[{"name":"currency0","type":"address","internalType":"Currency"},{"name":"currency1","type":"address","internalType":"Currency"},{"name":"fee","type":"uint24","internalType":"uint24"},{"name":"tickSpacing","type":"int24","internalType":"int24"},{"name":"hooks","type":"address","internalType":"contract IHooks"}]},{"name":"params","type":"tuple","internalType":"struct IPoolManager.ModifyLiquidityParams","components":[{"name":"tickLower","type":"int24","internalType":"int24"},{"name":"tickUpper","type":"int24","internalType":"int24"},{"name":"liquidityDelta","type":"int256","internalType":"int256"},{"name":"salt","type":"bytes32","internalType":"bytes32"}]},{"name":"delta","type":"int256","internalType":"BalanceDelta"},{"name":"feesAccrued","type":"int256","internalType":"BalanceDelta"},{"name":"hookData","type":"bytes","internalType":"bytes"}],"outputs":[{"name":"","type":"bytes4","internalType":"bytes4"},{"name":"","type":"int256","internalType":"BalanceDelta"}],"stateMutability":"nonpayable"},{"type":"function","name":"afterSwap","inputs":[{"name":"sender","type":"address","internalType":"address"},{"name":"key","type":"tuple","internalType":"struct PoolKey","components":[{"name":"currency0","type":"address","internalType":"Currency"},{"name":"currency1","type":"address","internalType":"Currency"},{"name":"fee","type":"uint24","internalType":"uint24"},{"name":"tickSpacing","type":"int24","internalType":"int24"},{"name":"hooks","type":"address","internalType":"contract IHooks"}]},{"name":"params","type":"tuple","internalType":"struct IPoolManager.SwapParams","components":[{"name":"zeroForOne","type":"bool","internalType":"bool"},{"name":"amountSpecified","type":"int256","internalType":"int256"},{"name":"sqrtPriceLimitX96","type":"uint160","internalType":"uint160"}]},{"name":"delta","type":"int256","internalType":"BalanceDelta"},{"name":"hookData","type":"bytes","internalType":"bytes"}],"outputs":[{"name":"","type":"bytes4","internalType":"bytes4"},{"name":"","type":"int128","internalType":"int128"}],"stateMutability":"nonpayable"},{"type":"function","name":"allowInitializePath","inputs":[{"name":"origin","type":"tuple","internalType":"struct Origin","components":[{"name":"srcEid","type":"uint32","internalType":"uint32"},{"name":"sender","type":"bytes32","internalType":"bytes32"},{"name":"nonce","type":"uint64","internalType":"uint64"}]}],"outputs":[{"name":"","type":"bool","internalType":"bool"}],"stateMutability":"view"},{"type":"function","name":"balanceTimeWeighted","inputs":[{"name":"","type":"address","internalType":"address"}],"outputs":[{"name":"","type":"uint256","internalType":"uint256"}],"stateMutability":"view"},{"type":"function","name":"beforeAddLiquidity","inputs":[{"name":"sender","type":"address","internalType":"address"},{"name":"key","type":"tuple","internalType":"struct PoolKey","components":[{"name":"currency0","type":"address","internalType":"Currency"},{"name":"currency1","type":"address","internalType":"Currency"},{"name":"fee","type":"uint24","internalType":"uint24"},{"name":"tickSpacing","type":"int24","internalType":"int24"},{"name":"hooks","type":"address","internalType":"contract IHooks"}]},{"name":"params","type":"tuple","internalType":"struct IPoolManager.ModifyLiquidityParams","components":[{"name":"tickLower","type":"int24","internalType":"int24"},{"name":"tickUpper","type":"int24","internalType":"int24"},{"name":"liquidityDelta","type":"int256","internalType":"int256"},{"name":"salt","type":"bytes32","internalType":"bytes32"}]},{"name":"hookData","type":"bytes","internalType":"bytes"}],"outputs":[{"name":"","type":"bytes4","internalType":"bytes4"}],"stateMutability":"nonpayable"},{"type":"function","name":"beforeDonate","inputs":[{"name":"sender","type":"address","internalType":"address"},{"name":"key","type":"tuple","internalType":"struct PoolKey","components":[{"name":"currency0","type":"address","internalType":"Currency"},{"name":"currency1","type":"address","internalType":"Currency"},{"name":"fee","type":"uint24","internalType":"uint24"},{"name":"tickSpacing","type":"int24","internalType":"int24"},{"name":"hooks","type":"address","internalType":"contract IHooks"}]},{"name":"amount0","type":"uint256","internalType":"uint256"},{"name":"amount1","type":"uint256","internalType":"uint256"},{"name":"hookData","type":"bytes","internalType":"bytes"}],"outputs":[{"name":"","type":"bytes4","internalType":"bytes4"}],"stateMutability":"nonpayable"},{"type":"function","name":"beforeInitialize","inputs":[{"name":"sender","type":"address","internalType":"address"},{"name":"key","type":"tuple","internalType":"struct PoolKey","components":[{"name":"currency0","type":"address","internalType":"Currency"},{"name":"currency1","type":"address","internalType":"Currency"},{"name":"fee","type":"uint24","internalType":"uint24"},{"name":"tickSpacing","type":"int24","internalType":"int24"},{"name":"hooks","type":"address","internalType":"contract IHooks"}]},{"name":"sqrtPriceX96","type":"uint160","internalType":"uint160"}],"outputs":[{"name":"","type":"bytes4","internalType":"bytes4"}],"stateMutability":"nonpayable"},{"type":"function","name":"beforeRemoveLiquidity","inputs":[{"name":"sender","type":"address","internalType":"address"},{"name":"key","type":"tuple","internalType":"struct PoolKey","components":[{"name":"currency0","type":"address","internalType":"Currency"},{"name":"currency1","type":"address","internalType":"Currency"},{"name":"fee","type":"uint24","internalType":"uint24"},{"name":"tickSpacing","type":"int24","internalType":"int24"},{"name":"hooks","type":"address","internalType":"contract IHooks"}]},{"name":"params","type":"tuple","internalType":"struct IPoolManager.ModifyLiquidityParams","components":[{"name":"tickLower","type":"int24","internalType":"int24"},{"name":"tickUpper","type":"int24","internalType":"int24"},{"name":"liquidityDelta","type":"int256","internalType":"int256"},{"name":"salt","type":"bytes32","internalType":"bytes32"}]},{"name":"hookData","type":"bytes","internalType":"bytes"}],"outputs":[{"name":"","type":"bytes4","internalType":"bytes4"}],"stateMutability":"nonpayable"},{"type":"function","name":"beforeSwap","inputs":[{"name":"sender","type":"address","internalType":"address"},{"name":"key","type":"tuple","internalType":"struct PoolKey","components":[{"name":"currency0","type":"address","internalType":"Currency"},{"name":"currency1","type":"address","internalType":"Currency"},{"name":"fee","type":"uint24","internalType":"uint24"},{"name":"tickSpacing","type":"int24","internalType":"int24"},{"name":"hooks","type":"address","internalType":"contract IHooks"}]},{"name":"params","type":"tuple","internalType":"struct IPoolManager.SwapParams","components":[{"name":"zeroForOne","type":"bool","internalType":"bool"},{"name":"amountSpecified","type":"int256","internalType":"int256"},{"name":"sqrtPriceLimitX96","type":"uint160","internalType":"uint160"}]},{"name":"hookData","type":"bytes","internalType":"bytes"}],"outputs":[{"name":"","type":"bytes4","internalType":"bytes4"},{"name":"","type":"int256","internalType":"BeforeSwapDelta"},{"name":"","type":"uint24","internalType":"uint24"}],"stateMutability":"nonpayable"},{"type":"function","name":"endpoint","inputs":[],"outputs":[{"name":"","type":"address","internalType":"contract ILayerZeroEndpointV2"}],"stateMutability":"view"},{"type":"function","name":"getHookPermissions","inputs":[],"outputs":[{"name":"","type":"tuple","internalType":"struct Hooks.Permissions","components":[{"name":"beforeInitialize","type":"bool","internalType":"bool"},{"name":"afterInitialize","type":"bool","internalType":"bool"},{"name":"beforeAddLiquidity","type":"bool","internalType":"bool"},{"name":"afterAddLiquidity","type":"bool","internalType":"bool"},{"name":"beforeRemoveLiquidity","type":"bool","internalType":"bool"},{"name":"afterRemoveLiquidity","type":"bool","internalType":"bool"},{"name":"beforeSwap","type":"bool","internalType":"bool"},{"name":"afterSwap","type":"bool","internalType":"bool"},{"name":"beforeDonate","type":"bool","internalType":"bool"},{"name":"afterDonate","type":"bool","internalType":"bool"},{"name":"beforeSwapReturnDelta","type":"bool","internalType":"bool"},{"name":"afterSwapReturnDelta","type":"bool","internalType":"bool"},{"name":"afterAddLiquidityReturnDelta","type":"bool","internalType":"bool"},{"name":"afterRemoveLiquidityReturnDelta","type":"bool","internalType":"bool"}]}],"stateMutability":"pure"},{"type":"function","name":"isComposeMsgSender","inputs":[{"name":"","type":"tuple","internalType":"struct Origin","components":[{"name":"srcEid","type":"uint32","internalType":"uint32"},{"name":"sender","type":"bytes32","internalType":"bytes32"},{"name":"nonce","type":"uint64","internalType":"uint64"}]},{"name":"","type":"bytes","internalType":"bytes"},{"name":"_sender","type":"address","internalType":"address"}],"outputs":[{"name":"","type":"bool","internalType":"bool"}],"stateMutability":"view"},{"type":"function","name":"lastBalanceUpdate","inputs":[{"name":"","type":"address","internalType":"address"}],"outputs":[{"name":"","type":"uint256","internalType":"uint256"}],"stateMutability":"view"},{"type":"function","name":"lastSupplyUpdate","inputs":[],"outputs":[{"name":"","type":"uint256","internalType":"uint256"}],"stateMutability":"view"},{"type":"function","name":"lzReceive","inputs":[{"name":"_origin","type":"tuple","internalType":"struct Origin","components":[{"name":"srcEid","type":"uint32","internalType":"uint32"},{"name":"sender","type":"bytes32","internalType":"bytes32"},{"name":"nonce","type":"uint64","internalType":"uint64"}]},{"name":"_guid","type":"bytes32","internalType":"bytes32"},{"name":"_message","type":"bytes","internalType":"bytes"},{"name":"_executor","type":"address","internalType":"address"},{"name":"_extraData","type":"bytes","internalType":"bytes"}],"outputs":[],"stateMutability":"payable"},{"type":"function","name":"minWithdraw","inputs":[],"outputs":[{"name":"","type":"uint256","internalType":"uint256"}],"stateMutability":"view"},{"type":"function","name":"nextNonce","inputs":[{"name":"","type":"uint32","internalType":"uint32"},{"name":"","type":"bytes32","internalType":"bytes32"}],"outputs":[{"name":"nonce","type":"uint64","internalType":"uint64"}],"stateMutability":"view"},{"type":"function","name":"oAppVersion","inputs":[],"outputs":[{"name":"senderVersion","type":"uint64","internalType":"uint64"},{"name":"receiverVersion","type":"uint64","internalType":"uint64"}],"stateMutability":"pure"},{"type":"function","name":"owner","inputs":[],"outputs":[{"name":"","type":"address","internalType":"address"}],"stateMutability":"view"},{"type":"function","name":"peers","inputs":[{"name":"eid","type":"uint32","internalType":"uint32"}],"outputs":[{"name":"peer","type":"bytes32","internalType":"bytes32"}],"stateMutability":"view"},{"type":"function","name":"poolIdToTokenId","inputs":[{"name":"","type":"bytes32","internalType":"PoolId"}],"outputs":[{"name":"","type":"uint256","internalType":"uint256"}],"stateMutability":"view"},{"type":"function","name":"poolIds","inputs":[{"name":"","type":"uint256","internalType":"uint256"}],"outputs":[{"name":"","type":"bytes32","internalType":"bytes32"}],"stateMutability":"view"},{"type":"function","name":"poolManager","inputs":[],"outputs":[{"name":"","type":"address","internalType":"contract IPoolManager"}],"stateMutability":"view"},{"type":"function","name":"renounceOwnership","inputs":[],"outputs":[],"stateMutability":"nonpayable"},{"type":"function","name":"sendCrossChain","inputs":[{"name":"payload","type":"bytes","internalType":"bytes"},{"name":"options","type":"bytes","internalType":"bytes"},{"name":"messageFee","type":"uint256","internalType":"uint256"},{"name":"refundAddress","type":"address","internalType":"address"}],"outputs":[],"stateMutability":"payable"},{"type":"function","name":"setDelegate","inputs":[{"name":"_delegate","type":"address","internalType":"address"}],"outputs":[],"stateMutability":"nonpayable"},{"type":"function","name":"setMinWithdraw","inputs":[{"name":"_minWithdraw","type":"uint256","internalType":"uint256"}],"outputs":[],"stateMutability":"nonpayable"},{"type":"function","name":"setPeer","inputs":[{"name":"_eid","type":"uint32","internalType":"uint32"},{"name":"_peer","type":"bytes32","internalType":"bytes32"}],"outputs":[],"stateMutability":"nonpayable"},{"type":"function","name":"setvMooneyAddress","inputs":[{"name":"_vMooneyAddress","type":"address","internalType":"address"}],"outputs":[],"stateMutability":"nonpayable"},{"type":"function","name":"supplyTimeWeighted","inputs":[],"outputs":[{"name":"","type":"uint256","internalType":"uint256"}],"stateMutability":"view"},{"type":"function","name":"totalReceived","inputs":[],"outputs":[{"name":"","type":"uint256","internalType":"uint256"}],"stateMutability":"view"},{"type":"function","name":"totalWithdrawn","inputs":[],"outputs":[{"name":"","type":"uint256","internalType":"uint256"}],"stateMutability":"view"},{"type":"function","name":"totalWithdrawnPerUser","inputs":[{"name":"","type":"address","internalType":"address"}],"outputs":[{"name":"","type":"uint256","internalType":"uint256"}],"stateMutability":"view"},{"type":"function","name":"transferOwnership","inputs":[{"name":"newOwner","type":"address","internalType":"address"}],"outputs":[],"stateMutability":"nonpayable"},{"type":"function","name":"transferPosition","inputs":[{"name":"to","type":"address","internalType":"address"},{"name":"poolId","type":"bytes32","internalType":"bytes32"}],"outputs":[],"stateMutability":"nonpayable"},{"type":"function","name":"transferredPoolIds","inputs":[{"name":"","type":"uint256","internalType":"uint256"}],"outputs":[{"name":"","type":"bytes32","internalType":"bytes32"}],"stateMutability":"view"},{"type":"function","name":"uncollectedFees","inputs":[{"name":"","type":"bytes32","internalType":"PoolId"}],"outputs":[{"name":"","type":"uint256","internalType":"uint256"}],"stateMutability":"view"},{"type":"function","name":"vMooneyAddress","inputs":[],"outputs":[{"name":"","type":"address","internalType":"address"}],"stateMutability":"view"},{"type":"function","name":"withdrawFees","inputs":[],"outputs":[{"name":"","type":"uint256","internalType":"uint256"}],"stateMutability":"nonpayable"},{"type":"event","name":"OwnershipTransferred","inputs":[{"name":"previousOwner","type":"address","indexed":true,"internalType":"address"},{"name":"newOwner","type":"address","indexed":true,"internalType":"address"}],"anonymous":false},{"type":"event","name":"PeerSet","inputs":[{"name":"eid","type":"uint32","indexed":false,"internalType":"uint32"},{"name":"peer","type":"bytes32","indexed":false,"internalType":"bytes32"}],"anonymous":false},{"type":"event","name":"Withdraw","inputs":[{"name":"totalSupply","type":"uint256","indexed":false,"internalType":"uint256"},{"name":"userBalance","type":"uint256","indexed":false,"internalType":"uint256"},{"name":"user","type":"address","indexed":false,"internalType":"address"},{"name":"withdrawAmount","type":"uint256","indexed":false,"internalType":"uint256"}],"anonymous":false},{"type":"error","name":"HookNotImplemented","inputs":[]},{"type":"error","name":"InvalidDelegate","inputs":[]},{"type":"error","name":"InvalidEndpointCall","inputs":[]},{"type":"error","name":"InvalidOptionType","inputs":[{"name":"optionType","type":"uint16","internalType":"uint16"}]},{"type":"error","name":"LzTokenUnavailable","inputs":[]},{"type":"error","name":"NoPeer","inputs":[{"name":"eid","type":"uint32","internalType":"uint32"}]},{"type":"error","name":"NotEnoughNative","inputs":[{"name":"msgValue","type":"uint256","internalType":"uint256"}]},{"type":"error","name":"NotPoolManager","inputs":[]},{"type":"error","name":"OnlyEndpoint","inputs":[{"name":"addr","type":"address","internalType":"address"}]},{"type":"error","name":"OnlyPeer","inputs":[{"name":"eid","type":"uint32","internalType":"uint32"},{"name":"sender","type":"bytes32","internalType":"bytes32"}]},{"type":"error","name":"OwnableInvalidOwner","inputs":[{"name":"owner","type":"address","internalType":"address"}]},{"type":"error","name":"OwnableUnauthorizedAccount","inputs":[{"name":"account","type":"address","internalType":"address"}]},{"type":"error","name":"SafeCastOverflowedUintDowncast","inputs":[{"name":"bits","type":"uint8","internalType":"uint8"},{"name":"value","type":"uint256","internalType":"uint256"}]},{"type":"error","name":"SafeERC20FailedOperation","inputs":[{"name":"token","type":"address","internalType":"address"}]}],"bytecode":{"object":"0x60c0604052346100b85761002061001461027d565b95949094939193610467565b6100286100bd565b61551561105082396080518181816114c501528181611a4101528181611ac0015281816124a101528181612532015281816125ba015281816127a201528181612835015281816128df01528181612c150152612c8b015260a051818181610af6015281816118d601528181612b5b015281816142ec0152818161483c01528181614d730152614e04015261551590f35b6100c3565b60405190565b5f80fd5b601f801991011690565b634e487b7160e01b5f52604160045260245ffd5b906100ef906100c7565b810190811060018060401b0382111761010757604052565b6100d1565b9061011f6101186100bd565b92836100e5565b565b5f80fd5b60018060a01b031690565b61013990610125565b90565b61014581610130565b0361014c57565b5f80fd5b9050519061015d8261013c565b565b61016890610130565b90565b6101748161015f565b0361017b57565b5f80fd5b9050519061018c8261016b565b565b61019790610130565b90565b6101a38161018e565b036101aa57565b5f80fd5b905051906101bb8261019a565b565b90565b6101c9816101bd565b036101d057565b5f80fd5b905051906101e1826101c0565b565b61ffff1690565b6101f3816101e3565b036101fa57565b5f80fd5b9050519061020b826101ea565b565b60e08183031261027857610223825f8301610150565b92610231836020840161017f565b9261023f81604085016101ae565b9261024d8260608301610150565b9261027561025e84608085016101d4565b9361026c8160a086016101fe565b9360c001610150565b90565b610121565b61029b616565803803806102908161010c565b92833981019061020d565b90919293949596565b5f1b90565b906102b55f19916102a4565b9181191691161790565b90565b90565b6102d96102d46102de926102bf565b6102c2565b6101bd565b90565b90565b906102f96102f4610300926102c5565b6102e1565b82546102a9565b9055565b9061031560018060a01b03916102a4565b9181191691161790565b61033361032e61033892610125565b6102c2565b610125565b90565b6103449061031f565b90565b6103509061033b565b90565b90565b9061036b61036661037292610347565b610353565b8254610304565b9055565b61038a61038561038f926101bd565b6102c2565b6101bd565b90565b906103a76103a26103ae92610376565b6102e1565b82546102a9565b9055565b906103bf61ffff916102a4565b9181191691161790565b6103dd6103d86103e2926101e3565b6102c2565b6101e3565b90565b90565b906103fd6103f8610404926103c9565b6103e5565b82546103b2565b9055565b60101b90565b9061042262010000600160b01b0391610408565b9181191691161790565b6104359061031f565b90565b6104419061042c565b90565b90565b9061045c61045761046392610438565b610444565b825461040e565b9055565b6104a69261048661049f926104ad97946104b49a9997918091926104c1565b610498662386f26fc10000600a6102e4565b6009610356565b600b610392565b600c6103e8565b600c610447565b6104bf426010610392565b565b906104cd9392916104cf565b565b906104db9392916104dd565b565b906104e99392916105a3565b565b6104f49061031f565b90565b610500906104eb565b90565b90565b61051a61051561051f92610503565b6102c2565b610125565b90565b61052b90610506565b90565b5f0190565b61053c90610130565b90565b6105499051610533565b90565b6105559061042c565b90565b5f80fd5b60e01b90565b5f91031261056c57565b610121565b61057a90610130565b9052565b9190610591905f60208501940190610571565b565b61059b6100bd565b3d5f823e3d90fd5b90926105b2906105b793610687565b6104f7565b60a052806105d56105cf6105ca5f610522565b610130565b91610130565b1461066b576105ec6105e760a061053f565b61054c565b9063ca5eb5e190823b1561066657610623926106185f809461060c6100bd565b9687958694859361055c565b83526004830161057e565b03925af1801561066157610635575b50565b610654905f3d811161065a575b61064c81836100e5565b810190610562565b5f610632565b503d610642565b610593565b610558565b5f632d618d8160e21b8152806106836004820161052e565b0390fd5b90610691906106e3565b806106ac6106a66106a15f610522565b610130565b91610130565b146106bc576106ba90610779565b565b6106df6106c85f610522565b5f918291631e4fbdf760e01b83526004830161057e565b0390fd5b6106ec906106ee565b565b6106f7906106f9565b565b61070290610704565b565b61070d9061070f565b565b61071890610723565b610721306107f0565b565b608052565b5f1c90565b60018060a01b031690565b61074461074991610728565b61072d565b90565b6107569054610738565b90565b9061076e61076961077592610438565b610444565b8254610304565b9055565b6107825f61074c565b61078c825f610759565b906107c06107ba7f8be0079c531659141344cd1fd0a4f28419497f9722a3daafe3b4186f6b6457e093610438565b91610438565b916107c96100bd565b806107d38161052e565b0390a3565b6107e19061031f565b90565b6107ed906107d8565b90565b61080a906108056107ff610901565b916107e4565b610c7d565b565b6108176101c061010c565b90565b5f90565b6020908180808080808080808080808061083661080c565b9e8f61084061081a565b81520161084b61081a565b81520161085661081a565b81520161086161081a565b81520161086c61081a565b81520161087761081a565b81520161088261081a565b81520161088d61081a565b81520161089861081a565b8152016108a361081a565b8152016108ae61081a565b8152016108b961081a565b8152016108c461081a565b8152016108cf61081a565b81525050565b6108dd61081e565b90565b6108eb6101c061010c565b90565b151590565b906108fd906108ee565b9052565b6109096108d5565b505f8060015f805f8060015f915f935f956001975f995f9b6109296108e0565b809e5f820190610938916108f3565b60200190610945916108f3565b60408d0190610953916108f3565b60608c0190610961916108f3565b60808b019061096f916108f3565b60a08a019061097d916108f3565b60c089019061098b916108f3565b60e0880190610999916108f3565b6101008701906109a8916108f3565b6101208601906109b7916108f3565b6101408501906109c6916108f3565b6101608401906109d5916108f3565b6101808301906109e4916108f3565b6101a08201906109f3916108f3565b90565b610a0090516108ee565b90565b90565b610a1a610a15610a1f92610a03565b6102c2565b610125565b90565b610a2d612000610a06565b90565b90565b610a47610a42610a4c92610a30565b6102c2565b610125565b90565b610a5a611000610a33565b90565b90565b610a74610a6f610a7992610a5d565b6102c2565b610125565b90565b610a87610800610a60565b90565b90565b610aa1610a9c610aa692610a8a565b6102c2565b610125565b90565b610ab4610400610a8d565b90565b90565b610ace610ac9610ad392610ab7565b6102c2565b610125565b90565b610ae1610200610aba565b90565b90565b610afb610af6610b0092610ae4565b6102c2565b610125565b90565b610b0e610100610ae7565b90565b90565b610b28610b23610b2d92610b11565b6102c2565b610125565b90565b610b3a6080610b14565b90565b90565b610b54610b4f610b5992610b3d565b6102c2565b610125565b90565b610b666040610b40565b90565b90565b610b80610b7b610b8592610b69565b6102c2565b610125565b90565b610b926020610b6c565b90565b90565b610bac610ba7610bb192610b95565b6102c2565b610125565b90565b610bbe6010610b98565b90565b90565b610bd8610bd3610bdd92610bc1565b6102c2565b610125565b90565b610bea6008610bc4565b90565b90565b610c04610bff610c0992610bed565b6102c2565b610125565b90565b610c166004610bf0565b90565b90565b610c30610c2b610c3592610c19565b6102c2565b610125565b90565b610c426002610c1c565b90565b90565b610c5c610c57610c6192610c45565b6102c2565b610125565b90565b610c6e6001610c48565b90565b610c7a9061042c565b90565b90610c895f82016109f6565b610cac610ca6610ca185610c9b610a22565b9061100b565b6108ee565b916108ee565b14158015610fc4575b8015610f8d575b8015610f56575b8015610f1f575b8015610ee8575b8015610eb1575b8015610e7a575b8015610e42575b8015610e0a575b8015610dd2575b8015610d9a575b8015610d62575b908115610d29575b50610d125750565b610d23630732d7b560e51b91610c71565b9061103d565b610d3791506101a0016109f6565b610d5a610d54610d4f84610d49610c64565b9061100b565b6108ee565b916108ee565b14155f610d0a565b50610d7061018082016109f6565b610d93610d8d610d8885610d82610c38565b9061100b565b6108ee565b916108ee565b1415610d02565b50610da861016082016109f6565b610dcb610dc5610dc085610dba610c0c565b9061100b565b6108ee565b916108ee565b1415610cfb565b50610de061014082016109f6565b610e03610dfd610df885610df2610be0565b9061100b565b6108ee565b916108ee565b1415610cf4565b50610e1861012082016109f6565b610e3b610e35610e3085610e2a610bb4565b9061100b565b6108ee565b916108ee565b1415610ced565b50610e5061010082016109f6565b610e73610e6d610e6885610e62610b88565b9061100b565b6108ee565b916108ee565b1415610ce6565b50610e8760e082016109f6565b610eaa610ea4610e9f85610e99610b5c565b9061100b565b6108ee565b916108ee565b1415610cdf565b50610ebe60c082016109f6565b610ee1610edb610ed685610ed0610b30565b9061100b565b6108ee565b916108ee565b1415610cd8565b50610ef560a082016109f6565b610f18610f12610f0d85610f07610b03565b9061100b565b6108ee565b916108ee565b1415610cd1565b50610f2c608082016109f6565b610f4f610f49610f4485610f3e610ad6565b9061100b565b6108ee565b916108ee565b1415610cca565b50610f63606082016109f6565b610f86610f80610f7b85610f75610aa9565b9061100b565b6108ee565b916108ee565b1415610cc3565b50610f9a604082016109f6565b610fbd610fb7610fb285610fac610a7c565b9061100b565b6108ee565b916108ee565b1415610cbc565b50610fd1602082016109f6565b610ff4610fee610fe985610fe3610a4f565b9061100b565b6108ee565b916108ee565b1415610cb5565b5f90565b6110089061031f565b90565b6110206110259161101a610ffb565b50610c71565b610fff565b166110386110325f610506565b91610125565b141590565b5f5260018060a01b031660045260245ffdfe60806040526004361015610028575b361561001e5761001c613205565b005b6100266131e6565b005b6100325f356102d1565b806313137d65146102cc57806317442b70146102c757806321d0ee70146102c2578063259982e5146102bd578063264e78e4146102b85780632e428400146102b35780633400288b146102ae57806335aa134a146102a9578063476343ee146102a45780634b3197131461029f578063543e617f1461029a578063575e24b4146102955780635c819057146102905780635e280f111461028b57806369883b4e146102865780636c2bbe7e146102815780636fe7e6eb1461027c578063715018a614610277578063763cef93146102725780637d25a05e1461026d57806382413eac146102685780638da5cb5b146102635780638dd08d0e1461025e57806390b0f155146102595780639f063efc14610254578063a3c2c4621461024f578063b47b2fb11461024a578063b6a8b0fa14610245578063bb0b6a5314610240578063c41b613f1461023b578063c4e833ce14610236578063c6580f1914610231578063ca5eb5e11461022c578063cc3d272114610227578063dc4c90d314610222578063dc98354e1461021d578063e04bc0fa14610218578063e1b4af6914610213578063ec5c49621461020e578063f2fde38b14610209578063f8ad9a6d146102045763ff7bd03d0361000e5761184a565b6117ff565b61166f565b61163b565b6115ed565b6115b8565b611584565b611515565b61148e565b61144c565b611417565b6113d3565b611274565b611226565b61119c565b6110ed565b61100f565b610fdf565b610fac565b610f77565b610f33565b610efa565b610e4a565b610e00565b610d51565b610d33565b610c7f565b610ba7565b610b46565b610abf565b610a88565b6109d3565b61093b565b6108f7565b6108c4565b610890565b610802565b6106fe565b6105bd565b61059f565b6104b3565b610433565b60e01c90565b60405190565b5f80fd5b5f80fd5b5f80fd5b908160609103126102f75790565b6102e5565b90565b610308816102fc565b0361030f57565b5f80fd5b90503590610320826102ff565b565b5f80fd5b5f80fd5b5f80fd5b909182601f830112156103685781359167ffffffffffffffff831161036357602001926001830284011161035e57565b61032a565b610326565b610322565b60018060a01b031690565b6103819061036d565b90565b61038d81610378565b0361039457565b5f80fd5b905035906103a582610384565b565b60e081830312610429576103bd825f83016102e9565b926103cb8360608401610313565b92608083013567ffffffffffffffff811161042457816103ec91850161032e565b9290936103fc8360a08301610398565b9260c082013567ffffffffffffffff811161041f5761041b920161032e565b9091565b6102e1565b6102e1565b6102dd565b5f0190565b61044d6104413660046103a7565b959490949391936118c9565b6104556102d7565b8061045f8161042e565b0390f35b5f80fd5b5f91031261047157565b6102dd565b67ffffffffffffffff1690565b61048c90610476565b9052565b9160206104b19294936104aa60408201965f830190610483565b0190610483565b565b346104e4576104c3366004610467565b6104cb611a0b565b906104e06104d76102d7565b92839283610490565b0390f35b610463565b908160a09103126104f75790565b6102e5565b9081608091031261050a5790565b6102e5565b906101608282031261056c57610527815f8401610398565b9261053582602085016104e9565b926105438360c083016104fc565b9261014082013567ffffffffffffffff811161056757610563920161032e565b9091565b6102e1565b6102dd565b63ffffffff60e01b1690565b61058690610571565b9052565b919061059d905f6020850194019061057d565b565b346105b8576105af36600461050f565b93929092611aa2565b610463565b346105f1576105ed6105dc6105d336600461050f565b93929092611b34565b6105e46102d7565b9182918261058a565b0390f35b610463565b90565b610602816105f6565b0361060957565b5f80fd5b9050359061061a826105f9565b565b9060208282031261063557610632915f0161060d565b90565b6102dd565b634e487b7160e01b5f52603260045260245ffd5b5490565b5f5260205f2090565b6106648161064e565b82101561067e57610676600191610652565b910201905f90565b61063a565b1c90565b90565b61069a90600861069f9302610683565b610687565b90565b906106ad915461068a565b90565b60066106bb8161064e565b8210156106d8576106d5916106cf9161065b565b906106a2565b90565b5f80fd5b6106e5906102fc565b9052565b91906106fc905f602085019401906106dc565b565b3461072e5761072a61071961071436600461061c565b6106b0565b6107216102d7565b918291826106e9565b0390f35b610463565b9060208282031261074c57610749915f01610398565b90565b6102dd565b90565b61076861076361076d9261036d565b610751565b61036d565b90565b61077990610754565b90565b61078590610770565b90565b906107929061077c565b5f5260205260405f2090565b90565b6107b19060086107b69302610683565b61079e565b90565b906107c491546107a1565b90565b6107dd906107d8600e915f92610788565b6107b9565b90565b6107e9906105f6565b9052565b9190610800905f602085019401906107e0565b565b346108325761082e61081d610818366004610733565b6107c7565b6108256102d7565b918291826107ed565b0390f35b610463565b63ffffffff1690565b61084981610837565b0361085057565b5f80fd5b9050359061086182610840565b565b919060408382031261088b578061087f610888925f8601610854565b93602001610313565b90565b6102dd565b346108bf576108a96108a3366004610863565b90611b6c565b6108b16102d7565b806108bb8161042e565b0390f35b610463565b346108f2576108dc6108d736600461061c565b611bf2565b6108e46102d7565b806108ee8161042e565b0390f35b610463565b3461092757610907366004610467565b61092361091261208e565b61091a6102d7565b918291826107ed565b0390f35b610463565b61093860035f906107b9565b90565b3461096b5761094b366004610467565b61096761095661092c565b61095e6102d7565b918291826107ed565b0390f35b610463565b60018060a01b031690565b61098b9060086109909302610683565b610970565b90565b9061099e915461097b565b90565b6109ae600c600290610993565b90565b6109ba90610378565b9052565b91906109d1905f602085019401906109b1565b565b34610a03576109e3366004610467565b6109ff6109ee6109a1565b6109f66102d7565b918291826109be565b0390f35b610463565b90816060910312610a165790565b6102e5565b9061014082820312610a7857610a33815f8401610398565b92610a4182602085016104e9565b92610a4f8360c08301610a08565b9261012082013567ffffffffffffffff8111610a7357610a6f920161032e565b9091565b6102e1565b6102dd565b90565b62ffffff1690565b34610aa157610a98366004610a1b565b93929092612504565b610463565b610abc90610ab7600d915f92610788565b6107b9565b90565b34610aef57610aeb610ada610ad5366004610733565b610aa6565b610ae26102d7565b918291826107ed565b0390f35b610463565b7f000000000000000000000000000000000000000000000000000000000000000090565b610b2190610770565b90565b610b2d90610b18565b9052565b9190610b44905f60208501940190610b24565b565b34610b7657610b56366004610467565b610b72610b61610af4565b610b696102d7565b91829182610b31565b0390f35b610463565b6005610b868161064e565b821015610ba357610ba091610b9a9161065b565b906106a2565b90565b5f80fd5b34610bd757610bd3610bc2610bbd36600461061c565b610b7b565b610bca6102d7565b918291826106e9565b0390f35b610463565b610be581610a7d565b03610bec57565b5f80fd5b90503590610bfd82610bdc565b565b916101a083830312610c7a57610c17825f8501610398565b92610c2583602083016104e9565b92610c338160c084016104fc565b92610c42826101408501610bf0565b92610c51836101608301610bf0565b9261018082013567ffffffffffffffff8111610c7557610c71920161032e565b9091565b6102e1565b6102dd565b34610c9b57610c8f366004610bff565b95949094939193612598565b610463565b610ca98161036d565b03610cb057565b5f80fd5b90503590610cc182610ca0565b565b60020b90565b610cd281610cc3565b03610cd957565b5f80fd5b90503590610cea82610cc9565b565b61010081830312610d2e57610d03825f8301610398565b92610d2b610d1484602085016104e9565b93610d228160c08601610cb4565b9360e001610cdd565b90565b6102dd565b34610d4c57610d43366004610cec565b92919091612619565b610463565b34610d7f57610d61366004610467565b610d69612673565b610d716102d7565b80610d7b8161042e565b0390f35b610463565b610d8d816102fc565b03610d9457565b5f80fd5b90503590610da582610d84565b565b90602082820312610dc057610dbd915f01610d98565b90565b6102dd565b610dce906102fc565b90565b90610ddb90610dc5565b5f5260205260405f2090565b610dfd90610df86007915f92610dd1565b6107b9565b90565b34610e3057610e2c610e1b610e16366004610da7565b610de7565b610e236102d7565b918291826107ed565b0390f35b610463565b9190610e48905f60208501940190610483565b565b34610e7b57610e77610e66610e60366004610863565b90612699565b610e6e6102d7565b91829182610e35565b0390f35b610463565b9060a082820312610ece57610e97815f84016102e9565b92606083013567ffffffffffffffff8111610ec957610ebb83610ec692860161032e565b939094608001610398565b90565b6102e1565b6102dd565b151590565b610ee190610ed3565b9052565b9190610ef8905f60208501940190610ed8565b565b34610f2e57610f2a610f19610f10366004610e80565b929190916126c0565b610f216102d7565b91829182610ee5565b0390f35b610463565b34610f6357610f43366004610467565b610f5f610f4e61270f565b610f566102d7565b918291826109be565b0390f35b610463565b610f7460105f906107b9565b90565b34610fa757610f87366004610467565b610fa3610f92610f68565b610f9a6102d7565b918291826107ed565b0390f35b610463565b34610fda57610fc4610fbf366004610733565b61278b565b610fcc6102d7565b80610fd68161042e565b0390f35b610463565b34610ffb57610fef366004610bff565b95949094939193612808565b610463565b61100c60045f906107b9565b90565b3461103f5761101f366004610467565b61103b61102a611000565b6110326102d7565b918291826107ed565b0390f35b610463565b919091610160818403126110b25761105e835f8301610398565b9261106c81602084016104e9565b9261107a8260c08501610a08565b92611089836101208301610bf0565b9261014082013567ffffffffffffffff81116110ad576110a9920161032e565b9091565b6102e1565b6102dd565b600f0b90565b6110c6906110b7565b9052565b9160206110eb9294936110e460408201965f83019061057d565b01906110bd565b565b346111255761110c611100366004611044565b949390939291926128b0565b906111216111186102d7565b928392836110ca565b0390f35b610463565b9190916101208184031261119757611144835f8301610398565b9261115281602084016104e9565b926111608260c0850161060d565b9261116e8360e0830161060d565b9261010082013567ffffffffffffffff81116111925761118e920161032e565b9091565b6102e1565b6102dd565b346111b8576111ac36600461112a565b94939093929192612942565b610463565b906020828203126111d6576111d3915f01610854565b90565b6102dd565b6111ef6111ea6111f492610837565b610751565b610837565b90565b90611201906111db565b5f5260205260405f2090565b6112239061121e6001915f926111f7565b6106a2565b90565b346112565761125261124161123c3660046111bd565b61120d565b6112496102d7565b918291826106e9565b0390f35b610463565b6112719061126c6002915f92610788565b6107b9565b90565b346112a4576112a061128f61128a366004610733565b61125b565b6112976102d7565b918291826107ed565b0390f35b610463565b6112b290610ed3565b9052565b906101a0806113bb936112cf5f8201515f8601906112a9565b6112e1602082015160208601906112a9565b6112f3604082015160408601906112a9565b611305606082015160608601906112a9565b611317608082015160808601906112a9565b61132960a082015160a08601906112a9565b61133b60c082015160c08601906112a9565b61134d60e082015160e08601906112a9565b6113616101008201516101008601906112a9565b6113756101208201516101208601906112a9565b6113896101408201516101408601906112a9565b61139d6101608201516101608601906112a9565b6113b16101808201516101808601906112a9565b01519101906112a9565b565b91906113d1905f6101c085019401906112b6565b565b34611403576113e3366004610467565b6113ff6113ee612a3f565b6113f66102d7565b918291826113bd565b0390f35b610463565b611414600f5f906107b9565b90565b3461144757611427366004610467565b611443611432611408565b61143a6102d7565b918291826107ed565b0390f35b610463565b3461147a5761146461145f366004610733565b612bfe565b61146c6102d7565b806114768161042e565b0390f35b610463565b61148b600a5f906107b9565b90565b346114be5761149e366004610467565b6114ba6114a961147f565b6114b16102d7565b918291826107ed565b0390f35b610463565b7f000000000000000000000000000000000000000000000000000000000000000090565b6114f090610770565b90565b6114fc906114e7565b9052565b9190611513905f602085019401906114f3565b565b3461154557611525366004610467565b6115416115306114c3565b6115386102d7565b91829182611500565b0390f35b610463565b909160e08284031261157f5761157c611565845f8501610398565b9361157381602086016104e9565b9360c001610cb4565b90565b6102dd565b3461159a5761159436600461154a565b91612c72565b610463565b6115b5906115b06008915f92610dd1565b6107b9565b90565b346115e8576115e46115d36115ce366004610da7565b61159f565b6115db6102d7565b918291826107ed565b0390f35b610463565b34611609576115fd36600461112a565b94939093929192612cee565b610463565b9190604083820312611636578061162a611633925f8601610398565b93602001610313565b90565b6102dd565b3461166a5761165461164e36600461160e565b9061302f565b61165c6102d7565b806116668161042e565b0390f35b610463565b3461169d57611687611682366004610733565b6130a0565b61168f6102d7565b806116998161042e565b0390f35b610463565b5f80fd5b601f801991011690565b634e487b7160e01b5f52604160045260245ffd5b906116ce906116a6565b810190811067ffffffffffffffff8211176116e857604052565b6116b0565b906117006116f96102d7565b92836116c4565b565b67ffffffffffffffff81116117205761171c6020916116a6565b0190565b6116b0565b90825f939282370152565b9092919261174561174082611702565b6116ed565b938185526020850190828401116117615761175f92611725565b565b6116a2565b9080601f830112156117845781602061178193359101611730565b90565b610322565b6080818303126117fa575f81013567ffffffffffffffff81116117f557826117b2918301611766565b92602082013567ffffffffffffffff81116117f0576117d6846117ed928501611766565b936117e4816040860161060d565b93606001610398565b90565b6102e1565b6102e1565b6102dd565b61181661180d366004611789565b9291909161311d565b61181e6102d7565b806118288161042e565b0390f35b9060608282031261184557611842915f016102e9565b90565b6102dd565b3461187a5761187661186561186036600461182c565b61319e565b61186d6102d7565b91829182610ee5565b0390f35b610463565b3561188981610840565b90565b35611896816102ff565b90565b6118a290610837565b9052565b9160206118c79294936118c060408201965f830190611899565b01906106dc565b565b96959391949290946118fa7f0000000000000000000000000000000000000000000000000000000000000000610b18565b61190c61190633610378565b91610378565b036119905761192461191f5f8a0161187f565b613259565b61194161193b61193660208c0161188c565b6102fc565b916102fc565b03611959576119579697959091929394956132ba565b565b87611971602061196a5f840161187f565b920161188c565b9061198c5f92839263309afaf360e21b8452600484016118a6565b0390fd5b6119ab335f9182916391ac5e4f60e01b8352600483016109be565b0390fd5b5f90565b90565b6119ca6119c56119cf926119b3565b610751565b610476565b90565b6119dc60016119b6565b90565b90565b6119f66119f16119fb926119df565b610751565b610476565b90565b611a0860026119e2565b90565b611a136119af565b50611a1c6119af565b50611a256119d2565b90611a2e6119fe565b90565b5f90565b33611a70611a6a611a657f00000000000000000000000000000000000000000000000000000000000000006114e7565b610378565b91610378565b0315611a92575f63570c108560e11b815280611a8e6004820161042e565b0390fd5b94939291945093909192936132e0565b611aaa611a31565b611a35565b949392919033611aef611ae9611ae47f00000000000000000000000000000000000000000000000000000000000000006114e7565b610378565b91610378565b03611b0057611afd95611b1c565b90565b5f63570c108560e11b815280611b186004820161042e565b0390fd5b90611b3195939194929450939091929361341d565b90565b90611b4994939291611b44611a31565b611aaf565b90565b90611b5e91611b59613543565b611b60565b565b90611b6a916135b1565b565b90611b7691611b4c565b565b611b8990611b84613543565b611be5565b565b5f1b90565b90611b9c5f1991611b8b565b9181191691161790565b611bba611bb5611bbf926105f6565b610751565b6105f6565b90565b90565b90611bda611bd5611be192611ba6565b611bc2565b8254611b90565b9055565b611bf090600a611bc5565b565b611bfb90611b78565b565b5f90565b5f1c90565b611c12611c1791611c01565b61079e565b90565b611c249054611c06565b90565b60209181520190565b60207f696e000000000000000000000000000000000000000000000000000000000000917f57697468647261773a206e6f74206f6e2064657374696e6174696f6e206368615f8201520152565b611c8a6022604092611c27565b611c9381611c30565b0190565b611cac9060208101905f818303910152611c7d565b90565b60101c90565b611cc1611cc691611caf565b610970565b90565b611cd39054611cb5565b90565b611cdf90610754565b90565b611ceb90611cd6565b90565b611cf790610770565b90565b5f80fd5b60e01b90565b90505190611d11826105f9565b565b90602082820312611d2c57611d29915f01611d04565b90565b6102dd565b611d396102d7565b3d5f823e3d90fd5b90565b611d58611d53611d5d92611d41565b610751565b6105f6565b90565b5f7f546f74616c20737570706c79206973207a65726f000000000000000000000000910152565b611d946014602092611c27565b611d9d81611d60565b0190565b611db69060208101905f818303910152611d87565b90565b15611dc057565b611dc86102d7565b62461bcd60e51b815280611dde60048201611da1565b0390fd5b5f7f557365722062616c616e6365206973207a65726f000000000000000000000000910152565b611e166014602092611c27565b611e1f81611de2565b0190565b611e389060208101905f818303910152611e09565b90565b15611e4257565b611e4a6102d7565b62461bcd60e51b815280611e6060048201611e23565b0390fd5b634e487b7160e01b5f52601160045260245ffd5b611e87611e8d919392936105f6565b926105f6565b8203918211611e9857565b611e64565b611eac611eb2919392936105f6565b926105f6565b91611ebe8382026105f6565b928184041490151715611ecd57565b611e64565b611ee1611ee7919392936105f6565b926105f6565b8201809211611ef257565b611e64565b5f7f4e6f20737570706c7920686973746f7279000000000000000000000000000000910152565b611f2b6011602092611c27565b611f3481611ef7565b0190565b611f4d9060208101905f818303910152611f1e565b90565b15611f5757565b611f5f6102d7565b62461bcd60e51b815280611f7560048201611f38565b0390fd5b90565b611f90611f8b611f9592611f79565b610751565b6105f6565b90565b634e487b7160e01b5f52601260045260245ffd5b611fb8611fbe916105f6565b916105f6565b908115611fc9570490565b611f98565b5f7f4e6f7468696e6720746f20776974686472617700000000000000000000000000910152565b6120026013602092611c27565b61200b81611fce565b0190565b6120249060208101905f818303910152611ff5565b90565b1561202e57565b6120366102d7565b62461bcd60e51b81528061204c6004820161200f565b0390fd5b61208561208c9461207b606094989795612071608086019a5f8701906107e0565b60208501906107e0565b60408301906109b1565b01906107e0565b565b612096611bfd565b50466120b36120ad6120a8600b611c1a565b6105f6565b916105f6565b0361246b57336120ee60206120d86120d36120ce600c611cc9565b611ce2565b611cee565b6318160ddd906120e66102d7565b938492611cfe565b825281806120fe6004820161042e565b03915afa908115612466575f91612438575b509061215b602061213161212c612127600c611cc9565b611ce2565b611cee565b6370a082319061215033926121446102d7565b95869485938493611cfe565b8352600483016109be565b03915afa908115612433575f91612405575b509061218b8361218561217f5f611d44565b916105f6565b11611db9565b6121a7826121a161219b5f611d44565b916105f6565b11611e3b565b612215426121b56010611c1a565b6121c76121c15f611d44565b916105f6565b036123c6575b6121d8816010611bc5565b6121ec6121e7600e8590610788565b611c1a565b6121fe6121f85f611d44565b916105f6565b03612372575b612210600e8490610788565b611bc5565b61223a612222600f611c1a565b61223461222e5f611d44565b916105f6565b11611f50565b6122c56122ab61229461228461227461225d612258600d8890610788565b611c1a565b61226e670de0b6b3a7640000611f7c565b90611e9d565b61227e600f611c1a565b90611fac565b61228e6004611c1a565b90611e9d565b6122a5670de0b6b3a7640000611f7c565b90611fac565b6122bf6122ba60028590610788565b611c1a565b90611e78565b926122e2846122dc6122d65f611d44565b916105f6565b11612027565b61230a846123046122f560028690610788565b916122ff83611c1a565b611ed2565b90611bc5565b6123276123208561231b6003611c1a565b611ed2565b6003611bc5565b6123328285906136e9565b91909161236c847f191a58d19a6a9b76e2e91bdc04ecbe7553dc094a5ad7af78175a0d9f884e264a946123636102d7565b94859485612050565b0390a190565b6123c161239d856123978461239161238c600e8a90610788565b611c1a565b90611e78565b90611e9d565b6123bb6123ac600d8790610788565b916123b683611c1a565b611ed2565b90611bc5565b612204565b6124006123f96123ea876123e4856123de6010611c1a565b90611e78565b90611e9d565b6123f4600f611c1a565b611ed2565b600f611bc5565b6121cd565b612426915060203d811161242c575b61241e81836116c4565b810190611d13565b5f61216d565b503d612414565b611d31565b612459915060203d811161245f575b61245181836116c4565b810190611d13565b5f612110565b503d612447565b611d31565b6124736102d7565b62461bcd60e51b81528061248960048201611c97565b0390fd5b5f90565b5f90565b336124d06124ca6124c57f00000000000000000000000000000000000000000000000000000000000000006114e7565b610378565b91610378565b03156124f2575f63570c108560e11b8152806124ee6004820161042e565b0390fd5b96959493965050509390919293613718565b61250c611a31565b61251461248d565b61251c612491565b91612495565b5f90565b3361256161255b6125567f00000000000000000000000000000000000000000000000000000000000000006114e7565b610378565b91610378565b0315612583575f63570c108560e11b81528061257f6004820161042e565b0390fd5b9796959493929750509590919293949561374f565b6125a0611a31565b6125a8612522565b90612526565b336125e96125e36125de7f00000000000000000000000000000000000000000000000000000000000000006114e7565b610378565b91610378565b031561260b575f63570c108560e11b8152806126076004820161042e565b0390fd5b93929193509290919261377d565b612621611a31565b6125ae565b61262e613543565b612636612660565b565b61264c61264761265192611d41565b610751565b61036d565b90565b61265d90612638565b90565b61267161266c5f612654565b6137dd565b565b61267b612626565b565b61269161268c61269692611d41565b610751565b610476565b90565b50506126a36119af565b506126ad5f61267d565b90565b5f90565b6126bd90610770565b90565b5050506126cb6126b0565b506126e66126e06126db306126b4565b610378565b91610378565b1490565b5f90565b6126fa6126ff91611c01565b610970565b90565b61270c90546126ee565b90565b6127176126ea565b506127215f612702565b90565b61273590612730613543565b61277e565b565b60101b90565b9061275162010000600160b01b0391612737565b9181191691161790565b90565b9061277361276e61277a9261077c565b61275b565b825461273d565b9055565b61278990600c61275e565b565b61279490612724565b565b336127d16127cb6127c67f00000000000000000000000000000000000000000000000000000000000000006114e7565b610378565b91610378565b03156127f3575f63570c108560e11b8152806127ef6004820161042e565b0390fd5b9796959493929750509590919293949561383c565b612810611a31565b612818612522565b90612796565b5f90565b969594939291903361286461285e6128597f00000000000000000000000000000000000000000000000000000000000000006114e7565b610378565b91610378565b036128765761287297612892565b9091565b5f63570c108560e11b81528061288e6004820161042e565b0390fd5b906128aa979593969492915050949091929394613fd0565b91909190565b906128cf95949392916128c1611a31565b6128c961281e565b90612822565b9091565b3361290e6129086129037f00000000000000000000000000000000000000000000000000000000000000006114e7565b610378565b91610378565b0315612930575f63570c108560e11b81528061292c6004820161042e565b0390fd5b9594939291955094909192939461463e565b61294a611a31565b6128d3565b61295a6101c06116ed565b90565b5f90565b6020908180808080808080808080808061297961294f565b9e8f61298361295d565b81520161298e61295d565b81520161299961295d565b8152016129a461295d565b8152016129af61295d565b8152016129ba61295d565b8152016129c561295d565b8152016129d061295d565b8152016129db61295d565b8152016129e661295d565b8152016129f161295d565b8152016129fc61295d565b815201612a0761295d565b815201612a1261295d565b81525050565b612a20612961565b90565b612a2e6101c06116ed565b90565b90612a3b90610ed3565b9052565b612a47612a18565b505f8060015f805f8060015f915f935f956001975f995f9b612a67612a23565b809e5f820190612a7691612a31565b60200190612a8391612a31565b60408d0190612a9191612a31565b60608c0190612a9f91612a31565b60808b0190612aad91612a31565b60a08a0190612abb91612a31565b60c0890190612ac991612a31565b60e0880190612ad791612a31565b610100870190612ae691612a31565b610120860190612af591612a31565b610140850190612b0491612a31565b610160840190612b1391612a31565b610180830190612b2291612a31565b6101a0820190612b3191612a31565b90565b612b4590612b40613543565b612b56565b565b5f910312612b5157565b6102dd565b612b7f7f0000000000000000000000000000000000000000000000000000000000000000610b18565b9063ca5eb5e190823b15612bf957612bb692612bab5f8094612b9f6102d7565b96879586948593611cfe565b8352600483016109be565b03925af18015612bf457612bc8575b50565b612be7905f3d8111612bed575b612bdf81836116c4565b810190612b47565b5f612bc5565b503d612bd5565b611d31565b611cfa565b612c0790612b34565b565b33612c44612c3e612c397f00000000000000000000000000000000000000000000000000000000000000006114e7565b610378565b91610378565b0315612c66575f63570c108560e11b815280612c626004820161042e565b0390fd5b92919250919091614663565b612c7a611a31565b612c09565b33612cba612cb4612caf7f00000000000000000000000000000000000000000000000000000000000000006114e7565b610378565b91610378565b0315612cdc575f63570c108560e11b815280612cd86004820161042e565b0390fd5b95949392919550949091929394614688565b612cf6611a31565b612c7f565b90612d0d91612d08613543565b612f2f565b565b5f7f546f6b656e204944206e6f7420666f756e640000000000000000000000000000910152565b612d436012602092611c27565b612d4c81612d0f565b0190565b612d659060208101905f818303910152612d36565b90565b15612d6f57565b612d776102d7565b62461bcd60e51b815280612d8d60048201612d50565b0390fd5b90565b5f5260205f2090565b5490565b612daa81612d9d565b821015612dc457612dbc600191612d94565b910201905f90565b61063a565b1b90565b91906008612de8910291612de25f1984612dc9565b92612dc9565b9181191691161790565b612dfb90611c01565b90565b9190612e14612e0f612e1c93610dc5565b612df2565b908354612dcd565b9055565b9081549168010000000000000000831015612e505782612e48916001612e4e95018155612da1565b90612dfe565b565b6116b0565b60018060a01b031690565b612e6c612e7191611c01565b612e55565b90565b612e7e9054612e60565b90565b612e8a90610770565b90565b612e9690610754565b90565b612ea290612e8d565b90565b612eae90610754565b90565b612eba90612ea5565b90565b612ec690610770565b90565b612ed290610770565b90565b60209181520190565b612ee95f8092612ed5565b0190565b9091612f2c93612f15612f1f92612f0b60808601965f8701906109b1565b60208501906109b1565b60408301906107e0565b6060818303910152612ede565b90565b612f7a612f4d612f48612f4185610dc5565b6008610dd1565b611c1a565b92612f6b84612f64612f5e5f611d44565b916105f6565b1415612d68565b612f756006612d91565b612e20565b612fa4612f9f612f9a612f95612f906009612e74565b612e81565b612e99565b612eb1565b612ebd565b9063b88d4fde91612fb430612ec9565b919392813b1561302a575f612fdc91612fe78296612fd06102d7565b98899788968795611cfe565b855260048501612eed565b03925af1801561302557612ff9575b50565b613018905f3d811161301e575b61301081836116c4565b810190612b47565b5f612ff6565b503d613006565b611d31565b611cfa565b9061303991612cfb565b565b61304c90613047613543565b61304e565b565b8061306961306361305e5f612654565b610378565b91610378565b1461307957613077906137dd565b565b61309c6130855f612654565b5f918291631e4fbdf760e01b8352600483016109be565b0390fd5b6130a99061303b565b565b61ffff1690565b6130be6130c391611c01565b6130ab565b90565b6130d090546130b2565b90565b6130dd60406116ed565b90565b906130ea906105f6565b9052565b61ffff1690565b61310961310461310e926130ee565b610751565b610837565b90565b61311a90610770565b90565b9161317a939161317461316e613168613136600c6130c6565b9693949561316361315a5f61315561314c6130d3565b9a5f8c016130e0565b611d44565b602089016130e0565b612e99565b956130f5565b94613111565b936147e2565b50565b61318961318e91611c01565b610687565b90565b61319b905461317d565b90565b6131a66126b0565b506131e26131dc6131d760206131d06131cb60016131c55f890161187f565b906111f7565b613191565b940161188c565b6102fc565b916102fc565b1490565b6132036131fc346131f76004611c1a565b611ed2565b6004611bc5565b565b61322261321b346132166004611c1a565b611ed2565b6004611bc5565b565b5f90565b61323c61323761324192611d41565b611b8b565b6102fc565b90565b9190613257905f60208501940190611899565b565b613261613224565b50613276613271600183906111f7565b613191565b908161329261328c6132875f613228565b6102fc565b916102fc565b1461329b575090565b6132b6905f91829163f6ff4fb760e01b835260048301613244565b0390fd5b505050505050506132de6132d7346132d26004611c1a565b611ed2565b6004611bc5565b565b6132e8611a31565b505f630a85dc2960e01b8152806133016004820161042e565b0390fd5b5f80fd5b61331281610378565b0361331957565b5f80fd5b9050359061332a82613309565b565b61333581610a80565b0361333c57565b5f80fd5b9050359061334d8261332c565b565b61335890610378565b90565b6133648161334f565b0361336b57565b5f80fd5b9050359061337c8261335b565b565b919060a0838203126133ee576133e79061339860a06116ed565b936133a5825f830161331d565b5f8601526133b6826020830161331d565b60208601526133c88260408301613340565b60408601526133da8260608301610cdd565b606086015260800161336f565b6080830152565b613305565b6133fe90369061337e565b90565b61341561341061341a926119b3565b610751565b6105f6565b90565b50905061343d92506134389150613432611a31565b506133f3565b614959565b61345161344c60088390610dd1565b611c1a565b61346361345d5f611d44565b916105f6565b14613475575b5063259982e560e01b90565b6134a390602061348d6134886009612e74565b612e81565b6375794a3c9061349b6102d7565b948592611cfe565b825281806134b36004820161042e565b03915afa801561353e576134e06134f19161350a945f91613510575b506134da6001613401565b90611e78565b6134ec60088490610dd1565b611bc5565b6135046134fe6005612d91565b91610dc5565b90612e20565b5f613469565b613531915060203d8111613537575b61352981836116c4565b810190611d13565b5f6134cf565b503d61351f565b611d31565b61354b61270f565b61356461355e613559614969565b610378565b91610378565b0361356b57565b61358d613576614969565b5f91829163118cdaa760e01b8352600483016109be565b0390fd5b906135a66135a16135ad92610dc5565b612df2565b8254611b90565b9055565b6135c6826135c1600184906111f7565b613591565b907f238399d427b947898edb290f5ff0f9109849b1c3ba196a42e35f00c50a54b98b916135fd6135f46102d7565b928392836118a6565b0390a1565b905090565b6136125f8092613602565b0190565b61361f90613607565b90565b9061363461362f83611702565b6116ed565b918252565b606090565b3d5f146136595761364e3d613622565b903d5f602084013e5b565b613661613639565b90613657565b5f7f455448207472616e73666572206661696c656400000000000000000000000000910152565b61369b6013602092611c27565b6136a481613667565b0190565b6136bd9060208101905f81830391015261368e565b90565b156136c757565b6136cf6102d7565b62461bcd60e51b8152806136e5600482016136a8565b0390fd5b5f613716928192906136f96102d7565b908161370481613616565b03925af161371061363e565b506136c0565b565b613720611a31565b5061372961248d565b50613732612491565b505f630a85dc2960e01b81528061374b6004820161042e565b0390fd5b613757611a31565b50613760612522565b505f630a85dc2960e01b8152806137796004820161042e565b0390fd5b613785611a31565b505f630a85dc2960e01b81528061379e6004820161042e565b0390fd5b906137b360018060a01b0391611b8b565b9181191691161790565b906137d26137cd6137d99261077c565b61275b565b82546137a2565b9055565b6137e65f612702565b6137f0825f6137bd565b9061382461381e7f8be0079c531659141344cd1fd0a4f28419497f9722a3daafe3b4186f6b6457e09361077c565b9161077c565b9161382d6102d7565b806138378161042e565b0390a3565b613844611a31565b5061384d612522565b505f630a85dc2960e01b8152806138666004820161042e565b0390fd5b61387381610ed3565b0361387a57565b5f80fd5b356138888161386a565b90565b61389481610a7d565b0361389b57565b5f80fd5b356138a98161388b565b90565b6138c06138bb6138c592611d41565b610751565b610a7d565b90565b6138d190610a7d565b600160ff1b81146138e1575f0390565b611e64565b6138fa6138f56138ff92610a7d565b610751565b6105f6565b90565b3561390c8161332c565b90565b61392361391e61392892610a80565b610751565b6105f6565b90565b90565b61394261393d6139479261392b565b610751565b6105f6565b90565b6139546001613401565b90565b60ff1690565b61397161396c613976926105f6565b610751565b613957565b90565b90565b61399061398b61399592613979565b610751565b6105f6565b90565b6139a2601161397c565b90565b60f81b90565b6139b4906139a5565b90565b6139c36139c891613957565b6139ab565b9052565b6001816139de6139e6938396956139b7565b0180926139b7565b0190565b6139fe6139f9613a03926119df565b610751565b6105f6565b90565b67ffffffffffffffff8111613a1e5760208091020190565b6116b0565b90613a35613a3083613a06565b6116ed565b918252565b606090565b5f5b828110613a4d57505050565b602090613a58613a3a565b8184015201613a41565b90613a87613a6f83613a23565b92602080613a7d8693613a06565b9201910390613a3f565b565b67ffffffffffffffff8111613aa757613aa36020916116a6565b0190565b6116b0565b90613abe613ab983613a89565b6116ed565b918252565b613acc5f613aac565b90565b613ad7613ac3565b90565b613aee613ae9613af392611d41565b610751565b613957565b90565b613aff90613ada565b9052565b5190565b90825f9392825e0152565b613b31613b3a602093613b3f93613b2881613b03565b93848093612ed5565b95869101613b07565b6116a6565b0190565b9193613b7a613b919694613b70613b849497613b6660a08801995f8901906107e0565b6020870190613af6565b6040850190613af6565b6060830190613af6565b6080818403910152613b12565b90565b5190565b90613ba282613b94565b811015613bb3576020809102010190565b61063a565b35613bc281613309565b90565b613bce9061077c565b9052565b604090613bfb613c029496959396613bf160608401985f850190613bc5565b6020830190613bc5565b01906109b1565b565b60209181520190565b60200190565b60209181520190565b613c3b613c44602093613c4993613c3281613b03565b93848093613c13565b95869101613b07565b6116a6565b0190565b90613c5791613c1c565b90565b60200190565b90613c74613c6d83613b94565b8092613c04565b9081613c8560208302840194613c0d565b925f915b838310613c9857505050505090565b90919293946020613cba613cb483856001950387528951613c4d565b97613c5a565b9301930191939290613c89565b9091613ce1613cef9360408401908482035f860152613b12565b916020818403910152613c60565b90565b6fffffffffffffffffffffffffffffffff1690565b613d1b613d16613d20926105f6565b610751565b613cf2565b90565b90565b613d3a613d35613d3f92613d23565b610751565b613cf2565b90565b90565b613d59613d54613d5e92613d42565b610751565b613cf2565b90565b613d6d613d7391613cf2565b91613cf2565b9003906fffffffffffffffffffffffffffffffff8211613d8f57565b611e64565b90613d9e906130f5565b5f5260205260405f2090565b613db460a06116ed565b90565b90613dc190610837565b9052565b60ff60f81b1690565b613dd790613dc5565b90565b90613de4906102fc565b9052565b52565b9190604083820312613e2557613e1e90613e0560406116ed565b93613e12825f8301611d04565b5f860152602001611d04565b6020830152565b613305565b90604082820312613e4357613e40915f01613deb565b90565b6102dd565b613e5190610837565b9052565b613e5e906102fc565b9052565b90613ec590608080613eba613ea860a08501613e845f8901515f880190613e48565b613e9660208901516020880190613e55565b60408801518682036040880152613c1c565b60608701518582036060870152613c1c565b9401519101906112a9565b90565b92916020613ee4613eec9360408701908782035f890152613e62565b9401906109b1565b565b613ef890516105f6565b90565b613f07613f0d91613cf2565b91613cf2565b01906fffffffffffffffffffffffffffffffff8211613f2857565b611e64565b613f3690610754565b90565b613f4290613f2d565b90565b613f59613f54613f5e92613cf2565b610751565b6105f6565b90565b613f6a90613f45565b9052565b613fab613fa0613fb295979694613f9260609560808601908682035f880152613b12565b908482036020860152613b12565b966040830190613f61565b01906109b1565b565b613fc8613fc3613fcd92611d41565b610751565b6110b7565b90565b509250925050613fde611a31565b50613fe761281e565b50613ff9613ff4826133f3565b614959565b916140055f820161387e565b80614619575b61459e575b5061402561402060078490610dd1565b611c1a565b61404061403a614035600a611c1a565b6105f6565b916105f6565b101561405e575b505063b47b2fb160e01b9061405b5f613fb4565b90565b61406e61406961394a565b61395d565b6140a861408161407c613998565b61395d565b9161409961408d6102d7565b938492602084016139cc565b602082018103825203826116c4565b6140ba6140b560026139ea565b613a62565b9061412d6140d26140cd60088790610dd1565b611c1a565b6141085f916140f95f806140e4613acf565b916140ed6102d7565b96879560208701613b43565b602082018103825203826116c4565b61412784915f9061412161411b83611d44565b85613b98565b52611d44565b90613b98565b51506141a261413d5f8501613bb8565b61417c61414c60208701613bb8565b9161416d61415930612ec9565b6141616102d7565b94859360208501613bd2565b602082018103825203826116c4565b61419c849160019061419661419083613401565b85613b98565b52613401565b90613b98565b51506141b66141b16009612e74565b612e81565b91634afe393c919092803b15614599576141e35f80946141ee6141d76102d7565b97889687958694611cfe565b845260048401613cc7565b03925af1801561459457614568575b5061421261420d60208301613bb8565b6149a6565b61422461421e5f611d44565b916105f6565b11614534575b504661424761424161423c600b611c1a565b6105f6565b916105f6565b03614271575b61426a9061426561425d5f611d44565b916007610dd1565b611bc5565b5f80614047565b6142796102d7565b614298816142896020820161042e565b602082018103825203826116c4565b906142ab6142a530612ec9565b31613d07565b916142b86207a120613d26565b6142c86601c6bf52634000613d45565b906142e66142d4614bab565b826142e0888690613d61565b91614ccb565b916143107f0000000000000000000000000000000000000000000000000000000000000000610b18565b9263ddc28c5893614321600c6130c6565b9061433f61433a6001614334600c6130c6565b90613d94565b613191565b926143495f611d44565b90602082101561452f576143ae6143666040966143b7941a6139a5565b916143a58b61439d6143945f9661438f614387614381613daa565b9c6130f5565b5f8d01613db7565b613dce565b60208a01613dda565b888801613de8565b60608601613de8565b60808401612a31565b6143db6143c330612ec9565b966143e66143cf6102d7565b98899586948594611cfe565b845260048401613ec8565b03915afa801561452a5761441261440d5f6144349361443a9782916144fc575b5001613eee565b613d07565b61442f614428614420614bab565b95948a613d61565b8990613efb565b613d61565b91614ccb565b61445b61445661445161444c30612ec9565b612e99565b613f39565b612ec9565b63f8ad9a6d9061446d86919291613f45565b9392959361447a30612ec9565b91833b156144f7576144aa61449f935f976144936102d7565b9a8b9889978896611cfe565b865260048601613f6e565b03925af19182156144f25761426a926144c6575b50905061424d565b6144e5905f3d81116144eb575b6144dd81836116c4565b810190612b47565b5f6144be565b503d6144d3565b611d31565b611cfa565b61451d915060403d8111614523575b61451581836116c4565b810190613e2a565b5f614406565b503d61450b565b611d31565b61063a565b8061454460206145629301613bb8565b9061455c614557602061dead9301613bb8565b6149a6565b91614a81565b5f61422a565b614587905f3d811161458d575b61457f81836116c4565b810190612b47565b5f6141fd565b503d614575565b611d31565b611cfa565b6145ef6145dd6145c36145be6145b96020614613960161389f565b6138c8565b6138e6565b6145d76145d260408701613902565b61390f565b90611e9d565b6145e9620f424061392e565b90611fac565b61460d6145fe60078690610dd1565b9161460883611c1a565b611ed2565b90611bc5565b5f614010565b506146266020820161389f565b6146386146325f6138ac565b91610a7d565b1261400b565b614646611a31565b505f630a85dc2960e01b81528061465f6004820161042e565b0390fd5b61466b611a31565b505f630a85dc2960e01b8152806146846004820161042e565b0390fd5b614690611a31565b505f630a85dc2960e01b8152806146a96004820161042e565b0390fd5b6146b760606116ed565b90565b5f90565b5f90565b6146cc60406116ed565b90565b5f90565b6146db6146c2565b90602080836146e86146cf565b8152016146f36146cf565b81525050565b6147016146d3565b90565b61470c6146ad565b90602080808461471a6146ba565b8152016147256146be565b8152016147306146f9565b81525050565b61473e614704565b90565b9050519061474e826102ff565b565b61475981610476565b0361476057565b5f80fd5b9050519061477182614750565b565b91906080838203126147bf576147b89061478d60606116ed565b9361479a825f8301614741565b5f8601526147ab8260208301614764565b6020860152604001613deb565b6040830152565b613305565b906080828203126147dd576147da915f01614773565b90565b6102dd565b608093915f93956148d06148e8936147f8614736565b506148c861480f61480a898901613eee565b614ce1565b9661481c60208201613eee565b61482e6148288b611d44565b916105f6565b1161493c575b6148bf6148607f0000000000000000000000000000000000000000000000000000000000000000610b18565b9b6148b6632637a4509a9d9a9d986148ad614888602061487f8a613259565b93959701613eee565b61489b8f61489590611d44565b916105f6565b11976148a5613daa565b9e8f01613db7565b60208d01613dda565b60408b01613de8565b60608901613de8565b878701612a31565b956148f36148dc6102d7565b97889687958694611cfe565b845260048401613ec8565b03925af1908115614937575f91614909575b5090565b61492a915060803d8111614930575b61492281836116c4565b8101906147c4565b5f614905565b503d614918565b611d31565b61495061494b60208301613eee565b614d69565b614834565b5f90565b60a090614964614955565b502090565b6149716126ea565b503390565b61497f90610754565b90565b61498b90614976565b90565b61499790610770565b90565b6149a390610770565b90565b6149ae611bfd565b506149b881614e94565b5f146149cc57506149c83061499a565b3190565b60206149ea6149e56149e0614a1c9461077c565b614982565b61498e565b6370a0823190614a116149fc3061499a565b92614a056102d7565b95869485938493611cfe565b8352600483016109be565b03915afa908115614a60575f91614a32575b5090565b614a53915060203d8111614a59575b614a4b81836116c4565b810190611d13565b5f614a2e565b503d614a41565b611d31565b614a79614a74614a7e92611d41565b611cfe565b610571565b90565b919091614a8c6126b0565b50614a9681614e94565b5f14614acd57505f808080614aae94865af115610ed3565b614ab657505b565b614abf5f614a65565b633d2cec6f60e21b91614ecb565b91614b1f916040519163a9059cbb60e01b835260018060a01b0316600483015260248201525f604060208260448582895af13d15601f3d11600185511416171692828152826020820152015215610ed3565b614b295750614ab4565b614b329061077c565b63a9059cbb60e01b633c9fd93960e21b91614ecb565b90565b614b5f614b5a614b6492614b48565b610751565b6130ee565b90565b614b716003614b4b565b90565b60f01b90565b614b8390614b74565b90565b614b92614b97916130ee565b614b7a565b9052565b614ba781600293614b86565b0190565b614bb3613639565b50614bd6614be5614bc2614b67565b614bca6102d7565b92839160208301614b9b565b602082018103825203826116c4565b90565b614bf1906130ee565b9052565b9190614c08905f60208501940190614be8565b565b939291908094614c2386614c1d5f611d44565b90614fc2565b614c3c614c36614c31614b67565b6130ee565b916130ee565b03614c4f57614c4c949550614ca9565b90565b614c7c614c6587614c5f5f611d44565b90614fc2565b5f918291633a51740d60e01b835260048301614bf5565b0390fd5b614c94614c8f614c99926119b3565b610751565b613957565b90565b614ca66001614c80565b90565b92614cb99192614cc89450615085565b614cc1614c9c565b9091615295565b90565b90614cde9291614cd9613639565b614c0a565b90565b614ce9611bfd565b5034614cfd614cf7836105f6565b916105f6565b03614d055790565b614d20345f9182916304fb820960e51b8352600483016107ed565b0390fd5b90505190614d3182610384565b565b90602082820312614d4c57614d49915f01614d24565b90565b6102dd565b614d5a90610754565b90565b614d6690614d51565b90565b614dad6020614d977f0000000000000000000000000000000000000000000000000000000000000000610b18565b63e4fe1d9490614da56102d7565b938492611cfe565b82528180614dbd6004820161042e565b03915afa908115614e7b575f91614e4d575b509081614dec614de6614de15f612654565b610378565b91610378565b14614e3157614dfd614e2f92614d5d565b9033614e287f0000000000000000000000000000000000000000000000000000000000000000610b18565b9192615305565b565b5f6329b99a9560e11b815280614e496004820161042e565b0390fd5b614e6e915060203d8111614e74575b614e6681836116c4565b810190614d33565b5f614dcf565b503d614e5c565b611d31565b614e91614e8c5f612654565b61077c565b90565b614ea690614ea06126b0565b5061077c565b614ec7614ec1614ebc614eb7614e80565b61077c565b610378565b91610378565b1490565b826390bfb86560e01b92602080601f3d0104029260405194855260018060a01b0316600485015263ffffffff60e01b166024840152608060448401528160a00160648401523d60848401523d5f60a485013e60048260a40184015263ffffffff60e01b168160c40183015260e40190fd5b5f90565b5f7f746f55696e7431365f6f75744f66426f756e6473000000000000000000000000910152565b614f746014602092611c27565b614f7d81614f40565b0190565b614f969060208101905f818303910152614f67565b90565b15614fa057565b614fa86102d7565b62461bcd60e51b815280614fbe60048201614f81565b0390fd5b600290614fcd614f3c565b50615005614fda82613b03565b614ffe614ff8614ff387614fed886139ea565b90611ed2565b6105f6565b916105f6565b1015614f99565b61500d614f3c565b5001015190565b61502861502361502d92611d41565b610751565b613cf2565b90565b60801b90565b61503f90615030565b90565b61504e61505391613cf2565b615036565b9052565b60108161506961507193839695615042565b018092615042565b0190565b61508181601093615042565b0190565b9061508e613639565b50806150a261509c5f615014565b91613cf2565b145f146150d857506150d46150c5916150b96102d7565b92839160208301615075565b602082018103825203826116c4565b5b90565b90615103906150f46150e86102d7565b93849260208401615057565b602082018103825203826116c4565b6150d5565b9392919080946151218661511b5f611d44565b90614fc2565b61513a61513461512f614b67565b6130ee565b916130ee565b0361514d5761514a949550615234565b90565b61517a6151638761515d5f611d44565b90614fc2565b5f918291633a51740d60e01b835260048301614bf5565b0390fd5b6151886001614c80565b90565b61519f61519a6151a4926119b3565b610751565b6130ee565b90565b6151b36151b9916130ee565b916130ee565b019061ffff82116151c657565b611e64565b6151f06151e7926020926151de81613b03565b94858093613602565b93849101613b07565b0190565b6001936152228561523198979561521a61521360029661522a986151cb565b80926139b7565b018092614b86565b0180926139b7565b01906151cb565b90565b615292929161528391509161524761517e565b9461526c61525c61525783613b03565b6153dc565b615266600161518b565b906151a7565b9190916152776102d7565b968795602087016151f4565b602082018103825203826116c4565b90565b906152a892916152a3613639565b615108565b90565b6152b490610770565b90565b6152cb6152c66152d092610837565b611cfe565b610571565b90565b6040906152fc61530394969593966152f260608401985f8501906109b1565b60208301906109b1565b01906107e0565b565b60049261533f615353959361534e93946153266323b872dd929491926152b7565b9361532f6102d7565b97889560208701908152016152d3565b602082018103825203836116c4565b61542b565b565b61536961536461536e926130ee565b610751565b6105f6565b90565b90565b61538861538361538d92615371565b610751565b613957565b90565b61539990615374565b9052565b9160206153be9294936153b760408201965f830190615390565b01906107e0565b565b6153d46153cf6153d9926105f6565b610751565b6130ee565b90565b6153e4614f3c565b50806153fa6153f461ffff615355565b916105f6565b1161540b57615408906153c0565b90565b60106154275f9283926306dfcc6560e41b84526004840161539d565b0390fd5b905f602091615438611bfd565b50615441611bfd565b50828151910182855af1156154d4573d5f51906154666154605f611d44565b916105f6565b145f146154ba5750615477816152ab565b3b61548a6154845f611d44565b916105f6565b145b6154935750565b61549f6154b6916152ab565b5f918291635274afe760e01b8352600483016109be565b0390fd5b6154cd6154c76001613401565b916105f6565b141561548c565b6040513d5f823e3d90fdfea2646970667358221220b3fa0dd04ed501d3d8ca1e8080f5964e051462b71d6342effd8801f5e1fcc6fa64736f6c634300081a0033","linkReferences":{}},"methodIdentifiers":{"afterAddLiquidity(address,(address,address,uint24,int24,address),(int24,int24,int256,bytes32),int256,int256,bytes)":"9f063efc","afterDonate(address,(address,address,uint24,int24,address),uint256,uint256,bytes)":"e1b4af69","afterInitialize(address,(address,address,uint24,int24,address),uint160,int24)":"6fe7e6eb","afterRemoveLiquidity(address,(address,address,uint24,int24,address),(int24,int24,int256,bytes32),int256,int256,bytes)":"6c2bbe7e","afterSwap(address,(address,address,uint24,int24,address),(bool,int256,uint160),int256,bytes)":"b47b2fb1","allowInitializePath((uint32,bytes32,uint64))":"ff7bd03d","balanceTimeWeighted(address)":"5c819057","beforeAddLiquidity(address,(address,address,uint24,int24,address),(int24,int24,int256,bytes32),bytes)":"259982e5","beforeDonate(address,(address,address,uint24,int24,address),uint256,uint256,bytes)":"b6a8b0fa","beforeInitialize(address,(address,address,uint24,int24,address),uint160)":"dc98354e","beforeRemoveLiquidity(address,(address,address,uint24,int24,address),(int24,int24,int256,bytes32),bytes)":"21d0ee70","beforeSwap(address,(address,address,uint24,int24,address),(bool,int256,uint160),bytes)":"575e24b4","endpoint()":"5e280f11","getHookPermissions()":"c4e833ce","isComposeMsgSender((uint32,bytes32,uint64),bytes,address)":"82413eac","lastBalanceUpdate(address)":"2e428400","lastSupplyUpdate()":"8dd08d0e","lzReceive((uint32,bytes32,uint64),bytes32,bytes,address,bytes)":"13137d65","minWithdraw()":"cc3d2721","nextNonce(uint32,bytes32)":"7d25a05e","oAppVersion()":"17442b70","owner()":"8da5cb5b","peers(uint32)":"bb0b6a53","poolIdToTokenId(bytes32)":"e04bc0fa","poolIds(uint256)":"69883b4e","poolManager()":"dc4c90d3","renounceOwnership()":"715018a6","sendCrossChain(bytes,bytes,uint256,address)":"f8ad9a6d","setDelegate(address)":"ca5eb5e1","setMinWithdraw(uint256)":"35aa134a","setPeer(uint32,bytes32)":"3400288b","setvMooneyAddress(address)":"90b0f155","supplyTimeWeighted()":"c6580f19","totalReceived()":"a3c2c462","totalWithdrawn()":"4b319713","totalWithdrawnPerUser(address)":"c41b613f","transferOwnership(address)":"f2fde38b","transferPosition(address,bytes32)":"ec5c4962","transferredPoolIds(uint256)":"264e78e4","uncollectedFees(bytes32)":"763cef93","vMooneyAddress()":"543e617f","withdrawFees()":"476343ee"},"id":202}