{"abi":[{"type":"constructor","inputs":[{"name":"owner","type":"address","internalType":"address"},{"name":"_poolManager","type":"address","internalType":"contract IPoolManager"},{"name":"_posm","type":"address","internalType":"contract IPositionManager"},{"name":"_vMooneyAddress","type":"address","internalType":"address"}],"stateMutability":"nonpayable"},{"type":"fallback","stateMutability":"payable"},{"type":"receive","stateMutability":"payable"},{"type":"function","name":"afterAddLiquidity","inputs":[{"name":"sender","type":"address","internalType":"address"},{"name":"key","type":"tuple","internalType":"struct PoolKey","components":[{"name":"currency0","type":"address","internalType":"Currency"},{"name":"currency1","type":"address","internalType":"Currency"},{"name":"fee","type":"uint24","internalType":"uint24"},{"name":"tickSpacing","type":"int24","internalType":"int24"},{"name":"hooks","type":"address","internalType":"contract IHooks"}]},{"name":"params","type":"tuple","internalType":"struct IPoolManager.ModifyLiquidityParams","components":[{"name":"tickLower","type":"int24","internalType":"int24"},{"name":"tickUpper","type":"int24","internalType":"int24"},{"name":"liquidityDelta","type":"int256","internalType":"int256"},{"name":"salt","type":"bytes32","internalType":"bytes32"}]},{"name":"delta","type":"int256","internalType":"BalanceDelta"},{"name":"feesAccrued","type":"int256","internalType":"BalanceDelta"},{"name":"hookData","type":"bytes","internalType":"bytes"}],"outputs":[{"name":"","type":"bytes4","internalType":"bytes4"},{"name":"","type":"int256","internalType":"BalanceDelta"}],"stateMutability":"nonpayable"},{"type":"function","name":"afterDonate","inputs":[{"name":"sender","type":"address","internalType":"address"},{"name":"key","type":"tuple","internalType":"struct PoolKey","components":[{"name":"currency0","type":"address","internalType":"Currency"},{"name":"currency1","type":"address","internalType":"Currency"},{"name":"fee","type":"uint24","internalType":"uint24"},{"name":"tickSpacing","type":"int24","internalType":"int24"},{"name":"hooks","type":"address","internalType":"contract IHooks"}]},{"name":"amount0","type":"uint256","internalType":"uint256"},{"name":"amount1","type":"uint256","internalType":"uint256"},{"name":"hookData","type":"bytes","internalType":"bytes"}],"outputs":[{"name":"","type":"bytes4","internalType":"bytes4"}],"stateMutability":"nonpayable"},{"type":"function","name":"afterInitialize","inputs":[{"name":"sender","type":"address","internalType":"address"},{"name":"key","type":"tuple","internalType":"struct PoolKey","components":[{"name":"currency0","type":"address","internalType":"Currency"},{"name":"currency1","type":"address","internalType":"Currency"},{"name":"fee","type":"uint24","internalType":"uint24"},{"name":"tickSpacing","type":"int24","internalType":"int24"},{"name":"hooks","type":"address","internalType":"contract IHooks"}]},{"name":"sqrtPriceX96","type":"uint160","internalType":"uint160"},{"name":"tick","type":"int24","internalType":"int24"}],"outputs":[{"name":"","type":"bytes4","internalType":"bytes4"}],"stateMutability":"nonpayable"},{"type":"function","name":"afterRemoveLiquidity","inputs":[{"name":"sender","type":"address","internalType":"address"},{"name":"key","type":"tuple","internalType":"struct PoolKey","components":[{"name":"currency0","type":"address","internalType":"Currency"},{"name":"currency1","type":"address","internalType":"Currency"},{"name":"fee","type":"uint24","internalType":"uint24"},{"name":"tickSpacing","type":"int24","internalType":"int24"},{"name":"hooks","type":"address","internalType":"contract IHooks"}]},{"name":"params","type":"tuple","internalType":"struct IPoolManager.ModifyLiquidityParams","components":[{"name":"tickLower","type":"int24","internalType":"int24"},{"name":"tickUpper","type":"int24","internalType":"int24"},{"name":"liquidityDelta","type":"int256","internalType":"int256"},{"name":"salt","type":"bytes32","internalType":"bytes32"}]},{"name":"delta","type":"int256","internalType":"BalanceDelta"},{"name":"feesAccrued","type":"int256","internalType":"BalanceDelta"},{"name":"hookData","type":"bytes","internalType":"bytes"}],"outputs":[{"name":"","type":"bytes4","internalType":"bytes4"},{"name":"","type":"int256","internalType":"BalanceDelta"}],"stateMutability":"nonpayable"},{"type":"function","name":"afterSwap","inputs":[{"name":"sender","type":"address","internalType":"address"},{"name":"key","type":"tuple","internalType":"struct PoolKey","components":[{"name":"currency0","type":"address","internalType":"Currency"},{"name":"currency1","type":"address","internalType":"Currency"},{"name":"fee","type":"uint24","internalType":"uint24"},{"name":"tickSpacing","type":"int24","internalType":"int24"},{"name":"hooks","type":"address","internalType":"contract IHooks"}]},{"name":"params","type":"tuple","internalType":"struct IPoolManager.SwapParams","components":[{"name":"zeroForOne","type":"bool","internalType":"bool"},{"name":"amountSpecified","type":"int256","internalType":"int256"},{"name":"sqrtPriceLimitX96","type":"uint160","internalType":"uint160"}]},{"name":"delta","type":"int256","internalType":"BalanceDelta"},{"name":"hookData","type":"bytes","internalType":"bytes"}],"outputs":[{"name":"","type":"bytes4","internalType":"bytes4"},{"name":"","type":"int128","internalType":"int128"}],"stateMutability":"nonpayable"},{"type":"function","name":"balanceOf","inputs":[],"outputs":[{"name":"","type":"uint256","internalType":"uint256"}],"stateMutability":"view"},{"type":"function","name":"beforeAddLiquidity","inputs":[{"name":"sender","type":"address","internalType":"address"},{"name":"key","type":"tuple","internalType":"struct PoolKey","components":[{"name":"currency0","type":"address","internalType":"Currency"},{"name":"currency1","type":"address","internalType":"Currency"},{"name":"fee","type":"uint24","internalType":"uint24"},{"name":"tickSpacing","type":"int24","internalType":"int24"},{"name":"hooks","type":"address","internalType":"contract IHooks"}]},{"name":"params","type":"tuple","internalType":"struct IPoolManager.ModifyLiquidityParams","components":[{"name":"tickLower","type":"int24","internalType":"int24"},{"name":"tickUpper","type":"int24","internalType":"int24"},{"name":"liquidityDelta","type":"int256","internalType":"int256"},{"name":"salt","type":"bytes32","internalType":"bytes32"}]},{"name":"hookData","type":"bytes","internalType":"bytes"}],"outputs":[{"name":"","type":"bytes4","internalType":"bytes4"}],"stateMutability":"nonpayable"},{"type":"function","name":"beforeDonate","inputs":[{"name":"sender","type":"address","internalType":"address"},{"name":"key","type":"tuple","internalType":"struct PoolKey","components":[{"name":"currency0","type":"address","internalType":"Currency"},{"name":"currency1","type":"address","internalType":"Currency"},{"name":"fee","type":"uint24","internalType":"uint24"},{"name":"tickSpacing","type":"int24","internalType":"int24"},{"name":"hooks","type":"address","internalType":"contract IHooks"}]},{"name":"amount0","type":"uint256","internalType":"uint256"},{"name":"amount1","type":"uint256","internalType":"uint256"},{"name":"hookData","type":"bytes","internalType":"bytes"}],"outputs":[{"name":"","type":"bytes4","internalType":"bytes4"}],"stateMutability":"nonpayable"},{"type":"function","name":"beforeInitialize","inputs":[{"name":"sender","type":"address","internalType":"address"},{"name":"key","type":"tuple","internalType":"struct PoolKey","components":[{"name":"currency0","type":"address","internalType":"Currency"},{"name":"currency1","type":"address","internalType":"Currency"},{"name":"fee","type":"uint24","internalType":"uint24"},{"name":"tickSpacing","type":"int24","internalType":"int24"},{"name":"hooks","type":"address","internalType":"contract IHooks"}]},{"name":"sqrtPriceX96","type":"uint160","internalType":"uint160"}],"outputs":[{"name":"","type":"bytes4","internalType":"bytes4"}],"stateMutability":"nonpayable"},{"type":"function","name":"beforeRemoveLiquidity","inputs":[{"name":"sender","type":"address","internalType":"address"},{"name":"key","type":"tuple","internalType":"struct PoolKey","components":[{"name":"currency0","type":"address","internalType":"Currency"},{"name":"currency1","type":"address","internalType":"Currency"},{"name":"fee","type":"uint24","internalType":"uint24"},{"name":"tickSpacing","type":"int24","internalType":"int24"},{"name":"hooks","type":"address","internalType":"contract IHooks"}]},{"name":"params","type":"tuple","internalType":"struct IPoolManager.ModifyLiquidityParams","components":[{"name":"tickLower","type":"int24","internalType":"int24"},{"name":"tickUpper","type":"int24","internalType":"int24"},{"name":"liquidityDelta","type":"int256","internalType":"int256"},{"name":"salt","type":"bytes32","internalType":"bytes32"}]},{"name":"hookData","type":"bytes","internalType":"bytes"}],"outputs":[{"name":"","type":"bytes4","internalType":"bytes4"}],"stateMutability":"nonpayable"},{"type":"function","name":"beforeSwap","inputs":[{"name":"sender","type":"address","internalType":"address"},{"name":"key","type":"tuple","internalType":"struct PoolKey","components":[{"name":"currency0","type":"address","internalType":"Currency"},{"name":"currency1","type":"address","internalType":"Currency"},{"name":"fee","type":"uint24","internalType":"uint24"},{"name":"tickSpacing","type":"int24","internalType":"int24"},{"name":"hooks","type":"address","internalType":"contract IHooks"}]},{"name":"params","type":"tuple","internalType":"struct IPoolManager.SwapParams","components":[{"name":"zeroForOne","type":"bool","internalType":"bool"},{"name":"amountSpecified","type":"int256","internalType":"int256"},{"name":"sqrtPriceLimitX96","type":"uint160","internalType":"uint160"}]},{"name":"hookData","type":"bytes","internalType":"bytes"}],"outputs":[{"name":"","type":"bytes4","internalType":"bytes4"},{"name":"","type":"int256","internalType":"BeforeSwapDelta"},{"name":"","type":"uint24","internalType":"uint24"}],"stateMutability":"nonpayable"},{"type":"function","name":"checkIn","inputs":[],"outputs":[],"stateMutability":"nonpayable"},{"type":"function","name":"checkedIn","inputs":[{"name":"","type":"uint256","internalType":"uint256"}],"outputs":[{"name":"","type":"address","internalType":"address"}],"stateMutability":"view"},{"type":"function","name":"distributeFees","inputs":[],"outputs":[],"stateMutability":"nonpayable"},{"type":"function","name":"estimateFees","inputs":[{"name":"user","type":"address","internalType":"address"}],"outputs":[{"name":"","type":"uint256","internalType":"uint256"}],"stateMutability":"view"},{"type":"function","name":"getCheckedInCount","inputs":[],"outputs":[{"name":"","type":"uint256","internalType":"uint256"}],"stateMutability":"view"},{"type":"function","name":"getHookPermissions","inputs":[],"outputs":[{"name":"","type":"tuple","internalType":"struct Hooks.Permissions","components":[{"name":"beforeInitialize","type":"bool","internalType":"bool"},{"name":"afterInitialize","type":"bool","internalType":"bool"},{"name":"beforeAddLiquidity","type":"bool","internalType":"bool"},{"name":"afterAddLiquidity","type":"bool","internalType":"bool"},{"name":"beforeRemoveLiquidity","type":"bool","internalType":"bool"},{"name":"afterRemoveLiquidity","type":"bool","internalType":"bool"},{"name":"beforeSwap","type":"bool","internalType":"bool"},{"name":"afterSwap","type":"bool","internalType":"bool"},{"name":"beforeDonate","type":"bool","internalType":"bool"},{"name":"afterDonate","type":"bool","internalType":"bool"},{"name":"beforeSwapReturnDelta","type":"bool","internalType":"bool"},{"name":"afterSwapReturnDelta","type":"bool","internalType":"bool"},{"name":"afterAddLiquidityReturnDelta","type":"bool","internalType":"bool"},{"name":"afterRemoveLiquidityReturnDelta","type":"bool","internalType":"bool"}]}],"stateMutability":"pure"},{"type":"function","name":"lastCheckIn","inputs":[{"name":"","type":"address","internalType":"address"}],"outputs":[{"name":"","type":"uint256","internalType":"uint256"}],"stateMutability":"view"},{"type":"function","name":"minWithdraw","inputs":[],"outputs":[{"name":"","type":"uint256","internalType":"uint256"}],"stateMutability":"view"},{"type":"function","name":"owner","inputs":[],"outputs":[{"name":"","type":"address","internalType":"address"}],"stateMutability":"view"},{"type":"function","name":"poolIdToTokenId","inputs":[{"name":"","type":"bytes32","internalType":"PoolId"}],"outputs":[{"name":"","type":"uint256","internalType":"uint256"}],"stateMutability":"view"},{"type":"function","name":"poolManager","inputs":[],"outputs":[{"name":"","type":"address","internalType":"contract IPoolManager"}],"stateMutability":"view"},{"type":"function","name":"renounceOwnership","inputs":[],"outputs":[],"stateMutability":"nonpayable"},{"type":"function","name":"setMinWithdraw","inputs":[{"name":"_minWithdraw","type":"uint256","internalType":"uint256"}],"outputs":[],"stateMutability":"nonpayable"},{"type":"function","name":"setWeekStart","inputs":[{"name":"newWeekStart","type":"uint256","internalType":"uint256"}],"outputs":[],"stateMutability":"nonpayable"},{"type":"function","name":"setvMooneyAddress","inputs":[{"name":"_vMooneyAddress","type":"address","internalType":"address"}],"outputs":[],"stateMutability":"nonpayable"},{"type":"function","name":"totalReceived","inputs":[],"outputs":[{"name":"","type":"uint256","internalType":"uint256"}],"stateMutability":"view"},{"type":"function","name":"transferOwnership","inputs":[{"name":"newOwner","type":"address","internalType":"address"}],"outputs":[],"stateMutability":"nonpayable"},{"type":"function","name":"transferPosition","inputs":[{"name":"to","type":"address","internalType":"address"},{"name":"poolId","type":"bytes32","internalType":"bytes32"}],"outputs":[],"stateMutability":"nonpayable"},{"type":"function","name":"uncollectedFees","inputs":[{"name":"","type":"bytes32","internalType":"PoolId"}],"outputs":[{"name":"","type":"uint256","internalType":"uint256"}],"stateMutability":"view"},{"type":"function","name":"vMooneyAddress","inputs":[],"outputs":[{"name":"","type":"address","internalType":"address"}],"stateMutability":"view"},{"type":"function","name":"weekStart","inputs":[],"outputs":[{"name":"","type":"uint256","internalType":"uint256"}],"stateMutability":"view"},{"type":"event","name":"CheckedIn","inputs":[{"name":"user","type":"address","indexed":true,"internalType":"address"},{"name":"weekStart","type":"uint256","indexed":false,"internalType":"uint256"}],"anonymous":false},{"type":"event","name":"CreatedPosition","inputs":[{"name":"poolId","type":"bytes32","indexed":false,"internalType":"bytes32"},{"name":"tokenId","type":"uint256","indexed":false,"internalType":"uint256"}],"anonymous":false},{"type":"event","name":"FeesDistributed","inputs":[{"name":"amount","type":"uint256","indexed":false,"internalType":"uint256"}],"anonymous":false},{"type":"event","name":"OwnershipTransferred","inputs":[{"name":"previousOwner","type":"address","indexed":true,"internalType":"address"},{"name":"newOwner","type":"address","indexed":true,"internalType":"address"}],"anonymous":false},{"type":"event","name":"TransferredPosition","inputs":[{"name":"to","type":"address","indexed":true,"internalType":"address"},{"name":"poolId","type":"bytes32","indexed":false,"internalType":"bytes32"},{"name":"tokenId","type":"uint256","indexed":false,"internalType":"uint256"}],"anonymous":false},{"type":"error","name":"HookNotImplemented","inputs":[]},{"type":"error","name":"NotPoolManager","inputs":[]},{"type":"error","name":"OwnableInvalidOwner","inputs":[{"name":"owner","type":"address","internalType":"address"}]},{"type":"error","name":"OwnableUnauthorizedAccount","inputs":[{"name":"account","type":"address","internalType":"address"}]}],"bytecode":{"object":"0x60a0604052346100825761001d6100146101cd565b9291909161033d565b610025610087565b613b22610d568239608051818181610e4e015281816118080152818161188701528181611952015281816119e301528181611a6b01528181611bcf01528181611c7801528181611d22015281816125da01526126500152613b2290f35b61008d565b60405190565b5f80fd5b601f801991011690565b634e487b7160e01b5f52604160045260245ffd5b906100b990610091565b810190811060018060401b038211176100d157604052565b61009b565b906100e96100e2610087565b92836100af565b565b5f80fd5b60018060a01b031690565b610103906100ef565b90565b61010f816100fa565b0361011657565b5f80fd5b9050519061012782610106565b565b610132906100fa565b90565b61013e81610129565b0361014557565b5f80fd5b9050519061015682610135565b565b610161906100fa565b90565b61016d81610158565b0361017457565b5f80fd5b9050519061018582610164565b565b6080818303126101c85761019d825f830161011a565b926101c56101ae8460208501610149565b936101bc8160408601610178565b9360600161011a565b90565b6100eb565b6101eb614878803803806101e0816100d6565b928339810190610187565b90919293565b5f1b90565b906102025f19916101f1565b9181191691161790565b90565b90565b90565b61022961022461022e9261020c565b610212565b61020f565b90565b90565b9061024961024461025092610215565b610231565b82546101f6565b9055565b9061026560018060a01b03916101f1565b9181191691161790565b61028361027e610288926100ef565b610212565b6100ef565b90565b6102949061026f565b90565b6102a09061028b565b90565b90565b906102bb6102b66102c292610297565b6102a3565b8254610254565b9055565b6102cf9061026f565b90565b6102db906102c6565b90565b90565b906102f66102f16102fd926102d2565b6102de565b8254610254565b9055565b61031561031061031a9261020f565b610212565b61020f565b90565b9061033261032d61033992610301565b610231565b82546101f6565b9055565b9161034f6103689261036f95946103c9565b610361662386f26fc100006004610234565b60036102a6565b60056102e1565b61037a42600761031d565b565b90565b61039361038e6103989261037c565b610212565b6100ef565b90565b6103a49061037f565b90565b6103b0906100fa565b9052565b91906103c7905f602085019401906103a7565b565b906103d390610425565b806103ee6103e86103e35f61039b565b6100fa565b916100fa565b146103fe576103fc9061047f565b565b61042161040a5f61039b565b5f918291631e4fbdf760e01b8352600483016103b4565b0390fd5b61042e90610430565b565b61043990610444565b610442306104f6565b565b608052565b5f1c90565b60018060a01b031690565b61046561046a91610449565b61044e565b90565b6104779054610459565b90565b5f0190565b6104885f61046d565b610492825f6102e1565b906104c66104c07f8be0079c531659141344cd1fd0a4f28419497f9722a3daafe3b4186f6b6457e0936102d2565b916102d2565b916104cf610087565b806104d98161047a565b0390a3565b6104e79061026f565b90565b6104f3906104de565b90565b6105109061050b610505610607565b916104ea565b610983565b565b61051d6101c06100d6565b90565b5f90565b6020908180808080808080808080808061053c610512565b9e8f610546610520565b815201610551610520565b81520161055c610520565b815201610567610520565b815201610572610520565b81520161057d610520565b815201610588610520565b815201610593610520565b81520161059e610520565b8152016105a9610520565b8152016105b4610520565b8152016105bf610520565b8152016105ca610520565b8152016105d5610520565b81525050565b6105e3610524565b90565b6105f16101c06100d6565b90565b151590565b90610603906105f4565b9052565b61060f6105db565b505f8060015f805f8060015f915f935f956001975f995f9b61062f6105e6565b809e5f82019061063e916105f9565b6020019061064b916105f9565b60408d0190610659916105f9565b60608c0190610667916105f9565b60808b0190610675916105f9565b60a08a0190610683916105f9565b60c0890190610691916105f9565b60e088019061069f916105f9565b6101008701906106ae916105f9565b6101208601906106bd916105f9565b6101408501906106cc916105f9565b6101608401906106db916105f9565b6101808301906106ea916105f9565b6101a08201906106f9916105f9565b90565b61070690516105f4565b90565b90565b61072061071b61072592610709565b610212565b6100ef565b90565b61073361200061070c565b90565b90565b61074d61074861075292610736565b610212565b6100ef565b90565b610760611000610739565b90565b90565b61077a61077561077f92610763565b610212565b6100ef565b90565b61078d610800610766565b90565b90565b6107a76107a26107ac92610790565b610212565b6100ef565b90565b6107ba610400610793565b90565b90565b6107d46107cf6107d9926107bd565b610212565b6100ef565b90565b6107e76102006107c0565b90565b90565b6108016107fc610806926107ea565b610212565b6100ef565b90565b6108146101006107ed565b90565b90565b61082e61082961083392610817565b610212565b6100ef565b90565b610840608061081a565b90565b90565b61085a61085561085f92610843565b610212565b6100ef565b90565b61086c6040610846565b90565b90565b61088661088161088b9261086f565b610212565b6100ef565b90565b6108986020610872565b90565b90565b6108b26108ad6108b79261089b565b610212565b6100ef565b90565b6108c4601061089e565b90565b90565b6108de6108d96108e3926108c7565b610212565b6100ef565b90565b6108f060086108ca565b90565b90565b61090a61090561090f926108f3565b610212565b6100ef565b90565b61091c60046108f6565b90565b90565b61093661093161093b9261091f565b610212565b6100ef565b90565b6109486002610922565b90565b90565b61096261095d6109679261094b565b610212565b6100ef565b90565b610974600161094e565b90565b610980906102c6565b90565b9061098f5f82016106fc565b6109b26109ac6109a7856109a1610728565b90610d11565b6105f4565b916105f4565b14158015610cca575b8015610c93575b8015610c5c575b8015610c25575b8015610bee575b8015610bb7575b8015610b80575b8015610b48575b8015610b10575b8015610ad8575b8015610aa0575b8015610a68575b908115610a2f575b50610a185750565b610a29630732d7b560e51b91610977565b90610d43565b610a3d91506101a0016106fc565b610a60610a5a610a5584610a4f61096a565b90610d11565b6105f4565b916105f4565b14155f610a10565b50610a7661018082016106fc565b610a99610a93610a8e85610a8861093e565b90610d11565b6105f4565b916105f4565b1415610a08565b50610aae61016082016106fc565b610ad1610acb610ac685610ac0610912565b90610d11565b6105f4565b916105f4565b1415610a01565b50610ae661014082016106fc565b610b09610b03610afe85610af86108e6565b90610d11565b6105f4565b916105f4565b14156109fa565b50610b1e61012082016106fc565b610b41610b3b610b3685610b306108ba565b90610d11565b6105f4565b916105f4565b14156109f3565b50610b5661010082016106fc565b610b79610b73610b6e85610b6861088e565b90610d11565b6105f4565b916105f4565b14156109ec565b50610b8d60e082016106fc565b610bb0610baa610ba585610b9f610862565b90610d11565b6105f4565b916105f4565b14156109e5565b50610bc460c082016106fc565b610be7610be1610bdc85610bd6610836565b90610d11565b6105f4565b916105f4565b14156109de565b50610bfb60a082016106fc565b610c1e610c18610c1385610c0d610809565b90610d11565b6105f4565b916105f4565b14156109d7565b50610c32608082016106fc565b610c55610c4f610c4a85610c446107dc565b90610d11565b6105f4565b916105f4565b14156109d0565b50610c69606082016106fc565b610c8c610c86610c8185610c7b6107af565b90610d11565b6105f4565b916105f4565b14156109c9565b50610ca0604082016106fc565b610cc3610cbd610cb885610cb2610782565b90610d11565b6105f4565b916105f4565b14156109c2565b50610cd7602082016106fc565b610cfa610cf4610cef85610ce9610755565b90610d11565b6105f4565b916105f4565b14156109bb565b5f90565b610d0e9061026f565b90565b610d26610d2b91610d20610d01565b50610977565b610d05565b16610d3e610d385f61037f565b916100ef565b141590565b5f5260018060a01b031660045260245ffdfe60806040526004361015610028575b361561001e5761001c612a5b565b005b610026612a3c565b005b6100325f35610231565b8063020865961461022c57806316e8221d14610227578063183ff0851461022257806321d0ee701461021d578063259982e51461021857806335aa134a146102135780633b6983481461020e578063543e617f14610209578063575e24b4146102045780636c2bbe7e146101ff5780636fe7e6eb146101fa578063715018a6146101f5578063722713f7146101f0578063763cef93146101eb5780638da5cb5b146101e657806390b0f155146101e15780639f063efc146101dc578063a3c2c462146101d7578063a76308ad146101d2578063b47b2fb1146101cd578063b6a8b0fa146101c8578063bb57ad20146101c3578063c4e833ce146101be578063cc3d2721146101b9578063dc4c90d3146101b4578063dc98354e146101af578063e04bc0fa146101aa578063e1b4af69146101a5578063ec5c4962146101a0578063ef6fdb1c1461019b578063f2fde38b146101965763f55ecbe40361000e576110e6565b6110b3565b61107e565b61100f565b610f9e565b610f69565b610f35565b610ec6565b610e17565b610dd3565b610c71565b610c50565b610ba1565b610ac3565b610a8e565b610a5e565b610a2b565b6109f6565b6109c1565b61090d565b6108da565b6108bc565b610808565b610747565b61068f565b61064b565b6105e0565b6105a7565b610589565b610451565b610408565b610370565b60e01c90565b60405190565b5f80fd5b5f80fd5b5f80fd5b90565b61025581610249565b0361025c57565b5f80fd5b9050359061026d8261024c565b565b9060208282031261028857610285915f01610260565b90565b610241565b634e487b7160e01b5f52603260045260245ffd5b5490565b5f5260205f2090565b6102b7816102a1565b8210156102d1576102c96001916102a5565b910201905f90565b61028d565b1c90565b60018060a01b031690565b6102f59060086102fa93026102d6565b6102da565b90565b9061030891546102e5565b90565b6008610316816102a1565b821015610333576103309161032a916102ae565b906102fd565b90565b5f80fd5b60018060a01b031690565b61034b90610337565b90565b61035790610342565b9052565b919061036e905f6020850194019061034e565b565b346103a05761039c61038b61038636600461026f565b61030b565b610393610237565b9182918261035b565b0390f35b61023d565b6103ae81610342565b036103b557565b5f80fd5b905035906103c6826103a5565b565b906020828203126103e1576103de915f016103b9565b90565b610241565b6103ef90610249565b9052565b9190610406905f602085019401906103e6565b565b346104385761043461042361041e3660046103c8565b6112d3565b61042b610237565b918291826103f3565b0390f35b61023d565b5f91031261044757565b610241565b5f0190565b3461047f5761046136600461043d565b610469611692565b610471610237565b8061047b8161044c565b0390f35b61023d565b5f80fd5b908160a09103126104965790565b610484565b908160809103126104a95790565b610484565b5f80fd5b5f80fd5b5f80fd5b909182601f830112156104f45781359167ffffffffffffffff83116104ef5760200192600183028401116104ea57565b6104b6565b6104b2565b6104ae565b906101608282031261055657610511815f84016103b9565b9261051f8260208501610488565b9261052d8360c0830161049b565b9261014082013567ffffffffffffffff81116105515761054d92016104ba565b9091565b610245565b610241565b63ffffffff60e01b1690565b6105709061055b565b9052565b9190610587905f60208501940190610567565b565b346105a2576105993660046104f9565b93929092611869565b61023d565b346105db576105d76105c66105bd3660046104f9565b939290926118fb565b6105ce610237565b91829182610574565b0390f35b61023d565b3461060e576105f86105f336600461026f565b611933565b610600610237565b8061060a8161044c565b0390f35b61023d565b90565b61062690600861062b93026102d6565b610613565b90565b906106399154610616565b90565b61064860075f9061062e565b90565b3461067b5761065b36600461043d565b61067761066661063c565b61066e610237565b918291826103f3565b0390f35b61023d565b61068c60055f906102fd565b90565b346106bf5761069f36600461043d565b6106bb6106aa610680565b6106b2610237565b9182918261035b565b0390f35b61023d565b908160609103126106d25790565b610484565b9061014082820312610734576106ef815f84016103b9565b926106fd8260208501610488565b9261070b8360c083016106c4565b9261012082013567ffffffffffffffff811161072f5761072b92016104ba565b9091565b610245565b610241565b90565b90565b62ffffff1690565b34610760576107573660046106d7565b939290926119b5565b61023d565b61076e81610739565b0361077557565b5f80fd5b9050359061078682610765565b565b916101a083830312610803576107a0825f85016103b9565b926107ae8360208301610488565b926107bc8160c0840161049b565b926107cb826101408501610779565b926107da836101608301610779565b9261018082013567ffffffffffffffff81116107fe576107fa92016104ba565b9091565b610245565b610241565b3461082457610818366004610788565b95949094939193611a49565b61023d565b61083281610337565b0361083957565b5f80fd5b9050359061084a82610829565b565b60020b90565b61085b8161084c565b0361086257565b5f80fd5b9050359061087382610852565b565b610100818303126108b75761088c825f83016103b9565b926108b461089d8460208501610488565b936108ab8160c0860161083d565b9360e001610866565b90565b610241565b346108d5576108cc366004610875565b92919091611aca565b61023d565b34610908576108ea36600461043d565b6108f2611b24565b6108fa610237565b806109048161044c565b0390f35b61023d565b3461093d5761091d36600461043d565b610939610928611b2e565b610930610237565b918291826103f3565b0390f35b61023d565b90565b61094e81610942565b0361095557565b5f80fd5b9050359061096682610945565b565b906020828203126109815761097e915f01610959565b90565b610241565b61098f90610942565b90565b9061099c90610986565b5f5260205260405f2090565b6109be906109b96001915f92610992565b61062e565b90565b346109f1576109ed6109dc6109d7366004610968565b6109a8565b6109e4610237565b918291826103f3565b0390f35b61023d565b34610a2657610a0636600461043d565b610a22610a11611b48565b610a19610237565b9182918261035b565b0390f35b61023d565b34610a5957610a43610a3e3660046103c8565b611bb8565b610a4b610237565b80610a558161044c565b0390f35b61023d565b34610a7a57610a6e366004610788565b95949094939193611c35565b61023d565b610a8b60065f9061062e565b90565b34610abe57610a9e36600461043d565b610aba610aa9610a7f565b610ab1610237565b918291826103f3565b0390f35b61023d565b34610af357610ad336600461043d565b610aef610ade611c4b565b610ae6610237565b918291826103f3565b0390f35b61023d565b91909161016081840312610b6657610b12835f83016103b9565b92610b208160208401610488565b92610b2e8260c085016106c4565b92610b3d836101208301610779565b9261014082013567ffffffffffffffff8111610b6157610b5d92016104ba565b9091565b610245565b610241565b600f0b90565b610b7a90610b6b565b9052565b916020610b9f929493610b9860408201965f830190610567565b0190610b71565b565b34610bd957610bc0610bb4366004610af8565b94939093929192611cf3565b90610bd5610bcc610237565b92839283610b7e565b0390f35b61023d565b91909161012081840312610c4b57610bf8835f83016103b9565b92610c068160208401610488565b92610c148260c08501610260565b92610c228360e08301610260565b9261010082013567ffffffffffffffff8111610c4657610c4292016104ba565b9091565b610245565b610241565b34610c6c57610c60366004610bde565b94939093929192611d85565b61023d565b34610c9f57610c8136600461043d565b610c896120b3565b610c91610237565b80610c9b8161044c565b0390f35b61023d565b151590565b610cb290610ca4565b9052565b906101a080610dbb93610ccf5f8201515f860190610ca9565b610ce160208201516020860190610ca9565b610cf360408201516040860190610ca9565b610d0560608201516060860190610ca9565b610d1760808201516080860190610ca9565b610d2960a082015160a0860190610ca9565b610d3b60c082015160c0860190610ca9565b610d4d60e082015160e0860190610ca9565b610d61610100820151610100860190610ca9565b610d75610120820151610120860190610ca9565b610d89610140820151610140860190610ca9565b610d9d610160820151610160860190610ca9565b610db1610180820151610180860190610ca9565b0151910190610ca9565b565b9190610dd1905f6101c08501940190610cb6565b565b34610e0357610de336600461043d565b610dff610dee6124d9565b610df6610237565b91829182610dbd565b0390f35b61023d565b610e1460045f9061062e565b90565b34610e4757610e2736600461043d565b610e43610e32610e08565b610e3a610237565b918291826103f3565b0390f35b61023d565b7f000000000000000000000000000000000000000000000000000000000000000090565b610e84610e7f610e8992610337565b61073c565b610337565b90565b610e9590610e70565b90565b610ea190610e8c565b90565b610ead90610e98565b9052565b9190610ec4905f60208501940190610ea4565b565b34610ef657610ed636600461043d565b610ef2610ee1610e4c565b610ee9610237565b91829182610eb1565b0390f35b61023d565b909160e082840312610f3057610f2d610f16845f85016103b9565b93610f248160208601610488565b9360c00161083d565b90565b610241565b34610f4b57610f45366004610efb565b91612637565b61023d565b610f6690610f616002915f92610992565b61062e565b90565b34610f9957610f95610f84610f7f366004610968565b610f50565b610f8c610237565b918291826103f3565b0390f35b61023d565b34610fba57610fae366004610bde565b949390939291926126b3565b61023d565b610fc881610942565b03610fcf57565b5f80fd5b90503590610fe082610fbf565b565b919060408382031261100a5780610ffe611007925f86016103b9565b93602001610fd3565b90565b610241565b3461103e57611028611022366004610fe2565b90612995565b611030610237565b8061103a8161044c565b0390f35b61023d565b61104c90610e8c565b90565b9061105990611043565b5f5260205260405f2090565b61107b906110766009915f9261104f565b61062e565b90565b346110ae576110aa6110996110943660046103c8565b611065565b6110a1610237565b918291826103f3565b0390f35b61023d565b346110e1576110cb6110c63660046103c8565b612a06565b6110d3610237565b806110dd8161044c565b0390f35b61023d565b34611114576110fe6110f936600461026f565b612a31565b611106610237565b806111108161044c565b0390f35b61023d565b5f90565b90565b61113461112f6111399261111d565b61073c565b610249565b90565b60016111489101610249565b90565b5f1c90565b61115c6111619161114b565b6102da565b90565b61116e9054611150565b90565b61117a90610e70565b90565b61118690611171565b90565b61119290610e8c565b90565b5f80fd5b601f801991011690565b634e487b7160e01b5f52604160045260245ffd5b906111c190611199565b810190811067ffffffffffffffff8211176111db57604052565b6111a3565b60e01b90565b905051906111f38261024c565b565b9060208282031261120e5761120b915f016111e6565b90565b610241565b61121b610237565b3d5f823e3d90fd5b634e487b7160e01b5f52601160045260245ffd5b61124661124c91939293610249565b92610249565b820180921161125757565b611223565b61126590610e8c565b90565b61127761127d91939293610249565b92610249565b91611289838202610249565b92818404149015171561129857565b611223565b634e487b7160e01b5f52601260045260245ffd5b6112bd6112c391610249565b91610249565b9081156112ce570490565b61129d565b906112dc611119565b506112e760086102a1565b906112f0611119565b926112fa5f611120565b935b8461130f61130986610249565b91610249565b10156113d257611372602061133461132f61132a6005611164565b61117d565b611189565b6370a082319061136761135261134c60088c906102ae565b906102fd565b9261135b610237565b958694859384936111e0565b83526004830161035b565b03915afa80156113cd5761139792611391925f9261139d575b50611237565b9461113c565b936112fc565b6113bf91925060203d81116113c6575b6113b781836111b7565b8101906111f5565b905f61138b565b503d6113ad565b611213565b919350915061142860206113e53061125c565b31936114016113fc6113f76005611164565b61117d565b611189565b61141d6370a08231611411610237565b958694859384936111e0565b83526004830161035b565b03915afa9081156114c7575f91611499575b50918161144f6114495f611120565b91610249565b14801561147f575b6114705761146d9261146891611268565b6112b1565b90565b50505061147c5f611120565b90565b508261149361148d5f611120565b91610249565b14611457565b6114ba915060203d81116114c0575b6114b281836111b7565b8101906111f5565b5f61143a565b503d6114a8565b611213565b60209181520190565b5f7f4d75737420686f6c6420764d6f6f6e657920746f20636865636b20696e000000910152565b611509601d6020926114cc565b611512816114d5565b0190565b61152b9060208101905f8183039101526114fc565b90565b1561153557565b61153d610237565b62461bcd60e51b81528061155360048201611516565b0390fd5b6115636115689161114b565b610613565b90565b6115759054611557565b90565b5f1b90565b906115895f1991611578565b9181191691161790565b6115a76115a26115ac92610249565b61073c565b610249565b90565b90565b906115c76115c26115ce92611593565b6115af565b825461157d565b9055565b90565b5f5260205f2090565b5490565b6115eb816115de565b821015611605576115fd6001916115d5565b910201905f90565b61028d565b1b90565b9190600861162e91029161162860018060a01b038461160a565b9261160a565b9181191691161790565b90565b919061165161164c61165993611043565b611638565b90835461160e565b9055565b908154916801000000000000000083101561168d578261168591600161168b950181556115e2565b9061163b565b565b6111a3565b6116db60206116b16116ac6116a76005611164565b61117d565b611189565b6370a08231906116d033926116c4610237565b958694859384936111e0565b83526004830161035b565b03915afa80156117f357611709915f916117c5575b506117036116fd5f611120565b91610249565b1161152e565b61171d6117186009339061104f565b61156b565b61173861173261172d600761156b565b610249565b91610249565b10611740575b565b61175e61174d600761156b565b6117596009339061104f565b6115b2565b61177261176b60086115d2565b339061165d565b3361177d600761156b565b906117bd6117ab7fdddb6e14f7f2101397a6526aab95e964de7f1f44ed06aa47a1c9a0e6b992445692611043565b926117b4610237565b918291826103f3565b0390a261173e565b6117e6915060203d81116117ec575b6117de81836111b7565b8101906111f5565b5f6116f0565b503d6117d4565b611213565b5f90565b3361183761183161182c7f0000000000000000000000000000000000000000000000000000000000000000610e98565b610342565b91610342565b0315611859575f63570c108560e11b8152806118556004820161044c565b0390fd5b9493929194509390919293612a7a565b6118716117f8565b6117fc565b9493929190336118b66118b06118ab7f0000000000000000000000000000000000000000000000000000000000000000610e98565b610342565b91610342565b036118c7576118c4956118e3565b90565b5f63570c108560e11b8152806118df6004820161044c565b0390fd5b906118f8959391949294509390919293612b9b565b90565b906119109493929161190b6117f8565b611876565b90565b6119249061191f612cfa565b611926565b565b6119319060046115b2565b565b61193c90611913565b565b5f90565b5f90565b3361198161197b6119767f0000000000000000000000000000000000000000000000000000000000000000610e98565b610342565b91610342565b03156119a3575f63570c108560e11b81528061199f6004820161044c565b0390fd5b96959493965050509390919293612d48565b6119bd6117f8565b6119c561193e565b6119cd611942565b91611946565b5f90565b33611a12611a0c611a077f0000000000000000000000000000000000000000000000000000000000000000610e98565b610342565b91610342565b0315611a34575f63570c108560e11b815280611a306004820161044c565b0390fd5b97969594939297505095909192939495612d7f565b611a516117f8565b611a596119d3565b906119d7565b33611a9a611a94611a8f7f0000000000000000000000000000000000000000000000000000000000000000610e98565b610342565b91610342565b0315611abc575f63570c108560e11b815280611ab86004820161044c565b0390fd5b939291935092909192612dad565b611ad26117f8565b611a5f565b611adf612cfa565b611ae7611b11565b565b611afd611af8611b029261111d565b61073c565b610337565b90565b611b0e90611ae9565b90565b611b22611b1d5f611b05565b612dd2565b565b611b2c611ad7565b565b611b36611119565b50611b403061125c565b3190565b5f90565b611b50611b44565b50611b5a5f611164565b90565b611b6e90611b69612cfa565b611bab565b565b90611b8160018060a01b0391611578565b9181191691161790565b90611ba0611b9b611ba792611043565b611638565b8254611b70565b9055565b611bb6906005611b8b565b565b611bc190611b5d565b565b33611bfe611bf8611bf37f0000000000000000000000000000000000000000000000000000000000000000610e98565b610342565b91610342565b0315611c20575f63570c108560e11b815280611c1c6004820161044c565b0390fd5b97969594939297505095909192939495612e31565b611c3d6117f8565b611c456119d3565b90611bc3565b611c53611119565b50611c5e60086102a1565b90565b5f90565b9695949392919033611ca7611ca1611c9c7f0000000000000000000000000000000000000000000000000000000000000000610e98565b610342565b91610342565b03611cb957611cb597611cd5565b9091565b5f63570c108560e11b815280611cd16004820161044c565b0390fd5b90611ced979593969492915050949091929394613306565b91909190565b90611d129594939291611d046117f8565b611d0c611c61565b90611c65565b9091565b33611d51611d4b611d467f0000000000000000000000000000000000000000000000000000000000000000610e98565b610342565b91610342565b0315611d73575f63570c108560e11b815280611d6f6004820161044c565b0390fd5b95949392919550949091929394613691565b611d8d6117f8565b611d16565b90565b611da9611da4611dae92611d92565b61073c565b610249565b90565b611dbd62093a80611d95565b90565b5f7f5765656b206e6f742066696e6973686564000000000000000000000000000000910152565b611df460116020926114cc565b611dfd81611dc0565b0190565b611e169060208101905f818303910152611de7565b90565b15611e2057565b611e28610237565b62461bcd60e51b815280611e3e60048201611e01565b0390fd5b5f7f4e6f20636865636b696e73000000000000000000000000000000000000000000910152565b611e76600b6020926114cc565b611e7f81611e42565b0190565b611e989060208101905f818303910152611e69565b90565b15611ea257565b611eaa610237565b62461bcd60e51b815280611ec060048201611e83565b0390fd5b5f7f4e6f2062616c616e636500000000000000000000000000000000000000000000910152565b611ef8600a6020926114cc565b611f0181611ec4565b0190565b611f1a9060208101905f818303910152611eeb565b90565b15611f2457565b611f2c610237565b62461bcd60e51b815280611f4260048201611f05565b0390fd5b90565b611f5d611f58611f6292611f46565b61073c565b610249565b90565b611f74611f7a91939293610249565b92610249565b8203918211611f8557565b611223565b600190818003010490565b91906008611fb0910291611faa5f198461160a565b9261160a565b9181191691161790565b9190611fd0611fcb611fd893611593565b6115af565b908354611f95565b9055565b611fee91611fe8611119565b91611fba565b565b5b818110611ffc575050565b806120095f600193611fdc565b01611ff1565b909182811061201e575b505050565b61203c61203661203061204795611f8a565b92611f8a565b926102a5565b918201910190611ff0565b5f8080612019565b90680100000000000000008111612078578161206d612076936102a1565b9082815561200f565b565b6111a3565b5f6120879161204f565b565b634e487b7160e01b5f525f60045260245ffd5b905f036120ae576120ac9061207d565b565b612089565b6120ea426120e36120dd6120d86120ca600761156b565b6120d2611db1565b90611237565b610249565b91610249565b1015611e19565b6120f460086102a1565b6121108161210a6121045f611120565b91610249565b11611e9b565b612118611119565b916121225f611120565b925b8361213761213185610249565b91610249565b10156121fa5761219a602061215c6121576121526005611164565b61117d565b611189565b6370a082319061218f61217a61217460088b906102ae565b906102fd565b92612183610237565b958694859384936111e0565b83526004830161035b565b03915afa80156121f5576121bf926121b9925f926121c5575b50611237565b9361113c565b92612124565b6121e791925060203d81116121ee575b6121df81836111b7565b8101906111f5565b905f6121b3565b503d6121d5565b611213565b9190925061221a8261221461220e5f611120565b91610249565b11611f1d565b6122233061125c565b319182906122305f611120565b915b8261224561223f86610249565b91610249565b101561237f576122aa61226361225d600886906102ae565b906102fd565b91602061228061227b6122766005611164565b61117d565b611189565b6370a082319061229f8692612293610237565b968794859384936111e0565b83526004830161035b565b03915afa92831561237a5761231c93612316935f9161234c575b50866122eb6122e56122e08b6122da6001611f49565b90611f65565b610249565b91610249565b145f146123335750815b90816123096123035f611120565b91610249565b11612322575b5090611f65565b9261113c565b91612232565b61232d9082906137c0565b5f61230f565b612340612347918a611268565b86906112b1565b6122f5565b61236d915060203d8111612373575b61236581836111b7565b8101906111f5565b5f6122c4565b503d61235b565b611213565b5050505061238e5f600861209c565b6123994260076115b2565b6123cf7f8959421a1320789a49eeec01a4750caf8a30733c3db14f000d84484df89300f9916123c6610237565b918291826103f3565b0390a1565b906123e76123e0610237565b92836111b7565b565b6123f46101c06123d4565b90565b5f90565b602090818080808080808080808080806124136123e9565b9e8f61241d6123f7565b8152016124286123f7565b8152016124336123f7565b81520161243e6123f7565b8152016124496123f7565b8152016124546123f7565b81520161245f6123f7565b81520161246a6123f7565b8152016124756123f7565b8152016124806123f7565b81520161248b6123f7565b8152016124966123f7565b8152016124a16123f7565b8152016124ac6123f7565b81525050565b6124ba6123fb565b90565b6124c86101c06123d4565b90565b906124d590610ca4565b9052565b6124e16124b2565b505f8060015f805f8060015f915f935f956001975f995f9b6125016124bd565b809e5f820190612510916124cb565b6020019061251d916124cb565b60408d019061252b916124cb565b60608c0190612539916124cb565b60808b0190612547916124cb565b60a08a0190612555916124cb565b60c0890190612563916124cb565b60e0880190612571916124cb565b610100870190612580916124cb565b61012086019061258f916124cb565b61014085019061259e916124cb565b6101608401906125ad916124cb565b6101808301906125bc916124cb565b6101a08201906125cb916124cb565b90565b336126096126036125fe7f0000000000000000000000000000000000000000000000000000000000000000610e98565b610342565b91610342565b031561262b575f63570c108560e11b8152806126276004820161044c565b0390fd5b929192509190916137ef565b61263f6117f8565b6125ce565b3361267f6126796126747f0000000000000000000000000000000000000000000000000000000000000000610e98565b610342565b91610342565b03156126a1575f63570c108560e11b81528061269d6004820161044c565b0390fd5b95949392919550949091929394613814565b6126bb6117f8565b612644565b906126d2916126cd612cfa565b612863565b565b5f7f546f6b656e204944206e6f7420666f756e640000000000000000000000000000910152565b61270860126020926114cc565b612711816126d4565b0190565b61272a9060208101905f8183039101526126fb565b90565b1561273457565b61273c610237565b62461bcd60e51b81528061275260048201612715565b0390fd5b61275f90610942565b9052565b91602061278492949361277d60408201965f830190612756565b01906103e6565b565b60018060a01b031690565b61279d6127a29161114b565b612786565b90565b6127af9054612791565b90565b6127bb90610e8c565b90565b6127c790610e70565b90565b6127d3906127be565b90565b6127df90610e70565b90565b6127eb906127d6565b90565b6127f790610e8c565b90565b5f91031261280457565b610241565b60209181520190565b61281d5f8092612809565b0190565b9091612860936128496128539261283f60808601965f87019061034e565b602085019061034e565b60408301906103e6565b6060818303910152612812565b90565b61287e61287961287284610986565b6002610992565b61156b565b9161289c8361289561288f5f611120565b91610249565b141561272d565b81836128c87f6c0e1edcf38ed229640660774969369eb9959e259a4a5197fa481332f7f5711792611043565b926128dd6128d4610237565b92839283612763565b0390a261290a6129056129006128fb6128f660036127a5565b6127b2565b6127ca565b6127e2565b6127ee565b9063b88d4fde9161291a3061125c565b919392813b15612990575f6129429161294d8296612936610237565b988997889687956111e0565b855260048501612821565b03925af1801561298b5761295f575b50565b61297e905f3d8111612984575b61297681836111b7565b8101906127fa565b5f61295c565b503d61296c565b611213565b611195565b9061299f916126c0565b565b6129b2906129ad612cfa565b6129b4565b565b806129cf6129c96129c45f611b05565b610342565b91610342565b146129df576129dd90612dd2565b565b612a026129eb5f611b05565b5f918291631e4fbdf760e01b83526004830161035b565b0390fd5b612a0f906129a1565b565b612a2290612a1d612cfa565b612a24565b565b612a2f9060076115b2565b565b612a3a90612a11565b565b612a59612a5234612a4d600661156b565b611237565b60066115b2565b565b612a78612a7134612a6c600661156b565b611237565b60066115b2565b565b612a826117f8565b505f630a85dc2960e01b815280612a9b6004820161044c565b0390fd5b5f80fd5b612aac81610342565b03612ab357565b5f80fd5b90503590612ac482612aa3565b565b612acf8161073f565b03612ad657565b5f80fd5b90503590612ae782612ac6565b565b612af290610342565b90565b612afe81612ae9565b03612b0557565b5f80fd5b90503590612b1682612af5565b565b919060a083820312612b8857612b8190612b3260a06123d4565b93612b3f825f8301612ab7565b5f860152612b508260208301612ab7565b6020860152612b628260408301612ada565b6040860152612b748260608301610866565b6060860152608001612b09565b6080830152565b612a9f565b612b98903690612b18565b90565b509050612bbb9250612bb69150612bb06117f8565b50612b8d565b61383d565b612bcf612bca60028390610992565b61156b565b612be1612bdb5f611120565b91610249565b14612bf3575b5063259982e560e01b90565b612c206020612c0a612c0560036127a5565b6127b2565b6375794a3c90612c18610237565b9384926111e0565b82528180612c306004820161044c565b03915afa908115612cf557612c6c91612c5b915f91612cc7575b50612c556001611f49565b90611f65565b612c6760028490610992565b6115b2565b612c88612c83612c7b83610986565b926002610992565b61156b565b7fe57abfbfb5806501b86f7939657672b6a1beaeb54fda5c2f940c2bc7a1a6296c91612cbe612cb5610237565b92839283612763565b0390a15f612be7565b612ce8915060203d8111612cee575b612ce081836111b7565b8101906111f5565b5f612c4a565b503d612cd6565b611213565b612d02611b48565b612d1b612d15612d1061384d565b610342565b91610342565b03612d2257565b612d44612d2d61384d565b5f91829163118cdaa760e01b83526004830161035b565b0390fd5b612d506117f8565b50612d5961193e565b50612d62611942565b505f630a85dc2960e01b815280612d7b6004820161044c565b0390fd5b612d876117f8565b50612d906119d3565b505f630a85dc2960e01b815280612da96004820161044c565b0390fd5b612db56117f8565b505f630a85dc2960e01b815280612dce6004820161044c565b0390fd5b612ddb5f611164565b612de5825f611b8b565b90612e19612e137f8be0079c531659141344cd1fd0a4f28419497f9722a3daafe3b4186f6b6457e093611043565b91611043565b91612e22610237565b80612e2c8161044c565b0390a3565b612e396117f8565b50612e426119d3565b505f630a85dc2960e01b815280612e5b6004820161044c565b0390fd5b612e6881610ca4565b03612e6f57565b5f80fd5b35612e7d81612e5f565b90565b612e8981610739565b03612e9057565b5f80fd5b35612e9e81612e80565b90565b612eb5612eb0612eba9261111d565b61073c565b610739565b90565b612ec690610739565b600160ff1b8114612ed6575f0390565b611223565b612eef612eea612ef492610739565b61073c565b610249565b90565b35612f0181612ac6565b90565b612f18612f13612f1d9261073f565b61073c565b610249565b90565b90565b612f37612f32612f3c92612f20565b61073c565b610249565b90565b612f496001611f49565b90565b60ff1690565b612f66612f61612f6b92610249565b61073c565b612f4c565b90565b90565b612f85612f80612f8a92612f6e565b61073c565b610249565b90565b612f976011612f71565b90565b60f81b90565b612fa990612f9a565b90565b612fb8612fbd91612f4c565b612fa0565b9052565b600181612fd3612fdb93839695612fac565b018092612fac565b0190565b90565b612ff6612ff1612ffb92612fdf565b61073c565b610249565b90565b67ffffffffffffffff81116130165760208091020190565b6111a3565b9061302d61302883612ffe565b6123d4565b918252565b606090565b5f5b82811061304557505050565b602090613050613032565b8184015201613039565b9061307f6130678361301b565b926020806130758693612ffe565b9201910390613037565b565b67ffffffffffffffff811161309f5761309b602091611199565b0190565b6111a3565b906130b66130b183613081565b6123d4565b918252565b6130c45f6130a4565b90565b6130cf6130bb565b90565b6130e66130e16130eb9261111d565b61073c565b612f4c565b90565b6130f7906130d2565b9052565b5190565b90825f9392825e0152565b61312961313260209361313793613120816130fb565b93848093612809565b958691016130ff565b611199565b0190565b9193613172613189969461316861317c949761315e60a08801995f8901906103e6565b60208701906130ee565b60408501906130ee565b60608301906130ee565b608081840391015261310a565b90565b5190565b9061319a8261318c565b8110156131ab576020809102010190565b61028d565b356131ba81612aa3565b90565b6131c690611043565b9052565b6040906131f36131fa94969593966131e960608401985f8501906131bd565b60208301906131bd565b019061034e565b565b60209181520190565b60200190565b60209181520190565b61323361323c6020936132419361322a816130fb565b9384809361320b565b958691016130ff565b611199565b0190565b9061324f91613214565b90565b60200190565b9061326c6132658361318c565b80926131fc565b908161327d60208302840194613205565b925f915b83831061329057505050505090565b909192939460206132b26132ac83856001950387528951613245565b97613252565b9301930191939290613281565b90916132d96132e79360408401908482035f86015261310a565b916020818403910152613258565b90565b6132fe6132f96133039261111d565b61073c565b610b6b565b90565b5093509150506133146117f8565b5061331d611c61565b5061332f61332a83612b8d565b61383d565b9061333b5f8201612e73565b8061366c575b6135f1575b5061335b61335660018390610992565b61156b565b61337661337061336b600461156b565b610249565b91610249565b1015613394575b505063b47b2fb160e01b906133915f6132ea565b90565b6133a461339f612f3f565b612f52565b6133de6133b76133b2612f8d565b612f52565b916133cf6133c3610237565b93849260208401612fc1565b602082018103825203826111b7565b916133f16133ec6002612fe2565b61305a565b9261346461340961340460028690610992565b61156b565b61343f5f916134305f8061341b6130c7565b91613424610237565b9687956020870161313b565b602082018103825203826111b7565b61345e86915f9061345861345283611120565b85613190565b52611120565b90613190565b51506134d96134745f84016131b0565b6134b3613483602086016131b0565b916134a46134903061125c565b613498610237565b948593602085016131ca565b602082018103825203826111b7565b6134d386916001906134cd6134c783611f49565b85613190565b52611f49565b90613190565b51506134ed6134e860036127a5565b6127b2565b93634afe393c919094803b156135ec5761351a5f809461352561350e610237565b998a96879586946111e0565b8452600484016132bf565b03925af19283156135e757613580936135bb575b5061354e613549602083016131b0565b61388a565b61356061355a5f611120565b91610249565b11613587575b5061357b6135735f611120565b916001610992565b6115b2565b5f8061337d565b8061359760206135b593016131b0565b906135af6135aa602061dead93016131b0565b61388a565b91613969565b5f613566565b6135da905f3d81116135e0575b6135d281836111b7565b8101906127fa565b5f613539565b503d6135c8565b611213565b611195565b61364261363061361661361161360c60206136669601612e94565b612ebd565b612edb565b61362a61362560408801612ef7565b612f04565b90611268565b61363c620f4240612f23565b906112b1565b61366061365160018590610992565b9161365b8361156b565b611237565b906115b2565b5f613346565b5061367960208201612e94565b61368b6136855f612ea1565b91610739565b12613341565b6136996117f8565b505f630a85dc2960e01b8152806136b26004820161044c565b0390fd5b905090565b6136c65f80926136b6565b0190565b6136d3906136bb565b90565b67ffffffffffffffff81116136f4576136f0602091611199565b0190565b6111a3565b9061370b613706836136d6565b6123d4565b918252565b606090565b3d5f14613730576137253d6136f9565b903d5f602084013e5b565b613738613710565b9061372e565b5f7f455448207472616e73666572206661696c656400000000000000000000000000910152565b61377260136020926114cc565b61377b8161373e565b0190565b6137949060208101905f818303910152613765565b90565b1561379e57565b6137a6610237565b62461bcd60e51b8152806137bc6004820161377f565b0390fd5b5f6137ed928192906137d0610237565b90816137db816136ca565b03925af16137e7613715565b50613797565b565b6137f76117f8565b505f630a85dc2960e01b8152806138106004820161044c565b0390fd5b61381c6117f8565b505f630a85dc2960e01b8152806138356004820161044c565b0390fd5b5f90565b60a090613848613839565b502090565b613855611b44565b503390565b61386390610e70565b90565b61386f9061385a565b90565b61387b90610e8c565b90565b61388790610e8c565b90565b613892611119565b5061389c81613a44565b5f146138b057506138ac3061387e565b3190565b60206138ce6138c96138c461390094611043565b613866565b613872565b6370a08231906138f56138e03061387e565b926138e9610237565b958694859384936111e0565b83526004830161035b565b03915afa908115613944575f91613916575b5090565b613937915060203d811161393d575b61392f81836111b7565b8101906111f5565b5f613912565b503d613925565b611213565b5f90565b61396161395c6139669261111d565b6111e0565b61055b565b90565b919091613974613949565b5061397e81613a44565b5f146139b557505f80808061399694865af115610ca4565b61399e57505b565b6139a75f61394d565b633d2cec6f60e21b91613a7b565b91613a07916040519163a9059cbb60e01b835260018060a01b0316600483015260248201525f604060208260448582895af13d15601f3d11600185511416171692828152826020820152015215610ca4565b613a11575061399c565b613a1a90611043565b63a9059cbb60e01b633c9fd93960e21b91613a7b565b613a41613a3c5f611b05565b611043565b90565b613a5690613a50613949565b50611043565b613a77613a71613a6c613a67613a30565b611043565b610342565b91610342565b1490565b826390bfb86560e01b92602080601f3d0104029260405194855260018060a01b0316600485015263ffffffff60e01b166024840152608060448401528160a00160648401523d60848401523d5f60a485013e60048260a40184015263ffffffff60e01b168160c40183015260e40190fdfea26469706673582212203cb8e9944ee059f07ad7ef6aecb9de8b1fe411e3c430d520aff4da261ae5fc8e64736f6c634300081a0033","linkReferences":{}},"methodIdentifiers":{"afterAddLiquidity(address,(address,address,uint24,int24,address),(int24,int24,int256,bytes32),int256,int256,bytes)":"9f063efc","afterDonate(address,(address,address,uint24,int24,address),uint256,uint256,bytes)":"e1b4af69","afterInitialize(address,(address,address,uint24,int24,address),uint160,int24)":"6fe7e6eb","afterRemoveLiquidity(address,(address,address,uint24,int24,address),(int24,int24,int256,bytes32),int256,int256,bytes)":"6c2bbe7e","afterSwap(address,(address,address,uint24,int24,address),(bool,int256,uint160),int256,bytes)":"b47b2fb1","balanceOf()":"722713f7","beforeAddLiquidity(address,(address,address,uint24,int24,address),(int24,int24,int256,bytes32),bytes)":"259982e5","beforeDonate(address,(address,address,uint24,int24,address),uint256,uint256,bytes)":"b6a8b0fa","beforeInitialize(address,(address,address,uint24,int24,address),uint160)":"dc98354e","beforeRemoveLiquidity(address,(address,address,uint24,int24,address),(int24,int24,int256,bytes32),bytes)":"21d0ee70","beforeSwap(address,(address,address,uint24,int24,address),(bool,int256,uint160),bytes)":"575e24b4","checkIn()":"183ff085","checkedIn(uint256)":"02086596","distributeFees()":"bb57ad20","estimateFees(address)":"16e8221d","getCheckedInCount()":"a76308ad","getHookPermissions()":"c4e833ce","lastCheckIn(address)":"ef6fdb1c","minWithdraw()":"cc3d2721","owner()":"8da5cb5b","poolIdToTokenId(bytes32)":"e04bc0fa","poolManager()":"dc4c90d3","renounceOwnership()":"715018a6","setMinWithdraw(uint256)":"35aa134a","setWeekStart(uint256)":"f55ecbe4","setvMooneyAddress(address)":"90b0f155","totalReceived()":"a3c2c462","transferOwnership(address)":"f2fde38b","transferPosition(address,bytes32)":"ec5c4962","uncollectedFees(bytes32)":"763cef93","vMooneyAddress()":"543e617f","weekStart()":"3b698348"},"id":180}