{
	"format": "sphinx-sol-ct-artifact-1",
	"merkleRoot": "0x60b901bea417fa02d2dfb5b74a6bc7a533df6b0b3a8a469dfbdff63383aebf54",
	"address": "0x0061e516886a0540f63157f112c0588ee0651dcf",
	"sourceName": "src/JBDirectory.sol",
	"contractName": "JBDirectory",
	"chainId": "0xa4b1",
	"abi": [
		{
			"inputs": [
				{
					"internalType": "contract IJBPermissions",
					"name": "permissions",
					"type": "address"
				},
				{
					"internalType": "contract IJBProjects",
					"name": "projects",
					"type": "address"
				},
				{
					"internalType": "address",
					"name": "owner",
					"type": "address"
				}
			],
			"stateMutability": "nonpayable",
			"type": "constructor"
		},
		{
			"inputs": [],
			"name": "PERMISSIONS",
			"outputs": [
				{
					"internalType": "contract IJBPermissions",
					"name": "",
					"type": "address"
				}
			],
			"stateMutability": "view",
			"type": "function"
		},
		{
			"inputs": [],
			"name": "PROJECTS",
			"outputs": [
				{
					"internalType": "contract IJBProjects",
					"name": "",
					"type": "address"
				}
			],
			"stateMutability": "view",
			"type": "function"
		},
		{
			"inputs": [
				{
					"internalType": "uint256",
					"name": "projectId",
					"type": "uint256"
				}
			],
			"name": "controllerOf",
			"outputs": [
				{
					"internalType": "contract IERC165",
					"name": "",
					"type": "address"
				}
			],
			"stateMutability": "view",
			"type": "function"
		},
		{
			"inputs": [
				{
					"internalType": "address",
					"name": "addr",
					"type": "address"
				}
			],
			"name": "isAllowedToSetFirstController",
			"outputs": [
				{
					"internalType": "bool",
					"name": "",
					"type": "bool"
				}
			],
			"stateMutability": "view",
			"type": "function"
		},
		{
			"inputs": [
				{
					"internalType": "uint256",
					"name": "projectId",
					"type": "uint256"
				},
				{
					"internalType": "contract IJBTerminal",
					"name": "terminal",
					"type": "address"
				}
			],
			"name": "isTerminalOf",
			"outputs": [
				{
					"internalType": "bool",
					"name": "",
					"type": "bool"
				}
			],
			"stateMutability": "view",
			"type": "function"
		},
		{
			"inputs": [],
			"name": "owner",
			"outputs": [
				{
					"internalType": "address",
					"name": "",
					"type": "address"
				}
			],
			"stateMutability": "view",
			"type": "function"
		},
		{
			"inputs": [
				{
					"internalType": "uint256",
					"name": "projectId",
					"type": "uint256"
				},
				{
					"internalType": "address",
					"name": "token",
					"type": "address"
				}
			],
			"name": "primaryTerminalOf",
			"outputs": [
				{
					"internalType": "contract IJBTerminal",
					"name": "",
					"type": "address"
				}
			],
			"stateMutability": "view",
			"type": "function"
		},
		{
			"inputs": [],
			"name": "renounceOwnership",
			"outputs": [],
			"stateMutability": "nonpayable",
			"type": "function"
		},
		{
			"inputs": [
				{
					"internalType": "uint256",
					"name": "projectId",
					"type": "uint256"
				},
				{
					"internalType": "contract IERC165",
					"name": "controller",
					"type": "address"
				}
			],
			"name": "setControllerOf",
			"outputs": [],
			"stateMutability": "nonpayable",
			"type": "function"
		},
		{
			"inputs": [
				{
					"internalType": "address",
					"name": "addr",
					"type": "address"
				},
				{
					"internalType": "bool",
					"name": "flag",
					"type": "bool"
				}
			],
			"name": "setIsAllowedToSetFirstController",
			"outputs": [],
			"stateMutability": "nonpayable",
			"type": "function"
		},
		{
			"inputs": [
				{
					"internalType": "uint256",
					"name": "projectId",
					"type": "uint256"
				},
				{
					"internalType": "address",
					"name": "token",
					"type": "address"
				},
				{
					"internalType": "contract IJBTerminal",
					"name": "terminal",
					"type": "address"
				}
			],
			"name": "setPrimaryTerminalOf",
			"outputs": [],
			"stateMutability": "nonpayable",
			"type": "function"
		},
		{
			"inputs": [
				{
					"internalType": "uint256",
					"name": "projectId",
					"type": "uint256"
				},
				{
					"internalType": "contract IJBTerminal[]",
					"name": "terminals",
					"type": "address[]"
				}
			],
			"name": "setTerminalsOf",
			"outputs": [],
			"stateMutability": "nonpayable",
			"type": "function"
		},
		{
			"inputs": [
				{
					"internalType": "uint256",
					"name": "projectId",
					"type": "uint256"
				}
			],
			"name": "terminalsOf",
			"outputs": [
				{
					"internalType": "contract IJBTerminal[]",
					"name": "",
					"type": "address[]"
				}
			],
			"stateMutability": "view",
			"type": "function"
		},
		{
			"inputs": [
				{
					"internalType": "address",
					"name": "newOwner",
					"type": "address"
				}
			],
			"name": "transferOwnership",
			"outputs": [],
			"stateMutability": "nonpayable",
			"type": "function"
		},
		{
			"anonymous": false,
			"inputs": [
				{
					"indexed": true,
					"internalType": "uint256",
					"name": "projectId",
					"type": "uint256"
				},
				{
					"indexed": true,
					"internalType": "contract IJBTerminal",
					"name": "terminal",
					"type": "address"
				},
				{
					"indexed": false,
					"internalType": "address",
					"name": "caller",
					"type": "address"
				}
			],
			"name": "AddTerminal",
			"type": "event"
		},
		{
			"anonymous": false,
			"inputs": [
				{
					"indexed": true,
					"internalType": "address",
					"name": "previousOwner",
					"type": "address"
				},
				{
					"indexed": true,
					"internalType": "address",
					"name": "newOwner",
					"type": "address"
				}
			],
			"name": "OwnershipTransferred",
			"type": "event"
		},
		{
			"anonymous": false,
			"inputs": [
				{
					"indexed": true,
					"internalType": "uint256",
					"name": "projectId",
					"type": "uint256"
				},
				{
					"indexed": true,
					"internalType": "contract IERC165",
					"name": "controller",
					"type": "address"
				},
				{
					"indexed": false,
					"internalType": "address",
					"name": "caller",
					"type": "address"
				}
			],
			"name": "SetController",
			"type": "event"
		},
		{
			"anonymous": false,
			"inputs": [
				{
					"indexed": true,
					"internalType": "address",
					"name": "addr",
					"type": "address"
				},
				{
					"indexed": true,
					"internalType": "bool",
					"name": "isAllowed",
					"type": "bool"
				},
				{
					"indexed": false,
					"internalType": "address",
					"name": "caller",
					"type": "address"
				}
			],
			"name": "SetIsAllowedToSetFirstController",
			"type": "event"
		},
		{
			"anonymous": false,
			"inputs": [
				{
					"indexed": true,
					"internalType": "uint256",
					"name": "projectId",
					"type": "uint256"
				},
				{
					"indexed": true,
					"internalType": "address",
					"name": "token",
					"type": "address"
				},
				{
					"indexed": true,
					"internalType": "contract IJBTerminal",
					"name": "terminal",
					"type": "address"
				},
				{
					"indexed": false,
					"internalType": "address",
					"name": "caller",
					"type": "address"
				}
			],
			"name": "SetPrimaryTerminal",
			"type": "event"
		},
		{
			"anonymous": false,
			"inputs": [
				{
					"indexed": true,
					"internalType": "uint256",
					"name": "projectId",
					"type": "uint256"
				},
				{
					"indexed": false,
					"internalType": "contract IJBTerminal[]",
					"name": "terminals",
					"type": "address[]"
				},
				{
					"indexed": false,
					"internalType": "address",
					"name": "caller",
					"type": "address"
				}
			],
			"name": "SetTerminals",
			"type": "event"
		},
		{
			"inputs": [
				{
					"internalType": "contract IJBTerminal",
					"name": "terminal",
					"type": "address"
				}
			],
			"name": "JBDirectory_DuplicateTerminals",
			"type": "error"
		},
		{
			"inputs": [
				{
					"internalType": "uint256",
					"name": "projectId",
					"type": "uint256"
				},
				{
					"internalType": "uint256",
					"name": "limit",
					"type": "uint256"
				}
			],
			"name": "JBDirectory_InvalidProjectIdInDirectory",
			"type": "error"
		},
		{
			"inputs": [],
			"name": "JBDirectory_SetControllerNotAllowed",
			"type": "error"
		},
		{
			"inputs": [],
			"name": "JBDirectory_SetTerminalsNotAllowed",
			"type": "error"
		},
		{
			"inputs": [
				{
					"internalType": "uint256",
					"name": "projectId",
					"type": "uint256"
				},
				{
					"internalType": "address",
					"name": "token",
					"type": "address"
				},
				{
					"internalType": "contract IJBTerminal",
					"name": "terminal",
					"type": "address"
				}
			],
			"name": "JBDirectory_TokenNotAccepted",
			"type": "error"
		},
		{
			"inputs": [
				{
					"internalType": "address",
					"name": "account",
					"type": "address"
				},
				{
					"internalType": "address",
					"name": "sender",
					"type": "address"
				},
				{
					"internalType": "uint256",
					"name": "projectId",
					"type": "uint256"
				},
				{
					"internalType": "uint256",
					"name": "permissionId",
					"type": "uint256"
				}
			],
			"name": "JBPermissioned_Unauthorized",
			"type": "error"
		},
		{
			"inputs": [
				{
					"internalType": "address",
					"name": "owner",
					"type": "address"
				}
			],
			"name": "OwnableInvalidOwner",
			"type": "error"
		},
		{
			"inputs": [
				{
					"internalType": "address",
					"name": "account",
					"type": "address"
				}
			],
			"name": "OwnableUnauthorizedAccount",
			"type": "error"
		}
	],
	"args": [],
	"solcInputHash": "51e2de1557bafeed0f574c9089293121",
	"bytecode": "0x60c06040523480156200001157600080fd5b5060405162001926380380620019268339810160408190526200003491620000f4565b6001600160a01b03808416608052819081166200006b57604051631e4fbdf760e01b81526000600482015260240160405180910390fd5b62000076816200008b565b50506001600160a01b031660a0525062000148565b600080546001600160a01b038381166001600160a01b0319831681178455604051919092169283917f8be0079c531659141344cd1fd0a4f28419497f9722a3daafe3b4186f6b6457e09190a35050565b6001600160a01b0381168114620000f157600080fd5b50565b6000806000606084860312156200010a57600080fd5b83516200011781620000db565b60208501519093506200012a81620000db565b60408501519092506200013d81620000db565b809150509250925092565b60805160a05161178f620001976000396000818160f40152818161029001528181610541015281816105e00152818161066a0152610a9c01526000818161025401526110aa015261178f6000f3fe608060405234801561001057600080fd5b50600436106100ea5760003560e01c8063862026501161008c578063c5664e2111610066578063c5664e21146101f9578063d17541531461021c578063f2fde38b1461023c578063f434c9141461024f57600080fd5b806386202650146101c25780638da5cb5b146101d5578063a1ed3175146101e657600080fd5b80636e49181f116100c85780636e49181f14610171578063714e7f3214610194578063715018a6146101a7578063821b9fd8146101af57600080fd5b8063293c4999146100ef5780635dd8f6aa1461013357806363d0850a1461015c575b600080fd5b6101167f000000000000000000000000000000000000000000000000000000000000000081565b6040516001600160a01b0390911681526020015b60405180910390f35b6101166101413660046113fc565b6001602052600090815260409020546001600160a01b031681565b61016f61016a36600461142a565b610276565b005b61018461017f36600461146c565b610444565b604051901515815260200161012a565b61016f6101a236600461146c565b61050b565b61016f610a6e565b61016f6101bd36600461149c565b610a82565b6101166101d036600461146c565b610dbd565b6000546001600160a01b0316610116565b61016f6101f4366004611529565b610f3e565b610184610207366004611557565b60026020526000908152604090205460ff1681565b61022f61022a3660046113fc565b610fa8565b60405161012a919061157b565b61016f61024a366004611557565b611014565b6101167f000000000000000000000000000000000000000000000000000000000000000081565b6040516331a9108f60e11b81526004810184905261030b907f00000000000000000000000000000000000000000000000000000000000000006001600160a01b031690636352211e90602401602060405180830381865afa1580156102df573d6000803e3d6000fd5b505050506040513d601f19601f8201168201806040525081019061030391906115c8565b84600f611052565b604051633a01714f60e01b8152600481018490526001600160a01b03838116602483015260009190831690633a01714f90604401606060405180830381865afa15801561035c573d6000803e3d6000fd5b505050506040513d601f19601f8201168201806040525081019061038091906115e5565b516001600160a01b0316036103c75760405163027bb87960e11b8152600481018490526001600160a01b038084166024830152821660448201526064015b60405180910390fd5b6103d18382611156565b60008381526003602090815260408083206001600160a01b038681168086529184529382902080546001600160a01b03191694861694851790559051338152909186917fc670a502bbb9f8a4315f95eca901a9f99b65f89a2eb5705a58050e5c00f9d672910160405180910390a4505050565b6000828152600460209081526040808320805482518185028101850190935280835284938301828280156104a157602002820191906000526020600020905b81546001600160a01b03168152600190910190602001808311610483575b505083519394506000925050505b818110156104fd57846001600160a01b03168382815181106104d3576104d3611674565b60200260200101516001600160a01b0316036104f55760019350505050610505565b6001016104af565b506000925050505b92915050565b600082815260016020526040908190205490516331a9108f60e11b8152600481018490526001600160a01b03918216916105de917f000000000000000000000000000000000000000000000000000000000000000090911690636352211e90602401602060405180830381865afa15801561058a573d6000803e3d6000fd5b505050506040513d601f19601f820116820180604052508101906105ae91906115c8565b336000908152600260205260409020548590600d9060ff1680156105d957506001600160a01b038516155b6112f7565b7f00000000000000000000000000000000000000000000000000000000000000006001600160a01b03166306661abd6040518163ffffffff1660e01b8152600401602060405180830381865afa15801561063c573d6000803e3d6000fd5b505050506040513d601f19601f82011682018060405250810190610660919061168a565b83111561070c57827f00000000000000000000000000000000000000000000000000000000000000006001600160a01b03166306661abd6040518163ffffffff1660e01b8152600401602060405180830381865afa1580156106c6573d6000803e3d6000fd5b505050506040513d601f19601f820116820180604052508101906106ea919061168a565b6040516317140d0f60e31b8152600481019290925260248201526044016103be565b60006001600160a01b038216158061079557506040516301ffc9a760e01b81526001600160a01b038316906301ffc9a79061075290632877540760e01b906004016116a3565b602060405180830381865afa15801561076f573d6000803e3d6000fd5b505050506040513d601f19601f8201168201806040525081019061079391906116b8565b155b61080757604051632674968d60e21b8152600481018590526001600160a01b038316906399d25a3490602401602060405180830381865afa1580156107de573d6000803e3d6000fd5b505050506040513d601f19601f8201168201806040525081019061080291906116b8565b61080a565b60015b90508061082a5760405163cf211e7f60e01b815260040160405180910390fd5b6001600160a01b038216158015906108b157506040516301ffc9a760e01b81526001600160a01b038416906301ffc9a79061087090635825057160e11b906004016116a3565b602060405180830381865afa15801561088d573d6000803e3d6000fd5b505050506040513d601f19601f820116820180604052508101906108b191906116b8565b1561091957604051631e0231c360e31b81526001600160a01b0383811660048301526024820186905284169063f0118e1890604401600060405180830381600087803b15801561090057600080fd5b505af1158015610914573d6000803e3d6000fd5b505050505b60008481526001602090815260409182902080546001600160a01b0319166001600160a01b038716908117909155915133815286917f7f9a7dcb234c909a09de2f344661ad9e5b24067adb97c908647c2edcbb121c30910160405180910390a36001600160a01b03821615801590610a0057506040516301ffc9a760e01b81526001600160a01b038316906301ffc9a7906109bf90635825057160e11b906004016116a3565b602060405180830381865afa1580156109dc573d6000803e3d6000fd5b505050506040513d601f19601f82011682018060405250810190610a0091906116b8565b15610a685760405163202dc27d60e11b8152600481018590526001600160a01b03848116602483015283169063405b84fa90604401600060405180830381600087803b158015610a4f57600080fd5b505af1158015610a63573d6000803e3d6000fd5b505050505b50505050565b610a76611307565b610a806000611334565b565b6040516331a9108f60e11b815260048101849052610b33907f00000000000000000000000000000000000000000000000000000000000000006001600160a01b031690636352211e90602401602060405180830381865afa158015610aeb573d6000803e3d6000fd5b505050506040513d601f19601f82011682018060405250810190610b0f91906115c8565b6000858152600160205260409020548590600e906001600160a01b031633146112f7565b6000838152600160205260408082205490516301ffc9a760e01b81526001600160a01b03909116919082906301ffc9a790610b7990632877540760e01b906004016116a3565b602060405180830381865afa158015610b96573d6000803e3d6000fd5b505050506040513d601f19601f82011682018060405250810190610bba91906116b8565b1580610c2a575060405163b1a50e3360e01b8152600481018690526001600160a01b0383169063b1a50e3390602401602060405180830381865afa158015610c06573d6000803e3d6000fd5b505050506040513d601f19601f82011682018060405250810190610c2a91906116b8565b6000868152600160205260409020549091506001600160a01b03163314801590610c52575080155b15610c7057604051630fed236960e21b815260040160405180910390fd5b6000858152600460205260409020610c89908585611384565b506001831115610d7a5760005b83811015610d78576000610cab8260016116d5565b90505b84811015610d6f57858582818110610cc857610cc8611674565b9050602002016020810190610cdd9190611557565b6001600160a01b0316868684818110610cf857610cf8611674565b9050602002016020810190610d0d9190611557565b6001600160a01b031603610d6757858583818110610d2d57610d2d611674565b9050602002016020810190610d429190611557565b604051638a53d99f60e01b81526001600160a01b0390911660048201526024016103be565b600101610cae565b50600101610c96565b505b847fb648241d83df6540fc10f2acc641e4bf80a1e84e7ae2f1f6b0ad204b8fee635b858533604051610dae939291906116f6565b60405180910390a25050505050565b60008281526003602090815260408083206001600160a01b0380861685529252822054168015801590610df55750610df58482610444565b15610e01579050610505565b600084815260046020908152604080832080548251818502810185019093528083529192909190830182828015610e6157602002820191906000526020600020905b81546001600160a01b03168152600190910190602001808311610e43575b505083519394506000925050505b81811015610f31576000838281518110610e8b57610e8b611674565b6020908102919091010151604051633a01714f60e01b8152600481018a90526001600160a01b038981166024830152919250600091831690633a01714f90604401606060405180830381865afa158015610ee9573d6000803e3d6000fd5b505050506040513d601f19601f82011682018060405250810190610f0d91906115e5565b516001600160a01b031614610f285794506105059350505050565b50600101610e6f565b5060009695505050505050565b610f46611307565b6001600160a01b038216600081815260026020908152604091829020805460ff191685151590811790915591513381529192917f11207664cc48b0fa81c8674795f1d8f642960f38d5d2d305ad813093bed85fab910160405180910390a35050565b60008181526004602090815260409182902080548351818402810184019094528084526060939283018282801561100857602002820191906000526020600020905b81546001600160a01b03168152600190910190602001808311610fea575b50505050509050919050565b61101c611307565b6001600160a01b03811661104657604051631e4fbdf760e01b8152600060048201526024016103be565b61104f81611334565b50565b336001600160a01b03841681148015906111175750604051631a45b42760e11b81526001600160a01b0382811660048301528581166024830152604482018590526064820184905260016084830181905260a48301527f0000000000000000000000000000000000000000000000000000000000000000169063348b684e9060c401602060405180830381865afa1580156110f1573d6000803e3d6000fd5b505050506040513d601f19601f8201168201806040525081019061111591906116b8565b155b15610a6857604051631326f75560e11b81526001600160a01b0380861660048301528216602482015260448101849052606481018390526084016103be565b6111608282610444565b15611169575050565b6000828152600160205260408082205490516301ffc9a760e01b81526001600160a01b03909116919082906301ffc9a7906111af90632877540760e01b906004016116a3565b602060405180830381865afa1580156111cc573d6000803e3d6000fd5b505050506040513d601f19601f820116820180604052508101906111f091906116b8565b1580611260575060405163b1a50e3360e01b8152600481018590526001600160a01b0383169063b1a50e3390602401602060405180830381865afa15801561123c573d6000803e3d6000fd5b505050506040513d601f19601f8201168201806040525081019061126091906116b8565b90508061128057604051630fed236960e21b815260040160405180910390fd5b600084815260046020908152604080832080546001810182559084529282902090920180546001600160a01b0319166001600160a01b038716908117909155915133815286917f409bccc07b7cf7807930526a24318212d614c59f2dde05a017a41efee144e7c8910160405180910390a350505050565b80610a6857610a68848484611052565b6000546001600160a01b03163314610a805760405163118cdaa760e01b81523360048201526024016103be565b600080546001600160a01b038381166001600160a01b0319831681178455604051919092169283917f8be0079c531659141344cd1fd0a4f28419497f9722a3daafe3b4186f6b6457e09190a35050565b8280548282559060005260206000209081019282156113d7579160200282015b828111156113d75781546001600160a01b0319166001600160a01b038435161782556020909201916001909101906113a4565b506113e39291506113e7565b5090565b5b808211156113e357600081556001016113e8565b60006020828403121561140e57600080fd5b5035919050565b6001600160a01b038116811461104f57600080fd5b60008060006060848603121561143f57600080fd5b83359250602084013561145181611415565b9150604084013561146181611415565b809150509250925092565b6000806040838503121561147f57600080fd5b82359150602083013561149181611415565b809150509250929050565b6000806000604084860312156114b157600080fd5b83359250602084013567ffffffffffffffff808211156114d057600080fd5b818601915086601f8301126114e457600080fd5b8135818111156114f357600080fd5b8760208260051b850101111561150857600080fd5b6020830194508093505050509250925092565b801515811461104f57600080fd5b6000806040838503121561153c57600080fd5b823561154781611415565b915060208301356114918161151b565b60006020828403121561156957600080fd5b813561157481611415565b9392505050565b6020808252825182820181905260009190848201906040850190845b818110156115bc5783516001600160a01b031683529284019291840191600101611597565b50909695505050505050565b6000602082840312156115da57600080fd5b815161157481611415565b6000606082840312156115f757600080fd5b6040516060810181811067ffffffffffffffff8211171561162857634e487b7160e01b600052604160045260246000fd5b604052825161163681611415565b8152602083015160ff8116811461164c57600080fd5b6020820152604083015163ffffffff8116811461166857600080fd5b60408201529392505050565b634e487b7160e01b600052603260045260246000fd5b60006020828403121561169c57600080fd5b5051919050565b6001600160e01b031991909116815260200190565b6000602082840312156116ca57600080fd5b81516115748161151b565b8082018082111561050557634e487b7160e01b600052601160045260246000fd5b6040808252810183905260008460608301825b8681101561173957823561171c81611415565b6001600160a01b0316825260209283019290910190600101611709565b506001600160a01b0394909416602093909301929092525090939250505056fea2646970667358221220e023368f049ac60d7a5275cb961c9de2bcc8f70c76610ee585527395a7c3930864736f6c63430008170033",
	"deployedBytecode": "0x608060405234801561001057600080fd5b50600436106100ea5760003560e01c8063862026501161008c578063c5664e2111610066578063c5664e21146101f9578063d17541531461021c578063f2fde38b1461023c578063f434c9141461024f57600080fd5b806386202650146101c25780638da5cb5b146101d5578063a1ed3175146101e657600080fd5b80636e49181f116100c85780636e49181f14610171578063714e7f3214610194578063715018a6146101a7578063821b9fd8146101af57600080fd5b8063293c4999146100ef5780635dd8f6aa1461013357806363d0850a1461015c575b600080fd5b6101167f000000000000000000000000885f707efa18d2cb12f05a3a8eba6b4b26c8c1d481565b6040516001600160a01b0390911681526020015b60405180910390f35b6101166101413660046113fc565b6001602052600090815260409020546001600160a01b031681565b61016f61016a36600461142a565b610276565b005b61018461017f36600461146c565b610444565b604051901515815260200161012a565b61016f6101a236600461146c565b61050b565b61016f610a6e565b61016f6101bd36600461149c565b610a82565b6101166101d036600461146c565b610dbd565b6000546001600160a01b0316610116565b61016f6101f4366004611529565b610f3e565b610184610207366004611557565b60026020526000908152604090205460ff1681565b61022f61022a3660046113fc565b610fa8565b60405161012a919061157b565b61016f61024a366004611557565b611014565b6101167f00000000000000000000000004fd6913d6c32d8c216e153a43c04b1857a7793d81565b6040516331a9108f60e11b81526004810184905261030b907f000000000000000000000000885f707efa18d2cb12f05a3a8eba6b4b26c8c1d46001600160a01b031690636352211e90602401602060405180830381865afa1580156102df573d6000803e3d6000fd5b505050506040513d601f19601f8201168201806040525081019061030391906115c8565b84600f611052565b604051633a01714f60e01b8152600481018490526001600160a01b03838116602483015260009190831690633a01714f90604401606060405180830381865afa15801561035c573d6000803e3d6000fd5b505050506040513d601f19601f8201168201806040525081019061038091906115e5565b516001600160a01b0316036103c75760405163027bb87960e11b8152600481018490526001600160a01b038084166024830152821660448201526064015b60405180910390fd5b6103d18382611156565b60008381526003602090815260408083206001600160a01b038681168086529184529382902080546001600160a01b03191694861694851790559051338152909186917fc670a502bbb9f8a4315f95eca901a9f99b65f89a2eb5705a58050e5c00f9d672910160405180910390a4505050565b6000828152600460209081526040808320805482518185028101850190935280835284938301828280156104a157602002820191906000526020600020905b81546001600160a01b03168152600190910190602001808311610483575b505083519394506000925050505b818110156104fd57846001600160a01b03168382815181106104d3576104d3611674565b60200260200101516001600160a01b0316036104f55760019350505050610505565b6001016104af565b506000925050505b92915050565b600082815260016020526040908190205490516331a9108f60e11b8152600481018490526001600160a01b03918216916105de917f000000000000000000000000885f707efa18d2cb12f05a3a8eba6b4b26c8c1d490911690636352211e90602401602060405180830381865afa15801561058a573d6000803e3d6000fd5b505050506040513d601f19601f820116820180604052508101906105ae91906115c8565b336000908152600260205260409020548590600d9060ff1680156105d957506001600160a01b038516155b6112f7565b7f000000000000000000000000885f707efa18d2cb12f05a3a8eba6b4b26c8c1d46001600160a01b03166306661abd6040518163ffffffff1660e01b8152600401602060405180830381865afa15801561063c573d6000803e3d6000fd5b505050506040513d601f19601f82011682018060405250810190610660919061168a565b83111561070c57827f000000000000000000000000885f707efa18d2cb12f05a3a8eba6b4b26c8c1d46001600160a01b03166306661abd6040518163ffffffff1660e01b8152600401602060405180830381865afa1580156106c6573d6000803e3d6000fd5b505050506040513d601f19601f820116820180604052508101906106ea919061168a565b6040516317140d0f60e31b8152600481019290925260248201526044016103be565b60006001600160a01b038216158061079557506040516301ffc9a760e01b81526001600160a01b038316906301ffc9a79061075290632877540760e01b906004016116a3565b602060405180830381865afa15801561076f573d6000803e3d6000fd5b505050506040513d601f19601f8201168201806040525081019061079391906116b8565b155b61080757604051632674968d60e21b8152600481018590526001600160a01b038316906399d25a3490602401602060405180830381865afa1580156107de573d6000803e3d6000fd5b505050506040513d601f19601f8201168201806040525081019061080291906116b8565b61080a565b60015b90508061082a5760405163cf211e7f60e01b815260040160405180910390fd5b6001600160a01b038216158015906108b157506040516301ffc9a760e01b81526001600160a01b038416906301ffc9a79061087090635825057160e11b906004016116a3565b602060405180830381865afa15801561088d573d6000803e3d6000fd5b505050506040513d601f19601f820116820180604052508101906108b191906116b8565b1561091957604051631e0231c360e31b81526001600160a01b0383811660048301526024820186905284169063f0118e1890604401600060405180830381600087803b15801561090057600080fd5b505af1158015610914573d6000803e3d6000fd5b505050505b60008481526001602090815260409182902080546001600160a01b0319166001600160a01b038716908117909155915133815286917f7f9a7dcb234c909a09de2f344661ad9e5b24067adb97c908647c2edcbb121c30910160405180910390a36001600160a01b03821615801590610a0057506040516301ffc9a760e01b81526001600160a01b038316906301ffc9a7906109bf90635825057160e11b906004016116a3565b602060405180830381865afa1580156109dc573d6000803e3d6000fd5b505050506040513d601f19601f82011682018060405250810190610a0091906116b8565b15610a685760405163202dc27d60e11b8152600481018590526001600160a01b03848116602483015283169063405b84fa90604401600060405180830381600087803b158015610a4f57600080fd5b505af1158015610a63573d6000803e3d6000fd5b505050505b50505050565b610a76611307565b610a806000611334565b565b6040516331a9108f60e11b815260048101849052610b33907f000000000000000000000000885f707efa18d2cb12f05a3a8eba6b4b26c8c1d46001600160a01b031690636352211e90602401602060405180830381865afa158015610aeb573d6000803e3d6000fd5b505050506040513d601f19601f82011682018060405250810190610b0f91906115c8565b6000858152600160205260409020548590600e906001600160a01b031633146112f7565b6000838152600160205260408082205490516301ffc9a760e01b81526001600160a01b03909116919082906301ffc9a790610b7990632877540760e01b906004016116a3565b602060405180830381865afa158015610b96573d6000803e3d6000fd5b505050506040513d601f19601f82011682018060405250810190610bba91906116b8565b1580610c2a575060405163b1a50e3360e01b8152600481018690526001600160a01b0383169063b1a50e3390602401602060405180830381865afa158015610c06573d6000803e3d6000fd5b505050506040513d601f19601f82011682018060405250810190610c2a91906116b8565b6000868152600160205260409020549091506001600160a01b03163314801590610c52575080155b15610c7057604051630fed236960e21b815260040160405180910390fd5b6000858152600460205260409020610c89908585611384565b506001831115610d7a5760005b83811015610d78576000610cab8260016116d5565b90505b84811015610d6f57858582818110610cc857610cc8611674565b9050602002016020810190610cdd9190611557565b6001600160a01b0316868684818110610cf857610cf8611674565b9050602002016020810190610d0d9190611557565b6001600160a01b031603610d6757858583818110610d2d57610d2d611674565b9050602002016020810190610d429190611557565b604051638a53d99f60e01b81526001600160a01b0390911660048201526024016103be565b600101610cae565b50600101610c96565b505b847fb648241d83df6540fc10f2acc641e4bf80a1e84e7ae2f1f6b0ad204b8fee635b858533604051610dae939291906116f6565b60405180910390a25050505050565b60008281526003602090815260408083206001600160a01b0380861685529252822054168015801590610df55750610df58482610444565b15610e01579050610505565b600084815260046020908152604080832080548251818502810185019093528083529192909190830182828015610e6157602002820191906000526020600020905b81546001600160a01b03168152600190910190602001808311610e43575b505083519394506000925050505b81811015610f31576000838281518110610e8b57610e8b611674565b6020908102919091010151604051633a01714f60e01b8152600481018a90526001600160a01b038981166024830152919250600091831690633a01714f90604401606060405180830381865afa158015610ee9573d6000803e3d6000fd5b505050506040513d601f19601f82011682018060405250810190610f0d91906115e5565b516001600160a01b031614610f285794506105059350505050565b50600101610e6f565b5060009695505050505050565b610f46611307565b6001600160a01b038216600081815260026020908152604091829020805460ff191685151590811790915591513381529192917f11207664cc48b0fa81c8674795f1d8f642960f38d5d2d305ad813093bed85fab910160405180910390a35050565b60008181526004602090815260409182902080548351818402810184019094528084526060939283018282801561100857602002820191906000526020600020905b81546001600160a01b03168152600190910190602001808311610fea575b50505050509050919050565b61101c611307565b6001600160a01b03811661104657604051631e4fbdf760e01b8152600060048201526024016103be565b61104f81611334565b50565b336001600160a01b03841681148015906111175750604051631a45b42760e11b81526001600160a01b0382811660048301528581166024830152604482018590526064820184905260016084830181905260a48301527f00000000000000000000000004fd6913d6c32d8c216e153a43c04b1857a7793d169063348b684e9060c401602060405180830381865afa1580156110f1573d6000803e3d6000fd5b505050506040513d601f19601f8201168201806040525081019061111591906116b8565b155b15610a6857604051631326f75560e11b81526001600160a01b0380861660048301528216602482015260448101849052606481018390526084016103be565b6111608282610444565b15611169575050565b6000828152600160205260408082205490516301ffc9a760e01b81526001600160a01b03909116919082906301ffc9a7906111af90632877540760e01b906004016116a3565b602060405180830381865afa1580156111cc573d6000803e3d6000fd5b505050506040513d601f19601f820116820180604052508101906111f091906116b8565b1580611260575060405163b1a50e3360e01b8152600481018590526001600160a01b0383169063b1a50e3390602401602060405180830381865afa15801561123c573d6000803e3d6000fd5b505050506040513d601f19601f8201168201806040525081019061126091906116b8565b90508061128057604051630fed236960e21b815260040160405180910390fd5b600084815260046020908152604080832080546001810182559084529282902090920180546001600160a01b0319166001600160a01b038716908117909155915133815286917f409bccc07b7cf7807930526a24318212d614c59f2dde05a017a41efee144e7c8910160405180910390a350505050565b80610a6857610a68848484611052565b6000546001600160a01b03163314610a805760405163118cdaa760e01b81523360048201526024016103be565b600080546001600160a01b038381166001600160a01b0319831681178455604051919092169283917f8be0079c531659141344cd1fd0a4f28419497f9722a3daafe3b4186f6b6457e09190a35050565b8280548282559060005260206000209081019282156113d7579160200282015b828111156113d75781546001600160a01b0319166001600160a01b038435161782556020909201916001909101906113a4565b506113e39291506113e7565b5090565b5b808211156113e357600081556001016113e8565b60006020828403121561140e57600080fd5b5035919050565b6001600160a01b038116811461104f57600080fd5b60008060006060848603121561143f57600080fd5b83359250602084013561145181611415565b9150604084013561146181611415565b809150509250925092565b6000806040838503121561147f57600080fd5b82359150602083013561149181611415565b809150509250929050565b6000806000604084860312156114b157600080fd5b83359250602084013567ffffffffffffffff808211156114d057600080fd5b818601915086601f8301126114e457600080fd5b8135818111156114f357600080fd5b8760208260051b850101111561150857600080fd5b6020830194508093505050509250925092565b801515811461104f57600080fd5b6000806040838503121561153c57600080fd5b823561154781611415565b915060208301356114918161151b565b60006020828403121561156957600080fd5b813561157481611415565b9392505050565b6020808252825182820181905260009190848201906040850190845b818110156115bc5783516001600160a01b031683529284019291840191600101611597565b50909695505050505050565b6000602082840312156115da57600080fd5b815161157481611415565b6000606082840312156115f757600080fd5b6040516060810181811067ffffffffffffffff8211171561162857634e487b7160e01b600052604160045260246000fd5b604052825161163681611415565b8152602083015160ff8116811461164c57600080fd5b6020820152604083015163ffffffff8116811461166857600080fd5b60408201529392505050565b634e487b7160e01b600052603260045260246000fd5b60006020828403121561169c57600080fd5b5051919050565b6001600160e01b031991909116815260200190565b6000602082840312156116ca57600080fd5b81516115748161151b565b8082018082111561050557634e487b7160e01b600052601160045260246000fd5b6040808252810183905260008460608301825b8681101561173957823561171c81611415565b6001600160a01b0316825260209283019290910190600101611709565b506001600160a01b0394909416602093909301929092525090939250505056fea2646970667358221220e023368f049ac60d7a5275cb961c9de2bcc8f70c76610ee585527395a7c3930864736f6c63430008170033",
	"gitCommit": "2c257a6d7529e08bc4aac39de4cacacc08d4628e",
	"history": []
}