{
	"format": "sphinx-sol-ct-artifact-1",
	"merkleRoot": "0x60b901bea417fa02d2dfb5b74a6bc7a533df6b0b3a8a469dfbdff63383aebf54",
	"address": "0x2db6d704058e552defe415753465df8df0361846",
	"sourceName": "src/JBMultiTerminal.sol",
	"contractName": "JBMultiTerminal",
	"chainId": "0xa4b1",
	"abi": [
		{
			"inputs": [
				{
					"internalType": "contract IJBFeelessAddresses",
					"name": "feelessAddresses",
					"type": "address"
				},
				{
					"internalType": "contract IJBPermissions",
					"name": "permissions",
					"type": "address"
				},
				{
					"internalType": "contract IJBProjects",
					"name": "projects",
					"type": "address"
				},
				{
					"internalType": "contract IJBSplits",
					"name": "splits",
					"type": "address"
				},
				{
					"internalType": "contract IJBTerminalStore",
					"name": "store",
					"type": "address"
				},
				{
					"internalType": "contract IJBTokens",
					"name": "tokens",
					"type": "address"
				},
				{
					"internalType": "contract IPermit2",
					"name": "permit2",
					"type": "address"
				},
				{
					"internalType": "address",
					"name": "trustedForwarder",
					"type": "address"
				}
			],
			"stateMutability": "nonpayable",
			"type": "constructor"
		},
		{
			"inputs": [],
			"name": "DIRECTORY",
			"outputs": [
				{
					"internalType": "contract IJBDirectory",
					"name": "",
					"type": "address"
				}
			],
			"stateMutability": "view",
			"type": "function"
		},
		{
			"inputs": [],
			"name": "FEE",
			"outputs": [
				{
					"internalType": "uint256",
					"name": "",
					"type": "uint256"
				}
			],
			"stateMutability": "view",
			"type": "function"
		},
		{
			"inputs": [],
			"name": "FEELESS_ADDRESSES",
			"outputs": [
				{
					"internalType": "contract IJBFeelessAddresses",
					"name": "",
					"type": "address"
				}
			],
			"stateMutability": "view",
			"type": "function"
		},
		{
			"inputs": [],
			"name": "PERMISSIONS",
			"outputs": [
				{
					"internalType": "contract IJBPermissions",
					"name": "",
					"type": "address"
				}
			],
			"stateMutability": "view",
			"type": "function"
		},
		{
			"inputs": [],
			"name": "PERMIT2",
			"outputs": [
				{
					"internalType": "contract IPermit2",
					"name": "",
					"type": "address"
				}
			],
			"stateMutability": "view",
			"type": "function"
		},
		{
			"inputs": [],
			"name": "PROJECTS",
			"outputs": [
				{
					"internalType": "contract IJBProjects",
					"name": "",
					"type": "address"
				}
			],
			"stateMutability": "view",
			"type": "function"
		},
		{
			"inputs": [],
			"name": "RULESETS",
			"outputs": [
				{
					"internalType": "contract IJBRulesets",
					"name": "",
					"type": "address"
				}
			],
			"stateMutability": "view",
			"type": "function"
		},
		{
			"inputs": [],
			"name": "SPLITS",
			"outputs": [
				{
					"internalType": "contract IJBSplits",
					"name": "",
					"type": "address"
				}
			],
			"stateMutability": "view",
			"type": "function"
		},
		{
			"inputs": [],
			"name": "STORE",
			"outputs": [
				{
					"internalType": "contract IJBTerminalStore",
					"name": "",
					"type": "address"
				}
			],
			"stateMutability": "view",
			"type": "function"
		},
		{
			"inputs": [],
			"name": "TOKENS",
			"outputs": [
				{
					"internalType": "contract IJBTokens",
					"name": "",
					"type": "address"
				}
			],
			"stateMutability": "view",
			"type": "function"
		},
		{
			"inputs": [
				{
					"internalType": "uint256",
					"name": "projectId",
					"type": "uint256"
				},
				{
					"internalType": "address",
					"name": "token",
					"type": "address"
				}
			],
			"name": "accountingContextForTokenOf",
			"outputs": [
				{
					"components": [
						{
							"internalType": "address",
							"name": "token",
							"type": "address"
						},
						{
							"internalType": "uint8",
							"name": "decimals",
							"type": "uint8"
						},
						{
							"internalType": "uint32",
							"name": "currency",
							"type": "uint32"
						}
					],
					"internalType": "struct JBAccountingContext",
					"name": "",
					"type": "tuple"
				}
			],
			"stateMutability": "view",
			"type": "function"
		},
		{
			"inputs": [
				{
					"internalType": "uint256",
					"name": "projectId",
					"type": "uint256"
				}
			],
			"name": "accountingContextsOf",
			"outputs": [
				{
					"components": [
						{
							"internalType": "address",
							"name": "token",
							"type": "address"
						},
						{
							"internalType": "uint8",
							"name": "decimals",
							"type": "uint8"
						},
						{
							"internalType": "uint32",
							"name": "currency",
							"type": "uint32"
						}
					],
					"internalType": "struct JBAccountingContext[]",
					"name": "",
					"type": "tuple[]"
				}
			],
			"stateMutability": "view",
			"type": "function"
		},
		{
			"inputs": [
				{
					"internalType": "uint256",
					"name": "projectId",
					"type": "uint256"
				},
				{
					"components": [
						{
							"internalType": "address",
							"name": "token",
							"type": "address"
						},
						{
							"internalType": "uint8",
							"name": "decimals",
							"type": "uint8"
						},
						{
							"internalType": "uint32",
							"name": "currency",
							"type": "uint32"
						}
					],
					"internalType": "struct JBAccountingContext[]",
					"name": "accountingContexts",
					"type": "tuple[]"
				}
			],
			"name": "addAccountingContextsFor",
			"outputs": [],
			"stateMutability": "nonpayable",
			"type": "function"
		},
		{
			"inputs": [
				{
					"internalType": "uint256",
					"name": "projectId",
					"type": "uint256"
				},
				{
					"internalType": "address",
					"name": "token",
					"type": "address"
				},
				{
					"internalType": "uint256",
					"name": "amount",
					"type": "uint256"
				},
				{
					"internalType": "bool",
					"name": "shouldReturnHeldFees",
					"type": "bool"
				},
				{
					"internalType": "string",
					"name": "memo",
					"type": "string"
				},
				{
					"internalType": "bytes",
					"name": "metadata",
					"type": "bytes"
				}
			],
			"name": "addToBalanceOf",
			"outputs": [],
			"stateMutability": "payable",
			"type": "function"
		},
		{
			"inputs": [
				{
					"internalType": "address",
					"name": "holder",
					"type": "address"
				},
				{
					"internalType": "uint256",
					"name": "projectId",
					"type": "uint256"
				},
				{
					"internalType": "uint256",
					"name": "cashOutCount",
					"type": "uint256"
				},
				{
					"internalType": "address",
					"name": "tokenToReclaim",
					"type": "address"
				},
				{
					"internalType": "uint256",
					"name": "minTokensReclaimed",
					"type": "uint256"
				},
				{
					"internalType": "address payable",
					"name": "beneficiary",
					"type": "address"
				},
				{
					"internalType": "bytes",
					"name": "metadata",
					"type": "bytes"
				}
			],
			"name": "cashOutTokensOf",
			"outputs": [
				{
					"internalType": "uint256",
					"name": "reclaimAmount",
					"type": "uint256"
				}
			],
			"stateMutability": "nonpayable",
			"type": "function"
		},
		{
			"inputs": [
				{
					"internalType": "uint256",
					"name": "projectId",
					"type": "uint256"
				},
				{
					"components": [
						{
							"internalType": "address",
							"name": "token",
							"type": "address"
						},
						{
							"internalType": "uint8",
							"name": "decimals",
							"type": "uint8"
						},
						{
							"internalType": "uint32",
							"name": "currency",
							"type": "uint32"
						}
					],
					"internalType": "struct JBAccountingContext[]",
					"name": "accountingContexts",
					"type": "tuple[]"
				},
				{
					"internalType": "uint256",
					"name": "decimals",
					"type": "uint256"
				},
				{
					"internalType": "uint256",
					"name": "currency",
					"type": "uint256"
				}
			],
			"name": "currentSurplusOf",
			"outputs": [
				{
					"internalType": "uint256",
					"name": "",
					"type": "uint256"
				}
			],
			"stateMutability": "view",
			"type": "function"
		},
		{
			"inputs": [
				{
					"components": [
						{
							"internalType": "uint32",
							"name": "percent",
							"type": "uint32"
						},
						{
							"internalType": "uint64",
							"name": "projectId",
							"type": "uint64"
						},
						{
							"internalType": "address payable",
							"name": "beneficiary",
							"type": "address"
						},
						{
							"internalType": "bool",
							"name": "preferAddToBalance",
							"type": "bool"
						},
						{
							"internalType": "uint48",
							"name": "lockedUntil",
							"type": "uint48"
						},
						{
							"internalType": "contract IJBSplitHook",
							"name": "hook",
							"type": "address"
						}
					],
					"internalType": "struct JBSplit",
					"name": "split",
					"type": "tuple"
				},
				{
					"internalType": "uint256",
					"name": "projectId",
					"type": "uint256"
				},
				{
					"internalType": "address",
					"name": "token",
					"type": "address"
				},
				{
					"internalType": "uint256",
					"name": "amount",
					"type": "uint256"
				},
				{
					"internalType": "address",
					"name": "originalMessageSender",
					"type": "address"
				}
			],
			"name": "executePayout",
			"outputs": [
				{
					"internalType": "uint256",
					"name": "netPayoutAmount",
					"type": "uint256"
				}
			],
			"stateMutability": "nonpayable",
			"type": "function"
		},
		{
			"inputs": [
				{
					"internalType": "uint256",
					"name": "projectId",
					"type": "uint256"
				},
				{
					"internalType": "address",
					"name": "token",
					"type": "address"
				},
				{
					"internalType": "uint256",
					"name": "amount",
					"type": "uint256"
				},
				{
					"internalType": "address",
					"name": "beneficiary",
					"type": "address"
				},
				{
					"internalType": "contract IJBTerminal",
					"name": "feeTerminal",
					"type": "address"
				}
			],
			"name": "executeProcessFee",
			"outputs": [],
			"stateMutability": "nonpayable",
			"type": "function"
		},
		{
			"inputs": [
				{
					"internalType": "address payable",
					"name": "addr",
					"type": "address"
				},
				{
					"internalType": "address",
					"name": "token",
					"type": "address"
				},
				{
					"internalType": "uint256",
					"name": "amount",
					"type": "uint256"
				}
			],
			"name": "executeTransferTo",
			"outputs": [],
			"stateMutability": "nonpayable",
			"type": "function"
		},
		{
			"inputs": [
				{
					"internalType": "uint256",
					"name": "projectId",
					"type": "uint256"
				},
				{
					"internalType": "address",
					"name": "token",
					"type": "address"
				},
				{
					"internalType": "uint256",
					"name": "count",
					"type": "uint256"
				}
			],
			"name": "heldFeesOf",
			"outputs": [
				{
					"components": [
						{
							"internalType": "uint256",
							"name": "amount",
							"type": "uint256"
						},
						{
							"internalType": "address",
							"name": "beneficiary",
							"type": "address"
						},
						{
							"internalType": "uint48",
							"name": "unlockTimestamp",
							"type": "uint48"
						}
					],
					"internalType": "struct JBFee[]",
					"name": "heldFees",
					"type": "tuple[]"
				}
			],
			"stateMutability": "view",
			"type": "function"
		},
		{
			"inputs": [
				{
					"internalType": "address",
					"name": "forwarder",
					"type": "address"
				}
			],
			"name": "isTrustedForwarder",
			"outputs": [
				{
					"internalType": "bool",
					"name": "",
					"type": "bool"
				}
			],
			"stateMutability": "view",
			"type": "function"
		},
		{
			"inputs": [
				{
					"internalType": "uint256",
					"name": "projectId",
					"type": "uint256"
				},
				{
					"internalType": "address",
					"name": "token",
					"type": "address"
				},
				{
					"internalType": "contract IJBTerminal",
					"name": "to",
					"type": "address"
				}
			],
			"name": "migrateBalanceOf",
			"outputs": [
				{
					"internalType": "uint256",
					"name": "balance",
					"type": "uint256"
				}
			],
			"stateMutability": "nonpayable",
			"type": "function"
		},
		{
			"inputs": [
				{
					"internalType": "uint256",
					"name": "projectId",
					"type": "uint256"
				},
				{
					"internalType": "address",
					"name": "token",
					"type": "address"
				},
				{
					"internalType": "uint256",
					"name": "amount",
					"type": "uint256"
				},
				{
					"internalType": "address",
					"name": "beneficiary",
					"type": "address"
				},
				{
					"internalType": "uint256",
					"name": "minReturnedTokens",
					"type": "uint256"
				},
				{
					"internalType": "string",
					"name": "memo",
					"type": "string"
				},
				{
					"internalType": "bytes",
					"name": "metadata",
					"type": "bytes"
				}
			],
			"name": "pay",
			"outputs": [
				{
					"internalType": "uint256",
					"name": "beneficiaryTokenCount",
					"type": "uint256"
				}
			],
			"stateMutability": "payable",
			"type": "function"
		},
		{
			"inputs": [
				{
					"internalType": "uint256",
					"name": "projectId",
					"type": "uint256"
				},
				{
					"internalType": "address",
					"name": "token",
					"type": "address"
				},
				{
					"internalType": "uint256",
					"name": "count",
					"type": "uint256"
				}
			],
			"name": "processHeldFeesOf",
			"outputs": [],
			"stateMutability": "nonpayable",
			"type": "function"
		},
		{
			"inputs": [
				{
					"internalType": "uint256",
					"name": "projectId",
					"type": "uint256"
				},
				{
					"internalType": "address",
					"name": "token",
					"type": "address"
				},
				{
					"internalType": "uint256",
					"name": "amount",
					"type": "uint256"
				},
				{
					"internalType": "uint256",
					"name": "currency",
					"type": "uint256"
				},
				{
					"internalType": "uint256",
					"name": "minTokensPaidOut",
					"type": "uint256"
				}
			],
			"name": "sendPayoutsOf",
			"outputs": [
				{
					"internalType": "uint256",
					"name": "amountPaidOut",
					"type": "uint256"
				}
			],
			"stateMutability": "nonpayable",
			"type": "function"
		},
		{
			"inputs": [
				{
					"internalType": "bytes4",
					"name": "interfaceId",
					"type": "bytes4"
				}
			],
			"name": "supportsInterface",
			"outputs": [
				{
					"internalType": "bool",
					"name": "",
					"type": "bool"
				}
			],
			"stateMutability": "pure",
			"type": "function"
		},
		{
			"inputs": [],
			"name": "trustedForwarder",
			"outputs": [
				{
					"internalType": "address",
					"name": "",
					"type": "address"
				}
			],
			"stateMutability": "view",
			"type": "function"
		},
		{
			"inputs": [
				{
					"internalType": "uint256",
					"name": "projectId",
					"type": "uint256"
				},
				{
					"internalType": "address",
					"name": "token",
					"type": "address"
				},
				{
					"internalType": "uint256",
					"name": "amount",
					"type": "uint256"
				},
				{
					"internalType": "uint256",
					"name": "currency",
					"type": "uint256"
				},
				{
					"internalType": "uint256",
					"name": "minTokensPaidOut",
					"type": "uint256"
				},
				{
					"internalType": "address payable",
					"name": "beneficiary",
					"type": "address"
				},
				{
					"internalType": "address payable",
					"name": "feeBeneficiary",
					"type": "address"
				},
				{
					"internalType": "string",
					"name": "memo",
					"type": "string"
				}
			],
			"name": "useAllowanceOf",
			"outputs": [
				{
					"internalType": "uint256",
					"name": "netAmountPaidOut",
					"type": "uint256"
				}
			],
			"stateMutability": "nonpayable",
			"type": "function"
		},
		{
			"anonymous": false,
			"inputs": [
				{
					"indexed": true,
					"internalType": "uint256",
					"name": "projectId",
					"type": "uint256"
				},
				{
					"indexed": false,
					"internalType": "uint256",
					"name": "amount",
					"type": "uint256"
				},
				{
					"indexed": false,
					"internalType": "uint256",
					"name": "returnedFees",
					"type": "uint256"
				},
				{
					"indexed": false,
					"internalType": "string",
					"name": "memo",
					"type": "string"
				},
				{
					"indexed": false,
					"internalType": "bytes",
					"name": "metadata",
					"type": "bytes"
				},
				{
					"indexed": false,
					"internalType": "address",
					"name": "caller",
					"type": "address"
				}
			],
			"name": "AddToBalance",
			"type": "event"
		},
		{
			"anonymous": false,
			"inputs": [
				{
					"indexed": true,
					"internalType": "uint256",
					"name": "rulesetId",
					"type": "uint256"
				},
				{
					"indexed": true,
					"internalType": "uint256",
					"name": "rulesetCycleNumber",
					"type": "uint256"
				},
				{
					"indexed": true,
					"internalType": "uint256",
					"name": "projectId",
					"type": "uint256"
				},
				{
					"indexed": false,
					"internalType": "address",
					"name": "holder",
					"type": "address"
				},
				{
					"indexed": false,
					"internalType": "address",
					"name": "beneficiary",
					"type": "address"
				},
				{
					"indexed": false,
					"internalType": "uint256",
					"name": "cashOutCount",
					"type": "uint256"
				},
				{
					"indexed": false,
					"internalType": "uint256",
					"name": "cashOutTaxRate",
					"type": "uint256"
				},
				{
					"indexed": false,
					"internalType": "uint256",
					"name": "reclaimAmount",
					"type": "uint256"
				},
				{
					"indexed": false,
					"internalType": "bytes",
					"name": "metadata",
					"type": "bytes"
				},
				{
					"indexed": false,
					"internalType": "address",
					"name": "caller",
					"type": "address"
				}
			],
			"name": "CashOutTokens",
			"type": "event"
		},
		{
			"anonymous": false,
			"inputs": [
				{
					"indexed": true,
					"internalType": "uint256",
					"name": "projectId",
					"type": "uint256"
				},
				{
					"indexed": true,
					"internalType": "address",
					"name": "token",
					"type": "address"
				},
				{
					"indexed": true,
					"internalType": "uint256",
					"name": "feeProjectId",
					"type": "uint256"
				},
				{
					"indexed": false,
					"internalType": "uint256",
					"name": "amount",
					"type": "uint256"
				},
				{
					"indexed": false,
					"internalType": "bytes",
					"name": "reason",
					"type": "bytes"
				},
				{
					"indexed": false,
					"internalType": "address",
					"name": "caller",
					"type": "address"
				}
			],
			"name": "FeeReverted",
			"type": "event"
		},
		{
			"anonymous": false,
			"inputs": [
				{
					"indexed": true,
					"internalType": "uint256",
					"name": "projectId",
					"type": "uint256"
				},
				{
					"indexed": true,
					"internalType": "address",
					"name": "token",
					"type": "address"
				},
				{
					"indexed": true,
					"internalType": "uint256",
					"name": "amount",
					"type": "uint256"
				},
				{
					"indexed": false,
					"internalType": "uint256",
					"name": "fee",
					"type": "uint256"
				},
				{
					"indexed": false,
					"internalType": "address",
					"name": "beneficiary",
					"type": "address"
				},
				{
					"indexed": false,
					"internalType": "address",
					"name": "caller",
					"type": "address"
				}
			],
			"name": "HoldFee",
			"type": "event"
		},
		{
			"anonymous": false,
			"inputs": [
				{
					"indexed": true,
					"internalType": "contract IJBCashOutHook",
					"name": "hook",
					"type": "address"
				},
				{
					"components": [
						{
							"internalType": "address",
							"name": "holder",
							"type": "address"
						},
						{
							"internalType": "uint256",
							"name": "projectId",
							"type": "uint256"
						},
						{
							"internalType": "uint256",
							"name": "rulesetId",
							"type": "uint256"
						},
						{
							"internalType": "uint256",
							"name": "cashOutCount",
							"type": "uint256"
						},
						{
							"components": [
								{
									"internalType": "address",
									"name": "token",
									"type": "address"
								},
								{
									"internalType": "uint8",
									"name": "decimals",
									"type": "uint8"
								},
								{
									"internalType": "uint32",
									"name": "currency",
									"type": "uint32"
								},
								{
									"internalType": "uint256",
									"name": "value",
									"type": "uint256"
								}
							],
							"internalType": "struct JBTokenAmount",
							"name": "reclaimedAmount",
							"type": "tuple"
						},
						{
							"components": [
								{
									"internalType": "address",
									"name": "token",
									"type": "address"
								},
								{
									"internalType": "uint8",
									"name": "decimals",
									"type": "uint8"
								},
								{
									"internalType": "uint32",
									"name": "currency",
									"type": "uint32"
								},
								{
									"internalType": "uint256",
									"name": "value",
									"type": "uint256"
								}
							],
							"internalType": "struct JBTokenAmount",
							"name": "forwardedAmount",
							"type": "tuple"
						},
						{
							"internalType": "uint256",
							"name": "cashOutTaxRate",
							"type": "uint256"
						},
						{
							"internalType": "address payable",
							"name": "beneficiary",
							"type": "address"
						},
						{
							"internalType": "bytes",
							"name": "hookMetadata",
							"type": "bytes"
						},
						{
							"internalType": "bytes",
							"name": "cashOutMetadata",
							"type": "bytes"
						}
					],
					"indexed": false,
					"internalType": "struct JBAfterCashOutRecordedContext",
					"name": "context",
					"type": "tuple"
				},
				{
					"indexed": false,
					"internalType": "uint256",
					"name": "specificationAmount",
					"type": "uint256"
				},
				{
					"indexed": false,
					"internalType": "uint256",
					"name": "fee",
					"type": "uint256"
				},
				{
					"indexed": false,
					"internalType": "address",
					"name": "caller",
					"type": "address"
				}
			],
			"name": "HookAfterRecordCashOut",
			"type": "event"
		},
		{
			"anonymous": false,
			"inputs": [
				{
					"indexed": true,
					"internalType": "contract IJBPayHook",
					"name": "hook",
					"type": "address"
				},
				{
					"components": [
						{
							"internalType": "address",
							"name": "payer",
							"type": "address"
						},
						{
							"internalType": "uint256",
							"name": "projectId",
							"type": "uint256"
						},
						{
							"internalType": "uint256",
							"name": "rulesetId",
							"type": "uint256"
						},
						{
							"components": [
								{
									"internalType": "address",
									"name": "token",
									"type": "address"
								},
								{
									"internalType": "uint8",
									"name": "decimals",
									"type": "uint8"
								},
								{
									"internalType": "uint32",
									"name": "currency",
									"type": "uint32"
								},
								{
									"internalType": "uint256",
									"name": "value",
									"type": "uint256"
								}
							],
							"internalType": "struct JBTokenAmount",
							"name": "amount",
							"type": "tuple"
						},
						{
							"components": [
								{
									"internalType": "address",
									"name": "token",
									"type": "address"
								},
								{
									"internalType": "uint8",
									"name": "decimals",
									"type": "uint8"
								},
								{
									"internalType": "uint32",
									"name": "currency",
									"type": "uint32"
								},
								{
									"internalType": "uint256",
									"name": "value",
									"type": "uint256"
								}
							],
							"internalType": "struct JBTokenAmount",
							"name": "forwardedAmount",
							"type": "tuple"
						},
						{
							"internalType": "uint256",
							"name": "weight",
							"type": "uint256"
						},
						{
							"internalType": "uint256",
							"name": "newlyIssuedTokenCount",
							"type": "uint256"
						},
						{
							"internalType": "address",
							"name": "beneficiary",
							"type": "address"
						},
						{
							"internalType": "bytes",
							"name": "hookMetadata",
							"type": "bytes"
						},
						{
							"internalType": "bytes",
							"name": "payerMetadata",
							"type": "bytes"
						}
					],
					"indexed": false,
					"internalType": "struct JBAfterPayRecordedContext",
					"name": "context",
					"type": "tuple"
				},
				{
					"indexed": false,
					"internalType": "uint256",
					"name": "specificationAmount",
					"type": "uint256"
				},
				{
					"indexed": false,
					"internalType": "address",
					"name": "caller",
					"type": "address"
				}
			],
			"name": "HookAfterRecordPay",
			"type": "event"
		},
		{
			"anonymous": false,
			"inputs": [
				{
					"indexed": true,
					"internalType": "uint256",
					"name": "projectId",
					"type": "uint256"
				},
				{
					"indexed": true,
					"internalType": "address",
					"name": "token",
					"type": "address"
				},
				{
					"indexed": true,
					"internalType": "contract IJBTerminal",
					"name": "to",
					"type": "address"
				},
				{
					"indexed": false,
					"internalType": "uint256",
					"name": "amount",
					"type": "uint256"
				},
				{
					"indexed": false,
					"internalType": "address",
					"name": "caller",
					"type": "address"
				}
			],
			"name": "MigrateTerminal",
			"type": "event"
		},
		{
			"anonymous": false,
			"inputs": [
				{
					"indexed": true,
					"internalType": "uint256",
					"name": "rulesetId",
					"type": "uint256"
				},
				{
					"indexed": true,
					"internalType": "uint256",
					"name": "rulesetCycleNumber",
					"type": "uint256"
				},
				{
					"indexed": true,
					"internalType": "uint256",
					"name": "projectId",
					"type": "uint256"
				},
				{
					"indexed": false,
					"internalType": "address",
					"name": "payer",
					"type": "address"
				},
				{
					"indexed": false,
					"internalType": "address",
					"name": "beneficiary",
					"type": "address"
				},
				{
					"indexed": false,
					"internalType": "uint256",
					"name": "amount",
					"type": "uint256"
				},
				{
					"indexed": false,
					"internalType": "uint256",
					"name": "newlyIssuedTokenCount",
					"type": "uint256"
				},
				{
					"indexed": false,
					"internalType": "string",
					"name": "memo",
					"type": "string"
				},
				{
					"indexed": false,
					"internalType": "bytes",
					"name": "metadata",
					"type": "bytes"
				},
				{
					"indexed": false,
					"internalType": "address",
					"name": "caller",
					"type": "address"
				}
			],
			"name": "Pay",
			"type": "event"
		},
		{
			"anonymous": false,
			"inputs": [
				{
					"indexed": true,
					"internalType": "uint256",
					"name": "projectId",
					"type": "uint256"
				},
				{
					"components": [
						{
							"internalType": "uint32",
							"name": "percent",
							"type": "uint32"
						},
						{
							"internalType": "uint64",
							"name": "projectId",
							"type": "uint64"
						},
						{
							"internalType": "address payable",
							"name": "beneficiary",
							"type": "address"
						},
						{
							"internalType": "bool",
							"name": "preferAddToBalance",
							"type": "bool"
						},
						{
							"internalType": "uint48",
							"name": "lockedUntil",
							"type": "uint48"
						},
						{
							"internalType": "contract IJBSplitHook",
							"name": "hook",
							"type": "address"
						}
					],
					"indexed": false,
					"internalType": "struct JBSplit",
					"name": "split",
					"type": "tuple"
				},
				{
					"indexed": false,
					"internalType": "uint256",
					"name": "amount",
					"type": "uint256"
				},
				{
					"indexed": false,
					"internalType": "bytes",
					"name": "reason",
					"type": "bytes"
				},
				{
					"indexed": false,
					"internalType": "address",
					"name": "caller",
					"type": "address"
				}
			],
			"name": "PayoutReverted",
			"type": "event"
		},
		{
			"anonymous": false,
			"inputs": [
				{
					"indexed": true,
					"internalType": "uint256",
					"name": "projectId",
					"type": "uint256"
				},
				{
					"indexed": false,
					"internalType": "address",
					"name": "addr",
					"type": "address"
				},
				{
					"indexed": false,
					"internalType": "address",
					"name": "token",
					"type": "address"
				},
				{
					"indexed": false,
					"internalType": "uint256",
					"name": "amount",
					"type": "uint256"
				},
				{
					"indexed": false,
					"internalType": "uint256",
					"name": "fee",
					"type": "uint256"
				},
				{
					"indexed": false,
					"internalType": "bytes",
					"name": "reason",
					"type": "bytes"
				},
				{
					"indexed": false,
					"internalType": "address",
					"name": "caller",
					"type": "address"
				}
			],
			"name": "PayoutTransferReverted",
			"type": "event"
		},
		{
			"anonymous": false,
			"inputs": [
				{
					"indexed": true,
					"internalType": "uint256",
					"name": "projectId",
					"type": "uint256"
				},
				{
					"indexed": true,
					"internalType": "address",
					"name": "token",
					"type": "address"
				},
				{
					"indexed": true,
					"internalType": "uint256",
					"name": "amount",
					"type": "uint256"
				},
				{
					"indexed": false,
					"internalType": "bool",
					"name": "wasHeld",
					"type": "bool"
				},
				{
					"indexed": false,
					"internalType": "address",
					"name": "beneficiary",
					"type": "address"
				},
				{
					"indexed": false,
					"internalType": "address",
					"name": "caller",
					"type": "address"
				}
			],
			"name": "ProcessFee",
			"type": "event"
		},
		{
			"anonymous": false,
			"inputs": [
				{
					"indexed": true,
					"internalType": "uint256",
					"name": "projectId",
					"type": "uint256"
				},
				{
					"indexed": true,
					"internalType": "address",
					"name": "token",
					"type": "address"
				},
				{
					"indexed": true,
					"internalType": "uint256",
					"name": "amount",
					"type": "uint256"
				},
				{
					"indexed": false,
					"internalType": "uint256",
					"name": "returnedFees",
					"type": "uint256"
				},
				{
					"indexed": false,
					"internalType": "uint256",
					"name": "leftoverAmount",
					"type": "uint256"
				},
				{
					"indexed": false,
					"internalType": "address",
					"name": "caller",
					"type": "address"
				}
			],
			"name": "ReturnHeldFees",
			"type": "event"
		},
		{
			"anonymous": false,
			"inputs": [
				{
					"indexed": true,
					"internalType": "uint256",
					"name": "projectId",
					"type": "uint256"
				},
				{
					"indexed": true,
					"internalType": "uint256",
					"name": "rulesetId",
					"type": "uint256"
				},
				{
					"indexed": true,
					"internalType": "uint256",
					"name": "group",
					"type": "uint256"
				},
				{
					"components": [
						{
							"internalType": "uint32",
							"name": "percent",
							"type": "uint32"
						},
						{
							"internalType": "uint64",
							"name": "projectId",
							"type": "uint64"
						},
						{
							"internalType": "address payable",
							"name": "beneficiary",
							"type": "address"
						},
						{
							"internalType": "bool",
							"name": "preferAddToBalance",
							"type": "bool"
						},
						{
							"internalType": "uint48",
							"name": "lockedUntil",
							"type": "uint48"
						},
						{
							"internalType": "contract IJBSplitHook",
							"name": "hook",
							"type": "address"
						}
					],
					"indexed": false,
					"internalType": "struct JBSplit",
					"name": "split",
					"type": "tuple"
				},
				{
					"indexed": false,
					"internalType": "uint256",
					"name": "amount",
					"type": "uint256"
				},
				{
					"indexed": false,
					"internalType": "uint256",
					"name": "netAmount",
					"type": "uint256"
				},
				{
					"indexed": false,
					"internalType": "address",
					"name": "caller",
					"type": "address"
				}
			],
			"name": "SendPayoutToSplit",
			"type": "event"
		},
		{
			"anonymous": false,
			"inputs": [
				{
					"indexed": true,
					"internalType": "uint256",
					"name": "rulesetId",
					"type": "uint256"
				},
				{
					"indexed": true,
					"internalType": "uint256",
					"name": "rulesetCycleNumber",
					"type": "uint256"
				},
				{
					"indexed": true,
					"internalType": "uint256",
					"name": "projectId",
					"type": "uint256"
				},
				{
					"indexed": false,
					"internalType": "address",
					"name": "projectOwner",
					"type": "address"
				},
				{
					"indexed": false,
					"internalType": "uint256",
					"name": "amount",
					"type": "uint256"
				},
				{
					"indexed": false,
					"internalType": "uint256",
					"name": "amountPaidOut",
					"type": "uint256"
				},
				{
					"indexed": false,
					"internalType": "uint256",
					"name": "fee",
					"type": "uint256"
				},
				{
					"indexed": false,
					"internalType": "uint256",
					"name": "netLeftoverPayoutAmount",
					"type": "uint256"
				},
				{
					"indexed": false,
					"internalType": "address",
					"name": "caller",
					"type": "address"
				}
			],
			"name": "SendPayouts",
			"type": "event"
		},
		{
			"anonymous": false,
			"inputs": [
				{
					"indexed": true,
					"internalType": "uint256",
					"name": "projectId",
					"type": "uint256"
				},
				{
					"components": [
						{
							"internalType": "address",
							"name": "token",
							"type": "address"
						},
						{
							"internalType": "uint8",
							"name": "decimals",
							"type": "uint8"
						},
						{
							"internalType": "uint32",
							"name": "currency",
							"type": "uint32"
						}
					],
					"indexed": false,
					"internalType": "struct JBAccountingContext",
					"name": "context",
					"type": "tuple"
				},
				{
					"indexed": false,
					"internalType": "address",
					"name": "caller",
					"type": "address"
				}
			],
			"name": "SetAccountingContext",
			"type": "event"
		},
		{
			"anonymous": false,
			"inputs": [
				{
					"indexed": true,
					"internalType": "uint256",
					"name": "rulesetId",
					"type": "uint256"
				},
				{
					"indexed": true,
					"internalType": "uint256",
					"name": "rulesetCycleNumber",
					"type": "uint256"
				},
				{
					"indexed": true,
					"internalType": "uint256",
					"name": "projectId",
					"type": "uint256"
				},
				{
					"indexed": false,
					"internalType": "address",
					"name": "beneficiary",
					"type": "address"
				},
				{
					"indexed": false,
					"internalType": "address",
					"name": "feeBeneficiary",
					"type": "address"
				},
				{
					"indexed": false,
					"internalType": "uint256",
					"name": "amount",
					"type": "uint256"
				},
				{
					"indexed": false,
					"internalType": "uint256",
					"name": "amountPaidOut",
					"type": "uint256"
				},
				{
					"indexed": false,
					"internalType": "uint256",
					"name": "netAmountPaidOut",
					"type": "uint256"
				},
				{
					"indexed": false,
					"internalType": "string",
					"name": "memo",
					"type": "string"
				},
				{
					"indexed": false,
					"internalType": "address",
					"name": "caller",
					"type": "address"
				}
			],
			"name": "UseAllowance",
			"type": "event"
		},
		{
			"inputs": [],
			"name": "FailedCall",
			"type": "error"
		},
		{
			"inputs": [
				{
					"internalType": "uint256",
					"name": "balance",
					"type": "uint256"
				},
				{
					"internalType": "uint256",
					"name": "needed",
					"type": "uint256"
				}
			],
			"name": "InsufficientBalance",
			"type": "error"
		},
		{
			"inputs": [
				{
					"internalType": "address",
					"name": "token",
					"type": "address"
				}
			],
			"name": "JBMultiTerminal_AccountingContextAlreadySet",
			"type": "error"
		},
		{
			"inputs": [],
			"name": "JBMultiTerminal_AddingAccountingContextNotAllowed",
			"type": "error"
		},
		{
			"inputs": [],
			"name": "JBMultiTerminal_FeeTerminalNotFound",
			"type": "error"
		},
		{
			"inputs": [
				{
					"internalType": "uint256",
					"name": "value",
					"type": "uint256"
				}
			],
			"name": "JBMultiTerminal_NoMsgValueAllowed",
			"type": "error"
		},
		{
			"inputs": [
				{
					"internalType": "uint256",
					"name": "value",
					"type": "uint256"
				},
				{
					"internalType": "uint256",
					"name": "limit",
					"type": "uint256"
				}
			],
			"name": "JBMultiTerminal_OverflowAlert",
			"type": "error"
		},
		{
			"inputs": [
				{
					"internalType": "uint256",
					"name": "amount",
					"type": "uint256"
				},
				{
					"internalType": "uint256",
					"name": "allowance",
					"type": "uint256"
				}
			],
			"name": "JBMultiTerminal_PermitAllowanceNotEnough",
			"type": "error"
		},
		{
			"inputs": [
				{
					"internalType": "uint256",
					"name": "projectId",
					"type": "uint256"
				},
				{
					"internalType": "address",
					"name": "token",
					"type": "address"
				}
			],
			"name": "JBMultiTerminal_RecipientProjectTerminalNotFound",
			"type": "error"
		},
		{
			"inputs": [
				{
					"internalType": "contract IJBSplitHook",
					"name": "hook",
					"type": "address"
				}
			],
			"name": "JBMultiTerminal_SplitHookInvalid",
			"type": "error"
		},
		{
			"inputs": [],
			"name": "JBMultiTerminal_TerminalTokensIncompatible",
			"type": "error"
		},
		{
			"inputs": [
				{
					"internalType": "address",
					"name": "token",
					"type": "address"
				}
			],
			"name": "JBMultiTerminal_TokenNotAccepted",
			"type": "error"
		},
		{
			"inputs": [
				{
					"internalType": "uint256",
					"name": "count",
					"type": "uint256"
				},
				{
					"internalType": "uint256",
					"name": "min",
					"type": "uint256"
				}
			],
			"name": "JBMultiTerminal_UnderMinReturnedTokens",
			"type": "error"
		},
		{
			"inputs": [
				{
					"internalType": "uint256",
					"name": "amount",
					"type": "uint256"
				},
				{
					"internalType": "uint256",
					"name": "min",
					"type": "uint256"
				}
			],
			"name": "JBMultiTerminal_UnderMinTokensPaidOut",
			"type": "error"
		},
		{
			"inputs": [
				{
					"internalType": "uint256",
					"name": "amount",
					"type": "uint256"
				},
				{
					"internalType": "uint256",
					"name": "min",
					"type": "uint256"
				}
			],
			"name": "JBMultiTerminal_UnderMinTokensReclaimed",
			"type": "error"
		},
		{
			"inputs": [],
			"name": "JBMultiTerminal_ZeroAccountingContextCurrency",
			"type": "error"
		},
		{
			"inputs": [],
			"name": "JBMultiTerminal_ZeroAccountingContextDecimals",
			"type": "error"
		},
		{
			"inputs": [
				{
					"internalType": "address",
					"name": "account",
					"type": "address"
				},
				{
					"internalType": "address",
					"name": "sender",
					"type": "address"
				},
				{
					"internalType": "uint256",
					"name": "projectId",
					"type": "uint256"
				},
				{
					"internalType": "uint256",
					"name": "permissionId",
					"type": "uint256"
				}
			],
			"name": "JBPermissioned_Unauthorized",
			"type": "error"
		},
		{
			"inputs": [
				{
					"internalType": "uint256",
					"name": "x",
					"type": "uint256"
				},
				{
					"internalType": "uint256",
					"name": "y",
					"type": "uint256"
				},
				{
					"internalType": "uint256",
					"name": "denominator",
					"type": "uint256"
				}
			],
			"name": "PRBMath_MulDiv_Overflow",
			"type": "error"
		},
		{
			"inputs": [
				{
					"internalType": "address",
					"name": "token",
					"type": "address"
				}
			],
			"name": "SafeERC20FailedOperation",
			"type": "error"
		}
	],
	"args": [],
	"solcInputHash": "51e2de1557bafeed0f574c9089293121",
	"bytecode": "0x6101c06040523480156200001257600080fd5b506040516200611b3803806200611b83398101604081905262000035916200017c565b6001600160a01b0380881660805280821660a052604080516388bc2ef360e01b81529051918616916388bc2ef3916004808201926020929091908290030181865afa15801562000089573d6000803e3d6000fd5b505050506040513d601f19601f82011682018060405250810190620000af91906200023d565b6001600160a01b0390811660c05288811660e052868116610120526040805163d4a1b4b160e01b815290519186169163d4a1b4b1916004808201926020929091908290030181865afa1580156200010a573d6000803e3d6000fd5b505050506040513d601f19601f820116820180604052508101906200013091906200023d565b6001600160a01b039081166101405294851661016052509183166101805282166101a05216610100525062000264915050565b6001600160a01b03811681146200017957600080fd5b50565b600080600080600080600080610100898b0312156200019a57600080fd5b8851620001a78162000163565b60208a0151909850620001ba8162000163565b60408a0151909750620001cd8162000163565b60608a0151909650620001e08162000163565b60808a0151909550620001f38162000163565b60a08a0151909450620002068162000163565b60c08a0151909350620002198162000163565b60e08a01519092506200022c8162000163565b809150509295985092959890939650565b6000602082840312156200025057600080fd5b81516200025d8162000163565b9392505050565b60805160a05160c05160e05161010051610120516101405161016051610180516101a051615daf6200036c6000396000818161025e01528181611a870152611ba80152600081816103e6015281816117a90152818161190b01528181611e810152818161269101528181612b51015281816130b90152613dca0152600081816102aa0152613e5c0152600081816105eb0152610eb201526000818161032001526125750152600081816104e80152818161250401526129a20152600081816104b4015261210701526000818161056f015281816121e6015261260201526000818161045201528181610539015261388f01526000818161067f0152611cd20152615daf6000f3fe6080604052600436106101b75760003560e01c80636afdd850116100ec578063d4a1b4b11161008a578063edb4095011610064578063edb409501461064d578063f434c9141461066d578063fdebc62a146106a1578063fef43257146106c157600080fd5b8063d4a1b4b1146105d9578063ddb4389e1461060d578063e28b54111461062d57600080fd5b806388bc2ef3116100c657806388bc2ef31461055d5780639e6eec0514610591578063c57981b5146105a4578063cfaf5839146105b957600080fd5b80636afdd850146104d6578063748e821c1461050a5780637da0a8771461052a57600080fd5b8063293c499911610159578063515a929311610133578063515a929314610408578063572b6c05146104355780635f912e5614610482578063659a2047146104a257600080fd5b8063293c49991461030e5780633a01714f14610342578063507f1465146103d457600080fd5b80631d831d5c116101955780631d831d5c1461024c5780631f47ce6914610298578063206d4975146102cc578063253721c8146102ec57600080fd5b806301ffc9a7146101bc57806304a83d7f146101f157806313da83171461021e575b600080fd5b3480156101c857600080fd5b506101dc6101d73660046144c9565b6106d4565b60405190151581526020015b60405180910390f35b3480156101fd57600080fd5b5061021161020c366004614508565b6107c8565b6040516101e89190614540565b34801561022a57600080fd5b5061023e6102393660046145eb565b6109a3565b6040519081526020016101e8565b34801561025857600080fd5b506102807f000000000000000000000000000000000000000000000000000000000000000081565b6040516001600160a01b0390911681526020016101e8565b3480156102a457600080fd5b506102807f000000000000000000000000000000000000000000000000000000000000000081565b3480156102d857600080fd5b5061023e6102e7366004614682565b610a33565b3480156102f857600080fd5b5061030c6103073660046146ea565b610e61565b005b34801561031a57600080fd5b506102807f000000000000000000000000000000000000000000000000000000000000000081565b34801561034e57600080fd5b506103c761035d366004614768565b6040805160608082018352600080835260208084018290529284018190529485528482528285206001600160a01b03948516865282529382902082519485018352549283168452600160a01b830460ff1690840152600160a81b90910463ffffffff169082015290565b6040516101e891906147c3565b3480156103e057600080fd5b506102807f000000000000000000000000000000000000000000000000000000000000000081565b34801561041457600080fd5b506104286104233660046147d1565b6112b4565b6040516101e89190614830565b34801561044157600080fd5b506101dc610450366004614843565b7f00000000000000000000000000000000000000000000000000000000000000006001600160a01b0390811691161490565b34801561048e57600080fd5b5061030c61049d366004614860565b61134e565b3480156104ae57600080fd5b506102807f000000000000000000000000000000000000000000000000000000000000000081565b3480156104e257600080fd5b506102807f000000000000000000000000000000000000000000000000000000000000000081565b34801561051657600080fd5b5061023e6105253660046148b1565b6113be565b34801561053657600080fd5b507f0000000000000000000000000000000000000000000000000000000000000000610280565b34801561056957600080fd5b506102807f000000000000000000000000000000000000000000000000000000000000000081565b61030c61059f366004614963565b611459565b3480156105b057600080fd5b5061023e601981565b3480156105c557600080fd5b5061023e6105d43660046149f6565b6114e6565b3480156105e557600080fd5b506102807f000000000000000000000000000000000000000000000000000000000000000081565b34801561061957600080fd5b5061030c610628366004614508565b611521565b34801561063957600080fd5b5061023e610648366004614a3e565b6116d2565b34801561065957600080fd5b5061023e610668366004614bee565b611907565b34801561067957600080fd5b506102807f000000000000000000000000000000000000000000000000000000000000000081565b3480156106ad57600080fd5b5061030c6106bc366004614cad565b611a3f565b61023e6106cf366004614cdd565b611a5c565b60006001600160e01b0319821663279a148b60e01b148061070557506001600160e01b03198216633d0d324560e21b145b8061072057506001600160e01b031982166321c9410760e01b145b8061073b57506001600160e01b031982166313da831760e01b145b8061075657506001600160e01b0319821663bb21da2560e01b145b8061077157506001600160e01b031982166306afdd8560e41b145b8061078c57506001600160e01b0319821663279a148b60e01b145b806107a757506001600160e01b031982166379ffa41360e01b145b806107c257506001600160e01b031982166301ffc9a760e01b145b92915050565b60008381526003602090815260408083206001600160a01b03861680855290835281842054878552600284528285209185529252909120546060919080821061085857604080516000808252602082019092529061084e565b60408051606081018252600080825260208083018290529282015282526000199092019101816108215790505b509250505061099c565b806108638584614d8f565b1115610876576108738282614da2565b93505b836001600160401b0381111561088e5761088e614a80565b6040519080825280602002602001820160405280156108d957816020015b60408051606081018252600080825260208083018290529282015282526000199092019101816108ac5790505b50925060005b848110156109985760008781526002602090815260408083206001600160a01b038a16845290915290206109138285614d8f565b8154811061092357610923614db5565b60009182526020918290206040805160608101825260029390930290910180548352600101546001600160a01b03811693830193909352600160a01b90920465ffffffffffff1691810191909152845185908390811061098557610985614db5565b60209081029190910101526001016108df565b5050505b9392505050565b60006109b189896003611c66565b6109f5898989898888888080601f016020809104026020016040519081016040528093929190818152602001838380828437600092019190915250611d8492505050565b905084811015610a27576040516353004fd560e01b815260048101829052602481018690526044015b60405180910390fd5b98975050505050505050565b6000333014610a4157600080fd5b50816000610a5560c0880160a08901614843565b6001600160a01b031614610c4c57610a7360c0870160a08801614843565b6040516301ffc9a760e01b81526318b4127160e31b60048201526001600160a01b0391909116906301ffc9a790602401602060405180830381865afa158015610ac0573d6000803e3d6000fd5b505050506040513d601f19601f82011682018060405250810190610ae49190614dcb565b610b1d57610af860c0870160a08801614843565b6040516347dfdccf60e11b81526001600160a01b039091166004820152602401610a1e565b610b35610b3060c0880160a08901614843565b6120e5565b610b5157610b44836019612174565b610b4e9082614da2565b90505b6040805160c0810182526001600160a01b0386168082526020808301859052600089815280825284812083825290915283812054600160a01b900460ff169383019390935260608201889052608082015260a08101610bb5368a90038a018a614e11565b905290506000610bd5610bce60c08a0160a08b01614843565b8785612183565b9050610be760c0890160a08a01614843565b6001600160a01b031663c5a0938882846040518363ffffffff1660e01b8152600401610c139190614efd565b6000604051808303818588803b158015610c2c57600080fd5b505af1158015610c40573d6000803e3d6000fd5b50505050505050610e58565b610c5c6040870160208801614f51565b6001600160401b031615610dec576000610c8e610c7f6040890160208a01614f51565b6001600160401b0316866121bd565b90506001600160a01b038116610ce257610cae6040880160208901614f51565b60405163ea4f4b6160e01b81526001600160401b0390911660048201526001600160a01b0386166024820152604401610a1e565b6001600160a01b0381163014801590610d015750610cff816120e5565b155b15610d1e57610d11846019612174565b610d1b9083614da2565b91505b600086604051602001610d3391815260200190565b60408051601f198184030181529190529050610d556080890160608a01614f6e565b15610d8457610d7f82610d6e60408b0160208c01614f51565b6001600160401b0316888685612253565b610de5565b600080610d9760608b0160408c01614843565b6001600160a01b031603610dab5784610dbb565b610dbb60608a0160408b01614843565b9050610de383610dd160408c0160208d01614f51565b6001600160401b031689878587612305565b505b5050610e58565b600080610dff6060890160408a01614843565b6001600160a01b031603610e135782610e23565b610e236060880160408901614843565b9050610e2e816120e5565b610e4a57610e3d846019612174565b610e479083614da2565b91505b610e56308287856123c2565b505b95945050505050565b610e99610e6d8461255c565b846013610e79826125e9565b6001600160a01b0316610e8a612639565b6001600160a01b031614612648565b6040516321d1336160e11b8152600481018490526000907f00000000000000000000000000000000000000000000000000000000000000006001600160a01b0316906343a266c29060240161012060405180830381865afa158015610f02573d6000803e3d6000fd5b505050506040513d601f19601f82011682018060405250810190610f269190615079565b9050806020015165ffffffffffff16600014158015610f515750610100810151604b1c600190811614155b15610f6f576040516308034a2d60e21b815260040160405180910390fd5b60005b828110156112ad576000848483818110610f8e57610f8e614db5565b905060600201803603810190610fa49190615096565b60008781526020818152604080832084516001600160a01b03908116855292529091208054929350911615610ffa5780546040516307295c0160e21b81526001600160a01b039091166004820152602401610a1e565b81516000906001600160a01b031661eeee1480156110205750826020015160ff16601214155b1561102d575060016110c2565b82516001600160a01b031661eeee146110c25782600001516001600160a01b031663313ce5676040518163ffffffff1660e01b8152600401602060405180830381865afa92505050801561109e575060408051601f3d908101601f1916820190925261109b918101906150b2565b60015b6110aa575060006110c2565b8060ff16846020015160ff16146110c057600191505b505b80156110e15760405163104a127760e21b815260040160405180910390fd5b826040015163ffffffff1660000361110c57604051633c94d15b60e01b815260040160405180910390fd5b82600001518260000160006101000a8154816001600160a01b0302191690836001600160a01b0316021790555082602001518260000160146101000a81548160ff021916908360ff16021790555082604001518260000160156101000a81548163ffffffff021916908363ffffffff1602179055506001600089815260200190815260200160002082908060018154018082558091505060019003906000526020600020016000909190919091506000820160009054906101000a90046001600160a01b03168160000160006101000a8154816001600160a01b0302191690836001600160a01b031602179055506000820160149054906101000a900460ff168160000160146101000a81548160ff021916908360ff1602179055506000820160159054906101000a900463ffffffff168160000160156101000a81548163ffffffff021916908363ffffffff1602179055505050877fec91efc21eddd12fa66398fea3251c0e0b95bc53f0cdde2cd2c52e94bf11e0788361128c612639565b60405161129a9291906150cf565b60405180910390a2505050600101610f72565b5050505050565b606060016000838152602001908152602001600020805480602002602001604051908101604052809291908181526020016000905b8282101561134357600084815260209081902060408051606081018252918501546001600160a01b0381168352600160a01b810460ff1683850152600160a81b900463ffffffff16908201528252600190920191016112e9565b505050509050919050565b33301461135a57600080fd5b6001600160a01b03811661138157604051630692dd3560e01b815260040160405180910390fd5b60008560405160200161139691815260200190565b60405160208183030381529060405290506113b682600187878786612305565b505050505050565b6000806113ca8b61255c565b90506113d8818c6010611c66565b61141e8b828c8c8c8b8b8b8b8080601f01602080910402602001604051908101604052809392919081815260200183838082843760009201919091525061265892505050565b91508682101561144b576040516332eb01cf60e21b81526004810183905260248101889052604401610a1e565b509998505050505050505050565b6114dc888861146b8b8b8b88886127ee565b8888888080601f01602080910402602001604051908101604052809392919081815260200183838082843760009201919091525050604080516020601f8c018190048102820181019092528a815292508a9150899081908401838280828437600092019190915250612a9892505050565b5050505050505050565b60006114f486868686612b17565b905081811015610e58576040516332eb01cf60e21b81526004810182905260248101839052604401610a1e565b60008381526003602090815260408083206001600160a01b0386168085529083528184205487855260028452828520918552925290912054808210611567575050505050565b60006115746001866121bd565b9050816115818585614d8f565b1115611594576115918383614da2565b93505b60005b848110156116985760008781526002602090815260408083206001600160a01b038a16845290915281206115cb8387614d8f565b815481106115db576115db614db5565b60009182526020918290206040805160608101825260029390930290910180548352600101546001600160a01b03811693830193909352600160a01b90920465ffffffffffff16918101829052915042101561166e5781156114dc576116418286614d8f565b60008981526003602090815260408083206001600160a01b038c1684529091529020555050505050505050565b61168f888861168284600001516019612174565b8460200151876001612e2d565b50600101611597565b506116a38484614d8f565b60009687526003602090815260408089206001600160a01b039098168952969052949095209390935550505050565b60006116e86116e08561255c565b856005611c66565b604051633a01714f60e01b8152600481018590526001600160a01b038481166024830152831690633a01714f90604401606060405180830381865afa158015611735573d6000803e3d6000fd5b505050506040513d601f19601f82011682018060405250810190611759919061511b565b6040015163ffffffff166000036117835760405163aaf52f1f60e01b815260040160405180910390fd5b6040516319781e2360e01b8152600481018590526001600160a01b0384811660248301527f000000000000000000000000000000000000000000000000000000000000000016906319781e23906044016020604051808303816000875af11580156117f2573d6000803e3d6000fd5b505050506040513d601f19601f82011682018060405250810190611816919061516f565b9050816001600160a01b0316836001600160a01b0316857ff0aa72bb9c2a07cf43281bfe8c525ba320fdc71e18b54c9f93ab22ce074af7f684611857612639565b604080519283526001600160a01b0390911660208301520160405180910390a4801561099c57600061188a838584612183565b6040805160208101825260008082529151639e6eec0560e01b81529293506001600160a01b03861692639e6eec059285926118cd928b928b928a926004016151d8565b6000604051808303818588803b1580156118e657600080fd5b505af11580156118fa573d6000803e3d6000fd5b5050505050509392505050565b60007f00000000000000000000000000000000000000000000000000000000000000006001600160a01b031663d60d1a09308787516000036119cf57600089815260016020908152604080832080548251818502810185019093528083529193909284015b828210156119c657600084815260209081902060408051606081018252918501546001600160a01b0381168352600160a01b810460ff1683850152600160a81b900463ffffffff169082015282526001909201910161196c565b505050506119d1565b875b87876040518663ffffffff1660e01b81526004016119f3959493929190615226565b602060405180830381865afa158015611a10573d6000803e3d6000fd5b505050506040513d601f19601f82011682018060405250810190611a34919061516f565b90505b949350505050565b333014611a4b57600080fd5b611a57308484846123c2565b505050565b6040516310f0007760e31b81526001600160a01b038781166004830152602482018b905260009182917f0000000000000000000000000000000000000000000000000000000000000000169063878003b890604401602060405180830381865afa158015611ace573d6000803e3d6000fd5b505050506040513d601f19601f82011682018060405250810190611af2919061516f565b9050611b7f8b8b611b068e8e8e8a8a6127ee565b611b0e612639565b8c8b8b8080601f01602080910402602001604051908101604052809392919081815260200183838082843760009201919091525050604080516020601f8f018190048102820181019092528d815292508d91508c9081908401838280828437600092019190915250612f9a92505050565b6040516310f0007760e31b81526001600160a01b038981166004830152602482018d90526000917f00000000000000000000000000000000000000000000000000000000000000009091169063878003b890604401602060405180830381865afa158015611bf1573d6000803e3d6000fd5b505050506040513d601f19601f82011682018060405250810190611c15919061516f565b905081811115611c2c57611c298282614da2565b92505b87831015611c575760405163c3de539b60e01b81526004810184905260248101899052604401610a1e565b50509998505050505050505050565b6000611c70612639565b9050836001600160a01b0316816001600160a01b031614158015611d3f5750604051631a45b42760e11b81526001600160a01b0382811660048301528581166024830152604482018590526064820184905260016084830181905260a48301527f0000000000000000000000000000000000000000000000000000000000000000169063348b684e9060c401602060405180830381865afa158015611d19573d6000803e3d6000fd5b505050506040513d601f19601f82011682018060405250810190611d3d9190614dcb565b155b15611d7e57604051631326f75560e11b81526001600160a01b038086166004830152821660248201526044810184905260648101839052608401610a1e565b50505050565b6000611d8e61447d565b6000878152602081815260408083206001600160a01b03898116855290835281842082516060808201855291549283168152600160a01b830460ff1681860152600160a81b90920463ffffffff16828401528b855260018452828520805484518187028101870190955280855291959492938593909290849084015b82821015611e6457600084815260209081902060408051606081018252918501546001600160a01b0381168352600160a01b810460ff1683850152600160a81b900463ffffffff1690820152825260019092019101611e0a565b5050604051633277b1a160e01b8152929350506001600160a01b037f00000000000000000000000000000000000000000000000000000000000000001691633277b1a19150611ec1908f908f908f90889088908f90600401615261565b6000604051808303816000875af1158015611ee0573d6000803e3d6000fd5b505050506040513d6000823e601f3d908101601f19168201604052611f089190810190615316565b91985091965094509250508815611f9c57611f228a6125e9565b60405163516a997360e11b81526001600160a01b038d81166004830152602482018d9052604482018c90526080606483015260006084830152919091169063a2d532e69060a401600060405180830381600087803b158015611f8357600080fd5b505af1158015611f97573d6000803e3d6000fd5b505050505b60008515611ff457611fad886120e5565b158015611fb957508215155b15611fe257611fc88682614d8f565b9050611fd5866019612174565b611fdf9087614da2565b95505b8515611ff457611ff430898b896123c2565b835115612053576120468b60405180608001604052808c6001600160a01b03168152602001856020015160ff168152602001856040015163ffffffff168152602001898152508e8d8b8a898f8c613289565b6120509082614d8f565b90505b80600003612062576000612070565b6120708b8a838b60006134bb565b508a856000015165ffffffffffff16866020015165ffffffffffff167ffaf1d4bf1b08470c7ed8c351c5065f51af70b36b237723173f898453b97241428f8c8f898d8f6120bb612639565b6040516120ce9796959493929190615442565b60405180910390a450505050509695505050505050565b60405163ae74a1b560e01b81526001600160a01b0382811660048301526000917f00000000000000000000000000000000000000000000000000000000000000009091169063ae74a1b590602401602060405180830381865afa158015612150573d6000803e3d6000fd5b505050506040513d601f19601f820116820180604052508101906107c29190614dcb565b600061099c83836103e86135f9565b600061eeed196001600160a01b0384160161219f57508061099c565b6121b36001600160a01b03841685846136cd565b5060009392505050565b604051630862026560e41b8152600481018390526001600160a01b0382811660248301526000917f000000000000000000000000000000000000000000000000000000000000000090911690638620265090604401602060405180830381865afa15801561222f573d6000803e3d6000fd5b505050506040513d601f19601f8201168201806040525081019061099c9190615495565b306001600160a01b038616036122865761228184848460006040518060200160405280600081525086612a98565b6112ad565b6000612293868585612183565b9050856001600160a01b0316639e6eec05828787876000886040518763ffffffff1660e01b81526004016122cb9594939291906151d8565b6000604051808303818588803b1580156122e457600080fd5b505af11580156122f8573d6000803e3d6000fd5b5050505050505050505050565b306001600160a01b038716036123385761233385858530866040518060200160405280600081525087612f9a565b6113b6565b6000612345878686612183565b9050866001600160a01b031663fef4325782888888886000896040518863ffffffff1660e01b815260040161237f969594939291906154b2565b60206040518083038185885af115801561239d573d6000803e3d6000fd5b50505050506040513d601f19601f820116820180604052508101906114dc919061516f565b306001600160a01b038516036124085761eeed196001600160a01b038316016123f4576123ef8382613757565b611d7e565b6123ef6001600160a01b03831684836137e7565b604051636eb1769f60e11b81526001600160a01b03858116600483015230602483015282919084169063dd62ed3e90604401602060405180830381865afa158015612457573d6000803e3d6000fd5b505050506040513d601f19601f8201168201806040525081019061247b919061516f565b10612495576123ef6001600160a01b038316858584613846565b6001600160a01b038111156124cd57604051631999bf2f60e11b8152600481018290526001600160a01b036024820152604401610a1e565b604051631b63c28b60e11b81526001600160a01b0385811660048301528481166024830152828116604483015283811660648301527f000000000000000000000000000000000000000000000000000000000000000016906336c7851690608401600060405180830381600087803b15801561254857600080fd5b505af11580156114dc573d6000803e3d6000fd5b6040516331a9108f60e11b8152600481018290526000907f00000000000000000000000000000000000000000000000000000000000000006001600160a01b031690636352211e906024015b602060405180830381865afa1580156125c5573d6000803e3d6000fd5b505050506040513d601f19601f820116820180604052508101906107c29190615495565b604051632eec7b5560e11b8152600481018290526000907f00000000000000000000000000000000000000000000000000000000000000006001600160a01b031690635dd8f6aa906024016125a8565b600061264361387f565b905090565b80611d7e57611d7e848484611c66565b600061266261447d565b60008a8152602081815260408083206001600160a01b038c811685529252808320905163060f2bdf60e31b81527f0000000000000000000000000000000000000000000000000000000000000000909216916330795ef8916126cd918f91908d908d906004016154fe565b610140604051808303816000875af11580156126ed573d6000803e3d6000fd5b505050506040513d601f19601f82011682018060405250810190612711919061554a565b909250905061271f8a6120e5565b8061272e575061272e866120e5565b61275a576127558b8a83886127508761010001516001604e9190911c81161490565b6134bb565b61275d565b60005b6127679082614da2565b92508a826000015165ffffffffffff16836020015165ffffffffffff167fd836655d29bc0376acd403e1e5a574fc237f820c4717dd006e0c087dfafda56c89898d878a8c6127b3612639565b6040516127c69796959493929190615442565b60405180910390a482156127e0576127e030878b866123c2565b505098975050505050505050565b6000858152602081815260408083206001600160a01b0388811685529252822054166128385760405163765b60eb60e11b81526001600160a01b0386166004820152602401610a1e565b61eeed196001600160a01b03861601612852575034610e58565b341561287357604051633ad385fd60e01b8152346004820152602401610a1e565b6000806128dd6128a1604051806040016040528060078152602001663832b936b4ba1960c91b8152506138f4565b86868080601f01602080910402602001604051908101604052809392919081815260200183838082843760009201919091525061390892505050565b915091508115612a57576000818060200190518101906128fd9190615579565b905080602001516001600160a01b03168711156129455760208101516040516363f4ca5d60e11b8152600481018990526001600160a01b039091166024820152604401610a1e565b6040805160e0810182526001600160a01b03808b166060808401918252602086810151841660808601528686015165ffffffffffff90811660a08701529187015190911660c08501529083523090830152835192820192909252907f000000000000000000000000000000000000000000000000000000000000000016632b67b5706129cf612639565b8385608001516040518463ffffffff1660e01b81526004016129f393929190615628565b600060405180830381600087803b158015612a0d57600080fd5b505af1925050508015612a1e575060015b612a54573d808015612a4c576040519150601f19603f3d011682016040523d82523d6000602084013e612a51565b606091505b50505b50505b6000612a6288613aae565b9050612a77612a6f612639565b308a8a6123c2565b80612a8189613aae565b612a8b9190614da2565b9998505050505050505050565b600083612aa6576000612ab1565b612ab1878787613b36565b9050867f9ecaf7fc3dfffd6867c175d6e684b1f1e3aef019398ba8db2c1ffab4a09db25386838686612ae1612639565b604051612af295949392919061569c565b60405180910390a2612b0e8787612b098489614d8f565b613d9d565b50505050505050565b6000612b2161447d565b6000868152602081815260408083206001600160a01b038981168552925291829020915163181241e760e31b81527f00000000000000000000000000000000000000000000000000000000000000009091169163c0920f3891612b8c918a91899089906004016154fe565b610140604051808303816000875af1158015612bac573d6000803e3d6000fd5b505050506040513d601f19601f82011682018060405250810190612bd0919061554a565b925090506000612bdf8761255c565b610100830151909150604d1c600190811603612c0157612c0181886004611c66565b600080612c1c8989866020015165ffffffffffff1688613e22565b9150915081600014612d76576000612c33846120e5565b612c4757612c42836019612174565b612c4a565b60005b90503063fdebc62a858b612c5e8588614da2565b6040516001600160e01b031960e086901b1681526001600160a01b0393841660048201529290911660248301526044820152606401600060405180830381600087803b158015612cad57600080fd5b505af1925050508015612cbe575060015b612d55573d808015612cec576040519150601f19603f3d011682016040523d82523d6000602084013e612cf1565b606091505b508a7fb10fe0662ad844408d7cca62384b7691f2f9bf6bd6d73f9d7192bd758d4142ae868c612d208689614da2565b8686612d2a612639565b604051612d3c969594939291906156e8565b60405180910390a2612d4f8b8b86613d9d565b50612d74565b8015612d7457612d658383614d8f565b9150612d718184614da2565b92505b505b6000612d968a8a84876127508a61010001516001604e9190911c81161490565b905089856000015165ffffffffffff16866020015165ffffffffffff167fda42c5c18ef97738d10c32811895add569670a6fcbe9627ea198d446f3be6dea878c8b878a612de1612639565b604080516001600160a01b03978816815260208101969096528501939093526060840191909152608083015290911660a082015260c00160405180910390a45050505050949350505050565b604051632fc8972b60e11b8152600481018790526001600160a01b038087166024830152604482018690528085166064830152831660848201523090635f912e569060a401600060405180830381600087803b158015612e8c57600080fd5b505af1925050508015612e9d575060015b612f31573d808015612ecb576040519150601f19603f3d011682016040523d82523d6000602084013e612ed0565b606091505b506001866001600160a01b0316887f4b73f3c5cfb174c9d0494138d07ff8ee3aa400df46327d9893ed5ac122dd558a8885612f09612639565b604051612f1893929190615734565b60405180910390a4612f2b878787613d9d565b506113b6565b83856001600160a01b0316877fb514e730b3f8ad3aa94b6857bcc5ff4a46954bdcf8c4b0346705b1d0ac7a43258487612f68612639565b6040805193151584526001600160a01b03928316602085015291169082015260600160405180910390a4505050505050565b60408051608081018252600080825260208201819052918101829052606081019190915260008060008a81526020019081526020016000206000896001600160a01b03166001600160a01b031681526020019081526020016000206040518060600160405290816000820160009054906101000a90046001600160a01b03166001600160a01b03166001600160a01b031681526020016000820160149054906101000a900460ff1660ff1660ff1681526020016000820160159054906101000a900463ffffffff1663ffffffff1663ffffffff168152505090506040518060800160405280896001600160a01b03168152602001826020015160ff168152602001826040015163ffffffff1681526020018881525091505060008060007f00000000000000000000000000000000000000000000000000000000000000006001600160a01b031663c59dfadb89868e8b8a6040518663ffffffff1660e01b815260040161310b95949392919061579a565b6000604051808303816000875af115801561312a573d6000803e3d6000fd5b505050506040513d6000823e601f3d908101601f1916820160405261315291908101906157dc565b9250925092506000826000146131ff5761316b8c6125e9565b6040516363fdc96f60e11b8152600481018e9052602481018590526001600160a01b038a8116604483015260a06064830152600060a483015260016084830152919091169063c7fb92de9060c4016020604051808303816000875af11580156131d8573d6000803e3d6000fd5b505050506040513d601f19601f820116820180604052508101906131fc919061516f565b90505b8b846000015165ffffffffffff16856020015165ffffffffffff167f133161f1c9161488f777ab9a26aae91d47c0d9a3fafb398960f138db02c737978c8c8f878e8e613249612639565b60405161325c97969594939291906158fb565b60405180910390a481511561327b5761327b8c83878c888d878d613fc3565b505050505050505050505050565b6000806040518061014001604052808a6001600160a01b031681526020018c8152602001876020015165ffffffffffff1681526020018981526020018b81526020018b8152602001868152602001856001600160a01b0316815260200160405180602001604052806000815250815260200188815250905060005b8351811015611c5757600084828151811061332157613321614db5565b60200260200101519050600061333a82600001516120e5565b6133525761334d82602001516019612174565b613355565b60005b9050801561338457602082015161336c9086614d8f565b945080826020018181516133809190614da2565b9052505b60405180608001604052808e600001516001600160a01b031681526020018e6020015160ff1681526020018e6040015163ffffffff16815260200183602001518152508460a00181905250816040015184610100018190525060006133f683600001518f600001518560200151612183565b835160405163611481d960e11b81529192506001600160a01b03169063c22903b2908390613428908990600401615a06565b6000604051808303818588803b15801561344157600080fd5b505af1158015613455573d6000803e3d6000fd5b505050505082600001516001600160a01b03167fcf8b519514967a394374844411e77f7b1aab68299a65fa6d3593a4f30deaec3586856020015185613498612639565b6040516134a89493929190615a19565b60405180910390a2505050600101613304565b60006134c8846019612174565b905081156135db5760008681526002602090815260408083206001600160a01b03808a16855290835292819020815160608101835288815293871692840192909252909190810161351c6224ea0042614d8f565b65ffffffffffff908116909152825460018181018555600094855260209485902084516002909302019182559383015193018054604090930151909116600160a01b026001600160d01b03199092166001600160a01b039384161791909117905584908616877fef9cd8fc3b61b64b44042ada0a8a3ede1649bc1b112673da228120f13bf1381e6019876135ae612639565b604080519384526001600160a01b03928316602085015291169082015260600160405180910390a4610e58565b60006135e86001876121bd565b9050610e5687878487856000612e2d565b60008080600019858709858702925082811083820303915050806000036136335783828161362957613629615a51565b049250505061099c565b83811061366457604051630c740aef60e31b8152600481018790526024810186905260448101859052606401610a1e565b60008486880960026001871981018816978890046003810283188082028403028082028403028082028403028082028403028082028403029081029092039091026000889003889004909101858311909403939093029303949094049190911702949350505050565b604051636eb1769f60e11b81523060048201526001600160a01b0383811660248301526000919085169063dd62ed3e90604401602060405180830381865afa15801561371d573d6000803e3d6000fd5b505050506040513d601f19601f82011682018060405250810190613741919061516f565b9050611d7e84846137528585614d8f565b61419e565b804710156137815760405163cf47918160e01b815247600482015260248101829052604401610a1e565b600080836001600160a01b03168360405160006040518083038185875af1925050503d80600081146137cf576040519150601f19603f3d011682016040523d82523d6000602084013e6137d4565b606091505b509150915081611d7e57611d7e8161422e565b6040516001600160a01b03838116602483015260448201839052611a5791859182169063a9059cbb906064015b604051602081830303815290604052915060e01b6020820180516001600160e01b03838183161783525050505061425a565b6040516001600160a01b038481166024830152838116604483015260648201839052611d7e9186918216906323b872dd90608401613814565b6000366014336001600160a01b037f0000000000000000000000000000000000000000000000000000000000000000161480156138bc5750808210155b156138ec576000366138ce8385614da2565b6138d9928290615a67565b6138e291615a91565b60601c9250505090565b339250505090565b805160208201206000903060601b186107c2565b60006060602583511161392d5750506040805160208101909152600080825290613aa7565b60008361393c60046020614d8f565b8151811061394c5761394c614db5565b0160209081015160f81c91505b600085613967600484614d8f565b8151811061397757613977614db5565b01602001516001600160f81b0319161480159061399d575061399a602083615ac6565b81105b15613aa4576000856139b0600484614d8f565b815181106139c0576139c0614db5565b016020908101518784019091015160f89190911c91506001600160e01b031980891690821603613a9a5760006139f7602086615ac6565b613a02600986614d8f565b101580613a37575087613a16600986614d8f565b81518110613a2657613a26614db5565b01602001516001600160f81b031916155b613a7057602088613a49600987614d8f565b81518110613a5957613a59614db5565b0160200151613a6b919060f81c615ac6565b613a73565b87515b90506001613a8c89613a86602087615ac6565b846142cb565b965096505050505050613aa7565b5050600501613959565b50505b9250929050565b60006001600160a01b03821661eeee14613b2f576040516370a0823160e01b81523060048201526001600160a01b038316906370a0823190602401602060405180830381865afa158015613b06573d6000803e3d6000fd5b505050506040513d601f19601f82011682018060405250810190613b2a919061516f565b6107c2565b4792915050565b60008381526003602090815260408083206001600160a01b03861680855290835281842054878552600284528285209185529252822054808210613b7f5760009250505061099c565b836000613b8c8484614da2565b90508360005b82811015613d055760008a81526002602090815260408083206001600160a01b038d1684529091528120613bc68389614d8f565b81548110613bd657613bd6614db5565b600091825260208083206040805160608101825260029490940290910180548452600101546001600160a01b03811692840192909252600160a01b90910465ffffffffffff16908201529150859003613c2f5750613d05565b6000613c4082600001516019612174565b90506000818360000151613c549190614da2565b9050808710613c8257988101989586900395613c70848a614d8f565b613c7b906001614d8f565b9450613cfa565b613c8d876019614307565b9150818701600260008f815260200190815260200160002060008e6001600160a01b03166001600160a01b03168152602001908152602001600020858b0181548110613cdb57613cdb614db5565b6000918252602082206002909102018054929092039091559982019996505b505050600101613b92565b50808514613d335760008981526003602090815260408083206001600160a01b038c16845290915290208190555b86886001600160a01b03168a7fedc5125503c021a73fd7d8ed0c2456b296be2c88f39fbed068bd091cef7ca43d8987613d6a612639565b6040805193845260208401929092526001600160a01b03169082015260600160405180910390a450505050509392505050565b6040516351fc173560e01b8152600481018490526001600160a01b038381166024830152604482018390527f000000000000000000000000000000000000000000000000000000000000000016906351fc173590606401600060405180830381600087803b158015613e0e57600080fd5b505af1158015612b0e573d6000803e3d6000fd5b6040516369e11cc560e01b815260048101859052602481018390526001600160a01b0384811660448301526000918291633b9aca009183917f000000000000000000000000000000000000000000000000000000000000000016906369e11cc590606401600060405180830381865afa158015613ea3573d6000803e3d6000fd5b505050506040513d6000823e601f3d908101601f19168201604052613ecb9190810190615add565b905060005b8151811015613fb4576000828281518110613eed57613eed614db5565b602002602001015190506000613f0e88836000015163ffffffff16876135f9565b90506000613f1e838d8d8561432a565b90508015801590613f2f5750818114155b15613f4157613f3e8288614d8f565b96505b8115613f4d5781890398505b825163ffffffff16909503946001600160a01b038b168a8d7f946c70c84d6886ad6041aecbcdd3c9afb80133d1ba92011a9f54dbc173e6d8a7868686613f91612639565b604051613fa19493929190615bee565b60405180910390a4505050600101613ed0565b50849350505094509492505050565b6000604051806101400160405280876001600160a01b031681526020018a8152602001866020015165ffffffffffff1681526020018881526020018881526020018660a001516001600160701b03168152602001848152602001856001600160a01b0316815260200160405180602001604052806000815250815260200183815250905060005b885181101561419257600089828151811061406757614067614db5565b60209081029190910181015160408051608080820183528d516001600160a01b031682528d85015160ff16828601528d83015163ffffffff1682840152938301805160608301529387015281015161010086015280518b5192519193506000926140d092612183565b825160405163099bfcc360e11b81529192506001600160a01b031690631337f986908390614102908890600401615cb2565b6000604051808303818588803b15801561411b57600080fd5b505af115801561412f573d6000803e3d6000fd5b505050505081600001516001600160a01b03167fb1ed2cd5f80d2005b57f16c4c1a1c8ee500b96725924cad83e44f32f05f400c0858460200151614171612639565b60405161418093929190615cc5565b60405180910390a2505060010161404a565b50505050505050505050565b604080516001600160a01b038416602482015260448082018490528251808303909101815260649091019091526020810180516001600160e01b031663095ea7b360e01b1790526141ef848261442e565b611d7e576040516001600160a01b0384811660248301526000604483015261422491869182169063095ea7b390606401613814565b611d7e848261425a565b80511561423e5780518082602001fd5b60405163d6bda27560e01b815260040160405180910390fd5b50565b600080602060008451602086016000885af18061427d576040513d6000823e3d81fd5b50506000513d915081156142955780600114156142a2565b6001600160a01b0384163b155b15611d7e57604051635274afe760e01b81526001600160a01b0385166004820152602401610a1e565b60608282036040519150602081830101604052808252508260208501016020820160005b848110156109985782810151828201526020016142ef565b600082614320816103e861431b8682614da2565b6135f9565b61099c9190614da2565b60003063206d49758686868661433e612639565b6040518663ffffffff1660e01b815260040161435e959493929190615cf8565b6020604051808303816000875af1925050508015614399575060408051601f3d908101601f191682019092526143969181019061516f565b60015b614427573d8080156143c7576040519150601f19603f3d011682016040523d82523d6000602084013e6143cc565b606091505b50847fe1dc2e46221329e3b79397625c100336d78d12de8fbbeefcc76c350ba44a89b38785846143fa612639565b60405161440a9493929190615d37565b60405180910390a261441d858585613d9d565b6000915050611a37565b9050611a37565b6000806000806020600086516020880160008a5af192503d91506000519050828015614473575081156144645780600114614473565b6000866001600160a01b03163b115b9695505050505050565b6040805161012081018252600080825260208201819052918101829052606081018290526080810182905260a0810182905260c0810182905260e0810182905261010081019190915290565b6000602082840312156144db57600080fd5b81356001600160e01b03198116811461099c57600080fd5b6001600160a01b038116811461425757600080fd5b60008060006060848603121561451d57600080fd5b83359250602084013561452f816144f3565b929592945050506040919091013590565b602080825282518282018190526000919060409081850190868401855b8281101561459d57815180518552868101516001600160a01b03168786015285015165ffffffffffff16858501526060909301929085019060010161455d565b5091979650505050505050565b60008083601f8401126145bc57600080fd5b5081356001600160401b038111156145d357600080fd5b602083019150836020828501011115613aa757600080fd5b60008060008060008060008060e0898b03121561460757600080fd5b8835614612816144f3565b975060208901359650604089013595506060890135614630816144f3565b94506080890135935060a0890135614647816144f3565b925060c08901356001600160401b0381111561466257600080fd5b61466e8b828c016145aa565b999c989b5096995094979396929594505050565b600080600080600085870361014081121561469c57600080fd5b60c08112156146aa57600080fd5b5085945060c0860135935060e08601356146c3816144f3565b925061010086013591506101208601356146dc816144f3565b809150509295509295909350565b6000806000604084860312156146ff57600080fd5b8335925060208401356001600160401b038082111561471d57600080fd5b818601915086601f83011261473157600080fd5b81358181111561474057600080fd5b87602060608302850101111561475557600080fd5b6020830194508093505050509250925092565b6000806040838503121561477b57600080fd5b82359150602083013561478d816144f3565b809150509250929050565b80516001600160a01b0316825260208082015160ff169083015260409081015163ffffffff16910152565b606081016107c28284614798565b6000602082840312156147e357600080fd5b5035919050565b60008151808452602080850194506020840160005b8381101561482557614812878351614798565b60609690960195908201906001016147ff565b509495945050505050565b60208152600061099c60208301846147ea565b60006020828403121561485557600080fd5b813561099c816144f3565b600080600080600060a0868803121561487857600080fd5b85359450602086013561488a816144f3565b93506040860135925060608601356148a1816144f3565b915060808601356146dc816144f3565b60008060008060008060008060006101008a8c0312156148d057600080fd5b8935985060208a01356148e2816144f3565b975060408a0135965060608a0135955060808a0135945060a08a0135614907816144f3565b935060c08a0135614917816144f3565b925060e08a01356001600160401b0381111561493257600080fd5b61493e8c828d016145aa565b915080935050809150509295985092959850929598565b801515811461425757600080fd5b60008060008060008060008060c0898b03121561497f57600080fd5b883597506020890135614991816144f3565b96506040890135955060608901356149a881614955565b945060808901356001600160401b03808211156149c457600080fd5b6149d08c838d016145aa565b909650945060a08b01359150808211156149e957600080fd5b5061466e8b828c016145aa565b600080600080600060a08688031215614a0e57600080fd5b853594506020860135614a20816144f3565b94979496505050506040830135926060810135926080909101359150565b600080600060608486031215614a5357600080fd5b833592506020840135614a65816144f3565b91506040840135614a75816144f3565b809150509250925092565b634e487b7160e01b600052604160045260246000fd5b604051606081016001600160401b0381118282101715614ab857614ab8614a80565b60405290565b60405160c081016001600160401b0381118282101715614ab857614ab8614a80565b60405161012081016001600160401b0381118282101715614ab857614ab8614a80565b60405160a081016001600160401b0381118282101715614ab857614ab8614a80565b604051601f8201601f191681016001600160401b0381118282101715614b4d57614b4d614a80565b604052919050565b60006001600160401b03821115614b6e57614b6e614a80565b5060051b60200190565b60ff8116811461425757600080fd5b63ffffffff8116811461425757600080fd5b600060608284031215614bab57600080fd5b614bb3614a96565b90508135614bc0816144f3565b81526020820135614bd081614b78565b60208201526040820135614be381614b87565b604082015292915050565b60008060008060808587031215614c0457600080fd5b843593506020808601356001600160401b03811115614c2257600080fd5b8601601f81018813614c3357600080fd5b8035614c46614c4182614b55565b614b25565b80828252602082019150606060206060850286010193508b841115614c6a57600080fd5b6020850194505b83851015614c9257614c838c86614b99565b83529384019391850191614c71565b50979a97995050505060408601359560600135949350505050565b600080600060608486031215614cc257600080fd5b8335614ccd816144f3565b9250602084013561452f816144f3565b600080600080600080600080600060e08a8c031215614cfb57600080fd5b8935985060208a0135614d0d816144f3565b975060408a0135965060608a0135614d24816144f3565b955060808a0135945060a08a01356001600160401b0380821115614d4757600080fd5b614d538d838e016145aa565b909650945060c08c0135915080821115614d6c57600080fd5b5061493e8c828d016145aa565b634e487b7160e01b600052601160045260246000fd5b808201808211156107c2576107c2614d79565b818103818111156107c2576107c2614d79565b634e487b7160e01b600052603260045260246000fd5b600060208284031215614ddd57600080fd5b815161099c81614955565b6001600160401b038116811461425757600080fd5b65ffffffffffff8116811461425757600080fd5b600060c08284031215614e2357600080fd5b614e2b614abe565b8235614e3681614b87565b81526020830135614e4681614de8565b60208201526040830135614e59816144f3565b60408201526060830135614e6c81614955565b60608201526080830135614e7f81614dfd565b608082015260a0830135614e92816144f3565b60a08201529392505050565b805163ffffffff1682526020808201516001600160401b0316908301526040808201516001600160a01b039081169184019190915260608083015115159084015260808083015165ffffffffffff169084015260a09182015116910152565b81516001600160a01b031681526020808301519082015260408083015190820152606080830151908201526080808301519082015260a082810151610160830191614f4a90840182614e9e565b5092915050565b600060208284031215614f6357600080fd5b813561099c81614de8565b600060208284031215614f8057600080fd5b813561099c81614955565b8051614f9681614dfd565b919050565b8051614f9681614b87565b80516001600160701b0381168114614f9657600080fd5b8051614f96816144f3565b60006101208284031215614fdb57600080fd5b614fe3614ae0565b9050614fee82614f8b565b8152614ffc60208301614f8b565b602082015261500d60408301614f8b565b604082015261501e60608301614f8b565b606082015261502f60808301614f9b565b608082015261504060a08301614fa6565b60a082015261505160c08301614f9b565b60c082015261506260e08301614fbd565b60e082015261010080830151818301525092915050565b6000610120828403121561508c57600080fd5b61099c8383614fc8565b6000606082840312156150a857600080fd5b61099c8383614b99565b6000602082840312156150c457600080fd5b815161099c81614b78565b608081016151038285546001600160a01b038116825260a081901c60ff16602083015260a81c63ffffffff16604090910152565b6001600160a01b039290921660609190910152919050565b60006060828403121561512d57600080fd5b615135614a96565b8251615140816144f3565b8152602083015161515081614b78565b6020820152604083015161516381614b87565b60408201529392505050565b60006020828403121561518157600080fd5b5051919050565b60005b838110156151a357818101518382015260200161518b565b50506000910152565b600081518084526151c4816020860160208601615188565b601f01601f19169290920160200192915050565b85815260018060a01b0385166020820152836040820152821515606082015260c06080820152600060c082015260e060a0820152600061521b60e08301846151ac565b979650505050505050565b60018060a01b038616815284602082015260a06040820152600061524d60a08301866147ea565b606083019490945250608001529392505050565b6001600160a01b03871681526020810186905260408101859052600061010061528d6060840187614798565b8060c084015261529f818401866147ea565b905082810360e0840152612a8b81856151ac565b600082601f8301126152c457600080fd5b81516001600160401b038111156152dd576152dd614a80565b6152f0601f8201601f1916602001614b25565b81815284602083860101111561530557600080fd5b611a37826020830160208701615188565b600080600080610180858703121561532d57600080fd5b6153378686614fc8565b9350610120850151925061014085015191506101608501516001600160401b038082111561536457600080fd5b818701915087601f83011261537857600080fd5b8151615386614c4182614b55565b8082825260208201915060208360051b86010192508a8311156153a857600080fd5b602085015b83811015615432578051858111156153c457600080fd5b86016060818e03601f190112156153da57600080fd5b6153e2614a96565b60208201516153f0816144f3565b81526040820151602082015260608201518781111561540e57600080fd5b61541d8f6020838601016152b3565b604083015250845250602092830192016153ad565b50979a9699509497505050505050565b600060018060a01b03808a168352808916602084015287604084015286606084015285608084015260e060a084015261547e60e08401866151ac565b915080841660c08401525098975050505050505050565b6000602082840312156154a757600080fd5b815161099c816144f3565b868152600060018060a01b03808816602084015286604084015280861660608401525083608083015260e060a0830152600060e08301526101008060c0840152612a8b818401856151ac565b84815260c081016155386020830186546001600160a01b038116825260a081901c60ff16602083015260a81c63ffffffff16604090910152565b608082019390935260a0015292915050565b600080610140838503121561555e57600080fd5b6155688484614fc8565b915061012083015190509250929050565b60006020828403121561558b57600080fd5b81516001600160401b03808211156155a257600080fd5b9083019060a082860312156155b657600080fd5b6155be614b03565b8251815260208301516155d0816144f3565b602082015260408301516155e381614dfd565b604082015260608301516155f681614dfd565b606082015260808301518281111561560d57600080fd5b615619878286016152b3565b60808301525095945050505050565b600061010060018060a01b0380871684528551818151166020860152816020820151166040860152604081015165ffffffffffff80821660608801528060608401511660808801525050508060208701511660a085015250604085015160c08401528060e0840152614473818401856151ac565b85815284602082015260a0604082015260006156bb60a08301866151ac565b82810360608401526156cd81866151ac565b91505060018060a01b03831660808301529695505050505050565b600060018060a01b038089168352808816602084015286604084015285606084015260c0608084015261571e60c08401866151ac565b915080841660a084015250979650505050505050565b83815260606020820152600061574d60608301856151ac565b905060018060a01b0383166040830152949350505050565b80516001600160a01b0316825260208082015160ff169083015260408082015163ffffffff1690830152606090810151910152565b6001600160a01b038681168252600090610100906157bb6020850189615765565b8660a085015280861660c0850152508060e0840152610a27818401856151ac565b600080600061016084860312156157f257600080fd5b6157fc8585614fc8565b925061012084015191506101408401516001600160401b038082111561582157600080fd5b818601915086601f83011261583557600080fd5b81516020615845614c4183614b55565b82815260059290921b8401810191818101908a84111561586457600080fd5b8286015b848110156158ea5780518681111561587f57600080fd5b87016060818e03601f1901121561589557600080fd5b61589d614a96565b858201516158aa816144f3565b81526040820151868201526060820151888111156158c85760008081fd5b6158d68f88838601016152b3565b604083015250845250918301918301615868565b508096505050505050509250925092565b600060018060a01b03808a168352808916602084015287604084015286606084015260e0608084015261593160e08401876151ac565b83810360a085015261594381876151ac565b92505080841660c08401525098975050505050505050565b80516001600160a01b031682526000610200602083015160208501526040830151604085015260608301516060850152608083015161599d6080860182615765565b5060a08301516101006159b281870183615765565b60c085015161018087015260e08501516001600160a01b03166101a08701528401516101c0860183905290506159ea828601826151ac565b9150506101208301518482036101e0860152610e5882826151ac565b60208152600061099c602083018461595b565b608081526000615a2c608083018761595b565b60208301959095525060408101929092526001600160a01b0316606090910152919050565b634e487b7160e01b600052601260045260246000fd5b60008085851115615a7757600080fd5b83861115615a8457600080fd5b5050820193919092039150565b6bffffffffffffffffffffffff198135818116916014851015615abe5780818660140360031b1b83161692505b505092915050565b80820281158282048414176107c2576107c2614d79565b60006020808385031215615af057600080fd5b82516001600160401b03811115615b0657600080fd5b8301601f81018513615b1757600080fd5b8051615b25614c4182614b55565b81815260c09182028301840191848201919088841115615b4457600080fd5b938501935b83851015615be25780858a031215615b615760008081fd5b615b69614abe565b8551615b7481614b87565b815285870151615b8381614de8565b81880152604086810151615b96816144f3565b90820152606086810151615ba981614955565b90820152608086810151615bbc81614dfd565b9082015260a086810151615bcf816144f3565b9082015283529384019391850191615b49565b50979650505050505050565b6101208101615bfd8287614e9e565b60c082019490945260e08101929092526001600160a01b031661010090910152919050565b80516001600160a01b03168252600061020060208301516020850152604083015160408501526060830151615c5a6060860182615765565b506080830151615c6d60e0860182615765565b5060a083015161016085015260c083015161018085015260e08301516001600160a01b03166101a08501526101008301516101c085018290526159ea828601826151ac565b60208152600061099c6020830184615c22565b606081526000615cd86060830186615c22565b6020830194909452506001600160a01b0391909116604090910152919050565b6101408101615d078288614e9e565b60c08201959095526001600160a01b0393841660e082015261010081019290925290911661012090910152919050565b6000610120615d468388614e9e565b8560c08401528060e0840152615d5e818401866151ac565b91505060018060a01b0383166101008301529594505050505056fea26469706673582212206944f27e6f5b326b123ea2f778c6f42e1939c8cb826bb0df93db7fca2cf9bedb64736f6c63430008170033",
	"deployedBytecode": "0x6080604052600436106101b75760003560e01c80636afdd850116100ec578063d4a1b4b11161008a578063edb4095011610064578063edb409501461064d578063f434c9141461066d578063fdebc62a146106a1578063fef43257146106c157600080fd5b8063d4a1b4b1146105d9578063ddb4389e1461060d578063e28b54111461062d57600080fd5b806388bc2ef3116100c657806388bc2ef31461055d5780639e6eec0514610591578063c57981b5146105a4578063cfaf5839146105b957600080fd5b80636afdd850146104d6578063748e821c1461050a5780637da0a8771461052a57600080fd5b8063293c499911610159578063515a929311610133578063515a929314610408578063572b6c05146104355780635f912e5614610482578063659a2047146104a257600080fd5b8063293c49991461030e5780633a01714f14610342578063507f1465146103d457600080fd5b80631d831d5c116101955780631d831d5c1461024c5780631f47ce6914610298578063206d4975146102cc578063253721c8146102ec57600080fd5b806301ffc9a7146101bc57806304a83d7f146101f157806313da83171461021e575b600080fd5b3480156101c857600080fd5b506101dc6101d73660046144c9565b6106d4565b60405190151581526020015b60405180910390f35b3480156101fd57600080fd5b5061021161020c366004614508565b6107c8565b6040516101e89190614540565b34801561022a57600080fd5b5061023e6102393660046145eb565b6109a3565b6040519081526020016101e8565b34801561025857600080fd5b506102807f0000000000000000000000004d0edd347fb1fa21589c1e109b3474924be8763681565b6040516001600160a01b0390911681526020016101e8565b3480156102a457600080fd5b506102807f0000000000000000000000007160a322fea44945a6ef9adfd65c322258df3c5e81565b3480156102d857600080fd5b5061023e6102e7366004614682565b610a33565b3480156102f857600080fd5b5061030c6103073660046146ea565b610e61565b005b34801561031a57600080fd5b506102807f000000000000000000000000885f707efa18d2cb12f05a3a8eba6b4b26c8c1d481565b34801561034e57600080fd5b506103c761035d366004614768565b6040805160608082018352600080835260208084018290529284018190529485528482528285206001600160a01b03948516865282529382902082519485018352549283168452600160a01b830460ff1690840152600160a81b90910463ffffffff169082015290565b6040516101e891906147c3565b3480156103e057600080fd5b506102807f000000000000000000000000fe33b439ec53748c87dcedacb83f05add501474481565b34801561041457600080fd5b506104286104233660046147d1565b6112b4565b6040516101e89190614830565b34801561044157600080fd5b506101dc610450366004614843565b7f000000000000000000000000c29d6995ab3b0df4650ad643adeac55e7acbb5666001600160a01b0390811691161490565b34801561048e57600080fd5b5061030c61049d366004614860565b61134e565b3480156104ae57600080fd5b506102807f000000000000000000000000fc702a0190f3edbc369208dfe77bf273add91d5381565b3480156104e257600080fd5b506102807f000000000000000000000000000000000022d473030f116ddee9f6b43ac78ba381565b34801561051657600080fd5b5061023e6105253660046148b1565b6113be565b34801561053657600080fd5b507f000000000000000000000000c29d6995ab3b0df4650ad643adeac55e7acbb566610280565b34801561056957600080fd5b506102807f0000000000000000000000000061e516886a0540f63157f112c0588ee0651dcf81565b61030c61059f366004614963565b611459565b3480156105b057600080fd5b5061023e601981565b3480156105c557600080fd5b5061023e6105d43660046149f6565b6114e6565b3480156105e557600080fd5b506102807f0000000000000000000000006292281d69c3593fcf6ea074e5797341476ab42881565b34801561061957600080fd5b5061030c610628366004614508565b611521565b34801561063957600080fd5b5061023e610648366004614a3e565b6116d2565b34801561065957600080fd5b5061023e610668366004614bee565b611907565b34801561067957600080fd5b506102807f00000000000000000000000004fd6913d6c32d8c216e153a43c04b1857a7793d81565b3480156106ad57600080fd5b5061030c6106bc366004614cad565b611a3f565b61023e6106cf366004614cdd565b611a5c565b60006001600160e01b0319821663279a148b60e01b148061070557506001600160e01b03198216633d0d324560e21b145b8061072057506001600160e01b031982166321c9410760e01b145b8061073b57506001600160e01b031982166313da831760e01b145b8061075657506001600160e01b0319821663bb21da2560e01b145b8061077157506001600160e01b031982166306afdd8560e41b145b8061078c57506001600160e01b0319821663279a148b60e01b145b806107a757506001600160e01b031982166379ffa41360e01b145b806107c257506001600160e01b031982166301ffc9a760e01b145b92915050565b60008381526003602090815260408083206001600160a01b03861680855290835281842054878552600284528285209185529252909120546060919080821061085857604080516000808252602082019092529061084e565b60408051606081018252600080825260208083018290529282015282526000199092019101816108215790505b509250505061099c565b806108638584614d8f565b1115610876576108738282614da2565b93505b836001600160401b0381111561088e5761088e614a80565b6040519080825280602002602001820160405280156108d957816020015b60408051606081018252600080825260208083018290529282015282526000199092019101816108ac5790505b50925060005b848110156109985760008781526002602090815260408083206001600160a01b038a16845290915290206109138285614d8f565b8154811061092357610923614db5565b60009182526020918290206040805160608101825260029390930290910180548352600101546001600160a01b03811693830193909352600160a01b90920465ffffffffffff1691810191909152845185908390811061098557610985614db5565b60209081029190910101526001016108df565b5050505b9392505050565b60006109b189896003611c66565b6109f5898989898888888080601f016020809104026020016040519081016040528093929190818152602001838380828437600092019190915250611d8492505050565b905084811015610a27576040516353004fd560e01b815260048101829052602481018690526044015b60405180910390fd5b98975050505050505050565b6000333014610a4157600080fd5b50816000610a5560c0880160a08901614843565b6001600160a01b031614610c4c57610a7360c0870160a08801614843565b6040516301ffc9a760e01b81526318b4127160e31b60048201526001600160a01b0391909116906301ffc9a790602401602060405180830381865afa158015610ac0573d6000803e3d6000fd5b505050506040513d601f19601f82011682018060405250810190610ae49190614dcb565b610b1d57610af860c0870160a08801614843565b6040516347dfdccf60e11b81526001600160a01b039091166004820152602401610a1e565b610b35610b3060c0880160a08901614843565b6120e5565b610b5157610b44836019612174565b610b4e9082614da2565b90505b6040805160c0810182526001600160a01b0386168082526020808301859052600089815280825284812083825290915283812054600160a01b900460ff169383019390935260608201889052608082015260a08101610bb5368a90038a018a614e11565b905290506000610bd5610bce60c08a0160a08b01614843565b8785612183565b9050610be760c0890160a08a01614843565b6001600160a01b031663c5a0938882846040518363ffffffff1660e01b8152600401610c139190614efd565b6000604051808303818588803b158015610c2c57600080fd5b505af1158015610c40573d6000803e3d6000fd5b50505050505050610e58565b610c5c6040870160208801614f51565b6001600160401b031615610dec576000610c8e610c7f6040890160208a01614f51565b6001600160401b0316866121bd565b90506001600160a01b038116610ce257610cae6040880160208901614f51565b60405163ea4f4b6160e01b81526001600160401b0390911660048201526001600160a01b0386166024820152604401610a1e565b6001600160a01b0381163014801590610d015750610cff816120e5565b155b15610d1e57610d11846019612174565b610d1b9083614da2565b91505b600086604051602001610d3391815260200190565b60408051601f198184030181529190529050610d556080890160608a01614f6e565b15610d8457610d7f82610d6e60408b0160208c01614f51565b6001600160401b0316888685612253565b610de5565b600080610d9760608b0160408c01614843565b6001600160a01b031603610dab5784610dbb565b610dbb60608a0160408b01614843565b9050610de383610dd160408c0160208d01614f51565b6001600160401b031689878587612305565b505b5050610e58565b600080610dff6060890160408a01614843565b6001600160a01b031603610e135782610e23565b610e236060880160408901614843565b9050610e2e816120e5565b610e4a57610e3d846019612174565b610e479083614da2565b91505b610e56308287856123c2565b505b95945050505050565b610e99610e6d8461255c565b846013610e79826125e9565b6001600160a01b0316610e8a612639565b6001600160a01b031614612648565b6040516321d1336160e11b8152600481018490526000907f0000000000000000000000006292281d69c3593fcf6ea074e5797341476ab4286001600160a01b0316906343a266c29060240161012060405180830381865afa158015610f02573d6000803e3d6000fd5b505050506040513d601f19601f82011682018060405250810190610f269190615079565b9050806020015165ffffffffffff16600014158015610f515750610100810151604b1c600190811614155b15610f6f576040516308034a2d60e21b815260040160405180910390fd5b60005b828110156112ad576000848483818110610f8e57610f8e614db5565b905060600201803603810190610fa49190615096565b60008781526020818152604080832084516001600160a01b03908116855292529091208054929350911615610ffa5780546040516307295c0160e21b81526001600160a01b039091166004820152602401610a1e565b81516000906001600160a01b031661eeee1480156110205750826020015160ff16601214155b1561102d575060016110c2565b82516001600160a01b031661eeee146110c25782600001516001600160a01b031663313ce5676040518163ffffffff1660e01b8152600401602060405180830381865afa92505050801561109e575060408051601f3d908101601f1916820190925261109b918101906150b2565b60015b6110aa575060006110c2565b8060ff16846020015160ff16146110c057600191505b505b80156110e15760405163104a127760e21b815260040160405180910390fd5b826040015163ffffffff1660000361110c57604051633c94d15b60e01b815260040160405180910390fd5b82600001518260000160006101000a8154816001600160a01b0302191690836001600160a01b0316021790555082602001518260000160146101000a81548160ff021916908360ff16021790555082604001518260000160156101000a81548163ffffffff021916908363ffffffff1602179055506001600089815260200190815260200160002082908060018154018082558091505060019003906000526020600020016000909190919091506000820160009054906101000a90046001600160a01b03168160000160006101000a8154816001600160a01b0302191690836001600160a01b031602179055506000820160149054906101000a900460ff168160000160146101000a81548160ff021916908360ff1602179055506000820160159054906101000a900463ffffffff168160000160156101000a81548163ffffffff021916908363ffffffff1602179055505050877fec91efc21eddd12fa66398fea3251c0e0b95bc53f0cdde2cd2c52e94bf11e0788361128c612639565b60405161129a9291906150cf565b60405180910390a2505050600101610f72565b5050505050565b606060016000838152602001908152602001600020805480602002602001604051908101604052809291908181526020016000905b8282101561134357600084815260209081902060408051606081018252918501546001600160a01b0381168352600160a01b810460ff1683850152600160a81b900463ffffffff16908201528252600190920191016112e9565b505050509050919050565b33301461135a57600080fd5b6001600160a01b03811661138157604051630692dd3560e01b815260040160405180910390fd5b60008560405160200161139691815260200190565b60405160208183030381529060405290506113b682600187878786612305565b505050505050565b6000806113ca8b61255c565b90506113d8818c6010611c66565b61141e8b828c8c8c8b8b8b8b8080601f01602080910402602001604051908101604052809392919081815260200183838082843760009201919091525061265892505050565b91508682101561144b576040516332eb01cf60e21b81526004810183905260248101889052604401610a1e565b509998505050505050505050565b6114dc888861146b8b8b8b88886127ee565b8888888080601f01602080910402602001604051908101604052809392919081815260200183838082843760009201919091525050604080516020601f8c018190048102820181019092528a815292508a9150899081908401838280828437600092019190915250612a9892505050565b5050505050505050565b60006114f486868686612b17565b905081811015610e58576040516332eb01cf60e21b81526004810182905260248101839052604401610a1e565b60008381526003602090815260408083206001600160a01b0386168085529083528184205487855260028452828520918552925290912054808210611567575050505050565b60006115746001866121bd565b9050816115818585614d8f565b1115611594576115918383614da2565b93505b60005b848110156116985760008781526002602090815260408083206001600160a01b038a16845290915281206115cb8387614d8f565b815481106115db576115db614db5565b60009182526020918290206040805160608101825260029390930290910180548352600101546001600160a01b03811693830193909352600160a01b90920465ffffffffffff16918101829052915042101561166e5781156114dc576116418286614d8f565b60008981526003602090815260408083206001600160a01b038c1684529091529020555050505050505050565b61168f888861168284600001516019612174565b8460200151876001612e2d565b50600101611597565b506116a38484614d8f565b60009687526003602090815260408089206001600160a01b039098168952969052949095209390935550505050565b60006116e86116e08561255c565b856005611c66565b604051633a01714f60e01b8152600481018590526001600160a01b038481166024830152831690633a01714f90604401606060405180830381865afa158015611735573d6000803e3d6000fd5b505050506040513d601f19601f82011682018060405250810190611759919061511b565b6040015163ffffffff166000036117835760405163aaf52f1f60e01b815260040160405180910390fd5b6040516319781e2360e01b8152600481018590526001600160a01b0384811660248301527f000000000000000000000000fe33b439ec53748c87dcedacb83f05add501474416906319781e23906044016020604051808303816000875af11580156117f2573d6000803e3d6000fd5b505050506040513d601f19601f82011682018060405250810190611816919061516f565b9050816001600160a01b0316836001600160a01b0316857ff0aa72bb9c2a07cf43281bfe8c525ba320fdc71e18b54c9f93ab22ce074af7f684611857612639565b604080519283526001600160a01b0390911660208301520160405180910390a4801561099c57600061188a838584612183565b6040805160208101825260008082529151639e6eec0560e01b81529293506001600160a01b03861692639e6eec059285926118cd928b928b928a926004016151d8565b6000604051808303818588803b1580156118e657600080fd5b505af11580156118fa573d6000803e3d6000fd5b5050505050509392505050565b60007f000000000000000000000000fe33b439ec53748c87dcedacb83f05add50147446001600160a01b031663d60d1a09308787516000036119cf57600089815260016020908152604080832080548251818502810185019093528083529193909284015b828210156119c657600084815260209081902060408051606081018252918501546001600160a01b0381168352600160a01b810460ff1683850152600160a81b900463ffffffff169082015282526001909201910161196c565b505050506119d1565b875b87876040518663ffffffff1660e01b81526004016119f3959493929190615226565b602060405180830381865afa158015611a10573d6000803e3d6000fd5b505050506040513d601f19601f82011682018060405250810190611a34919061516f565b90505b949350505050565b333014611a4b57600080fd5b611a57308484846123c2565b505050565b6040516310f0007760e31b81526001600160a01b038781166004830152602482018b905260009182917f0000000000000000000000004d0edd347fb1fa21589c1e109b3474924be87636169063878003b890604401602060405180830381865afa158015611ace573d6000803e3d6000fd5b505050506040513d601f19601f82011682018060405250810190611af2919061516f565b9050611b7f8b8b611b068e8e8e8a8a6127ee565b611b0e612639565b8c8b8b8080601f01602080910402602001604051908101604052809392919081815260200183838082843760009201919091525050604080516020601f8f018190048102820181019092528d815292508d91508c9081908401838280828437600092019190915250612f9a92505050565b6040516310f0007760e31b81526001600160a01b038981166004830152602482018d90526000917f0000000000000000000000004d0edd347fb1fa21589c1e109b3474924be876369091169063878003b890604401602060405180830381865afa158015611bf1573d6000803e3d6000fd5b505050506040513d601f19601f82011682018060405250810190611c15919061516f565b905081811115611c2c57611c298282614da2565b92505b87831015611c575760405163c3de539b60e01b81526004810184905260248101899052604401610a1e565b50509998505050505050505050565b6000611c70612639565b9050836001600160a01b0316816001600160a01b031614158015611d3f5750604051631a45b42760e11b81526001600160a01b0382811660048301528581166024830152604482018590526064820184905260016084830181905260a48301527f00000000000000000000000004fd6913d6c32d8c216e153a43c04b1857a7793d169063348b684e9060c401602060405180830381865afa158015611d19573d6000803e3d6000fd5b505050506040513d601f19601f82011682018060405250810190611d3d9190614dcb565b155b15611d7e57604051631326f75560e11b81526001600160a01b038086166004830152821660248201526044810184905260648101839052608401610a1e565b50505050565b6000611d8e61447d565b6000878152602081815260408083206001600160a01b03898116855290835281842082516060808201855291549283168152600160a01b830460ff1681860152600160a81b90920463ffffffff16828401528b855260018452828520805484518187028101870190955280855291959492938593909290849084015b82821015611e6457600084815260209081902060408051606081018252918501546001600160a01b0381168352600160a01b810460ff1683850152600160a81b900463ffffffff1690820152825260019092019101611e0a565b5050604051633277b1a160e01b8152929350506001600160a01b037f000000000000000000000000fe33b439ec53748c87dcedacb83f05add50147441691633277b1a19150611ec1908f908f908f90889088908f90600401615261565b6000604051808303816000875af1158015611ee0573d6000803e3d6000fd5b505050506040513d6000823e601f3d908101601f19168201604052611f089190810190615316565b91985091965094509250508815611f9c57611f228a6125e9565b60405163516a997360e11b81526001600160a01b038d81166004830152602482018d9052604482018c90526080606483015260006084830152919091169063a2d532e69060a401600060405180830381600087803b158015611f8357600080fd5b505af1158015611f97573d6000803e3d6000fd5b505050505b60008515611ff457611fad886120e5565b158015611fb957508215155b15611fe257611fc88682614d8f565b9050611fd5866019612174565b611fdf9087614da2565b95505b8515611ff457611ff430898b896123c2565b835115612053576120468b60405180608001604052808c6001600160a01b03168152602001856020015160ff168152602001856040015163ffffffff168152602001898152508e8d8b8a898f8c613289565b6120509082614d8f565b90505b80600003612062576000612070565b6120708b8a838b60006134bb565b508a856000015165ffffffffffff16866020015165ffffffffffff167ffaf1d4bf1b08470c7ed8c351c5065f51af70b36b237723173f898453b97241428f8c8f898d8f6120bb612639565b6040516120ce9796959493929190615442565b60405180910390a450505050509695505050505050565b60405163ae74a1b560e01b81526001600160a01b0382811660048301526000917f000000000000000000000000fc702a0190f3edbc369208dfe77bf273add91d539091169063ae74a1b590602401602060405180830381865afa158015612150573d6000803e3d6000fd5b505050506040513d601f19601f820116820180604052508101906107c29190614dcb565b600061099c83836103e86135f9565b600061eeed196001600160a01b0384160161219f57508061099c565b6121b36001600160a01b03841685846136cd565b5060009392505050565b604051630862026560e41b8152600481018390526001600160a01b0382811660248301526000917f0000000000000000000000000061e516886a0540f63157f112c0588ee0651dcf90911690638620265090604401602060405180830381865afa15801561222f573d6000803e3d6000fd5b505050506040513d601f19601f8201168201806040525081019061099c9190615495565b306001600160a01b038616036122865761228184848460006040518060200160405280600081525086612a98565b6112ad565b6000612293868585612183565b9050856001600160a01b0316639e6eec05828787876000886040518763ffffffff1660e01b81526004016122cb9594939291906151d8565b6000604051808303818588803b1580156122e457600080fd5b505af11580156122f8573d6000803e3d6000fd5b5050505050505050505050565b306001600160a01b038716036123385761233385858530866040518060200160405280600081525087612f9a565b6113b6565b6000612345878686612183565b9050866001600160a01b031663fef4325782888888886000896040518863ffffffff1660e01b815260040161237f969594939291906154b2565b60206040518083038185885af115801561239d573d6000803e3d6000fd5b50505050506040513d601f19601f820116820180604052508101906114dc919061516f565b306001600160a01b038516036124085761eeed196001600160a01b038316016123f4576123ef8382613757565b611d7e565b6123ef6001600160a01b03831684836137e7565b604051636eb1769f60e11b81526001600160a01b03858116600483015230602483015282919084169063dd62ed3e90604401602060405180830381865afa158015612457573d6000803e3d6000fd5b505050506040513d601f19601f8201168201806040525081019061247b919061516f565b10612495576123ef6001600160a01b038316858584613846565b6001600160a01b038111156124cd57604051631999bf2f60e11b8152600481018290526001600160a01b036024820152604401610a1e565b604051631b63c28b60e11b81526001600160a01b0385811660048301528481166024830152828116604483015283811660648301527f000000000000000000000000000000000022d473030f116ddee9f6b43ac78ba316906336c7851690608401600060405180830381600087803b15801561254857600080fd5b505af11580156114dc573d6000803e3d6000fd5b6040516331a9108f60e11b8152600481018290526000907f000000000000000000000000885f707efa18d2cb12f05a3a8eba6b4b26c8c1d46001600160a01b031690636352211e906024015b602060405180830381865afa1580156125c5573d6000803e3d6000fd5b505050506040513d601f19601f820116820180604052508101906107c29190615495565b604051632eec7b5560e11b8152600481018290526000907f0000000000000000000000000061e516886a0540f63157f112c0588ee0651dcf6001600160a01b031690635dd8f6aa906024016125a8565b600061264361387f565b905090565b80611d7e57611d7e848484611c66565b600061266261447d565b60008a8152602081815260408083206001600160a01b038c811685529252808320905163060f2bdf60e31b81527f000000000000000000000000fe33b439ec53748c87dcedacb83f05add5014744909216916330795ef8916126cd918f91908d908d906004016154fe565b610140604051808303816000875af11580156126ed573d6000803e3d6000fd5b505050506040513d601f19601f82011682018060405250810190612711919061554a565b909250905061271f8a6120e5565b8061272e575061272e866120e5565b61275a576127558b8a83886127508761010001516001604e9190911c81161490565b6134bb565b61275d565b60005b6127679082614da2565b92508a826000015165ffffffffffff16836020015165ffffffffffff167fd836655d29bc0376acd403e1e5a574fc237f820c4717dd006e0c087dfafda56c89898d878a8c6127b3612639565b6040516127c69796959493929190615442565b60405180910390a482156127e0576127e030878b866123c2565b505098975050505050505050565b6000858152602081815260408083206001600160a01b0388811685529252822054166128385760405163765b60eb60e11b81526001600160a01b0386166004820152602401610a1e565b61eeed196001600160a01b03861601612852575034610e58565b341561287357604051633ad385fd60e01b8152346004820152602401610a1e565b6000806128dd6128a1604051806040016040528060078152602001663832b936b4ba1960c91b8152506138f4565b86868080601f01602080910402602001604051908101604052809392919081815260200183838082843760009201919091525061390892505050565b915091508115612a57576000818060200190518101906128fd9190615579565b905080602001516001600160a01b03168711156129455760208101516040516363f4ca5d60e11b8152600481018990526001600160a01b039091166024820152604401610a1e565b6040805160e0810182526001600160a01b03808b166060808401918252602086810151841660808601528686015165ffffffffffff90811660a08701529187015190911660c08501529083523090830152835192820192909252907f000000000000000000000000000000000022d473030f116ddee9f6b43ac78ba316632b67b5706129cf612639565b8385608001516040518463ffffffff1660e01b81526004016129f393929190615628565b600060405180830381600087803b158015612a0d57600080fd5b505af1925050508015612a1e575060015b612a54573d808015612a4c576040519150601f19603f3d011682016040523d82523d6000602084013e612a51565b606091505b50505b50505b6000612a6288613aae565b9050612a77612a6f612639565b308a8a6123c2565b80612a8189613aae565b612a8b9190614da2565b9998505050505050505050565b600083612aa6576000612ab1565b612ab1878787613b36565b9050867f9ecaf7fc3dfffd6867c175d6e684b1f1e3aef019398ba8db2c1ffab4a09db25386838686612ae1612639565b604051612af295949392919061569c565b60405180910390a2612b0e8787612b098489614d8f565b613d9d565b50505050505050565b6000612b2161447d565b6000868152602081815260408083206001600160a01b038981168552925291829020915163181241e760e31b81527f000000000000000000000000fe33b439ec53748c87dcedacb83f05add50147449091169163c0920f3891612b8c918a91899089906004016154fe565b610140604051808303816000875af1158015612bac573d6000803e3d6000fd5b505050506040513d601f19601f82011682018060405250810190612bd0919061554a565b925090506000612bdf8761255c565b610100830151909150604d1c600190811603612c0157612c0181886004611c66565b600080612c1c8989866020015165ffffffffffff1688613e22565b9150915081600014612d76576000612c33846120e5565b612c4757612c42836019612174565b612c4a565b60005b90503063fdebc62a858b612c5e8588614da2565b6040516001600160e01b031960e086901b1681526001600160a01b0393841660048201529290911660248301526044820152606401600060405180830381600087803b158015612cad57600080fd5b505af1925050508015612cbe575060015b612d55573d808015612cec576040519150601f19603f3d011682016040523d82523d6000602084013e612cf1565b606091505b508a7fb10fe0662ad844408d7cca62384b7691f2f9bf6bd6d73f9d7192bd758d4142ae868c612d208689614da2565b8686612d2a612639565b604051612d3c969594939291906156e8565b60405180910390a2612d4f8b8b86613d9d565b50612d74565b8015612d7457612d658383614d8f565b9150612d718184614da2565b92505b505b6000612d968a8a84876127508a61010001516001604e9190911c81161490565b905089856000015165ffffffffffff16866020015165ffffffffffff167fda42c5c18ef97738d10c32811895add569670a6fcbe9627ea198d446f3be6dea878c8b878a612de1612639565b604080516001600160a01b03978816815260208101969096528501939093526060840191909152608083015290911660a082015260c00160405180910390a45050505050949350505050565b604051632fc8972b60e11b8152600481018790526001600160a01b038087166024830152604482018690528085166064830152831660848201523090635f912e569060a401600060405180830381600087803b158015612e8c57600080fd5b505af1925050508015612e9d575060015b612f31573d808015612ecb576040519150601f19603f3d011682016040523d82523d6000602084013e612ed0565b606091505b506001866001600160a01b0316887f4b73f3c5cfb174c9d0494138d07ff8ee3aa400df46327d9893ed5ac122dd558a8885612f09612639565b604051612f1893929190615734565b60405180910390a4612f2b878787613d9d565b506113b6565b83856001600160a01b0316877fb514e730b3f8ad3aa94b6857bcc5ff4a46954bdcf8c4b0346705b1d0ac7a43258487612f68612639565b6040805193151584526001600160a01b03928316602085015291169082015260600160405180910390a4505050505050565b60408051608081018252600080825260208201819052918101829052606081019190915260008060008a81526020019081526020016000206000896001600160a01b03166001600160a01b031681526020019081526020016000206040518060600160405290816000820160009054906101000a90046001600160a01b03166001600160a01b03166001600160a01b031681526020016000820160149054906101000a900460ff1660ff1660ff1681526020016000820160159054906101000a900463ffffffff1663ffffffff1663ffffffff168152505090506040518060800160405280896001600160a01b03168152602001826020015160ff168152602001826040015163ffffffff1681526020018881525091505060008060007f000000000000000000000000fe33b439ec53748c87dcedacb83f05add50147446001600160a01b031663c59dfadb89868e8b8a6040518663ffffffff1660e01b815260040161310b95949392919061579a565b6000604051808303816000875af115801561312a573d6000803e3d6000fd5b505050506040513d6000823e601f3d908101601f1916820160405261315291908101906157dc565b9250925092506000826000146131ff5761316b8c6125e9565b6040516363fdc96f60e11b8152600481018e9052602481018590526001600160a01b038a8116604483015260a06064830152600060a483015260016084830152919091169063c7fb92de9060c4016020604051808303816000875af11580156131d8573d6000803e3d6000fd5b505050506040513d601f19601f820116820180604052508101906131fc919061516f565b90505b8b846000015165ffffffffffff16856020015165ffffffffffff167f133161f1c9161488f777ab9a26aae91d47c0d9a3fafb398960f138db02c737978c8c8f878e8e613249612639565b60405161325c97969594939291906158fb565b60405180910390a481511561327b5761327b8c83878c888d878d613fc3565b505050505050505050505050565b6000806040518061014001604052808a6001600160a01b031681526020018c8152602001876020015165ffffffffffff1681526020018981526020018b81526020018b8152602001868152602001856001600160a01b0316815260200160405180602001604052806000815250815260200188815250905060005b8351811015611c5757600084828151811061332157613321614db5565b60200260200101519050600061333a82600001516120e5565b6133525761334d82602001516019612174565b613355565b60005b9050801561338457602082015161336c9086614d8f565b945080826020018181516133809190614da2565b9052505b60405180608001604052808e600001516001600160a01b031681526020018e6020015160ff1681526020018e6040015163ffffffff16815260200183602001518152508460a00181905250816040015184610100018190525060006133f683600001518f600001518560200151612183565b835160405163611481d960e11b81529192506001600160a01b03169063c22903b2908390613428908990600401615a06565b6000604051808303818588803b15801561344157600080fd5b505af1158015613455573d6000803e3d6000fd5b505050505082600001516001600160a01b03167fcf8b519514967a394374844411e77f7b1aab68299a65fa6d3593a4f30deaec3586856020015185613498612639565b6040516134a89493929190615a19565b60405180910390a2505050600101613304565b60006134c8846019612174565b905081156135db5760008681526002602090815260408083206001600160a01b03808a16855290835292819020815160608101835288815293871692840192909252909190810161351c6224ea0042614d8f565b65ffffffffffff908116909152825460018181018555600094855260209485902084516002909302019182559383015193018054604090930151909116600160a01b026001600160d01b03199092166001600160a01b039384161791909117905584908616877fef9cd8fc3b61b64b44042ada0a8a3ede1649bc1b112673da228120f13bf1381e6019876135ae612639565b604080519384526001600160a01b03928316602085015291169082015260600160405180910390a4610e58565b60006135e86001876121bd565b9050610e5687878487856000612e2d565b60008080600019858709858702925082811083820303915050806000036136335783828161362957613629615a51565b049250505061099c565b83811061366457604051630c740aef60e31b8152600481018790526024810186905260448101859052606401610a1e565b60008486880960026001871981018816978890046003810283188082028403028082028403028082028403028082028403028082028403029081029092039091026000889003889004909101858311909403939093029303949094049190911702949350505050565b604051636eb1769f60e11b81523060048201526001600160a01b0383811660248301526000919085169063dd62ed3e90604401602060405180830381865afa15801561371d573d6000803e3d6000fd5b505050506040513d601f19601f82011682018060405250810190613741919061516f565b9050611d7e84846137528585614d8f565b61419e565b804710156137815760405163cf47918160e01b815247600482015260248101829052604401610a1e565b600080836001600160a01b03168360405160006040518083038185875af1925050503d80600081146137cf576040519150601f19603f3d011682016040523d82523d6000602084013e6137d4565b606091505b509150915081611d7e57611d7e8161422e565b6040516001600160a01b03838116602483015260448201839052611a5791859182169063a9059cbb906064015b604051602081830303815290604052915060e01b6020820180516001600160e01b03838183161783525050505061425a565b6040516001600160a01b038481166024830152838116604483015260648201839052611d7e9186918216906323b872dd90608401613814565b6000366014336001600160a01b037f000000000000000000000000c29d6995ab3b0df4650ad643adeac55e7acbb566161480156138bc5750808210155b156138ec576000366138ce8385614da2565b6138d9928290615a67565b6138e291615a91565b60601c9250505090565b339250505090565b805160208201206000903060601b186107c2565b60006060602583511161392d5750506040805160208101909152600080825290613aa7565b60008361393c60046020614d8f565b8151811061394c5761394c614db5565b0160209081015160f81c91505b600085613967600484614d8f565b8151811061397757613977614db5565b01602001516001600160f81b0319161480159061399d575061399a602083615ac6565b81105b15613aa4576000856139b0600484614d8f565b815181106139c0576139c0614db5565b016020908101518784019091015160f89190911c91506001600160e01b031980891690821603613a9a5760006139f7602086615ac6565b613a02600986614d8f565b101580613a37575087613a16600986614d8f565b81518110613a2657613a26614db5565b01602001516001600160f81b031916155b613a7057602088613a49600987614d8f565b81518110613a5957613a59614db5565b0160200151613a6b919060f81c615ac6565b613a73565b87515b90506001613a8c89613a86602087615ac6565b846142cb565b965096505050505050613aa7565b5050600501613959565b50505b9250929050565b60006001600160a01b03821661eeee14613b2f576040516370a0823160e01b81523060048201526001600160a01b038316906370a0823190602401602060405180830381865afa158015613b06573d6000803e3d6000fd5b505050506040513d601f19601f82011682018060405250810190613b2a919061516f565b6107c2565b4792915050565b60008381526003602090815260408083206001600160a01b03861680855290835281842054878552600284528285209185529252822054808210613b7f5760009250505061099c565b836000613b8c8484614da2565b90508360005b82811015613d055760008a81526002602090815260408083206001600160a01b038d1684529091528120613bc68389614d8f565b81548110613bd657613bd6614db5565b600091825260208083206040805160608101825260029490940290910180548452600101546001600160a01b03811692840192909252600160a01b90910465ffffffffffff16908201529150859003613c2f5750613d05565b6000613c4082600001516019612174565b90506000818360000151613c549190614da2565b9050808710613c8257988101989586900395613c70848a614d8f565b613c7b906001614d8f565b9450613cfa565b613c8d876019614307565b9150818701600260008f815260200190815260200160002060008e6001600160a01b03166001600160a01b03168152602001908152602001600020858b0181548110613cdb57613cdb614db5565b6000918252602082206002909102018054929092039091559982019996505b505050600101613b92565b50808514613d335760008981526003602090815260408083206001600160a01b038c16845290915290208190555b86886001600160a01b03168a7fedc5125503c021a73fd7d8ed0c2456b296be2c88f39fbed068bd091cef7ca43d8987613d6a612639565b6040805193845260208401929092526001600160a01b03169082015260600160405180910390a450505050509392505050565b6040516351fc173560e01b8152600481018490526001600160a01b038381166024830152604482018390527f000000000000000000000000fe33b439ec53748c87dcedacb83f05add501474416906351fc173590606401600060405180830381600087803b158015613e0e57600080fd5b505af1158015612b0e573d6000803e3d6000fd5b6040516369e11cc560e01b815260048101859052602481018390526001600160a01b0384811660448301526000918291633b9aca009183917f0000000000000000000000007160a322fea44945a6ef9adfd65c322258df3c5e16906369e11cc590606401600060405180830381865afa158015613ea3573d6000803e3d6000fd5b505050506040513d6000823e601f3d908101601f19168201604052613ecb9190810190615add565b905060005b8151811015613fb4576000828281518110613eed57613eed614db5565b602002602001015190506000613f0e88836000015163ffffffff16876135f9565b90506000613f1e838d8d8561432a565b90508015801590613f2f5750818114155b15613f4157613f3e8288614d8f565b96505b8115613f4d5781890398505b825163ffffffff16909503946001600160a01b038b168a8d7f946c70c84d6886ad6041aecbcdd3c9afb80133d1ba92011a9f54dbc173e6d8a7868686613f91612639565b604051613fa19493929190615bee565b60405180910390a4505050600101613ed0565b50849350505094509492505050565b6000604051806101400160405280876001600160a01b031681526020018a8152602001866020015165ffffffffffff1681526020018881526020018881526020018660a001516001600160701b03168152602001848152602001856001600160a01b0316815260200160405180602001604052806000815250815260200183815250905060005b885181101561419257600089828151811061406757614067614db5565b60209081029190910181015160408051608080820183528d516001600160a01b031682528d85015160ff16828601528d83015163ffffffff1682840152938301805160608301529387015281015161010086015280518b5192519193506000926140d092612183565b825160405163099bfcc360e11b81529192506001600160a01b031690631337f986908390614102908890600401615cb2565b6000604051808303818588803b15801561411b57600080fd5b505af115801561412f573d6000803e3d6000fd5b505050505081600001516001600160a01b03167fb1ed2cd5f80d2005b57f16c4c1a1c8ee500b96725924cad83e44f32f05f400c0858460200151614171612639565b60405161418093929190615cc5565b60405180910390a2505060010161404a565b50505050505050505050565b604080516001600160a01b038416602482015260448082018490528251808303909101815260649091019091526020810180516001600160e01b031663095ea7b360e01b1790526141ef848261442e565b611d7e576040516001600160a01b0384811660248301526000604483015261422491869182169063095ea7b390606401613814565b611d7e848261425a565b80511561423e5780518082602001fd5b60405163d6bda27560e01b815260040160405180910390fd5b50565b600080602060008451602086016000885af18061427d576040513d6000823e3d81fd5b50506000513d915081156142955780600114156142a2565b6001600160a01b0384163b155b15611d7e57604051635274afe760e01b81526001600160a01b0385166004820152602401610a1e565b60608282036040519150602081830101604052808252508260208501016020820160005b848110156109985782810151828201526020016142ef565b600082614320816103e861431b8682614da2565b6135f9565b61099c9190614da2565b60003063206d49758686868661433e612639565b6040518663ffffffff1660e01b815260040161435e959493929190615cf8565b6020604051808303816000875af1925050508015614399575060408051601f3d908101601f191682019092526143969181019061516f565b60015b614427573d8080156143c7576040519150601f19603f3d011682016040523d82523d6000602084013e6143cc565b606091505b50847fe1dc2e46221329e3b79397625c100336d78d12de8fbbeefcc76c350ba44a89b38785846143fa612639565b60405161440a9493929190615d37565b60405180910390a261441d858585613d9d565b6000915050611a37565b9050611a37565b6000806000806020600086516020880160008a5af192503d91506000519050828015614473575081156144645780600114614473565b6000866001600160a01b03163b115b9695505050505050565b6040805161012081018252600080825260208201819052918101829052606081018290526080810182905260a0810182905260c0810182905260e0810182905261010081019190915290565b6000602082840312156144db57600080fd5b81356001600160e01b03198116811461099c57600080fd5b6001600160a01b038116811461425757600080fd5b60008060006060848603121561451d57600080fd5b83359250602084013561452f816144f3565b929592945050506040919091013590565b602080825282518282018190526000919060409081850190868401855b8281101561459d57815180518552868101516001600160a01b03168786015285015165ffffffffffff16858501526060909301929085019060010161455d565b5091979650505050505050565b60008083601f8401126145bc57600080fd5b5081356001600160401b038111156145d357600080fd5b602083019150836020828501011115613aa757600080fd5b60008060008060008060008060e0898b03121561460757600080fd5b8835614612816144f3565b975060208901359650604089013595506060890135614630816144f3565b94506080890135935060a0890135614647816144f3565b925060c08901356001600160401b0381111561466257600080fd5b61466e8b828c016145aa565b999c989b5096995094979396929594505050565b600080600080600085870361014081121561469c57600080fd5b60c08112156146aa57600080fd5b5085945060c0860135935060e08601356146c3816144f3565b925061010086013591506101208601356146dc816144f3565b809150509295509295909350565b6000806000604084860312156146ff57600080fd5b8335925060208401356001600160401b038082111561471d57600080fd5b818601915086601f83011261473157600080fd5b81358181111561474057600080fd5b87602060608302850101111561475557600080fd5b6020830194508093505050509250925092565b6000806040838503121561477b57600080fd5b82359150602083013561478d816144f3565b809150509250929050565b80516001600160a01b0316825260208082015160ff169083015260409081015163ffffffff16910152565b606081016107c28284614798565b6000602082840312156147e357600080fd5b5035919050565b60008151808452602080850194506020840160005b8381101561482557614812878351614798565b60609690960195908201906001016147ff565b509495945050505050565b60208152600061099c60208301846147ea565b60006020828403121561485557600080fd5b813561099c816144f3565b600080600080600060a0868803121561487857600080fd5b85359450602086013561488a816144f3565b93506040860135925060608601356148a1816144f3565b915060808601356146dc816144f3565b60008060008060008060008060006101008a8c0312156148d057600080fd5b8935985060208a01356148e2816144f3565b975060408a0135965060608a0135955060808a0135945060a08a0135614907816144f3565b935060c08a0135614917816144f3565b925060e08a01356001600160401b0381111561493257600080fd5b61493e8c828d016145aa565b915080935050809150509295985092959850929598565b801515811461425757600080fd5b60008060008060008060008060c0898b03121561497f57600080fd5b883597506020890135614991816144f3565b96506040890135955060608901356149a881614955565b945060808901356001600160401b03808211156149c457600080fd5b6149d08c838d016145aa565b909650945060a08b01359150808211156149e957600080fd5b5061466e8b828c016145aa565b600080600080600060a08688031215614a0e57600080fd5b853594506020860135614a20816144f3565b94979496505050506040830135926060810135926080909101359150565b600080600060608486031215614a5357600080fd5b833592506020840135614a65816144f3565b91506040840135614a75816144f3565b809150509250925092565b634e487b7160e01b600052604160045260246000fd5b604051606081016001600160401b0381118282101715614ab857614ab8614a80565b60405290565b60405160c081016001600160401b0381118282101715614ab857614ab8614a80565b60405161012081016001600160401b0381118282101715614ab857614ab8614a80565b60405160a081016001600160401b0381118282101715614ab857614ab8614a80565b604051601f8201601f191681016001600160401b0381118282101715614b4d57614b4d614a80565b604052919050565b60006001600160401b03821115614b6e57614b6e614a80565b5060051b60200190565b60ff8116811461425757600080fd5b63ffffffff8116811461425757600080fd5b600060608284031215614bab57600080fd5b614bb3614a96565b90508135614bc0816144f3565b81526020820135614bd081614b78565b60208201526040820135614be381614b87565b604082015292915050565b60008060008060808587031215614c0457600080fd5b843593506020808601356001600160401b03811115614c2257600080fd5b8601601f81018813614c3357600080fd5b8035614c46614c4182614b55565b614b25565b80828252602082019150606060206060850286010193508b841115614c6a57600080fd5b6020850194505b83851015614c9257614c838c86614b99565b83529384019391850191614c71565b50979a97995050505060408601359560600135949350505050565b600080600060608486031215614cc257600080fd5b8335614ccd816144f3565b9250602084013561452f816144f3565b600080600080600080600080600060e08a8c031215614cfb57600080fd5b8935985060208a0135614d0d816144f3565b975060408a0135965060608a0135614d24816144f3565b955060808a0135945060a08a01356001600160401b0380821115614d4757600080fd5b614d538d838e016145aa565b909650945060c08c0135915080821115614d6c57600080fd5b5061493e8c828d016145aa565b634e487b7160e01b600052601160045260246000fd5b808201808211156107c2576107c2614d79565b818103818111156107c2576107c2614d79565b634e487b7160e01b600052603260045260246000fd5b600060208284031215614ddd57600080fd5b815161099c81614955565b6001600160401b038116811461425757600080fd5b65ffffffffffff8116811461425757600080fd5b600060c08284031215614e2357600080fd5b614e2b614abe565b8235614e3681614b87565b81526020830135614e4681614de8565b60208201526040830135614e59816144f3565b60408201526060830135614e6c81614955565b60608201526080830135614e7f81614dfd565b608082015260a0830135614e92816144f3565b60a08201529392505050565b805163ffffffff1682526020808201516001600160401b0316908301526040808201516001600160a01b039081169184019190915260608083015115159084015260808083015165ffffffffffff169084015260a09182015116910152565b81516001600160a01b031681526020808301519082015260408083015190820152606080830151908201526080808301519082015260a082810151610160830191614f4a90840182614e9e565b5092915050565b600060208284031215614f6357600080fd5b813561099c81614de8565b600060208284031215614f8057600080fd5b813561099c81614955565b8051614f9681614dfd565b919050565b8051614f9681614b87565b80516001600160701b0381168114614f9657600080fd5b8051614f96816144f3565b60006101208284031215614fdb57600080fd5b614fe3614ae0565b9050614fee82614f8b565b8152614ffc60208301614f8b565b602082015261500d60408301614f8b565b604082015261501e60608301614f8b565b606082015261502f60808301614f9b565b608082015261504060a08301614fa6565b60a082015261505160c08301614f9b565b60c082015261506260e08301614fbd565b60e082015261010080830151818301525092915050565b6000610120828403121561508c57600080fd5b61099c8383614fc8565b6000606082840312156150a857600080fd5b61099c8383614b99565b6000602082840312156150c457600080fd5b815161099c81614b78565b608081016151038285546001600160a01b038116825260a081901c60ff16602083015260a81c63ffffffff16604090910152565b6001600160a01b039290921660609190910152919050565b60006060828403121561512d57600080fd5b615135614a96565b8251615140816144f3565b8152602083015161515081614b78565b6020820152604083015161516381614b87565b60408201529392505050565b60006020828403121561518157600080fd5b5051919050565b60005b838110156151a357818101518382015260200161518b565b50506000910152565b600081518084526151c4816020860160208601615188565b601f01601f19169290920160200192915050565b85815260018060a01b0385166020820152836040820152821515606082015260c06080820152600060c082015260e060a0820152600061521b60e08301846151ac565b979650505050505050565b60018060a01b038616815284602082015260a06040820152600061524d60a08301866147ea565b606083019490945250608001529392505050565b6001600160a01b03871681526020810186905260408101859052600061010061528d6060840187614798565b8060c084015261529f818401866147ea565b905082810360e0840152612a8b81856151ac565b600082601f8301126152c457600080fd5b81516001600160401b038111156152dd576152dd614a80565b6152f0601f8201601f1916602001614b25565b81815284602083860101111561530557600080fd5b611a37826020830160208701615188565b600080600080610180858703121561532d57600080fd5b6153378686614fc8565b9350610120850151925061014085015191506101608501516001600160401b038082111561536457600080fd5b818701915087601f83011261537857600080fd5b8151615386614c4182614b55565b8082825260208201915060208360051b86010192508a8311156153a857600080fd5b602085015b83811015615432578051858111156153c457600080fd5b86016060818e03601f190112156153da57600080fd5b6153e2614a96565b60208201516153f0816144f3565b81526040820151602082015260608201518781111561540e57600080fd5b61541d8f6020838601016152b3565b604083015250845250602092830192016153ad565b50979a9699509497505050505050565b600060018060a01b03808a168352808916602084015287604084015286606084015285608084015260e060a084015261547e60e08401866151ac565b915080841660c08401525098975050505050505050565b6000602082840312156154a757600080fd5b815161099c816144f3565b868152600060018060a01b03808816602084015286604084015280861660608401525083608083015260e060a0830152600060e08301526101008060c0840152612a8b818401856151ac565b84815260c081016155386020830186546001600160a01b038116825260a081901c60ff16602083015260a81c63ffffffff16604090910152565b608082019390935260a0015292915050565b600080610140838503121561555e57600080fd5b6155688484614fc8565b915061012083015190509250929050565b60006020828403121561558b57600080fd5b81516001600160401b03808211156155a257600080fd5b9083019060a082860312156155b657600080fd5b6155be614b03565b8251815260208301516155d0816144f3565b602082015260408301516155e381614dfd565b604082015260608301516155f681614dfd565b606082015260808301518281111561560d57600080fd5b615619878286016152b3565b60808301525095945050505050565b600061010060018060a01b0380871684528551818151166020860152816020820151166040860152604081015165ffffffffffff80821660608801528060608401511660808801525050508060208701511660a085015250604085015160c08401528060e0840152614473818401856151ac565b85815284602082015260a0604082015260006156bb60a08301866151ac565b82810360608401526156cd81866151ac565b91505060018060a01b03831660808301529695505050505050565b600060018060a01b038089168352808816602084015286604084015285606084015260c0608084015261571e60c08401866151ac565b915080841660a084015250979650505050505050565b83815260606020820152600061574d60608301856151ac565b905060018060a01b0383166040830152949350505050565b80516001600160a01b0316825260208082015160ff169083015260408082015163ffffffff1690830152606090810151910152565b6001600160a01b038681168252600090610100906157bb6020850189615765565b8660a085015280861660c0850152508060e0840152610a27818401856151ac565b600080600061016084860312156157f257600080fd5b6157fc8585614fc8565b925061012084015191506101408401516001600160401b038082111561582157600080fd5b818601915086601f83011261583557600080fd5b81516020615845614c4183614b55565b82815260059290921b8401810191818101908a84111561586457600080fd5b8286015b848110156158ea5780518681111561587f57600080fd5b87016060818e03601f1901121561589557600080fd5b61589d614a96565b858201516158aa816144f3565b81526040820151868201526060820151888111156158c85760008081fd5b6158d68f88838601016152b3565b604083015250845250918301918301615868565b508096505050505050509250925092565b600060018060a01b03808a168352808916602084015287604084015286606084015260e0608084015261593160e08401876151ac565b83810360a085015261594381876151ac565b92505080841660c08401525098975050505050505050565b80516001600160a01b031682526000610200602083015160208501526040830151604085015260608301516060850152608083015161599d6080860182615765565b5060a08301516101006159b281870183615765565b60c085015161018087015260e08501516001600160a01b03166101a08701528401516101c0860183905290506159ea828601826151ac565b9150506101208301518482036101e0860152610e5882826151ac565b60208152600061099c602083018461595b565b608081526000615a2c608083018761595b565b60208301959095525060408101929092526001600160a01b0316606090910152919050565b634e487b7160e01b600052601260045260246000fd5b60008085851115615a7757600080fd5b83861115615a8457600080fd5b5050820193919092039150565b6bffffffffffffffffffffffff198135818116916014851015615abe5780818660140360031b1b83161692505b505092915050565b80820281158282048414176107c2576107c2614d79565b60006020808385031215615af057600080fd5b82516001600160401b03811115615b0657600080fd5b8301601f81018513615b1757600080fd5b8051615b25614c4182614b55565b81815260c09182028301840191848201919088841115615b4457600080fd5b938501935b83851015615be25780858a031215615b615760008081fd5b615b69614abe565b8551615b7481614b87565b815285870151615b8381614de8565b81880152604086810151615b96816144f3565b90820152606086810151615ba981614955565b90820152608086810151615bbc81614dfd565b9082015260a086810151615bcf816144f3565b9082015283529384019391850191615b49565b50979650505050505050565b6101208101615bfd8287614e9e565b60c082019490945260e08101929092526001600160a01b031661010090910152919050565b80516001600160a01b03168252600061020060208301516020850152604083015160408501526060830151615c5a6060860182615765565b506080830151615c6d60e0860182615765565b5060a083015161016085015260c083015161018085015260e08301516001600160a01b03166101a08501526101008301516101c085018290526159ea828601826151ac565b60208152600061099c6020830184615c22565b606081526000615cd86060830186615c22565b6020830194909452506001600160a01b0391909116604090910152919050565b6101408101615d078288614e9e565b60c08201959095526001600160a01b0393841660e082015261010081019290925290911661012090910152919050565b6000610120615d468388614e9e565b8560c08401528060e0840152615d5e818401866151ac565b91505060018060a01b0383166101008301529594505050505056fea26469706673582212206944f27e6f5b326b123ea2f778c6f42e1939c8cb826bb0df93db7fca2cf9bedb64736f6c63430008170033",
	"gitCommit": "2c257a6d7529e08bc4aac39de4cacacc08d4628e",
	"history": []
}