{
	"format": "sphinx-sol-ct-artifact-1",
	"merkleRoot": "0x60b901bea417fa02d2dfb5b74a6bc7a533df6b0b3a8a469dfbdff63383aebf54",
	"address": "0x4d0edd347fb1fa21589c1e109b3474924be87636",
	"sourceName": "src/JBTokens.sol",
	"contractName": "JBTokens",
	"chainId": "0xa4b1",
	"abi": [
		{
			"inputs": [
				{
					"internalType": "contract IJBDirectory",
					"name": "directory",
					"type": "address"
				},
				{
					"internalType": "contract IJBToken",
					"name": "token",
					"type": "address"
				}
			],
			"stateMutability": "nonpayable",
			"type": "constructor"
		},
		{
			"inputs": [],
			"name": "DIRECTORY",
			"outputs": [
				{
					"internalType": "contract IJBDirectory",
					"name": "",
					"type": "address"
				}
			],
			"stateMutability": "view",
			"type": "function"
		},
		{
			"inputs": [],
			"name": "TOKEN",
			"outputs": [
				{
					"internalType": "contract IJBToken",
					"name": "",
					"type": "address"
				}
			],
			"stateMutability": "view",
			"type": "function"
		},
		{
			"inputs": [
				{
					"internalType": "address",
					"name": "holder",
					"type": "address"
				},
				{
					"internalType": "uint256",
					"name": "projectId",
					"type": "uint256"
				},
				{
					"internalType": "uint256",
					"name": "count",
					"type": "uint256"
				}
			],
			"name": "burnFrom",
			"outputs": [],
			"stateMutability": "nonpayable",
			"type": "function"
		},
		{
			"inputs": [
				{
					"internalType": "address",
					"name": "holder",
					"type": "address"
				},
				{
					"internalType": "uint256",
					"name": "projectId",
					"type": "uint256"
				},
				{
					"internalType": "uint256",
					"name": "count",
					"type": "uint256"
				},
				{
					"internalType": "address",
					"name": "beneficiary",
					"type": "address"
				}
			],
			"name": "claimTokensFor",
			"outputs": [],
			"stateMutability": "nonpayable",
			"type": "function"
		},
		{
			"inputs": [
				{
					"internalType": "address",
					"name": "holder",
					"type": "address"
				},
				{
					"internalType": "uint256",
					"name": "projectId",
					"type": "uint256"
				}
			],
			"name": "creditBalanceOf",
			"outputs": [
				{
					"internalType": "uint256",
					"name": "",
					"type": "uint256"
				}
			],
			"stateMutability": "view",
			"type": "function"
		},
		{
			"inputs": [
				{
					"internalType": "uint256",
					"name": "projectId",
					"type": "uint256"
				},
				{
					"internalType": "string",
					"name": "name",
					"type": "string"
				},
				{
					"internalType": "string",
					"name": "symbol",
					"type": "string"
				},
				{
					"internalType": "bytes32",
					"name": "salt",
					"type": "bytes32"
				}
			],
			"name": "deployERC20For",
			"outputs": [
				{
					"internalType": "contract IJBToken",
					"name": "token",
					"type": "address"
				}
			],
			"stateMutability": "nonpayable",
			"type": "function"
		},
		{
			"inputs": [
				{
					"internalType": "address",
					"name": "holder",
					"type": "address"
				},
				{
					"internalType": "uint256",
					"name": "projectId",
					"type": "uint256"
				},
				{
					"internalType": "uint256",
					"name": "count",
					"type": "uint256"
				}
			],
			"name": "mintFor",
			"outputs": [
				{
					"internalType": "contract IJBToken",
					"name": "token",
					"type": "address"
				}
			],
			"stateMutability": "nonpayable",
			"type": "function"
		},
		{
			"inputs": [
				{
					"internalType": "contract IJBToken",
					"name": "token",
					"type": "address"
				}
			],
			"name": "projectIdOf",
			"outputs": [
				{
					"internalType": "uint256",
					"name": "",
					"type": "uint256"
				}
			],
			"stateMutability": "view",
			"type": "function"
		},
		{
			"inputs": [
				{
					"internalType": "uint256",
					"name": "projectId",
					"type": "uint256"
				},
				{
					"internalType": "contract IJBToken",
					"name": "token",
					"type": "address"
				}
			],
			"name": "setTokenFor",
			"outputs": [],
			"stateMutability": "nonpayable",
			"type": "function"
		},
		{
			"inputs": [
				{
					"internalType": "uint256",
					"name": "projectId",
					"type": "uint256"
				}
			],
			"name": "tokenOf",
			"outputs": [
				{
					"internalType": "contract IJBToken",
					"name": "",
					"type": "address"
				}
			],
			"stateMutability": "view",
			"type": "function"
		},
		{
			"inputs": [
				{
					"internalType": "address",
					"name": "holder",
					"type": "address"
				},
				{
					"internalType": "uint256",
					"name": "projectId",
					"type": "uint256"
				}
			],
			"name": "totalBalanceOf",
			"outputs": [
				{
					"internalType": "uint256",
					"name": "balance",
					"type": "uint256"
				}
			],
			"stateMutability": "view",
			"type": "function"
		},
		{
			"inputs": [
				{
					"internalType": "uint256",
					"name": "projectId",
					"type": "uint256"
				}
			],
			"name": "totalCreditSupplyOf",
			"outputs": [
				{
					"internalType": "uint256",
					"name": "",
					"type": "uint256"
				}
			],
			"stateMutability": "view",
			"type": "function"
		},
		{
			"inputs": [
				{
					"internalType": "uint256",
					"name": "projectId",
					"type": "uint256"
				}
			],
			"name": "totalSupplyOf",
			"outputs": [
				{
					"internalType": "uint256",
					"name": "totalSupply",
					"type": "uint256"
				}
			],
			"stateMutability": "view",
			"type": "function"
		},
		{
			"inputs": [
				{
					"internalType": "address",
					"name": "holder",
					"type": "address"
				},
				{
					"internalType": "uint256",
					"name": "projectId",
					"type": "uint256"
				},
				{
					"internalType": "address",
					"name": "recipient",
					"type": "address"
				},
				{
					"internalType": "uint256",
					"name": "count",
					"type": "uint256"
				}
			],
			"name": "transferCreditsFrom",
			"outputs": [],
			"stateMutability": "nonpayable",
			"type": "function"
		},
		{
			"anonymous": false,
			"inputs": [
				{
					"indexed": true,
					"internalType": "address",
					"name": "holder",
					"type": "address"
				},
				{
					"indexed": true,
					"internalType": "uint256",
					"name": "projectId",
					"type": "uint256"
				},
				{
					"indexed": false,
					"internalType": "uint256",
					"name": "count",
					"type": "uint256"
				},
				{
					"indexed": false,
					"internalType": "uint256",
					"name": "creditBalance",
					"type": "uint256"
				},
				{
					"indexed": false,
					"internalType": "uint256",
					"name": "tokenBalance",
					"type": "uint256"
				},
				{
					"indexed": false,
					"internalType": "address",
					"name": "caller",
					"type": "address"
				}
			],
			"name": "Burn",
			"type": "event"
		},
		{
			"anonymous": false,
			"inputs": [
				{
					"indexed": true,
					"internalType": "address",
					"name": "holder",
					"type": "address"
				},
				{
					"indexed": true,
					"internalType": "uint256",
					"name": "projectId",
					"type": "uint256"
				},
				{
					"indexed": false,
					"internalType": "uint256",
					"name": "creditBalance",
					"type": "uint256"
				},
				{
					"indexed": false,
					"internalType": "uint256",
					"name": "count",
					"type": "uint256"
				},
				{
					"indexed": false,
					"internalType": "address",
					"name": "beneficiary",
					"type": "address"
				},
				{
					"indexed": false,
					"internalType": "address",
					"name": "caller",
					"type": "address"
				}
			],
			"name": "ClaimTokens",
			"type": "event"
		},
		{
			"anonymous": false,
			"inputs": [
				{
					"indexed": true,
					"internalType": "uint256",
					"name": "projectId",
					"type": "uint256"
				},
				{
					"indexed": true,
					"internalType": "contract IJBToken",
					"name": "token",
					"type": "address"
				},
				{
					"indexed": false,
					"internalType": "string",
					"name": "name",
					"type": "string"
				},
				{
					"indexed": false,
					"internalType": "string",
					"name": "symbol",
					"type": "string"
				},
				{
					"indexed": false,
					"internalType": "bytes32",
					"name": "salt",
					"type": "bytes32"
				},
				{
					"indexed": false,
					"internalType": "address",
					"name": "caller",
					"type": "address"
				}
			],
			"name": "DeployERC20",
			"type": "event"
		},
		{
			"anonymous": false,
			"inputs": [
				{
					"indexed": true,
					"internalType": "address",
					"name": "holder",
					"type": "address"
				},
				{
					"indexed": true,
					"internalType": "uint256",
					"name": "projectId",
					"type": "uint256"
				},
				{
					"indexed": false,
					"internalType": "uint256",
					"name": "count",
					"type": "uint256"
				},
				{
					"indexed": false,
					"internalType": "bool",
					"name": "tokensWereClaimed",
					"type": "bool"
				},
				{
					"indexed": false,
					"internalType": "address",
					"name": "caller",
					"type": "address"
				}
			],
			"name": "Mint",
			"type": "event"
		},
		{
			"anonymous": false,
			"inputs": [
				{
					"indexed": true,
					"internalType": "uint256",
					"name": "projectId",
					"type": "uint256"
				},
				{
					"indexed": true,
					"internalType": "contract IJBToken",
					"name": "token",
					"type": "address"
				},
				{
					"indexed": false,
					"internalType": "address",
					"name": "caller",
					"type": "address"
				}
			],
			"name": "SetToken",
			"type": "event"
		},
		{
			"anonymous": false,
			"inputs": [
				{
					"indexed": true,
					"internalType": "address",
					"name": "holder",
					"type": "address"
				},
				{
					"indexed": true,
					"internalType": "uint256",
					"name": "projectId",
					"type": "uint256"
				},
				{
					"indexed": true,
					"internalType": "address",
					"name": "recipient",
					"type": "address"
				},
				{
					"indexed": false,
					"internalType": "uint256",
					"name": "count",
					"type": "uint256"
				},
				{
					"indexed": false,
					"internalType": "address",
					"name": "caller",
					"type": "address"
				}
			],
			"name": "TransferCredits",
			"type": "event"
		},
		{
			"inputs": [],
			"name": "FailedDeployment",
			"type": "error"
		},
		{
			"inputs": [
				{
					"internalType": "uint256",
					"name": "balance",
					"type": "uint256"
				},
				{
					"internalType": "uint256",
					"name": "needed",
					"type": "uint256"
				}
			],
			"name": "InsufficientBalance",
			"type": "error"
		},
		{
			"inputs": [
				{
					"internalType": "address",
					"name": "controller",
					"type": "address"
				}
			],
			"name": "JBControlled_ControllerUnauthorized",
			"type": "error"
		},
		{
			"inputs": [],
			"name": "JBTokens_EmptyName",
			"type": "error"
		},
		{
			"inputs": [],
			"name": "JBTokens_EmptySymbol",
			"type": "error"
		},
		{
			"inputs": [],
			"name": "JBTokens_EmptyToken",
			"type": "error"
		},
		{
			"inputs": [
				{
					"internalType": "uint256",
					"name": "count",
					"type": "uint256"
				},
				{
					"internalType": "uint256",
					"name": "creditBalance",
					"type": "uint256"
				}
			],
			"name": "JBTokens_InsufficientCredits",
			"type": "error"
		},
		{
			"inputs": [
				{
					"internalType": "uint256",
					"name": "count",
					"type": "uint256"
				},
				{
					"internalType": "uint256",
					"name": "tokenBalance",
					"type": "uint256"
				}
			],
			"name": "JBTokens_InsufficientTokensToBurn",
			"type": "error"
		},
		{
			"inputs": [
				{
					"internalType": "uint256",
					"name": "value",
					"type": "uint256"
				},
				{
					"internalType": "uint256",
					"name": "limit",
					"type": "uint256"
				}
			],
			"name": "JBTokens_OverflowAlert",
			"type": "error"
		},
		{
			"inputs": [
				{
					"internalType": "contract IJBToken",
					"name": "token",
					"type": "address"
				}
			],
			"name": "JBTokens_ProjectAlreadyHasToken",
			"type": "error"
		},
		{
			"inputs": [
				{
					"internalType": "uint256",
					"name": "projectId",
					"type": "uint256"
				}
			],
			"name": "JBTokens_TokenAlreadyBeingUsed",
			"type": "error"
		},
		{
			"inputs": [
				{
					"internalType": "uint256",
					"name": "projectId",
					"type": "uint256"
				}
			],
			"name": "JBTokens_TokenCantBeAdded",
			"type": "error"
		},
		{
			"inputs": [],
			"name": "JBTokens_TokenNotFound",
			"type": "error"
		},
		{
			"inputs": [
				{
					"internalType": "uint256",
					"name": "decimals",
					"type": "uint256"
				}
			],
			"name": "JBTokens_TokensMustHave18Decimals",
			"type": "error"
		}
	],
	"args": [],
	"solcInputHash": "51e2de1557bafeed0f574c9089293121",
	"bytecode": "0x60c060405234801561001057600080fd5b50604051620016743803806200167483398101604081905261003191610060565b6001600160a01b039182166080521660a05261009a565b6001600160a01b038116811461005d57600080fd5b50565b6000806040838503121561007357600080fd5b825161007e81610048565b602084015190925061008f81610048565b809150509250929050565b60805160a051611598620000dc600039600081816101ad0152818161072101526107690152600081816101e701528181610f3a0152610fc901526115986000f3fe608060405234801561001057600080fd5b50600436106100ea5760003560e01c8063878003b81161008c578063b1e6d2a111610066578063b1e6d2a11461021c578063c6c116bd1461022f578063ea78803f14610257578063f12b64a51461028057600080fd5b8063878003b8146101cf57806388bc2ef3146101e2578063aab68bdb1461020957600080fd5b806358178191116100c8578063581781911461014a57806366d542161461017557806375b0d9cd1461019557806382bfefc8146101a857600080fd5b80630f85421b146100ef578063124d91e514610122578063303f5dfa14610137575b600080fd5b61010f6100fd3660046111d1565b60016020526000908152604090205481565b6040519081526020015b60405180910390f35b6101356101303660046111ee565b610293565b005b610135610145366004611223565b6104ee565b61015d6101583660046112b6565b610663565b6040516001600160a01b039091168152602001610119565b61010f610183366004611338565b60036020526000908152604090205481565b61010f6101a3366004611338565b610881565b61015d7f000000000000000000000000000000000000000000000000000000000000000081565b61010f6101dd366004611351565b610920565b61015d7f000000000000000000000000000000000000000000000000000000000000000081565b61015d6102173660046111ee565b6109d3565b61013561022a36600461137d565b610b63565b61010f61023d366004611351565b600060208181529281526040808220909352908152205481565b61015d610265366004611338565b6002602052600090815260409020546001600160a01b031681565b61013561028e3660046113c5565b610c5b565b8161029d81610f1a565b6000838152600260209081526040808320546001600160a01b038881168552848452828520888652909352908320549116918215610344576040516370a0823160e01b81526001600160a01b0388811660048301528416906370a0823190602401602060405180830381865afa15801561031b573d6000803e3d6000fd5b505050506040513d601f19601f8201168201806040525081019061033f91906113f5565b610347565b60005b90506103538282611424565b85111561038c57846103658383611424565b6040516305dc356160e51b8152600481019290925260248201526044015b60405180910390fd5b600081156103a9578583106103a25760006103a6565b8286035b90505b808603868214610426576001600160a01b0389166000908152602081815260408083208b84529091529020546103e0908290611437565b6001600160a01b038a166000908152602081815260408083208c8452825280832093909355600390522054610416908290611437565b6000898152600360205260409020555b604080518881526020810186905290810184905233606082015288906001600160a01b038b16907fa6a919b3314fbbdb84c4a64d62f381f104d0c1747b789163262d2fcfeec292689060800160405180910390a381156104e357604051632770a7eb60e21b81526001600160a01b038a8116600483015260248201849052861690639dc29fac90604401600060405180830381600087803b1580156104ca57600080fd5b505af11580156104de573d6000803e3d6000fd5b505050505b505050505050505050565b826104f881610f1a565b6000848152600260205260409020546001600160a01b03168061052e576040516335fb0a2760e11b815260040160405180910390fd5b6001600160a01b0386166000908152602081815260408083208884529091529020548085111561057b5760405163914993a160e01b81526004810186905260248101829052604401610383565b6001600160a01b038781166000818152602081815260408083208b845282528083208a87039055600382529182902080548a9003905581518581529081018990529287169083015233606083015287917fde5600808a2321d39207ba773327f7a932a4b0b019107fb5a95618006cd0ff009060800160405180910390a36040516340c10f1960e01b81526001600160a01b038581166004830152602482018790528316906340c10f1990604401600060405180830381600087803b15801561064257600080fd5b505af1158015610656573d6000803e3d6000fd5b5050505050505050505050565b60008661066f81610f1a565b60008690036106915760405163109f035760e21b815260040160405180910390fd5b60008490036106b357604051630d1a676960e31b815260040160405180910390fd5b6000888152600260205260409020546001600160a01b03161561070557600088815260026020526040908190205490516378ed73ed60e11b81526001600160a01b039091166004820152602401610383565b8215610764576040805133602082015290810184905261075f907f00000000000000000000000000000000000000000000000000000000000000009060600160405160208183030381529060405280519060200120611064565b61078d565b61078d7f000000000000000000000000000000000000000000000000000000000000000061107b565b600089815260026020908152604080832080546001600160a01b0319166001600160a01b0386169081179091558084526001909252918290208b905590519193509089907fb4510654a5884cae50948507300dc482833ed1446cef375e064bef00b6b4ba4e90610808908b908b908b908b908b903390611473565b60405180910390a36040516303bf912560e11b81526001600160a01b0383169063077f224a90610844908a908a908a908a9030906004016114be565b600060405180830381600087803b15801561085e57600080fd5b505af1158015610872573d6000803e3d6000fd5b50505050509695505050505050565b6000818152600360209081526040808320546002909252909120546001600160a01b0316801561091a57806001600160a01b03166318160ddd6040518163ffffffff1660e01b8152600401602060405180830381865afa1580156108e9573d6000803e3d6000fd5b505050506040513d601f19601f8201168201806040525081019061090d91906113f5565b6109179083611424565b91505b50919050565b6001600160a01b0380831660009081526020818152604080832085845282528083205460029092529091205490911680156109cc576040516370a0823160e01b81526001600160a01b0385811660048301528216906370a0823190602401602060405180830381865afa15801561099b573d6000803e3d6000fd5b505050506040513d601f19601f820116820180604052508101906109bf91906113f5565b6109c99083611424565b91505b5092915050565b6000826109df81610f1a565b6000848152600260205260409020546001600160a01b031691508115801590610a69576040516340c10f1960e01b81526001600160a01b038781166004830152602482018690528416906340c10f1990604401600060405180830381600087803b158015610a4c57600080fd5b505af1158015610a60573d6000803e3d6000fd5b50505050610ac3565b6001600160a01b03861660009081526020818152604080832088845290915281208054869290610a9a908490611424565b909155505060008581526003602052604081208054869290610abd908490611424565b90915550505b6001600160d01b03610ad486610881565b1115610b0d57610ae385610881565b60405163a2f5932960e01b815260048101919091526001600160d01b036024820152604401610383565b6040805185815282151560208201523381830152905186916001600160a01b038916917f0153be209252ccc3b70df14d55d2cc93fa5a74e263b163d9a1caf45152fd0e869181900360600190a350509392505050565b82610b6d81610f1a565b6001600160a01b03851660009081526020818152604080832087845290915290205480831115610bba5760405163914993a160e01b81526004810184905260248101829052604401610383565b6001600160a01b0380871660009081526020818152604080832089845282528083208786039055928716825281815282822088835290529081208054859290610c04908490611424565b9091555050604080518481523360208201526001600160a01b03808716928892918a16917f6d86dde1e9f07a2ad1e0f3e611b7bb8343d629126c5ca73f1a5951177d87143f910160405180910390a4505050505050565b81610c6581610f1a565b6001600160a01b038216610c8c57604051637661e72d60e01b815260040160405180910390fd5b6000838152600260205260409020546001600160a01b031615610cde57600083815260026020526040908190205490516378ed73ed60e11b81526001600160a01b039091166004820152602401610383565b6001600160a01b03821660009081526001602052604090205415610d33576001600160a01b0382166000908152600160205260409081902054905163487d5b8b60e11b81526004810191909152602401610383565b816001600160a01b031663313ce5676040518163ffffffff1660e01b8152600401602060405180830381865afa158015610d71573d6000803e3d6000fd5b505050506040513d601f19601f82011682018060405250810190610d959190611500565b60ff16601214610e2057816001600160a01b031663313ce5676040518163ffffffff1660e01b8152600401602060405180830381865afa158015610ddd573d6000803e3d6000fd5b505050506040513d601f19601f82011682018060405250810190610e019190611500565b604051630a51f6ff60e41b815260ff9091166004820152602401610383565b60405163372ff0f960e11b8152600481018490526001600160a01b03831690636e5fe1f290602401602060405180830381865afa158015610e65573d6000803e3d6000fd5b505050506040513d601f19601f82011682018060405250810190610e899190611523565b610ea9576040516305b5c3d160e31b815260048101849052602401610383565b600083815260026020908152604080832080546001600160a01b0319166001600160a01b03871690811790915580845260018352928190208690555133815285917f768e177d7f9dac714049e6d43d9ac533cf0c6cc23cddcfe642bfd7a18bee3772910160405180910390a3505050565b604051632eec7b5560e11b81526004810182905233906001600160a01b037f00000000000000000000000000000000000000000000000000000000000000001690635dd8f6aa90602401602060405180830381865afa158015610f81573d6000803e3d6000fd5b505050506040513d601f19601f82011682018060405250810190610fa59190611545565b6001600160a01b03161461106157604051632eec7b5560e11b8152600481018290527f00000000000000000000000000000000000000000000000000000000000000006001600160a01b031690635dd8f6aa90602401602060405180830381865afa158015611018573d6000803e3d6000fd5b505050506040513d601f19601f8201168201806040525081019061103c9190611545565b604051639a007b3960e01b81526001600160a01b039091166004820152602401610383565b50565b600061107283836000611088565b90505b92915050565b6000611075826000611126565b6000814710156110b45760405163cf47918160e01b815247600482015260248101839052604401610383565b763d602d80600a3d3981f3363d3d373d3d3d363d730000008460601b60e81c176000526e5af43d82803e903d91602b57fd5bf38460781b17602052826037600984f590506001600160a01b03811661111f5760405163b06ebf3d60e01b815260040160405180910390fd5b9392505050565b6000814710156111525760405163cf47918160e01b815247600482015260248101839052604401610383565b763d602d80600a3d3981f3363d3d373d3d3d363d730000008360601b60e81c176000526e5af43d82803e903d91602b57fd5bf38360781b176020526037600983f090506001600160a01b0381166110755760405163b06ebf3d60e01b815260040160405180910390fd5b6001600160a01b038116811461106157600080fd5b6000602082840312156111e357600080fd5b813561111f816111bc565b60008060006060848603121561120357600080fd5b833561120e816111bc565b95602085013595506040909401359392505050565b6000806000806080858703121561123957600080fd5b8435611244816111bc565b935060208501359250604085013591506060850135611262816111bc565b939692955090935050565b60008083601f84011261127f57600080fd5b50813567ffffffffffffffff81111561129757600080fd5b6020830191508360208285010111156112af57600080fd5b9250929050565b600080600080600080608087890312156112cf57600080fd5b86359550602087013567ffffffffffffffff808211156112ee57600080fd5b6112fa8a838b0161126d565b9097509550604089013591508082111561131357600080fd5b5061132089828a0161126d565b979a9699509497949695606090950135949350505050565b60006020828403121561134a57600080fd5b5035919050565b6000806040838503121561136457600080fd5b823561136f816111bc565b946020939093013593505050565b6000806000806080858703121561139357600080fd5b843561139e816111bc565b93506020850135925060408501356113b5816111bc565b9396929550929360600135925050565b600080604083850312156113d857600080fd5b8235915060208301356113ea816111bc565b809150509250929050565b60006020828403121561140757600080fd5b5051919050565b634e487b7160e01b600052601160045260246000fd5b808201808211156110755761107561140e565b818103818111156110755761107561140e565b81835281816020850137506000828201602090810191909152601f909101601f19169091010190565b60808152600061148760808301888a61144a565b828103602084015261149a81878961144a565b604084019590955250506001600160a01b0391909116606090910152949350505050565b6060815260006114d260608301878961144a565b82810360208401526114e581868861144a565b91505060018060a01b03831660408301529695505050505050565b60006020828403121561151257600080fd5b815160ff8116811461111f57600080fd5b60006020828403121561153557600080fd5b8151801515811461111f57600080fd5b60006020828403121561155757600080fd5b815161111f816111bc56fea264697066735822122001415d5db3fa9267b87dea861cc12472dede670669851ceefaee50745d6def8d64736f6c63430008170033",
	"deployedBytecode": "0x608060405234801561001057600080fd5b50600436106100ea5760003560e01c8063878003b81161008c578063b1e6d2a111610066578063b1e6d2a11461021c578063c6c116bd1461022f578063ea78803f14610257578063f12b64a51461028057600080fd5b8063878003b8146101cf57806388bc2ef3146101e2578063aab68bdb1461020957600080fd5b806358178191116100c8578063581781911461014a57806366d542161461017557806375b0d9cd1461019557806382bfefc8146101a857600080fd5b80630f85421b146100ef578063124d91e514610122578063303f5dfa14610137575b600080fd5b61010f6100fd3660046111d1565b60016020526000908152604090205481565b6040519081526020015b60405180910390f35b6101356101303660046111ee565b610293565b005b610135610145366004611223565b6104ee565b61015d6101583660046112b6565b610663565b6040516001600160a01b039091168152602001610119565b61010f610183366004611338565b60036020526000908152604090205481565b61010f6101a3366004611338565b610881565b61015d7f000000000000000000000000aeac450c8522e40244bdfb8120ee398207be5d3181565b61010f6101dd366004611351565b610920565b61015d7f0000000000000000000000000061e516886a0540f63157f112c0588ee0651dcf81565b61015d6102173660046111ee565b6109d3565b61013561022a36600461137d565b610b63565b61010f61023d366004611351565b600060208181529281526040808220909352908152205481565b61015d610265366004611338565b6002602052600090815260409020546001600160a01b031681565b61013561028e3660046113c5565b610c5b565b8161029d81610f1a565b6000838152600260209081526040808320546001600160a01b038881168552848452828520888652909352908320549116918215610344576040516370a0823160e01b81526001600160a01b0388811660048301528416906370a0823190602401602060405180830381865afa15801561031b573d6000803e3d6000fd5b505050506040513d601f19601f8201168201806040525081019061033f91906113f5565b610347565b60005b90506103538282611424565b85111561038c57846103658383611424565b6040516305dc356160e51b8152600481019290925260248201526044015b60405180910390fd5b600081156103a9578583106103a25760006103a6565b8286035b90505b808603868214610426576001600160a01b0389166000908152602081815260408083208b84529091529020546103e0908290611437565b6001600160a01b038a166000908152602081815260408083208c8452825280832093909355600390522054610416908290611437565b6000898152600360205260409020555b604080518881526020810186905290810184905233606082015288906001600160a01b038b16907fa6a919b3314fbbdb84c4a64d62f381f104d0c1747b789163262d2fcfeec292689060800160405180910390a381156104e357604051632770a7eb60e21b81526001600160a01b038a8116600483015260248201849052861690639dc29fac90604401600060405180830381600087803b1580156104ca57600080fd5b505af11580156104de573d6000803e3d6000fd5b505050505b505050505050505050565b826104f881610f1a565b6000848152600260205260409020546001600160a01b03168061052e576040516335fb0a2760e11b815260040160405180910390fd5b6001600160a01b0386166000908152602081815260408083208884529091529020548085111561057b5760405163914993a160e01b81526004810186905260248101829052604401610383565b6001600160a01b038781166000818152602081815260408083208b845282528083208a87039055600382529182902080548a9003905581518581529081018990529287169083015233606083015287917fde5600808a2321d39207ba773327f7a932a4b0b019107fb5a95618006cd0ff009060800160405180910390a36040516340c10f1960e01b81526001600160a01b038581166004830152602482018790528316906340c10f1990604401600060405180830381600087803b15801561064257600080fd5b505af1158015610656573d6000803e3d6000fd5b5050505050505050505050565b60008661066f81610f1a565b60008690036106915760405163109f035760e21b815260040160405180910390fd5b60008490036106b357604051630d1a676960e31b815260040160405180910390fd5b6000888152600260205260409020546001600160a01b03161561070557600088815260026020526040908190205490516378ed73ed60e11b81526001600160a01b039091166004820152602401610383565b8215610764576040805133602082015290810184905261075f907f000000000000000000000000aeac450c8522e40244bdfb8120ee398207be5d319060600160405160208183030381529060405280519060200120611064565b61078d565b61078d7f000000000000000000000000aeac450c8522e40244bdfb8120ee398207be5d3161107b565b600089815260026020908152604080832080546001600160a01b0319166001600160a01b0386169081179091558084526001909252918290208b905590519193509089907fb4510654a5884cae50948507300dc482833ed1446cef375e064bef00b6b4ba4e90610808908b908b908b908b908b903390611473565b60405180910390a36040516303bf912560e11b81526001600160a01b0383169063077f224a90610844908a908a908a908a9030906004016114be565b600060405180830381600087803b15801561085e57600080fd5b505af1158015610872573d6000803e3d6000fd5b50505050509695505050505050565b6000818152600360209081526040808320546002909252909120546001600160a01b0316801561091a57806001600160a01b03166318160ddd6040518163ffffffff1660e01b8152600401602060405180830381865afa1580156108e9573d6000803e3d6000fd5b505050506040513d601f19601f8201168201806040525081019061090d91906113f5565b6109179083611424565b91505b50919050565b6001600160a01b0380831660009081526020818152604080832085845282528083205460029092529091205490911680156109cc576040516370a0823160e01b81526001600160a01b0385811660048301528216906370a0823190602401602060405180830381865afa15801561099b573d6000803e3d6000fd5b505050506040513d601f19601f820116820180604052508101906109bf91906113f5565b6109c99083611424565b91505b5092915050565b6000826109df81610f1a565b6000848152600260205260409020546001600160a01b031691508115801590610a69576040516340c10f1960e01b81526001600160a01b038781166004830152602482018690528416906340c10f1990604401600060405180830381600087803b158015610a4c57600080fd5b505af1158015610a60573d6000803e3d6000fd5b50505050610ac3565b6001600160a01b03861660009081526020818152604080832088845290915281208054869290610a9a908490611424565b909155505060008581526003602052604081208054869290610abd908490611424565b90915550505b6001600160d01b03610ad486610881565b1115610b0d57610ae385610881565b60405163a2f5932960e01b815260048101919091526001600160d01b036024820152604401610383565b6040805185815282151560208201523381830152905186916001600160a01b038916917f0153be209252ccc3b70df14d55d2cc93fa5a74e263b163d9a1caf45152fd0e869181900360600190a350509392505050565b82610b6d81610f1a565b6001600160a01b03851660009081526020818152604080832087845290915290205480831115610bba5760405163914993a160e01b81526004810184905260248101829052604401610383565b6001600160a01b0380871660009081526020818152604080832089845282528083208786039055928716825281815282822088835290529081208054859290610c04908490611424565b9091555050604080518481523360208201526001600160a01b03808716928892918a16917f6d86dde1e9f07a2ad1e0f3e611b7bb8343d629126c5ca73f1a5951177d87143f910160405180910390a4505050505050565b81610c6581610f1a565b6001600160a01b038216610c8c57604051637661e72d60e01b815260040160405180910390fd5b6000838152600260205260409020546001600160a01b031615610cde57600083815260026020526040908190205490516378ed73ed60e11b81526001600160a01b039091166004820152602401610383565b6001600160a01b03821660009081526001602052604090205415610d33576001600160a01b0382166000908152600160205260409081902054905163487d5b8b60e11b81526004810191909152602401610383565b816001600160a01b031663313ce5676040518163ffffffff1660e01b8152600401602060405180830381865afa158015610d71573d6000803e3d6000fd5b505050506040513d601f19601f82011682018060405250810190610d959190611500565b60ff16601214610e2057816001600160a01b031663313ce5676040518163ffffffff1660e01b8152600401602060405180830381865afa158015610ddd573d6000803e3d6000fd5b505050506040513d601f19601f82011682018060405250810190610e019190611500565b604051630a51f6ff60e41b815260ff9091166004820152602401610383565b60405163372ff0f960e11b8152600481018490526001600160a01b03831690636e5fe1f290602401602060405180830381865afa158015610e65573d6000803e3d6000fd5b505050506040513d601f19601f82011682018060405250810190610e899190611523565b610ea9576040516305b5c3d160e31b815260048101849052602401610383565b600083815260026020908152604080832080546001600160a01b0319166001600160a01b03871690811790915580845260018352928190208690555133815285917f768e177d7f9dac714049e6d43d9ac533cf0c6cc23cddcfe642bfd7a18bee3772910160405180910390a3505050565b604051632eec7b5560e11b81526004810182905233906001600160a01b037f0000000000000000000000000061e516886a0540f63157f112c0588ee0651dcf1690635dd8f6aa90602401602060405180830381865afa158015610f81573d6000803e3d6000fd5b505050506040513d601f19601f82011682018060405250810190610fa59190611545565b6001600160a01b03161461106157604051632eec7b5560e11b8152600481018290527f0000000000000000000000000061e516886a0540f63157f112c0588ee0651dcf6001600160a01b031690635dd8f6aa90602401602060405180830381865afa158015611018573d6000803e3d6000fd5b505050506040513d601f19601f8201168201806040525081019061103c9190611545565b604051639a007b3960e01b81526001600160a01b039091166004820152602401610383565b50565b600061107283836000611088565b90505b92915050565b6000611075826000611126565b6000814710156110b45760405163cf47918160e01b815247600482015260248101839052604401610383565b763d602d80600a3d3981f3363d3d373d3d3d363d730000008460601b60e81c176000526e5af43d82803e903d91602b57fd5bf38460781b17602052826037600984f590506001600160a01b03811661111f5760405163b06ebf3d60e01b815260040160405180910390fd5b9392505050565b6000814710156111525760405163cf47918160e01b815247600482015260248101839052604401610383565b763d602d80600a3d3981f3363d3d373d3d3d363d730000008360601b60e81c176000526e5af43d82803e903d91602b57fd5bf38360781b176020526037600983f090506001600160a01b0381166110755760405163b06ebf3d60e01b815260040160405180910390fd5b6001600160a01b038116811461106157600080fd5b6000602082840312156111e357600080fd5b813561111f816111bc565b60008060006060848603121561120357600080fd5b833561120e816111bc565b95602085013595506040909401359392505050565b6000806000806080858703121561123957600080fd5b8435611244816111bc565b935060208501359250604085013591506060850135611262816111bc565b939692955090935050565b60008083601f84011261127f57600080fd5b50813567ffffffffffffffff81111561129757600080fd5b6020830191508360208285010111156112af57600080fd5b9250929050565b600080600080600080608087890312156112cf57600080fd5b86359550602087013567ffffffffffffffff808211156112ee57600080fd5b6112fa8a838b0161126d565b9097509550604089013591508082111561131357600080fd5b5061132089828a0161126d565b979a9699509497949695606090950135949350505050565b60006020828403121561134a57600080fd5b5035919050565b6000806040838503121561136457600080fd5b823561136f816111bc565b946020939093013593505050565b6000806000806080858703121561139357600080fd5b843561139e816111bc565b93506020850135925060408501356113b5816111bc565b9396929550929360600135925050565b600080604083850312156113d857600080fd5b8235915060208301356113ea816111bc565b809150509250929050565b60006020828403121561140757600080fd5b5051919050565b634e487b7160e01b600052601160045260246000fd5b808201808211156110755761107561140e565b818103818111156110755761107561140e565b81835281816020850137506000828201602090810191909152601f909101601f19169091010190565b60808152600061148760808301888a61144a565b828103602084015261149a81878961144a565b604084019590955250506001600160a01b0391909116606090910152949350505050565b6060815260006114d260608301878961144a565b82810360208401526114e581868861144a565b91505060018060a01b03831660408301529695505050505050565b60006020828403121561151257600080fd5b815160ff8116811461111f57600080fd5b60006020828403121561153557600080fd5b8151801515811461111f57600080fd5b60006020828403121561155757600080fd5b815161111f816111bc56fea264697066735822122001415d5db3fa9267b87dea861cc12472dede670669851ceefaee50745d6def8d64736f6c63430008170033",
	"gitCommit": "2c257a6d7529e08bc4aac39de4cacacc08d4628e",
	"history": []
}