{"abi":[{"type":"constructor","inputs":[{"name":"_fundingGoal","type":"uint256","internalType":"uint256"},{"name":"_deadline","type":"uint256","internalType":"uint256"},{"name":"_refundPeriod","type":"uint256","internalType":"uint256"},{"name":"_jbTerminalStoreAddress","type":"address","internalType":"address"},{"name":"_jbRulesetAddress","type":"address","internalType":"address"},{"name":"owner","type":"address","internalType":"address"}],"stateMutability":"nonpayable"},{"type":"function","name":"beforeCashOutRecordedWith","inputs":[{"name":"context","type":"tuple","internalType":"struct JBBeforeCashOutRecordedContext","components":[{"name":"terminal","type":"address","internalType":"address"},{"name":"holder","type":"address","internalType":"address"},{"name":"projectId","type":"uint256","internalType":"uint256"},{"name":"rulesetId","type":"uint256","internalType":"uint256"},{"name":"cashOutCount","type":"uint256","internalType":"uint256"},{"name":"totalSupply","type":"uint256","internalType":"uint256"},{"name":"surplus","type":"tuple","internalType":"struct JBTokenAmount","components":[{"name":"token","type":"address","internalType":"address"},{"name":"decimals","type":"uint8","internalType":"uint8"},{"name":"currency","type":"uint32","internalType":"uint32"},{"name":"value","type":"uint256","internalType":"uint256"}]},{"name":"useTotalSurplus","type":"bool","internalType":"bool"},{"name":"cashOutTaxRate","type":"uint256","internalType":"uint256"},{"name":"metadata","type":"bytes","internalType":"bytes"}]}],"outputs":[{"name":"cashOutTaxRate","type":"uint256","internalType":"uint256"},{"name":"cashOutCount","type":"uint256","internalType":"uint256"},{"name":"totalSupply","type":"uint256","internalType":"uint256"},{"name":"hookSpecifications","type":"tuple[]","internalType":"struct JBCashOutHookSpecification[]","components":[{"name":"hook","type":"address","internalType":"contract IJBCashOutHook"},{"name":"amount","type":"uint256","internalType":"uint256"},{"name":"metadata","type":"bytes","internalType":"bytes"}]}],"stateMutability":"view"},{"type":"function","name":"beforePayRecordedWith","inputs":[{"name":"context","type":"tuple","internalType":"struct JBBeforePayRecordedContext","components":[{"name":"terminal","type":"address","internalType":"address"},{"name":"payer","type":"address","internalType":"address"},{"name":"amount","type":"tuple","internalType":"struct JBTokenAmount","components":[{"name":"token","type":"address","internalType":"address"},{"name":"decimals","type":"uint8","internalType":"uint8"},{"name":"currency","type":"uint32","internalType":"uint32"},{"name":"value","type":"uint256","internalType":"uint256"}]},{"name":"projectId","type":"uint256","internalType":"uint256"},{"name":"rulesetId","type":"uint256","internalType":"uint256"},{"name":"beneficiary","type":"address","internalType":"address"},{"name":"weight","type":"uint256","internalType":"uint256"},{"name":"reservedPercent","type":"uint256","internalType":"uint256"},{"name":"metadata","type":"bytes","internalType":"bytes"}]}],"outputs":[{"name":"weight","type":"uint256","internalType":"uint256"},{"name":"hookSpecifications","type":"tuple[]","internalType":"struct JBPayHookSpecification[]","components":[{"name":"hook","type":"address","internalType":"contract IJBPayHook"},{"name":"amount","type":"uint256","internalType":"uint256"},{"name":"metadata","type":"bytes","internalType":"bytes"}]}],"stateMutability":"view"},{"type":"function","name":"deadline","inputs":[],"outputs":[{"name":"","type":"uint256","internalType":"uint256"}],"stateMutability":"view"},{"type":"function","name":"fundingGoal","inputs":[],"outputs":[{"name":"","type":"uint256","internalType":"uint256"}],"stateMutability":"view"},{"type":"function","name":"fundingTurnedOff","inputs":[],"outputs":[{"name":"","type":"bool","internalType":"bool"}],"stateMutability":"view"},{"type":"function","name":"hasMintPermissionFor","inputs":[{"name":"projectId","type":"uint256","internalType":"uint256"},{"name":"addr","type":"address","internalType":"address"}],"outputs":[{"name":"flag","type":"bool","internalType":"bool"}],"stateMutability":"view"},{"type":"function","name":"jbTerminalStore","inputs":[],"outputs":[{"name":"","type":"address","internalType":"contract IJBTerminalStore"}],"stateMutability":"view"},{"type":"function","name":"owner","inputs":[],"outputs":[{"name":"","type":"address","internalType":"address"}],"stateMutability":"view"},{"type":"function","name":"refundPeriod","inputs":[],"outputs":[{"name":"","type":"uint256","internalType":"uint256"}],"stateMutability":"view"},{"type":"function","name":"renounceOwnership","inputs":[],"outputs":[],"stateMutability":"nonpayable"},{"type":"function","name":"setFundingTurnedOff","inputs":[{"name":"_fundingTurnedOff","type":"bool","internalType":"bool"}],"outputs":[],"stateMutability":"nonpayable"},{"type":"function","name":"stage","inputs":[{"name":"terminal","type":"address","internalType":"address"},{"name":"projectId","type":"uint256","internalType":"uint256"}],"outputs":[{"name":"","type":"uint256","internalType":"uint256"}],"stateMutability":"view"},{"type":"function","name":"supportsInterface","inputs":[{"name":"interfaceId","type":"bytes4","internalType":"bytes4"}],"outputs":[{"name":"","type":"bool","internalType":"bool"}],"stateMutability":"view"},{"type":"function","name":"transferOwnership","inputs":[{"name":"newOwner","type":"address","internalType":"address"}],"outputs":[],"stateMutability":"nonpayable"},{"type":"event","name":"OwnershipTransferred","inputs":[{"name":"previousOwner","type":"address","indexed":true,"internalType":"address"},{"name":"newOwner","type":"address","indexed":true,"internalType":"address"}],"anonymous":false},{"type":"error","name":"OwnableInvalidOwner","inputs":[{"name":"owner","type":"address","internalType":"address"}]},{"type":"error","name":"OwnableUnauthorizedAccount","inputs":[{"name":"account","type":"address","internalType":"address"}]}],"bytecode":{"object":"0x60e03461018257601f61105f38819003918201601f19168301916001600160401b038311848410176101865780849260c09460405283398101031261018257805190602081015160408201516100576060840161019a565b916100646080850161019a565b936001600160a01b039061007a9060a00161019a565b1694851561016f575f80546001600160a01b031981168817825560405197916001600160a01b03909116907f8be0079c531659141344cd1fd0a4f28419497f9722a3daafe3b4186f6b6457e09080a360805260a05260c05260028054610100600160a81b03191660089290921b610100600160a81b0316919091179055600380546001600160a01b0319166001600160a01b0392909216919091179055610eb090816101af82396080518181816101070152818161089501528181610ac50152610d02015260a05181818161012f01528181610a2901528181610bc10152610d29015260c05181818161015701526107310152f35b631e4fbdf760e01b5f525f60045260245ffd5b5f80fd5b634e487b7160e01b5f52604160045260245ffd5b51906001600160a01b03821682036101825756fe6080806040526004361015610012575f80fd5b5f3560e01c90816301ffc9a714610be45750806329dcb0cf14610baa5780635531083214610b88578063677ce08814610b64578063715018a614610ae85780637a3a0e8414610aae5780638cc35846146108135780638da5cb5b146107e1578063936ff5641461078a578063a524af7414610754578063a6a3b5b41461071a578063ebb2666f146106eb578063f2fde38b1461061d5763fb82b1b0146100b6575f80fd5b346104275760206003193601126104275760043567ffffffffffffffff8111610427576101a06003198236030112610427576100f481600401610cd5565b9061010460448201358093610e0e565b917f0000000000000000000000000000000000000000000000000000000000000000831015610573577f00000000000000000000000000000000000000000000000000000000000000008042106104ef577f000000000000000000000000000000000000000000000000000000000000000081018091116102e95742101561046b5761012073ffffffffffffffffffffffffffffffffffffffff60035416916044604051809481937f25a61d5c0000000000000000000000000000000000000000000000000000000083526004830152606487013560248301525afa908115610460575f91610316575b5060a06dffffffffffffffffffffffffffff91015116918281029281840414901517156102e95790671bc16d674ec8000091604051928392608460808501935f8652013560208501520460408301526080606083015260605180915260a0820160a08260051b840101916080915f905b82821061026d57505050500390f35b919360206102d9827fffffffffffffffffffffffffffffffffffffffffffffffffffffffffffffff606001959799849503018652606060408a5173ffffffffffffffffffffffffffffffffffffffff815116845285810151868501520151918160408201520190610c92565b960192019201859493919261025e565b7f4e487b71000000000000000000000000000000000000000000000000000000005f52601160045260245ffd5b9050610120813d8211610458575b816103326101209383610d5d565b810103126104275760405190610120820182811067ffffffffffffffff82111761042b5760405261036281610d9e565b825261037060208201610d9e565b602083015261038160408201610d9e565b604083015261039260608201610d9e565b60608301526103a360808201610db1565b608083015260a08101516dffffffffffffffffffffffffffff811681036104275760a08301526103d560c08201610db1565b60c083015260e08101519173ffffffffffffffffffffffffffffffffffffffff831683036104275761010060a0926dffffffffffffffffffffffffffff9460e0840152015161010082015291506101ee565b5f80fd5b7f4e487b71000000000000000000000000000000000000000000000000000000005f52604160045260245ffd5b3d9150610324565b6040513d5f823e3d90fd5b60846040517f08c379a000000000000000000000000000000000000000000000000000000000815260206004820152602f60248201527f526566756e6420706572696f6420686173207061737365642e20526566756e6460448201527f73206172652064697361626c65642e00000000000000000000000000000000006064820152fd5b60846040517f08c379a000000000000000000000000000000000000000000000000000000000815260206004820152603e60248201527f50726f6a6563742066756e64696e6720646561646c696e6520686173206e6f7460448201527f207061737365642e20526566756e6473206172652064697361626c65642e00006064820152fd5b60a46040517f08c379a000000000000000000000000000000000000000000000000000000000815260206004820152604260248201527f50726f6a65637420686173207061737365642066756e64696e6720676f616c2060448201527f726571756972656d656e742e20526566756e6473206172652064697361626c6560648201527f642e0000000000000000000000000000000000000000000000000000000000006084820152fd5b346104275760206003193601126104275773ffffffffffffffffffffffffffffffffffffffff61064b610c6f565b610653610dc2565b1680156106bf5773ffffffffffffffffffffffffffffffffffffffff5f54827fffffffffffffffffffffffff00000000000000000000000000000000000000008216175f55167f8be0079c531659141344cd1fd0a4f28419497f9722a3daafe3b4186f6b6457e05f80a3005b7f1e4fbdf7000000000000000000000000000000000000000000000000000000005f525f60045260245ffd5b34610427576040600319360112610427576020610712610709610c6f565b60243590610cf6565b604051908152f35b34610427575f6003193601126104275760206040517f00000000000000000000000000000000000000000000000000000000000000008152f35b34610427575f60031936011261042757602073ffffffffffffffffffffffffffffffffffffffff60025460081c16604051908152f35b3461042757602060031936011261042757600435801515809103610427576107b0610dc2565b60ff7fffffffffffffffffffffffffffffffffffffffffffffffffffffffffffffff00600254169116176002555f80f35b34610427575f60031936011261042757602073ffffffffffffffffffffffffffffffffffffffff5f5416604051908152f35b346104275760206003193601126104275760043567ffffffffffffffff81116104275761018060031982360301126104275760ff60025416610a505761086961085e82600401610cd5565b60c483013590610e0e565b61eeee73ffffffffffffffffffffffffffffffffffffffff61088d60448501610cd5565b1603610427577f00000000000000000000000000000000000000000000000000000000000000001180610a26575b61097c576040518091610124604083019101358252604060208301526060518091526060820160608260051b840101916080915f905b82821061090057505050500390f35b9193602061096c827fffffffffffffffffffffffffffffffffffffffffffffffffffffffffffffffa06001959799849503018652606060408a5173ffffffffffffffffffffffffffffffffffffffff815116845285810151868501520151918160408201520190610c92565b96019201920185949391926108f1565b60a46040517f08c379a000000000000000000000000000000000000000000000000000000000815260206004820152605260248201527f50726f6a6563742066756e64696e6720646561646c696e65206861732070617360448201527f73656420616e642066756e64696e6720676f616c20726571756972656d656e7460648201527f20686173206e6f74206265656e206d65742e00000000000000000000000000006084820152fd5b507f00000000000000000000000000000000000000000000000000000000000000004210156108bb565b60646040517f08c379a000000000000000000000000000000000000000000000000000000000815260206004820152601c60248201527f46756e64696e6720686173206265656e207475726e6564206f66662e000000006044820152fd5b34610427575f6003193601126104275760206040517f00000000000000000000000000000000000000000000000000000000000000008152f35b34610427575f60031936011261042757610b00610dc2565b5f73ffffffffffffffffffffffffffffffffffffffff81547fffffffffffffffffffffffff000000000000000000000000000000000000000081168355167f8be0079c531659141344cd1fd0a4f28419497f9722a3daafe3b4186f6b6457e08280a3005b3461042757604060031936011261042757610b7d610c4c565b5060206040515f8152f35b34610427575f60031936011261042757602060ff600254166040519015158152f35b34610427575f6003193601126104275760206040517f00000000000000000000000000000000000000000000000000000000000000008152f35b3461042757602060031936011261042757600435907fffffffff000000000000000000000000000000000000000000000000000000008216809203610427577f103d097e00000000000000000000000000000000000000000000000000000000602092148152f35b6024359073ffffffffffffffffffffffffffffffffffffffff8216820361042757565b6004359073ffffffffffffffffffffffffffffffffffffffff8216820361042757565b907fffffffffffffffffffffffffffffffffffffffffffffffffffffffffffffffe0601f602080948051918291828752018686015e5f8582860101520116010190565b3573ffffffffffffffffffffffffffffffffffffffff811681036104275790565b90610d0091610e0e565b7f00000000000000000000000000000000000000000000000000000000000000001115610d58577f00000000000000000000000000000000000000000000000000000000000000004210610d5357600390565b600190565b600290565b90601f7fffffffffffffffffffffffffffffffffffffffffffffffffffffffffffffffe0910116810190811067ffffffffffffffff82111761042b57604052565b519065ffffffffffff8216820361042757565b519063ffffffff8216820361042757565b73ffffffffffffffffffffffffffffffffffffffff5f54163303610de257565b7f118cdaa7000000000000000000000000000000000000000000000000000000005f523360045260245ffd5b73ffffffffffffffffffffffffffffffffffffffff60646020928260025460081c1660405195869485937f467f4cb9000000000000000000000000000000000000000000000000000000008552166004840152602483015261eeee60448301525afa908115610460575f91610e81575090565b90506020813d602011610ea8575b81610e9c60209383610d5d565b81010312610427575190565b3d9150610e8f56","linkReferences":{}},"methodIdentifiers":{"beforeCashOutRecordedWith((address,address,uint256,uint256,uint256,uint256,(address,uint8,uint32,uint256),bool,uint256,bytes))":"fb82b1b0","beforePayRecordedWith((address,address,(address,uint8,uint32,uint256),uint256,uint256,address,uint256,uint256,bytes))":"8cc35846","deadline()":"29dcb0cf","fundingGoal()":"7a3a0e84","fundingTurnedOff()":"55310832","hasMintPermissionFor(uint256,address)":"677ce088","jbTerminalStore()":"a524af74","owner()":"8da5cb5b","refundPeriod()":"a6a3b5b4","renounceOwnership()":"715018a6","setFundingTurnedOff(bool)":"936ff564","stage(address,uint256)":"ebb2666f","supportsInterface(bytes4)":"01ffc9a7","transferOwnership(address)":"f2fde38b"},"id":265}