{
  "contractName": "LMSRWithTWAP",
  "abi": [
    {
      "constant": true,
      "inputs": [
        {
          "name": "interfaceId",
          "type": "bytes4"
        }
      ],
      "name": "supportsInterface",
      "outputs": [
        {
          "name": "",
          "type": "bool"
        }
      ],
      "payable": false,
      "stateMutability": "view",
      "type": "function"
    },
    {
      "constant": false,
      "inputs": [],
      "name": "resume",
      "outputs": [],
      "payable": false,
      "stateMutability": "nonpayable",
      "type": "function"
    },
    {
      "constant": true,
      "inputs": [],
      "name": "pmSystem",
      "outputs": [
        {
          "name": "",
          "type": "address"
        }
      ],
      "payable": false,
      "stateMutability": "view",
      "type": "function"
    },
    {
      "constant": false,
      "inputs": [
        {
          "name": "outcomeTokenAmounts",
          "type": "int256[]"
        },
        {
          "name": "collateralLimit",
          "type": "int256"
        }
      ],
      "name": "trade",
      "outputs": [
        {
          "name": "netCost",
          "type": "int256"
        }
      ],
      "payable": false,
      "stateMutability": "nonpayable",
      "type": "function"
    },
    {
      "constant": false,
      "inputs": [],
      "name": "close",
      "outputs": [],
      "payable": false,
      "stateMutability": "nonpayable",
      "type": "function"
    },
    {
      "constant": false,
      "inputs": [],
      "name": "withdrawFees",
      "outputs": [
        {
          "name": "fees",
          "type": "uint256"
        }
      ],
      "payable": false,
      "stateMutability": "nonpayable",
      "type": "function"
    },
    {
      "constant": false,
      "inputs": [],
      "name": "renounceOwnership",
      "outputs": [],
      "payable": false,
      "stateMutability": "nonpayable",
      "type": "function"
    },
    {
      "constant": true,
      "inputs": [
        {
          "name": "outcomeTokenAmounts",
          "type": "int256[]"
        }
      ],
      "name": "calcNetCost",
      "outputs": [
        {
          "name": "netCost",
          "type": "int256"
        }
      ],
      "payable": false,
      "stateMutability": "view",
      "type": "function"
    },
    {
      "constant": true,
      "inputs": [],
      "name": "startTime",
      "outputs": [
        {
          "name": "",
          "type": "uint256"
        }
      ],
      "payable": false,
      "stateMutability": "view",
      "type": "function"
    },
    {
      "constant": true,
      "inputs": [
        {
          "name": "",
          "type": "uint256"
        }
      ],
      "name": "cumulativeProbabilities",
      "outputs": [
        {
          "name": "",
          "type": "uint256"
        }
      ],
      "payable": false,
      "stateMutability": "view",
      "type": "function"
    },
    {
      "constant": false,
      "inputs": [],
      "name": "pause",
      "outputs": [],
      "payable": false,
      "stateMutability": "nonpayable",
      "type": "function"
    },
    {
      "constant": false,
      "inputs": [
        {
          "name": "fundingChange",
          "type": "int256"
        }
      ],
      "name": "changeFunding",
      "outputs": [],
      "payable": false,
      "stateMutability": "nonpayable",
      "type": "function"
    },
    {
      "constant": true,
      "inputs": [],
      "name": "owner",
      "outputs": [
        {
          "name": "",
          "type": "address"
        }
      ],
      "payable": false,
      "stateMutability": "view",
      "type": "function"
    },
    {
      "constant": true,
      "inputs": [],
      "name": "isOwner",
      "outputs": [
        {
          "name": "",
          "type": "bool"
        }
      ],
      "payable": false,
      "stateMutability": "view",
      "type": "function"
    },
    {
      "constant": true,
      "inputs": [],
      "name": "whitelist",
      "outputs": [
        {
          "name": "",
          "type": "address"
        }
      ],
      "payable": false,
      "stateMutability": "view",
      "type": "function"
    },
    {
      "constant": true,
      "inputs": [
        {
          "name": "outcomeTokenCost",
          "type": "uint256"
        }
      ],
      "name": "calcMarketFee",
      "outputs": [
        {
          "name": "",
          "type": "uint256"
        }
      ],
      "payable": false,
      "stateMutability": "view",
      "type": "function"
    },
    {
      "constant": true,
      "inputs": [],
      "name": "collateralToken",
      "outputs": [
        {
          "name": "",
          "type": "address"
        }
      ],
      "payable": false,
      "stateMutability": "view",
      "type": "function"
    },
    {
      "constant": true,
      "inputs": [
        {
          "name": "outcomeTokenIndex",
          "type": "uint8"
        }
      ],
      "name": "calcMarginalPrice",
      "outputs": [
        {
          "name": "price",
          "type": "uint256"
        }
      ],
      "payable": false,
      "stateMutability": "view",
      "type": "function"
    },
    {
      "constant": false,
      "inputs": [
        {
          "name": "_operator",
          "type": "address"
        },
        {
          "name": "",
          "type": "address"
        },
        {
          "name": "",
          "type": "uint256[]"
        },
        {
          "name": "",
          "type": "uint256[]"
        },
        {
          "name": "",
          "type": "bytes"
        }
      ],
      "name": "onERC1155BatchReceived",
      "outputs": [
        {
          "name": "",
          "type": "bytes4"
        }
      ],
      "payable": false,
      "stateMutability": "nonpayable",
      "type": "function"
    },
    {
      "constant": true,
      "inputs": [],
      "name": "stage",
      "outputs": [
        {
          "name": "",
          "type": "uint8"
        }
      ],
      "payable": false,
      "stateMutability": "view",
      "type": "function"
    },
    {
      "constant": true,
      "inputs": [],
      "name": "lastUpdateTime",
      "outputs": [
        {
          "name": "",
          "type": "uint256"
        }
      ],
      "payable": false,
      "stateMutability": "view",
      "type": "function"
    },
    {
      "constant": true,
      "inputs": [],
      "name": "funding",
      "outputs": [
        {
          "name": "",
          "type": "uint256"
        }
      ],
      "payable": false,
      "stateMutability": "view",
      "type": "function"
    },
    {
      "constant": true,
      "inputs": [
        {
          "name": "",
          "type": "uint256"
        }
      ],
      "name": "conditionIds",
      "outputs": [
        {
          "name": "",
          "type": "bytes32"
        }
      ],
      "payable": false,
      "stateMutability": "view",
      "type": "function"
    },
    {
      "constant": true,
      "inputs": [],
      "name": "atomicOutcomeSlotCount",
      "outputs": [
        {
          "name": "",
          "type": "uint256"
        }
      ],
      "payable": false,
      "stateMutability": "view",
      "type": "function"
    },
    {
      "constant": true,
      "inputs": [],
      "name": "fee",
      "outputs": [
        {
          "name": "",
          "type": "uint64"
        }
      ],
      "payable": false,
      "stateMutability": "view",
      "type": "function"
    },
    {
      "constant": false,
      "inputs": [
        {
          "name": "_fee",
          "type": "uint64"
        }
      ],
      "name": "changeFee",
      "outputs": [],
      "payable": false,
      "stateMutability": "nonpayable",
      "type": "function"
    },
    {
      "constant": false,
      "inputs": [
        {
          "name": "operator",
          "type": "address"
        },
        {
          "name": "",
          "type": "address"
        },
        {
          "name": "",
          "type": "uint256"
        },
        {
          "name": "",
          "type": "uint256"
        },
        {
          "name": "",
          "type": "bytes"
        }
      ],
      "name": "onERC1155Received",
      "outputs": [
        {
          "name": "",
          "type": "bytes4"
        }
      ],
      "payable": false,
      "stateMutability": "nonpayable",
      "type": "function"
    },
    {
      "constant": false,
      "inputs": [
        {
          "name": "newOwner",
          "type": "address"
        }
      ],
      "name": "transferOwnership",
      "outputs": [],
      "payable": false,
      "stateMutability": "nonpayable",
      "type": "function"
    },
    {
      "constant": true,
      "inputs": [],
      "name": "FEE_RANGE",
      "outputs": [
        {
          "name": "",
          "type": "uint64"
        }
      ],
      "payable": false,
      "stateMutability": "view",
      "type": "function"
    },
    {
      "anonymous": false,
      "inputs": [
        {
          "indexed": false,
          "name": "initialFunding",
          "type": "uint256"
        }
      ],
      "name": "AMMCreated",
      "type": "event"
    },
    {
      "anonymous": false,
      "inputs": [],
      "name": "AMMPaused",
      "type": "event"
    },
    {
      "anonymous": false,
      "inputs": [],
      "name": "AMMResumed",
      "type": "event"
    },
    {
      "anonymous": false,
      "inputs": [],
      "name": "AMMClosed",
      "type": "event"
    },
    {
      "anonymous": false,
      "inputs": [
        {
          "indexed": false,
          "name": "fundingChange",
          "type": "int256"
        }
      ],
      "name": "AMMFundingChanged",
      "type": "event"
    },
    {
      "anonymous": false,
      "inputs": [
        {
          "indexed": false,
          "name": "newFee",
          "type": "uint64"
        }
      ],
      "name": "AMMFeeChanged",
      "type": "event"
    },
    {
      "anonymous": false,
      "inputs": [
        {
          "indexed": false,
          "name": "fees",
          "type": "uint256"
        }
      ],
      "name": "AMMFeeWithdrawal",
      "type": "event"
    },
    {
      "anonymous": false,
      "inputs": [
        {
          "indexed": true,
          "name": "transactor",
          "type": "address"
        },
        {
          "indexed": false,
          "name": "outcomeTokenAmounts",
          "type": "int256[]"
        },
        {
          "indexed": false,
          "name": "outcomeTokenNetCost",
          "type": "int256"
        },
        {
          "indexed": false,
          "name": "marketFees",
          "type": "uint256"
        }
      ],
      "name": "AMMOutcomeTokenTrade",
      "type": "event"
    },
    {
      "anonymous": false,
      "inputs": [
        {
          "indexed": true,
          "name": "previousOwner",
          "type": "address"
        },
        {
          "indexed": true,
          "name": "newOwner",
          "type": "address"
        }
      ],
      "name": "OwnershipTransferred",
      "type": "event"
    },
    {
      "constant": false,
      "inputs": [],
      "name": "updateCumulativeTWAP",
      "outputs": [],
      "payable": false,
      "stateMutability": "nonpayable",
      "type": "function"
    },
    {
      "constant": false,
      "inputs": [
        {
          "name": "outcomeTokenAmounts",
          "type": "int256[]"
        },
        {
          "name": "collateralLimit",
          "type": "int256"
        }
      ],
      "name": "tradeWithTWAP",
      "outputs": [],
      "payable": false,
      "stateMutability": "nonpayable",
      "type": "function"
    },
    {
      "constant": true,
      "inputs": [],
      "name": "getTWAP",
      "outputs": [
        {
          "name": "",
          "type": "uint256[]"
        }
      ],
      "payable": false,
      "stateMutability": "view",
      "type": "function"
    }
  ],
  "bytecode": "0x60806040819052600080546001600160a01b03191633178082556001600160a01b0316917f8be0079c531659141344cd1fd0a4f28419497f9722a3daafe3b4186f6b6457e0908290a36200007c7f01ffc9a7000000000000000000000000000000000000000000000000000000006001600160e01b03620000b616565b620000b07f4e2312e0000000000000000000000000000000000000000000000000000000006001600160e01b03620000b616565b62000188565b7fffffffff0000000000000000000000000000000000000000000000000000000080821614156200014857604080517f08c379a000000000000000000000000000000000000000000000000000000000815260206004820152601c60248201527f4552433136353a20696e76616c696420696e7465726661636520696400000000604482015290519081900360640190fd5b7fffffffff00000000000000000000000000000000000000000000000000000000166000908152600160208190526040909120805460ff19169091179055565b612b5880620001986000396000f3fe608060405234801561001057600080fd5b50600436106101f05760003560e01c806393e59dc11161010f578063d8c55af7116100a2578063f23a6e6111610071578063f23a6e611461075f578063f2fde38b146107f2578063f5f52e0e14610818578063fbde47f614610820576101f0565b8063d8c55af7146106ee578063dd83bad21461070b578063ddca3f4314610713578063e7f3378914610738576101f0565b8063bc197c81116100de578063bc197c811461056e578063c040e6b8146106b2578063c8f33c91146106de578063cb4c86b7146106e6576101f0565b806393e59dc114610521578063b001150914610529578063b2016bd414610546578063b20f8e7f1461054e576101f0565b8063715018a6116101875780638456cb59116101565780638456cb59146104ec57806387f39a5c146104f45780638da5cb5b146105115780638f32d59b14610519576101f0565b8063715018a61461041e578063782d085b1461042657806378e97925146104c757806378f5af2b146104cf576101f0565b806315bd7611116101c357806315bd7611146102b657806343d726d61461036b578063476343ee146103735780635c9c40671461037b576101f0565b806301ffc9a7146101f5578063046f7da21461023057806305be8b2c1461023a57806305ecd0031461025e575b600080fd5b61021c6004803603602081101561020b57600080fd5b50356001600160e01b031916610828565b604080519115158252519081900360200190f35b610238610847565b005b6102426108e2565b604080516001600160a01b039092168252519081900360200190f35b6102666108f1565b60408051602080825283518183015283519192839290830191858101910280838360005b838110156102a257818101518382015260200161028a565b505050509050019250505060405180910390f35b610359600480360360408110156102cc57600080fd5b810190602081018135600160201b8111156102e657600080fd5b8201836020820111156102f857600080fd5b803590602001918460208302840111600160201b8311171561031957600080fd5b9190808060200260200160405190810160405280939291908181526020018383602002808284376000920191909152509295505091359250610a70915050565b60408051918252519081900360200190f35b6102386111a8565b6103596113d0565b6102386004803603604081101561039157600080fd5b810190602081018135600160201b8111156103ab57600080fd5b8201836020820111156103bd57600080fd5b803590602001918460208302840111600160201b831117156103de57600080fd5b9190808060200260200160405190810160405280939291908181526020018383602002808284376000920191909152509295505091359250611567915050565b61023861167b565b6103596004803603602081101561043c57600080fd5b810190602081018135600160201b81111561045657600080fd5b82018360208201111561046857600080fd5b803590602001918460208302840111600160201b8311171561048957600080fd5b91908080602002602001604051908101604052809392919081815260200183836020028082843760009201919091525092955061170c945050505050565b610359611a0a565b610359600480360360208110156104e557600080fd5b5035611a10565b610238611a2e565b6102386004803603602081101561050a57600080fd5b5035611acc565b610242611e03565b61021c611e12565b610242611e23565b6103596004803603602081101561053f57600080fd5b5035611e37565b610242611e57565b6103596004803603602081101561056457600080fd5b503560ff16611e66565b610695600480360360a081101561058457600080fd5b6001600160a01b038235811692602081013590911691810190606081016040820135600160201b8111156105b757600080fd5b8201836020820111156105c957600080fd5b803590602001918460208302840111600160201b831117156105ea57600080fd5b919390929091602081019035600160201b81111561060757600080fd5b82018360208201111561061957600080fd5b803590602001918460208302840111600160201b8311171561063a57600080fd5b919390929091602081019035600160201b81111561065757600080fd5b82018360208201111561066957600080fd5b803590602001918460018302840111600160201b8311171561068a57600080fd5b509092509050612044565b604080516001600160e01b03199092168252519081900360200190f35b6106ba612075565b604051808260028111156106ca57fe5b60ff16815260200191505060405180910390f35b61035961207e565b610359612084565b6103596004803603602081101561070457600080fd5b503561208a565b610359612097565b61071b61209d565b6040805167ffffffffffffffff9092168252519081900360200190f35b6102386004803603602081101561074e57600080fd5b503567ffffffffffffffff166120ad565b610695600480360360a081101561077557600080fd5b6001600160a01b03823581169260208101359091169160408201359160608101359181019060a081016080820135600160201b8111156107b457600080fd5b8201836020820111156107c657600080fd5b803590602001918460018302840111600160201b831117156107e757600080fd5b50909250905061216f565b6102386004803603602081101561080857600080fd5b50356001600160a01b031661219e565b6102386121f1565b61071b6122c8565b6001600160e01b03191660009081526001602052604090205460ff1690565b61084f611e12565b61088e576040805162461bcd60e51b81526020600482018190526024820152600080516020612ae1833981519152604482015290519081900360640190fd5b60018060085460ff1660028111156108a257fe5b146108ac57600080fd5b6008805460ff191690556040517fb0cf596e1402e50b88a6d1097918e48922e4a2878ece11d7bb51b5d81cf6c17890600090a150565b6002546001600160a01b031681565b600c5460609042038061095757600d80548060200260200160405190810160405280929190818152602001828054801561094a57602002820191906000526020600020905b815481526020019060010190808311610936575b5050505050915050610a6d565b600d54604080518281526020808402820101909152606090828015610986578160200160208202803883390190505b50600e54909150420360005b838160ff161015610a65576040805163b20f8e7f60e01b815260ff831660048201529051600091309163b20f8e7f91602480820192602092909190829003018186803b1580156109e157600080fd5b505afa1580156109f5573d6000803e3d6000fd5b505050506040513d6020811015610a0b57600080fd5b5051600d8054919250600091858402919060ff8616908110610a2957fe5b9060005260206000200154019050868181610a4057fe5b04858460ff1681518110610a5057fe5b60209081029190910101525050600101610992565b509093505050505b90565b6000808060085460ff166002811115610a8557fe5b14610a8f57600080fd5b60085461010090046001600160a01b03161580610b23575060085460408051633af32abf60e01b815233600482015290516101009092046001600160a01b031691633af32abf91602480820192602092909190829003018186803b158015610af657600080fd5b505afa158015610b0a573d6000803e3d6000fd5b505050506040513d6020811015610b2057600080fd5b50515b610b5e5760405162461bcd60e51b815260040180806020018281038252602d815260200180612ab4602d913960400191505060405180910390fd5b600554845114610b6d57600080fd5b6000610b788561170c565b9050600080821215610b9757610b9082600003611e37565b9050610ba3565b610ba082611e37565b90505b6000811215610bb157600080fd5b610bc1828263ffffffff6122d416565b93508415801590610bd25750848413155b80610bdb575084155b610be457600080fd5b6000821315610d1257600354604080516323b872dd60e01b81523360048201523060248201526044810187905290516001600160a01b03909216916323b872dd916064808201926020929091908290030181600087803b158015610c4757600080fd5b505af1158015610c5b573d6000803e3d6000fd5b505050506040513d6020811015610c7157600080fd5b50518015610d0057506003546002546040805163095ea7b360e01b81526001600160a01b039283166004820152602481018690529051919092169163095ea7b39160448083019260209291908290030181600087803b158015610cd357600080fd5b505af1158015610ce7573d6000803e3d6000fd5b505050506040513d6020811015610cfd57600080fd5b50515b610d0957600080fd5b610d1282612309565b60008090506060600554604051908082528060200260200182016040528015610d45578160200160208202803883390190505b50905060005b600554811015610dad576000898281518110610d6357fe5b60200260200101511215610da55760019250888181518110610d8157fe5b6020026020010151600003828281518110610d9857fe5b6020026020010181815250505b600101610d4b565b508115610ec657600254604051631759616b60e11b81523360048201818152306024840181905260a060448501908152600b805460a487018190526001600160a01b0390971696632eb2c2d696939491938993916064820191608481019160c49091019087908015610e3e57602002820191906000526020600020905b815481526020019060010190808311610e2a575b50508481038352855181528551602091820191808801910280838360005b83811015610e74578181015183820152602001610e5c565b50505050905001848103825260008152602001602001975050505050505050600060405180830381600087803b158015610ead57600080fd5b505af1158015610ec1573d6000803e3d6000fd5b505050505b6000841215610edb57610edb84600003612494565b336001600160a01b03167fda7ff5556ce7ecfcf06296f03426e8c02a7305b85cfd88816a32f7f4969051778986866040518080602001848152602001838152602001828103825285818151815260200191508051906020019060200280838360005b83811015610f55578181015183820152602001610f3d565b5050505090500194505050505060405180910390a260009150815b600554811015610fee576000898281518110610f8857fe5b60200260200101511315610fcb5760019250888181518110610fa657fe5b6020026020010151828281518110610fba57fe5b602002602001018181525050610fe6565b6000828281518110610fd957fe5b6020026020010181815250505b600101610f70565b50811561110757600254604051631759616b60e11b81523060048201818152336024840181905260a060448501908152600b805460a487018190526001600160a01b0390971696632eb2c2d696939491938993916064820191608481019160c4909101908790801561107f57602002820191906000526020600020905b81548152602001906001019080831161106b575b50508481038352855181528551602091820191808801910280838360005b838110156110b557818101518382015260200161109d565b50505050905001848103825260008152602001602001975050505050505050600060405180830381600087803b1580156110ee57600080fd5b505af1158015611102573d6000803e3d6000fd5b505050505b600086121561119d576003546040805163a9059cbb60e01b81523360048201526000898103602483015291516001600160a01b039093169263a9059cbb92604480840193602093929083900390910190829087803b15801561116857600080fd5b505af115801561117c573d6000803e3d6000fd5b505050506040513d602081101561119257600080fd5b505161119d57600080fd5b505050505092915050565b6111b0611e12565b6111ef576040805162461bcd60e51b81526020600482018190526024820152600080516020612ae1833981519152604482015290519081900360640190fd5b600060085460ff16600281111561120257fe5b148061121e5750600160085460ff16600281111561121c57fe5b145b6112595760405162461bcd60e51b8152600401808060200182810382526023815260200180612b016023913960400191505060405180910390fd5b60005b6005548110156113975760006112718261260b565b6002549091506001600160a01b031663f242432a3061128e611e03565b60025460408051627eeac760e11b815230600482015260248101889052905187926001600160a01b03169162fdd58e916044808301926020929190829003018186803b1580156112dd57600080fd5b505afa1580156112f1573d6000803e3d6000fd5b505050506040513d602081101561130757600080fd5b5051604080516001600160e01b031960e088901b1681526001600160a01b0395861660048201529390941660248401526044830191909152606482015260a06084820152600060a48201819052915160e4808301939282900301818387803b15801561137257600080fd5b505af1158015611386573d6000803e3d6000fd5b50506001909301925061125c915050565b506008805460ff191660021790556040517f6e18b1b14477b5922c6efa82206ed0e3b73c2500e8d1528c9a6e17554ea1255490600090a1565b60006113da611e12565b611419576040805162461bcd60e51b81526020600482018190526024820152600080516020612ae1833981519152604482015290519081900360640190fd5b600354604080516370a0823160e01b815230600482015290516001600160a01b03909216916370a0823191602480820192602092909190829003018186803b15801561146457600080fd5b505afa158015611478573d6000803e3d6000fd5b505050506040513d602081101561148e57600080fd5b50516003549091506001600160a01b031663a9059cbb6114ac611e03565b836040518363ffffffff1660e01b815260040180836001600160a01b03166001600160a01b0316815260200182815260200192505050602060405180830381600087803b1580156114fc57600080fd5b505af1158015611510573d6000803e3d6000fd5b505050506040513d602081101561152657600080fd5b505161153157600080fd5b6040805182815290517fce1d35d26fbf6b3cc5cd924de10b5a52b08e484129ea7d93abc48d739fffe5b99181900360200190a190565b61156f6121f1565b600d548251146115c6576040805162461bcd60e51b815260206004820152601860248201527f4d69736d617463686564206172726179206c656e677468730000000000000000604482015290519081900360640190fd5b604080516315bd761160e01b8152602481018390526004810191825283516044820152835130926315bd761192869286929182916064909101906020808701910280838360005b8381101561162557818101518382015260200161160d565b505050509050019350505050602060405180830381600087803b15801561164b57600080fd5b505af115801561165f573d6000803e3d6000fd5b505050506040513d602081101561167557600080fd5b50505050565b611683611e12565b6116c2576040805162461bcd60e51b81526020600482018190526024820152600080516020612ae1833981519152604482015290519081900360640190fd5b600080546040516001600160a01b03909116907f8be0079c531659141344cd1fd0a4f28419497f9722a3daafe3b4186f6b6457e0908390a3600080546001600160a01b0319169055565b600060055482511461171d57600080fd5b606060055460405190808252806020026020018201604052801561174b578160200160208202803883390190505b50905060005b600554811015611847576002546000906001600160a01b031662fdd58e306117788561260b565b6040518363ffffffff1660e01b815260040180836001600160a01b03166001600160a01b031681526020018281526020019250505060206040518083038186803b1580156117c557600080fd5b505afa1580156117d9573d6000803e3d6000fd5b505050506040513d60208110156117ef57600080fd5b50519050600081121561180157600080fd5b6118278186848151811061181157fe5b602002602001015161262c90919063ffffffff16565b83838151811061183357fe5b602090810291909101015250600101611751565b50600073__Fixed192x64Math_______________________63137bf798600160401b6005540260016040518363ffffffff1660e01b81526004018083815260200182600281111561189457fe5b60ff1681526020019250505060206040518083038186803b1580156118b857600080fd5b505af41580156118cc573d6000803e3d6000fd5b505050506040513d60208110156118e257600080fd5b505190506000806118f6838583600161265a565b506040805163026f7ef360e31b81526004810184905260016024820152905192945090925073__Fixed192x64Math_______________________9163137bf79891604480820192602092909190829003018186803b15801561195757600080fd5b505af415801561196b573d6000803e3d6000fd5b505050506040513d602081101561198157600080fd5b50519450611995858263ffffffff6122d416565b6007549095506119c890846119b488600160401b63ffffffff61288a16565b816119bb57fe5b059063ffffffff61288a16565b94506000851315806119e1575084600160401b80820502145b156119f457600160401b85059450611a01565b600160401b850560010194505b50505050919050565b600c5481565b600d8181548110611a1d57fe5b600091825260209091200154905081565b611a36611e12565b611a75576040805162461bcd60e51b81526020600482018190526024820152600080516020612ae1833981519152604482015290519081900360640190fd5b60008060085460ff166002811115611a8957fe5b14611a9357600080fd5b6008805460ff191660011790556040517fbb11914e7a395f00cf0920fe85f50088bd8d7681529fb0bd3c27ccb45a8bcd8f90600090a150565b611ad4611e12565b611b13576040805162461bcd60e51b81526020600482018190526024820152600080516020612ae1833981519152604482015290519081900360640190fd5b60018060085460ff166002811115611b2757fe5b14611b3157600080fd5b81611b83576040805162461bcd60e51b815260206004820152601f60248201527f66756e64696e67206368616e6765206d757374206265206e6f6e2d7a65726f00604482015290519081900360640190fd5b6000821315611cfb57600354604080516323b872dd60e01b81523360048201523060248201526044810185905290516001600160a01b03909216916323b872dd916064808201926020929091908290030181600087803b158015611be657600080fd5b505af1158015611bfa573d6000803e3d6000fd5b505050506040513d6020811015611c1057600080fd5b50518015611c9f57506003546002546040805163095ea7b360e01b81526001600160a01b039283166004820152602481018690529051919092169163095ea7b39160448083019260209291908290030181600087803b158015611c7257600080fd5b505af1158015611c86573d6000803e3d6000fd5b505050506040513d6020811015611c9c57600080fd5b50515b611ca857600080fd5b611cb182612309565b600754611cc4908363ffffffff6128cb16565b6007556040805183815290517fc55e9a33fb8b1de5318b5c7b96a32937e54006c82000b2c468ed1fb9f73f67999181900360200190a15b6000821215611dff57611d1082600003612494565b600754611d2790600084900363ffffffff61292c16565b6007556003546001600160a01b031663a9059cbb611d43611e03565b846000036040518363ffffffff1660e01b815260040180836001600160a01b03166001600160a01b0316815260200182815260200192505050602060405180830381600087803b158015611d9657600080fd5b505af1158015611daa573d6000803e3d6000fd5b505050506040513d6020811015611dc057600080fd5b5051611dcb57600080fd5b6040805183815290517fc55e9a33fb8b1de5318b5c7b96a32937e54006c82000b2c468ed1fb9f73f67999181900360200190a15b5050565b6000546001600160a01b031690565b6000546001600160a01b0316331490565b60085461010090046001600160a01b031681565b600654670de0b6b3a764000067ffffffffffffffff909116919091020490565b6003546001600160a01b031681565b60006060600554604051908082528060200260200182016040528015611e96578160200160208202803883390190505b50905060005b600554811015611f70576002546000906001600160a01b031662fdd58e30611ec38561260b565b6040518363ffffffff1660e01b815260040180836001600160a01b03166001600160a01b031681526020018281526020019250505060206040518083038186803b158015611f1057600080fd5b505afa158015611f24573d6000803e3d6000fd5b505050506040513d6020811015611f3a57600080fd5b505160009081039150811315611f4f57600080fd5b80838381518110611f5c57fe5b602090810291909101015250600101611e9c565b50600073__Fixed192x64Math_______________________63137bf798600160401b84510260026040518363ffffffff1660e01b815260040180838152602001826002811115611fbc57fe5b60ff1681526020019250505060206040518083038186803b158015611fe057600080fd5b505af4158015611ff4573d6000803e3d6000fd5b505050506040513d602081101561200a57600080fd5b5051905060008061201e838588600261265a565b9250509150600160401b828161203057fe5b04818161203957fe5b049695505050505050565b60006001600160a01b038916301415612065575063bc197c8160e01b612069565b5060005b98975050505050505050565b60085460ff1681565b600e5481565b60075481565b60048181548110611a1d57fe5b60055481565b60065467ffffffffffffffff1681565b6120b5611e12565b6120f4576040805162461bcd60e51b81526020600482018190526024820152600080516020612ae1833981519152604482015290519081900360640190fd5b60018060085460ff16600281111561210857fe5b1461211257600080fd5b6006805467ffffffffffffffff191667ffffffffffffffff848116919091179182905560408051929091168252517f43acfe4f4a14c012959016586aee3b318a0a30e17bb8edae05a58d46c80b4199916020908290030190a15050565b60006001600160a01b038716301415612190575063f23a6e6160e01b612194565b5060005b9695505050505050565b6121a6611e12565b6121e5576040805162461bcd60e51b81526020600482018190526024820152600080516020612ae1833981519152604482015290519081900360640190fd5b6121ee81612989565b50565b600e5442038061220157506122c6565b600d5460005b818160ff1610156122be576040805163b20f8e7f60e01b815260ff831660048201529051600091309163b20f8e7f91602480820192602092909190829003018186803b15801561225657600080fd5b505afa15801561226a573d6000803e3d6000fd5b505050506040513d602081101561228057600080fd5b505190508061228f57506122b6565b838102600d8360ff16815481106122a257fe5b600091825260209091200180549091019055505b600101612207565b505042600e55505b565b670de0b6b3a764000081565b818101600082128015906122e85750828112155b806122fd57506000821280156122fd57508281125b61230357fe5b92915050565b600454600019015b60008112611dff57606061233b6009838154811061232b57fe5b9060005260206000200154612a29565b905060005b600a838154811061234d57fe5b60009182526020909120015481101561248957600254600354600a80546001600160a01b03938416936372ce4275931691908790811061238957fe5b90600052602060002001848154811061239e57fe5b9060005260206000200154600487815481106123b657fe5b906000526020600020015486896040518663ffffffff1660e01b815260040180866001600160a01b03166001600160a01b0316815260200185815260200184815260200180602001838152602001828103825284818151815260200191508051906020019060200280838360005b8381101561243c578181015183820152602001612424565b505050509050019650505050505050600060405180830381600087803b15801561246557600080fd5b505af1158015612479573d6000803e3d6000fd5b5050600190920191506123409050565b505060001901612311565b60005b600454811015611dff5760606124b36009838154811061232b57fe5b905060005b600a83815481106124c557fe5b60009182526020909120015481101561260157600254600354600a80546001600160a01b0393841693639e7212ad931691908790811061250157fe5b90600052602060002001848154811061251657fe5b90600052602060002001546004878154811061252e57fe5b906000526020600020015486896040518663ffffffff1660e01b815260040180866001600160a01b03166001600160a01b0316815260200185815260200184815260200180602001838152602001828103825284818151815260200191508051906020019060200280838360005b838110156125b457818101518382015260200161259c565b505050509050019650505050505050600060405180830381600087803b1580156125dd57600080fd5b505af11580156125f1573d6000803e3d6000fd5b5050600190920191506124b89050565b5050600101612497565b6000600b828154811061261a57fe5b90600052602060002001549050919050565b808203600082128015906126405750828113155b806122fd57506000821280156122fd575082811361230357fe5b60008060008087121580156126725750600060075412155b61267b57600080fd5b6040516333304e0560e21b815260206004820181815288516024840152885173__Fixed192x64Math_______________________9363ccc13814938b9392839260440191808601910280838360005b838110156126e25781810151838201526020016126ca565b505050509050019250505060206040518083038186803b15801561270557600080fd5b505af4158015612719573d6000803e3d6000fd5b505050506040513d602081101561272f57600080fd5b5051600754909250612747838963ffffffff61288a16565b8161274e57fe5b05915061276a8268b8000000000000000063ffffffff61262c16565b91506000805b87518160ff16101561287e5773__Fixed192x64Math_______________________631d5801236127da866007546127c68e8e8860ff16815181106127b057fe5b602002602001015161288a90919063ffffffff16565b816127cd57fe5b059063ffffffff61262c16565b886040518363ffffffff1660e01b81526004018083815260200182600281111561280057fe5b60ff1681526020019250505060206040518083038186803b15801561282457600080fd5b505af4158015612838573d6000803e3d6000fd5b505050506040513d602081101561284e57600080fd5b5051915060ff8181169088161415612864578192505b612874858363ffffffff6128cb16565b9450600101612770565b50509450945094915050565b60008261289957506000612303565b50818102600019831415806128b25750600160ff1b8214155b80156122fd5750818382816128c357fe5b051461230357fe5b600082820183811015612925576040805162461bcd60e51b815260206004820152601b60248201527f536166654d6174683a206164646974696f6e206f766572666c6f770000000000604482015290519081900360640190fd5b9392505050565b600082821115612983576040805162461bcd60e51b815260206004820152601e60248201527f536166654d6174683a207375627472616374696f6e206f766572666c6f770000604482015290519081900360640190fd5b50900390565b6001600160a01b0381166129ce5760405162461bcd60e51b8152600401808060200182810382526026815260200180612a8e6026913960400191505060405180910390fd5b600080546040516001600160a01b03808516939216917f8be0079c531659141344cd1fd0a4f28419497f9722a3daafe3b4186f6b6457e091a3600080546001600160a01b0319166001600160a01b0392909216919091179055565b606081604051908082528060200260200182016040528015612a55578160200160208202803883390190505b50905060005b82811015612a8757806001901b828281518110612a7457fe5b6020908102919091010152600101612a5b565b5091905056fe4f776e61626c653a206e6577206f776e657220697320746865207a65726f20616464726573736f6e6c792077686974656c6973746564207573657273206d61792063616c6c20746869732066756e6374696f6e4f776e61626c653a2063616c6c6572206973206e6f7420746865206f776e657254686973204d61726b65742068617320616c7265616479206265656e20636c6f736564a265627a7a72305820a1ba1b29bc95aee3c29f3ba9e39724240be5ad415c2914155a1b2eb05311d15564736f6c634300050a0032",
  "source": "// SPDX-License-Identifier: MIT\n//pragma solidity ^0.8.0;\n\nimport '@gnosis.pm/conditional-tokens-market-makers/contracts/LMSRMarketMaker.sol';\n\n\ncontract LMSRWithTWAP is LMSRMarketMaker {\n    uint256 public startTime;\n    // Cumulative probabilities over time: sum(prob[i](t) * dt) from startTime to now.\n    uint256[] public cumulativeProbabilities;\n    uint256 public lastUpdateTime;\n\n\n    /**\n     * @notice Updates the cumulativeProbabilities based on elapsed time and current probabilities.\n     */\n    function updateCumulativeTWAP() public {\n        uint256 elapsed = block.timestamp - lastUpdateTime;\n        if (elapsed == 0) {\n            return;\n        }\n\n        // Get current outcome probabilities from the LMSR.\n        uint256 length = cumulativeProbabilities.length;\n\n        // Accumulate probabilities * time\n        for (uint8 i = 0; i < length; i++) {\n            // Assuming calcMarginalPrice returns a normalized probability in [0, 1] scaled to 1e18 (for example).\n            // If not normalized, you might need to normalize them first.\n            // For now, assume they sum to 1e18 and represent probabilities as fixed-point numbers.\n            uint256 currentPrice = this.calcMarginalPrice(i);\n            if (currentPrice == 0) {\n                continue;\n            }\n            cumulativeProbabilities[i] += currentPrice * elapsed;\n        }\n\n        lastUpdateTime = block.timestamp;\n    }\n\n    /**\n     * @notice Trades on the LMSR and updates TWAP before doing so.\n     * @param outcomeTokenAmounts The outcome to buy/sell.\n     * @param collateralLimit The amount to buy (positive) or sell (negative).\n     */\n    function tradeWithTWAP(int[] memory outcomeTokenAmounts, int collateralLimit) public {\n        // Update TWAP before trade.\n        updateCumulativeTWAP();\n        require(outcomeTokenAmounts.length == cumulativeProbabilities.length, \"Mismatched array lengths\");\n\n\n        // Perform the trade on the LMSR using delegated call.\n        // Note: Make sure the caller has given allowances for collateral tokens or handle that logic externally.\n        this.trade(outcomeTokenAmounts, collateralLimit);\n        //bytes memory payload = abi.encodeWithSignature(\"trade(int256[],int256)\", outcomeTokenAmounts, collateralLimit);\n        //(bool success, ) = address(marketMaker).call(payload);\n        //require(success, \"Trade execution failed\");\n\n    }\n\n    /**\n     * @notice Returns the current TWAP probabilities over the entire period from startTime to now.\n     * This is cumulativeProb / totalElapsedTime.\n     * @dev If needed, you can call updateCumulativeTWAP() first to get fresh values.\n     */\n    function getTWAP() external view returns (uint256[] memory) {\n        uint256 totalTime = block.timestamp - startTime;\n        if (totalTime == 0) {\n            return cumulativeProbabilities;\n        }\n        uint256 length = cumulativeProbabilities.length;\n        uint256[] memory twap = new uint256[](length);\n\n        // To get the freshest TWAP, you'd need to incorporate the current probabilities\n        // since lastUpdateTime. For a read-only approximation, let's just return what is stored.\n        // If you want exact up-to-the-second TWAP, you'd replicate the logic in updateCumulativeTWAP()\n        // off-chain or implement a view function that simulates it.\n        //uint256[] memory currentPrices = marketMaker.calcMarginalPrice();\n        uint256 elapsed = block.timestamp - lastUpdateTime;\n\n        for (uint8 i = 0; i < length; i++) {\n            uint256 currentPrice = this.calcMarginalPrice(i);\n            uint256 adjustedCumulative = cumulativeProbabilities[i] + currentPrice * elapsed;\n            twap[i] = adjustedCumulative / totalTime;\n        }\n        return twap;\n    }\n}\n",
  "sourcePath": "/Users/jrs/MoonDAO/prediction/contracts/LMSRWithTWAP.sol",
  "compiler": {
    "name": "solc",
    "version": "0.5.10+commit.5a6ea5b1.Emscripten.clang"
  },
  "schemaVersion": "3.4.16",
  "updatedAt": "2025-01-15T19:55:24.872Z",
  "networkType": "ethereum",
  "devdoc": {
    "methods": {
      "calcMarginalPrice(uint8)": {
        "details": "Returns marginal price of an outcome",
        "params": {
          "outcomeTokenIndex": "Index of outcome to determine marginal price of"
        },
        "return": "Marginal price of an outcome as a fixed point number"
      },
      "calcMarketFee(uint256)": {
        "details": "Calculates fee to be paid to market maker",
        "params": {
          "outcomeTokenCost": "Cost for buying outcome tokens"
        },
        "return": "Fee for trade"
      },
      "calcNetCost(int256[])": {
        "details": "Calculates the net cost for executing a given trade.",
        "params": {
          "outcomeTokenAmounts": "Amounts of outcome tokens to buy from the market. If an amount is negative, represents an amount to sell to the market."
        },
        "return": "Net cost of trade. If positive, represents amount of collateral which would be paid to the market for the trade. If negative, represents amount of collateral which would be received from the market for the trade."
      },
      "changeFunding(int256)": {
        "details": "Allows to fund the market with collateral tokens converting them into outcome tokens Note for the future: should combine splitPosition and mergePositions into one function, as code duplication causes things like this to happen."
      },
      "close()": {
        "details": "Allows market owner to close the markets by transferring all remaining outcome tokens to the owner"
      },
      "getTWAP()": {
        "details": "If needed, you can call updateCumulativeTWAP() first to get fresh values."
      },
      "isOwner()": {
        "details": "Returns true if the caller is the current owner."
      },
      "owner()": {
        "details": "Returns the address of the current owner."
      },
      "renounceOwnership()": {
        "details": "Leaves the contract without owner. It will not be possible to call `onlyOwner` functions anymore. Can only be called by the current owner.     * > Note: Renouncing ownership will leave the contract without an owner, thereby removing any functionality that is only available to the owner."
      },
      "supportsInterface(bytes4)": {
        "details": "See `IERC165.supportsInterface`.     * Time complexity O(1), guaranteed to always use less than 30 000 gas."
      },
      "trade(int256[],int256)": {
        "details": "Allows to trade outcome tokens and collateral with the market maker",
        "params": {
          "collateralLimit": "If positive, this is the limit for the amount of collateral tokens which will be sent to the market to conduct the trade. If negative, this is the minimum amount of collateral tokens which will be received from the market for the trade. If zero, there is no limit.",
          "outcomeTokenAmounts": "Amounts of each atomic outcome token to buy or sell. If positive, will buy this amount of outcome token from the market. If negative, will sell this amount back to the market instead. The indices of this array range from 0 to product(all conditions' outcomeSlotCounts)-1. For example, with two conditions with three outcome slots each and one condition with two outcome slots, you will have 3*3*2=18 total atomic outcome tokens, and the indices will range from 0 to 17. The indices map to atomic outcome slots depending on the order of the conditionIds. Let's say the first condition has slots A, B, C the second has slots X, Y, and the third has slots I, J, K. We can associate each atomic outcome token with indices by this map: A&X&I == 0 B&X&I == 1 C&X&I == 2 A&Y&I == 3 B&Y&I == 4 C&Y&I == 5 A&X&J == 6 B&X&J == 7 C&X&J == 8 A&Y&J == 9 B&Y&J == 10 C&Y&J == 11 A&X&K == 12 B&X&K == 13 C&X&K == 14 A&Y&K == 15 B&Y&K == 16 C&Y&K == 17 This order is calculated via the generateAtomicPositionId function below: C&Y&I -> (2, 1, 0) -> 2 + 3 * (1 + 2 * (0 + 3 * (0 + 0)))"
        },
        "return": "If positive, the amount of collateral sent to the market. If negative, the amount of collateral received from the market. If zero, no collateral was sent or received."
      },
      "tradeWithTWAP(int256[],int256)": {
        "params": {
          "collateralLimit": "The amount to buy (positive) or sell (negative).",
          "outcomeTokenAmounts": "The outcome to buy/sell."
        }
      },
      "transferOwnership(address)": {
        "details": "Transfers ownership of the contract to a new account (`newOwner`). Can only be called by the current owner."
      },
      "withdrawFees()": {
        "details": "Allows market owner to withdraw fees generated by trades",
        "return": "Fee amount"
      }
    }
  },
  "userdoc": {
    "methods": {
      "getTWAP()": {
        "notice": "Returns the current TWAP probabilities over the entire period from startTime to now. This is cumulativeProb / totalElapsedTime."
      },
      "tradeWithTWAP(int256[],int256)": {
        "notice": "Trades on the LMSR and updates TWAP before doing so."
      },
      "updateCumulativeTWAP()": {
        "notice": "Updates the cumulativeProbabilities based on elapsed time and current probabilities."
      }
    }
  }
}