{"abi":[{"type":"constructor","inputs":[{"name":"_marketMaker","type":"address","internalType":"address"}],"stateMutability":"nonpayable"},{"type":"function","name":"cumulativeProbabilities","inputs":[{"name":"","type":"uint256","internalType":"uint256"}],"outputs":[{"name":"","type":"uint256","internalType":"uint256"}],"stateMutability":"view"},{"type":"function","name":"getTWAP","inputs":[],"outputs":[{"name":"","type":"uint256[]","internalType":"uint256[]"}],"stateMutability":"view"},{"type":"function","name":"lastUpdateTime","inputs":[],"outputs":[{"name":"","type":"uint256","internalType":"uint256"}],"stateMutability":"view"},{"type":"function","name":"marketMaker","inputs":[],"outputs":[{"name":"","type":"address","internalType":"contract ILMSRMarketMaker"}],"stateMutability":"view"},{"type":"function","name":"startTime","inputs":[],"outputs":[{"name":"","type":"uint256","internalType":"uint256"}],"stateMutability":"view"},{"type":"function","name":"trade","inputs":[{"name":"outcomeTokenAmounts","type":"int256[]","internalType":"int256[]"},{"name":"collateralLimit","type":"int256","internalType":"int256"}],"outputs":[],"stateMutability":"nonpayable"}],"bytecode":{"object":"0x608080604052346101b5576020816107dc803803809161001f82856101ba565b8339810103126101b557516001600160a01b038116908190036101b557600080546001600160a01b03191682179055604051636ec1dd6960e11b815290602090829060049082905afa9081156101a957600091610174575b5061009a610084826101dd565b9161009260405193846101ba565b8083526101dd565b602082019190601f190136833751906001600160401b03821161015e5768010000000000000000821161015e5760025482600255808310610118575b5090600260005260206000209160005b8281106101045742600155426003556040516105e790816101f58239f35b6001906020835193019281860155016100e6565b60026000527f405787fa12a823e0f2b7631cc41b3ba8828b3321ca811111fa75cd3aa3bb5ace9081019083015b81811061015257506100d6565b60008155600101610145565b634e487b7160e01b600052604160045260246000fd5b906020823d6020116101a1575b8161018e602093836101ba565b8101031261019e57505138610077565b80fd5b3d9150610181565b6040513d6000823e3d90fd5b600080fd5b601f909101601f19168101906001600160401b0382119082101761015e57604052565b6001600160401b03811161015e5760051b6020019056fe6080604052600436101561001257600080fd5b60003560e01c806305ecd0031461023457806315bd7611146101005780631f21f9af146100d757806378e97925146100b957806378f5af2b146100815763c8f33c911461005e57600080fd5b3461007c57600036600319011261007c576020600354604051908152f35b600080fd5b3461007c57602036600319011261007c5760043560025481101561007c576100aa6020916103ef565b90549060031b1c604051908152f35b3461007c57600036600319011261007c576020600154604051908152f35b3461007c57600036600319011261007c576000546040516001600160a01b039091168152602090f35b3461007c57604036600319011261007c5760043567ffffffffffffffff811161007c573660238201121561007c57806004013561013c816103d7565b9161014a604051938461039f565b818352602083016024819360051b8301019136831161007c57602401905b8282106102245783856101796104f1565b60018060a01b0360005416906040519283916315bd761160e01b83526044830190604060048501525180915260648301919060005b81811061020b575050509181600081602095602435602483015203925af180156101ff576101d857005b602090813d83116101f8575b6101ee818361039f565b8101031261007c57005b503d6101e4565b6040513d6000823e3d90fd5b82518452869450602093840193909201916001016101ae565b8135815260209182019101610168565b3461007c57600036600319011261007c5761025160015442610420565b6002549061025e826103d7565b9161026c604051938461039f565b808352600461027a826103d7565b602085019390601f190136853760008054604051631b31888160e31b815293849182906001600160a01b03165afa9182156101ff5760009261037a575b506102c760039392935442610420565b8115939060005b84811061031a5786886040519182916020830190602084525180915260408301919060005b818110610301575050500390f35b82518452859450602093840193909201916001016102f3565b8061034961032888936103ef565b90549060031b1c6103438561033d85896104bd565b516104d1565b906104e4565b9161036457846001920461035d828b6104bd565b52016102ce565b634e487b7160e01b600052601260045260246000fd5b6103989192503d806000833e610390818361039f565b810190610443565b90856102b7565b90601f8019910116810190811067ffffffffffffffff8211176103c157604052565b634e487b7160e01b600052604160045260246000fd5b67ffffffffffffffff81116103c15760051b60200190565b60025481101561040a57600260005260206000200190600090565b634e487b7160e01b600052603260045260246000fd5b9190820391821161042d57565b634e487b7160e01b600052601160045260246000fd5b60208183031261007c5780519067ffffffffffffffff821161007c57019080601f8301121561007c578151610477816103d7565b92610485604051948561039f565b81845260208085019260051b82010192831161007c57602001905b8282106104ad5750505090565b81518152602091820191016104a0565b805182101561040a5760209160051b010190565b8181029291811591840414171561042d57565b9190820180921161042d57565b6104fd60035442610420565b80156105ae5760008054604051631b31888160e31b8152929190839060049082906001600160a01b03165afa9182156101ff57600092610591575b5081519160005b838110610550575050505042600355565b806105618461033d600194866104bd565b61056a826103ef565b61057e829392549160031b9282841c6104e4565b821b91600019901b19161790550161053f565b6105a79192503d806000833e610390818361039f565b9038610538565b5056fea2646970667358221220cfa714969e0e322f7b999dfe9331ddef30be6d513c7dbddb72614b16d0aa392a64736f6c634300081b0033","linkReferences":{}},"methodIdentifiers":{"cumulativeProbabilities(uint256)":"78f5af2b","getTWAP()":"05ecd003","lastUpdateTime()":"c8f33c91","marketMaker()":"1f21f9af","startTime()":"78e97925","trade(int256[],int256)":"15bd7611"},"id":76}