{"abi":[{"type":"constructor","inputs":[{"name":"_jbController","type":"address","internalType":"address"},{"name":"_jbMultiTerminal","type":"address","internalType":"address"},{"name":"_jbProjects","type":"address","internalType":"address"},{"name":"_jbTerminalStore","type":"address","internalType":"address"},{"name":"_jbRulesets","type":"address","internalType":"address"},{"name":"_moonDAOTeam","type":"address","internalType":"address"},{"name":"_missionTable","type":"address","internalType":"address"},{"name":"_moonDAOTreasury","type":"address","internalType":"address"},{"name":"_feeHookAddress","type":"address","internalType":"address"},{"name":"_positionManagerAddress","type":"address","internalType":"address"}],"stateMutability":"nonpayable"},{"type":"function","name":"createMission","inputs":[{"name":"teamId","type":"uint256","internalType":"uint256"},{"name":"to","type":"address","internalType":"address"},{"name":"projectUri","type":"string","internalType":"string"},{"name":"fundingGoal","type":"uint256","internalType":"uint256"},{"name":"deadline","type":"uint256","internalType":"uint256"},{"name":"refundPeriod","type":"uint256","internalType":"uint256"},{"name":"token","type":"bool","internalType":"bool"},{"name":"tokenName","type":"string","internalType":"string"},{"name":"tokenSymbol","type":"string","internalType":"string"},{"name":"memo","type":"string","internalType":"string"}],"outputs":[{"name":"","type":"uint256","internalType":"uint256"}],"stateMutability":"nonpayable"},{"type":"function","name":"feeHookAddress","inputs":[],"outputs":[{"name":"","type":"address","internalType":"address"}],"stateMutability":"view"},{"type":"function","name":"jbController","inputs":[],"outputs":[{"name":"","type":"address","internalType":"contract IJBController"}],"stateMutability":"view"},{"type":"function","name":"jbMultiTerminalAddress","inputs":[],"outputs":[{"name":"","type":"address","internalType":"address"}],"stateMutability":"view"},{"type":"function","name":"jbProjects","inputs":[],"outputs":[{"name":"","type":"address","internalType":"contract IJBProjects"}],"stateMutability":"view"},{"type":"function","name":"jbRulesetsAddress","inputs":[],"outputs":[{"name":"","type":"address","internalType":"address"}],"stateMutability":"view"},{"type":"function","name":"jbTerminalStoreAddress","inputs":[],"outputs":[{"name":"","type":"address","internalType":"address"}],"stateMutability":"view"},{"type":"function","name":"missionIdToFundingGoal","inputs":[{"name":"","type":"uint256","internalType":"uint256"}],"outputs":[{"name":"","type":"uint256","internalType":"uint256"}],"stateMutability":"view"},{"type":"function","name":"missionIdToMoonDAOVesting","inputs":[{"name":"","type":"uint256","internalType":"uint256"}],"outputs":[{"name":"","type":"address","internalType":"address"}],"stateMutability":"view"},{"type":"function","name":"missionIdToPayHook","inputs":[{"name":"","type":"uint256","internalType":"uint256"}],"outputs":[{"name":"","type":"address","internalType":"address"}],"stateMutability":"view"},{"type":"function","name":"missionIdToPoolDeployer","inputs":[{"name":"","type":"uint256","internalType":"uint256"}],"outputs":[{"name":"","type":"address","internalType":"address"}],"stateMutability":"view"},{"type":"function","name":"missionIdToProjectId","inputs":[{"name":"","type":"uint256","internalType":"uint256"}],"outputs":[{"name":"","type":"uint256","internalType":"uint256"}],"stateMutability":"view"},{"type":"function","name":"missionIdToTeamVesting","inputs":[{"name":"","type":"uint256","internalType":"uint256"}],"outputs":[{"name":"","type":"address","internalType":"address"}],"stateMutability":"view"},{"type":"function","name":"missionIdToTerminal","inputs":[{"name":"","type":"uint256","internalType":"uint256"}],"outputs":[{"name":"","type":"address","internalType":"address"}],"stateMutability":"view"},{"type":"function","name":"missionTable","inputs":[],"outputs":[{"name":"","type":"address","internalType":"contract MissionTable"}],"stateMutability":"view"},{"type":"function","name":"moonDAOTeam","inputs":[],"outputs":[{"name":"","type":"address","internalType":"contract MoonDAOTeam"}],"stateMutability":"view"},{"type":"function","name":"moonDAOTreasury","inputs":[],"outputs":[{"name":"","type":"address","internalType":"address"}],"stateMutability":"view"},{"type":"function","name":"onERC721Received","inputs":[{"name":"","type":"address","internalType":"address"},{"name":"","type":"address","internalType":"address"},{"name":"","type":"uint256","internalType":"uint256"},{"name":"","type":"bytes","internalType":"bytes"}],"outputs":[{"name":"","type":"bytes4","internalType":"bytes4"}],"stateMutability":"nonpayable"},{"type":"function","name":"owner","inputs":[],"outputs":[{"name":"","type":"address","internalType":"address"}],"stateMutability":"view"},{"type":"function","name":"renounceOwnership","inputs":[],"outputs":[],"stateMutability":"nonpayable"},{"type":"function","name":"setFeeHookAddress","inputs":[{"name":"_feeHookAddress","type":"address","internalType":"address"}],"outputs":[],"stateMutability":"nonpayable"},{"type":"function","name":"setJBController","inputs":[{"name":"_jbController","type":"address","internalType":"address"}],"outputs":[],"stateMutability":"nonpayable"},{"type":"function","name":"setJBMultiTerminal","inputs":[{"name":"_jbMultiTerminal","type":"address","internalType":"address"}],"outputs":[],"stateMutability":"nonpayable"},{"type":"function","name":"setJBProjects","inputs":[{"name":"_jbProjects","type":"address","internalType":"address"}],"outputs":[],"stateMutability":"nonpayable"},{"type":"function","name":"setMissionTable","inputs":[{"name":"_missionTable","type":"address","internalType":"address"}],"outputs":[],"stateMutability":"nonpayable"},{"type":"function","name":"setMoonDAOTeam","inputs":[{"name":"_moonDAOTeam","type":"address","internalType":"address"}],"outputs":[],"stateMutability":"nonpayable"},{"type":"function","name":"setMoonDAOTreasury","inputs":[{"name":"_moonDAOTreasury","type":"address","internalType":"address"}],"outputs":[],"stateMutability":"nonpayable"},{"type":"function","name":"stage","inputs":[{"name":"missionId","type":"uint256","internalType":"uint256"}],"outputs":[{"name":"","type":"uint256","internalType":"uint256"}],"stateMutability":"view"},{"type":"function","name":"transferOwnership","inputs":[{"name":"newOwner","type":"address","internalType":"address"}],"outputs":[],"stateMutability":"nonpayable"},{"type":"event","name":"MissionCreated","inputs":[{"name":"id","type":"uint256","indexed":true,"internalType":"uint256"},{"name":"teamId","type":"uint256","indexed":true,"internalType":"uint256"},{"name":"projectId","type":"uint256","indexed":true,"internalType":"uint256"},{"name":"tokenAddress","type":"address","indexed":false,"internalType":"address"},{"name":"fundingGoal","type":"uint256","indexed":false,"internalType":"uint256"}],"anonymous":false},{"type":"event","name":"OwnershipTransferred","inputs":[{"name":"previousOwner","type":"address","indexed":true,"internalType":"address"},{"name":"newOwner","type":"address","indexed":true,"internalType":"address"}],"anonymous":false},{"type":"error","name":"OwnableInvalidOwner","inputs":[{"name":"owner","type":"address","internalType":"address"}]},{"type":"error","name":"OwnableUnauthorizedAccount","inputs":[{"name":"account","type":"address","internalType":"address"}]}],"bytecode":{"object":"0x6080346101da57601f6154b438819003918201601f19168301916001600160401b038311848410176101de57808492610140946040528339810103126101da57610048816101f2565b90610055602082016101f2565b90610062604082016101f2565b9161006f606083016101f2565b61007b608084016101f2565b61008760a085016101f2565b9061009460c086016101f2565b926100a160e087016101f2565b946100bc6101206100b56101008a016101f2565b98016101f2565b9733156101c7575f8054336001600160a01b03198216811783556040519c9290916001600160a01b0316907f8be0079c531659141344cd1fd0a4f28419497f9722a3daafe3b4186f6b6457e09080a3600180546001600160a01b03199081166001600160a01b03938416179091556002805482169383169390931790925560038054831693821693909317909255600480548216938316939093179092556005805483169382169390931790925560068054821693831693909317909255600780548316938216939093179092556008805482169383169390931790925560098054831693821693909317909255600a8054909116929091169190911790556152ad90816102078239f35b631e4fbdf760e01b5f525f60045260245ffd5b5f80fd5b634e487b7160e01b5f52604160045260245ffd5b51906001600160a01b03821682036101da5756fe610320806040526004361015610013575f80fd5b5f610260525f3560e01c9081630dd4c16014611eb757508063150b7a0214611e015780631c46dee714611ddb5780633198044414611db55780633661627414611d765780633fca43a714611d4357806344724b3a14611d0457806347011de214611cde57806354d9eef614611c1157806357dd7f2f14611bd2578063696c2ce314611b93578063715018a614611b3c5780637f66902214611b16578063818b25fe14611ae35780638999c66914611ab05780638da5cb5b14611a8b5780638dee31ab14611a61578063944d15ac14611a3b57806394e0ffa0146103f3578063acd15f13146103ca578063ba7a36e5146103a1578063bcef80f014610378578063bf2521381461034f578063c97747d91461030a578063ca068420146102da578063ca9942e914610295578063cccfec111461025c578063dca2d057146102175763f2fde38b14610161575f80fd5b34610210576020600319360112610210576001600160a01b03610182611ee6565b61018a612238565b1680156101db576102605180546001600160a01b03198116831782556001600160a01b0316907f8be0079c531659141344cd1fd0a4f28419497f9722a3daafe3b4186f6b6457e09080a36102605180f35b7f1e4fbdf700000000000000000000000000000000000000000000000000000000610260515261026051600452602461026051fd5b6102605180fd5b34610210576020600319360112610210576001600160a01b03610238611ee6565b610240612238565b166001600160a01b031960095416176009556102605161026051f35b34610210576020600319360112610210576004356102605152600d60205260206001600160a01b03604061026051205416604051908152f35b34610210576020600319360112610210576001600160a01b036102b6611ee6565b6102be612238565b166001600160a01b031960015416176001556102605161026051f35b34610210576020600319360112610210576004356102605152600b60205260206040610260512054604051908152f35b34610210576020600319360112610210576001600160a01b0361032b611ee6565b610333612238565b166001600160a01b031960075416176007556102605161026051f35b3461021057610260516003193601126102105760206001600160a01b0360035416604051908152f35b3461021057610260516003193601126102105760206001600160a01b0360055416604051908152f35b3461021057610260516003193601126102105760206001600160a01b0360085416604051908152f35b3461021057610260516003193601126102105760206001600160a01b0360075416604051908152f35b346111d4576101406003193601126111d45761040d611efc565b6103005260443567ffffffffffffffff81116111d457610431903690600401611fdf565b906102c05260c435151560c435036111d45760e43567ffffffffffffffff81116111d457610463903690600401611fdf565b61014052610160526101043567ffffffffffffffff81116111d45761048c903690600401611fdf565b61028052610120526101243567ffffffffffffffff81116111d4576104b5903690600401611fdf565b60c05260a052608435906001600160a01b035f541633036118f9575b6001600160a01b03600854166102e0526001600160a01b0360035416610240526040516106ea8082019180831067ffffffffffffffff8411176118c257602081614bc394848683396102e05181520301905ff06101c0526101c051156118b7576040519181830183811067ffffffffffffffff8211176118c257602092849283396001600160a01b03610300511681520301905ff09182156118b7576001600160a01b03600954166001600160a01b03600a5416906001600160a01b035f54166040519261147a918285019185831067ffffffffffffffff8411176118c257606094869461374986398352602083015260408201520301905ff06102005261020051156118b75762aa36a746036118d6575b6001600160a01b03600454166001600160a01b03600554169060405191610ede908184019084821067ffffffffffffffff8311176118c25760c093859361286b8539606435835286602084015260a4356040840152606083015260808201526001600160a01b03610300511660a08201520301905ff06101805261018051156118b7576001600160a01b036004541690604051916105f3908184019084821067ffffffffffffffff8311176118c25760a093859361227885396064358352602083015260a435604083015260608201526102405160808201520301905ff080156118b757606060808190526040516102a08190526106e19190611fbc565b60026102a051525f5b601f196080510181106117e357506040519061070860805183611fbc565b600282525f5b601f196080510181106117cc5750610c7f92936001600160a01b039160405161073681611f2f565b61138881525f602082015261eeee60408201525f6080518201525f60808201525f60a08201525f60c08201525f60e08201525f6101008201525f6101208201525f6101408201525f6101608201525f6101808201525f6101a08201525f6101c082015260016101e082015260016102008201528361018051166102208201525f6102408201526107c4612026565b9084604051936107d385611f12565b5f85525f6020860152686c6b935b8bbd40000060408601525f60805186015216608084015260a08301528460c083015260e08201526108146102a05161207f565b526108216102a05161207f565b5060405161082e81611f2f565b61138881525f602082015261eeee60408201525f6080518201525f60808201525f60a08201525f60c08201525f60e08201525f6101008201525f6101208201525f6101408201525f6101608201525f6101808201525f6101a08201525f6101c082015260016101e082015260016102008201528261018051166102208201525f6102408201526108bc612026565b604051916108c983611f12565b5f83525f6020840152686c6b935b8bbd40000060408401525f6080518401525f608084015260a08301528460c083015260e082015261090a6102a0516120a0565b526109176102a0516120a0565b50610a286109236120c0565b60405161092f81611f4c565b6a69e10de76676d080000000815261eeee602082015261094e8261207f565b526109588161207f565b506109eb6109646120c0565b9160405161097181611f4c565b6a69e10de76676d080000000815261eeee60208201526109908461207f565b5261099a8361207f565b506109a361210c565b90604051916109b183611f68565b61024051835261eeee6020840152604083015260805182015260e06109d86102a05161207f565b510151906109e58261207f565b5261207f565b506109f461210c565b60405191610a0183611f68565b61024051835261eeee6020840152604083015260805182015260e06109d86102a0516120a0565b50610a31612151565b60405190610a3e82611f4c565b61eeee82526020820152610a518461207f565b52610a5b8361207f565b50610aa5604051610a6b81611f84565b630187404181525f60208201526102e05160408201525f60805182015265ffffffffffff60808201525f60a082015260206109d88661207f565b50610b04604051610ab581611f84565b63030e808381525f602082015283610200511660408201525f60805182015265ffffffffffff60808201525f60a08201526020610af18661207f565b51015190610afe826120a0565b526120a0565b50610b63604051610b1481611f84565b633705093b81525f602082015283610300511660408201525f60805182015265ffffffffffff60808201525f60a08201526020610b508661207f565b51015190610b5d826120b0565b526120b0565b50610b6c612151565b60405190610b7982611f4c565b600182526020820152610b8b846120a0565b52610b95836120a0565b50610be1604051610ba581611f84565b6311e1a30081525f6020820152836101c0511660408201525f60805182015265ffffffffffff60808201525f60a082015260206109d8866120a0565b50166101a052610c30604051610bf681611f84565b6323c3460081525f60208201526101a05160408201525f60805182015265ffffffffffff60808201525f60a08201526020610af1846120a0565b506020610b5060405192610c4384611f84565b6305f5e10084525f838501526001600160a01b03610200511660408501525f60805185015265ffffffffffff60808501525f60a08501526120a0565b506040610220819052805160e0819052610c999190611fbc565b600160e051525f5b601f19610220510181106117b35750610220515190610cc36102205183611fbc565b600182525f5b601f196102205101811061178657506102205151610da592610cea82611f4c565b6102405182526020820152610d0060e05161207f565b52610d0c60e05161207f565b50610d416102205151610d1e81611fa0565b61eeee81526012602082015261eeee6102205182015260206109d860e05161207f565b506001600160a01b03600154166101005261022051516101e0527f5c7465e5000000000000000000000000000000000000000000000000000000006101e051523060046101e051015260a060246101e051015260a46101e05101906102c0516121b5565b6003196101e05182030160446101e05101526102a05151808252602082019060208160051b8401019260206102a05101925f915b83831061142757856003196101e05182030160646101e051015260e0515190818152602081019160208160051b83010191602060e05101935f915b838310611386576020856003196101e05182030160846101e05101526101e05190610e486101e0519160c05160a0516121b5565b036101e0515f610100515af18015611256575f9061134c575b5f60c435611263575b6001600160a01b036101c051163b156111d457610220515163144fa6d760e01b81526001600160a01b038216908160048201525f81602481836001600160a01b036101c051165af1801561125657611241575b506101a0513b1561021057610220515163144fa6d760e01b81528160048201526102605181602481610260516101a0515af180156111e057611226575b506001600160a01b0361020051163b156102105761022051519063144fa6d760e01b825260048201526102605181602481610260516001600160a01b0361020051165af180156111e05761120b575b506001600160a01b0360025416803b15610210576102205151907f42842e0e0000000000000000000000000000000000000000000000000000000082523060048301526001600160a01b036103005116602483015283604483015281606481610260519361026051905af180156111e0576111f0575b5060649160206001600160a01b03600754166102205151948580927f27c4091e00000000000000000000000000000000000000000000000000000000825260043560048301528560248301528235604483015261026051905af19182156111e05761026051926111a7575b60209350826102605152600b84528161022051610260512055826102605152600c84526102205161026051206001600160a01b03806101805116166001600160a01b0319825416179055826102605152600d84526102205161026051206001600160a01b036101a051166001600160a01b0319825416179055826102605152600e84526102205161026051206001600160a01b03806101c05116166001600160a01b0319825416179055826102605152600f84526102205161026051206001600160a01b03806102005116166001600160a01b03198254161790558261026051526010845260643561022051610260512055826102605152601184526102205161026051206001600160a01b0361024051166001600160a01b0319825416179055827fcea68db01ad1c37980127f550eb20a8c9b3b00a0b6fe7ded1025294d8140090061022051518061119a600435956064359083602090939291936001600160a01b0360408201951681520152565b0390a46102205151908152f35b91506020833d6020116111d8575b816111c260209383611fbc565b810103126111d457602092519161102a565b5f80fd5b3d91506111b5565b61022051513d61026051823e3d90fd5b610260516111fd91611fbc565b610260516102105782610fbf565b6102605161121891611fbc565b610260516102105782610f49565b6102605161123391611fbc565b610260516102105783610efa565b5f61124b91611fbc565b5f6102605283610ebd565b61022051513d5f823e3d90fd5b506001600160a01b03600154166020610220515180927f5817819100000000000000000000000000000000000000000000000000000000825284600483015260806024830152815f816112dc6112c36084830161014051610160516121b5565b60031983820301604484015261028051610120516121b5565b82606483015203925af18015611256575f90611303575b6001600160a01b03915016610e6a565b506020813d602011611344575b8161131d60209383611fbc565b810103126111d457516001600160a01b03811681036111d4576001600160a01b03906112f3565b3d9150611310565b5060203d60201161137f575b806113686020926101e051611fbc565b6101e05190810103126111d4576101e05151610e61565b503d611358565b90919293601f198282030183528551602080610220518401926001600160a01b03815116855201519261022051828201528351809352608051019201905f905b8082106113e457505050602095860195909493600101920190610e14565b909192602060019163ffffffff86516001600160a01b03815116835260ff84820151168484015261022051015116610220518201526080510194019201906113c6565b9091929394601f19828203018352855161034082019065ffffffffffff815116835263ffffffff60208201511660208401526dffffffffffffffffffffffffffff61022051820151166102205184015263ffffffff608051820151166080518401526001600160a01b03608082015116608084015261ffff61024060a08301518281511660a08701528260208201511660c087015263ffffffff610220518201511660e087015260805181015115156101008701526080810151151561012087015260a0810151151561014087015260c0810151151561016087015260e0810151151561018087015261010081015115156101a087015261012081015115156101c087015261014081015115156101e0870152610160810151151561020087015261018081015115156102208701526101a08101511515828701526101c081015115156102608701526101e0810151151561028087015261020081015115156102a08701526001600160a01b03610220820151166102c08701520151166102e084015260c0810151916103406103008501528251809152610360840160206103608360051b8701019401915f5b81811061169e575050505060e0015191610320818303910152815180825260208201906020808260051b8501019401925f5b82811061162757505050505060208060019297019301930191939290610dd9565b909192939460208061169183601f1987600196030189528951906001600160a01b0382511681526001600160a01b0384830151168482015261167c6102205183015160806102205184015260808301906121d5565b916080510151908083039060805101526121d5565b9701950193929101611606565b909192947ffffffffffffffffffffffffffffffffffffffffffffffffffffffffffffffca08782030184528551602080610220518401928051855201519261022051828201528351809352608051019201905f905b808210611711575050506020806001929701940191019190916115d4565b909192602060c06001926001600160a01b0360a0885163ffffffff815116845267ffffffffffffffff86820151168685015282610220518201511661022051850152608051810151151560805185015265ffffffffffff608082015116608085015201511660a08201520194019201906116f3565b602090610220515161179781611fa0565b5f81525f838201525f6102205182015282828601015201610cc9565b6020906117be61200d565b828260e05101015201610ca1565b6020906117d761200d565b8282860101520161070e565b6020906040516117f281611f12565b5f81525f838201525f60408201525f6080518201525f608082015260405161181981611f2f565b5f81525f848201525f60408201525f6080518201525f60808201525f60a08201525f60c08201525f60e08201525f6101008201525f6101208201525f6101408201525f6101608201525f6101808201525f6101a08201525f6101c08201525f6101e08201525f6102008201525f6102208201525f61024082015260a082015260805160c082015260805160e082015282826102a051010152016106ea565b6040513d5f823e3d90fd5b634e487b7160e01b5f52604160045260245ffd5b506224ea004201804211156105e357634e487b7160e01b5f52601160045260245ffd5b604460206001600160a01b0360065416604051928380927f773ed13c00000000000000000000000000000000000000000000000000000000825260043560048301523360248301525afa9081156118b7575f91611a00575b506104d15760a46040517f08c379a000000000000000000000000000000000000000000000000000000000815260206004820152604960248201527f4f6e6c792061206d616e61676572206f6620746865207465616d206f72206f7760448201527f6e6572206f662074686520636f6e74726163742063616e20637265617465206160648201527f206d697373696f6e2e00000000000000000000000000000000000000000000006084820152fd5b90506020813d602011611a33575b81611a1b60209383611fbc565b810103126111d4575180151581036111d45783611951565b3d9150611a0e565b346111d4575f6003193601126111d45760206001600160a01b0360045416604051908152f35b346111d45760206003193601126111d4576004355f526010602052602060405f2054604051908152f35b346111d4575f6003193601126111d45760206001600160a01b035f5416604051908152f35b346111d45760206003193601126111d4576004355f52600c60205260206001600160a01b0360405f205416604051908152f35b346111d45760206003193601126111d4576004355f52600e60205260206001600160a01b0360405f205416604051908152f35b346111d4575f6003193601126111d45760206001600160a01b0360065416604051908152f35b346111d4575f6003193601126111d457611b54612238565b5f6001600160a01b0381546001600160a01b031981168355167f8be0079c531659141344cd1fd0a4f28419497f9722a3daafe3b4186f6b6457e08280a3005b346111d45760206003193601126111d4576001600160a01b03611bb4611ee6565b611bbc612238565b166001600160a01b031960025416176002555f80f35b346111d45760206003193601126111d4576001600160a01b03611bf3611ee6565b611bfb612238565b166001600160a01b031960085416176008555f80f35b346111d45760206003193601126111d457600480355f908152600c60209081526040808320546011835281842054600b8452938290205491517febb2666f0000000000000000000000000000000000000000000000000000000081526001600160a01b03948516958101959095526024850191909152909183916044918391165afa80156118b7575f90611cab575b602090604051908152f35b506020813d602011611cd6575b81611cc560209383611fbc565b810103126111d45760209051611ca0565b3d9150611cb8565b346111d4575f6003193601126111d45760206001600160a01b0360095416604051908152f35b346111d45760206003193601126111d4576001600160a01b03611d25611ee6565b611d2d612238565b166001600160a01b031960035416176003555f80f35b346111d45760206003193601126111d4576004355f52600f60205260206001600160a01b0360405f205416604051908152f35b346111d45760206003193601126111d4576001600160a01b03611d97611ee6565b611d9f612238565b166001600160a01b031960065416176006555f80f35b346111d4575f6003193601126111d45760206001600160a01b0360025416604051908152f35b346111d4575f6003193601126111d45760206001600160a01b0360015416604051908152f35b346111d45760806003193601126111d457611e1a611ee6565b50611e23611efc565b5060643567ffffffffffffffff81116111d457366023820112156111d45780600401359067ffffffffffffffff82116118c25760405191611e6e6020601f19601f8401160184611fbc565b80835236602482840101116111d4575f92816024602094018483013701015260206040517f150b7a02000000000000000000000000000000000000000000000000000000008152f35b346111d45760206003193601126111d4576020906004355f52601182526001600160a01b0360405f2054168152f35b600435906001600160a01b03821682036111d457565b602435906001600160a01b03821682036111d457565b610100810190811067ffffffffffffffff8211176118c257604052565b610260810190811067ffffffffffffffff8211176118c257604052565b6040810190811067ffffffffffffffff8211176118c257604052565b6080810190811067ffffffffffffffff8211176118c257604052565b60c0810190811067ffffffffffffffff8211176118c257604052565b6060810190811067ffffffffffffffff8211176118c257604052565b90601f601f19910116810190811067ffffffffffffffff8211176118c257604052565b9181601f840112156111d45782359167ffffffffffffffff83116111d457602083818601950101116111d457565b6040519061201a82611f4c565b60606020835f81520152565b604080519091906120378382611fbc565b6001815291601f1901825f5b82811061204f57505050565b60209060405161205e81611f68565b5f81525f838201526060604082015260608082015282828501015201612043565b80511561208c5760200190565b634e487b7160e01b5f52603260045260245ffd5b80516001101561208c5760400190565b80516002101561208c5760600190565b604080519091906120d18382611fbc565b6001815291601f1901825f5b8281106120e957505050565b6020906040516120f881611f4c565b5f81525f83820152828285010152016120dd565b6040519061211b602083611fbc565b5f80835282815b82811061212e57505050565b60209060405161213d81611f4c565b5f81525f8382015282828501015201612122565b604051608091906121628382611fbc565b6003815291601f1901825f5b82811061217a57505050565b60209060405161218981611f84565b5f81525f838201525f60408201525f60608201525f60808201525f60a08201528282850101520161216e565b601f8260209493601f1993818652868601375f8582860101520116010190565b90602080835192838152019201905f5b8181106121f25750505090565b825180517bffffffffffffffffffffffffffffffffffffffffffffffffffffffff16855260209081015163ffffffff1681860152604090940193909201916001016121e5565b6001600160a01b035f5416330361224b57565b7f118cdaa7000000000000000000000000000000000000000000000000000000005f523360045260245ffdfe610120346100e657601f6105f338819003918201601f19168301916001600160401b038311848410176100ea5780849260a0946040528339810103126100e6578051906020810151604082015190610065608061005e606086016100fe565b94016100fe565b60809490945260a05260c0526001600160a01b031660e052610100526040516104e0908161011382396080518181816101690152610381015260a0518181816101e6015281816103cc0152610434015260c05181818160df01526103ed015260e05181818161012e015261034e01526101005181818160a001526102ff0152f35b5f80fd5b634e487b7160e01b5f52604160045260245ffd5b51906001600160a01b03821682036100e65756fe6080806040526004361015610012575f80fd5b5f3560e01c90816301ffc9a714610223575080631be052891461020957806329dcb0cf146101cf57806350609a561461018c5780637a3a0e8414610152578063a524af7414610102578063a6a3b5b4146100c85763f45d0bc614610074575f80fd5b346100c4575f6003193601126100c457602060405173ffffffffffffffffffffffffffffffffffffffff7f0000000000000000000000000000000000000000000000000000000000000000168152f35b5f80fd5b346100c4575f6003193601126100c45760206040517f00000000000000000000000000000000000000000000000000000000000000008152f35b346100c4575f6003193601126100c457602060405173ffffffffffffffffffffffffffffffffffffffff7f0000000000000000000000000000000000000000000000000000000000000000168152f35b346100c4575f6003193601126100c45760206040517f00000000000000000000000000000000000000000000000000000000000000008152f35b346100c45760606003193601126100c4576101a86004356102c1565b60405160068210156101bb576020918152f35b634e487b7160e01b5f52602160045260245ffd5b346100c4575f6003193601126100c45760206040517f00000000000000000000000000000000000000000000000000000000000000008152f35b346100c4575f6003193601126100c45760206040515f8152f35b346100c45760206003193601126100c457600435907fffffffff0000000000000000000000000000000000000000000000000000000082168092036100c457817f4b80c8df0000000000000000000000000000000000000000000000000000000060209314908115610297575b5015158152f35b7f01ffc9a70000000000000000000000000000000000000000000000000000000091501483610290565b604051907f467f4cb900000000000000000000000000000000000000000000000000000000825273ffffffffffffffffffffffffffffffffffffffff7f0000000000000000000000000000000000000000000000000000000000000000166004830152602482015261eeee604482015260208160648173ffffffffffffffffffffffffffffffffffffffff7f0000000000000000000000000000000000000000000000000000000000000000165afa9081156104d5575f9161045b575b507f000000000000000000000000000000000000000000000000000000000000000011801580610431575b156103b45750600490565b806103c9575b156103c457600490565b600590565b507f00000000000000000000000000000000000000000000000000000000000000007f0000000000000000000000000000000000000000000000000000000000000000810180911161041d574210156103ba565b634e487b7160e01b5f52601160045260245ffd5b507f00000000000000000000000000000000000000000000000000000000000000004210156103a9565b905060203d6020116104ce575b7fffffffffffffffffffffffffffffffffffffffffffffffffffffffffffffffe0601f820116820182811067ffffffffffffffff8211176104ba576020918391604052810103126100c457515f61037e565b634e487b7160e01b5f52604160045260245ffd5b503d610468565b6040513d5f823e3d90fd60e03461018257601f610ede38819003918201601f19168301916001600160401b038311848410176101865780849260c09460405283398101031261018257805190602081015160408201516100576060840161019a565b916100646080850161019a565b936001600160a01b039061007a9060a00161019a565b1694851561016f575f80546001600160a01b031981168817825560405197916001600160a01b03909116907f8be0079c531659141344cd1fd0a4f28419497f9722a3daafe3b4186f6b6457e09080a360805260a05260c05260028054610100600160a81b03191660089290921b610100600160a81b0316919091179055600380546001600160a01b0319166001600160a01b0392909216919091179055610d2f90816101af8239608051818181610107015281816107df015281816109ce0152610bb9015260a05181818161012f0152818161094c01528181610abd0152610be0015260c05181818161015701526106a20152f35b631e4fbdf760e01b5f525f60045260245ffd5b5f80fd5b634e487b7160e01b5f52604160045260245ffd5b51906001600160a01b03821682036101825756fe6080806040526004361015610012575f80fd5b5f3560e01c90816301ffc9a714610ae05750806329dcb0cf14610aa65780635531083214610a84578063677ce08814610a60578063715018a6146109f15780637a3a0e84146109b75780638cc358461461076a5780638da5cb5b14610745578063936ff564146106ee578063a524af74146106c5578063a6a3b5b41461068b578063ebb2666f1461065c578063f2fde38b146105a85763fb82b1b0146100b6575f80fd5b346104005760206003193601126104005760043567ffffffffffffffff8111610400576101a06003198236030112610400576100f481600401610b99565b9061010460448201358093610c9a565b917f0000000000000000000000000000000000000000000000000000000000000000831015610518577f00000000000000000000000000000000000000000000000000000000000000008042106104ae577f000000000000000000000000000000000000000000000000000000000000000081018091116102cf57421015610444576101206001600160a01b0360035416916044604051809481937f25a61d5c0000000000000000000000000000000000000000000000000000000083526004830152606487013560248301525afa908115610439575f916102fc575b5060a06dffffffffffffffffffffffffffff91015116918281029281840414901517156102cf5790671bc16d674ec8000091604051928392608460808501935f8652013560208501520460408301526080606083015260605180915260a0820160a08260051b840101916080915f905b82821061026057505050500390f35b919360206102bf827fffffffffffffffffffffffffffffffffffffffffffffffffffffffffffffff606001959799849503018652606060408a516001600160a01b03815116845285810151868501520151918160408201520190610b74565b9601920192018594939192610251565b7f4e487b71000000000000000000000000000000000000000000000000000000005f52601160045260245ffd5b9050610120813d8211610431575b816103186101209383610c14565b810103126104005760405190610120820182811067ffffffffffffffff8211176104045760405261034881610c37565b825261035660208201610c37565b602083015261036760408201610c37565b604083015261037860608201610c37565b606083015261038960808201610c4a565b608083015260a08101516dffffffffffffffffffffffffffff811681036104005760a08301526103bb60c08201610c4a565b60c083015260e0810151916001600160a01b03831683036104005761010060a0926dffffffffffffffffffffffffffff9460e0840152015161010082015291506101e1565b5f80fd5b7f4e487b71000000000000000000000000000000000000000000000000000000005f52604160045260245ffd5b3d915061030a565b6040513d5f823e3d90fd5b608460405162461bcd60e51b815260206004820152602f60248201527f526566756e6420706572696f6420686173207061737365642e20526566756e6460448201527f73206172652064697361626c65642e00000000000000000000000000000000006064820152fd5b608460405162461bcd60e51b815260206004820152603e60248201527f50726f6a6563742066756e64696e6720646561646c696e6520686173206e6f7460448201527f207061737365642e20526566756e6473206172652064697361626c65642e00006064820152fd5b60a460405162461bcd60e51b815260206004820152604260248201527f50726f6a65637420686173207061737365642066756e64696e6720676f616c2060448201527f726571756972656d656e742e20526566756e6473206172652064697361626c6560648201527f642e0000000000000000000000000000000000000000000000000000000000006084820152fd5b34610400576020600319360112610400576001600160a01b036105c9610b5e565b6105d1610c5b565b168015610630576001600160a01b035f54827fffffffffffffffffffffffff00000000000000000000000000000000000000008216175f55167f8be0079c531659141344cd1fd0a4f28419497f9722a3daafe3b4186f6b6457e05f80a3005b7f1e4fbdf7000000000000000000000000000000000000000000000000000000005f525f60045260245ffd5b3461040057604060031936011261040057602061068361067a610b5e565b60243590610bad565b604051908152f35b34610400575f6003193601126104005760206040517f00000000000000000000000000000000000000000000000000000000000000008152f35b34610400575f6003193601126104005760206001600160a01b0360025460081c16604051908152f35b346104005760206003193601126104005760043580151580910361040057610714610c5b565b60ff7fffffffffffffffffffffffffffffffffffffffffffffffffffffffffffffff00600254169116176002555f80f35b34610400575f6003193601126104005760206001600160a01b035f5416604051908152f35b346104005760206003193601126104005760043567ffffffffffffffff81116104005761018060031982360301126104005760ff60025416610973576107c06107b582600401610b99565b60c483013590610c9a565b61eeee6001600160a01b036107d760448501610b99565b1603610400577f00000000000000000000000000000000000000000000000000000000000000001180610949575b6108b9576040518091610124604083019101358252604060208301526060518091526060820160608260051b840101916080915f905b82821061084a57505050500390f35b919360206108a9827fffffffffffffffffffffffffffffffffffffffffffffffffffffffffffffffa06001959799849503018652606060408a516001600160a01b03815116845285810151868501520151918160408201520190610b74565b960192019201859493919261083b565b60a460405162461bcd60e51b815260206004820152605260248201527f50726f6a6563742066756e64696e6720646561646c696e65206861732070617360448201527f73656420616e642066756e64696e6720676f616c20726571756972656d656e7460648201527f20686173206e6f74206265656e206d65742e00000000000000000000000000006084820152fd5b507f0000000000000000000000000000000000000000000000000000000000000000421015610805565b606460405162461bcd60e51b815260206004820152601c60248201527f46756e64696e6720686173206265656e207475726e6564206f66662e000000006044820152fd5b34610400575f6003193601126104005760206040517f00000000000000000000000000000000000000000000000000000000000000008152f35b34610400575f60031936011261040057610a09610c5b565b5f6001600160a01b0381547fffffffffffffffffffffffff000000000000000000000000000000000000000081168355167f8be0079c531659141344cd1fd0a4f28419497f9722a3daafe3b4186f6b6457e08280a3005b3461040057604060031936011261040057610a79610b48565b5060206040515f8152f35b34610400575f60031936011261040057602060ff600254166040519015158152f35b34610400575f6003193601126104005760206040517f00000000000000000000000000000000000000000000000000000000000000008152f35b3461040057602060031936011261040057600435907fffffffff000000000000000000000000000000000000000000000000000000008216809203610400577f103d097e00000000000000000000000000000000000000000000000000000000602092148152f35b602435906001600160a01b038216820361040057565b600435906001600160a01b038216820361040057565b90601f19601f602080948051918291828752018686015e5f8582860101520116010190565b356001600160a01b03811681036104005790565b90610bb791610c9a565b7f00000000000000000000000000000000000000000000000000000000000000001115610c0f577f00000000000000000000000000000000000000000000000000000000000000004210610c0a57600390565b600190565b600290565b90601f601f19910116810190811067ffffffffffffffff82111761040457604052565b519065ffffffffffff8216820361040057565b519063ffffffff8216820361040057565b6001600160a01b035f54163303610c6e57565b7f118cdaa7000000000000000000000000000000000000000000000000000000005f523360045260245ffd5b6001600160a01b0360646020928260025460081c1660405195869485937f467f4cb9000000000000000000000000000000000000000000000000000000008552166004840152602483015261eeee60448301525afa908115610439575f91610d00575090565b90506020813d602011610d27575b81610d1b60209383610c14565b81010312610400575190565b3d9150610d0e5660803461013e57601f61147a38819003918201601f19168301916001600160401b038311848410176101425780849260609460405283398101031261013e5761004781610156565b9061005460208201610156565b906001600160a01b039061006a90604001610156565b1691821561012b575f80546001600160a01b031981168517825560405194916001600160a01b03909116907f8be0079c531659141344cd1fd0a4f28419497f9722a3daafe3b4186f6b6457e09080a3600160025561a4b160035561210560045562066eee60055562aa36a7600655600a80546001600160a01b03199081166c1f9f6e4990f227000000000000179091556009805482166001600160a01b03938416179055600780549091169290911691909117905561130f908161016b8239f35b631e4fbdf760e01b5f525f60045260245ffd5b5f80fd5b634e487b7160e01b5f52604160045260245ffd5b51906001600160a01b038216820361013e5756fe608080604052600436101561001c575b50361561001a575f80fd5b005b5f905f3560e01c908163144fa6d714610b2f57508063310ca170146102fb57806332a3cf96146102d457806345863322146102855780636507b9e7146102525780636f70a7fa1461022b578063715018a6146101c55780638da5cb5b1461019f578063d6fbf20214610178578063f2fde38b146100c65763fc0c546a0361000f57346100c357806003193601126100c35760206001600160a01b0360085416604051908152f35b80fd5b50346100c35760206003193601126100c3576004356001600160a01b038116809103610174576100f4611051565b8015610148576001600160a01b0382548273ffffffffffffffffffffffffffffffffffffffff198216178455167f8be0079c531659141344cd1fd0a4f28419497f9722a3daafe3b4186f6b6457e08380a380f35b6024827f1e4fbdf700000000000000000000000000000000000000000000000000000000815280600452fd5b5080fd5b50346100c357806003193601126100c35760206001600160a01b03600a5416604051908152f35b50346100c357806003193601126100c3576001600160a01b036020915416604051908152f35b50346100c357806003193601126100c3576101de611051565b806001600160a01b03815473ffffffffffffffffffffffffffffffffffffffff1981168355167f8be0079c531659141344cd1fd0a4f28419497f9722a3daafe3b4186f6b6457e08280a380f35b50346100c357806003193601126100c35760206001600160a01b0360075416604051908152f35b50346100c35760206003193601126100c3576001600160a01b036040602092600435815260018452205416604051908152f35b50346100c35760206003193601126100c3576004356001600160a01b038116809103610174576102b3611051565b73ffffffffffffffffffffffffffffffffffffffff19600954161760095580f35b50346100c357806003193601126100c35760206001600160a01b0360095416604051908152f35b5034610a5f575f600319360112610a5f57475f19810190808211610ae7576001600160a01b036008541691604051927f70a08231000000000000000000000000000000000000000000000000000000008452306004850152602084602481845afa938415610a54575f94610afb575b505f19840190848211610ae75782151580610ade575b15610a9a5760205f916044604051809481937f095ea7b30000000000000000000000000000000000000000000000000000000083526e22d473030f116ddee9f6b43ac78ba360048401525f1960248401525af18015610a5457610a63575b506001600160a01b03600854166001600160a01b03600754166e22d473030f116ddee9f6b43ac78ba33b15610a5f57604051917f87517c45000000000000000000000000000000000000000000000000000000008352600483015260248201526001600160a01b03604482015265ffffffffffff60648201525f81608481836e22d473030f116ddee9f6b43ac78ba35af18015610a5457610a3f575b506001600160a01b03600a541691610495620d899f19610cfe565b916104a2620d89a0610cfe565b9081846001600160a01b0384166001600160a01b03821611610a33575b508590506001600160a01b03851681116109c15750506104de926110e9565b6001600160a01b0360085416906001600160a01b0360095416916040519060a0820182811067ffffffffffffffff82111761097e57604052878252602082019081526040820161271090526060820160649052836080830152602096604051936105488986610bc7565b8985526040517f02000000000000000000000000000000000000000000000000000000000000008a8201527f0d00000000000000000000000000000000000000000000000000000000000000602182015260028152946105a9602287610bc7565b6105b1610c16565b966040519384938c850161060290896001600160a01b036080809282815116855282602082015116602086015262ffffff6040820151166040860152606081015160020b6060860152015116910152565b620d899f1960c0860152620d89a060e08601526fffffffffffffffffffffffffffffffff1661010085015261012084018b905261014084015261016083015261018080830152610657906101a0830190610c81565b03601f19810182526106699082610bc7565b61067285610c50565b5261067c84610c50565b5081516001600160a01b031690516001600160a01b031660405191888301526040820152604081526106af606082610bc7565b6106b884610c71565b526106c283610c71565b506106cb610c16565b604080517ff7020405000000000000000000000000000000000000000000000000000000008982015283516001600160a01b0390811660248301526020850151811660448301529184015162ffffff166064820152606084015160020b60848201526080909301511660a48301529360c482015260e4810160e0905286610104820152610104815261075f61012482610bc7565b61076884610c50565b5261077283610c50565b50604051918291868301604090526060830161078d91610c81565b828103601f190160408401526107a291610ca6565b03601f19810182526107b49082610bc7565b42603c018042116109ad579161080861081c6108799388956040519384927fdd46508f000000000000000000000000000000000000000000000000000000008b850152604060248501526064840190610c81565b90604483015203601f198101835282610bc7565b61082582610c71565b5261082f81610c71565b506001600160a01b0360075416906040519485809481937fac9650d80000000000000000000000000000000000000000000000000000000083528960048401526024830190610ca6565b03925af180156109a25761088b578280f35b3d8084833e61089a8183610bc7565b810190828183031261099a5780519067ffffffffffffffff821161099e57019080601f8301121561099a5781519083806108d384610bfe565b6108e06040519182610bc7565b848152019260051b8401019281841161099657848101925b84841061090757505050508280f35b835167ffffffffffffffff81116109925782019083603f8301121561099257868201519067ffffffffffffffff821161097e57604051610950601f8401601f19168a0182610bc7565b82815289868a808688010101116100c357898481969560408397018386015e830101528152019301926108f8565b602489634e487b7160e01b81526041600452fd5b8780fd5b8580fd5b8380fd5b8480fd5b6040513d85823e3d90fd5b602486634e487b7160e01b81526011600452fd5b909290916001600160a01b038116831015610a275782916109e6916109ec95946110e9565b936110b0565b6fffffffffffffffffffffffffffffffff81166fffffffffffffffffffffffffffffffff8316105f14610a2057505b6104de565b90506104de565b915050610a1b926110b0565b90945091505f806104bf565b610a4c9195505f90610bc7565b5f935f61047a565b6040513d5f823e3d90fd5b5f80fd5b6020813d602011610a92575b81610a7c60209383610bc7565b81010312610a5f575180151581146103de575f80fd5b3d9150610a6f565b606460405162461bcd60e51b815260206004820152601260248201527f6e6f2066756e647320746f206465706c6f7900000000000000000000000000006044820152fd5b50811515610380565b634e487b7160e01b5f52601160045260245ffd5b9093506020813d602011610b27575b81610b1760209383610bc7565b81010312610a5f5751925f61036a565b3d9150610b0a565b34610a5f576020600319360112610a5f57600435906001600160a01b038216809203610a5f57600854906001600160a01b038216610b85575073ffffffffffffffffffffffffffffffffffffffff191617600855005b8062461bcd60e51b6064925260206004820152601160248201527f546f6b656e20616c7265616479207365740000000000000000000000000000006044820152fd5b90601f601f19910116810190811067ffffffffffffffff821117610bea57604052565b634e487b7160e01b5f52604160045260245ffd5b67ffffffffffffffff8111610bea5760051b60200190565b60405160609190610c278382610bc7565b6002815291601f1901825f5b828110610c3f57505050565b806060602080938501015201610c33565b805115610c5d5760200190565b634e487b7160e01b5f52603260045260245ffd5b805160011015610c5d5760400190565b90601f19601f602080948051918291828752018686015e5f8582860101520116010190565b9080602083519182815201916020808360051b8301019401925f915b838310610cd157505050505090565b9091929394602080610cef83601f1986600196030187528951610c81565b97019301930191939290610cc2565b60020b908160ff1d82810118620d89e881116110255763ffffffff9192600182167001fffcb933bd6fad37aa2d162d1a59400102700100000000000000000000000000000000189160028116611009575b60048116610fed575b60088116610fd1575b60108116610fb5575b60208116610f99575b60408116610f7d575b60808116610f61575b6101008116610f45575b6102008116610f29575b6104008116610f0d575b6108008116610ef1575b6110008116610ed5575b6120008116610eb9575b6140008116610e9d575b6180008116610e81575b620100008116610e65575b620200008116610e4a575b620400008116610e2f575b6208000016610e16575b5f12610e0e575b0160201c90565b5f1904610e07565b6b048a170391f7dc42444e8fa290910260801c90610e00565b6d2216e584f5fa1ea926041bedfe9890920260801c91610df6565b916e5d6af8dedb81196699c329225ee6040260801c91610deb565b916f09aa508b5b7a84e1c677de54f3e99bc90260801c91610de0565b916f31be135f97d08fd981231505542fcfa60260801c91610dd5565b916f70d869a156d2a1b890bb3df62baf32f70260801c91610dcb565b916fa9f746462d870fdf8a65dc1f90e061e50260801c91610dc1565b916fd097f3bdfd2022b8845ad8f792aa58250260801c91610db7565b916fe7159475a2c29b7443b29c7fa6e889d90260801c91610dad565b916ff3392b0822b70005940c7a398e4b70f30260801c91610da3565b916ff987a7253ac413176f2b074cf7815e540260801c91610d99565b916ffcbe86c7900a88aedcffc83b479aa3a40260801c91610d8f565b916ffe5dee046a99a2a811c461f1969c30530260801c91610d85565b916fff2ea16466c96a3843ec78b326b528610260801c91610d7c565b916fff973b41fa98c081472e6896dfb254c00260801c91610d73565b916fffcb9843d60f6159c9db58835c9266440260801c91610d6a565b916fffe5caca7e10e4e61c3624eaa0941cd00260801c91610d61565b916ffff2e50f5f656932ef12357cf3c7fdcc0260801c91610d58565b916ffff97272373d413259a46990580e213a0260801c91610d4f565b827f8b86327a000000000000000000000000000000000000000000000000000000005f5260045260245ffd5b6001600160a01b035f5416330361106457565b7f118cdaa7000000000000000000000000000000000000000000000000000000005f523360045260245ffd5b906001600160a01b03809116911603906001600160a01b038211610ae757565b916001600160a01b036110d46110e0946110db94838116848316116110e357611090565b1690611139565b6112ae565b90565b90611090565b916110db916110e0936001600160a01b0382166001600160a01b03821611611133575b61112c6001600160a01b03916111268385168483166111d3565b93611090565b169161122e565b9061110c565b908160601b905f196c01000000000000000000000000840992828085109403938085039485841115610a5f57146111cc576c0100000000000000000000000082910981805f03168092046002816003021880820260020302808202600203028082026002030280820260020302808202600203028091026002030293600183805f03040190848311900302920304170290565b5091500490565b90808202915f19828209918380841093039280840393846c010000000000000000000000001115610a5f5714611225576c01000000000000000000000000910990828211900360a01b910360601c1790565b50505060601c90565b91818302915f1981850993838086109503948086039586851115610a5f57146112a6579082910981805f03168092046002816003021880820260020302808202600203028082026002030280820260020302808202600203028091026002030293600183805f03040190848311900302920304170290565b505091500490565b906fffffffffffffffffffffffffffffffff82169182036112cb57565b606460405162461bcd60e51b815260206004820152601260248201527f6c6971756964697479206f766572666c6f7700000000000000000000000000006044820152fd60a034608357601f6106ea38819003918201601f19168301916001600160401b03831184841017608757808492602094604052833981010312608357516001600160a01b03811690819003608357600180546001600160a01b0319169190911790554260805260405161064e908161009c823960805181818160f501526105370152f35b5f80fd5b634e487b7160e01b5f52604160045260245ffdfe6080806040526004361015610012575f80fd5b5f3560e01c908163144fa6d7146103bd575080631514617e1461039f57806338af3eed1461036c5780633ccfd60b1461017157806344b1231f146101575780634b3197131461013a578063a3c2c46214610118578063be9a6555146100de578063d85349f7146100c05763fc0c546a1461008a575f80fd5b346100bc575f6003193601126100bc57602073ffffffffffffffffffffffffffffffffffffffff5f5416604051908152f35b5f80fd5b346100bc575f6003193601126100bc5760206040516301e133808152f35b346100bc575f6003193601126100bc5760206040517f00000000000000000000000000000000000000000000000000000000000000008152f35b346100bc575f6003193601126100bc5760206101326105ae565b604051908152f35b346100bc575f6003193601126100bc576020600254604051908152f35b346100bc575f6003193601126100bc57602061013261052d565b346100bc575f6003193601126100bc5773ffffffffffffffffffffffffffffffffffffffff60015416803303610328576101a961052d565b6101b66002548092610478565b80156102be576101c8816020936104b2565b600255604473ffffffffffffffffffffffffffffffffffffffff5f5416935f60405195869485937fa9059cbb000000000000000000000000000000000000000000000000000000008552600485015260248401525af19081156102b3575f91610278575b501561023457005b606460405162461bcd60e51b815260206004820152601560248201527f546f6b656e207472616e73666572206661696c656400000000000000000000006044820152fd5b90506020813d6020116102ab575b81610293602093836104bf565b810103126100bc575180151581036100bc578161022c565b3d9150610286565b6040513d5f823e3d90fd5b608460405162461bcd60e51b815260206004820152602260248201527f4e6f20746f6b656e7320617661696c61626c6520666f7220776974686472617760448201527f616c0000000000000000000000000000000000000000000000000000000000006064820152fd5b606460405162461bcd60e51b815260206004820152601d60248201527f4f6e6c792062656e65666963696172792063616e2077697468647261770000006044820152fd5b346100bc575f6003193601126100bc57602073ffffffffffffffffffffffffffffffffffffffff60015416604051908152f35b346100bc575f6003193601126100bc576020604051630784ce008152f35b346100bc5760206003193601126100bc576004359073ffffffffffffffffffffffffffffffffffffffff82168092036100bc575f549073ffffffffffffffffffffffffffffffffffffffff821661043657507fffffffffffffffffffffffff000000000000000000000000000000000000000016175f55005b8062461bcd60e51b6064925260206004820152601160248201527f546f6b656e20616c7265616479207365740000000000000000000000000000006044820152fd5b9190820391821161048557565b7f4e487b71000000000000000000000000000000000000000000000000000000005f52601160045260245ffd5b9190820180921161048557565b90601f7fffffffffffffffffffffffffffffffffffffffffffffffffffffffffffffffe0910116810190811067ffffffffffffffff82111761050057604052565b7f4e487b71000000000000000000000000000000000000000000000000000000005f52604160045260245ffd5b6105356105ae565b7f00000000000000000000000000000000000000000000000000000000000000006301e133808101808211610485574210156105715750505f90565b630784ce008101808211610485574210610589575090565b6105939042610478565b9081810291818304149015171561048557630784ce00900490565b6024602073ffffffffffffffffffffffffffffffffffffffff5f5416604051928380927f70a082310000000000000000000000000000000000000000000000000000000082523060048301525afa80156102b3575f9061061a575b6106179150600254906104b2565b90565b506020813d602011610646575b81610634602093836104bf565b810103126100bc576106179051610609565b3d915061062756","linkReferences":{}},"methodIdentifiers":{"createMission(uint256,address,string,uint256,uint256,uint256,bool,string,string,string)":"94e0ffa0","feeHookAddress()":"47011de2","jbController()":"1c46dee7","jbMultiTerminalAddress()":"bf252138","jbProjects()":"31980444","jbRulesetsAddress()":"bcef80f0","jbTerminalStoreAddress()":"944d15ac","missionIdToFundingGoal(uint256)":"8dee31ab","missionIdToMoonDAOVesting(uint256)":"818b25fe","missionIdToPayHook(uint256)":"8999c669","missionIdToPoolDeployer(uint256)":"3fca43a7","missionIdToProjectId(uint256)":"ca068420","missionIdToTeamVesting(uint256)":"cccfec11","missionIdToTerminal(uint256)":"0dd4c160","missionTable()":"acd15f13","moonDAOTeam()":"7f669022","moonDAOTreasury()":"ba7a36e5","onERC721Received(address,address,uint256,bytes)":"150b7a02","owner()":"8da5cb5b","renounceOwnership()":"715018a6","setFeeHookAddress(address)":"dca2d057","setJBController(address)":"ca9942e9","setJBMultiTerminal(address)":"44724b3a","setJBProjects(address)":"696c2ce3","setMissionTable(address)":"c97747d9","setMoonDAOTeam(address)":"36616274","setMoonDAOTreasury(address)":"57dd7f2f","stage(uint256)":"54d9eef6","transferOwnership(address)":"f2fde38b"},"id":247}