{"abi":[{"type":"constructor","inputs":[{"name":"_table_prefix","type":"string","internalType":"string"}],"stateMutability":"nonpayable"},{"type":"function","name":"deleteFromTable","inputs":[{"name":"mdp","type":"uint256","internalType":"uint256"}],"outputs":[],"stateMutability":"nonpayable"},{"type":"function","name":"getTableId","inputs":[],"outputs":[{"name":"","type":"uint256","internalType":"uint256"}],"stateMutability":"view"},{"type":"function","name":"getTableName","inputs":[],"outputs":[{"name":"","type":"string","internalType":"string"}],"stateMutability":"view"},{"type":"function","name":"insertIntoTable","inputs":[{"name":"mdp","type":"uint256","internalType":"uint256"},{"name":"vote","type":"string","internalType":"string"}],"outputs":[],"stateMutability":"nonpayable"},{"type":"function","name":"onERC721Received","inputs":[{"name":"","type":"address","internalType":"address"},{"name":"","type":"address","internalType":"address"},{"name":"","type":"uint256","internalType":"uint256"},{"name":"","type":"bytes","internalType":"bytes"}],"outputs":[{"name":"","type":"bytes4","internalType":"bytes4"}],"stateMutability":"nonpayable"},{"type":"function","name":"owner","inputs":[],"outputs":[{"name":"","type":"address","internalType":"address"}],"stateMutability":"view"},{"type":"function","name":"renounceOwnership","inputs":[],"outputs":[],"stateMutability":"nonpayable"},{"type":"function","name":"setAccessControl","inputs":[{"name":"controller","type":"address","internalType":"address"}],"outputs":[],"stateMutability":"nonpayable"},{"type":"function","name":"transferOwnership","inputs":[{"name":"newOwner","type":"address","internalType":"address"}],"outputs":[],"stateMutability":"nonpayable"},{"type":"function","name":"updateTableCol","inputs":[{"name":"mdp","type":"uint256","internalType":"uint256"},{"name":"vote","type":"string","internalType":"string"}],"outputs":[],"stateMutability":"nonpayable"},{"type":"event","name":"OwnershipTransferred","inputs":[{"name":"previousOwner","type":"address","indexed":true,"internalType":"address"},{"name":"newOwner","type":"address","indexed":true,"internalType":"address"}],"anonymous":false},{"type":"error","name":"ChainNotSupported","inputs":[{"name":"chainid","type":"uint256","internalType":"uint256"}]},{"type":"error","name":"OwnableInvalidOwner","inputs":[{"name":"owner","type":"address","internalType":"address"}]},{"type":"error","name":"OwnableUnauthorizedAccount","inputs":[{"name":"account","type":"address","internalType":"address"}]},{"type":"error","name":"StringsInsufficientHexLength","inputs":[{"name":"value","type":"uint256","internalType":"uint256"},{"name":"length","type":"uint256","internalType":"uint256"}]}],"bytecode":{"object":"0x608080604052346103d657611a57803803809161001c82856105c6565b83398101906020818303126103d6578051906001600160401b0382116103d6570181601f820112156103d657805190610054826105e9565b9261006260405194856105c6565b828452602083830101116103d657815f9260208093018386015e8301015233156105b3575f8054336001600160a01b0319821681178355916001600160a01b03909116907f8be0079c531659141344cd1fd0a4f28419497f9722a3daafe3b4186f6b6457e09080a380516001600160401b03811161059f576100e5600254610604565b601f811161054f575b50602091601f82116001146104ef579181925f926104e4575b50508160011b915f199060031b1c1916176002555b6001600160a01b0361012c61063c565b166040519061013c6080836105c6565b6052825260208201917f696420696e7465676572207072696d617279206b65792c206d647020696e746583527f6765722c206164647265737320746578742c20766f746520746578742c20756e6040820152716971756528616464726573732c206d64702960701b6060820152604051915f60025490846101bc83610604565b9182825260208201936001811690815f146104c8575060011461047c575b6101e6925003856105c6565b46945f93867a184f03e93ff9f4daa797ed6e38ed64bf6a1f010000000000000000811015610454575b806d04ee2d6d415b85acef8100000000600a921015610439575b662386f26fc10000811015610425575b6305f5e100811015610414575b612710811015610405575b60648110156103f7575b10156103ed575b6001850196600a602161028d6102778b6105e9565b9a6102856040519c8d6105c6565b808c526105e9565b60208b019890601f1901368a378a01015b5f1901916f181899199a1a9b1b9c1cb0b131b232b360811b8282061a8353049081156102cc57600a9061029e565b5050600160209681610347948194602d6c021a922a0aa22902a20a126229609d1b9a60649d6040519a8b978f89019e8f52518091858a015e870190605f60f81b84830152518092602e83015e010190600560fb1b84830152518092600283015e0101602960f81b838201520301601e198101845201826105c6565b5f60405195868095819463a15ab08d60e01b8352306004840152604060248401525180918160448501528484015e8181018301849052601f01601f191681010301925af19081156103e2575f916103ac575b5060015560405161125990816107de8239f35b90506020813d6020116103da575b816103c7602093836105c6565b810103126103d657515f610399565b5f80fd5b3d91506103ba565b6040513d5f823e3d90fd5b9360010193610262565b60646002910496019561025b565b61271060049104960195610251565b6305f5e10060089104960195610246565b662386f26fc1000060109104960195610239565b6d04ee2d6d415b85acef810000000060209104960195610229565b50604094507a184f03e93ff9f4daa797ed6e38ed64bf6a1f010000000000000000460461020f565b5060025f90815290915f80516020611a378339815191525b8183106104ac5750509060206101e6928201016101da565b6020919350806001915483858b01015201910190918692610494565b60ff19168552506101e692151560051b820160200190506101da565b015190505f80610107565b601f1982169260025f52805f20915f5b8581106105375750836001951061051f575b505050811b0160025561011c565b01515f1960f88460031b161c191690555f8080610511565b919260206001819286850151815501940192016104ff565b60025f525f80516020611a37833981519152601f830160051c81019160208410610595575b601f0160051c01905b81811061058a57506100ee565b5f815560010161057d565b9091508190610574565b634e487b7160e01b5f52604160045260245ffd5b631e4fbdf760e01b5f525f60045260245ffd5b601f909101601f19168101906001600160401b0382119082101761059f57604052565b6001600160401b03811161059f57601f01601f191660200190565b90600182811c92168015610632575b602083101461061e57565b634e487b7160e01b5f52602260045260245ffd5b91607f1691610613565b4660010361065c5773012969f7e3439a9b04025b5a049eb9bad82a8c1290565b46600a0361067c5773fad44bf5b843de943a09d4f3e84949a11d3aa3e690565b4661a4b10361069d57739abd75e8640871a5a20d3b4ee6330a04c962affd90565b4661a4ba036106be57731a22854c5b1642760a827f20137a67930ae108d290565b466089036106de57735c4e6a9e5c1e1bf445a062006faf19ea6c49afea90565b4661013a036106ff577359ef8bf2d6c102b4c42aef9189e1a9f0abfd652d90565b4662aa36a7036107215773c50c62498448acc8dbde43da77f8d5d2e2c7597d90565b4662aa37dc03610743577368a2f4423ad3bf5139db563cf3bc80aa09ed707990565b4662066eee036107655773223a74b8323914afdc3ff1e5005564dc17231d6e90565b4662013882036107875773170fb206132b693e38adfc8727dcfa303546cec190565b466204cb2f036107a95773030bcf3d50cad04c2e57391b12740982a930862190565b46617a69036107ca5773e7f1725e7734ce288f8367e1bb143e90bb3f051290565b63264e42cf60e01b5f524660045260245ffdfe60806040526004361015610011575f80fd5b5f803560e01c806304bfc47f146108e55780630d157ad3146106b7578063150b7a021461063357806319129e5a1461058a5780635d5a33a21461054b578063715018a6146104da57806388e4f1cb146104bc5780638da5cb5b14610496578063f2fde38b146103e05763f56ec1ed14610088575f80fd5b346103375761009636610a91565b6100a1929192610cb8565b6001600160a01b031690600154936100b890610e72565b936100c233610ff7565b6100cb906110f8565b916100d5906110f8565b916040519283916020830197805160208192018a5e8301602081017f2c00000000000000000000000000000000000000000000000000000000000000905281516020819301602183015e01602001600181017f2c000000000000000000000000000000000000000000000000000000000000009052600281017f6a736f6e28000000000000000000000000000000000000000000000000000000905281516020819301600783015e0160010160068101602960f81b905203600601601e19810183526001016101a49083610a08565b60405194846002548060011c906001811680156103d6575b6020831081146103c257828a5290811561039f5750600114610347575b506001600888826020956101f38b9c6102e9970384610a08565b604098602c8a51946102058c87610a08565b601086526102398b8b8801927f6d64702c616464726573732c766f74650000000000000000000000000000000084526111ad565b958c519a8b977f494e5345525420494e544f200000000000000000000000000000000000000000828a0152805191829101858a015e8701907f280000000000000000000000000000000000000000000000000000000000000084830152518092602d83015e0101907f2956414c5545532800000000000000000000000000000000000000000000000084830152518092600983015e0101602960f81b838201520301601e19810184520182610a08565b833b1561034357610313938592838551809781958294631bbd786d60e11b84523060048501610c93565b03925af190811561033a57506103265750f35b8161033091610a08565b6103375780f35b80fd5b513d84823e3d90fd5b8480fd5b600287528691507f405787fa12a823e0f2b7631cc41b3ba8828b3321ca811111fa75cd3aa3bb5ace5b818310610385575050860160200160016101d9565b6001816020929493945483858d0101520191019190610370565b60ff19166020808b019190915291151560051b89019091019150600190506101d9565b602489634e487b7160e01b81526022600452fd5b91607f16916101bc565b5034610337576020600319360112610337576001600160a01b03610402610ad5565b61040a61116e565b16801561046a576001600160a01b038254827fffffffffffffffffffffffff00000000000000000000000000000000000000008216178455167f8be0079c531659141344cd1fd0a4f28419497f9722a3daafe3b4186f6b6457e08380a380f35b6024827f1e4fbdf700000000000000000000000000000000000000000000000000000000815280600452fd5b50346103375780600319360112610337576001600160a01b036020915416604051908152f35b50346103375780600319360112610337576020600154604051908152f35b50346103375780600319360112610337576104f361116e565b806001600160a01b0381547fffffffffffffffffffffffff000000000000000000000000000000000000000081168355167f8be0079c531659141344cd1fd0a4f28419497f9722a3daafe3b4186f6b6457e08280a380f35b503461033757806003193601126103375761058661057260015461056d610bb3565b6111ad565b604051918291602083526020830190610b01565b0390f35b503461033757602060031936011261033757806105a5610ad5565b6105ad61116e565b6001600160a01b036105bd610cb8565b169060015490823b1561062e5760648492836001600160a01b039560405196879586947f8bb0ab9700000000000000000000000000000000000000000000000000000000865230600487015260248601521660448401525af18015610623576103265750f35b6040513d84823e3d90fd5b505050fd5b50346103375760806003193601126103375761064d610ad5565b50610656610aeb565b5060643567ffffffffffffffff81116106b357366023820112156106b357610688903690602481600401359101610a5b565b5060206040517f150b7a02000000000000000000000000000000000000000000000000000000008152f35b5080fd5b503461033757806106c736610a91565b6001600160a01b036106d7610cb8565b169161084a6106e8600154936110f8565b91600561078d610776604051936107716001602a8760208082019b7f766f74653d0000000000000000000000000000000000000000000000000000008d527f6a736f6e2800000000000000000000000000000000000000000000000000000060258401528051918291018484015e8101602960f81b838201520301601e19810188520186610a08565b610e72565b61078761078233610ff7565b6110f8565b90610b26565b9361079a8661056d610bb3565b926020958692836040516107ae8282610a08565b8c8152928c8151610886575b505050602791926040519889977f5550444154452000000000000000000000000000000000000000000000000000828a0152805191829101858a015e8701907f205345542000000000000000000000000000000000000000000000000000000084830152518092602c83015e0101908382018a8152815193849201905e010186815203601f198101835282610a08565b823b1561062e5761087592849283604051809681958294631bbd786d60e11b84523060048501610c93565b03925af18015610623576103265750f35b602794506108db9185916040519485927f2057484552452000000000000000000000000000000000000000000000000000828501528051918291018585015e820190838201520301601f198101835282610a08565b9150835f8c6107ba565b5034610a04576020600319360112610a04576001600160a01b03610907610cb8565b1660015460206109ae6007610920610776600435610e72565b602c8461092f8761056d610bb3565b926040519687947f44454c4554452046524f4d200000000000000000000000000000000000000000828701528051918291018587015e8401907f205748455245200000000000000000000000000000000000000000000000000084830152805192839101603383015e01015f838201520301601f198101835282610a08565b823b15610a04576109d9925f9283604051809681958294631bbd786d60e11b84523060048501610c93565b03925af180156109f9576109eb575080f35b6109f791505f90610a08565b005b6040513d5f823e3d90fd5b5f80fd5b90601f601f19910116810190811067ffffffffffffffff821117610a2b57604052565b634e487b7160e01b5f52604160045260245ffd5b67ffffffffffffffff8111610a2b57601f01601f191660200190565b929192610a6782610a3f565b91610a756040519384610a08565b829481845281830111610a04578281602093845f960137010152565b906040600319830112610a0457600435916024359067ffffffffffffffff8211610a045780602383011215610a0457816024610ad293600401359101610a5b565b90565b600435906001600160a01b0382168203610a0457565b602435906001600160a01b0382168203610a0457565b90601f19601f602080948051918291828752018686015e5f8582860101520116010190565b600f610bb191602660208096956040519788947f6d6470203d200000000000000000000000000000000000000000000000000000828701528051918291018587015e8401907f20414e442061646472657373203d20000000000000000000000000000000000084830152805192839101603583015e01015f838201520301601f198101845283610a08565b565b604051905f6002548060011c9160018216918215610c89575b602084108314610c75578386528592908115610c565750600114610bf7575b610bb192500383610a08565b5060025f90815290917f405787fa12a823e0f2b7631cc41b3ba8828b3321ca811111fa75cd3aa3bb5ace5b818310610c3a575050906020610bb192820101610beb565b6020919350806001915483858901015201910190918492610c22565b60209250610bb194915060ff191682840152151560051b820101610beb565b634e487b7160e01b5f52602260045260245ffd5b92607f1692610bcc565b610ad293926001600160a01b0360609316825260208201528160408201520190610b01565b46600103610cd85773012969f7e3439a9b04025b5a049eb9bad82a8c1290565b46600a03610cf85773fad44bf5b843de943a09d4f3e84949a11d3aa3e690565b4661a4b103610d1957739abd75e8640871a5a20d3b4ee6330a04c962affd90565b4661a4ba03610d3a57731a22854c5b1642760a827f20137a67930ae108d290565b46608903610d5a57735c4e6a9e5c1e1bf445a062006faf19ea6c49afea90565b4661013a03610d7b577359ef8bf2d6c102b4c42aef9189e1a9f0abfd652d90565b4662aa36a703610d9d5773c50c62498448acc8dbde43da77f8d5d2e2c7597d90565b4662aa37dc03610dbf577368a2f4423ad3bf5139db563cf3bc80aa09ed707990565b4662066eee03610de15773223a74b8323914afdc3ff1e5005564dc17231d6e90565b466201388203610e035773170fb206132b693e38adfc8727dcfa303546cec190565b466204cb2f03610e255773030bcf3d50cad04c2e57391b12740982a930862190565b46617a6903610e465773e7f1725e7734ce288f8367e1bb143e90bb3f051290565b7f264e42cf000000000000000000000000000000000000000000000000000000005f524660045260245ffd5b805f917a184f03e93ff9f4daa797ed6e38ed64bf6a1f010000000000000000821015610fcf575b806d04ee2d6d415b85acef8100000000600a921015610fb4575b662386f26fc10000811015610fa0575b6305f5e100811015610f8f575b612710811015610f80575b6064811015610f72575b1015610f67575b600a5f1960216001850194601f19610f1c610f0688610a3f565b97610f14604051998a610a08565b808952610a3f565b013660208801378501015b01917f30313233343536373839616263646566000000000000000000000000000000008282061a8353048015610f62575f19600a9192610f27565b505090565b600190910190610eec565b606460029104930192610ee5565b61271060049104930192610edb565b6305f5e10060089104930192610ed0565b662386f26fc1000060109104930192610ec3565b6d04ee2d6d415b85acef810000000060209104930192610eb3565b50604091507a184f03e93ff9f4daa797ed6e38ed64bf6a1f0100000000000000008104610e99565b6001600160a01b03168060405191611010606084610a08565b602a83526020830160403682378351156110e457603090538251600110156110e4576078602184015360295b6001811161107d575061104d575090565b7fe22e27eb000000000000000000000000000000000000000000000000000000005f52600452601460245260445ffd5b90600f811660108110156110e45784518310156110e4577f3031323334353637383961626364656600000000000000000000000000000000901a8483016020015360041c9080156110d0575f190161103c565b634e487b7160e01b5f52601160045260245ffd5b634e487b7160e01b5f52603260045260245ffd5b610ad2600160216020936040519485917f2700000000000000000000000000000000000000000000000000000000000000828401528051918291018484015e81017f2700000000000000000000000000000000000000000000000000000000000000838201520301601e19810184520182610a08565b6001600160a01b035f5416330361118157565b7f118cdaa7000000000000000000000000000000000000000000000000000000005f523360045260245ffd5b6001610ad291816020809581806111cc6111c646610e72565b93610e72565b9260405199878b985191829101848a015e8701907f5f0000000000000000000000000000000000000000000000000000000000000083830152805192839101602183015e0101907f5f0000000000000000000000000000000000000000000000000000000000000084830152805192839101600283015e01015f838201520301601f198101835282610a0856405787fa12a823e0f2b7631cc41b3ba8828b3321ca811111fa75cd3aa3bb5ace","linkReferences":{}},"methodIdentifiers":{"deleteFromTable(uint256)":"04bfc47f","getTableId()":"88e4f1cb","getTableName()":"5d5a33a2","insertIntoTable(uint256,string)":"f56ec1ed","onERC721Received(address,address,uint256,bytes)":"150b7a02","owner()":"8da5cb5b","renounceOwnership()":"715018a6","setAccessControl(address)":"19129e5a","transferOwnership(address)":"f2fde38b","updateTableCol(uint256,string)":"0d157ad3"},"id":38}