{"abi":[{"type":"constructor","inputs":[{"name":"_poolManager","type":"address","internalType":"contract IPoolManager"},{"name":"_permit2","type":"address","internalType":"contract IAllowanceTransfer"},{"name":"_unsubscribeGasLimit","type":"uint256","internalType":"uint256"},{"name":"_tokenDescriptor","type":"address","internalType":"contract IPositionDescriptor"},{"name":"_weth9","type":"address","internalType":"contract IWETH9"}],"stateMutability":"nonpayable"},{"type":"receive","stateMutability":"payable"},{"type":"function","name":"DOMAIN_SEPARATOR","inputs":[],"outputs":[{"name":"","type":"bytes32","internalType":"bytes32"}],"stateMutability":"view"},{"type":"function","name":"WETH9","inputs":[],"outputs":[{"name":"","type":"address","internalType":"contract IWETH9"}],"stateMutability":"view"},{"type":"function","name":"approve","inputs":[{"name":"spender","type":"address","internalType":"address"},{"name":"id","type":"uint256","internalType":"uint256"}],"outputs":[],"stateMutability":"nonpayable"},{"type":"function","name":"balanceOf","inputs":[{"name":"owner","type":"address","internalType":"address"}],"outputs":[{"name":"","type":"uint256","internalType":"uint256"}],"stateMutability":"view"},{"type":"function","name":"getApproved","inputs":[{"name":"","type":"uint256","internalType":"uint256"}],"outputs":[{"name":"","type":"address","internalType":"address"}],"stateMutability":"view"},{"type":"function","name":"getPoolAndPositionInfo","inputs":[{"name":"tokenId","type":"uint256","internalType":"uint256"}],"outputs":[{"name":"poolKey","type":"tuple","internalType":"struct PoolKey","components":[{"name":"currency0","type":"address","internalType":"Currency"},{"name":"currency1","type":"address","internalType":"Currency"},{"name":"fee","type":"uint24","internalType":"uint24"},{"name":"tickSpacing","type":"int24","internalType":"int24"},{"name":"hooks","type":"address","internalType":"contract IHooks"}]},{"name":"info","type":"uint256","internalType":"PositionInfo"}],"stateMutability":"view"},{"type":"function","name":"getPositionLiquidity","inputs":[{"name":"tokenId","type":"uint256","internalType":"uint256"}],"outputs":[{"name":"liquidity","type":"uint128","internalType":"uint128"}],"stateMutability":"view"},{"type":"function","name":"initializePool","inputs":[{"name":"key","type":"tuple","internalType":"struct PoolKey","components":[{"name":"currency0","type":"address","internalType":"Currency"},{"name":"currency1","type":"address","internalType":"Currency"},{"name":"fee","type":"uint24","internalType":"uint24"},{"name":"tickSpacing","type":"int24","internalType":"int24"},{"name":"hooks","type":"address","internalType":"contract IHooks"}]},{"name":"sqrtPriceX96","type":"uint160","internalType":"uint160"}],"outputs":[{"name":"","type":"int24","internalType":"int24"}],"stateMutability":"payable"},{"type":"function","name":"isApprovedForAll","inputs":[{"name":"","type":"address","internalType":"address"},{"name":"","type":"address","internalType":"address"}],"outputs":[{"name":"","type":"bool","internalType":"bool"}],"stateMutability":"view"},{"type":"function","name":"modifyLiquidities","inputs":[{"name":"unlockData","type":"bytes","internalType":"bytes"},{"name":"deadline","type":"uint256","internalType":"uint256"}],"outputs":[],"stateMutability":"payable"},{"type":"function","name":"modifyLiquiditiesWithoutUnlock","inputs":[{"name":"actions","type":"bytes","internalType":"bytes"},{"name":"params","type":"bytes[]","internalType":"bytes[]"}],"outputs":[],"stateMutability":"payable"},{"type":"function","name":"msgSender","inputs":[],"outputs":[{"name":"","type":"address","internalType":"address"}],"stateMutability":"view"},{"type":"function","name":"multicall","inputs":[{"name":"data","type":"bytes[]","internalType":"bytes[]"}],"outputs":[{"name":"results","type":"bytes[]","internalType":"bytes[]"}],"stateMutability":"payable"},{"type":"function","name":"name","inputs":[],"outputs":[{"name":"","type":"string","internalType":"string"}],"stateMutability":"view"},{"type":"function","name":"nextTokenId","inputs":[],"outputs":[{"name":"","type":"uint256","internalType":"uint256"}],"stateMutability":"view"},{"type":"function","name":"nonces","inputs":[{"name":"owner","type":"address","internalType":"address"},{"name":"word","type":"uint256","internalType":"uint256"}],"outputs":[{"name":"bitmap","type":"uint256","internalType":"uint256"}],"stateMutability":"view"},{"type":"function","name":"ownerOf","inputs":[{"name":"id","type":"uint256","internalType":"uint256"}],"outputs":[{"name":"owner","type":"address","internalType":"address"}],"stateMutability":"view"},{"type":"function","name":"permit","inputs":[{"name":"spender","type":"address","internalType":"address"},{"name":"tokenId","type":"uint256","internalType":"uint256"},{"name":"deadline","type":"uint256","internalType":"uint256"},{"name":"nonce","type":"uint256","internalType":"uint256"},{"name":"signature","type":"bytes","internalType":"bytes"}],"outputs":[],"stateMutability":"payable"},{"type":"function","name":"permit","inputs":[{"name":"owner","type":"address","internalType":"address"},{"name":"permitSingle","type":"tuple","internalType":"struct IAllowanceTransfer.PermitSingle","components":[{"name":"details","type":"tuple","internalType":"struct IAllowanceTransfer.PermitDetails","components":[{"name":"token","type":"address","internalType":"address"},{"name":"amount","type":"uint160","internalType":"uint160"},{"name":"expiration","type":"uint48","internalType":"uint48"},{"name":"nonce","type":"uint48","internalType":"uint48"}]},{"name":"spender","type":"address","internalType":"address"},{"name":"sigDeadline","type":"uint256","internalType":"uint256"}]},{"name":"signature","type":"bytes","internalType":"bytes"}],"outputs":[{"name":"err","type":"bytes","internalType":"bytes"}],"stateMutability":"payable"},{"type":"function","name":"permit2","inputs":[],"outputs":[{"name":"","type":"address","internalType":"contract IAllowanceTransfer"}],"stateMutability":"view"},{"type":"function","name":"permitBatch","inputs":[{"name":"owner","type":"address","internalType":"address"},{"name":"_permitBatch","type":"tuple","internalType":"struct IAllowanceTransfer.PermitBatch","components":[{"name":"details","type":"tuple[]","internalType":"struct IAllowanceTransfer.PermitDetails[]","components":[{"name":"token","type":"address","internalType":"address"},{"name":"amount","type":"uint160","internalType":"uint160"},{"name":"expiration","type":"uint48","internalType":"uint48"},{"name":"nonce","type":"uint48","internalType":"uint48"}]},{"name":"spender","type":"address","internalType":"address"},{"name":"sigDeadline","type":"uint256","internalType":"uint256"}]},{"name":"signature","type":"bytes","internalType":"bytes"}],"outputs":[{"name":"err","type":"bytes","internalType":"bytes"}],"stateMutability":"payable"},{"type":"function","name":"permitForAll","inputs":[{"name":"owner","type":"address","internalType":"address"},{"name":"operator","type":"address","internalType":"address"},{"name":"approved","type":"bool","internalType":"bool"},{"name":"deadline","type":"uint256","internalType":"uint256"},{"name":"nonce","type":"uint256","internalType":"uint256"},{"name":"signature","type":"bytes","internalType":"bytes"}],"outputs":[],"stateMutability":"payable"},{"type":"function","name":"poolKeys","inputs":[{"name":"poolId","type":"bytes25","internalType":"bytes25"}],"outputs":[{"name":"currency0","type":"address","internalType":"Currency"},{"name":"currency1","type":"address","internalType":"Currency"},{"name":"fee","type":"uint24","internalType":"uint24"},{"name":"tickSpacing","type":"int24","internalType":"int24"},{"name":"hooks","type":"address","internalType":"contract IHooks"}],"stateMutability":"view"},{"type":"function","name":"poolManager","inputs":[],"outputs":[{"name":"","type":"address","internalType":"contract IPoolManager"}],"stateMutability":"view"},{"type":"function","name":"positionInfo","inputs":[{"name":"tokenId","type":"uint256","internalType":"uint256"}],"outputs":[{"name":"info","type":"uint256","internalType":"PositionInfo"}],"stateMutability":"view"},{"type":"function","name":"revokeNonce","inputs":[{"name":"nonce","type":"uint256","internalType":"uint256"}],"outputs":[],"stateMutability":"payable"},{"type":"function","name":"safeTransferFrom","inputs":[{"name":"from","type":"address","internalType":"address"},{"name":"to","type":"address","internalType":"address"},{"name":"id","type":"uint256","internalType":"uint256"}],"outputs":[],"stateMutability":"nonpayable"},{"type":"function","name":"safeTransferFrom","inputs":[{"name":"from","type":"address","internalType":"address"},{"name":"to","type":"address","internalType":"address"},{"name":"id","type":"uint256","internalType":"uint256"},{"name":"data","type":"bytes","internalType":"bytes"}],"outputs":[],"stateMutability":"nonpayable"},{"type":"function","name":"setApprovalForAll","inputs":[{"name":"operator","type":"address","internalType":"address"},{"name":"approved","type":"bool","internalType":"bool"}],"outputs":[],"stateMutability":"nonpayable"},{"type":"function","name":"subscribe","inputs":[{"name":"tokenId","type":"uint256","internalType":"uint256"},{"name":"newSubscriber","type":"address","internalType":"address"},{"name":"data","type":"bytes","internalType":"bytes"}],"outputs":[],"stateMutability":"payable"},{"type":"function","name":"subscriber","inputs":[{"name":"tokenId","type":"uint256","internalType":"uint256"}],"outputs":[{"name":"subscriber","type":"address","internalType":"contract ISubscriber"}],"stateMutability":"view"},{"type":"function","name":"supportsInterface","inputs":[{"name":"interfaceId","type":"bytes4","internalType":"bytes4"}],"outputs":[{"name":"","type":"bool","internalType":"bool"}],"stateMutability":"view"},{"type":"function","name":"symbol","inputs":[],"outputs":[{"name":"","type":"string","internalType":"string"}],"stateMutability":"view"},{"type":"function","name":"tokenDescriptor","inputs":[],"outputs":[{"name":"","type":"address","internalType":"contract IPositionDescriptor"}],"stateMutability":"view"},{"type":"function","name":"tokenURI","inputs":[{"name":"tokenId","type":"uint256","internalType":"uint256"}],"outputs":[{"name":"","type":"string","internalType":"string"}],"stateMutability":"view"},{"type":"function","name":"transferFrom","inputs":[{"name":"from","type":"address","internalType":"address"},{"name":"to","type":"address","internalType":"address"},{"name":"id","type":"uint256","internalType":"uint256"}],"outputs":[],"stateMutability":"nonpayable"},{"type":"function","name":"unlockCallback","inputs":[{"name":"data","type":"bytes","internalType":"bytes"}],"outputs":[{"name":"","type":"bytes","internalType":"bytes"}],"stateMutability":"nonpayable"},{"type":"function","name":"unsubscribe","inputs":[{"name":"tokenId","type":"uint256","internalType":"uint256"}],"outputs":[],"stateMutability":"payable"},{"type":"function","name":"unsubscribeGasLimit","inputs":[],"outputs":[{"name":"","type":"uint256","internalType":"uint256"}],"stateMutability":"view"},{"type":"event","name":"Approval","inputs":[{"name":"owner","type":"address","indexed":true,"internalType":"address"},{"name":"spender","type":"address","indexed":true,"internalType":"address"},{"name":"id","type":"uint256","indexed":true,"internalType":"uint256"}],"anonymous":false},{"type":"event","name":"ApprovalForAll","inputs":[{"name":"owner","type":"address","indexed":true,"internalType":"address"},{"name":"operator","type":"address","indexed":true,"internalType":"address"},{"name":"approved","type":"bool","indexed":false,"internalType":"bool"}],"anonymous":false},{"type":"event","name":"Subscription","inputs":[{"name":"tokenId","type":"uint256","indexed":true,"internalType":"uint256"},{"name":"subscriber","type":"address","indexed":true,"internalType":"address"}],"anonymous":false},{"type":"event","name":"Transfer","inputs":[{"name":"from","type":"address","indexed":true,"internalType":"address"},{"name":"to","type":"address","indexed":true,"internalType":"address"},{"name":"id","type":"uint256","indexed":true,"internalType":"uint256"}],"anonymous":false},{"type":"event","name":"Unsubscription","inputs":[{"name":"tokenId","type":"uint256","indexed":true,"internalType":"uint256"},{"name":"subscriber","type":"address","indexed":true,"internalType":"address"}],"anonymous":false},{"type":"error","name":"AlreadySubscribed","inputs":[{"name":"tokenId","type":"uint256","internalType":"uint256"},{"name":"subscriber","type":"address","internalType":"address"}]},{"type":"error","name":"BurnNotificationReverted","inputs":[{"name":"subscriber","type":"address","internalType":"address"},{"name":"reason","type":"bytes","internalType":"bytes"}]},{"type":"error","name":"ContractLocked","inputs":[]},{"type":"error","name":"DeadlinePassed","inputs":[{"name":"deadline","type":"uint256","internalType":"uint256"}]},{"type":"error","name":"DeltaNotNegative","inputs":[{"name":"currency","type":"address","internalType":"Currency"}]},{"type":"error","name":"DeltaNotPositive","inputs":[{"name":"currency","type":"address","internalType":"Currency"}]},{"type":"error","name":"GasLimitTooLow","inputs":[]},{"type":"error","name":"InputLengthMismatch","inputs":[]},{"type":"error","name":"InsufficientBalance","inputs":[]},{"type":"error","name":"InvalidContractSignature","inputs":[]},{"type":"error","name":"InvalidEthSender","inputs":[]},{"type":"error","name":"InvalidSignature","inputs":[]},{"type":"error","name":"InvalidSignatureLength","inputs":[]},{"type":"error","name":"InvalidSigner","inputs":[]},{"type":"error","name":"MaximumAmountExceeded","inputs":[{"name":"maximumAmount","type":"uint128","internalType":"uint128"},{"name":"amountRequested","type":"uint128","internalType":"uint128"}]},{"type":"error","name":"MinimumAmountInsufficient","inputs":[{"name":"minimumAmount","type":"uint128","internalType":"uint128"},{"name":"amountReceived","type":"uint128","internalType":"uint128"}]},{"type":"error","name":"ModifyLiquidityNotificationReverted","inputs":[{"name":"subscriber","type":"address","internalType":"address"},{"name":"reason","type":"bytes","internalType":"bytes"}]},{"type":"error","name":"NoCodeSubscriber","inputs":[]},{"type":"error","name":"NoSelfPermit","inputs":[]},{"type":"error","name":"NonceAlreadyUsed","inputs":[]},{"type":"error","name":"NotApproved","inputs":[{"name":"caller","type":"address","internalType":"address"}]},{"type":"error","name":"NotPoolManager","inputs":[]},{"type":"error","name":"NotSubscribed","inputs":[]},{"type":"error","name":"PoolManagerMustBeLocked","inputs":[]},{"type":"error","name":"SignatureDeadlineExpired","inputs":[]},{"type":"error","name":"SubscriptionReverted","inputs":[{"name":"subscriber","type":"address","internalType":"address"},{"name":"reason","type":"bytes","internalType":"bytes"}]},{"type":"error","name":"Unauthorized","inputs":[]},{"type":"error","name":"UnsupportedAction","inputs":[{"name":"action","type":"uint256","internalType":"uint256"}]}],"bytecode":{"object":"0x610180604052346101675761001e610015610323565b93929092610476565b61002661016c565b6194666109c08239608051816127de015260a051816127ab015260c05181614ad7015260e05181818161194f015281816122760152818161249501528181612eb70152818161318e015281816137ad015281816138ce0152818161417b01528181614eb901528181615e5201528181615f97015281816160ee015281816162cb01528181616350015281816163f90152818161689d01528181616abd0152818161709d015281816173570152818161758f0152818161779f015281816178090152618c7e015261010051818181610e1c0152818161479601526147d601526101205181818161095f01528181611f20015281816123cb01526177d3015261014051818181610e9701528181613868015281816157180152818161579401528181615aff0152615bc50152610160518181816110a10152613472015261946690f35b610172565b60405190565b5f80fd5b601f801991011690565b634e487b7160e01b5f52604160045260245ffd5b9061019e90610176565b810190811060018060401b038211176101b657604052565b610180565b906101ce6101c761016c565b9283610194565b565b5f80fd5b60018060a01b031690565b6101e8906101d4565b90565b6101f4906101df565b90565b610200816101eb565b0361020757565b5f80fd5b90505190610218826101f7565b565b610223906101df565b90565b61022f8161021a565b0361023657565b5f80fd5b9050519061024782610226565b565b90565b61025581610249565b0361025c57565b5f80fd5b9050519061026d8261024c565b565b610278906101df565b90565b6102848161026f565b0361028b57565b5f80fd5b9050519061029c8261027b565b565b6102a7906101df565b90565b6102b38161029e565b036102ba57565b5f80fd5b905051906102cb826102aa565b565b919060a08382031261031e576102e5815f850161020b565b926102f3826020830161023a565b9261031b6103048460408501610260565b93610312816060860161028f565b936080016102be565b90565b6101d0565b610341619e2680380380610336816101bb565b9283398101906102cd565b9091929394565b60018060401b03811161036457610360602091610176565b0190565b610180565b9061037b61037683610348565b6101bb565b918252565b5f7f556e697377617020763420506f736974696f6e73204e46540000000000000000910152565b6103b16018610369565b906103be60208301610380565b565b6103c86103a7565b90565b5f7f554e492d56342d504f534d000000000000000000000000000000000000000000910152565b6103fc600b610369565b90610409602083016103cb565b565b6104136103f2565b90565b5f1b90565b906104275f1991610416565b9181191691161790565b90565b90565b61044b61044661045092610431565b610434565b610249565b90565b90565b9061046b61046661047292610437565b610453565b825461041b565b9055565b6104939394926104846103c0565b9261048d61040b565b946104a5565b61049f60016008610456565b61016052565b949290916104b394926104b9565b61014052565b93916104c593916104cb565b61012052565b9290916104d7926104dd565b61010052565b906104e892916104ea565b565b916104f592916104f7565b565b906105029291610504565b565b9061050f9291610511565b565b9061051c929161051e565b565b90610529929161052b565b565b906105369291610538565b565b906105469291809192610548565b565b90610554939291610556565b565b90610562939291610564565b565b90610570939291610572565b565b9061057e939291610580565b565b9061058c93929161058e565b565b92909161059a9261059f565b60e052565b906105aa92916105b9565b565b90565b60200190565b5190565b906105cc926105c7916105f3565b6105ac565b6105de6105d8826105b5565b916105af565b2060c0524660a0526105ee610959565b608052565b906105fd916105ff565b565b906106099161060b565b565b9061061591610617565b565b9061062191610871565b565b5190565b634e487b7160e01b5f52602260045260245ffd5b906001600283049216801561065b575b602083101461065657565b610627565b91607f169161064b565b5f5260205f2090565b601f602091010490565b1b90565b919060086106979102916106915f1984610678565b92610678565b9181191691161790565b6106b56106b06106ba92610249565b610434565b610249565b90565b91906106d36106ce6106db936106a1565b610453565b90835461067c565b9055565b5f90565b6106f5916106ef6106df565b916106bd565b565b5b818110610703575050565b806107105f6001936106e3565b016106f8565b9190601f8111610726575b505050565b61073261075793610665565b90602061073e8461066e565b8301931061075f575b6107509061066e565b01906106f7565b5f8080610721565b915061075081929050610747565b1c90565b90610781905f199060080261076d565b191690565b8161079091610771565b906002021790565b906107a281610623565b9060018060401b038211610860576107c4826107be855461063b565b85610716565b602090601f83116001146107f8579180916107e7935f926107ec575b5050610786565b90555b565b90915001515f806107e0565b601f1983169161080785610665565b925f5b8181106108485750916002939185600196941061082e575b505050020190556107ea565b61083e910151601f841690610771565b90555f8080610822565b9193602060018192878701518155019501920161080a565b610180565b9061086f91610798565b565b9061087f610886925f610865565b6001610865565b565b5f90565b7f8cad95687ba82c2ce50e74f7b754645e5117c3a5bec8151c0726d5857980a86690565b90565b6108bd90516108b0565b90565b6108d46108cf6108d9926101d4565b610434565b6101d4565b90565b6108e5906108c0565b90565b6108f1906108dc565b90565b6108fd906108b0565b9052565b61090a90610249565b9052565b610917906101df565b9052565b6109506109579461094660609498979561093c608086019a5f8701906108f4565b60208501906108f4565b6040830190610901565b019061090e565b565b610961610888565b5061096a61088c565b6109a961097760c06108b3565b9161099a46610985306108e8565b9061098e61016c565b9586946020860161091b565b60208201810382520382610194565b6109bb6109b5826105b5565b916105af565b209056fe6080604052600436101561001d575b36611bc35761001b61385c565b005b6100275f35610295565b80622a3e3a1461029057806301ffc9a71461028b57806305c1ee201461028657806306fdde0314610281578063081812fc1461027c578063095ea7b3146102775780630f5730f11461027257806312261ee71461026d57806316a24131146102685780631efeed331461026357806323b872dd1461025e5780632b67b570146102595780632b9261de146102545780633644e5151461024f5780633aea60f01461024a57806342842e0e146102455780634767565f146102405780634aa4a4fc1461023b5780634afe393c14610236578063502e1a16146102315780635a9d7a681461022c5780636352211e1461022757806370a082311461022257806375794a3c1461021d5780637ba03aad1461021857806386b6be7d1461021357806389097a6a1461020e57806391dd73461461020957806395d89b4114610204578063a22cb465146101ff578063ac9650d8146101fa578063ad0b27fb146101f5578063b88d4fde146101f0578063c87b56dd146101eb578063d737d0c7146101e6578063dc4c90d3146101e1578063dd46508f146101dc578063e985e9c5146101d75763f70204050361000e57611b97565b611ae9565b611a19565b61199f565b611918565b6118e3565b6118ac565b611823565b6117f7565b6116ae565b61164c565b611607565b61159c565b6114f6565b6112ca565b6111bd565b611179565b611126565b6110f1565b611069565b610fba565b610ee7565b610e60565b610de6565b610db6565b610ce2565b610c90565b610c0f565b610b75565b610b06565b610a9a565b6109d7565b61092d565b610889565b610827565b61074d565b61053f565b6104c1565b61041a565b60e01c90565b60405190565b5f80fd5b5f80fd5b60018060a01b031690565b6102bd906102a9565b90565b6102c9816102b4565b036102d057565b5f80fd5b905035906102e1826102c0565b565b5f80fd5b908160609103126102f55790565b6102e3565b5f80fd5b5f80fd5b5f80fd5b909182601f830112156103405781359167ffffffffffffffff831161033b57602001926001830284011161033657565b610302565b6102fe565b6102fa565b916060838303126103aa5761035c825f85016102d4565b92602081013567ffffffffffffffff81116103a5578361037d9183016102e7565b92604082013567ffffffffffffffff81116103a05761039c9201610306565b9091565b6102a5565b6102a5565b6102a1565b5190565b60209181520190565b90825f9392825e0152565b601f801991011690565b6103f06103f96020936103fe936103e7816103af565b938480936103b3565b958691016103bc565b6103c7565b0190565b6104179160208201915f8184039101526103d1565b90565b61044561043461042b366004610345565b92919091611f0e565b61043c61029b565b91829182610402565b0390f35b5f80fd5b63ffffffff60e01b1690565b6104628161044d565b0361046957565b5f80fd5b9050359061047a82610459565b565b9060208282031261049557610492915f0161046d565b90565b6102a1565b151590565b6104a89061049a565b9052565b91906104bf905f6020850194019061049f565b565b346104f1576104ed6104dc6104d736600461047c565b612043565b6104e461029b565b918291826104ac565b0390f35b610449565b90565b610502816104f6565b0361050957565b5f80fd5b9050359061051a826104f9565b565b9060208282031261053557610532915f0161050d565b90565b6102a1565b5f0190565b61055261054d36600461051c565b6120b4565b61055a61029b565b806105648161053a565b0390f35b5f91031261057257565b6102a1565b634e487b7160e01b5f525f60045260245ffd5b634e487b7160e01b5f52602260045260245ffd5b90600160028304921680156105be575b60208310146105b957565b61058a565b91607f16916105ae565b60209181520190565b5f5260205f2090565b905f92918054906105f46105ed8361059e565b80946105c8565b916001811690815f1461064b575060011461060f575b505050565b61061c91929394506105d1565b915f925b81841061063357505001905f808061060a565b60018160209295939554848601520191019290610620565b92949550505060ff19168252151560200201905f808061060a565b90610670916105da565b90565b634e487b7160e01b5f52604160045260245ffd5b90610691906103c7565b810190811067ffffffffffffffff8211176106ab57604052565b610673565b906106d06106c9926106c061029b565b93848092610666565b0383610687565b565b905f106106e5576106e2906106b0565b90565b610577565b6106f45f806106d2565b90565b5190565b60209181520190565b61072361072c6020936107319361071a816106f7565b938480936106fb565b958691016103bc565b6103c7565b0190565b61074a9160208201915f818403910152610704565b90565b3461077d5761075d366004610568565b6107796107686106ea565b61077061029b565b91829182610735565b0390f35b610449565b90565b61079961079461079e926104f6565b610782565b6104f6565b90565b906107ab90610785565b5f5260205260405f2090565b1c90565b60018060a01b031690565b6107d69060086107db93026107b7565b6107bb565b90565b906107e991546107c6565b90565b610802906107fd6004915f926107a1565b6107de565b90565b61080e906102b4565b9052565b9190610825905f60208501940190610805565b565b346108575761085361084261083d36600461051c565b6107ec565b61084a61029b565b91829182610812565b0390f35b610449565b91906040838203126108845780610878610881925f86016102d4565b9360200161050d565b90565b6102a1565b346108b8576108a261089c36600461085c565b90612102565b6108aa61029b565b806108b48161053a565b0390f35b610449565b91909160a081840312610928576108d6835f83016102d4565b926108e4816020840161050d565b926108f2826040850161050d565b92610900836060830161050d565b92608082013567ffffffffffffffff81116109235761091f9201610306565b9091565b6102a5565b6102a1565b61094761093b3660046108bd565b94939093929192612225565b61094f61029b565b806109598161053a565b0390f35b7f000000000000000000000000000000000000000000000000000000000000000090565b61099561099061099a926102a9565b610782565b6102a9565b90565b6109a690610981565b90565b6109b29061099d565b90565b6109be906109a9565b9052565b91906109d5905f602085019401906109b5565b565b34610a07576109e7366004610568565b610a036109f261095d565b6109fa61029b565b918291826109c2565b0390f35b610449565b90610a1690610785565b5f5260205260405f2090565b60018060a01b031690565b610a3d906008610a4293026107b7565b610a22565b90565b90610a509154610a2d565b90565b610a6990610a646007915f92610a0c565b610a45565b90565b610a759061099d565b90565b610a8190610a6c565b9052565b9190610a98905f60208501940190610a78565b565b34610aca57610ac6610ab5610ab036600461051c565b610a53565b610abd61029b565b91829182610a85565b0390f35b610449565b6fffffffffffffffffffffffffffffffff1690565b610aed90610acf565b9052565b9190610b04905f60208501940190610ae4565b565b34610b3657610b32610b21610b1c36600461051c565b612239565b610b2961029b565b91829182610af1565b0390f35b610449565b9091606082840312610b7057610b6d610b56845f85016102d4565b93610b6481602086016102d4565b9360400161050d565b90565b6102a1565b34610ba457610b8e610b88366004610b3b565b91612326565b610b9661029b565b80610ba08161053a565b0390f35b610449565b908160c0910312610bb75790565b6102e3565b9161010083830312610c0a57610bd4825f85016102d4565b92610be28360208301610ba9565b9260e082013567ffffffffffffffff8111610c0557610c019201610306565b9091565b6102a5565b6102a1565b610c3a610c29610c20366004610bbc565b929190916123b9565b610c3161029b565b91829182610402565b0390f35b91606083830312610c8b57610c55825f850161050d565b92610c6383602083016102d4565b92604082013567ffffffffffffffff8111610c8657610c829201610306565b9091565b6102a5565b6102a1565b610ca7610c9e366004610c3e565b92919091612787565b610caf61029b565b80610cb98161053a565b0390f35b90565b610cc990610cbd565b9052565b9190610ce0905f60208501940190610cc0565b565b34610d1257610cf2366004610568565b610d0e610cfd612799565b610d0561029b565b91829182610ccd565b0390f35b610449565b610d208161049a565b03610d2757565b5f80fd5b90503590610d3882610d17565b565b9160c083830312610db157610d51825f85016102d4565b92610d5f83602083016102d4565b92610d6d8160408401610d2b565b92610d7b826060850161050d565b92610d89836080830161050d565b9260a082013567ffffffffffffffff8111610dac57610da89201610306565b9091565b6102a5565b6102a1565b610dd0610dc4366004610d3a565b95949094939193612895565b610dd861029b565b80610de28161053a565b0390f35b34610e1557610dff610df9366004610b3b565b916129e6565b610e0761029b565b80610e118161053a565b0390f35b610449565b7f000000000000000000000000000000000000000000000000000000000000000090565b610e47906104f6565b9052565b9190610e5e905f60208501940190610e3e565b565b34610e9057610e70366004610568565b610e8c610e7b610e1a565b610e8361029b565b91829182610e4b565b0390f35b610449565b7f000000000000000000000000000000000000000000000000000000000000000090565b610ec29061099d565b90565b610ece90610eb9565b9052565b9190610ee5905f60208501940190610ec5565b565b34610f1757610ef7366004610568565b610f13610f02610e95565b610f0a61029b565b91829182610ed2565b0390f35b610449565b909182601f83011215610f565781359167ffffffffffffffff8311610f51576020019260208302840111610f4c57565b610302565b6102fe565b6102fa565b9091604082840312610fb5575f82013567ffffffffffffffff8111610fb05783610f86918401610306565b929093602082013567ffffffffffffffff8111610fab57610fa79201610f1c565b9091565b6102a5565b6102a5565b6102a1565b610fd1610fc8366004610f5b565b92919091612b45565b610fd961029b565b80610fe38161053a565b0390f35b610ff09061099d565b90565b90610ffd90610fe7565b5f5260205260405f2090565b9061101390610785565b5f5260205260405f2090565b90565b61103290600861103793026107b7565b61101f565b90565b906110459154611022565b90565b6110616110669261105c6006935f94610ff3565b611009565b61103a565b90565b3461109a5761109661108561107f36600461085c565b90611048565b61108d61029b565b91829182610e4b565b0390f35b610449565b7f000000000000000000000000000000000000000000000000000000000000000090565b6110cc9061099d565b90565b6110d8906110c3565b9052565b91906110ef905f602085019401906110cf565b565b3461112157611101366004610568565b61111d61110c61109f565b61111461029b565b918291826110dc565b0390f35b610449565b346111565761115261114161113c36600461051c565b612bd9565b61114961029b565b91829182610812565b0390f35b610449565b9060208282031261117457611171915f016102d4565b90565b6102a1565b346111a9576111a561119461118f36600461115b565b612cda565b61119c61029b565b91829182610e4b565b0390f35b610449565b6111ba60085f9061103a565b90565b346111ed576111cd366004610568565b6111e96111d86111ae565b6111e061029b565b91829182610e4b565b0390f35b610449565b6111fb90610fe7565b9052565b62ffffff1690565b611210906111ff565b9052565b60020b90565b61122390611214565b9052565b6112309061099d565b90565b61123c90611227565b9052565b90608080611298936112585f8201515f8601906111f2565b61126a602082015160208601906111f2565b61127c60408201516040860190611207565b61128e6060820151606086019061121a565b0151910190611233565b565b6112a390610785565b9052565b9160a06112c89294936112c160c08201965f830190611240565b019061129a565b565b346112fb576112e26112dd36600461051c565b612e65565b906112f76112ee61029b565b928392836112a7565b0390f35b610449565b66ffffffffffffff191690565b61131681611300565b0361131d57565b5f80fd5b9050359061132e8261130d565b565b9060208282031261134957611346915f01611321565b90565b6102a1565b61135790611300565b90565b906113649061134e565b5f5260205260405f2090565b5f1c90565b60018060a01b031690565b61138c61139191611370565b611375565b90565b61139e9054611380565b90565b60a01c90565b62ffffff1690565b6113bb6113c0916113a1565b6113a7565b90565b6113cd90546113af565b90565b60b81c90565b60020b90565b6113e86113ed916113d0565b6113d6565b90565b6113fa90546113dc565b90565b60018060a01b031690565b61141461141991611370565b6113fd565b90565b6114269054611408565b90565b61143490600a61135a565b61143f5f8201611394565b9161144c60018301611394565b91611459600182016113c3565b91611472600261146b600185016113f0565b930161141c565b90565b61147e90610fe7565b9052565b61148b906111ff565b9052565b61149890611214565b9052565b6114a590611227565b9052565b909594926114f4946114e36114ed926114d96080966114cf60a088019c5f890190611475565b6020870190611475565b6040850190611482565b606083019061148f565b019061149c565b565b3461152a5761152661151161150c366004611330565b611429565b9161151d95939561029b565b958695866114a9565b0390f35b610449565b9061153990610785565b5f5260205260405f2090565b90565b61155890600861155d93026107b7565b611545565b90565b9061156b9154611548565b90565b6115849061157f6009915f9261152f565b611560565b90565b919061159a905f6020850194019061129a565b565b346115cc576115c86115b76115b236600461051c565b61156e565b6115bf61029b565b91829182611587565b0390f35b610449565b90602082820312611602575f82013567ffffffffffffffff81116115fd576115f99201610306565b9091565b6102a5565b6102a1565b346116385761163461162361161d3660046115d1565b90612f22565b61162b61029b565b91829182610402565b0390f35b610449565b61164960015f906106d2565b90565b3461167c5761165c366004610568565b61167861166761163d565b61166f61029b565b91829182610735565b0390f35b610449565b91906040838203126116a9578061169d6116a6925f86016102d4565b93602001610d2b565b90565b6102a1565b346116dd576116c76116c1366004611681565b90612f37565b6116cf61029b565b806116d98161053a565b0390f35b610449565b90602082820312611713575f82013567ffffffffffffffff811161170e5761170a9201610f1c565b9091565b6102a5565b6102a1565b5190565b60209181520190565b60200190565b60209181520190565b61175361175c6020936117619361174a816103af565b9384809361172b565b958691016103bc565b6103c7565b0190565b9061176f91611734565b90565b60200190565b9061178c61178583611718565b809261171c565b908161179d60208302840194611725565b925f915b8383106117b057505050505090565b909192939460206117d26117cc83856001950387528951611765565b97611772565b93019301919392906117a1565b6117f49160208201915f818403910152611778565b90565b61181f61180e6118083660046116e2565b906130c2565b61181661029b565b918291826117df565b0390f35b61183661183136600461051c565b61322b565b61183e61029b565b806118488161053a565b0390f35b906080828203126118a757611863815f84016102d4565b9261187182602085016102d4565b9261187f836040830161050d565b92606082013567ffffffffffffffff81116118a25761189e9201610306565b9091565b6102a5565b6102a1565b346118de576118c86118bf36600461184c565b9392909261327a565b6118d061029b565b806118da8161053a565b0390f35b610449565b346119135761190f6118fe6118f936600461051c565b613463565b61190661029b565b91829182610735565b0390f35b610449565b3461194857611928366004610568565b611944611933613502565b61193b61029b565b91829182610812565b0390f35b610449565b7f000000000000000000000000000000000000000000000000000000000000000090565b61197a9061099d565b90565b61198690611971565b9052565b919061199d905f6020850194019061197d565b565b346119cf576119af366004610568565b6119cb6119ba61194d565b6119c261029b565b9182918261198a565b0390f35b610449565b91604083830312611a14575f83013567ffffffffffffffff8111611a0f57611a0183611a0c928601610306565b93909460200161050d565b90565b6102a5565b6102a1565b611a2d611a273660046119d4565b916135d5565b611a3561029b565b80611a3f8161053a565b0390f35b9190604083820312611a6b5780611a5f611a68925f86016102d4565b936020016102d4565b90565b6102a1565b90611a7a90610fe7565b5f5260205260405f2090565b90611a9090610fe7565b5f5260205260405f2090565b60ff1690565b611ab2906008611ab793026107b7565b611a9c565b90565b90611ac59154611aa2565b90565b611ae1611ae692611adc6005935f94611a70565b611a86565b611aba565b90565b34611b1a57611b16611b05611aff366004611a43565b90611ac8565b611b0d61029b565b918291826104ac565b0390f35b610449565b908160a0910312611b2d5790565b6102e3565b611b3b816102a9565b03611b4257565b5f80fd5b90503590611b5382611b32565b565b919060c083820312611b7d5780611b71611b7a925f8601611b1f565b9360a001611b46565b90565b6102a1565b9190611b95905f6020850194019061148f565b565b611bbf611bae611ba8366004611b55565b9061379a565b611bb661029b565b91829182611b82565b0390f35b5f80fd5b606090565b5f80fd5b60e01b90565b5f910312611be057565b6102a1565b5f80fd5b5f80fd5b5f80fd5b9035600160200382360303811215611c3257016020813591019167ffffffffffffffff8211611c2d576080820236038313611c2857565b611be9565b611be5565b611bed565b60209181520190565b90565b50611c529060208101906102d4565b90565b611c5e906102b4565b9052565b50611c71906020810190611b46565b90565b611c7d906102a9565b9052565b65ffffffffffff1690565b611c9581611c81565b03611c9c57565b5f80fd5b90503590611cad82611c8c565b565b50611cbe906020810190611ca0565b90565b611cca90611c81565b9052565b906060611d2d611d3593611cf0611ce75f830183611c43565b5f860190611c55565b611d0a611d006020830183611c62565b6020860190611c74565b611d24611d1a6040830183611caf565b6040860190611cc1565b82810190611caf565b910190611cc1565b565b90611d4481608093611cce565b0190565b5090565b60800190565b91611d6082611d6692611c37565b92611c40565b90815f905b828210611d79575050505090565b90919293611d9b611d95600192611d908886611d48565b611d37565b95611d4c565b920190929192611d6b565b50611db590602081019061050d565b90565b611dc1906104f6565b9052565b90611e1b906040611e13611def60608401611de25f880188611bf1565b908683035f880152611d52565b94611e0a611e006020830183611c43565b6020860190611c55565b82810190611da6565b910190611db8565b90565b90825f939282370152565b9190611e4381611e3c81611e48956103b3565b8095611e1e565b6103c7565b0190565b9290611e7590611e839593611e6860608701925f880190610805565b8582036020870152611dc5565b926040818503910152611e29565b90565b611e8e61029b565b3d5f823e3d90fd5b90611ea9611ea261029b565b9283610687565b565b67ffffffffffffffff8111611ec957611ec56020916103c7565b0190565b610673565b90611ee0611edb83611eab565b611e96565b918252565b3d5f14611f0057611ef53d611ece565b903d5f602084013e5b565b611f08611bc7565b90611efe565b90939293611f1a611bc7565b94611f447f00000000000000000000000000000000000000000000000000000000000000006109a9565b90632a2d80d193929490823b15611fdd575f94611f7f8692611f7494611f6861029b565b998a9889978896611bd0565b865260048601611e4c565b03925af19081611fb1575b50155f14611fac576001611f9c575b5b565b9050611fa6611ee5565b90611f99565b611f9a565b611fd0905f3d8111611fd6575b611fc88183610687565b810190611bd6565b5f611f8a565b503d611fbe565b611bcc565b5f90565b90565b611ffd611ff861200292611fe6565b611bd0565b61044d565b90565b90565b61201c61201761202192612005565b611bd0565b61044d565b90565b90565b61203b61203661204092612024565b611bd0565b61044d565b90565b61204b611fe2565b508061206361205d6301ffc9a7611fe9565b9161044d565b148015612096575b908115612077575b5090565b905061208f612089635b5e139f612027565b9161044d565b145f612073565b50806120ae6120a86380ac58cd612008565b9161044d565b1461206b565b6120be9033613a0b565b565b6120cc6120d191611370565b6107bb565b90565b6120de90546120c0565b90565b6120ed6120f291611370565b611a9c565b90565b6120ff90546120e1565b90565b612116612111600284906107a1565b6120d4565b913361212a612124856102b4565b916102b4565b14158061215f575b6121445761214292919091613ac4565b565b5f6282b42960e81b81528061215b6004820161053a565b0390fd5b5061218761218161217c61217560058790611a70565b3390611a86565b6120f5565b1561049a565b612132565b9493929190816121a561219f42926104f6565b916104f6565b116121b5576121b3956121d1565b565b5f635a9165ff60e01b8152806121cd6004820161053a565b0390fd5b93926122156122239661221b939561220d6122056121f96121f460028b906107a1565b6120d4565b978a908a889192613b31565b919291613ba2565b908692613e5d565b82613a0b565b919091613ac4565b565b90612233959493929161218c565b565b5f90565b61226c90612245612235565b5061224f81612e65565b919091909161226661226083614109565b9261411b565b92614149565b90565b919061229a7f000000000000000000000000000000000000000000000000000000000000000061423e565b6122a9576122a7926122e6565b565b5f6306a582ff60e51b8152806122c16004820161053a565b0390fd5b6122d16122d691611370565b611545565b90565b6122e390546122c5565b90565b906122f3919083916144d8565b61230f61230a6123056009849061152f565b6122d9565b61467b565b612317575b50565b612320906146c4565b5f612314565b90612331929161226f565b565b9060a06123786123809361235561234c5f830183611d48565b5f860190611cce565b61236f6123656080830183611c43565b6080860190611c55565b82810190611da6565b910190611db8565b565b6123a96123b6959394929461239f6101008401965f850190610805565b6020830190612333565b60e0818503910152611e29565b90565b909392936123c5611bc7565b946123ef7f00000000000000000000000000000000000000000000000000000000000000006109a9565b90632b67b57093929490823b15612488575f9461242a869261241f9461241361029b565b998a9889978896611bd0565b865260048601612382565b03925af1908161245c575b50155f14612457576001612447575b5b565b9050612451611ee5565b90612444565b612445565b61247b905f3d8111612481575b6124738183610687565b810190611bd6565b5f612435565b503d612469565b611bcc565b9291906124b97f000000000000000000000000000000000000000000000000000000000000000061423e565b6124c8576124c6936124e4565b565b5f6306a582ff60e51b8152806124e06004820161053a565b0390fd5b9392919033946124fd6124f782886148b1565b1561049a565b61250e5761250c94955061264b565b565b612529865f9182916301952d1b60e31b835260048301610812565b0390fd5b61253961253e91611370565b610a22565b90565b61254b905461252d565b90565b90565b61256561256061256a9261254e565b610782565b6102a9565b90565b61257690612551565b90565b61258290610981565b90565b61258e90612579565b90565b6125a261259d5f61256d565b612585565b90565b6125ae906102b4565b90565b9160206125d29294936125cb60408201965f830190610e3e565b0190610805565b565b5f1b90565b906125ea60018060a01b03916125d4565b9181191691161790565b6125fd90612579565b90565b90565b9061261861261361261f926125f4565b612600565b82546125d9565b9055565b9161264893919261263b60408201945f830190610e3e565b6020818503910152611e29565b90565b9192909261266361265e60078590610a0c565b612541565b8061267d612677612672612591565b6125a5565b916125a5565b0361275e57506126f7916126f19161269485614969565b6126b16126a087612585565b6126ac60078890610a0c565b612603565b6126ec86916126dd8791946126c461029b565b9586936004602086016346abfb5960e11b815201612623565b60208201810382520383610687565b61499b565b1561049a565b612747579061272f6127297f9709492381f90bdc5938bb4e3b8e35b7e0eac8af058619e27191c5a40ce79fa993610785565b91610fe7565b9161273861029b565b806127428161053a565b0390a3565b506346abfb5960e11b6340f52f4f60e11b916149dc565b6127688491610a6c565b906127835f9283926312fdec5f60e11b8452600484016125b1565b0390fd5b9061279393929161248d565b565b5f90565b6127a1612795565b50466127d56127cf7f00000000000000000000000000000000000000000000000000000000000000006104f6565b916104f6565b145f14612801577f00000000000000000000000000000000000000000000000000000000000000005b90565b612809614ac1565b6127fe565b9594939291908261282861282242926104f6565b916104f6565b116128385761283696612854565b565b5f635a9165ff60e01b8152806128506004820161053a565b0390fd5b926128939661288b9395929661287d612875612885948a908a889192614b3e565b919291613ba2565b908692613e5d565b82613a0b565b919091614bf7565b565b906128a496959493929161280e565b565b6128ba6128b56128bf9261254e565b610782565b6104f6565b90565b6128cb90610981565b90565b6128d7906128c2565b90565b6128e39061099d565b90565b905051906128f382610459565b565b9060208282031261290e5761290b915f016128e6565b90565b6102a1565b61291e5f80926103b3565b0190565b90916129619361294a6129549261294060808601965f870190610805565b6020850190610805565b6040830190610e3e565b6060818303910152612913565b90565b5f7f554e534146455f524543495049454e5400000000000000000000000000000000910152565b61299860106020926106fb565b6129a181612964565b0190565b6129ba9060208101905f81830391015261298b565b90565b156129c457565b6129cc61029b565b62461bcd60e51b8152806129e2600482016129a5565b0390fd5b6129f281838591612326565b813b612a06612a005f6128a6565b916104f6565b14918215612a1d575b5050612a1b91506129bd565b565b60209250612a2d612a32916128ce565b6128da565b612a555f63150b7a02612a60339597612a4961029b565b98899788968795611bd0565b855260048501612922565b03925af18015612ac557612a1b915f91612a97575b50612a8f612a89630a85bd0160e11b61044d565b9161044d565b145f80612a0f565b612ab8915060203d8111612abe575b612ab08183610687565b8101906128f5565b5f612a75565b503d612aa6565b611e86565b929190612ad5614c69565b612aef612ae9612ae45f61256d565b6102b4565b916102b4565b03612b1957612b0693612b0133614c97565b612b35565b612b17612b125f61256d565b614c97565b565b5f6337affdbf60e11b815280612b316004820161053a565b0390fd5b91612b439391909192614cbb565b565b90612b51939291612aca565b565b5f90565b5f7f4e4f545f4d494e54454400000000000000000000000000000000000000000000910152565b612b8b600a6020926106fb565b612b9481612b57565b0190565b612bad9060208101905f818303910152612b7e565b90565b15612bb757565b612bbf61029b565b62461bcd60e51b815280612bd560048201612b98565b0390fd5b612bf0612bf591612be8612b53565b5060026107a1565b6120d4565b90612c1b82612c14612c0e612c095f61256d565b6102b4565b916102b4565b1415612bb0565b565b5f90565b5f7f5a45524f5f414444524553530000000000000000000000000000000000000000910152565b612c55600c6020926106fb565b612c5e81612c21565b0190565b612c779060208101905f818303910152612c48565b90565b15612c8157565b612c8961029b565b62461bcd60e51b815280612c9f60048201612c62565b0390fd5b90612cad90610fe7565b5f5260205260405f2090565b612cc5612cca91611370565b61101f565b90565b612cd79054612cb9565b90565b612d16612d1b91612ce9612c1d565b50612d0f81612d08612d02612cfd5f61256d565b6102b4565b916102b4565b1415612c7a565b6003612ca3565b612ccd565b90565b612d2860a0611e96565b90565b5f90565b5f90565b5f90565b5f90565b612d43612d1e565b9060208080808086612d53612d2b565b815201612d5e612d2b565b815201612d69612d2f565b815201612d74612d33565b815201612d7f612d37565b81525050565b612d8d612d3b565b90565b5f90565b90612d9e906102b4565b9052565b90612dac906111ff565b9052565b90612dba90611214565b9052565b612dc7906102b4565b90565b90612dd490612dbe565b9052565b90612e57612e4e6002612de9612d1e565b94612e00612df85f8301611394565b5f8801612d94565b612e18612e0f60018301611394565b60208801612d94565b612e30612e27600183016113c3565b60408801612da2565b612e48612e3f600183016113f0565b60608801612db0565b0161141c565b60808401612dca565b565b612e6290612dd8565b90565b612e85612e8a91612e74612d85565b50612e7d612d90565b50600961152f565b6122d9565b612ea6612ea1600a612e9b84614d81565b9061135a565b612e59565b91565b919033612ee6612ee0612edb7f0000000000000000000000000000000000000000000000000000000000000000611971565b6102b4565b916102b4565b03612ef757612ef492612f13565b90565b5f63570c108560e11b815280612f0f6004820161053a565b0390fd5b90612f1f929150614dc5565b90565b90612f3491612f2f611bc7565b612ea9565b90565b612f449133919091614bf7565b565b606090565b5090565b67ffffffffffffffff8111612f675760208091020190565b610673565b90612f7e612f7983612f4f565b611e96565b918252565b606090565b5f5b828110612f9657505050565b602090612fa1612f83565b8184015201612f8a565b90612fd0612fb883612f6c565b92602080612fc68693612f4f565b9201910390612f88565b565b6001612fde91016104f6565b90565b612fea9061099d565b90565b634e487b7160e01b5f52603260045260245ffd5b5f80fd5b5f80fd5b5f80fd5b90359060016020038136030382121561304f570180359067ffffffffffffffff821161304a5760200191600182023603831361304557565b613009565b613005565b613001565b9082101561306f57602061306b920281019061300d565b9091565b612fed565b905090565b9091826130898161309093613074565b8093611e1e565b0190565b909161309f92613079565b90565b906130ac82611718565b8110156130bd576020809102010190565b612fed565b9190916130cd612f46565b506130e16130dc828590612f4b565b612fab565b926130eb5f6128a6565b5b806131096131036130fe868690612f4b565b6104f6565b916104f6565b1015613184575f8061311a30612fe1565b61312686868691613054565b9061313b61313261029b565b92839283613094565b03915af461315161314a611ee5565b911561049a565b61317c57906131706131779287839161316a83836130a2565b526130a2565b5150612fd2565b6130ec565b602081519101fd5b505050565b6131b27f000000000000000000000000000000000000000000000000000000000000000061423e565b6131c1576131bf906131dd565b565b5f6306a582ff60e51b8152806131d96004820161053a565b0390fd5b336131f16131eb83836148b1565b1561049a565b61320157506131ff90613220565b565b61321c905f9182916301952d1b60e31b835260048301610812565b0390fd5b613229906146c4565b565b61323490613189565b565b909391613277959361326061326a9261325660808601985f870190610805565b6020850190610805565b6040830190610e3e565b6060818503910152611e29565b90565b919392909261328b83858791612326565b833b61329f6132995f6128a6565b916104f6565b149384156132b8575b505050506132b691506129bd565b565b602094506132f6916133016132d56132d05f946128ce565b6128da565b9463150b7a02923397999190916132ea61029b565b9a8b998a988997611bd0565b875260048701613236565b03925af18015613368576132b6915f9161333a575b5061333061332a630a85bd0160e11b61044d565b9161044d565b145f8080806132a8565b61335b915060203d8111613361575b6133538183610687565b8101906128f5565b5f613316565b503d613349565b611e86565b606090565b5f80fd5b67ffffffffffffffff8111613394576133906020916103c7565b0190565b610673565b909291926133ae6133a982613376565b611e96565b938185526020850190828401116133ca576133c8926103bc565b565b613372565b9080601f830112156133ed578160206133ea93519101613399565b90565b6102fa565b90602082820312613422575f82015167ffffffffffffffff811161341d5761341a92016133cf565b90565b6102a5565b6102a1565b6134309061099d565b90565b61343c90613427565b9052565b91602061346192949361345a60408201965f830190613433565b0190610e3e565b565b61346b61336d565b505f6134967f00000000000000000000000000000000000000000000000000000000000000006110c3565b9163e9dc6375926134ba3092946134c56134ae61029b565b96879586948594611bd0565b845260048401613440565b03915afa9081156134fd575f916134db575b5090565b6134f791503d805f833e6134ef8183610687565b8101906133f2565b5f6134d7565b611e86565b61350a612b53565b50613513614df5565b90565b9190613520614c69565b61353a61353461352f5f61256d565b6102b4565b916102b4565b03613564576135519261354c33614c97565b613580565b61356261355d5f61256d565b614c97565b565b5f6337affdbf60e11b81528061357c6004820161053a565b0390fd5b929190819342613598613592876104f6565b916104f6565b116135aa576135a89394506135c9565b565b6135c5855f91829163bfb22adf60e01b835260048301610e4b565b0390fd5b6135d39250614eb1565b565b906135e09291613516565b565b5f90565b6135ef81611214565b036135f657565b5f80fd5b90505190613607826135e6565b565b906020828203126136225761361f915f016135fa565b90565b6102a1565b613630816102b4565b0361363757565b5f80fd5b9050359061364882613627565b565b5061365990602081019061363b565b90565b613665816111ff565b0361366c57565b5f80fd5b9050359061367d8261365c565b565b5061368e906020810190613670565b90565b9050359061369e826135e6565b565b506136af906020810190613691565b90565b6136bb81612dbe565b036136c257565b5f80fd5b905035906136d3826136b2565b565b506136e49060208101906136c6565b90565b906080613760613768936137096137005f83018361364a565b5f8601906111f2565b613723613719602083018361364a565b60208601906111f2565b61373d613733604083018361367f565b6040860190611207565b61375761374d60608301836136a0565b606086019061121a565b828101906136d5565b910190611233565b565b613773906102a9565b9052565b9160a061379892949361379160c08201965f8301906136e7565b019061376a565b565b91909160206137a76135e2565b936137d17f0000000000000000000000000000000000000000000000000000000000000000611971565b6137f45f636276cbbe9593956137ff6137e861029b565b97889687958694611bd0565b845260048401613777565b03925af180915f9261382c575b50155f146138265750600161381d57565b9050627fffff90565b90915090565b61384e91925060203d8111613855575b6138468183610687565b810190613609565b905f61380c565b503d61383c565b3361389761389161388c7f0000000000000000000000000000000000000000000000000000000000000000610eb9565b6102b4565b916102b4565b1415806138c1575b6138a557565b5f631c5deabb60e11b8152806138bd6004820161053a565b0390fd5b50336138fd6138f76138f27f0000000000000000000000000000000000000000000000000000000000000000611971565b6102b4565b916102b4565b141561389f565b90565b60ff1690565b61392161391c61392692613904565b610782565b613907565b90565b6139489061394261393c61394d94613907565b916104f6565b906107b7565b6104f6565b90565b61396461395f613969926104f6565b610782565b613907565b90565b61398061397b61398592613907565b610782565b6104f6565b90565b90565b61399f61399a6139a492613988565b610782565b6104f6565b90565b1b90565b6139ca906139c46139be6139cf946104f6565b916104f6565b906139a7565b6104f6565b90565b906139de5f19916125d4565b9181191691161790565b90565b90613a006139fb613a0792610785565b6139e8565b82546139d2565b9055565b613a6c613a5a613a48613a39613a34613a2e87613a28600861390d565b90613929565b96613950565b61396c565b613a43600161398b565b6139ab565b93613a5585946006610ff3565b611009565b91613a6483612ccd565b1880926139eb565b16613a7f613a795f6128a6565b916104f6565b14613a8657565b5f623f613760e71b815280613a9d6004820161053a565b0390fd5b90565b90613ab9613ab4613ac092610fe7565b613aa1565b82546125d9565b9055565b919091613adc83613ad7600485906107a1565b613aa4565b91613b19613b13613b0d7f8c5be1e5ebec7d5bd14f71427d1e84f3dd0314c0f7b2291e5b200ac8c7c3b92595610fe7565b92610fe7565b92610785565b92613b2261029b565b80613b2c8161053a565b0390a4565b93929190613b3d612795565b50604051947f49ecf333e5b8c95c40fdafc95c1ad136e8914a8fb55e9dc8bb01eaa83a2df9ad865260018060a01b031660208601526040850152606084015260808301525f608060a08420938281528260208201528260408201528260608201520152565b90613bab612795565b50613bb4612799565b91604051927f19010000000000000000000000000000000000000000000000000000000000008452600284015260228301525f604060428420938281528260208201520152565b5f90565b613c0890610981565b90565b613c1490613bff565b90565b613c209061099d565b90565b91613c48939192613c3b60408201945f830190610cc0565b6020818503910152611e29565b90565b5090565b90565b613c66613c61613c6b92613c4f565b610782565b6104f6565b90565b90565b613c85613c80613c8a92613c6e565b610782565b6104f6565b90565b613c9681610cbd565b03613c9d57565b5f80fd5b90503590613cae82613c8d565b565b9190604083820312613cd85780613ccc613cd5925f8601613ca1565b93602001613ca1565b90565b6102a1565b90565b613cf4613cef613cf992613cdd565b6125d4565b610cbd565b90565b613d0b60018060ff1b03613ce0565b90565b90565b613d25613d20613d2a92613d0e565b610782565b613907565b90565b613d4c90613d46613d40613d5194613907565b91610cbd565b906107b7565b610cbd565b90565b613d60613d6591611370565b610785565b90565b90565b613d7f613d7a613d8492613d68565b610782565b613907565b90565b634e487b7160e01b5f52601160045260245ffd5b613da7613dad91613907565b91613907565b019060ff8211613db957565b613d87565b9190811015613dce576001020190565b612fed565b60ff60f81b1690565b60f81c90565b613df6613df1613dfb92613907565b610782565b613907565b90565b613e0a613e0f91613ddc565b613de2565b90565b613e1b90613907565b9052565b613e54613e5b94613e4a606094989795613e40608086019a5f870190610cc0565b6020850190613e12565b6040830190610cc0565b0190610cc0565b565b90613e66612795565b50613e6f612795565b50613e78613bfb565b50833b613e8d613e875f6128a6565b916104f6565b145f1461404557613e9f828290613c4b565b613eb2613eac6041613c52565b916104f6565b145f14613f9c5790602092613f0c5f93613ef7613ef2613eec613ed88785810190613cb0565b94909790613ee66040613c71565b91613dbe565b35613dd3565b613dfe565b925b9293613f0361029b565b94859485613e1f565b838052039060015afa15613f9757613f245f516125d4565b80613f3f613f39613f345f61256d565b6102b4565b916102b4565b14613f7b57613f51613f5791926102b4565b916102b4565b03613f5f575b565b5f632057875960e21b815280613f776004820161053a565b0390fd5b5f638baa579f60e01b815280613f936004820161053a565b0390fd5b611e86565b613fa7828290613c4b565b613fba613fb46040613c71565b916104f6565b145f1461402957602092613fdf613f0c925f94613fd5612795565b5090810190613cb0565b92909261402361401361400e61400984613ff7613cfc565b169461400360ff613d11565b90613d2d565b613d54565b613950565b61401d601b613d6b565b90613d9b565b92613ef9565b5f634be6321b60e01b8152806140416004820161053a565b0390fd5b929161407d61405d614058602095613c0b565b613c17565b91614088631626ba7e91949661407161029b565b97889687958695611bd0565b855260048501613c23565b03915afa908115614104575f916140d6575b506140b46140ae630b135d3f60e11b61044d565b9161044d565b0315613f5d575f632c19a72f60e21b8152806140d26004820161053a565b0390fd5b6140f7915060203d81116140fd575b6140ef8183610687565b8101906128f5565b5f61409a565b503d6140e5565b611e86565b6141116135e2565b5060081c60020b90565b6141236135e2565b5060201c60020b90565b61414161413c614146926104f6565b6125d4565b610cbd565b90565b9161417691926141a79461415b612235565b5061417061416830613427565b93919261412d565b92614f42565b6141a07f000000000000000000000000000000000000000000000000000000000000000092614f80565b9091614fac565b90565b90565b6141c16141bc6141c6926141aa565b6125d4565b610cbd565b90565b6141f27fc090fc4683624cfc3884e9d8de5eca132f2d0ec062aff75d43c0465d5ceeab236141ad565b90565b9050519061420282613c8d565b565b9060208282031261421d5761421a915f016141f5565b90565b6102a1565b61423661423161423b9261254e565b6125d4565b610cbd565b90565b60206142556142869261424f611fe2565b50611971565b63f135baaa9061427b6142666141c9565b9261426f61029b565b95869485938493611bd0565b835260048301610ccd565b03915afa9081156142de575f916142b0575b506142ab6142a55f614222565b91610cbd565b141590565b6142d1915060203d81116142d7575b6142c98183610687565b810190614204565b5f614298565b503d6142bf565b611e86565b5f7f57524f4e475f46524f4d00000000000000000000000000000000000000000000910152565b614317600a6020926106fb565b614320816142e3565b0190565b6143399060208101905f81830391015261430a565b90565b1561434357565b61434b61029b565b62461bcd60e51b81528061436160048201614324565b0390fd5b5f7f494e56414c49445f524543495049454e54000000000000000000000000000000910152565b61439960116020926106fb565b6143a281614365565b0190565b6143bb9060208101905f81830391015261438c565b90565b156143c557565b6143cd61029b565b62461bcd60e51b8152806143e3600482016143a6565b0390fd5b5f7f4e4f545f415554484f52495a4544000000000000000000000000000000000000910152565b61441b600e6020926106fb565b614424816143e7565b0190565b61443d9060208101905f81830391015261440e565b90565b1561444757565b61444f61029b565b62461bcd60e51b81528061446560048201614428565b0390fd5b600161447591036104f6565b90565b9190600861449891029161449260018060a01b03846139a7565b926139a7565b9181191691161790565b91906144b86144b36144c093610fe7565b613aa1565b908354614478565b9055565b6144d6916144d0612b53565b916144a2565b565b91909161450a816145046144fe6144f96144f4600288906107a1565b6120d4565b6102b4565b916102b4565b1461433c565b61452f8361452861452261451d5f61256d565b6102b4565b916102b4565b14156143be565b3361454261453c836102b4565b916102b4565b148015614657575b8015614625575b61455a90614440565b61458061456960038390612ca3565b61457a61457582612ccd565b614469565b906139eb565b6145a661458f60038590612ca3565b6145a061459b82612ccd565b612fd2565b906139eb565b6145bb836145b6600285906107a1565b613aa4565b6145d05f6145cb600485906107a1565b6144c4565b9161460d6146076146017fddf252ad1be2c89b69c2b068fc378daa952ba7f163c4a11628f55a4df523b3ef95610fe7565b92610fe7565b92610785565b9261461661029b565b806146208161053a565b0390a4565b5061455a3361464f61464961464461463f600488906107a1565b6120d4565b6102b4565b916102b4565b149050614551565b5061467661467161466a60058490611a70565b3390611a86565b6120f5565b61454a565b614683611fe2565b5060ff1690565b91906146a061469b6146a8936125f4565b612600565b908354614478565b9055565b5f90565b6146c2916146bc6146ac565b9161468a565b565b6146d86146d360078390610a0c565b612541565b90816146f36146ed6146e8612591565b6125a5565b916125a5565b14614895576147018161504f565b6147165f61471160078490610a0c565b6146b0565b61471f82610a6c565b3b61473261472c5f6128a6565b916104f6565b1161478d575b6147429091610a6c565b61477561476f7fa0ebb1de82db929a9153472f37d3a66dbede4436258311ad0f52a35a2c91d15093610785565b91610fe7565b9161477e61029b565b806147888161053a565b0390a3565b5a6147c06147ba7f00000000000000000000000000000000000000000000000000000000000000006104f6565b916104f6565b10614888576147ce82610a6c565b9063af45dd147f0000000000000000000000000000000000000000000000000000000000000000929082823b1561488357614742946148215f61482c95819561481561029b565b97889687958693611bd0565b835260048301610e4b565b0393f19081614857575b50155f1461485257600161484d575b5b9050614738565b614845565b614846565b614876905f3d811161487c575b61486e8183610687565b810190611bd6565b5f614836565b503d614864565b611bcc565b6376a1e1d360e11b615081565b5f63046fcd8560e31b8152806148ad6004820161053a565b0390fd5b6148b9611fe2565b50806148d56148cf6148ca85612bd9565b6102b4565b916102b4565b148015614919575b9182156148ea575b505090565b61491292509061490861490d92614902600591612bd9565b90611a70565b611a86565b6120f5565b5f806148e5565b5061492e614929600484906107a1565b6120d4565b61494061493a836102b4565b916102b4565b146148dd565b90565b9061495e61495961496592610785565b614946565b82546139d2565b9055565b6149999061499461498c6149876149826009859061152f565b6122d9565b615088565b91600961152f565b614949565b565b6149a3611fe2565b50803b6149b86149b25f6128a6565b916104f6565b146149cf57815f92918360208194519301915af190565b637c402b2160e01b615081565b826390bfb86560e01b92602080601f3d0104029260405194855260018060a01b0316600485015263ffffffff60e01b166024840152608060448401528160a00160648401523d60848401523d5f60a485013e60048260a40184015263ffffffff60e01b168160c40183015260e40190fd5b7f8cad95687ba82c2ce50e74f7b754645e5117c3a5bec8151c0726d5857980a86690565b614a7a9061099d565b90565b614ab2614ab994614aa8606094989795614a9e608086019a5f870190610cc0565b6020850190610cc0565b6040830190610e3e565b0190610805565b565b60200190565b614ac9612795565b50614ad2614a4d565b614b287f000000000000000000000000000000000000000000000000000000000000000091614b1946614b0430614a71565b90614b0d61029b565b95869460208601614a7d565b60208201810382520382610687565b614b3a614b34826103af565b91614abb565b2090565b93929190600190614b4d612795565b50604051957f6673cb397ee2a50b6b8401653d3638b4ac8b3db9c28aa6870ffceb7574ec2f768752828060a01b03166020870152166040850152606084015260808301525f608060a08420938281528260208201528260408201528260608201520152565b90614bbe60ff916125d4565b9181191691161790565b614bd19061049a565b90565b90565b90614bec614be7614bf392614bc8565b614bd4565b8254614bb2565b9055565b919091614c1982614c14614c0d60058590611a70565b8690611a86565b614bd7565b919091614c64614c52614c4c7f17307eab39ab6107e8899845ad3d59bd9653f200f220920489ca2b5937696c3193610fe7565b93610fe7565b93614c5b61029b565b918291826104ac565b0390a3565b614c71612b53565b507f0aedd6bde10e3aa2adec092b02a3e3e805795516cda41f27aa145b8f300af87a5c90565b7f0aedd6bde10e3aa2adec092b02a3e3e805795516cda41f27aa145b8f300af87a5d565b93929193614cca818390613c4b565b9384614ce8614ce2614cdd898890612f4b565b6104f6565b916104f6565b03614d6157614cf65f6128a6565b5b80614d0a614d04886104f6565b916104f6565b1015614d5857614d5390614d4e614d3c614d37614d32614d2c888a8791613dbe565b35613dd3565b613dfe565b61396c565b614d488a898591613054565b91615301565b612fd2565b614cf7565b50945050505050565b5f63aaad13f760e01b815280614d796004820161053a565b0390fd5b5f90565b614d89614d7d565b5066ffffffffffffff191690565b90614da9614da483613376565b611e96565b918252565b614db75f614d97565b90565b614dc2614dae565b90565b614dea91614ddb91614dd5611bc7565b506157df565b90929192909192909192614cbb565b614df2614dba565b90565b614dfd612b53565b50614e06614c69565b90565b90929192614e1e614e1982611eab565b611e96565b93818552602085019082840111614e3a57614e38926103bc565b565b613372565b9080601f83011215614e5d57816020614e5a93519101614e09565b90565b6102fa565b90602082820312614e92575f82015167ffffffffffffffff8111614e8d57614e8a9201614e3f565b90565b6102a5565b6102a1565b9091614eae9260208301925f818503910152611e29565b90565b905f90614edd7f0000000000000000000000000000000000000000000000000000000000000000611971565b614f00836348c89491959395614f0b614ef461029b565b97889687958694611bd0565b845260048401614e97565b03925af18015614f3d57614f1d575b50565b614f38903d805f833e614f308183610687565b810190614e62565b614f1a565b611e86565b91939293614f4e612795565b506040519460268601526006850152600384015282525f603a600c8401209281604082015281602082015252565b5f90565b60a090614f8b614f7c565b502090565b614fa4614f9f614fa9926104f6565b610782565b610acf565b90565b614fcd614fc7614ff494602094614fc1612235565b5061590a565b91611971565b614fe9631e2eaeaf614fdd61029b565b95869485938493611bd0565b835260048301610ccd565b03915afa90811561504a5761501991615014915f9161501c575b50613d54565b614f90565b90565b61503d915060203d8111615043575b6150358183610687565b810190614204565b5f61500e565b503d61502b565b611e86565b61507f9061507a61507261506d6150686009859061152f565b6122d9565b61597d565b91600961152f565b614949565b565b5f5260045ffd5b600190615093612d90565b501790565b90565b6150af6150aa6150b492615098565b610782565b6104f6565b90565b6150c1600b61509b565b90565b90565b6150db6150d66150e0926150c4565b610782565b6104f6565b90565b6150ed600d6150c7565b90565b90565b61510761510261510c926150f0565b610782565b6104f6565b90565b61511960116150f3565b90565b90565b61513361512e6151389261511c565b610782565b6104f6565b90565b615145600e61511f565b90565b90565b61515f61515a61516492615148565b610782565b6104f6565b90565b615171601261514b565b90565b90565b61518b61518661519092615174565b610782565b6104f6565b90565b61519d6013615177565b90565b90565b6151b76151b26151bc926151a0565b610782565b6104f6565b90565b6151c960146151a3565b90565b90565b6151e36151de6151e8926151cc565b610782565b6104f6565b90565b6151f560156151cf565b90565b90565b61520f61520a615214926151f8565b610782565b6104f6565b90565b61522160166151fb565b90565b6152356152305f61256d565b610fe7565b90565b6152415f6128a6565b90565b90565b61525b61525661526092615244565b610782565b6104f6565b90565b61526d6004615247565b90565b61527a600161398b565b90565b90565b61529461528f6152999261527d565b610782565b6104f6565b90565b6152a66002615280565b90565b90565b6152c06152bb6152c5926152a9565b610782565b6104f6565b90565b6152d260056152ac565b90565b90565b6152ec6152e76152f1926152d5565b610782565b6104f6565b90565b6152fe60036152d8565b90565b9190918061531e6153186153136150b7565b6104f6565b916104f6565b105f1461550d578061533f615339615334615238565b6104f6565b916104f6565b145f1461536c57506153549061536a92616eb0565b92949190919394909192939490919293946171ee565b565b8061538661538061537b615263565b6104f6565b916104f6565b145f146153ae575061539b906153ac92616fbd565b91939293909192939091929361714a565b565b806153c86153c26153bd615270565b6104f6565b916104f6565b145f146153f557506153dd906153f392616eb0565b9294919091939490919293949091929394616fad565b565b8061540f61540961540461529c565b6104f6565b916104f6565b145f1461545157506154276154479161544f93616b4c565b969798909598949194939293979891929394959697989192939495615d17565b959697616dc5565b565b8061546b6154656154606152c8565b6104f6565b916104f6565b145f146154a8575061548361549e916154a693616997565b95969790949793919396979192939495969791929394615d17565b949596616aa8565b565b91826154c36154bd6154b86152f4565b6104f6565b916104f6565b146154eb5750506154e791505b5f918291635cda29d760e01b835260048301610e4b565b0390fd5b61550b9250906154fa9161659a565b919392939091929390919293616965565b565b8061552761552161551c6150e3565b6104f6565b916104f6565b145f14615544575061553c9061554292616533565b90616566565b565b8061555e61555861555361510f565b6104f6565b916104f6565b145f14615589575061557661558191615587936164c5565b929092919291615d17565b91616506565b565b806155a361559d6155986150b7565b6104f6565b916104f6565b145f146155d857506155bb6155d0916155d693616198565b91929091926155ca81946161d9565b92616202565b916162ae565b565b806155f26155ec6155e761513b565b6104f6565b916104f6565b145f14615626575061560a61561e9161562493616021565b929092916156188194615d17565b92616062565b916160d0565b565b8061564061563a615635615167565b6104f6565b916104f6565b145f1461565c57506156559061565a92615f16565b615f92565b565b8061567661567061566b615193565b6104f6565b916104f6565b145f14615693575061568b9061569192615dba565b90615e10565b565b806156ad6156a76156a26151bf565b6104f6565b916104f6565b145f146156d557506156c56156cd916156d393615c6e565b919091615d17565b90615d7e565b565b806156ef6156e96156e46151eb565b6104f6565b916104f6565b145f1461574e57506157076157479161574c9361598d565b61570f615224565b9061574161573c7f0000000000000000000000000000000000000000000000000000000000000000610eb9565b610fe7565b91615a2f565b615ba4565b565b918261576961576361575e615217565b6104f6565b916104f6565b1461577a5750506154e791506154d0565b6157d192506157cc9161578c9161598d565b6157bd6157b87f0000000000000000000000000000000000000000000000000000000000000000610eb9565b610fe7565b906157c6615224565b91615a2f565b615ade565b565b36905f90565b36905f90565b6157e76157d3565b9050506157f26157d9565b905050604081351891606082019363ffffffff60408401351693606063ffffffe0601f8701160190816020860135181790840192602063ffffffff8535169401948460051b805f905b80821061585d57505086019101101761585057565b633b99b53d5f526004601cfd5b90916020908163ffffffe0601f868d013599848b1817998d01350116010192019061583b565b90565b61589a61589561589f92615883565b610782565b6104f6565b90565b6158ac6006615886565b90565b6158be6158c4919392936104f6565b926104f6565b82018092116158cf57565b613d87565b90565b6158e36158e891610cbd565b6158d4565b9052565b6020816158fe615906938396956158d7565b0180926158d7565b0190565b61594061593b61592d61592861596794615922612795565b5061721f565b613d54565b6159356158a2565b906158af565b61412d565b9161595861594c61029b565b938492602084016158ec565b60208201810382520382610687565b615979615973826103af565b91614abb565b2090565b615985612d90565b5060ff191690565b90602090615999612c1d565b50106159a3573590565b633b99b53d5f526004601cfd5b6159b99061099d565b90565b90565b6159d36159ce6159d8926159bc565b610782565b6104f6565b90565b6159e8600160ff1b6159bf565b90565b6159ff6159fa615a049261254e565b610782565b610acf565b90565b615a105f6159eb565b90565b615a27615a22615a2c92610acf565b610782565b6104f6565b90565b615a4e90929192615a3e612c1d565b50615a48306159b0565b9061729d565b9082615a69615a63615a5e6159db565b6104f6565b916104f6565b14615ad85782615a88615a82615a7d615a07565b615a13565b916104f6565b14615ac6575b50615aa2615a9c83926104f6565b916104f6565b11615aaa5790565b5f631e9acf1760e31b815280615ac26004820161053a565b0390fd5b615ad1919250617349565b905f615a8e565b50905090565b80615af1615aeb5f6128a6565b916104f6565b11615afa575b50565b615b237f0000000000000000000000000000000000000000000000000000000000000000610eb9565b90632e1a7d4d90823b15615b9f57615b5a92615b4f5f8094615b4361029b565b96879586948593611bd0565b835260048301610e4b565b03925af18015615b9a57615b6e575b615af7565b615b8d905f3d8111615b93575b615b858183610687565b810190611bd6565b5f615b69565b503d615b7b565b611e86565b611bcc565b80615bb7615bb15f6128a6565b916104f6565b11615bc0575b50565b615be97f0000000000000000000000000000000000000000000000000000000000000000610eb9565b9063d0e30db0909190813b15615c65575f91615c1191615c0761029b565b9485938492611bd0565b825281615c206004820161053a565b03925af18015615c6057615c34575b615bbd565b615c53905f3d8111615c59575b615c4b8183610687565b810190611bd6565b5f615c2f565b503d615c41565b611e86565b611bcc565b5f90565b9190604090615c7b615c6a565b50615c84612b53565b5010615c94576020823592013590565b633b99b53d5f526004601cfd5b615cb5615cb0615cba92613988565b610782565b6102a9565b90565b615cc690615ca1565b90565b615cd36001615cbd565b90565b615cea615ce5615cef9261527d565b610782565b6102a9565b90565b615cfb90615cd6565b90565b615d086002615cf2565b90565b615d149061099d565b90565b615d1f612b53565b5080615d3a615d34615d2f615cc9565b6102b4565b916102b4565b145f14615d4d5750615d4a613502565b90565b80615d67615d61615d5c615cfe565b6102b4565b916102b4565b145f14615d7b5750615d7830615d0b565b90565b90565b90615d88826173df565b80615d9b615d955f6128a6565b916104f6565b11615da6575b505050565b615db2929190916174ba565b5f8080615da1565b9190604090615dc7615c6a565b50615dd0612c1d565b5010615de0576020823592013590565b633b99b53d5f526004601cfd5b916020615e0e929493615e0760408201965f830190611475565b0190610e3e565b565b615e1981617581565b9182615e2d615e275f6128a6565b916104f6565b14615f1157615e45615e3f84926104f6565b916104f6565b11155f14615ef757615e767f0000000000000000000000000000000000000000000000000000000000000000611971565b916380f0b44c919092803b15615ef257615ea35f8094615eae615e9761029b565b97889687958694611bd0565b845260048401615ded565b03925af18015615eed57615ec1575b505b565b615ee0905f3d8111615ee6575b615ed88183610687565b810190611bd6565b5f615ebd565b503d615ece565b611e86565b611bcc565b90615f0c9190615f05613502565b90916160d0565b615ebf565b505050565b90602090615f22615c6a565b5010615f2c573590565b633b99b53d5f526004601cfd5b90565b615f50615f4b615f559261254e565b610782565b615f39565b90565b615f6c615f67615f7192615f39565b610782565b6104f6565b90565b615f7d90615f39565b600160ff1b8114615f8d575f0390565b613d87565b615fc67f0000000000000000000000000000000000000000000000000000000000000000615fbf30613427565b8391617623565b615fce613502565b9080615fe2615fdc5f615f3c565b91615f39565b125f1461600857615fff615ffa616005949392615f74565b615f58565b916162ae565b5b565b61601661601c939291615f58565b916160d0565b616006565b9060609061602d615c6a565b50616036612b53565b5061603f612c1d565b5010616055578035916040602083013592013590565b633b99b53d5f526004601cfd5b9061606b612c1d565b508161608661608061607b615a07565b615a13565b916104f6565b145f1461609a576160979150617581565b90565b5090565b6040906160c76160ce94969593966160bd60608401985f850190611475565b6020830190610805565b0190610e3e565b565b90826160e46160de5f6128a6565b916104f6565b14616193576161127f0000000000000000000000000000000000000000000000000000000000000000611971565b630b0d9c0992919392813b1561618e575f6161409161614b829661613461029b565b98899788968795611bd0565b85526004850161609e565b03925af180156161895761615d575b50565b61617c905f3d8111616182575b6161748183610687565b810190611bd6565b5f61615a565b503d61616a565b611e86565b611bcc565b505050565b906060906161a4615c6a565b506161ad612c1d565b506161b6611fe2565b50106161cc578035916040602083013592013590565b633b99b53d5f526004601cfd5b6161e1612b53565b505f146161f4576161f0613502565b5b90565b6161fd30615d0b565b6161f1565b9061620b612c1d565b508161622661622061621b6159db565b6104f6565b916104f6565b145f1461623a5761623791506173df565b90565b8161625461624e616249615a07565b615a13565b916104f6565b145f14616268576162659150617349565b90565b5090565b919061627f905f60208501940190611475565b565b9050519061628e826104f9565b565b906020828203126162a9576162a6915f01616281565b90565b6102a1565b826162c16162bb5f6128a6565b916104f6565b146164c0576162ef7f0000000000000000000000000000000000000000000000000000000000000000611971565b63a584119482823b156164bb576163259261631a5f809461630e61029b565b96879586948593611bd0565b83526004830161626c565b03925af180156164b65761648a575b5061633e816176df565b5f146163e2575050602061638f6163747f0000000000000000000000000000000000000000000000000000000000000000611971565b926311da60b490939061638561029b565b9485938492611bd0565b82528161639e6004820161053a565b03925af180156163dd576163b1575b505b565b6163d19060203d81116163d6575b6163c98183610687565b810190616290565b6163ad565b503d6163bf565b611e86565b916163ef92919091617770565b616433602061641d7f0000000000000000000000000000000000000000000000000000000000000000611971565b6311da60b49061642b61029b565b938492611bd0565b8252815f816164446004820161053a565b03925af1801561648557616459575b506163af565b6164799060203d811161647e575b6164718183610687565b810190616290565b616453565b503d616467565b611e86565b6164a9905f3d81116164af575b6164a18183610687565b810190611bd6565b5f616334565b503d616497565b611e86565b611bcc565b505050565b906060906164d1615c6a565b506164da615c6a565b506164e3612b53565b50106164f9578035916040602083013592013590565b633b99b53d5f526004601cfd5b9061652061653193928061651a8591617581565b916160d0565b61652b819291617581565b916160d0565b565b9190604090616540615c6a565b50616549615c6a565b5010616559576020823592013590565b633b99b53d5f526004601cfd5b61659891616587616575613502565b92806165818591617349565b916162ae565b616592819291617349565b916162ae565b565b6165a2612c1d565b506165ab612235565b506165b4612235565b506165bd6157d3565b9050508035926165e3602083013593604084013593906165dd60036152d8565b916178b5565b91909190565b94939291906165f6613502565b9561660a61660482896148b1565b1561049a565b61661b5761661995965061675d565b565b616636875f9182916301952d1b60e31b835260048301610812565b0390fd5b6166435f6128a6565b90565b5f90565b6166546080611e96565b90565b9061666190615f39565b9052565b9061666f90610cbd565b9052565b61667c81615f39565b0361668357565b5f80fd5b9050519061669482616673565b565b91906040838203126166be57806166b26166bb925f8601616687565b93602001616687565b90565b6102a1565b6166cc90615f39565b9052565b6166d990610cbd565b9052565b90606080616723936166f55f8201515f86019061121a565b6167076020820151602086019061121a565b616719604082015160408601906166c3565b01519101906166d0565b565b61674c61675a95939492946167426101408401965f850190611240565b60a08301906166dd565b610120818503910152611e29565b90565b93919061676985612e65565b9490949161679361678e888861677e87614109565b906167888861411b565b92614149565b615a13565b9361679d88612bd9565b966167ba6167a961663a565b6167b560098c9061152f565b614949565b6167c389617905565b6167cb616646565b9689876167e06167da5f6128a6565b916104f6565b11616819575b5050505050506167f58161467b565b616801575b5050505050565b61680f949390919293617bc7565b5f808080806167fa565b604093949598505f876168948a61688b6168de95616835616646565b5061688361686561685f61685a61685461684e8a614109565b9961411b565b966179ec565b615f74565b9261412d565b9361687a61687161664a565b97898901612db0565b60208701612db0565b898501616657565b60608301616665565b936168e96168c17f0000000000000000000000000000000000000000000000000000000000000000611971565b94635a6bcfda92969c6168d261029b565b9d8e9889978896611bd0565b865260048601616725565b03925af1948515616960575f80919096616923575b50906169106169189392968790617a26565b919091617a99565b5f80808080896167e6565b61691096506169189392915061694f9060403d8111616959575b6169478183610687565b810190616696565b91929350956168fe565b503d61693d565b611e86565b90616972949392916165e9565b565b3690565b90565b61698f61698a61699492616978565b610782565b6104f6565b90565b61699f616974565b506169a86135e2565b506169b16135e2565b506169ba612235565b506169c3612235565b506169cc612b53565b506169d56157d3565b905050809260a08201359260c08301359260e081013592616a0e610100830135936101208401359390616a08600a61697b565b916178b5565b91909190565b5f80fd5b919060a083820312616a8857616a8190616a3260a0611e96565b93616a3f825f830161363b565b5f860152616a50826020830161363b565b6020860152616a628260408301613670565b6040860152616a748260608301613691565b60608601526080016136c6565b6080830152565b616a14565b616a98903690616a18565b90565b35616aa581613627565b90565b616b4a97959391969492616b3b616b36616af37f0000000000000000000000000000000000000000000000000000000000000000616aed616ae887616a8d565b614f80565b90617c6f565b505050616aff8b6181eb565b616b08856181eb565b616b1b616b165f8901616a9b565b617581565b91616b30616b2b60208a01616a9b565b617581565b936189cc565b615a13565b91979091929394959697616dc5565b565b9190616b56616974565b50616b5f6135e2565b50616b686135e2565b50616b71612c1d565b50616b7a612235565b50616b83612235565b50616b8c612b53565b50616b956157d3565b9050508260a08101359260c08201359260e08301359261010081013592616bd4610120830135936101408401359390616bce600b61509b565b916178b5565b91909190565b616bee616be9616bf39261254e565b610782565b611214565b90565b90565b90616c0e616c09616c1592610fe7565b616bf6565b82546125d9565b9055565b35616c238161365c565b90565b60a01b90565b90616c3d62ffffff60a01b91616c26565b9181191691161790565b616c5b616c56616c60926111ff565b610782565b6111ff565b90565b90565b90616c7b616c76616c8292616c47565b616c63565b8254616c2c565b9055565b35616c90816135e6565b90565b60b81b90565b90616caa62ffffff60b81b91616c93565b9181191691161790565b616cc8616cc3616ccd92611214565b610782565b611214565b90565b90565b90616ce8616ce3616cef92616cb4565b616cd0565b8254616c99565b9055565b35616cfd816136b2565b90565b616d0990610981565b90565b616d1590616d00565b90565b90565b90616d30616d2b616d3792616d0c565b616d18565b82546125d9565b9055565b90616db160806002616db794616d5e5f8201616d585f8801616a9b565b90616bf9565b616d7760018201616d7160208801616a9b565b90616bf9565b616d9060018201616d8a60408801616c19565b90616c66565b616da960018201616da360608801616c86565b90616cd3565b019201616cf3565b90616d1b565b565b90616dc391616d3b565b565b616e84616e7c616e76616e21616e8a999a95616e939d98999c97616de7612c1d565b50616e10616df56008612ccd565b616e08616e0182612fd2565b60086139eb565b988990618b22565b616e1c87929192616a8d565b618c24565b616e3681616e316009899061152f565b614949565b616e3f81614d81565b616e566001616e50600a849061135a565b016113f0565b616e68616e625f616bda565b91611214565b14616e95575b5093976179ec565b9361412d565b939495616a8d565b90618c68565b50919091618dd0565b565b616eaa90616ea58791600a61135a565b616db9565b5f616e6e565b9190616eba612c1d565b50616ec3612c1d565b50616ecc612235565b50616ed5612235565b50616ede6157d3565b905050823592602081013592616f0a60408301359360608401359390616f046004615247565b916178b5565b91909190565b959493929190616f1e613502565b96616f32616f2c828a6148b1565b1561049a565b616f4357616f41969750616f62565b565b616f5e885f9182916301952d1b60e31b835260048301610812565b0390fd5b616fab95616fa39395616f8a92616f9d94616f95616f8f616f8284612e65565b9790936179ec565b615f74565b9261412d565b929394618c68565b90617a26565b919091617a99565b565b90616fbb9594939291616f10565b565b616fc5612c1d565b50616fce612235565b50616fd7612235565b50616fe06157d3565b9050508035926170066020830135936040840135939061700060036152d8565b916178b5565b91909190565b9493929190617019613502565b9561702d61702782896148b1565b1561049a565b61703e5761703c95965061706a565b565b617059875f9182916301952d1b60e31b835260048301610812565b0390fd5b61706790516102b4565b90565b61713a9061714895617140939561708083612e65565b93909361708b612c1d565b5061713261712c61712461711f6170cb7f00000000000000000000000000000000000000000000000000000000000000006170c58b614f80565b90617c6f565b505050896170e06170db88614109565b6181eb565b6170f16170ec8961411b565b6181eb565b90617119617114602061710d6171085f880161705d565b617581565b950161705d565b617581565b936189cc565b615a13565b9296926179ec565b9261412d565b929394618c68565b90617a26565b919091618dd0565b565b906171579493929161700c565b565b959493929190617167613502565b9661717b617175828a6148b1565b1561049a565b61718c5761718a9697506171ab565b565b6171a7885f9182916301952d1b60e31b835260048301610812565b0390fd5b6171ec956171e493956171d0926171de946171d66171c883612e65565b9690926179ec565b9261412d565b929394618c68565b90617a26565b919091618dd0565b565b906171fc9594939291617159565b565b61720790610cbd565b90565b61721c6172176006615886565b61412d565b90565b6172319061722b612795565b506171fe565b61726361723c61720a565b9161725461724861029b565b938492602084016158ec565b60208201810382520382610687565b61727561726f826103af565b91614abb565b2090565b61728290610981565b90565b61728e90617279565b90565b61729a9061099d565b90565b6172a5612c1d565b506172af816176df565b5f146172ba57503190565b617300916172d96172d46172cf602094610fe7565b617285565b617291565b6172f56370a082316172e961029b565b95869485938493611bd0565b835260048301610812565b03915afa908115617344575f91617316575b5090565b617337915060203d811161733d575b61732f8183610687565b810190616290565b5f617312565b503d617325565b611e86565b617351612c1d565b506173867f000000000000000000000000000000000000000000000000000000000000000061737f306159b0565b8391617623565b908161739a6173945f615f3c565b91615f39565b136173b457506173ac6173b191615f74565b615f58565b90565b6173cf905f91829163019a8d9360e51b83526004830161626c565b0390fd5b6173dc9061099d565b90565b6173e7612c1d565b506173f1816176df565b5f146174055750617401306173d3565b3190565b602061742361741e61741961745594610fe7565b617285565b617291565b6370a082319061744a617435306173d3565b9261743e61029b565b95869485938493611bd0565b835260048301610812565b03915afa908115617499575f9161746b575b5090565b61748c915060203d8111617492575b6174848183610687565b810190616290565b5f617467565b503d61747a565b611e86565b6174b26174ad6174b79261254e565b611bd0565b61044d565b90565b9190916174c5611fe2565b506174cf816176df565b5f1461750657505f8080806174e794865af11561049a565b6174ef57505b565b6174f85f61749e565b633d2cec6f60e21b916149dc565b91617558916040519163a9059cbb60e01b835260018060a01b0316600483015260248201525f604060208260448582895af13d15601f3d1160018551141617169282815282602082015201521561049a565b61756257506174ed565b61756b90610fe7565b63a9059cbb60e01b633c9fd93960e21b916149dc565b617589612c1d565b506175be7f00000000000000000000000000000000000000000000000000000000000000006175b7306159b0565b8391617623565b90816175d26175cc5f615f3c565b91615f39565b126175e457506175e190615f58565b90565b6175ff905f918291634c085bf160e01b83526004830161626c565b0390fd5b5f90565b61761b617616617620926104f6565b610782565b615f39565b90565b61768492602092617632617603565b5061763b612795565b5060018060a01b03165f5260018060a01b0316825261765d60405f2091611971565b61767963f135baaa61766d61029b565b95869485938493611bd0565b835260048301610ccd565b03915afa9081156176da576176a9916176a4915f916176ac575b50613d54565b617607565b90565b6176cd915060203d81116176d3575b6176c58183610687565b810190614204565b5f61769e565b503d6176bb565b611e86565b6176f1906176eb611fe2565b50610fe7565b61771261770c617707617702615224565b610fe7565b6102b4565b916102b4565b1490565b61772a61772561772f926104f6565b610782565b6102a9565b90565b61776761776e9461775d606094989795617753608086019a5f870190610805565b6020850190610805565b604083019061376a565b0190610805565b565b908061778c61778661778130613427565b6102b4565b916102b4565b145f146177cd5750906177ca91906177c37f0000000000000000000000000000000000000000000000000000000000000000611971565b90916174ba565b5b565b906177f77f00000000000000000000000000000000000000000000000000000000000000006109a9565b6336c78516929161783961783361782d7f0000000000000000000000000000000000000000000000000000000000000000611971565b96617716565b91610fe7565b823b156178b0575f9461786a869261785f9461785361029b565b998a9889978896611bd0565b865260048601617732565b03925af180156178ab5761787f575b506177cb565b61789e905f3d81116178a4575b6178968183610687565b810190611bd6565b5f617879565b503d61788c565b611e86565b611bcc565b9163ffffffff909391936178c76157d3565b9050506178d2612c1d565b5060051b83013516820192602063ffffffff85351694019284938095019101106178f857565b633b99b53d5f526004601cfd5b617919617914600283906107a1565b6120d4565b61793e8161793761793161792c5f61256d565b6102b4565b916102b4565b1415612bb0565b61796461794d60038390612ca3565b61795e61795982612ccd565b614469565b906139eb565b6179795f617974600285906107a1565b6144c4565b61798e5f617989600485906107a1565b6144c4565b906179985f61256d565b6179d46179ce6179c87fddf252ad1be2c89b69c2b068fc378daa952ba7f163c4a11628f55a4df523b3ef95610fe7565b92610fe7565b92610785565b926179dd61029b565b806179e78161053a565b0390a4565b6179fe906179f8617603565b50617607565b9081617a12617a0c5f615f3c565b91615f39565b12617a1957565b6393dafdf160e01b615081565b90617a6d617a67617a7393617a39616646565b50617a42617603565b50617a4b617603565b508060801d90600f0b938060801d90600f0b9103930392618f2e565b91618f2e565b90618f69565b90565b916020617a97929493617a9060408201965f830190610ae4565b0190610ae4565b565b9190617aac617aa784618f83565b618fca565b617abe617ab883610acf565b91610acf565b10617b215750617ad5617ad083619004565b618fca565b617ae7617ae183610acf565b91610acf565b10617af0575050565b617afd617b029192619004565b618fca565b90617b1d5f928392630940b79160e11b845260048401617a76565b0390fd5b617b32617b2d84618f83565b618fca565b90617b4d5f928392630940b79160e11b845260048401617a76565b0390fd5b617b65617b60617b6a92615f39565b610782565b615f39565b90565b617b7690617b51565b9052565b90959492617bc594617bb4617bbe92617baa608096617ba060a088019c5f890190610e3e565b6020870190610805565b604085019061129a565b6060830190610e3e565b0190617b6d565b565b617c3f617c449392617c30617c4a96617bf2617bed617be860078890610a0c565b612541565b610a6c565b98617c085f617c0360078990610a0c565b6146b0565b89959396919091617c1761029b565b97889560046020880163b1a9116f60e01b815201617b7a565b60208201810382520383610687565b61499b565b1561049a565b617c515750565b63b1a9116f60e01b63ace9448160e01b916149dc565b5f90565b5f90565b602090617cab617ca5617cd294617c84617c67565b50617c8d6135e2565b50617c96617c6b565b50617c9f617c6b565b5061721f565b91611971565b617cc7631e2eaeaf617cbb61029b565b95869485938493611bd0565b835260048301610ccd565b03915afa908115617d38575f91617d0a575b509060018060a01b038216918060a01c60020b9162ffffff808360b81c169260d01c1690565b617d2b915060203d8111617d31575b617d238183610687565b810190614204565b5f617ce4565b503d617d19565b611e86565b90565b617d54617d4f617d5992617d3d565b610782565b611214565b90565b617d68620d89e8617d40565b90565b617d7f617d7a617d8492611214565b610782565b615f39565b90565b90565b617d9e617d99617da392617d87565b610782565b6104f6565b90565b90617db191026104f6565b90565b90565b617dcb617dc6617dd092617db4565b610782565b613907565b90565b90565b617dea617de5617def92617dd3565b610782565b6104f6565b90565b617e06617e01617e0b92613904565b610782565b6104f6565b90565b90565b617e25617e20617e2a92617e0e565b610782565b6104f6565b90565b90565b617e44617e3f617e4992617e2d565b610782565b6104f6565b90565b90565b617e63617e5e617e6892617e4c565b610782565b6104f6565b90565b90565b617e82617e7d617e8792617e6b565b610782565b6104f6565b90565b90565b617ea1617e9c617ea692617e8a565b610782565b6104f6565b90565b90565b617ec0617ebb617ec592617ea9565b610782565b6104f6565b90565b617edc617ed7617ee192617db4565b610782565b6104f6565b90565b90565b617efb617ef6617f0092617ee4565b610782565b6104f6565b90565b90565b617f1a617f15617f1f92617f03565b610782565b6104f6565b90565b90565b617f39617f34617f3e92617f22565b610782565b6104f6565b90565b90565b617f58617f53617f5d92617f41565b610782565b6104f6565b90565b90565b617f77617f72617f7c92617f60565b610782565b6104f6565b90565b90565b617f96617f91617f9b92617f7f565b610782565b6104f6565b90565b90565b617fb5617fb0617fba92617f9e565b610782565b6104f6565b90565b90565b617fd4617fcf617fd992617fbd565b610782565b6104f6565b90565b90565b617ff3617fee617ff892617fdc565b610782565b6104f6565b90565b90565b61801261800d61801792617ffb565b610782565b6104f6565b90565b90565b61803161802c6180369261801a565b610782565b6104f6565b90565b90565b61805061804b61805592618039565b610782565b6104f6565b90565b90565b61806f61806a61807492618058565b610782565b6104f6565b90565b90565b61808e61808961809392618077565b610782565b6104f6565b90565b90565b6180ad6180a86180b292618096565b610782565b6104f6565b90565b90565b6180cc6180c76180d1926180b5565b610782565b6104f6565b90565b90565b6180eb6180e66180f0926180d4565b610782565b6104f6565b90565b90565b61810a61810561810f926180f3565b610782565b6104f6565b90565b90565b61812961812461812e92618112565b610782565b6104f6565b90565b90565b61814861814361814d92618131565b610782565b6104f6565b90565b90565b61816761816261816c92618150565b610782565b6104f6565b90565b90565b61818661818161818b9261816f565b610782565b6104f6565b90565b90565b6181a56181a06181aa9261818e565b610782565b6104f6565b90565b90565b6181c46181bf6181c9926181ad565b610782565b6104f6565b90565b90565b6181e36181de6181e8926181cc565b610782565b6104f6565b90565b6181f3617c67565b506181fc612c1d565b5060020b8060ff1d81810118908161823361822d61822861822361821e617d5c565b617d6b565b615f58565b6104f6565b916104f6565b116189bf57618240612c1d565b50600182166ffffcb933bd6fad37aa2d162d1a594001600160801b1802600160801b18918061826f6002615280565b1661828261827c5f6128a6565b916104f6565b03618982575b806182936004615247565b166182a66182a05f6128a6565b916104f6565b03618945575b806182b76008617df2565b166182ca6182c45f6128a6565b916104f6565b03618908575b806182db6010617e30565b166182ee6182e85f6128a6565b916104f6565b036188cb575b806182ff6020617e6e565b1661831261830c5f6128a6565b916104f6565b0361888e575b806183236040613c71565b166183366183305f6128a6565b916104f6565b03618851575b806183476080617ec8565b1661835a6183545f6128a6565b916104f6565b03618814575b8061836c610100617f06565b1661837f6183795f6128a6565b916104f6565b036187d7575b80618391610200617f44565b166183a461839e5f6128a6565b916104f6565b0361879a575b806183b6610400617f82565b166183c96183c35f6128a6565b916104f6565b0361875d575b806183db610800617fc0565b166183ee6183e85f6128a6565b916104f6565b03618720575b80618400611000617ffe565b1661841361840d5f6128a6565b916104f6565b036186e3575b8061842561200061803c565b166184386184325f6128a6565b916104f6565b036186a6575b8061844a61400061807a565b1661845d6184575f6128a6565b916104f6565b03618669575b8061846f6180006180b8565b1661848261847c5f6128a6565b916104f6565b0361862c575b80618495620100006180f6565b166184a86184a25f6128a6565b916104f6565b036185ef575b806184bb62020000618134565b166184ce6184c85f6128a6565b916104f6565b036185b3575b806184e162040000618172565b166184f46184ee5f6128a6565b916104f6565b03618578575b618506620800006181b0565b166185196185135f6128a6565b916104f6565b0361853c575b5f12618534575b60018060201b030160201c90565b5f1904618526565b906185706185605f9261855a6b048a170391f7dc42444e8fa26181cf565b90617da6565b61856a6080617db7565b90613929565b91905061851f565b9161859d6185ad916185976d2216e584f5fa1ea926041bedfe98618191565b90617da6565b6185a76080617db7565b90613929565b916184fa565b916185d96185e9916185d36e5d6af8dedb81196699c329225ee604618153565b90617da6565b6185e36080617db7565b90613929565b916184d4565b91618616618626916186106f09aa508b5b7a84e1c677de54f3e99bc9618115565b90617da6565b6186206080617db7565b90613929565b916184ae565b916186536186639161864d6f31be135f97d08fd981231505542fcfa66180d7565b90617da6565b61865d6080617db7565b90613929565b91618488565b916186906186a09161868a6f70d869a156d2a1b890bb3df62baf32f7618099565b90617da6565b61869a6080617db7565b90613929565b91618463565b916186cd6186dd916186c76fa9f746462d870fdf8a65dc1f90e061e561805b565b90617da6565b6186d76080617db7565b90613929565b9161843e565b9161870a61871a916187046fd097f3bdfd2022b8845ad8f792aa582561801d565b90617da6565b6187146080617db7565b90613929565b91618419565b91618747618757916187416fe7159475a2c29b7443b29c7fa6e889d9617fdf565b90617da6565b6187516080617db7565b90613929565b916183f4565b916187846187949161877e6ff3392b0822b70005940c7a398e4b70f3617fa1565b90617da6565b61878e6080617db7565b90613929565b916183cf565b916187c16187d1916187bb6ff987a7253ac413176f2b074cf7815e54617f63565b90617da6565b6187cb6080617db7565b90613929565b916183aa565b916187fe61880e916187f86ffcbe86c7900a88aedcffc83b479aa3a4617f25565b90617da6565b6188086080617db7565b90613929565b91618385565b9161883b61884b916188356ffe5dee046a99a2a811c461f1969c3053617ee7565b90617da6565b6188456080617db7565b90613929565b91618360565b91618878618888916188726fff2ea16466c96a3843ec78b326b52861617eac565b90617da6565b6188826080617db7565b90613929565b9161833c565b916188b56188c5916188af6fff973b41fa98c081472e6896dfb254c0617e8d565b90617da6565b6188bf6080617db7565b90613929565b91618318565b916188f2618902916188ec6fffcb9843d60f6159c9db58835c926644617e4f565b90617da6565b6188fc6080617db7565b90613929565b916182f4565b9161892f61893f916189296fffe5caca7e10e4e61c3624eaa0941cd0617e11565b90617da6565b6189396080617db7565b90613929565b916182d0565b9161896c61897c916189666ffff2e50f5f656932ef12357cf3c7fdcc617dd6565b90617da6565b6189766080617db7565b90613929565b916182ac565b916189a96189b9916189a36ffff97272373d413259a46990580e213a617d8a565b90617da6565b6189b36080617db7565b90613929565b91618288565b6345c3193d60e11b619013565b90939291926189d9612235565b50846189ed6189e7866102a9565b916102a9565b11618a98575b81618a06618a00876102a9565b916102a9565b11155f14618a20575050618a1c929190916190de565b905b565b91819391618a36618a30846102a9565b916102a9565b105f14618a8357839291618a5091618a59959190916190de565b93919091619079565b81618a6c618a6683610acf565b91610acf565b105f14618a7c57505b905b618a1e565b9050618a75565b509150618a9292919091619079565b90618a77565b9392936189f3565b5f7f414c52454144595f4d494e544544000000000000000000000000000000000000910152565b618ad4600e6020926106fb565b618add81618aa0565b0190565b618af69060208101905f818303910152618ac7565b90565b15618b0057565b618b0861029b565b62461bcd60e51b815280618b1e60048201618ae1565b0390fd5b90618b4882618b41618b3b618b365f61256d565b6102b4565b916102b4565b14156143be565b618b7f618b5f618b5a600284906107a1565b6120d4565b618b79618b73618b6e5f61256d565b6102b4565b916102b4565b14618af9565b618ba5618b8e60038490612ca3565b618b9f618b9a82612ccd565b612fd2565b906139eb565b618bba82618bb5600284906107a1565b613aa4565b618bc35f61256d565b91618c00618bfa618bf47fddf252ad1be2c89b69c2b068fc378daa952ba7f163c4a11628f55a4df523b3ef95610fe7565b92610fe7565b92610785565b92618c0961029b565b80618c138161053a565b0390a4565b618c2190611300565b90565b618c41618c3c618c4692618c36612d90565b50614f80565b6171fe565b618c18565b9062ffffff1660081b9162ffffff1660201b9066ffffffffffffff1916171790565b9593618c72616646565b50618c7b616646565b507f0000000000000000000000000000000000000000000000000000000000000000618ca690611971565b91635a6bcfda9088618cb790614109565b9289618cc29061411b565b868891618ccd61664a565b965f880190618cdb91612db0565b6020870190618ce991612db0565b6040860190618cf791616657565b6060850190618d0591616665565b97618d0e61029b565b988994618d1b8695611bd0565b85526004850193618d2b94616725565b03815a6040945f91f1938415618da9575f80919095618d75575b50618d5190949561467b565b618d5a575b5050565b618d66618d6e92613d54565b908491619193565b5f80618d56565b618d519550618d9b915060403d8111618da2575b618d938183610687565b810190616696565b9094618d45565b503d618d89565b611e86565b600f0b90565b618dc8618dc3618dcd92618dae565b610782565b615f39565b90565b919091618df5618df0618dea618de584618f83565b618db4565b92619004565b618db4565b9281618e09618e035f615f3c565b91615f39565b1280618edc575b618ea357505081618e29618e235f615f3c565b91615f39565b1280618e71575b618e38575050565b618e4d618e48618e529293615f74565b615f58565b614f90565b90618e6d5f92839263031e30ad60e41b845260048401617a76565b0390fd5b5080618e9d618e97618e92618e8d618e8887615f74565b615f58565b614f90565b610acf565b91610acf565b10618e30565b618eb8618eb3618ebd9293615f74565b615f58565b614f90565b90618ed85f92839263031e30ad60e41b845260048401617a76565b0390fd5b5080618f08618f02618efd618ef8618ef387615f74565b615f58565b614f90565b610acf565b91610acf565b10618e10565b5f90565b618f26618f21618f2b92615f39565b610782565b618dae565b90565b90618f37618f0e565b50618f4182618f12565b91618f55618f4f8492615f39565b91618db4565b03618f5c57565b6393dafdf160e01b615081565b90618f72616646565b5060018060801b03169060801b1790565b618f8b618f0e565b5060801d90565b618fa6618fa1618fab9261254e565b610782565b618dae565b90565b618fc2618fbd618fc792618dae565b610782565b610acf565b90565b618fd2612235565b5080618fe6618fe05f618f92565b91618dae565b12618ff757618ff490618fae565b90565b6393dafdf160e01b615081565b61900c618f0e565b50600f0b90565b5f5260020b60045260245ffd5b90565b61903761903261903c92619020565b610782565b6104f6565b90565b61904c600160601b619023565b90565b9061905a91036102a9565b90565b61907161906c619076926102a9565b610782565b6104f6565b90565b6190c4916190c993619089612235565b508261909d619097846102a9565b916102a9565b116190cc575b6190b96190be91936190b361903f565b9361904f565b61905d565b91619234565b6193f6565b90565b91906190b96190be91939150506190a3565b916191469161914b936190ef612235565b50806191036190fd846102a9565b916102a9565b1161914e575b61913b81619135619140938561912f61912961912361903f565b9361905d565b9161905d565b90619234565b9361904f565b61905d565b91619234565b6193f6565b90565b90619109565b61915d90615f39565b9052565b60409061918a619191949695939661918060608401985f850190610e3e565b6020830190619154565b0190617b6d565b565b6191fe91926191f8916191f36191bb6191b66191b160078590610a0c565b612541565b610a6c565b956191e4879391946191cb61029b565b95869360046020860163d8865c2760e01b815201619161565b60208201810382520383610687565b61499b565b1561049a565b6192055750565b63d8865c2760e01b6374a7887160e11b916149dc565b1561922257565b5f80fd5b9061923191036104f6565b90565b61923c612c1d565b50619248818390617da6565b91619251612c1d565b505f19818309838082109103039161927b8561927561926f866104f6565b916104f6565b1161921b565b8261928e6192885f6128a6565b916104f6565b146193ef576193e692856193ec96936192dd936192a9612c1d565b500990858211900394039360016192c95f6192c486916128a6565b619226565b841680809504960493805f03040190617da6565b17916193e06193c46193a061937c619358619334619305600361930089916152d8565b617da6565b61930f6002615280565b1861932e60026193296193238b8590617da6565b91615280565b619226565b90617da6565b619352600261934d6193478a8590617da6565b91615280565b619226565b90617da6565b619376600261937161936b898590617da6565b91615280565b619226565b90617da6565b61939a600261939561938f888590617da6565b91615280565b619226565b90617da6565b6193be60026193b96193b3878590617da6565b91615280565b619226565b90617da6565b916193db6193d56002928590617da6565b91615280565b619226565b90617da6565b90617da6565b90565b5050500490565b906193ff612235565b5061940982614f90565b9161941c61941684615a13565b916104f6565b0361942357565b6393dafdf160e01b61508156fea26469706673582212203b635e0cd4b69e6464b203d3fbe0458a00235f6e790d5190a0262fdd9f19ad2e64736f6c634300081a0033","linkReferences":{}},"methodIdentifiers":{"DOMAIN_SEPARATOR()":"3644e515","WETH9()":"4aa4a4fc","approve(address,uint256)":"095ea7b3","balanceOf(address)":"70a08231","getApproved(uint256)":"081812fc","getPoolAndPositionInfo(uint256)":"7ba03aad","getPositionLiquidity(uint256)":"1efeed33","initializePool((address,address,uint24,int24,address),uint160)":"f7020405","isApprovedForAll(address,address)":"e985e9c5","modifyLiquidities(bytes,uint256)":"dd46508f","modifyLiquiditiesWithoutUnlock(bytes,bytes[])":"4afe393c","msgSender()":"d737d0c7","multicall(bytes[])":"ac9650d8","name()":"06fdde03","nextTokenId()":"75794a3c","nonces(address,uint256)":"502e1a16","ownerOf(uint256)":"6352211e","permit(address,((address,uint160,uint48,uint48),address,uint256),bytes)":"2b67b570","permit(address,uint256,uint256,uint256,bytes)":"0f5730f1","permit2()":"12261ee7","permitBatch(address,((address,uint160,uint48,uint48)[],address,uint256),bytes)":"002a3e3a","permitForAll(address,address,bool,uint256,uint256,bytes)":"3aea60f0","poolKeys(bytes25)":"86b6be7d","poolManager()":"dc4c90d3","positionInfo(uint256)":"89097a6a","revokeNonce(uint256)":"05c1ee20","safeTransferFrom(address,address,uint256)":"42842e0e","safeTransferFrom(address,address,uint256,bytes)":"b88d4fde","setApprovalForAll(address,bool)":"a22cb465","subscribe(uint256,address,bytes)":"2b9261de","subscriber(uint256)":"16a24131","supportsInterface(bytes4)":"01ffc9a7","symbol()":"95d89b41","tokenDescriptor()":"5a9d7a68","tokenURI(uint256)":"c87b56dd","transferFrom(address,address,uint256)":"23b872dd","unlockCallback(bytes)":"91dd7346","unsubscribe(uint256)":"ad0b27fb","unsubscribeGasLimit()":"4767565f"},"id":136}