{"abi":[{"type":"constructor","inputs":[{"name":"_table_prefix","type":"string","internalType":"string"},{"name":"_senatorsAddress","type":"address","internalType":"address"},{"name":"_quorum","type":"uint256","internalType":"uint256"},{"name":"_threshold","type":"uint256","internalType":"uint256"}],"stateMutability":"nonpayable"},{"type":"function","name":"deleteFromTable","inputs":[{"name":"mdp","type":"uint256","internalType":"uint256"}],"outputs":[],"stateMutability":"nonpayable"},{"type":"function","name":"getTableId","inputs":[],"outputs":[{"name":"","type":"uint256","internalType":"uint256"}],"stateMutability":"view"},{"type":"function","name":"getTableName","inputs":[],"outputs":[{"name":"","type":"string","internalType":"string"}],"stateMutability":"view"},{"type":"function","name":"insertIntoTable","inputs":[{"name":"mdp","type":"uint256","internalType":"uint256"},{"name":"vote","type":"string","internalType":"string"}],"outputs":[],"stateMutability":"nonpayable"},{"type":"function","name":"onERC721Received","inputs":[{"name":"","type":"address","internalType":"address"},{"name":"","type":"address","internalType":"address"},{"name":"","type":"uint256","internalType":"uint256"},{"name":"","type":"bytes","internalType":"bytes"}],"outputs":[{"name":"","type":"bytes4","internalType":"bytes4"}],"stateMutability":"nonpayable"},{"type":"function","name":"owner","inputs":[],"outputs":[{"name":"","type":"address","internalType":"address"}],"stateMutability":"view"},{"type":"function","name":"renounceOwnership","inputs":[],"outputs":[],"stateMutability":"nonpayable"},{"type":"function","name":"setAccessControl","inputs":[{"name":"controller","type":"address","internalType":"address"}],"outputs":[],"stateMutability":"nonpayable"},{"type":"function","name":"setQuorum","inputs":[{"name":"_quorum","type":"uint256","internalType":"uint256"}],"outputs":[],"stateMutability":"nonpayable"},{"type":"function","name":"setSenators","inputs":[{"name":"_senatorsAddress","type":"address","internalType":"address"}],"outputs":[],"stateMutability":"nonpayable"},{"type":"function","name":"setThreshold","inputs":[{"name":"_threshold","type":"uint256","internalType":"uint256"}],"outputs":[],"stateMutability":"nonpayable"},{"type":"function","name":"tempCheckApprovalCount","inputs":[{"name":"","type":"uint256","internalType":"uint256"}],"outputs":[{"name":"","type":"uint256","internalType":"uint256"}],"stateMutability":"view"},{"type":"function","name":"tempCheckApproved","inputs":[{"name":"","type":"uint256","internalType":"uint256"}],"outputs":[{"name":"","type":"bool","internalType":"bool"}],"stateMutability":"view"},{"type":"function","name":"tempCheckFailed","inputs":[{"name":"","type":"uint256","internalType":"uint256"}],"outputs":[{"name":"","type":"bool","internalType":"bool"}],"stateMutability":"view"},{"type":"function","name":"tempCheckVoteApprove","inputs":[{"name":"","type":"uint256","internalType":"uint256"},{"name":"","type":"address","internalType":"address"}],"outputs":[{"name":"","type":"bool","internalType":"bool"}],"stateMutability":"view"},{"type":"function","name":"tempCheckVoteCount","inputs":[{"name":"","type":"uint256","internalType":"uint256"}],"outputs":[{"name":"","type":"uint256","internalType":"uint256"}],"stateMutability":"view"},{"type":"function","name":"tempCheckVoteDeny","inputs":[{"name":"","type":"uint256","internalType":"uint256"},{"name":"","type":"address","internalType":"address"}],"outputs":[{"name":"","type":"bool","internalType":"bool"}],"stateMutability":"view"},{"type":"function","name":"transferOwnership","inputs":[{"name":"newOwner","type":"address","internalType":"address"}],"outputs":[],"stateMutability":"nonpayable"},{"type":"function","name":"updateTableCol","inputs":[{"name":"mdp","type":"uint256","internalType":"uint256"},{"name":"vote","type":"string","internalType":"string"}],"outputs":[],"stateMutability":"nonpayable"},{"type":"function","name":"voteTempCheck","inputs":[{"name":"mdp","type":"uint256","internalType":"uint256"},{"name":"approve","type":"bool","internalType":"bool"}],"outputs":[],"stateMutability":"nonpayable"},{"type":"event","name":"OwnershipTransferred","inputs":[{"name":"previousOwner","type":"address","indexed":true,"internalType":"address"},{"name":"newOwner","type":"address","indexed":true,"internalType":"address"}],"anonymous":false},{"type":"error","name":"ChainNotSupported","inputs":[{"name":"chainid","type":"uint256","internalType":"uint256"}]},{"type":"error","name":"OwnableInvalidOwner","inputs":[{"name":"owner","type":"address","internalType":"address"}]},{"type":"error","name":"OwnableUnauthorizedAccount","inputs":[{"name":"account","type":"address","internalType":"address"}]},{"type":"error","name":"StringsInsufficientHexLength","inputs":[{"name":"value","type":"uint256","internalType":"uint256"},{"name":"length","type":"uint256","internalType":"uint256"}]}],"bytecode":{"object":"0x6080806040523461041657612045803803809161001c828561062f565b83398101906080818303126104165780516001600160401b03811161041657810182601f820112156104165780519061005482610652565b93610062604051958661062f565b8285526020838301011161041657815f9260208093018387015e8401015260208101516001600160a01b0381169190829003610416576060604082015191015191331561061c575f8054336001600160a01b0319821681178355916001600160a01b03909116907f8be0079c531659141344cd1fd0a4f28419497f9722a3daafe3b4186f6b6457e09080a383516001600160401b03811161060857610108600b5461066d565b601f81116105a5575b50602094601f8211600114610542579481929394955f92610537575b50508160011b915f199060031b1c191617600b555b6001600160a01b036101526106a5565b166040519061016260808361062f565b6052825260208201917f696420696e7465676572207072696d617279206b65792c206d647020696e746583527f6765722c206164647265737320746578742c20766f746520746578742c20756e6040820152716971756528616464726573732c206d64702960701b6060820152604051915f600b5490846101e28361066d565b9182825260208201936001811690815f1461051b57506001146104bc575b61020c9250038561062f565b46945f93867a184f03e93ff9f4daa797ed6e38ed64bf6a1f010000000000000000811015610494575b806d04ee2d6d415b85acef8100000000600a921015610479575b662386f26fc10000811015610465575b6305f5e100811015610454575b612710811015610445575b6064811015610437575b101561042d575b6001850196600a60216102b361029d8b610652565b9a6102ab6040519c8d61062f565b808c52610652565b60208b019890601f1901368a378a01015b5f1901916f181899199a1a9b1b9c1cb0b131b232b360811b8282061a8353049081156102f257600a906102c4565b505060016020968161036d948194602d6c021a922a0aa22902a20a126229609d1b9a60649d6040519a8b978f89019e8f52518091858a015e870190605f60f81b84830152518092602e83015e010190600560fb1b84830152518092600283015e0101602960f81b838201520301601e1981018452018261062f565b5f60405195868095819463a15ab08d60e01b8352306004840152604060248401525180918160448501528484015e8181018301849052601f01601f191681010301925af1908115610422575f916103ec575b50600a55600180546001600160a01b0319169190911790556008556009556040516117fe90816108478239f35b90506020813d60201161041a575b816104076020938361062f565b8101031261041657515f6103bf565b5f80fd5b3d91506103fa565b6040513d5f823e3d90fd5b9360010193610288565b606460029104960195610281565b61271060049104960195610277565b6305f5e1006008910496019561026c565b662386f26fc100006010910496019561025f565b6d04ee2d6d415b85acef81000000006020910496019561024f565b50604094507a184f03e93ff9f4daa797ed6e38ed64bf6a1f0100000000000000004604610235565b50600b5f90815290917f0175b7a638427703f0dbe7bb9bbf987a2551717b34e79f33b5b1008d1fa01db95b8183106104ff57505090602061020c92820101610200565b6020919350806001915483858b010152019101909186926104e7565b60ff191685525061020c92151560051b82016020019050610200565b015190505f8061012d565b601f19821695600b5f52805f20915f5b88811061058d57508360019596979810610575575b505050811b01600b55610142565b01515f1960f88460031b161c191690555f8080610567565b91926020600181928685015181550194019201610552565b600b5f527f0175b7a638427703f0dbe7bb9bbf987a2551717b34e79f33b5b1008d1fa01db9601f830160051c810191602084106105fe575b601f0160051c01905b8181106105f35750610111565b5f81556001016105e6565b90915081906105dd565b634e487b7160e01b5f52604160045260245ffd5b631e4fbdf760e01b5f525f60045260245ffd5b601f909101601f19168101906001600160401b0382119082101761060857604052565b6001600160401b03811161060857601f01601f191660200190565b90600182811c9216801561069b575b602083101461068757565b634e487b7160e01b5f52602260045260245ffd5b91607f169161067c565b466001036106c55773012969f7e3439a9b04025b5a049eb9bad82a8c1290565b46600a036106e55773fad44bf5b843de943a09d4f3e84949a11d3aa3e690565b4661a4b10361070657739abd75e8640871a5a20d3b4ee6330a04c962affd90565b4661a4ba0361072757731a22854c5b1642760a827f20137a67930ae108d290565b4660890361074757735c4e6a9e5c1e1bf445a062006faf19ea6c49afea90565b4661013a03610768577359ef8bf2d6c102b4c42aef9189e1a9f0abfd652d90565b4662aa36a70361078a5773c50c62498448acc8dbde43da77f8d5d2e2c7597d90565b4662aa37dc036107ac577368a2f4423ad3bf5139db563cf3bc80aa09ed707990565b4662066eee036107ce5773223a74b8323914afdc3ff1e5005564dc17231d6e90565b4662013882036107f05773170fb206132b693e38adfc8727dcfa303546cec190565b466204cb2f036108125773030bcf3d50cad04c2e57391b12740982a930862190565b46617a69036108335773e7f1725e7734ce288f8367e1bb143e90bb3f051290565b63264e42cf60e01b5f524660045260245ffdfe60806040526004361015610011575f80fd5b5f803560e01c806304bfc47f14610e245780630858be2214610df55780630d157ad314610bcc578063150b7a0214610b4857806318491edd14610afc57806319129e5a14610a535780632962761614610a245780633a164ede146109d95780634ac3db5a1461098e5780635d5a33a21461094f5780636203563e14610925578063715018a6146108bf57806388e4f1cb146108a15780638c822db4146104ac5780638da5cb5b14610486578063960bfe0414610463578063c1ba4e5914610440578063e0aecc4114610416578063f2fde38b1461036b5763f56ec1ed146100f6575f80fd5b3461035b5780602061010736610fd0565b91908161030d600160086001600160a01b03610121611270565b169661020d836006610135600a549961142a565b93828961015261014c610147336115af565b61169d565b9361169d565b816040519e8f95818088019b8051918291018d5e8701907f2c0000000000000000000000000000000000000000000000000000000000000083830152805192839101602183015e0101907f2c00000000000000000000000000000000000000000000000000000000000000848301527f6a736f6e280000000000000000000000000000000000000000000000000000006002830152805192839101600783015e0101602960f81b838201520301601e1981018a520188610f47565b826102166110f2565b91604098602c8a51946102298c87610f47565b6010865261025d8b8b8801927f6d64702c616464726573732c766f7465000000000000000000000000000000008452611752565b958c519a8b977f494e5345525420494e544f200000000000000000000000000000000000000000828a0152805191829101858a015e8701907f280000000000000000000000000000000000000000000000000000000000000084830152518092602d83015e0101907f2956414c5545532800000000000000000000000000000000000000000000000084830152518092600983015e0101602960f81b838201520301601e19810184520182610f47565b833b1561036757610337938592838551809781958294631bbd786d60e11b845230600485016111d2565b03925af190811561035e575061034a5750f35b8161035491610f47565b61035b5780f35b80fd5b513d84823e3d90fd5b8480fd5b503461035b57602060031936011261035b576001600160a01b0361038d611014565b610395611713565b1680156103ea576001600160a01b0382548273ffffffffffffffffffffffffffffffffffffffff198216178455167f8be0079c531659141344cd1fd0a4f28419497f9722a3daafe3b4186f6b6457e08380a380f35b6024827f1e4fbdf700000000000000000000000000000000000000000000000000000000815280600452fd5b503461035b57602060031936011261035b5760406020916004358152600583522054604051908152f35b503461035b57602060031936011261035b5761045a611713565b60043560085580f35b503461035b57602060031936011261035b5761047d611713565b60043560095580f35b503461035b578060031936011261035b576001600160a01b036020915416604051908152f35b503461035b57604060031936011261035b57600435602435801515810361089d57602460206001600160a01b0360015416604051928380927f490055c00000000000000000000000000000000000000000000000000000000082523360048301525afa908115610892578491610853575b50156107e957818352600660205260ff6040842054166107a557818352600760205260ff604084205416610761578183526002602052604083206001600160a01b0333165f5260205260ff60405f205416908115610736575b8115610719575b1561067a57508082526002602052604082206001600160a01b0333165f526020526105af60ff60405f20541615611219565b8082526002602052604082206001600160a01b0333165f5260205260405f20600160ff198254161790558082526003602052604082206001600160a01b0333165f5260205260405f2060ff19815416905580825260046020526040822061061681546111f7565b90555b8082526005602052604082205460085410610632575080f35b808252600460205260408220546009541015610661578152600660205260408120600160ff1982541617905580f35b8152600760205260408120600160ff1982541617905580f35b8183526003602052604083206001600160a01b0333165f526020526106a660ff60405f20541615611219565b8183526003602052604083206001600160a01b0333165f5260205260405f20600160ff198254161790558183526002602052604083206001600160a01b0333165f5260205260405f2060ff19815416905515610619578082526004602052604082206107128154611264565b9055610619565b82845260056020526040842061072f81546111f7565b905561057d565b90508183526003602052604083206001600160a01b0333165f5260205260ff60405f20541690610576565b606460405162461bcd60e51b815260206004820152601960248201527f54656d7020636865636b20616c7265616479206661696c6564000000000000006044820152fd5b606460405162461bcd60e51b815260206004820152601960248201527f54656d7020636865636b20616c726561647920706173736564000000000000006044820152fd5b608460405162461bcd60e51b815260206004820152602760248201527f4d75737420626520612073656e61746f7220746f20766f7465206f6e2074656d60448201527f7020636865636b000000000000000000000000000000000000000000000000006064820152fd5b90506020813d60201161088a575b8161086e60209383610f47565b8101031261088657518015158103610886575f61051d565b8380fd5b3d9150610861565b6040513d86823e3d90fd5b8280fd5b503461035b578060031936011261035b576020600a54604051908152f35b503461035b578060031936011261035b576108d8611713565b806001600160a01b03815473ffffffffffffffffffffffffffffffffffffffff1981168355167f8be0079c531659141344cd1fd0a4f28419497f9722a3daafe3b4186f6b6457e08280a380f35b503461035b57602060031936011261035b5760406020916004358152600483522054604051908152f35b503461035b578060031936011261035b5761098a610976600a546109716110f2565b611752565b604051918291602083526020830190611040565b0390f35b503461035b57604060031936011261035b576001600160a01b0360406109b261102a565b92600435815260036020522091165f52602052602060ff60405f2054166040519015158152f35b503461035b57604060031936011261035b576001600160a01b0360406109fd61102a565b92600435815260026020522091165f52602052602060ff60405f2054166040519015158152f35b503461035b57602060031936011261035b5760ff60406020926004358152600784522054166040519015158152f35b503461035b57602060031936011261035b5780610a6e611014565b610a76611713565b6001600160a01b03610a86611270565b1690600a5490823b15610af75760648492836001600160a01b039560405196879586947f8bb0ab9700000000000000000000000000000000000000000000000000000000865230600487015260248601521660448401525af18015610aec5761034a5750f35b6040513d84823e3d90fd5b505050fd5b503461035b57602060031936011261035b576001600160a01b03610b1e611014565b610b26611713565b1673ffffffffffffffffffffffffffffffffffffffff19600154161760015580f35b503461035b57608060031936011261035b57610b62611014565b50610b6b61102a565b5060643567ffffffffffffffff8111610bc85736602382011215610bc857610b9d903690602481600401359101610f9a565b5060206040517f150b7a02000000000000000000000000000000000000000000000000000000008152f35b5080fd5b503461035b5780610bdc36610fd0565b6001600160a01b03610bec611270565b1691610d5a610bfd600a549361169d565b916005610c9d610c8b60405193610c866001602a8760208082019b7f766f74653d0000000000000000000000000000000000000000000000000000008d527f6a736f6e2800000000000000000000000000000000000000000000000000000060258401528051918291018484015e8101602960f81b838201520301601e19810188520186610f47565b61142a565b610c97610147336115af565b90611065565b93610caa866109716110f2565b92602095869283604051610cbe8282610f47565b8c8152928c8151610d96575b505050602791926040519889977f5550444154452000000000000000000000000000000000000000000000000000828a0152805191829101858a015e8701907f205345542000000000000000000000000000000000000000000000000000000084830152518092602c83015e0101908382018a8152815193849201905e010186815203601f198101835282610f47565b823b15610af757610d8592849283604051809681958294631bbd786d60e11b845230600485016111d2565b03925af18015610aec5761034a5750f35b60279450610deb9185916040519485927f2057484552452000000000000000000000000000000000000000000000000000828501528051918291018585015e820190838201520301601f198101835282610f47565b9150835f8c610cca565b503461035b57602060031936011261035b5760ff60406020926004358152600684522054166040519015158152f35b5034610f43576020600319360112610f43576001600160a01b03610e46611270565b16600a546020610eed6007610e5f610c8b60043561142a565b602c84610e6e876109716110f2565b926040519687947f44454c4554452046524f4d200000000000000000000000000000000000000000828701528051918291018587015e8401907f205748455245200000000000000000000000000000000000000000000000000084830152805192839101603383015e01015f838201520301601f198101835282610f47565b823b15610f4357610f18925f9283604051809681958294631bbd786d60e11b845230600485016111d2565b03925af18015610f3857610f2a575080f35b610f3691505f90610f47565b005b6040513d5f823e3d90fd5b5f80fd5b90601f601f19910116810190811067ffffffffffffffff821117610f6a57604052565b634e487b7160e01b5f52604160045260245ffd5b67ffffffffffffffff8111610f6a57601f01601f191660200190565b929192610fa682610f7e565b91610fb46040519384610f47565b829481845281830111610f43578281602093845f960137010152565b906040600319830112610f4357600435916024359067ffffffffffffffff8211610f435780602383011215610f435781602461101193600401359101610f9a565b90565b600435906001600160a01b0382168203610f4357565b602435906001600160a01b0382168203610f4357565b90601f19601f602080948051918291828752018686015e5f8582860101520116010190565b600f6110f091602660208096956040519788947f6d6470203d200000000000000000000000000000000000000000000000000000828701528051918291018587015e8401907f20414e442061646472657373203d20000000000000000000000000000000000084830152805192839101603583015e01015f838201520301601f198101845283610f47565b565b604051905f600b548060011c91600182169182156111c8575b6020841083146111b45783865285929081156111955750600114611136575b6110f092500383610f47565b50600b5f90815290917f0175b7a638427703f0dbe7bb9bbf987a2551717b34e79f33b5b1008d1fa01db95b8183106111795750509060206110f09282010161112a565b6020919350806001915483858901015201910190918492611161565b602092506110f094915060ff191682840152151560051b82010161112a565b634e487b7160e01b5f52602260045260245ffd5b92607f169261110b565b61101193926001600160a01b0360609316825260208201528160408201520190611040565b5f1981146112055760010190565b634e487b7160e01b5f52601160045260245ffd5b1561122057565b606460405162461bcd60e51b815260206004820152600d60248201527f416c726561647920766f746564000000000000000000000000000000000000006044820152fd5b8015611205575f190190565b466001036112905773012969f7e3439a9b04025b5a049eb9bad82a8c1290565b46600a036112b05773fad44bf5b843de943a09d4f3e84949a11d3aa3e690565b4661a4b1036112d157739abd75e8640871a5a20d3b4ee6330a04c962affd90565b4661a4ba036112f257731a22854c5b1642760a827f20137a67930ae108d290565b4660890361131257735c4e6a9e5c1e1bf445a062006faf19ea6c49afea90565b4661013a03611333577359ef8bf2d6c102b4c42aef9189e1a9f0abfd652d90565b4662aa36a7036113555773c50c62498448acc8dbde43da77f8d5d2e2c7597d90565b4662aa37dc03611377577368a2f4423ad3bf5139db563cf3bc80aa09ed707990565b4662066eee036113995773223a74b8323914afdc3ff1e5005564dc17231d6e90565b4662013882036113bb5773170fb206132b693e38adfc8727dcfa303546cec190565b466204cb2f036113dd5773030bcf3d50cad04c2e57391b12740982a930862190565b46617a69036113fe5773e7f1725e7734ce288f8367e1bb143e90bb3f051290565b7f264e42cf000000000000000000000000000000000000000000000000000000005f524660045260245ffd5b805f917a184f03e93ff9f4daa797ed6e38ed64bf6a1f010000000000000000821015611587575b806d04ee2d6d415b85acef8100000000600a92101561156c575b662386f26fc10000811015611558575b6305f5e100811015611547575b612710811015611538575b606481101561152a575b101561151f575b600a5f1960216001850194601f196114d46114be88610f7e565b976114cc604051998a610f47565b808952610f7e565b013660208801378501015b01917f30313233343536373839616263646566000000000000000000000000000000008282061a835304801561151a575f19600a91926114df565b505090565b6001909101906114a4565b60646002910493019261149d565b61271060049104930192611493565b6305f5e10060089104930192611488565b662386f26fc100006010910493019261147b565b6d04ee2d6d415b85acef81000000006020910493019261146b565b50604091507a184f03e93ff9f4daa797ed6e38ed64bf6a1f0100000000000000008104611451565b6001600160a01b031680604051916115c8606084610f47565b602a83526020830160403682378351156116895760309053825160011015611689576078602184015360295b600181116116355750611605575090565b7fe22e27eb000000000000000000000000000000000000000000000000000000005f52600452601460245260445ffd5b90600f811690601082101561168957845183101561168957611684917f3031323334353637383961626364656600000000000000000000000000000000901a8584016020015360041c91611264565b6115f4565b634e487b7160e01b5f52603260045260245ffd5b611011600160216020936040519485917f2700000000000000000000000000000000000000000000000000000000000000828401528051918291018484015e81017f2700000000000000000000000000000000000000000000000000000000000000838201520301601e19810184520182610f47565b6001600160a01b035f5416330361172657565b7f118cdaa7000000000000000000000000000000000000000000000000000000005f523360045260245ffd5b6001611011918160208095818061177161176b4661142a565b9361142a565b9260405199878b985191829101848a015e8701907f5f0000000000000000000000000000000000000000000000000000000000000083830152805192839101602183015e0101907f5f0000000000000000000000000000000000000000000000000000000000000084830152805192839101600283015e01015f838201520301601f198101835282610f4756","linkReferences":{}},"methodIdentifiers":{"deleteFromTable(uint256)":"04bfc47f","getTableId()":"88e4f1cb","getTableName()":"5d5a33a2","insertIntoTable(uint256,string)":"f56ec1ed","onERC721Received(address,address,uint256,bytes)":"150b7a02","owner()":"8da5cb5b","renounceOwnership()":"715018a6","setAccessControl(address)":"19129e5a","setQuorum(uint256)":"c1ba4e59","setSenators(address)":"18491edd","setThreshold(uint256)":"960bfe04","tempCheckApprovalCount(uint256)":"6203563e","tempCheckApproved(uint256)":"0858be22","tempCheckFailed(uint256)":"29627616","tempCheckVoteApprove(uint256,address)":"3a164ede","tempCheckVoteCount(uint256)":"e0aecc41","tempCheckVoteDeny(uint256,address)":"4ac3db5a","transferOwnership(address)":"f2fde38b","updateTableCol(uint256,string)":"0d157ad3","voteTempCheck(uint256,bool)":"8c822db4"},"id":86}