{"abi":[{"type":"constructor","inputs":[{"name":"_table_prefix","type":"string","internalType":"string"},{"name":"_senatorsAddress","type":"address","internalType":"address"},{"name":"_quorum","type":"uint256","internalType":"uint256"},{"name":"_threshold","type":"uint256","internalType":"uint256"}],"stateMutability":"nonpayable"},{"type":"function","name":"deleteFromTable","inputs":[{"name":"quarter","type":"uint256","internalType":"uint256"},{"name":"year","type":"uint256","internalType":"uint256"}],"outputs":[],"stateMutability":"nonpayable"},{"type":"function","name":"getTableId","inputs":[],"outputs":[{"name":"","type":"uint256","internalType":"uint256"}],"stateMutability":"view"},{"type":"function","name":"getTableName","inputs":[],"outputs":[{"name":"","type":"string","internalType":"string"}],"stateMutability":"view"},{"type":"function","name":"insertIntoTable","inputs":[{"name":"quarter","type":"uint256","internalType":"uint256"},{"name":"year","type":"uint256","internalType":"uint256"},{"name":"distribution","type":"string","internalType":"string"}],"outputs":[],"stateMutability":"nonpayable"},{"type":"function","name":"onERC721Received","inputs":[{"name":"","type":"address","internalType":"address"},{"name":"","type":"address","internalType":"address"},{"name":"","type":"uint256","internalType":"uint256"},{"name":"","type":"bytes","internalType":"bytes"}],"outputs":[{"name":"","type":"bytes4","internalType":"bytes4"}],"stateMutability":"nonpayable"},{"type":"function","name":"owner","inputs":[],"outputs":[{"name":"","type":"address","internalType":"address"}],"stateMutability":"view"},{"type":"function","name":"quorum","inputs":[],"outputs":[{"name":"","type":"uint256","internalType":"uint256"}],"stateMutability":"view"},{"type":"function","name":"renounceOwnership","inputs":[],"outputs":[],"stateMutability":"nonpayable"},{"type":"function","name":"setAccessControl","inputs":[{"name":"controller","type":"address","internalType":"address"}],"outputs":[],"stateMutability":"nonpayable"},{"type":"function","name":"setQuorum","inputs":[{"name":"_quorum","type":"uint256","internalType":"uint256"}],"outputs":[],"stateMutability":"nonpayable"},{"type":"function","name":"setSenators","inputs":[{"name":"_senatorsAddress","type":"address","internalType":"address"}],"outputs":[],"stateMutability":"nonpayable"},{"type":"function","name":"setThreshold","inputs":[{"name":"_threshold","type":"uint256","internalType":"uint256"}],"outputs":[],"stateMutability":"nonpayable"},{"type":"function","name":"tallyVotes","inputs":[{"name":"mdp","type":"uint256","internalType":"uint256"}],"outputs":[],"stateMutability":"nonpayable"},{"type":"function","name":"tempCheckApprovalCount","inputs":[{"name":"","type":"uint256","internalType":"uint256"}],"outputs":[{"name":"","type":"uint256","internalType":"uint256"}],"stateMutability":"view"},{"type":"function","name":"tempCheckApproved","inputs":[{"name":"","type":"uint256","internalType":"uint256"}],"outputs":[{"name":"","type":"bool","internalType":"bool"}],"stateMutability":"view"},{"type":"function","name":"tempCheckApprovedTimestamp","inputs":[{"name":"","type":"uint256","internalType":"uint256"}],"outputs":[{"name":"","type":"uint256","internalType":"uint256"}],"stateMutability":"view"},{"type":"function","name":"tempCheckFailed","inputs":[{"name":"","type":"uint256","internalType":"uint256"}],"outputs":[{"name":"","type":"bool","internalType":"bool"}],"stateMutability":"view"},{"type":"function","name":"tempCheckVoteApprove","inputs":[{"name":"","type":"uint256","internalType":"uint256"},{"name":"","type":"address","internalType":"address"}],"outputs":[{"name":"","type":"bool","internalType":"bool"}],"stateMutability":"view"},{"type":"function","name":"tempCheckVoteCount","inputs":[{"name":"","type":"uint256","internalType":"uint256"}],"outputs":[{"name":"","type":"uint256","internalType":"uint256"}],"stateMutability":"view"},{"type":"function","name":"tempCheckVoteDeny","inputs":[{"name":"","type":"uint256","internalType":"uint256"},{"name":"","type":"address","internalType":"address"}],"outputs":[{"name":"","type":"bool","internalType":"bool"}],"stateMutability":"view"},{"type":"function","name":"threshold","inputs":[],"outputs":[{"name":"","type":"uint256","internalType":"uint256"}],"stateMutability":"view"},{"type":"function","name":"transferOwnership","inputs":[{"name":"newOwner","type":"address","internalType":"address"}],"outputs":[],"stateMutability":"nonpayable"},{"type":"function","name":"updateTableCol","inputs":[{"name":"quarter","type":"uint256","internalType":"uint256"},{"name":"year","type":"uint256","internalType":"uint256"},{"name":"distribution","type":"string","internalType":"string"}],"outputs":[],"stateMutability":"nonpayable"},{"type":"function","name":"voteTempCheck","inputs":[{"name":"mdp","type":"uint256","internalType":"uint256"},{"name":"approve","type":"bool","internalType":"bool"}],"outputs":[],"stateMutability":"nonpayable"},{"type":"event","name":"OwnershipTransferred","inputs":[{"name":"previousOwner","type":"address","indexed":true,"internalType":"address"},{"name":"newOwner","type":"address","indexed":true,"internalType":"address"}],"anonymous":false},{"type":"error","name":"ChainNotSupported","inputs":[{"name":"chainid","type":"uint256","internalType":"uint256"}]},{"type":"error","name":"OwnableInvalidOwner","inputs":[{"name":"owner","type":"address","internalType":"address"}]},{"type":"error","name":"OwnableUnauthorizedAccount","inputs":[{"name":"account","type":"address","internalType":"address"}]},{"type":"error","name":"StringsInsufficientHexLength","inputs":[{"name":"value","type":"uint256","internalType":"uint256"},{"name":"length","type":"uint256","internalType":"uint256"}]}],"bytecode":{"object":"0x6080806040523461044757612193803803809161001c8285610660565b83398101906080818303126104475780516001600160401b03811161044757810182601f820112156104475780519061005482610683565b936100626040519586610660565b8285526020838301011161044757815f9260208093018387015e8401015260208101516001600160a01b0381169190829003610447576060604082015191015191331561064d575f8054336001600160a01b0319821681178355916001600160a01b03909116907f8be0079c531659141344cd1fd0a4f28419497f9722a3daafe3b4186f6b6457e09080a383516001600160401b03811161063957610108600c5461069e565b601f81116105d6575b50602094601f8211600114610573579481929394955f92610568575b50508160011b915f199060031b1c191617600c555b6001600160a01b036101526106d6565b166040519061016260a083610660565b6076825260208201917f696420696e7465676572207072696d617279206b65792c20717561727465722083527f696e74656765722c207965617220696e74656765722c2061646472657373207460408201527f6578742c20646973747269627574696f6e20746578742c20756e69717565287160608201527f7561727465722c20796561722c206164647265737329000000000000000000006080820152604051915f600c5490846102138361069e565b9182825260208201936001811690815f1461054c57506001146104ed575b61023d92500385610660565b46945f93867a184f03e93ff9f4daa797ed6e38ed64bf6a1f0100000000000000008110156104c5575b806d04ee2d6d415b85acef8100000000600a9210156104aa575b662386f26fc10000811015610496575b6305f5e100811015610485575b612710811015610476575b6064811015610468575b101561045e575b6001850196600a60216102e46102ce8b610683565b9a6102dc6040519c8d610660565b808c52610683565b60208b019890601f1901368a378a01015b5f1901916f181899199a1a9b1b9c1cb0b131b232b360811b8282061a83530490811561032357600a906102f5565b505060016020968161039e948194602d6c021a922a0aa22902a20a126229609d1b9a60649d6040519a8b978f89019e8f52518091858a015e870190605f60f81b84830152518092602e83015e010190600560fb1b84830152518092600283015e0101602960f81b838201520301601e19810184520182610660565b5f60405195868095819463a15ab08d60e01b8352306004840152604060248401525180918160448501528484015e8181018301849052601f01601f191681010301925af1908115610453575f9161041d575b50600b55600180546001600160a01b031916919091179055600955600a5560405161191b90816108788239f35b90506020813d60201161044b575b8161043860209383610660565b8101031261044757515f6103f0565b5f80fd5b3d915061042b565b6040513d5f823e3d90fd5b93600101936102b9565b6064600291049601956102b2565b612710600491049601956102a8565b6305f5e1006008910496019561029d565b662386f26fc1000060109104960195610290565b6d04ee2d6d415b85acef810000000060209104960195610280565b50604094507a184f03e93ff9f4daa797ed6e38ed64bf6a1f0100000000000000004604610266565b50600c5f90815290917fdf6966c971051c3d54ec59162606531493a51404a002842f56009d7e5cf4a8c75b81831061053057505090602061023d92820101610231565b6020919350806001915483858b01015201910190918692610518565b60ff191685525061023d92151560051b82016020019050610231565b015190505f8061012d565b601f19821695600c5f52805f20915f5b8881106105be575083600195969798106105a6575b505050811b01600c55610142565b01515f1960f88460031b161c191690555f8080610598565b91926020600181928685015181550194019201610583565b600c5f527fdf6966c971051c3d54ec59162606531493a51404a002842f56009d7e5cf4a8c7601f830160051c8101916020841061062f575b601f0160051c01905b8181106106245750610111565b5f8155600101610617565b909150819061060e565b634e487b7160e01b5f52604160045260245ffd5b631e4fbdf760e01b5f525f60045260245ffd5b601f909101601f19168101906001600160401b0382119082101761063957604052565b6001600160401b03811161063957601f01601f191660200190565b90600182811c921680156106cc575b60208310146106b857565b634e487b7160e01b5f52602260045260245ffd5b91607f16916106ad565b466001036106f65773012969f7e3439a9b04025b5a049eb9bad82a8c1290565b46600a036107165773fad44bf5b843de943a09d4f3e84949a11d3aa3e690565b4661a4b10361073757739abd75e8640871a5a20d3b4ee6330a04c962affd90565b4661a4ba0361075857731a22854c5b1642760a827f20137a67930ae108d290565b4660890361077857735c4e6a9e5c1e1bf445a062006faf19ea6c49afea90565b4661013a03610799577359ef8bf2d6c102b4c42aef9189e1a9f0abfd652d90565b4662aa36a7036107bb5773c50c62498448acc8dbde43da77f8d5d2e2c7597d90565b4662aa37dc036107dd577368a2f4423ad3bf5139db563cf3bc80aa09ed707990565b4662066eee036107ff5773223a74b8323914afdc3ff1e5005564dc17231d6e90565b4662013882036108215773170fb206132b693e38adfc8727dcfa303546cec190565b466204cb2f036108435773030bcf3d50cad04c2e57391b12740982a930862190565b46617a69036108645773e7f1725e7734ce288f8367e1bb143e90bb3f051290565b63264e42cf60e01b5f524660045260245ffdfe6080806040526004361015610012575f80fd5b5f905f3560e01c9081630858be2214610fff57508063085a2e2f14610d66578063150b7a0214610ce25780631703a01814610cc457806318491edd14610c7857806319129e5a14610bdf578063194cbb2d14610b0a5780632962761614610adb5780633a164ede14610a9057806342cde4e814610a725780634ac3db5a14610a275780634d318b0e146109f85780635d5a33a2146109be5780636203563e14610994578063715018a61461092e57806388e4f1cb146109105780638c822db41461050d5780638da5cb5b146104e7578063960bfe04146104c457806398faa1381461049a578063bd38034c14610220578063c1ba4e59146101fd578063e0aecc41146101d35763f2fde38b14610126575f80fd5b346101d05760206003193601126101d0576001600160a01b036101476110fa565b61014f611830565b1680156101a4576001600160a01b0382548273ffffffffffffffffffffffffffffffffffffffff198216178455167f8be0079c531659141344cd1fd0a4f28419497f9722a3daafe3b4186f6b6457e08380a380f35b6024827f1e4fbdf700000000000000000000000000000000000000000000000000000000815280600452fd5b80fd5b50346101d05760206003193601126101d05760406020916004358152600583522054604051908152f35b50346101d05760206003193601126101d057610217611830565b60043560095580f35b50346101d0578061030360057f646973747269627574696f6e3d000000000000000000000000000000000000006103c5602061025b366110b3565b959196906102ec6102e66001600160a01b0361027561138d565b16996102e16001603261028a600b549d6117ba565b6040519a8b918183019e8f527f6a736f6e28000000000000000000000000000000000000000000000000000000602d8401528051918291018484015e8101602960f81b838201520301601e1981018a52018861102a565b611547565b91611547565b6102fd6102f8336116cc565b6117ba565b91611252565b936103158661031061114b565b61186f565b92602095869283604051610329828261102a565b8c8152928c815161043b575b505050602791926040519889977f5550444154452000000000000000000000000000000000000000000000000000828a0152805191829101858a015e8701907f205345542000000000000000000000000000000000000000000000000000000084830152518092602c83015e0101908382018a8152815193849201905e010186815203601f19810183528261102a565b823b1561043657610409928492836040518096819582947f377af0da000000000000000000000000000000000000000000000000000000008452306004850161122d565b03925af1801561042b5761041a5750f35b816104249161102a565b6101d05780f35b6040513d84823e3d90fd5b505050fd5b602794506104909185916040519485927f2057484552452000000000000000000000000000000000000000000000000000828501528051918291018585015e820190838201520301601f19810183528261102a565b9150835f8c610335565b50346101d05760206003193601126101d05760406020916004358152600783522054604051908152f35b50346101d05760206003193601126101d0576104de611830565b600435600a5580f35b50346101d057806003193601126101d0576001600160a01b036020915416604051908152f35b50346101d05760406003193601126101d057600435602435801515810361090c57602460206001600160a01b0360015416604051928380927f490055c00000000000000000000000000000000000000000000000000000000082523360048301525afa9081156109015784916108c2575b501561085857818352600660205260ff60408420541661081457818352600860205260ff6040842054166107d0578183526002602052604083206001600160a01b0333165f5260205260ff60405f2054169081156107a5575b8115610788575b156106e957508082526002602052604082206001600160a01b0333165f5260205261061060ff60405f20541615611336565b8082526002602052604082206001600160a01b0333165f5260205260405f20600160ff198254161790558082526003602052604082206001600160a01b0333165f5260205260405f2060ff1981541690558082526004602052604082206106778154611314565b90555b808252600560205260408220546009541115610694575080f35b80825260046020526040822054600a54116106d057808252600660205260408220600160ff198254161790558152600760205242604082205580f35b8152600860205260408120600160ff1982541617905580f35b8183526003602052604083206001600160a01b0333165f5260205261071560ff60405f20541615611336565b8183526003602052604083206001600160a01b0333165f5260205260405f20600160ff198254161790558183526002602052604083206001600160a01b0333165f5260205260405f2060ff1981541690551561067a578082526004602052604082206107818154611381565b905561067a565b82845260056020526040842061079e8154611314565b90556105de565b90508183526003602052604083206001600160a01b0333165f5260205260ff60405f205416906105d7565b606460405162461bcd60e51b815260206004820152601960248201527f54656d7020636865636b20616c7265616479206661696c6564000000000000006044820152fd5b606460405162461bcd60e51b815260206004820152601960248201527f54656d7020636865636b20616c726561647920706173736564000000000000006044820152fd5b608460405162461bcd60e51b815260206004820152602760248201527f4d75737420626520612073656e61746f7220746f20766f7465206f6e2074656d60448201527f7020636865636b000000000000000000000000000000000000000000000000006064820152fd5b90506020813d6020116108f9575b816108dd6020938361102a565b810103126108f5575180151581036108f5575f61057e565b8380fd5b3d91506108d0565b6040513d86823e3d90fd5b8280fd5b50346101d057806003193601126101d0576020600b54604051908152f35b50346101d057806003193601126101d057610947611830565b806001600160a01b03815473ffffffffffffffffffffffffffffffffffffffff1981168355167f8be0079c531659141344cd1fd0a4f28419497f9722a3daafe3b4186f6b6457e08280a380f35b50346101d05760206003193601126101d05760406020916004358152600483522054604051908152f35b50346101d057806003193601126101d0576109f46109e0600b5461031061114b565b604051918291602083526020830190611126565b0390f35b50346101d05760206003193601126101d057600435808252600560205260408220546009541115610694575080f35b50346101d05760406003193601126101d0576001600160a01b036040610a4b611110565b92600435815260036020522091165f52602052602060ff60405f2054166040519015158152f35b50346101d057806003193601126101d0576020600a54604051908152f35b50346101d05760406003193601126101d0576001600160a01b036040610ab4611110565b92600435815260026020522091165f52602052602060ff60405f2054166040519015158152f35b50346101d05760206003193601126101d05760ff60406020926004358152600884522054166040519015158152f35b50346101d05760406003193601126101d057806001600160a01b03610b2d61138d565b16600b5460206103c56007610b51610b46600435611547565b6102ec602435611547565b602c84610b608761031061114b565b926040519687947f44454c4554452046524f4d200000000000000000000000000000000000000000828701528051918291018587015e8401907f205748455245200000000000000000000000000000000000000000000000000084830152805192839101603383015e010187838201520301601f19810183528261102a565b50346101d05760206003193601126101d05780610bfa6110fa565b610c02611830565b6001600160a01b03610c1261138d565b1690600b5490823b156104365760648492836001600160a01b039560405196879586947f8bb0ab9700000000000000000000000000000000000000000000000000000000865230600487015260248601521660448401525af1801561042b5761041a5750f35b50346101d05760206003193601126101d0576001600160a01b03610c9a6110fa565b610ca2611830565b1673ffffffffffffffffffffffffffffffffffffffff19600154161760015580f35b50346101d057806003193601126101d0576020600954604051908152f35b50346101d05760806003193601126101d057610cfc6110fa565b50610d05611110565b5060643567ffffffffffffffff8111610d625736602382011215610d6257610d3790369060248160040135910161107d565b5060206040517f150b7a02000000000000000000000000000000000000000000000000000000008152f35b5080fd5b5034610ffb576020600181610f8c826008610d80366110b3565b97919690610e678260066001600160a01b03610d9a61138d565b169b8287610db3610dad600b549f611547565b97611547565b928282610dcb610dc56102f8336116cc565b936117ba565b92816040519d8e9881808b019e8f815192839201905e8a0190600b60fa1b83830152805192839101602183015e010190600b60fa1b84830152805192839101600283015e010190600b60fa1b848301527f6a736f6e280000000000000000000000000000000000000000000000000000006002830152805192839101600783015e0101602960f81b838201520301601e1981018652018461102a565b610e6f61114b565b92602c60405194610e8160608761102a565b60218652610edb8b8b8801927f717561727465722c796561722c616464726573732c646973747269627574696f84527f6e0000000000000000000000000000000000000000000000000000000000000060408a015261186f565b956040519a8b977f494e5345525420494e544f200000000000000000000000000000000000000000828a0152805191829101858a015e8701907f280000000000000000000000000000000000000000000000000000000000000084830152518092602d83015e0101907f2956414c5545532800000000000000000000000000000000000000000000000084830152518092600983015e0101602960f81b838201520301601e1981018452018261102a565b823b15610ffb57610fd0925f92836040518096819582947f377af0da000000000000000000000000000000000000000000000000000000008452306004850161122d565b03925af18015610ff057610fe2575080f35b610fee91505f9061102a565b005b6040513d5f823e3d90fd5b5f80fd5b34610ffb576020600319360112610ffb576020906004355f526006825260ff60405f20541615158152f35b90601f601f19910116810190811067ffffffffffffffff82111761104d57604052565b634e487b7160e01b5f52604160045260245ffd5b67ffffffffffffffff811161104d57601f01601f191660200190565b92919261108982611061565b91611097604051938461102a565b829481845281830111610ffb578281602093845f960137010152565b6060600319820112610ffb5760043591602435916044359067ffffffffffffffff8211610ffb5780602383011215610ffb578160246110f79360040135910161107d565b90565b600435906001600160a01b0382168203610ffb57565b602435906001600160a01b0382168203610ffb57565b90601f19601f602080948051918291828752018686015e5f8582860101520116010190565b604051905f600c548060011c9160018216918215611223575b60208410831461120f5783865285929081156111f05750600114611191575b61118f9250038361102a565b565b50600c5f90815290917fdf6966c971051c3d54ec59162606531493a51404a002842f56009d7e5cf4a8c75b8183106111d457505090602061118f92820101611183565b60209193508060019154838589010152019101909184926111bc565b6020925061118f94915060ff191682840152151560051b820101611183565b634e487b7160e01b5f52602260045260245ffd5b92607f1692611164565b6110f793926001600160a01b0360609316825260208201528160408201520190611126565b600f90600c6020809695602a8261118f976040519a8b977f71756172746572203d2000000000000000000000000000000000000000000000828a0152805191829101858a015e8701907f20414e442079656172203d20000000000000000000000000000000000000000084830152805192839101603683015e0101907f20414e442061646472657373203d20000000000000000000000000000000000084830152805192839101601b83015e01015f838201520301601f19810184528361102a565b5f1981146113225760010190565b634e487b7160e01b5f52601160045260245ffd5b1561133d57565b606460405162461bcd60e51b815260206004820152600d60248201527f416c726561647920766f746564000000000000000000000000000000000000006044820152fd5b8015611322575f190190565b466001036113ad5773012969f7e3439a9b04025b5a049eb9bad82a8c1290565b46600a036113cd5773fad44bf5b843de943a09d4f3e84949a11d3aa3e690565b4661a4b1036113ee57739abd75e8640871a5a20d3b4ee6330a04c962affd90565b4661a4ba0361140f57731a22854c5b1642760a827f20137a67930ae108d290565b4660890361142f57735c4e6a9e5c1e1bf445a062006faf19ea6c49afea90565b4661013a03611450577359ef8bf2d6c102b4c42aef9189e1a9f0abfd652d90565b4662aa36a7036114725773c50c62498448acc8dbde43da77f8d5d2e2c7597d90565b4662aa37dc03611494577368a2f4423ad3bf5139db563cf3bc80aa09ed707990565b4662066eee036114b65773223a74b8323914afdc3ff1e5005564dc17231d6e90565b4662013882036114d85773170fb206132b693e38adfc8727dcfa303546cec190565b466204cb2f036114fa5773030bcf3d50cad04c2e57391b12740982a930862190565b46617a690361151b5773e7f1725e7734ce288f8367e1bb143e90bb3f051290565b7f264e42cf000000000000000000000000000000000000000000000000000000005f524660045260245ffd5b805f917a184f03e93ff9f4daa797ed6e38ed64bf6a1f0100000000000000008210156116a4575b806d04ee2d6d415b85acef8100000000600a921015611689575b662386f26fc10000811015611675575b6305f5e100811015611664575b612710811015611655575b6064811015611647575b101561163c575b600a5f1960216001850194601f196115f16115db88611061565b976115e9604051998a61102a565b808952611061565b013660208801378501015b01917f30313233343536373839616263646566000000000000000000000000000000008282061a8353048015611637575f19600a91926115fc565b505090565b6001909101906115c1565b6064600291049301926115ba565b612710600491049301926115b0565b6305f5e100600891049301926115a5565b662386f26fc1000060109104930192611598565b6d04ee2d6d415b85acef810000000060209104930192611588565b50604091507a184f03e93ff9f4daa797ed6e38ed64bf6a1f010000000000000000810461156e565b6001600160a01b031680604051916116e560608461102a565b602a83526020830160403682378351156117a657603090538251600110156117a6576078602184015360295b600181116117525750611722575090565b7fe22e27eb000000000000000000000000000000000000000000000000000000005f52600452601460245260445ffd5b90600f81169060108210156117a65784518310156117a6576117a1917f3031323334353637383961626364656600000000000000000000000000000000901a8584016020015360041c91611381565b611711565b634e487b7160e01b5f52603260045260245ffd5b6110f7600160216020936040519485917f2700000000000000000000000000000000000000000000000000000000000000828401528051918291018484015e81017f2700000000000000000000000000000000000000000000000000000000000000838201520301601e1981018452018261102a565b6001600160a01b035f5416330361184357565b7f118cdaa7000000000000000000000000000000000000000000000000000000005f523360045260245ffd5b60016110f7918160208095818061188e61188846611547565b93611547565b9260405199878b985191829101848a015e8701907f5f0000000000000000000000000000000000000000000000000000000000000083830152805192839101602183015e0101907f5f0000000000000000000000000000000000000000000000000000000000000084830152805192839101600283015e01015f838201520301601f19810183528261102a56","linkReferences":{}},"methodIdentifiers":{"deleteFromTable(uint256,uint256)":"194cbb2d","getTableId()":"88e4f1cb","getTableName()":"5d5a33a2","insertIntoTable(uint256,uint256,string)":"085a2e2f","onERC721Received(address,address,uint256,bytes)":"150b7a02","owner()":"8da5cb5b","quorum()":"1703a018","renounceOwnership()":"715018a6","setAccessControl(address)":"19129e5a","setQuorum(uint256)":"c1ba4e59","setSenators(address)":"18491edd","setThreshold(uint256)":"960bfe04","tallyVotes(uint256)":"4d318b0e","tempCheckApprovalCount(uint256)":"6203563e","tempCheckApproved(uint256)":"0858be22","tempCheckApprovedTimestamp(uint256)":"98faa138","tempCheckFailed(uint256)":"29627616","tempCheckVoteApprove(uint256,address)":"3a164ede","tempCheckVoteCount(uint256)":"e0aecc41","tempCheckVoteDeny(uint256,address)":"4ac3db5a","threshold()":"42cde4e8","transferOwnership(address)":"f2fde38b","updateTableCol(uint256,uint256,string)":"bd38034c","voteTempCheck(uint256,bool)":"8c822db4"},"id":39}