{"abi":[{"type":"constructor","inputs":[{"name":"_table_prefix","type":"string","internalType":"string"},{"name":"_senatorsAddress","type":"address","internalType":"address"},{"name":"_quorum","type":"uint256","internalType":"uint256"},{"name":"_threshold","type":"uint256","internalType":"uint256"}],"stateMutability":"nonpayable"},{"type":"function","name":"deleteFromTable","inputs":[{"name":"mdp","type":"uint256","internalType":"uint256"}],"outputs":[],"stateMutability":"nonpayable"},{"type":"function","name":"getTableId","inputs":[],"outputs":[{"name":"","type":"uint256","internalType":"uint256"}],"stateMutability":"view"},{"type":"function","name":"getTableName","inputs":[],"outputs":[{"name":"","type":"string","internalType":"string"}],"stateMutability":"view"},{"type":"function","name":"insertIntoTable","inputs":[{"name":"mdp","type":"uint256","internalType":"uint256"},{"name":"vote","type":"string","internalType":"string"}],"outputs":[],"stateMutability":"nonpayable"},{"type":"function","name":"onERC721Received","inputs":[{"name":"","type":"address","internalType":"address"},{"name":"","type":"address","internalType":"address"},{"name":"","type":"uint256","internalType":"uint256"},{"name":"","type":"bytes","internalType":"bytes"}],"outputs":[{"name":"","type":"bytes4","internalType":"bytes4"}],"stateMutability":"nonpayable"},{"type":"function","name":"owner","inputs":[],"outputs":[{"name":"","type":"address","internalType":"address"}],"stateMutability":"view"},{"type":"function","name":"quorum","inputs":[],"outputs":[{"name":"","type":"uint256","internalType":"uint256"}],"stateMutability":"view"},{"type":"function","name":"renounceOwnership","inputs":[],"outputs":[],"stateMutability":"nonpayable"},{"type":"function","name":"setAccessControl","inputs":[{"name":"controller","type":"address","internalType":"address"}],"outputs":[],"stateMutability":"nonpayable"},{"type":"function","name":"setQuorum","inputs":[{"name":"_quorum","type":"uint256","internalType":"uint256"}],"outputs":[],"stateMutability":"nonpayable"},{"type":"function","name":"setSenators","inputs":[{"name":"_senatorsAddress","type":"address","internalType":"address"}],"outputs":[],"stateMutability":"nonpayable"},{"type":"function","name":"setThreshold","inputs":[{"name":"_threshold","type":"uint256","internalType":"uint256"}],"outputs":[],"stateMutability":"nonpayable"},{"type":"function","name":"tallyVotes","inputs":[{"name":"mdp","type":"uint256","internalType":"uint256"}],"outputs":[],"stateMutability":"nonpayable"},{"type":"function","name":"tempCheckApprovalCount","inputs":[{"name":"","type":"uint256","internalType":"uint256"}],"outputs":[{"name":"","type":"uint256","internalType":"uint256"}],"stateMutability":"view"},{"type":"function","name":"tempCheckApproved","inputs":[{"name":"","type":"uint256","internalType":"uint256"}],"outputs":[{"name":"","type":"bool","internalType":"bool"}],"stateMutability":"view"},{"type":"function","name":"tempCheckApprovedTimestamp","inputs":[{"name":"","type":"uint256","internalType":"uint256"}],"outputs":[{"name":"","type":"uint256","internalType":"uint256"}],"stateMutability":"view"},{"type":"function","name":"tempCheckFailed","inputs":[{"name":"","type":"uint256","internalType":"uint256"}],"outputs":[{"name":"","type":"bool","internalType":"bool"}],"stateMutability":"view"},{"type":"function","name":"tempCheckVoteApprove","inputs":[{"name":"","type":"uint256","internalType":"uint256"},{"name":"","type":"address","internalType":"address"}],"outputs":[{"name":"","type":"bool","internalType":"bool"}],"stateMutability":"view"},{"type":"function","name":"tempCheckVoteCount","inputs":[{"name":"","type":"uint256","internalType":"uint256"}],"outputs":[{"name":"","type":"uint256","internalType":"uint256"}],"stateMutability":"view"},{"type":"function","name":"tempCheckVoteDeny","inputs":[{"name":"","type":"uint256","internalType":"uint256"},{"name":"","type":"address","internalType":"address"}],"outputs":[{"name":"","type":"bool","internalType":"bool"}],"stateMutability":"view"},{"type":"function","name":"threshold","inputs":[],"outputs":[{"name":"","type":"uint256","internalType":"uint256"}],"stateMutability":"view"},{"type":"function","name":"transferOwnership","inputs":[{"name":"newOwner","type":"address","internalType":"address"}],"outputs":[],"stateMutability":"nonpayable"},{"type":"function","name":"updateTableCol","inputs":[{"name":"mdp","type":"uint256","internalType":"uint256"},{"name":"vote","type":"string","internalType":"string"}],"outputs":[],"stateMutability":"nonpayable"},{"type":"function","name":"voteTempCheck","inputs":[{"name":"mdp","type":"uint256","internalType":"uint256"},{"name":"approve","type":"bool","internalType":"bool"}],"outputs":[],"stateMutability":"nonpayable"},{"type":"event","name":"OwnershipTransferred","inputs":[{"name":"previousOwner","type":"address","indexed":true,"internalType":"address"},{"name":"newOwner","type":"address","indexed":true,"internalType":"address"}],"anonymous":false},{"type":"error","name":"ChainNotSupported","inputs":[{"name":"chainid","type":"uint256","internalType":"uint256"}]},{"type":"error","name":"OwnableInvalidOwner","inputs":[{"name":"owner","type":"address","internalType":"address"}]},{"type":"error","name":"OwnableUnauthorizedAccount","inputs":[{"name":"account","type":"address","internalType":"address"}]},{"type":"error","name":"StringsInsufficientHexLength","inputs":[{"name":"value","type":"uint256","internalType":"uint256"},{"name":"length","type":"uint256","internalType":"uint256"}]}],"bytecode":{"object":"0x6080806040523461041657612114803803809161001c828561062f565b83398101906080818303126104165780516001600160401b03811161041657810182601f820112156104165780519061005482610652565b93610062604051958661062f565b8285526020838301011161041657815f9260208093018387015e8401015260208101516001600160a01b0381169190829003610416576060604082015191015191331561061c575f8054336001600160a01b0319821681178355916001600160a01b03909116907f8be0079c531659141344cd1fd0a4f28419497f9722a3daafe3b4186f6b6457e09080a383516001600160401b03811161060857610108600c5461066d565b601f81116105a5575b50602094601f8211600114610542579481929394955f92610537575b50508160011b915f199060031b1c191617600c555b6001600160a01b036101526106a5565b166040519061016260808361062f565b6052825260208201917f696420696e7465676572207072696d617279206b65792c206d647020696e746583527f6765722c206164647265737320746578742c20766f746520746578742c20756e6040820152716971756528616464726573732c206d64702960701b6060820152604051915f600c5490846101e28361066d565b9182825260208201936001811690815f1461051b57506001146104bc575b61020c9250038561062f565b46945f93867a184f03e93ff9f4daa797ed6e38ed64bf6a1f010000000000000000811015610494575b806d04ee2d6d415b85acef8100000000600a921015610479575b662386f26fc10000811015610465575b6305f5e100811015610454575b612710811015610445575b6064811015610437575b101561042d575b6001850196600a60216102b361029d8b610652565b9a6102ab6040519c8d61062f565b808c52610652565b60208b019890601f1901368a378a01015b5f1901916f181899199a1a9b1b9c1cb0b131b232b360811b8282061a8353049081156102f257600a906102c4565b505060016020968161036d948194602d6c021a922a0aa22902a20a126229609d1b9a60649d6040519a8b978f89019e8f52518091858a015e870190605f60f81b84830152518092602e83015e010190600560fb1b84830152518092600283015e0101602960f81b838201520301601e1981018452018261062f565b5f60405195868095819463a15ab08d60e01b8352306004840152604060248401525180918160448501528484015e8181018301849052601f01601f191681010301925af1908115610422575f916103ec575b50600b55600180546001600160a01b031916919091179055600955600a556040516118cd90816108478239f35b90506020813d60201161041a575b816104076020938361062f565b8101031261041657515f6103bf565b5f80fd5b3d91506103fa565b6040513d5f823e3d90fd5b9360010193610288565b606460029104960195610281565b61271060049104960195610277565b6305f5e1006008910496019561026c565b662386f26fc100006010910496019561025f565b6d04ee2d6d415b85acef81000000006020910496019561024f565b50604094507a184f03e93ff9f4daa797ed6e38ed64bf6a1f0100000000000000004604610235565b50600c5f90815290917fdf6966c971051c3d54ec59162606531493a51404a002842f56009d7e5cf4a8c75b8183106104ff57505090602061020c92820101610200565b6020919350806001915483858b010152019101909186926104e7565b60ff191685525061020c92151560051b82016020019050610200565b015190505f8061012d565b601f19821695600c5f52805f20915f5b88811061058d57508360019596979810610575575b505050811b01600c55610142565b01515f1960f88460031b161c191690555f8080610567565b91926020600181928685015181550194019201610552565b600c5f527fdf6966c971051c3d54ec59162606531493a51404a002842f56009d7e5cf4a8c7601f830160051c810191602084106105fe575b601f0160051c01905b8181106105f35750610111565b5f81556001016105e6565b90915081906105dd565b634e487b7160e01b5f52604160045260245ffd5b631e4fbdf760e01b5f525f60045260245ffd5b601f909101601f19168101906001600160401b0382119082101761060857604052565b6001600160401b03811161060857601f01601f191660200190565b90600182811c9216801561069b575b602083101461068757565b634e487b7160e01b5f52602260045260245ffd5b91607f169161067c565b466001036106c55773012969f7e3439a9b04025b5a049eb9bad82a8c1290565b46600a036106e55773fad44bf5b843de943a09d4f3e84949a11d3aa3e690565b4661a4b10361070657739abd75e8640871a5a20d3b4ee6330a04c962affd90565b4661a4ba0361072757731a22854c5b1642760a827f20137a67930ae108d290565b4660890361074757735c4e6a9e5c1e1bf445a062006faf19ea6c49afea90565b4661013a03610768577359ef8bf2d6c102b4c42aef9189e1a9f0abfd652d90565b4662aa36a70361078a5773c50c62498448acc8dbde43da77f8d5d2e2c7597d90565b4662aa37dc036107ac577368a2f4423ad3bf5139db563cf3bc80aa09ed707990565b4662066eee036107ce5773223a74b8323914afdc3ff1e5005564dc17231d6e90565b4662013882036107f05773170fb206132b693e38adfc8727dcfa303546cec190565b466204cb2f036108125773030bcf3d50cad04c2e57391b12740982a930862190565b46617a69036108335773e7f1725e7734ce288f8367e1bb143e90bb3f051290565b63264e42cf60e01b5f524660045260245ffdfe60806040526004361015610011575f80fd5b5f803560e01c806304bfc47f14610ef35780630858be2214610ec45780630d157ad314610c9b578063150b7a0214610c175780631703a01814610bf957806318491edd14610bad57806319129e5a14610b045780632962761614610ad55780633a164ede14610a8a57806342cde4e814610a6c5780634ac3db5a14610a215780634d318b0e146109f25780635d5a33a2146109b35780636203563e14610989578063715018a61461092357806388e4f1cb146109055780638c822db4146105025780638da5cb5b146104dc578063960bfe04146104b957806398faa1381461048f578063c1ba4e591461046c578063e0aecc4114610442578063f2fde38b146103975763f56ec1ed14610122575f80fd5b34610387578060206101333661109f565b919081610339600160086001600160a01b0361014d61133f565b1696610239836006610161600b54996114f9565b93828961017e6101786101733361167e565b61176c565b9361176c565b816040519e8f95818088019b8051918291018d5e8701907f2c0000000000000000000000000000000000000000000000000000000000000083830152805192839101602183015e0101907f2c00000000000000000000000000000000000000000000000000000000000000848301527f6a736f6e280000000000000000000000000000000000000000000000000000006002830152805192839101600783015e0101602960f81b838201520301601e1981018a520188611016565b826102426111c1565b91604098602c8a51946102558c87611016565b601086526102898b8b8801927f6d64702c616464726573732c766f7465000000000000000000000000000000008452611821565b958c519a8b977f494e5345525420494e544f200000000000000000000000000000000000000000828a0152805191829101858a015e8701907f280000000000000000000000000000000000000000000000000000000000000084830152518092602d83015e0101907f2956414c5545532800000000000000000000000000000000000000000000000084830152518092600983015e0101602960f81b838201520301601e19810184520182611016565b833b1561039357610363938592838551809781958294631bbd786d60e11b845230600485016112a1565b03925af190811561038a57506103765750f35b8161038091611016565b6103875780f35b80fd5b513d84823e3d90fd5b8480fd5b5034610387576020600319360112610387576001600160a01b036103b96110e3565b6103c16117e2565b168015610416576001600160a01b0382548273ffffffffffffffffffffffffffffffffffffffff198216178455167f8be0079c531659141344cd1fd0a4f28419497f9722a3daafe3b4186f6b6457e08380a380f35b6024827f1e4fbdf700000000000000000000000000000000000000000000000000000000815280600452fd5b50346103875760206003193601126103875760406020916004358152600583522054604051908152f35b5034610387576020600319360112610387576104866117e2565b60043560095580f35b50346103875760206003193601126103875760406020916004358152600783522054604051908152f35b5034610387576020600319360112610387576104d36117e2565b600435600a5580f35b50346103875780600319360112610387576001600160a01b036020915416604051908152f35b503461038757604060031936011261038757600435602435801515810361090157602460206001600160a01b0360015416604051928380927f490055c00000000000000000000000000000000000000000000000000000000082523360048301525afa9081156108f65784916108b7575b501561084d57818352600660205260ff60408420541661080957818352600860205260ff6040842054166107c5578183526002602052604083206001600160a01b0333165f5260205260ff60405f20541690811561079a575b811561077d575b156106de57508082526002602052604082206001600160a01b0333165f5260205261060560ff60405f205416156112e8565b8082526002602052604082206001600160a01b0333165f5260205260405f20600160ff198254161790558082526003602052604082206001600160a01b0333165f5260205260405f2060ff19815416905580825260046020526040822061066c81546112c6565b90555b808252600560205260408220546009541115610689575080f35b80825260046020526040822054600a54116106c557808252600660205260408220600160ff198254161790558152600760205242604082205580f35b8152600860205260408120600160ff1982541617905580f35b8183526003602052604083206001600160a01b0333165f5260205261070a60ff60405f205416156112e8565b8183526003602052604083206001600160a01b0333165f5260205260405f20600160ff198254161790558183526002602052604083206001600160a01b0333165f5260205260405f2060ff1981541690551561066f578082526004602052604082206107768154611333565b905561066f565b82845260056020526040842061079381546112c6565b90556105d3565b90508183526003602052604083206001600160a01b0333165f5260205260ff60405f205416906105cc565b606460405162461bcd60e51b815260206004820152601960248201527f54656d7020636865636b20616c7265616479206661696c6564000000000000006044820152fd5b606460405162461bcd60e51b815260206004820152601960248201527f54656d7020636865636b20616c726561647920706173736564000000000000006044820152fd5b608460405162461bcd60e51b815260206004820152602760248201527f4d75737420626520612073656e61746f7220746f20766f7465206f6e2074656d60448201527f7020636865636b000000000000000000000000000000000000000000000000006064820152fd5b90506020813d6020116108ee575b816108d260209383611016565b810103126108ea575180151581036108ea575f610573565b8380fd5b3d91506108c5565b6040513d86823e3d90fd5b8280fd5b50346103875780600319360112610387576020600b54604051908152f35b503461038757806003193601126103875761093c6117e2565b806001600160a01b03815473ffffffffffffffffffffffffffffffffffffffff1981168355167f8be0079c531659141344cd1fd0a4f28419497f9722a3daafe3b4186f6b6457e08280a380f35b50346103875760206003193601126103875760406020916004358152600483522054604051908152f35b50346103875780600319360112610387576109ee6109da600b546109d56111c1565b611821565b60405191829160208352602083019061110f565b0390f35b503461038757602060031936011261038757600435808252600560205260408220546009541115610689575080f35b5034610387576040600319360112610387576001600160a01b036040610a456110f9565b92600435815260036020522091165f52602052602060ff60405f2054166040519015158152f35b50346103875780600319360112610387576020600a54604051908152f35b5034610387576040600319360112610387576001600160a01b036040610aae6110f9565b92600435815260026020522091165f52602052602060ff60405f2054166040519015158152f35b50346103875760206003193601126103875760ff60406020926004358152600884522054166040519015158152f35b50346103875760206003193601126103875780610b1f6110e3565b610b276117e2565b6001600160a01b03610b3761133f565b1690600b5490823b15610ba85760648492836001600160a01b039560405196879586947f8bb0ab9700000000000000000000000000000000000000000000000000000000865230600487015260248601521660448401525af18015610b9d576103765750f35b6040513d84823e3d90fd5b505050fd5b5034610387576020600319360112610387576001600160a01b03610bcf6110e3565b610bd76117e2565b1673ffffffffffffffffffffffffffffffffffffffff19600154161760015580f35b50346103875780600319360112610387576020600954604051908152f35b503461038757608060031936011261038757610c316110e3565b50610c3a6110f9565b5060643567ffffffffffffffff8111610c975736602382011215610c9757610c6c903690602481600401359101611069565b5060206040517f150b7a02000000000000000000000000000000000000000000000000000000008152f35b5080fd5b50346103875780610cab3661109f565b6001600160a01b03610cbb61133f565b1691610e29610ccc600b549361176c565b916005610d6c610d5a60405193610d556001602a8760208082019b7f766f74653d0000000000000000000000000000000000000000000000000000008d527f6a736f6e2800000000000000000000000000000000000000000000000000000060258401528051918291018484015e8101602960f81b838201520301601e19810188520186611016565b6114f9565b610d666101733361167e565b90611134565b93610d79866109d56111c1565b92602095869283604051610d8d8282611016565b8c8152928c8151610e65575b505050602791926040519889977f5550444154452000000000000000000000000000000000000000000000000000828a0152805191829101858a015e8701907f205345542000000000000000000000000000000000000000000000000000000084830152518092602c83015e0101908382018a8152815193849201905e010186815203601f198101835282611016565b823b15610ba857610e5492849283604051809681958294631bbd786d60e11b845230600485016112a1565b03925af18015610b9d576103765750f35b60279450610eba9185916040519485927f2057484552452000000000000000000000000000000000000000000000000000828501528051918291018585015e820190838201520301601f198101835282611016565b9150835f8c610d99565b50346103875760206003193601126103875760ff60406020926004358152600684522054166040519015158152f35b5034611012576020600319360112611012576001600160a01b03610f1561133f565b16600b546020610fbc6007610f2e610d5a6004356114f9565b602c84610f3d876109d56111c1565b926040519687947f44454c4554452046524f4d200000000000000000000000000000000000000000828701528051918291018587015e8401907f205748455245200000000000000000000000000000000000000000000000000084830152805192839101603383015e01015f838201520301601f198101835282611016565b823b1561101257610fe7925f9283604051809681958294631bbd786d60e11b845230600485016112a1565b03925af1801561100757610ff9575080f35b61100591505f90611016565b005b6040513d5f823e3d90fd5b5f80fd5b90601f601f19910116810190811067ffffffffffffffff82111761103957604052565b634e487b7160e01b5f52604160045260245ffd5b67ffffffffffffffff811161103957601f01601f191660200190565b9291926110758261104d565b916110836040519384611016565b829481845281830111611012578281602093845f960137010152565b90604060031983011261101257600435916024359067ffffffffffffffff82116110125780602383011215611012578160246110e093600401359101611069565b90565b600435906001600160a01b038216820361101257565b602435906001600160a01b038216820361101257565b90601f19601f602080948051918291828752018686015e5f8582860101520116010190565b600f6111bf91602660208096956040519788947f6d6470203d200000000000000000000000000000000000000000000000000000828701528051918291018587015e8401907f20414e442061646472657373203d20000000000000000000000000000000000084830152805192839101603583015e01015f838201520301601f198101845283611016565b565b604051905f600c548060011c9160018216918215611297575b6020841083146112835783865285929081156112645750600114611205575b6111bf92500383611016565b50600c5f90815290917fdf6966c971051c3d54ec59162606531493a51404a002842f56009d7e5cf4a8c75b8183106112485750509060206111bf928201016111f9565b6020919350806001915483858901015201910190918492611230565b602092506111bf94915060ff191682840152151560051b8201016111f9565b634e487b7160e01b5f52602260045260245ffd5b92607f16926111da565b6110e093926001600160a01b036060931682526020820152816040820152019061110f565b5f1981146112d45760010190565b634e487b7160e01b5f52601160045260245ffd5b156112ef57565b606460405162461bcd60e51b815260206004820152600d60248201527f416c726561647920766f746564000000000000000000000000000000000000006044820152fd5b80156112d4575f190190565b4660010361135f5773012969f7e3439a9b04025b5a049eb9bad82a8c1290565b46600a0361137f5773fad44bf5b843de943a09d4f3e84949a11d3aa3e690565b4661a4b1036113a057739abd75e8640871a5a20d3b4ee6330a04c962affd90565b4661a4ba036113c157731a22854c5b1642760a827f20137a67930ae108d290565b466089036113e157735c4e6a9e5c1e1bf445a062006faf19ea6c49afea90565b4661013a03611402577359ef8bf2d6c102b4c42aef9189e1a9f0abfd652d90565b4662aa36a7036114245773c50c62498448acc8dbde43da77f8d5d2e2c7597d90565b4662aa37dc03611446577368a2f4423ad3bf5139db563cf3bc80aa09ed707990565b4662066eee036114685773223a74b8323914afdc3ff1e5005564dc17231d6e90565b46620138820361148a5773170fb206132b693e38adfc8727dcfa303546cec190565b466204cb2f036114ac5773030bcf3d50cad04c2e57391b12740982a930862190565b46617a69036114cd5773e7f1725e7734ce288f8367e1bb143e90bb3f051290565b7f264e42cf000000000000000000000000000000000000000000000000000000005f524660045260245ffd5b805f917a184f03e93ff9f4daa797ed6e38ed64bf6a1f010000000000000000821015611656575b806d04ee2d6d415b85acef8100000000600a92101561163b575b662386f26fc10000811015611627575b6305f5e100811015611616575b612710811015611607575b60648110156115f9575b10156115ee575b600a5f1960216001850194601f196115a361158d8861104d565b9761159b604051998a611016565b80895261104d565b013660208801378501015b01917f30313233343536373839616263646566000000000000000000000000000000008282061a83530480156115e9575f19600a91926115ae565b505090565b600190910190611573565b60646002910493019261156c565b61271060049104930192611562565b6305f5e10060089104930192611557565b662386f26fc100006010910493019261154a565b6d04ee2d6d415b85acef81000000006020910493019261153a565b50604091507a184f03e93ff9f4daa797ed6e38ed64bf6a1f0100000000000000008104611520565b6001600160a01b03168060405191611697606084611016565b602a83526020830160403682378351156117585760309053825160011015611758576078602184015360295b6001811161170457506116d4575090565b7fe22e27eb000000000000000000000000000000000000000000000000000000005f52600452601460245260445ffd5b90600f811690601082101561175857845183101561175857611753917f3031323334353637383961626364656600000000000000000000000000000000901a8584016020015360041c91611333565b6116c3565b634e487b7160e01b5f52603260045260245ffd5b6110e0600160216020936040519485917f2700000000000000000000000000000000000000000000000000000000000000828401528051918291018484015e81017f2700000000000000000000000000000000000000000000000000000000000000838201520301601e19810184520182611016565b6001600160a01b035f541633036117f557565b7f118cdaa7000000000000000000000000000000000000000000000000000000005f523360045260245ffd5b60016110e0918160208095818061184061183a466114f9565b936114f9565b9260405199878b985191829101848a015e8701907f5f0000000000000000000000000000000000000000000000000000000000000083830152805192839101602183015e0101907f5f0000000000000000000000000000000000000000000000000000000000000084830152805192839101600283015e01015f838201520301601f19810183528261101656","linkReferences":{}},"methodIdentifiers":{"deleteFromTable(uint256)":"04bfc47f","getTableId()":"88e4f1cb","getTableName()":"5d5a33a2","insertIntoTable(uint256,string)":"f56ec1ed","onERC721Received(address,address,uint256,bytes)":"150b7a02","owner()":"8da5cb5b","quorum()":"1703a018","renounceOwnership()":"715018a6","setAccessControl(address)":"19129e5a","setQuorum(uint256)":"c1ba4e59","setSenators(address)":"18491edd","setThreshold(uint256)":"960bfe04","tallyVotes(uint256)":"4d318b0e","tempCheckApprovalCount(uint256)":"6203563e","tempCheckApproved(uint256)":"0858be22","tempCheckApprovedTimestamp(uint256)":"98faa138","tempCheckFailed(uint256)":"29627616","tempCheckVoteApprove(uint256,address)":"3a164ede","tempCheckVoteCount(uint256)":"e0aecc41","tempCheckVoteDeny(uint256,address)":"4ac3db5a","threshold()":"42cde4e8","transferOwnership(address)":"f2fde38b","updateTableCol(uint256,string)":"0d157ad3","voteTempCheck(uint256,bool)":"8c822db4"},"id":39}