{"abi":[{"type":"constructor","inputs":[{"name":"_mooneyAddress","type":"address","internalType":"address"},{"name":"_vMooneyAddress","type":"address","internalType":"address"},{"name":"_depositorAddress","type":"address","internalType":"address"}],"stateMutability":"nonpayable"},{"type":"function","name":"drip","inputs":[],"outputs":[],"stateMutability":"nonpayable"}],"bytecode":{"object":"0x60803460a257601f6104bf38819003918201601f19168301916001600160401b0383118484101760a65780849260609460405283398101031260a25760428160ba565b906057604060516020840160ba565b920160ba565b5f80546001600160a01b039485166001600160a01b0319918216179091556001805493851693821693909317909255600280549190931691161790556040516103f190816100ce8239f35b5f80fd5b634e487b7160e01b5f52604160045260245ffd5b51906001600160a01b038216820360a25756fe6080806040526004361015610012575f80fd5b5f3560e01c639f678cca14610025575f80fd5b3461018a575f36600319011261018a575f546370a0823160e01b82523360048301526001600160a01b031690602081602481855afa908115610196575f91610353575b5061030e576001546040516370a0823160e01b815233600482015290602090829060249082906001600160a01b03165afa908115610196575f916102dc575b506102975760025460405163512edc6760e11b815233600482015290602090829060249082906001600160a01b03165afa908115610196575f91610265575b5015610220576040516370a0823160e01b8152306004820152602081602481855afa8015610196575f906101e6575b670de0b6b3a76400009150106101a15760205f9160446040518094819363a9059cbb60e01b8352336004840152670de0b6b3a764000060248401525af180156101965761015e57005b6020813d60201161018e575b8161017760209383610385565b8101031261018a57518015150361018a57005b5f80fd5b3d915061016a565b6040513d5f823e3d90fd5b60405162461bcd60e51b815260206004820152601b60248201527f4e6f7420656e6f756768204d4f4f4e455920696e2066617563657400000000006044820152606490fd5b506020813d602011610218575b8161020060209383610385565b8101031261018a57670de0b6b3a76400009051610115565b3d91506101f3565b60405162461bcd60e51b815260206004820152601f60248201527f4e6f20616d6f756e7420617661696c61626c6520746f207769746864726177006044820152606490fd5b90506020813d60201161028f575b8161028060209383610385565b8101031261018a57515f6100e6565b3d9150610273565b60405162461bcd60e51b815260206004820152601860248201527f596f7520616c7265616479206861766520764d4f4f4e455900000000000000006044820152606490fd5b90506020813d602011610306575b816102f760209383610385565b8101031261018a57515f6100a7565b3d91506102ea565b60405162461bcd60e51b815260206004820152601760248201527f596f7520616c72656164792068617665204d4f4f4e45590000000000000000006044820152606490fd5b90506020813d60201161037d575b8161036e60209383610385565b8101031261018a57515f610068565b3d9150610361565b90601f8019910116810190811067ffffffffffffffff8211176103a757604052565b634e487b7160e01b5f52604160045260245ffdfea26469706673582212209e26923be7201be49b81dd684bea8b982609837e1c55f8108d66d465e357d24b64736f6c634300081a0033","linkReferences":{}},"methodIdentifiers":{"drip()":"9f678cca"},"id":256}