{"abi":[{"type":"constructor","inputs":[{"name":"_table_prefix","type":"string","internalType":"string"}],"stateMutability":"nonpayable"},{"type":"function","name":"deleteFromTable","inputs":[{"name":"voteId","type":"uint256","internalType":"uint256"}],"outputs":[],"stateMutability":"nonpayable"},{"type":"function","name":"getTableId","inputs":[],"outputs":[{"name":"","type":"uint256","internalType":"uint256"}],"stateMutability":"view"},{"type":"function","name":"getTableName","inputs":[],"outputs":[{"name":"","type":"string","internalType":"string"}],"stateMutability":"view"},{"type":"function","name":"insertIntoTable","inputs":[{"name":"voteId","type":"uint256","internalType":"uint256"},{"name":"vote","type":"string","internalType":"string"}],"outputs":[],"stateMutability":"nonpayable"},{"type":"function","name":"onERC721Received","inputs":[{"name":"","type":"address","internalType":"address"},{"name":"","type":"address","internalType":"address"},{"name":"","type":"uint256","internalType":"uint256"},{"name":"","type":"bytes","internalType":"bytes"}],"outputs":[{"name":"","type":"bytes4","internalType":"bytes4"}],"stateMutability":"nonpayable"},{"type":"function","name":"owner","inputs":[],"outputs":[{"name":"","type":"address","internalType":"address"}],"stateMutability":"view"},{"type":"function","name":"renounceOwnership","inputs":[],"outputs":[],"stateMutability":"nonpayable"},{"type":"function","name":"setAccessControl","inputs":[{"name":"controller","type":"address","internalType":"address"}],"outputs":[],"stateMutability":"nonpayable"},{"type":"function","name":"transferOwnership","inputs":[{"name":"newOwner","type":"address","internalType":"address"}],"outputs":[],"stateMutability":"nonpayable"},{"type":"function","name":"updateTableCol","inputs":[{"name":"voteId","type":"uint256","internalType":"uint256"},{"name":"vote","type":"string","internalType":"string"}],"outputs":[],"stateMutability":"nonpayable"},{"type":"event","name":"OwnershipTransferred","inputs":[{"name":"previousOwner","type":"address","indexed":true,"internalType":"address"},{"name":"newOwner","type":"address","indexed":true,"internalType":"address"}],"anonymous":false},{"type":"error","name":"ChainNotSupported","inputs":[{"name":"chainid","type":"uint256","internalType":"uint256"}]},{"type":"error","name":"OwnableInvalidOwner","inputs":[{"name":"owner","type":"address","internalType":"address"}]},{"type":"error","name":"OwnableUnauthorizedAccount","inputs":[{"name":"account","type":"address","internalType":"address"}]},{"type":"error","name":"StringsInsufficientHexLength","inputs":[{"name":"value","type":"uint256","internalType":"uint256"},{"name":"length","type":"uint256","internalType":"uint256"}]}],"bytecode":{"object":"0x60806040523461002f57610019610014610160565b6106b7565b610021610034565b6124e76114fc82396124e790f35b61003a565b60405190565b5f80fd5b601f801991011690565b634e487b7160e01b5f52604160045260245ffd5b906100669061003e565b810190811060018060401b0382111761007e57604052565b610048565b9061009661008f610034565b928361005c565b565b5f80fd5b5f80fd5b5f80fd5b5f80fd5b60018060401b0381116100c4576100c060209161003e565b0190565b610048565b90825f9392825e0152565b909291926100e96100e4826100a8565b610083565b9381855260208501908284011161010557610103926100c9565b565b6100a4565b9080601f8301121561012857816020610125935191016100d4565b90565b6100a0565b9060208282031261015b575f82015160018060401b03811161015657610153920161010a565b90565b61009c565b610098565b61017e6139e38038038061017381610083565b92833981019061012d565b90565b5190565b634e487b7160e01b5f52602260045260245ffd5b90600160028304921680156101b9575b60208310146101b457565b610185565b91607f16916101a9565b5f5260205f2090565b601f602091010490565b1b90565b919060086101f59102916101ef5f19846101d6565b926101d6565b9181191691161790565b90565b90565b61021961021461021e926101ff565b610202565b6101ff565b90565b90565b919061023a61023561024293610205565b610221565b9083546101da565b9055565b5f90565b61025c91610256610246565b91610224565b565b5b81811061026a575050565b806102775f60019361024a565b0161025f565b9190601f811161028d575b505050565b6102996102be936101c3565b9060206102a5846101cc565b830193106102c6575b6102b7906101cc565b019061025e565b5f8080610288565b91506102b7819290506102ae565b1c90565b906102e8905f19906008026102d4565b191690565b816102f7916102d8565b906002021790565b9061030981610181565b9060018060401b0382116103c75761032b826103258554610199565b8561027d565b602090601f831160011461035f5791809161034e935f92610353575b50506102ed565b90555b565b90915001515f80610347565b601f1983169161036e856101c3565b925f5b8181106103af57509160029391856001969410610395575b50505002019055610351565b6103a5910151601f8416906102d8565b90555f8080610389565b91936020600181928787015181550195019201610371565b610048565b906103d6916102ff565b565b60018060a01b031690565b6103f76103f26103fc926103d8565b610202565b6103d8565b90565b610408906103e3565b90565b610414906103ff565b90565b610420906103ff565b90565b90610435610430836100a8565b610083565b918252565b60407f20756e6971756528616464726573732c20766f74654964290000000000000000917f696420696e7465676572207072696d617279206b65792c20766f7465496420695f8201527f6e74656765722c206164647265737320746578742c20766f746520746578742c60208201520152565b6104b76058610423565b906104c46020830161043a565b565b6104ce6104ad565b90565b6104d96104c6565b90565b60209181520190565b905f92918054906104ff6104f883610199565b80946104dc565b916001811690815f14610556575060011461051a575b505050565b61052791929394506101c3565b915f925b81841061053e57505001905f8080610515565b6001816020929593955484860152019101929061052b565b92949550505060ff19168252151560200201905f8080610515565b9061057b916104e5565b90565b9061059e6105979261058e610034565b93848092610571565b038361005c565b565b6105a99061057e565b90565b60e01b90565b6105bb816101ff565b036105c257565b5f80fd5b905051906105d3826105b2565b565b906020828203126105ee576105eb915f016105c6565b90565b610098565b6105fc906103d8565b90565b610608906105f3565b9052565b60209181520190565b61063461063d6020936106429361062b81610181565b9384809361060c565b958691016100c9565b61003e565b0190565b916106699261065c60408201935f8301906105ff565b6020818403910152610615565b90565b610674610034565b3d5f823e3d90fd5b5f1b90565b9061068d5f199161067c565b9181191691161790565b906106ac6106a76106b392610205565b610221565b8254610681565b9055565b6106cb906106c4336107c1565b60026103cc565b6106db6106d6610ae5565b61040b565b602063a15ab08d916106ec30610417565b906107245f61070c6106fc6104d1565b61070660026105a0565b90610ebb565b9561072f610718610034565b978896879586946105ac565b845260048401610646565b03925af1801561077c5761074c915f9161074e575b506001610697565b565b61076f915060203d8111610775575b610767818361005c565b8101906105d5565b5f610744565b503d61075d565b61066c565b90565b61079861079361079d92610781565b610202565b6103d8565b90565b6107a990610784565b90565b91906107bf905f602085019401906105ff565b565b806107dc6107d66107d15f6107a0565b6105f3565b916105f3565b146107ec576107ea90610f83565b565b61080f6107f85f6107a0565b5f918291631e4fbdf760e01b8352600483016107ac565b0390fd5b5f90565b90565b61082e61082961083392610817565b610202565b6101ff565b90565b90565b61084d61084861085292610836565b610202565b6101ff565b90565b90565b61086c61086761087192610855565b610202565b6101ff565b90565b90565b61088b61088661089092610874565b610202565b6101ff565b90565b90565b6108aa6108a56108af92610893565b610202565b6101ff565b90565b90565b6108c96108c46108ce926108b2565b610202565b6101ff565b90565b90565b6108e86108e36108ed926108d1565b610202565b6101ff565b90565b90565b61090761090261090c926108f0565b610202565b6101ff565b90565b90565b61092661092161092b9261090f565b610202565b6101ff565b90565b90565b61094561094061094a9261092e565b610202565b6101ff565b90565b90565b61096461095f6109699261094d565b610202565b6101ff565b90565b90565b61098361097e6109889261096c565b610202565b6101ff565b90565b610994906101ff565b9052565b91906109ab905f6020850194019061098b565b565b73e7f1725e7734ce288f8367e1bb143e90bb3f051290565b6109ce906103e3565b90565b6109da906109c5565b90565b73030bcf3d50cad04c2e57391b12740982a930862190565b73170fb206132b693e38adfc8727dcfa303546cec190565b73223a74b8323914afdc3ff1e5005564dc17231d6e90565b7368a2f4423ad3bf5139db563cf3bc80aa09ed707990565b73c50c62498448acc8dbde43da77f8d5d2e2c7597d90565b7359ef8bf2d6c102b4c42aef9189e1a9f0abfd652d90565b735c4e6a9e5c1e1bf445a062006faf19ea6c49afea90565b731a22854c5b1642760a827f20137a67930ae108d290565b739abd75e8640871a5a20d3b4ee6330a04c962affd90565b73fad44bf5b843de943a09d4f3e84949a11d3aa3e690565b73012969f7e3439a9b04025b5a049eb9bad82a8c1290565b610aed610813565b5046610b02610afc600161081a565b916101ff565b145f14610b1c57610b19610b14610acd565b6109d1565b90565b46610b30610b2a600a610839565b916101ff565b145f14610b4a57610b47610b42610ab5565b6109d1565b90565b46610b5f610b5961a4b1610858565b916101ff565b145f14610b7957610b76610b71610a9d565b6109d1565b90565b46610b8e610b8861a4ba610877565b916101ff565b145f14610ba857610ba5610ba0610a85565b6109d1565b90565b46610bbc610bb66089610896565b916101ff565b145f14610bd657610bd3610bce610a6d565b6109d1565b90565b46610beb610be561013a6108b5565b916101ff565b145f14610c0557610c02610bfd610a55565b6109d1565b90565b46610c1b610c1562aa36a76108d4565b916101ff565b145f14610c3557610c32610c2d610a3d565b6109d1565b90565b46610c4b610c4562aa37dc6108f3565b916101ff565b145f14610c6557610c62610c5d610a25565b6109d1565b90565b46610c7b610c7562066eee610912565b916101ff565b145f14610c9557610c92610c8d610a0d565b6109d1565b90565b46610cab610ca562013882610931565b916101ff565b145f14610cc557610cc2610cbd6109f5565b6109d1565b90565b46610cdb610cd56204cb2f610950565b916101ff565b145f14610cf557610cf2610ced6109dd565b6109d1565b90565b46610d0a610d04617a6961096f565b916101ff565b145f14610d2457610d21610d1c6109ad565b6109d1565b90565b610d3f465f91829163264e42cf60e01b835260048301610998565b0390fd5b606090565b905090565b5f7f435245415445205441424c452000000000000000000000000000000000000000910152565b610d80600d8092610d48565b610d8981610d4d565b0190565b610db2610da992602092610da081610181565b94858093610d48565b938491016100c9565b0190565b5f7f5f00000000000000000000000000000000000000000000000000000000000000910152565b610de960018092610d48565b610df281610db6565b0190565b5f7f2800000000000000000000000000000000000000000000000000000000000000910152565b610e2960018092610d48565b610e3281610df6565b0190565b5f7f2900000000000000000000000000000000000000000000000000000000000000910152565b610e6960018092610d48565b610e7281610e36565b0190565b610ea5610eb093610e9f610e9a610eb59795610e94610eaa96610d74565b90610d8d565b610ddd565b90610d8d565b610e1d565b90610d8d565b610e5d565b90565b90565b610efb610f0092610eca610d43565b50610eec610ed74661107d565b93610ee0610034565b94859360208501610e76565b6020820181038252038261005c565b610eb8565b90565b5f1c90565b60018060a01b031690565b610f1f610f2491610f03565b610f08565b90565b610f319054610f13565b90565b90610f4560018060a01b039161067c565b9181191691161790565b610f58906103ff565b90565b90565b90610f73610f6e610f7a92610f4f565b610f5b565b8254610f34565b9055565b5f0190565b610f8c5f610f27565b610f96825f610f5e565b90610fca610fc47f8be0079c531659141344cd1fd0a4f28419497f9722a3daafe3b4186f6b6457e093610f4f565b91610f4f565b91610fd3610034565b80610fdd81610f7e565b0390a3565b90610fed91016101ff565b90565b369037565b9061101a61100283610423565b9260208061101086936100a8565b9201910390610ff0565b565b600161102891036101ff565b90565b634e487b7160e01b5f52601260045260245ffd5b61104b611051916101ff565b916101ff565b90811561105c570490565b61102b565b61107561107061107a92610781565b610202565b6101ff565b90565b611085610d43565b506110a26110928261129a565b61109c600161081a565b90610fe2565b906110ac82610ff5565b916110b5610246565b5060200182015b60011561111f576110cf6110fb9161101c565b916f181899199a1a9b1b9c1cb0b131b232b360811b600a82061a83536110f5600a610839565b9061103f565b8061110e6111085f611061565b916101ff565b1461111957906110bc565b50505b90565b505061111c565b90565b61113d61113861114292611126565b610202565b6101ff565b90565b90565b61115c61115761116192611145565b610202565b6101ff565b90565b90565b61117b61117661118092611164565b610202565b6101ff565b90565b90565b61119a61119561119f92611183565b610202565b6101ff565b90565b90565b6111b96111b46111be926111a2565b610202565b6101ff565b90565b90565b6111d86111d36111dd926111c1565b610202565b6101ff565b90565b90565b6111f76111f26111fc926111e0565b610202565b6101ff565b90565b90565b61121661121161121b926111ff565b610202565b6101ff565b90565b90565b61123561123061123a9261121e565b610202565b6101ff565b90565b90565b61125461124f6112599261123d565b610202565b6101ff565b90565b90565b61127361126e6112789261125c565b610202565b6101ff565b90565b90565b61129261128d6112979261127b565b610202565b6101ff565b90565b6112a2610246565b506112ac5f611061565b90806112db6112d57a184f03e93ff9f4daa797ed6e38ed64bf6a1f010000000000000000611129565b916101ff565b10156114b3575b806113036112fd6d04ee2d6d415b85acef8100000000611167565b916101ff565b1015611478575b8061132461131e662386f26fc100006111a5565b916101ff565b1015611444575b8061134261133c6305f5e1006111e3565b916101ff565b1015611413575b8061135e611358612710611221565b916101ff565b10156113e4575b80611379611373606461125f565b916101ff565b10156113b6575b61139361138d600a610839565b916101ff565b101561139d575b90565b6113b1906113ab600161081a565b90610fe2565b61139a565b6113cd6113de916113c7606461125f565b9061103f565b916113d8600261127e565b90610fe2565b90611380565b6113fc61140d916113f6612710611221565b9061103f565b916114076004611240565b90610fe2565b90611365565b61142d61143e916114276305f5e1006111e3565b9061103f565b916114386008611202565b90610fe2565b90611349565b6114616114729161145b662386f26fc100006111a5565b9061103f565b9161146c60106111c4565b90610fe2565b9061132b565b61149c6114ad916114966d04ee2d6d415b85acef8100000000611167565b9061103f565b916114a76020611186565b90610fe2565b9061130a565b6114e46114f5916114de7a184f03e93ff9f4daa797ed6e38ed64bf6a1f010000000000000000611129565b9061103f565b916114ef6040611148565b90610fe2565b906112e256fe60806040526004361015610013575b61066e565b61001d5f356100bc565b806304bfc47f146100b75780630d157ad3146100b2578063150b7a02146100ad57806319129e5a146100a85780635d5a33a2146100a3578063715018a61461009e57806388e4f1cb146100995780638da5cb5b14610094578063f2fde38b1461008f5763f56ec1ed0361000e5761063a565b610607565b6105d2565b61057b565b610526565b6104f1565b61044e565b6103f7565b610280565b61011d565b60e01c90565b60405190565b5f80fd5b5f80fd5b5f80fd5b90565b6100e0816100d4565b036100e757565b5f80fd5b905035906100f8826100d7565b565b9060208282031261011357610110915f016100eb565b90565b6100cc565b5f0190565b3461014b576101356101303660046100fa565b610927565b61013d6100c2565b8061014781610118565b0390f35b6100c8565b5f80fd5b5f80fd5b601f801991011690565b634e487b7160e01b5f52604160045260245ffd5b9061018090610158565b810190811067ffffffffffffffff82111761019a57604052565b610162565b906101b26101ab6100c2565b9283610176565b565b67ffffffffffffffff81116101d2576101ce602091610158565b0190565b610162565b90825f939282370152565b909291926101f76101f2826101b4565b61019f565b9381855260208501908284011161021357610211926101d7565b565b610154565b9080601f8301121561023657816020610233933591016101e2565b90565b610150565b91909160408184031261027b57610254835f83016100eb565b92602082013567ffffffffffffffff8111610276576102739201610218565b90565b6100d0565b6100cc565b346102af5761029961029336600461023b565b90610ad6565b6102a16100c2565b806102ab81610118565b0390f35b6100c8565b60018060a01b031690565b6102c8906102b4565b90565b6102d4816102bf565b036102db57565b5f80fd5b905035906102ec826102cb565b565b67ffffffffffffffff811161030c57610308602091610158565b0190565b610162565b90929192610326610321826102ee565b61019f565b9381855260208501908284011161034257610340926101d7565b565b610154565b9080601f830112156103655781602061036293359101610311565b90565b610150565b906080828203126103c457610381815f84016102df565b9261038f82602085016102df565b9261039d83604083016100eb565b92606082013567ffffffffffffffff81116103bf576103bc9201610347565b90565b6100d0565b6100cc565b63ffffffff60e01b1690565b6103de906103c9565b9052565b91906103f5905f602085019401906103d5565b565b3461042b5761042761041661040d36600461036a565b92919091610bf7565b61041e6100c2565b918291826103e2565b0390f35b6100c8565b9060208282031261044957610446915f016102df565b90565b6100cc565b3461047c57610466610461366004610430565b610cfd565b61046e6100c2565b8061047881610118565b0390f35b6100c8565b5f91031261048b57565b6100cc565b5190565b60209181520190565b90825f9392825e0152565b6104c76104d06020936104d5936104be81610490565b93848093610494565b9586910161049d565b610158565b0190565b6104ee9160208201915f8184039101526104a8565b90565b3461052157610501366004610481565b61051d61050c610d0d565b6105146100c2565b918291826104d9565b0390f35b6100c8565b3461055457610536366004610481565b61053e610d86565b6105466100c2565b8061055081610118565b0390f35b6100c8565b610562906100d4565b9052565b9190610579905f60208501940190610559565b565b346105ab5761058b366004610481565b6105a7610596610d94565b61059e6100c2565b91829182610566565b0390f35b6100c8565b6105b9906102bf565b9052565b91906105d0905f602085019401906105b0565b565b34610602576105e2366004610481565b6105fe6105ed610dda565b6105f56100c2565b918291826105bd565b0390f35b6100c8565b346106355761061f61061a366004610430565b610e54565b6106276100c2565b8061063181610118565b0390f35b6100c8565b346106695761065361064d36600461023b565b90610f64565b61065b6100c2565b8061066581610118565b0390f35b6100c8565b5f80fd5b90565b61068961068461068e926102b4565b610672565b6102b4565b90565b61069a90610675565b90565b6106a690610691565b90565b6106b290610691565b90565b5f1c90565b90565b6106c96106ce916106b5565b6106ba565b90565b6106db90546106bd565b90565b7f766f74654964203d2000000000000000000000000000000000000000000000009052565b905090565b61072d6107249260209261071b81610490565b94858093610703565b9384910161049d565b0190565b7f20414e442061646472657373203d2000000000000000000000000000000000009052565b61077361078393926009600f9361076c816106de565b0190610708565b61077c81610731565b0190610708565b90565b6107a592916107b1916107976100c2565b948592602084019283610756565b90810382520383610176565b565b634e487b7160e01b5f52602260045260245ffd5b90600160028304921680156107e7575b60208310146107e257565b6107b3565b91607f16916107d7565b60209181520190565b5f5260205f2090565b905f929180549061081d610816836107c7565b80946107f1565b916001811690815f146108745750600114610838575b505050565b61084591929394506107fa565b915f925b81841061085c57505001905f8080610833565b60018160209295939554848601520191019290610849565b92949550505060ff19168252151560200201905f8080610833565b9061089991610803565b90565b906108bc6108b5926108ac6100c2565b9384809261088f565b0383610176565b565b6108c79061089c565b90565b5f80fd5b60e01b90565b5f9103126108de57565b6100cc565b6109076109149492936108fd60608401955f8501906105b0565b6020830190610559565b60408184039101526104a8565b90565b61091f6100c2565b3d5f823e3d90fd5b61093761093261130f565b61069d565b63377af0da90610946306106a9565b9061099361095460016106d1565b9460029061098e61098861097161096b60016106d1565b93611608565b61098261097d33611727565b6117be565b90610786565b926108be565b6118a4565b92813b15610a07575f6109b9916109c482966109ad6100c2565b988997889687956108ce565b8552600485016108e3565b03925af18015610a02576109d6575b50565b6109f5905f3d81116109fb575b6109ed8183610176565b8101906108d4565b5f6109d3565b503d6109e3565b610917565b6108ca565b7f766f74653d0000000000000000000000000000000000000000000000000000009052565b7f6a736f6e280000000000000000000000000000000000000000000000000000009052565b7f29000000000000000000000000000000000000000000000000000000000000009052565b600191600580610a9f93610a8e81610a0c565b01610a9881610a31565b0190610708565b610aa881610a56565b0190565b90610ad4610ab86100c2565b8093610ac8602083019182610a7b565b90810382520383610176565b565b90610ae7610ae261130f565b61069d565b9063377af0da91610b55610afa306106a9565b92610b0560016106d1565b95600291610b50610b4a610b33610b2d610b28610b2260016106d1565b956117be565b610aac565b94611608565b610b44610b3f33611727565b6117be565b90610786565b936108be565b6119d2565b92813b15610bc9575f610b7b91610b868296610b6f6100c2565b988997889687956108ce565b8552600485016108e3565b03925af18015610bc457610b98575b50565b610bb7905f3d8111610bbd575b610baf8183610176565b8101906108d4565b5f610b95565b503d610ba5565b610917565b6108ca565b5f90565b63ffffffff1690565b610bef610bea610bf492610bd2565b6108ce565b6103c9565b90565b50505050610c03610bce565b50610c1163150b7a02610bdb565b90565b610c2590610c20611a93565b610c59565b565b604090610c50610c579496959396610c4660608401985f8501906105b0565b6020830190610559565b01906105b0565b565b610c69610c6461130f565b61069d565b638bb0ab9790610c78306106a9565b90610c8360016106d1565b9392813b15610cf8575f610caa91610cb58296610c9e6100c2565b988997889687956108ce565b855260048501610c27565b03925af18015610cf357610cc7575b50565b610ce6905f3d8111610cec575b610cde8183610176565b8101906108d4565b5f610cc4565b503d610cd4565b610917565b6108ca565b610d0690610c14565b565b606090565b610d15610d08565b50610d336002610d2e610d2860016106d1565b916108be565b611b52565b90565b610d3e611a93565b610d46610d73565b565b90565b610d5f610d5a610d6492610d48565b610672565b6102b4565b90565b610d7090610d4b565b90565b610d84610d7f5f610d67565b611bf2565b565b610d8e610d36565b565b5f90565b610d9c610d90565b50610da760016106d1565b90565b5f90565b60018060a01b031690565b610dc5610dca916106b5565b610dae565b90565b610dd79054610db9565b90565b610de2610daa565b50610dec5f610dcd565b90565b610e0090610dfb611a93565b610e02565b565b80610e1d610e17610e125f610d67565b6102bf565b916102bf565b14610e2d57610e2b90611bf2565b565b610e50610e395f610d67565b5f918291631e4fbdf760e01b8352600483016105bd565b0390fd5b610e5d90610def565b565b7f2c000000000000000000000000000000000000000000000000000000000000009052565b6001610eac610ec69482610e9c600595829997610708565b610ea581610e5f565b0190610708565b610eb581610e5f565b01610ebf81610a31565b0190610708565b610ecf81610a56565b0190565b90610f0091939293610ef4610ee66100c2565b958693602085019384610e84565b90810382520383610176565b565b90610f14610f0f836101b4565b61019f565b918252565b5f7f766f746549642c616464726573732c766f746500000000000000000000000000910152565b610f4a6013610f02565b90610f5760208301610f19565b565b610f61610f40565b90565b90610f75610f7061130f565b61069d565b9063377af0da91610fe6610f88306106a9565b92610f9360016106d1565b95610fd7610fd1600293610fb0610faa60016106d1565b94611608565b90610fcb610fc5610fc033611727565b6117be565b916117be565b91610ed3565b926108be565b90610fe0610f59565b91611d93565b92813b1561105a575f61100c9161101782966110006100c2565b988997889687956108ce565b8552600485016108e3565b03925af1801561105557611029575b50565b611048905f3d811161104e575b6110408183610176565b8101906108d4565b5f611026565b503d611036565b610917565b6108ca565b5f90565b90565b61107a61107561107f92611063565b610672565b6100d4565b90565b90565b61109961109461109e92611082565b610672565b6100d4565b90565b90565b6110b86110b36110bd926110a1565b610672565b6100d4565b90565b90565b6110d76110d26110dc926110c0565b610672565b6100d4565b90565b90565b6110f66110f16110fb926110df565b610672565b6100d4565b90565b90565b61111561111061111a926110fe565b610672565b6100d4565b90565b90565b61113461112f6111399261111d565b610672565b6100d4565b90565b90565b61115361114e6111589261113c565b610672565b6100d4565b90565b90565b61117261116d6111779261115b565b610672565b6100d4565b90565b90565b61119161118c6111969261117a565b610672565b6100d4565b90565b90565b6111b06111ab6111b592611199565b610672565b6100d4565b90565b90565b6111cf6111ca6111d4926111b8565b610672565b6100d4565b90565b73e7f1725e7734ce288f8367e1bb143e90bb3f051290565b6111f890610675565b90565b611204906111ef565b90565b73030bcf3d50cad04c2e57391b12740982a930862190565b73170fb206132b693e38adfc8727dcfa303546cec190565b73223a74b8323914afdc3ff1e5005564dc17231d6e90565b7368a2f4423ad3bf5139db563cf3bc80aa09ed707990565b73c50c62498448acc8dbde43da77f8d5d2e2c7597d90565b7359ef8bf2d6c102b4c42aef9189e1a9f0abfd652d90565b735c4e6a9e5c1e1bf445a062006faf19ea6c49afea90565b731a22854c5b1642760a827f20137a67930ae108d290565b739abd75e8640871a5a20d3b4ee6330a04c962affd90565b73fad44bf5b843de943a09d4f3e84949a11d3aa3e690565b73012969f7e3439a9b04025b5a049eb9bad82a8c1290565b61131761105f565b504661132c6113266001611066565b916100d4565b145f146113465761134361133e6112f7565b6111fb565b90565b4661135a611354600a611085565b916100d4565b145f146113745761137161136c6112df565b6111fb565b90565b4661138961138361a4b16110a4565b916100d4565b145f146113a3576113a061139b6112c7565b6111fb565b90565b466113b86113b261a4ba6110c3565b916100d4565b145f146113d2576113cf6113ca6112af565b6111fb565b90565b466113e66113e060896110e2565b916100d4565b145f14611400576113fd6113f8611297565b6111fb565b90565b4661141561140f61013a611101565b916100d4565b145f1461142f5761142c61142761127f565b6111fb565b90565b4661144561143f62aa36a7611120565b916100d4565b145f1461145f5761145c611457611267565b6111fb565b90565b4661147561146f62aa37dc61113f565b916100d4565b145f1461148f5761148c61148761124f565b6111fb565b90565b466114a561149f62066eee61115e565b916100d4565b145f146114bf576114bc6114b7611237565b6111fb565b90565b466114d56114cf6201388261117d565b916100d4565b145f146114ef576114ec6114e761121f565b6111fb565b90565b466115056114ff6204cb2f61119c565b916100d4565b145f1461151f5761151c611517611207565b6111fb565b90565b4661153461152e617a696111bb565b916100d4565b145f1461154e5761154b6115466111d7565b6111fb565b90565b611569465f91829163264e42cf60e01b835260048301610566565b0390fd5b9061157891016100d4565b90565b369037565b906115a561158d83610f02565b9260208061159b86936101b4565b920191039061157b565b565b60016115b391036100d4565b90565b634e487b7160e01b5f52601260045260245ffd5b6115d66115dc916100d4565b916100d4565b9081156115e7570490565b6115b6565b6116006115fb61160592610d48565b610672565b6100d4565b90565b611610610d08565b5061162d61161d82611f52565b6116276001611066565b9061156d565b9061163782611580565b91611640610d90565b5060200182015b6001156116aa5761165a611686916115a7565b916f181899199a1a9b1b9c1cb0b131b232b360811b600a82061a8353611680600a611085565b906115ca565b806116996116935f6115ec565b916100d4565b146116a45790611647565b50505b90565b50506116a7565b6116ba90610675565b90565b6116d16116cc6116d6926102b4565b610672565b6100d4565b90565b90565b60ff1690565b6116f66116f16116fb926116d9565b610672565b6116dc565b90565b61170860146116e2565b90565b61171f61171a611724926116dc565b610672565b6100d4565b90565b61174461173f61175a92611739610d08565b506116b1565b6116bd565b61175461174f6116fe565b61170b565b90612371565b90565b5f7f2700000000000000000000000000000000000000000000000000000000000000910152565b61179060018092610703565b6117998161175d565b0190565b6117b8916117ad6117b392611784565b90610708565b611784565b90565b90565b6117e56117f46117f9926117d0610d08565b506117d96100c2565b9283916020830161179d565b60208201810382520382610176565b6117bb565b90565b5f7f44454c4554452046524f4d200000000000000000000000000000000000000000910152565b61182f600c8092610703565b611838816117fc565b0190565b5f7f2057484552452000000000000000000000000000000000000000000000000000910152565b61186f60078092610703565b6118788161183c565b0190565b6118966118a1939261189061189b93611823565b90610708565b611863565b90610708565b90565b6118be6118e993926118e4926118b8610d08565b50611b52565b6118d56118c96100c2565b9384926020840161187c565b60208201810382520382610176565b6117bb565b90565b6118f55f610f02565b90565b6119006118ec565b90565b90565b5190565b9061191761191d92611863565b90610708565b90565b5f7f5550444154452000000000000000000000000000000000000000000000000000910152565b61195360078092610703565b61195c81611920565b0190565b5f7f2053455420000000000000000000000000000000000000000000000000000000910152565b61199360058092610703565b61199c81611960565b0190565b916119c36119be6119c9936119b86119cf9796611947565b90610708565b611987565b90610708565b90610708565b90565b611a4f93916119e9916119e3610d08565b50611b52565b916119f26118f8565b91611a046119ff82611903565b611906565b611a16611a105f6115ec565b916100d4565b11611a52575b50611a3b611a4a92939193611a2f6100c2565b948593602085016119a0565b60208201810382520382610176565b6117bb565b90565b611a4a9250611a8c611a78611a87611a3b93611a6c6100c2565b9283916020830161190a565b60208201810382520382610176565b6117bb565b9250611a1c565b611a9b610dda565b611ab4611aae611aa96124da565b6102bf565b916102bf565b03611abb57565b611add611ac66124da565b5f91829163118cdaa760e01b8352600483016105bd565b0390fd5b5f7f5f00000000000000000000000000000000000000000000000000000000000000910152565b611b1460018092610703565b611b1d81611ae1565b0190565b611b4f9392611b3e611b39611b4493611b4995610708565b611b08565b90610708565b611b08565b90610708565b90565b90611b9b611ba092611b62610d08565b50611b8c611b78611b7246611608565b94611608565b611b806100c2565b94859360208501611b21565b60208201810382520382610176565b6117bb565b90565b5f1b90565b90611bb960018060a01b0391611ba3565b9181191691161790565b611bcc90610691565b90565b90565b90611be7611be2611bee92611bc3565b611bcf565b8254611ba8565b9055565b611bfb5f610dcd565b611c05825f611bd2565b90611c39611c337f8be0079c531659141344cd1fd0a4f28419497f9722a3daafe3b4186f6b6457e093611bc3565b91611bc3565b91611c426100c2565b80611c4c81610118565b0390a3565b5f7f494e5345525420494e544f200000000000000000000000000000000000000000910152565b611c84600c8092610703565b611c8d81611c51565b0190565b5f7f2800000000000000000000000000000000000000000000000000000000000000910152565b611cc460018092610703565b611ccd81611c91565b0190565b5f7f2956414c55455328000000000000000000000000000000000000000000000000910152565b611d0460088092610703565b611d0d81611cd1565b0190565b5f7f2900000000000000000000000000000000000000000000000000000000000000910152565b611d4460018092610703565b611d4d81611d11565b0190565b611d80611d8b93611d7a611d75611d909795611d6f611d8596611c78565b90610708565b611cb8565b90610708565b611cf8565b90610708565b611d38565b90565b91611dc7611db1611dd693611ddb9695611dab610d08565b50611b52565b9193611dbb6100c2565b94859360208501611d51565b60208201810382520382610176565b6117bb565b90565b90565b611df5611df0611dfa92611dde565b610672565b6100d4565b90565b90565b611e14611e0f611e1992611dfd565b610672565b6100d4565b90565b90565b611e33611e2e611e3892611e1c565b610672565b6100d4565b90565b90565b611e52611e4d611e5792611e3b565b610672565b6100d4565b90565b90565b611e71611e6c611e7692611e5a565b610672565b6100d4565b90565b90565b611e90611e8b611e9592611e79565b610672565b6100d4565b90565b90565b611eaf611eaa611eb492611e98565b610672565b6100d4565b90565b90565b611ece611ec9611ed392611eb7565b610672565b6100d4565b90565b90565b611eed611ee8611ef292611ed6565b610672565b6100d4565b90565b90565b611f0c611f07611f1192611ef5565b610672565b6100d4565b90565b90565b611f2b611f26611f3092611f14565b610672565b6100d4565b90565b90565b611f4a611f45611f4f92611f33565b610672565b6100d4565b90565b611f5a610d90565b50611f645f6115ec565b9080611f93611f8d7a184f03e93ff9f4daa797ed6e38ed64bf6a1f010000000000000000611de1565b916100d4565b101561216b575b80611fbb611fb56d04ee2d6d415b85acef8100000000611e1f565b916100d4565b1015612130575b80611fdc611fd6662386f26fc10000611e5d565b916100d4565b10156120fc575b80611ffa611ff46305f5e100611e9b565b916100d4565b10156120cb575b80612016612010612710611ed9565b916100d4565b101561209c575b8061203161202b6064611f17565b916100d4565b101561206e575b61204b612045600a611085565b916100d4565b1015612055575b90565b612069906120636001611066565b9061156d565b612052565b6120856120969161207f6064611f17565b906115ca565b916120906002611f36565b9061156d565b90612038565b6120b46120c5916120ae612710611ed9565b906115ca565b916120bf6004611ef8565b9061156d565b9061201d565b6120e56120f6916120df6305f5e100611e9b565b906115ca565b916120f06008611eba565b9061156d565b90612001565b61211961212a91612113662386f26fc10000611e5d565b906115ca565b916121246010611e7c565b9061156d565b90611fe3565b6121546121659161214e6d04ee2d6d415b85acef8100000000611e1f565b906115ca565b9161215f6020611e3e565b9061156d565b90611fc2565b61219c6121ad916121967a184f03e93ff9f4daa797ed6e38ed64bf6a1f010000000000000000611de1565b906115ca565b916121a76040611e00565b9061156d565b90611f9a565b634e487b7160e01b5f52601160045260245ffd5b6121d66121dc919392936100d4565b926100d4565b916121e88382026100d4565b9281840414901517156121f757565b6121b3565b61220b612211919392936100d4565b926100d4565b820180921161221c57565b6121b3565b9061223361222e836102ee565b61019f565b918252565b9061225d61224583612221565b9260208061225386936102ee565b920191039061157b565b565b600360fc1b90565b634e487b7160e01b5f52603260045260245ffd5b9061228582611906565b81101561229757600160209102010190565b612267565b600f60fb1b90565b6122ad906100d4565b5f81146122bb576001900390565b6121b3565b6f181899199a1a9b1b9c1cb0b131b232b360811b90565b6122df6122c0565b90565b90565b6122f96122f46122fe926122e2565b610672565b6100d4565b90565b60f81b90565b61231b61231661232092611ef5565b610672565b6116dc565b90565b1c90565b6123469061234061233a61234b946116dc565b916100d4565b90612323565b6100d4565b90565b91602061236f92949361236860408201965f830190610559565b0190610559565b565b9061237a610d08565b5081926123ac6123a761239760026123928691611f36565b6121c7565b6123a16002611f36565b906121fc565b612238565b916123b561225f565b6123cc846123c65f935f1a936115ec565b9061227b565b536123d561229c565b6123ed846123e76001935f1a93611066565b9061227b565b5361241561240560026124008491611f36565b6121c7565b61240f6001611066565b906121fc565b945b8561242b6124256001611066565b916100d4565b1115612491576124396122d7565b81612444600f6122e5565b1691601083101561248c5761246061248092612486941a612301565b61246f87918a905f1a9261227b565b5361247a6004612307565b90612327565b956122a4565b94612417565b612267565b9092939194506124a96124a35f6115ec565b916100d4565b036124bc5750506124b9906117bb565b90565b6124d65f92839263e22e27eb60e01b84526004840161234e565b0390fd5b6124e2610daa565b50339056","linkReferences":{}},"methodIdentifiers":{"deleteFromTable(uint256)":"04bfc47f","getTableId()":"88e4f1cb","getTableName()":"5d5a33a2","insertIntoTable(uint256,string)":"f56ec1ed","onERC721Received(address,address,uint256,bytes)":"150b7a02","owner()":"8da5cb5b","renounceOwnership()":"715018a6","setAccessControl(address)":"19129e5a","transferOwnership(address)":"f2fde38b","updateTableCol(uint256,string)":"0d157ad3"},"id":60}