{"abi":[{"type":"constructor","inputs":[{"name":"_tokenAddress","type":"address","internalType":"address"},{"name":"_escrowTokenAddress","type":"address","internalType":"address"}],"stateMutability":"nonpayable"},{"type":"function","name":"availableToWithdraw","inputs":[{"name":"","type":"address","internalType":"address"}],"outputs":[{"name":"","type":"uint256","internalType":"uint256"}],"stateMutability":"view"},{"type":"function","name":"clearWithdrawAmounts","inputs":[],"outputs":[],"stateMutability":"nonpayable"},{"type":"function","name":"escrowToken","inputs":[],"outputs":[{"name":"","type":"address","internalType":"contract IVotingEscrowInterface"}],"stateMutability":"view"},{"type":"function","name":"increaseWithdrawAmounts","inputs":[{"name":"addresses","type":"address[]","internalType":"address[]"},{"name":"amounts","type":"uint256[]","internalType":"uint256[]"}],"outputs":[],"stateMutability":"nonpayable"},{"type":"function","name":"owner","inputs":[],"outputs":[{"name":"","type":"address","internalType":"address"}],"stateMutability":"view"},{"type":"function","name":"renounceOwnership","inputs":[],"outputs":[],"stateMutability":"nonpayable"},{"type":"function","name":"returnTokens","inputs":[],"outputs":[],"stateMutability":"nonpayable"},{"type":"function","name":"token","inputs":[],"outputs":[{"name":"","type":"address","internalType":"contract IERC20Interface"}],"stateMutability":"view"},{"type":"function","name":"transferOwnership","inputs":[{"name":"newOwner","type":"address","internalType":"address"}],"outputs":[],"stateMutability":"nonpayable"},{"type":"function","name":"withdraw","inputs":[],"outputs":[],"stateMutability":"nonpayable"},{"type":"function","name":"withdrawAddresses","inputs":[{"name":"","type":"uint256","internalType":"uint256"}],"outputs":[{"name":"","type":"address","internalType":"address"}],"stateMutability":"view"},{"type":"event","name":"OwnershipTransferred","inputs":[{"name":"previousOwner","type":"address","indexed":true,"internalType":"address"},{"name":"newOwner","type":"address","indexed":true,"internalType":"address"}],"anonymous":false},{"type":"error","name":"OwnableInvalidOwner","inputs":[{"name":"owner","type":"address","internalType":"address"}]},{"type":"error","name":"OwnableUnauthorizedAccount","inputs":[{"name":"account","type":"address","internalType":"address"}]}],"bytecode":{"object":"0x6080346100f257601f610aee38819003918201601f19168301916001600160401b038311848410176100f75780849260409485528339810103126100f257610052602061004b8361010d565b920161010d565b33156100dc5760008054336001600160a01b0319821681178355604051949290916001600160a01b0316907f8be0079c531659141344cd1fd0a4f28419497f9722a3daafe3b4186f6b6457e09080a3600180546001600160a01b039283166001600160a01b031991821617909155600280549390921692169190911790556109cc90816101228239f35b631e4fbdf760e01b600052600060045260246000fd5b600080fd5b634e487b7160e01b600052604160045260246000fd5b51906001600160a01b03821682036100f25756fe6080604052600436101561001257600080fd5b6000803560e01c8063290ba8c9146107805780632fe319da146107575780633ccfd60b1461062857806344bb8279146105e4578063715018a61461058a57806387961f57146102b95780638da5cb5b14610292578063a25db8ce14610259578063f2fde38b146101d3578063f9718fc8146100c15763fc0c546a1461009657600080fd5b346100be57806003193601126100be576001546040516001600160a01b039091168152602090f35b80fd5b50346100be57806003193601126100be576100da61096d565b6001546040516370a0823160e01b815230600482015282916001600160a01b031690602081602481855afa9081156101c8578391610191575b5060405163a9059cbb60e01b815233600482015260248101919091529160209183916044918391905af1801561018657610154918391610157575b506108f2565b80f35b610179915060203d60201161017f575b610171818361086f565b8101906108da565b3861014e565b503d610167565b6040513d84823e3d90fd5b90506020813d6020116101c0575b816101ac6020938361086f565b810103126101bc57516020610113565b5050fd5b3d915061019f565b6040513d85823e3d90fd5b50346100be5760203660031901126100be576101ed6108bf565b6101f561096d565b6001600160a01b031680156102455781546001600160a01b03198116821783556001600160a01b03167f8be0079c531659141344cd1fd0a4f28419497f9722a3daafe3b4186f6b6457e08380a380f35b631e4fbdf760e01b82526004829052602482fd5b50346100be5760203660031901126100be576020906040906001600160a01b036102816108bf565b168152600383522054604051908152f35b50346100be57806003193601126100be57546040516001600160a01b039091168152602090f35b50346100be5760403660031901126100be5760043567ffffffffffffffff811161058657366023820112156105865780600401356102f6816108a7565b91610304604051938461086f565b8183526024602084019260051b8201019036821161058257602401915b8183106105625750505060243567ffffffffffffffff811161055e573660238201121561055e57806004013590610357826108a7565b91610365604051938461086f565b8083526024602084019160051b8301019136831161055a57602401905b82821061054a5750505061039461096d565b8151815103610505578290815b84845184101561049957506001600160a01b036103be8486610936565b511685526003602052604085205415610426575b61041e6001916103e28585610936565b51838060a01b036103f38789610936565b51168852600360205261040b6040892091825461094a565b90556104178585610936565b519061094a565b9201916103a1565b6001600160a01b036104388486610936565b511660045468010000000000000000811015610485579161041e9161046484600180960160045561083e565b819291549060031b91821b91868060a01b03901b19161790559150506103d2565b634e487b7160e01b87526041600452602487fd5b60208192606460018060a01b03600154169160405194859384926323b872dd60e01b845233600485015230602485015260448401525af18015610186576101549183916104e657506108f2565b6104ff915060203d60201161017f57610171818361086f565b8361014e565b60405162461bcd60e51b815260206004820152601e60248201527f417272617973206d757374206265206f6620657175616c206c656e67746800006044820152606490fd5b8135815260209182019101610382565b8580fd5b8280fd5b82356001600160a01b038116810361055a57815260209283019201610321565b8480fd5b5080fd5b50346100be57806003193601126100be576105a361096d565b80546001600160a01b03198116825581906001600160a01b03167f8be0079c531659141344cd1fd0a4f28419497f9722a3daafe3b4186f6b6457e08280a380f35b50346100be5760203660031901126100be57600435906004548210156100be57602061060f8361083e565b905460405160039290921b1c6001600160a01b03168152f35b50346100be57806003193601126100be573381526003602052604081205480156107125733808352600360209081526040808520859055600154905163a9059cbb60e01b815260048101939093526024830184905284939291908290604490829087906001600160a01b03165af180156101c8576106ac91849161015757506108f2565b6002546001600160a01b0316803b156101bc57604051631d23139f60e11b8152336004820152602481019290925290919081908390604490829084905af18015610705576106f75780f35b6107009161086f565b388180f35b50604051903d90823e3d90fd5b60405162461bcd60e51b815260206004820152601f60248201527f4e6f20616d6f756e7420617661696c61626c6520746f207769746864726177006044820152606490fd5b50346100be57806003193601126100be576002546040516001600160a01b039091168152602090f35b50346100be57806003193601126100be5761079961096d565b805b6004548110156107d257806107b160019261083e565b838060a01b0391549060031b1c16835260036020528260408120550161079b565b5060045481600455806107e3575080f35b7f8a35acfbc15ff81a39ae7d344fd709f28e8600b4aa8c65c6b64bfe7fe36bd19b017f8a35acfbc15ff81a39ae7d344fd709f28e8600b4aa8c65c6b64bfe7fe36bd19b5b81811061083357505080f35b828155600101610827565b60045481101561085957600460005260206000200190600090565b634e487b7160e01b600052603260045260246000fd5b90601f8019910116810190811067ffffffffffffffff82111761089157604052565b634e487b7160e01b600052604160045260246000fd5b67ffffffffffffffff81116108915760051b60200190565b600435906001600160a01b03821682036108d557565b600080fd5b908160209103126108d5575180151581036108d55790565b156108f957565b60405162461bcd60e51b8152602060048201526015602482015274151bdad95b881d1c985b9cd9995c8819985a5b1959605a1b6044820152606490fd5b80518210156108595760209160051b010190565b9190820180921161095757565b634e487b7160e01b600052601160045260246000fd5b6000546001600160a01b0316330361098157565b63118cdaa760e01b6000523360045260246000fdfea26469706673582212203818383821e04beb7695ffbc33e902784f7569aea12941d51569438a5def358364736f6c634300081b0033","linkReferences":{}},"methodIdentifiers":{"availableToWithdraw(address)":"a25db8ce","clearWithdrawAmounts()":"290ba8c9","escrowToken()":"2fe319da","increaseWithdrawAmounts(address[],uint256[])":"87961f57","owner()":"8da5cb5b","renounceOwnership()":"715018a6","returnTokens()":"f9718fc8","token()":"fc0c546a","transferOwnership(address)":"f2fde38b","withdraw()":"3ccfd60b","withdrawAddresses(uint256)":"44bb8279"},"id":83}