{"abi":[{"type":"constructor","inputs":[{"name":"_table_prefix","type":"string","internalType":"string"}],"stateMutability":"nonpayable"},{"type":"function","name":"deleteFromTable","inputs":[],"outputs":[],"stateMutability":"nonpayable"},{"type":"function","name":"getTableId","inputs":[],"outputs":[{"name":"","type":"uint256","internalType":"uint256"}],"stateMutability":"view"},{"type":"function","name":"getTableName","inputs":[],"outputs":[{"name":"","type":"string","internalType":"string"}],"stateMutability":"view"},{"type":"function","name":"insertIntoTable","inputs":[{"name":"distribution","type":"string","internalType":"string"}],"outputs":[],"stateMutability":"nonpayable"},{"type":"function","name":"onERC721Received","inputs":[{"name":"","type":"address","internalType":"address"},{"name":"","type":"address","internalType":"address"},{"name":"","type":"uint256","internalType":"uint256"},{"name":"","type":"bytes","internalType":"bytes"}],"outputs":[{"name":"","type":"bytes4","internalType":"bytes4"}],"stateMutability":"nonpayable"},{"type":"function","name":"owner","inputs":[],"outputs":[{"name":"","type":"address","internalType":"address"}],"stateMutability":"view"},{"type":"function","name":"renounceOwnership","inputs":[],"outputs":[],"stateMutability":"nonpayable"},{"type":"function","name":"setAccessControl","inputs":[{"name":"controller","type":"address","internalType":"address"}],"outputs":[],"stateMutability":"nonpayable"},{"type":"function","name":"transferOwnership","inputs":[{"name":"newOwner","type":"address","internalType":"address"}],"outputs":[],"stateMutability":"nonpayable"},{"type":"function","name":"updateTableCol","inputs":[{"name":"distribution","type":"string","internalType":"string"}],"outputs":[],"stateMutability":"nonpayable"},{"type":"event","name":"OwnershipTransferred","inputs":[{"name":"previousOwner","type":"address","indexed":true,"internalType":"address"},{"name":"newOwner","type":"address","indexed":true,"internalType":"address"}],"anonymous":false},{"type":"error","name":"ChainNotSupported","inputs":[{"name":"chainid","type":"uint256","internalType":"uint256"}]},{"type":"error","name":"OwnableInvalidOwner","inputs":[{"name":"owner","type":"address","internalType":"address"}]},{"type":"error","name":"OwnableUnauthorizedAccount","inputs":[{"name":"account","type":"address","internalType":"address"}]},{"type":"error","name":"StringsInsufficientHexLength","inputs":[{"name":"value","type":"uint256","internalType":"uint256"},{"name":"length","type":"uint256","internalType":"uint256"}]}],"bytecode":{"object":"0x60806040523461002f57610019610014610160565b6106b7565b610021610034565b6124406114fc823961244090f35b61003a565b60405190565b5f80fd5b601f801991011690565b634e487b7160e01b5f52604160045260245ffd5b906100669061003e565b810190811060018060401b0382111761007e57604052565b610048565b9061009661008f610034565b928361005c565b565b5f80fd5b5f80fd5b5f80fd5b5f80fd5b60018060401b0381116100c4576100c060209161003e565b0190565b610048565b90825f9392825e0152565b909291926100e96100e4826100a8565b610083565b9381855260208501908284011161010557610103926100c9565b565b6100a4565b9080601f8301121561012857816020610125935191016100d4565b90565b6100a0565b9060208282031261015b575f82015160018060401b03811161015657610153920161010a565b90565b61009c565b610098565b61017e61393c8038038061017381610083565b92833981019061012d565b90565b5190565b634e487b7160e01b5f52602260045260245ffd5b90600160028304921680156101b9575b60208310146101b457565b610185565b91607f16916101a9565b5f5260205f2090565b601f602091010490565b1b90565b919060086101f59102916101ef5f19846101d6565b926101d6565b9181191691161790565b90565b90565b61021961021461021e926101ff565b610202565b6101ff565b90565b90565b919061023a61023561024293610205565b610221565b9083546101da565b9055565b5f90565b61025c91610256610246565b91610224565b565b5b81811061026a575050565b806102775f60019361024a565b0161025f565b9190601f811161028d575b505050565b6102996102be936101c3565b9060206102a5846101cc565b830193106102c6575b6102b7906101cc565b019061025e565b5f8080610288565b91506102b7819290506102ae565b1c90565b906102e8905f19906008026102d4565b191690565b816102f7916102d8565b906002021790565b9061030981610181565b9060018060401b0382116103c75761032b826103258554610199565b8561027d565b602090601f831160011461035f5791809161034e935f92610353575b50506102ed565b90555b565b90915001515f80610347565b601f1983169161036e856101c3565b925f5b8181106103af57509160029391856001969410610395575b50505002019055610351565b6103a5910151601f8416906102d8565b90555f8080610389565b91936020600181928787015181550195019201610371565b610048565b906103d6916102ff565b565b60018060a01b031690565b6103f76103f26103fc926103d8565b610202565b6103d8565b90565b610408906103e3565b90565b610414906103ff565b90565b610420906103ff565b90565b90610435610430836100a8565b610083565b918252565b60407f6164647265737329000000000000000000000000000000000000000000000000917f696420696e7465676572207072696d617279206b65792c2061646472657373205f8201527f746578742c20646973747269627574696f6e20746578742c20756e697175652860208201520152565b6104b76048610423565b906104c46020830161043a565b565b6104ce6104ad565b90565b6104d96104c6565b90565b60209181520190565b905f92918054906104ff6104f883610199565b80946104dc565b916001811690815f14610556575060011461051a575b505050565b61052791929394506101c3565b915f925b81841061053e57505001905f8080610515565b6001816020929593955484860152019101929061052b565b92949550505060ff19168252151560200201905f8080610515565b9061057b916104e5565b90565b9061059e6105979261058e610034565b93848092610571565b038361005c565b565b6105a99061057e565b90565b60e01b90565b6105bb816101ff565b036105c257565b5f80fd5b905051906105d3826105b2565b565b906020828203126105ee576105eb915f016105c6565b90565b610098565b6105fc906103d8565b90565b610608906105f3565b9052565b60209181520190565b61063461063d6020936106429361062b81610181565b9384809361060c565b958691016100c9565b61003e565b0190565b916106699261065c60408201935f8301906105ff565b6020818403910152610615565b90565b610674610034565b3d5f823e3d90fd5b5f1b90565b9061068d5f199161067c565b9181191691161790565b906106ac6106a76106b392610205565b610221565b8254610681565b9055565b6106cb906106c4336107c1565b60026103cc565b6106db6106d6610ae5565b61040b565b602063a15ab08d916106ec30610417565b906107245f61070c6106fc6104d1565b61070660026105a0565b90610ebb565b9561072f610718610034565b978896879586946105ac565b845260048401610646565b03925af1801561077c5761074c915f9161074e575b506001610697565b565b61076f915060203d8111610775575b610767818361005c565b8101906105d5565b5f610744565b503d61075d565b61066c565b90565b61079861079361079d92610781565b610202565b6103d8565b90565b6107a990610784565b90565b91906107bf905f602085019401906105ff565b565b806107dc6107d66107d15f6107a0565b6105f3565b916105f3565b146107ec576107ea90610f83565b565b61080f6107f85f6107a0565b5f918291631e4fbdf760e01b8352600483016107ac565b0390fd5b5f90565b90565b61082e61082961083392610817565b610202565b6101ff565b90565b90565b61084d61084861085292610836565b610202565b6101ff565b90565b90565b61086c61086761087192610855565b610202565b6101ff565b90565b90565b61088b61088661089092610874565b610202565b6101ff565b90565b90565b6108aa6108a56108af92610893565b610202565b6101ff565b90565b90565b6108c96108c46108ce926108b2565b610202565b6101ff565b90565b90565b6108e86108e36108ed926108d1565b610202565b6101ff565b90565b90565b61090761090261090c926108f0565b610202565b6101ff565b90565b90565b61092661092161092b9261090f565b610202565b6101ff565b90565b90565b61094561094061094a9261092e565b610202565b6101ff565b90565b90565b61096461095f6109699261094d565b610202565b6101ff565b90565b90565b61098361097e6109889261096c565b610202565b6101ff565b90565b610994906101ff565b9052565b91906109ab905f6020850194019061098b565b565b73e7f1725e7734ce288f8367e1bb143e90bb3f051290565b6109ce906103e3565b90565b6109da906109c5565b90565b73030bcf3d50cad04c2e57391b12740982a930862190565b73170fb206132b693e38adfc8727dcfa303546cec190565b73223a74b8323914afdc3ff1e5005564dc17231d6e90565b7368a2f4423ad3bf5139db563cf3bc80aa09ed707990565b73c50c62498448acc8dbde43da77f8d5d2e2c7597d90565b7359ef8bf2d6c102b4c42aef9189e1a9f0abfd652d90565b735c4e6a9e5c1e1bf445a062006faf19ea6c49afea90565b731a22854c5b1642760a827f20137a67930ae108d290565b739abd75e8640871a5a20d3b4ee6330a04c962affd90565b73fad44bf5b843de943a09d4f3e84949a11d3aa3e690565b73012969f7e3439a9b04025b5a049eb9bad82a8c1290565b610aed610813565b5046610b02610afc600161081a565b916101ff565b145f14610b1c57610b19610b14610acd565b6109d1565b90565b46610b30610b2a600a610839565b916101ff565b145f14610b4a57610b47610b42610ab5565b6109d1565b90565b46610b5f610b5961a4b1610858565b916101ff565b145f14610b7957610b76610b71610a9d565b6109d1565b90565b46610b8e610b8861a4ba610877565b916101ff565b145f14610ba857610ba5610ba0610a85565b6109d1565b90565b46610bbc610bb66089610896565b916101ff565b145f14610bd657610bd3610bce610a6d565b6109d1565b90565b46610beb610be561013a6108b5565b916101ff565b145f14610c0557610c02610bfd610a55565b6109d1565b90565b46610c1b610c1562aa36a76108d4565b916101ff565b145f14610c3557610c32610c2d610a3d565b6109d1565b90565b46610c4b610c4562aa37dc6108f3565b916101ff565b145f14610c6557610c62610c5d610a25565b6109d1565b90565b46610c7b610c7562066eee610912565b916101ff565b145f14610c9557610c92610c8d610a0d565b6109d1565b90565b46610cab610ca562013882610931565b916101ff565b145f14610cc557610cc2610cbd6109f5565b6109d1565b90565b46610cdb610cd56204cb2f610950565b916101ff565b145f14610cf557610cf2610ced6109dd565b6109d1565b90565b46610d0a610d04617a6961096f565b916101ff565b145f14610d2457610d21610d1c6109ad565b6109d1565b90565b610d3f465f91829163264e42cf60e01b835260048301610998565b0390fd5b606090565b905090565b5f7f435245415445205441424c452000000000000000000000000000000000000000910152565b610d80600d8092610d48565b610d8981610d4d565b0190565b610db2610da992602092610da081610181565b94858093610d48565b938491016100c9565b0190565b5f7f5f00000000000000000000000000000000000000000000000000000000000000910152565b610de960018092610d48565b610df281610db6565b0190565b5f7f2800000000000000000000000000000000000000000000000000000000000000910152565b610e2960018092610d48565b610e3281610df6565b0190565b5f7f2900000000000000000000000000000000000000000000000000000000000000910152565b610e6960018092610d48565b610e7281610e36565b0190565b610ea5610eb093610e9f610e9a610eb59795610e94610eaa96610d74565b90610d8d565b610ddd565b90610d8d565b610e1d565b90610d8d565b610e5d565b90565b90565b610efb610f0092610eca610d43565b50610eec610ed74661107d565b93610ee0610034565b94859360208501610e76565b6020820181038252038261005c565b610eb8565b90565b5f1c90565b60018060a01b031690565b610f1f610f2491610f03565b610f08565b90565b610f319054610f13565b90565b90610f4560018060a01b039161067c565b9181191691161790565b610f58906103ff565b90565b90565b90610f73610f6e610f7a92610f4f565b610f5b565b8254610f34565b9055565b5f0190565b610f8c5f610f27565b610f96825f610f5e565b90610fca610fc47f8be0079c531659141344cd1fd0a4f28419497f9722a3daafe3b4186f6b6457e093610f4f565b91610f4f565b91610fd3610034565b80610fdd81610f7e565b0390a3565b90610fed91016101ff565b90565b369037565b9061101a61100283610423565b9260208061101086936100a8565b9201910390610ff0565b565b600161102891036101ff565b90565b634e487b7160e01b5f52601260045260245ffd5b61104b611051916101ff565b916101ff565b90811561105c570490565b61102b565b61107561107061107a92610781565b610202565b6101ff565b90565b611085610d43565b506110a26110928261129a565b61109c600161081a565b90610fe2565b906110ac82610ff5565b916110b5610246565b5060200182015b60011561111f576110cf6110fb9161101c565b916f181899199a1a9b1b9c1cb0b131b232b360811b600a82061a83536110f5600a610839565b9061103f565b8061110e6111085f611061565b916101ff565b1461111957906110bc565b50505b90565b505061111c565b90565b61113d61113861114292611126565b610202565b6101ff565b90565b90565b61115c61115761116192611145565b610202565b6101ff565b90565b90565b61117b61117661118092611164565b610202565b6101ff565b90565b90565b61119a61119561119f92611183565b610202565b6101ff565b90565b90565b6111b96111b46111be926111a2565b610202565b6101ff565b90565b90565b6111d86111d36111dd926111c1565b610202565b6101ff565b90565b90565b6111f76111f26111fc926111e0565b610202565b6101ff565b90565b90565b61121661121161121b926111ff565b610202565b6101ff565b90565b90565b61123561123061123a9261121e565b610202565b6101ff565b90565b90565b61125461124f6112599261123d565b610202565b6101ff565b90565b90565b61127361126e6112789261125c565b610202565b6101ff565b90565b90565b61129261128d6112979261127b565b610202565b6101ff565b90565b6112a2610246565b506112ac5f611061565b90806112db6112d57a184f03e93ff9f4daa797ed6e38ed64bf6a1f010000000000000000611129565b916101ff565b10156114b3575b806113036112fd6d04ee2d6d415b85acef8100000000611167565b916101ff565b1015611478575b8061132461131e662386f26fc100006111a5565b916101ff565b1015611444575b8061134261133c6305f5e1006111e3565b916101ff565b1015611413575b8061135e611358612710611221565b916101ff565b10156113e4575b80611379611373606461125f565b916101ff565b10156113b6575b61139361138d600a610839565b916101ff565b101561139d575b90565b6113b1906113ab600161081a565b90610fe2565b61139a565b6113cd6113de916113c7606461125f565b9061103f565b916113d8600261127e565b90610fe2565b90611380565b6113fc61140d916113f6612710611221565b9061103f565b916114076004611240565b90610fe2565b90611365565b61142d61143e916114276305f5e1006111e3565b9061103f565b916114386008611202565b90610fe2565b90611349565b6114616114729161145b662386f26fc100006111a5565b9061103f565b9161146c60106111c4565b90610fe2565b9061132b565b61149c6114ad916114966d04ee2d6d415b85acef8100000000611167565b9061103f565b916114a76020611186565b90610fe2565b9061130a565b6114e46114f5916114de7a184f03e93ff9f4daa797ed6e38ed64bf6a1f010000000000000000611129565b9061103f565b916114ef6040611148565b90610fe2565b906112e256fe60806040526004361015610013575b61063e565b61001d5f356100bc565b8063150b7a02146100b757806319129e5a146100b25780635d5a33a2146100ad57806364b4ac00146100a857806366d49ff1146100a3578063715018a61461009e57806384b20ab01461009957806388e4f1cb146100945780638da5cb5b1461008f5763f2fde38b0361000e5761060b565b6105d6565b61057f565b61052a565b6104f7565b6104c4565b6103e0565b6103ab565b610308565b6102ac565b60e01c90565b60405190565b5f80fd5b5f80fd5b5f80fd5b60018060a01b031690565b6100e8906100d4565b90565b6100f4816100df565b036100fb57565b5f80fd5b9050359061010c826100eb565b565b90565b61011a8161010e565b0361012157565b5f80fd5b9050359061013282610111565b565b5f80fd5b5f80fd5b601f801991011690565b634e487b7160e01b5f52604160045260245ffd5b906101649061013c565b810190811067ffffffffffffffff82111761017e57604052565b610146565b9061019661018f6100c2565b928361015a565b565b67ffffffffffffffff81116101b6576101b260209161013c565b0190565b610146565b90825f939282370152565b909291926101db6101d682610198565b610183565b938185526020850190828401116101f7576101f5926101bb565b565b610138565b9080601f8301121561021a57816020610217933591016101c6565b90565b610134565b9060808282031261027957610236815f84016100ff565b9261024482602085016100ff565b926102528360408301610125565b92606082013567ffffffffffffffff81116102745761027192016101fc565b90565b6100d0565b6100cc565b63ffffffff60e01b1690565b6102939061027e565b9052565b91906102aa905f6020850194019061028a565b565b346102e0576102dc6102cb6102c236600461021f565b9291909161069c565b6102d36100c2565b91829182610297565b0390f35b6100c8565b906020828203126102fe576102fb915f016100ff565b90565b6100cc565b5f0190565b346103365761032061031b3660046102e5565b610806565b6103286100c2565b8061033281610303565b0390f35b6100c8565b5f91031261034557565b6100cc565b5190565b60209181520190565b90825f9392825e0152565b61038161038a60209361038f936103788161034a565b9384809361034e565b95869101610357565b61013c565b0190565b6103a89160208201915f818403910152610362565b90565b346103db576103bb36600461033b565b6103d76103c661092d565b6103ce6100c2565b91829182610393565b0390f35b6100c8565b3461040e576103f036600461033b565b6103f8610a21565b6104006100c2565b8061040a81610303565b0390f35b6100c8565b67ffffffffffffffff81116104315761042d60209161013c565b0190565b610146565b9092919261044b61044682610413565b610183565b9381855260208501908284011161046757610465926101bb565b565b610138565b9080601f8301121561048a5781602061048793359101610436565b90565b610134565b906020828203126104bf575f82013567ffffffffffffffff81116104ba576104b7920161046c565b90565b6100d0565b6100cc565b346104f2576104dc6104d736600461048f565b610c31565b6104e46100c2565b806104ee81610303565b0390f35b6100c8565b346105255761050736600461033b565b61050f610d71565b6105176100c2565b8061052181610303565b0390f35b6100c8565b346105585761054261053d36600461048f565b610dfc565b61054a6100c2565b8061055481610303565b0390f35b6100c8565b6105669061010e565b9052565b919061057d905f6020850194019061055d565b565b346105af5761058f36600461033b565b6105ab61059a610eed565b6105a26100c2565b9182918261056a565b0390f35b6100c8565b6105bd906100df565b9052565b91906105d4905f602085019401906105b4565b565b34610606576105e636600461033b565b6106026105f1610f33565b6105f96100c2565b918291826105c1565b0390f35b6100c8565b346106395761062361061e3660046102e5565b610fad565b61062b6100c2565b8061063581610303565b0390f35b6100c8565b5f80fd5b5f90565b90565b61065d610658610662926100d4565b610646565b6100d4565b90565b61066e90610649565b90565b63ffffffff1690565b60e01b90565b61069461068f61069992610671565b61067a565b61027e565b90565b505050506106a8610642565b506106b663150b7a02610680565b90565b6106ca906106c5610fb8565b610762565b565b6106d590610665565b90565b6106e190610665565b90565b5f1c90565b90565b6106f86106fd916106e4565b6106e9565b90565b61070a90546106ec565b90565b5f80fd5b5f91031261071b57565b6100cc565b604090610749610750949695939661073f60608401985f8501906105b4565b602083019061055d565b01906105b4565b565b61075a6100c2565b3d5f823e3d90fd5b61077261076d6112b6565b6106cc565b638bb0ab9790610781306106d8565b9061078c6001610700565b9392813b15610801575f6107b3916107be82966107a76100c2565b9889978896879561067a565b855260048501610720565b03925af180156107fc576107d0575b50565b6107ef905f3d81116107f5575b6107e7818361015a565b810190610711565b5f6107cd565b503d6107dd565b610752565b61070d565b61080f906106b9565b565b606090565b634e487b7160e01b5f52602260045260245ffd5b906001600283049216801561084a575b602083101461084557565b610816565b91607f169161083a565b60209181520190565b5f5260205f2090565b905f92918054906108806108798361082a565b8094610854565b916001811690815f146108d7575060011461089b575b505050565b6108a8919293945061085d565b915f925b8184106108bf57505001905f8080610896565b600181602092959395548486015201910192906108ac565b92949550505060ff19168252151560200201905f8080610896565b906108fc91610866565b90565b9061091f6109189261090f6100c2565b938480926108f2565b038361015a565b565b61092a906108ff565b90565b610935610811565b50610953600261094e6109486001610700565b91610921565b611588565b90565b7f61646472657373203d20000000000000000000000000000000000000000000009052565b905090565b6109a561099c926020926109938161034a565b9485809361097b565b93849101610357565b0190565b90600a6109c0926109b981610956565b0190610980565b90565b906109eb6109cf6100c2565b80936109df6020830191826109a9565b9081038252038361015a565b565b610a11610a1e949293610a0760608401955f8501906105b4565b602083019061055d565b6040818403910152610362565b90565b610a31610a2c6112b6565b6106cc565b63377af0da610a3f306106d8565b610a496001610700565b92610a806002610a596001610700565b610a7b610a75610a70610a6b3361164f565b6116e3565b6109c3565b92610921565b6117c9565b92813b15610af4575f610aa691610ab18296610a9a6100c2565b9889978896879561067a565b8552600485016109ed565b03925af18015610aef57610ac3575b50565b610ae2905f3d8111610ae8575b610ada818361015a565b810190610711565b5f610ac0565b503d610ad0565b610752565b61070d565b7f2c000000000000000000000000000000000000000000000000000000000000009052565b7f6a736f6e280000000000000000000000000000000000000000000000000000009052565b7f29000000000000000000000000000000000000000000000000000000000000009052565b9160056001610b7b8195610b9595610980565b610b8481610af9565b01610b8e81610b1e565b0190610980565b610b9e81610b43565b0190565b610bc19291610bcd91610bb36100c2565b948592602084019283610b68565b9081038252038361015a565b565b90610be1610bdc83610413565b610183565b918252565b5f7f616464726573732c646973747269627574696f6e000000000000000000000000910152565b610c176014610bcf565b90610c2460208301610be6565b565b610c2e610c0d565b90565b610c41610c3c6112b6565b6106cc565b63377af0da90610c50306106d8565b90610ca8610c5e6001610700565b94600290610c99610c93610c726001610700565b92610c8d610c87610c823361164f565b6116e3565b916116e3565b90610ba2565b92610921565b90610ca2610c26565b91611953565b92813b15610d1c575f610cce91610cd98296610cc26100c2565b9889978896879561067a565b8552600485016109ed565b03925af18015610d1757610ceb575b50565b610d0a905f3d8111610d10575b610d02818361015a565b810190610711565b5f610ce8565b503d610cf8565b610752565b61070d565b610d29610fb8565b610d31610d5e565b565b90565b610d4a610d45610d4f92610d33565b610646565b6100d4565b90565b610d5b90610d36565b90565b610d6f610d6a5f610d52565b6119ed565b565b610d79610d21565b565b7f646973747269627574696f6e3d000000000000000000000000000000000000009052565b6001916005600d610dc593610db481610d7b565b01610dbe81610b1e565b0190610980565b610dce81610b43565b0190565b90610dfa610dde6100c2565b8093610dee602083019182610da0565b9081038252038361015a565b565b610e0c610e076112b6565b6106cc565b63377af0da90610e1b306106d8565b90610e70610e296001610700565b94600290610e48610e43610e3d6001610700565b926116e3565b610dd2565b90610e6b610e65610e60610e5b3361164f565b6116e3565b6109c3565b93610921565b611b4e565b92813b15610ee4575f610e9691610ea18296610e8a6100c2565b9889978896879561067a565b8552600485016109ed565b03925af18015610edf57610eb3575b50565b610ed2905f3d8111610ed8575b610eca818361015a565b810190610711565b5f610eb0565b503d610ec0565b610752565b61070d565b5f90565b610ef5610ee9565b50610f006001610700565b90565b5f90565b60018060a01b031690565b610f1e610f23916106e4565b610f07565b90565b610f309054610f12565b90565b610f3b610f03565b50610f455f610f26565b90565b610f5990610f54610fb8565b610f5b565b565b80610f76610f70610f6b5f610d52565b6100df565b916100df565b14610f8657610f84906119ed565b565b610fa9610f925f610d52565b5f918291631e4fbdf760e01b8352600483016105c1565b0390fd5b610fb690610f48565b565b610fc0610f33565b610fd9610fd3610fce611c0f565b6100df565b916100df565b03610fe057565b611002610feb611c0f565b5f91829163118cdaa760e01b8352600483016105c1565b0390fd5b5f90565b90565b61102161101c6110269261100a565b610646565b61010e565b90565b90565b61104061103b61104592611029565b610646565b61010e565b90565b90565b61105f61105a61106492611048565b610646565b61010e565b90565b90565b61107e61107961108392611067565b610646565b61010e565b90565b90565b61109d6110986110a292611086565b610646565b61010e565b90565b90565b6110bc6110b76110c1926110a5565b610646565b61010e565b90565b90565b6110db6110d66110e0926110c4565b610646565b61010e565b90565b90565b6110fa6110f56110ff926110e3565b610646565b61010e565b90565b90565b61111961111461111e92611102565b610646565b61010e565b90565b90565b61113861113361113d92611121565b610646565b61010e565b90565b90565b61115761115261115c92611140565b610646565b61010e565b90565b90565b61117661117161117b9261115f565b610646565b61010e565b90565b73e7f1725e7734ce288f8367e1bb143e90bb3f051290565b61119f90610649565b90565b6111ab90611196565b90565b73030bcf3d50cad04c2e57391b12740982a930862190565b73170fb206132b693e38adfc8727dcfa303546cec190565b73223a74b8323914afdc3ff1e5005564dc17231d6e90565b7368a2f4423ad3bf5139db563cf3bc80aa09ed707990565b73c50c62498448acc8dbde43da77f8d5d2e2c7597d90565b7359ef8bf2d6c102b4c42aef9189e1a9f0abfd652d90565b735c4e6a9e5c1e1bf445a062006faf19ea6c49afea90565b731a22854c5b1642760a827f20137a67930ae108d290565b739abd75e8640871a5a20d3b4ee6330a04c962affd90565b73fad44bf5b843de943a09d4f3e84949a11d3aa3e690565b73012969f7e3439a9b04025b5a049eb9bad82a8c1290565b6112be611006565b50466112d36112cd600161100d565b9161010e565b145f146112ed576112ea6112e561129e565b6111a2565b90565b466113016112fb600a61102c565b9161010e565b145f1461131b57611318611313611286565b6111a2565b90565b4661133061132a61a4b161104b565b9161010e565b145f1461134a5761134761134261126e565b6111a2565b90565b4661135f61135961a4ba61106a565b9161010e565b145f1461137957611376611371611256565b6111a2565b90565b4661138d6113876089611089565b9161010e565b145f146113a7576113a461139f61123e565b6111a2565b90565b466113bc6113b661013a6110a8565b9161010e565b145f146113d6576113d36113ce611226565b6111a2565b90565b466113ec6113e662aa36a76110c7565b9161010e565b145f14611406576114036113fe61120e565b6111a2565b90565b4661141c61141662aa37dc6110e6565b9161010e565b145f146114365761143361142e6111f6565b6111a2565b90565b4661144c61144662066eee611105565b9161010e565b145f146114665761146361145e6111de565b6111a2565b90565b4661147c61147662013882611124565b9161010e565b145f146114965761149361148e6111c6565b6111a2565b90565b466114ac6114a66204cb2f611143565b9161010e565b145f146114c6576114c36114be6111ae565b6111a2565b90565b466114db6114d5617a69611162565b9161010e565b145f146114f5576114f26114ed61117e565b6111a2565b90565b611510465f91829163264e42cf60e01b83526004830161056a565b0390fd5b5f7f5f00000000000000000000000000000000000000000000000000000000000000910152565b6115476001809261097b565b61155081611514565b0190565b611582939261157161156c6115779361157c95610980565b61153b565b90610980565b61153b565b90610980565b90565b90565b906115d16115d692611598610811565b506115c26115ae6115a846611c9b565b94611c9b565b6115b66100c2565b94859360208501611554565b6020820181038252038261015a565b611585565b90565b6115e290610649565b90565b6115f96115f46115fe926100d4565b610646565b61010e565b90565b90565b60ff1690565b61161e61161961162392611601565b610646565b611604565b90565b611630601461160a565b90565b61164761164261164c92611604565b610646565b61010e565b90565b61166c61166761168292611661610811565b506115d9565b6115e5565b61167c611677611626565b611633565b90611f24565b90565b5f7f2700000000000000000000000000000000000000000000000000000000000000910152565b6116b86001809261097b565b6116c181611685565b0190565b6116e0916116d56116db926116ac565b90610980565b6116ac565b90565b61170a61171961171e926116f5610811565b506116fe6100c2565b928391602083016116c5565b6020820181038252038261015a565b611585565b90565b5f7f44454c4554452046524f4d200000000000000000000000000000000000000000910152565b611754600c809261097b565b61175d81611721565b0190565b5f7f2057484552452000000000000000000000000000000000000000000000000000910152565b6117946007809261097b565b61179d81611761565b0190565b6117bb6117c693926117b56117c093611748565b90610980565b611788565b90610980565b90565b6117e361180e9392611809926117dd610811565b50611588565b6117fa6117ee6100c2565b938492602084016117a1565b6020820181038252038261015a565b611585565b90565b5f7f494e5345525420494e544f200000000000000000000000000000000000000000910152565b611844600c809261097b565b61184d81611811565b0190565b5f7f2800000000000000000000000000000000000000000000000000000000000000910152565b6118846001809261097b565b61188d81611851565b0190565b5f7f2956414c55455328000000000000000000000000000000000000000000000000910152565b6118c46008809261097b565b6118cd81611891565b0190565b5f7f2900000000000000000000000000000000000000000000000000000000000000910152565b6119046001809261097b565b61190d816118d1565b0190565b61194061194b9361193a611935611950979561192f61194596611838565b90610980565b611878565b90610980565b6118b8565b90610980565b6118f8565b90565b916119876119716119969361199b969561196b610811565b50611588565b919361197b6100c2565b94859360208501611911565b6020820181038252038261015a565b611585565b90565b5f1b90565b906119b460018060a01b039161199e565b9181191691161790565b6119c790610665565b90565b90565b906119e26119dd6119e9926119be565b6119ca565b82546119a3565b9055565b6119f65f610f26565b611a00825f6119cd565b90611a34611a2e7f8be0079c531659141344cd1fd0a4f28419497f9722a3daafe3b4186f6b6457e0936119be565b916119be565b91611a3d6100c2565b80611a4781610303565b0390a3565b611a555f610bcf565b90565b611a60611a4c565b90565b90565b5190565b611a7e611a79611a8392610d33565b610646565b61010e565b90565b90611a93611a9992611788565b90610980565b90565b5f7f5550444154452000000000000000000000000000000000000000000000000000910152565b611acf6007809261097b565b611ad881611a9c565b0190565b5f7f2053455420000000000000000000000000000000000000000000000000000000910152565b611b0f6005809261097b565b611b1881611adc565b0190565b91611b3f611b3a611b4593611b34611b4b9796611ac3565b90610980565b611b03565b90610980565b90610980565b90565b611bcb9391611b6591611b5f610811565b50611588565b91611b6e611a58565b91611b80611b7b82611a63565b611a66565b611b92611b8c5f611a6a565b9161010e565b11611bce575b50611bb7611bc692939193611bab6100c2565b94859360208501611b1c565b6020820181038252038261015a565b611585565b90565b611bc69250611c08611bf4611c03611bb793611be86100c2565b92839160208301611a86565b6020820181038252038261015a565b611585565b9250611b98565b611c17610f03565b503390565b90611c27910161010e565b90565b369037565b90611c54611c3c83610bcf565b92602080611c4a8693610413565b9201910390611c2a565b565b6001611c62910361010e565b90565b634e487b7160e01b5f52601260045260245ffd5b611c85611c8b9161010e565b9161010e565b908115611c96570490565b611c65565b611ca3610811565b50611cc0611cb0826121df565b611cba600161100d565b90611c1c565b90611cca82611c2f565b91611cd3610ee9565b5060200182015b600115611d3d57611ced611d1991611c56565b916f181899199a1a9b1b9c1cb0b131b232b360811b600a82061a8353611d13600a61102c565b90611c79565b80611d2c611d265f611a6a565b9161010e565b14611d375790611cda565b50505b90565b5050611d3a565b90565b611d5b611d56611d6092611d44565b610646565b61010e565b90565b634e487b7160e01b5f52601160045260245ffd5b611d86611d8c9193929361010e565b9261010e565b91611d9883820261010e565b928184041490151715611da757565b611d63565b611dbb611dc19193929361010e565b9261010e565b8201809211611dcc57565b611d63565b90611de3611dde83610198565b610183565b918252565b90611e0d611df583611dd1565b92602080611e038693610198565b9201910390611c2a565b565b600360fc1b90565b634e487b7160e01b5f52603260045260245ffd5b90611e3582611a66565b811015611e4757600160209102010190565b611e17565b600f60fb1b90565b611e5d9061010e565b5f8114611e6b576001900390565b611d63565b6f181899199a1a9b1b9c1cb0b131b232b360811b90565b611e8f611e70565b90565b90565b611ea9611ea4611eae92611e92565b610646565b61010e565b90565b60f81b90565b90565b611ece611ec9611ed392611eb7565b610646565b611604565b90565b1c90565b611ef990611ef3611eed611efe94611604565b9161010e565b90611ed6565b61010e565b90565b916020611f22929493611f1b60408201965f83019061055d565b019061055d565b565b90611f2d610811565b508192611f5f611f5a611f4a6002611f458691611d47565b611d77565b611f546002611d47565b90611dac565b611de8565b91611f68611e0f565b611f7f84611f795f935f1a93611a6a565b90611e2b565b53611f88611e4c565b611fa084611f9a6001935f1a9361100d565b90611e2b565b53611fc8611fb86002611fb38491611d47565b611d77565b611fc2600161100d565b90611dac565b945b85611fde611fd8600161100d565b9161010e565b111561204457611fec611e87565b81611ff7600f611e95565b1691601083101561203f5761201361203392612039941a611eb1565b61202287918a905f1a92611e2b565b5361202d6004611eba565b90611eda565b95611e54565b94611fca565b611e17565b90929391945061205c6120565f611a6a565b9161010e565b0361206f57505061206c90611585565b90565b6120895f92839263e22e27eb60e01b845260048401611f01565b0390fd5b90565b6120a461209f6120a99261208d565b610646565b61010e565b90565b90565b6120c36120be6120c8926120ac565b610646565b61010e565b90565b90565b6120e26120dd6120e7926120cb565b610646565b61010e565b90565b90565b6121016120fc612106926120ea565b610646565b61010e565b90565b90565b61212061211b61212592612109565b610646565b61010e565b90565b90565b61213f61213a61214492612128565b610646565b61010e565b90565b90565b61215e61215961216392612147565b610646565b61010e565b90565b90565b61217d61217861218292612166565b610646565b61010e565b90565b90565b61219c6121976121a192612185565b610646565b61010e565b90565b6121b86121b36121bd92611eb7565b610646565b61010e565b90565b90565b6121d76121d26121dc926121c0565b610646565b61010e565b90565b6121e7610ee9565b506121f15f611a6a565b908061222061221a7a184f03e93ff9f4daa797ed6e38ed64bf6a1f010000000000000000612090565b9161010e565b10156123f8575b806122486122426d04ee2d6d415b85acef81000000006120ce565b9161010e565b10156123bd575b80612269612263662386f26fc1000061210c565b9161010e565b1015612389575b806122876122816305f5e10061214a565b9161010e565b1015612358575b806122a361229d612710612188565b9161010e565b1015612329575b806122be6122b860646121c3565b9161010e565b10156122fb575b6122d86122d2600a61102c565b9161010e565b10156122e2575b90565b6122f6906122f0600161100d565b90611c1c565b6122df565b6123126123239161230c60646121c3565b90611c79565b9161231d6002611d47565b90611c1c565b906122c5565b6123416123529161233b612710612188565b90611c79565b9161234c60046121a4565b90611c1c565b906122aa565b6123726123839161236c6305f5e10061214a565b90611c79565b9161237d6008612169565b90611c1c565b9061228e565b6123a66123b7916123a0662386f26fc1000061210c565b90611c79565b916123b1601061212b565b90611c1c565b90612270565b6123e16123f2916123db6d04ee2d6d415b85acef81000000006120ce565b90611c79565b916123ec60206120ed565b90611c1c565b9061224f565b61242961243a916124237a184f03e93ff9f4daa797ed6e38ed64bf6a1f010000000000000000612090565b90611c79565b9161243460406120af565b90611c1c565b9061222756","linkReferences":{}},"methodIdentifiers":{"deleteFromTable()":"64b4ac00","getTableId()":"88e4f1cb","getTableName()":"5d5a33a2","insertIntoTable(string)":"66d49ff1","onERC721Received(address,address,uint256,bytes)":"150b7a02","owner()":"8da5cb5b","renounceOwnership()":"715018a6","setAccessControl(address)":"19129e5a","transferOwnership(address)":"f2fde38b","updateTableCol(string)":"84b20ab0"},"id":250}