{"abi":[{"type":"constructor","inputs":[{"name":"citizenNFTAddress","type":"address","internalType":"address"}],"stateMutability":"nonpayable"},{"type":"function","name":"citizenNFT","inputs":[],"outputs":[{"name":"","type":"address","internalType":"contract IERC5643Like"}],"stateMutability":"view"},{"type":"function","name":"claimId","inputs":[{"name":"user","type":"address","internalType":"address"},{"name":"context","type":"bytes","internalType":"bytes"}],"outputs":[{"name":"","type":"bytes32","internalType":"bytes32"}],"stateMutability":"view"},{"type":"function","name":"isEligible","inputs":[{"name":"user","type":"address","internalType":"address"},{"name":"context","type":"bytes","internalType":"bytes"}],"outputs":[{"name":"eligible","type":"bool","internalType":"bool"},{"name":"xpAmount","type":"uint256","internalType":"uint256"}],"stateMutability":"view"},{"type":"function","name":"name","inputs":[],"outputs":[{"name":"","type":"string","internalType":"string"}],"stateMutability":"pure"},{"type":"function","name":"owner","inputs":[],"outputs":[{"name":"","type":"address","internalType":"address"}],"stateMutability":"view"},{"type":"function","name":"renounceOwnership","inputs":[],"outputs":[],"stateMutability":"nonpayable"},{"type":"function","name":"setCitizenNFTAddress","inputs":[{"name":"newAddress","type":"address","internalType":"address"}],"outputs":[],"stateMutability":"nonpayable"},{"type":"function","name":"transferOwnership","inputs":[{"name":"newOwner","type":"address","internalType":"address"}],"outputs":[],"stateMutability":"nonpayable"},{"type":"function","name":"validAfter","inputs":[{"name":"","type":"address","internalType":"address"},{"name":"","type":"bytes","internalType":"bytes"}],"outputs":[{"name":"","type":"uint256","internalType":"uint256"}],"stateMutability":"pure"},{"type":"event","name":"OwnershipTransferred","inputs":[{"name":"previousOwner","type":"address","indexed":true,"internalType":"address"},{"name":"newOwner","type":"address","indexed":true,"internalType":"address"}],"anonymous":false},{"type":"error","name":"OwnableInvalidOwner","inputs":[{"name":"owner","type":"address","internalType":"address"}]},{"type":"error","name":"OwnableUnauthorizedAccount","inputs":[{"name":"account","type":"address","internalType":"address"}]}],"bytecode":{"object":"0x608060405234801561000f575f5ffd5b506040516106b23803806106b283398101604081905261002e91610128565b338061005457604051631e4fbdf760e01b81525f60048201526024015b60405180910390fd5b61005d816100d9565b506001600160a01b0381166100b45760405162461bcd60e51b815260206004820152601760248201527f496e76616c696420436974697a656e2061646472657373000000000000000000604482015260640161004b565b600180546001600160a01b0319166001600160a01b0392909216919091179055610155565b5f80546001600160a01b038381166001600160a01b0319831681178455604051919092169283917f8be0079c531659141344cd1fd0a4f28419497f9722a3daafe3b4186f6b6457e09190a35050565b5f60208284031215610138575f5ffd5b81516001600160a01b038116811461014e575f5ffd5b9392505050565b610550806101625f395ff3fe608060405234801561000f575f5ffd5b5060043610610090575f3560e01c806361d013351161006357806361d0133514610130578063715018a6146101465780638da5cb5b1461014e578063d592256f14610172578063f2fde38b14610185575f5ffd5b806306fdde031461009457806319247670146100d05780634e3c1509146100e55780635dcbc01b14610106575b5f5ffd5b60408051808201825260118152704f776e73436974697a656e4e46543a763160781b602082015290516100c791906103ba565b60405180910390f35b6100e36100de36600461040a565b610198565b005b6100f86100f336600461042a565b61021d565b6040519081526020016100c7565b61011961011436600461042a565b610254565b6040805192151583526020830191909152016100c7565b6100f861013e36600461042a565b5f9392505050565b6100e36102ef565b5f546001600160a01b03165b6040516001600160a01b0390911681526020016100c7565b60015461015a906001600160a01b031681565b6100e361019336600461040a565b610302565b6101a061033f565b6001600160a01b0381166101fb5760405162461bcd60e51b815260206004820152601760248201527f496e76616c696420436974697a656e206164647265737300000000000000000060448201526064015b60405180910390fd5b600180546001600160a01b0319166001600160a01b0392909216919091179055565b5f3084848460405160200161023594939291906104a8565b6040516020818303038152906040528051906020012090509392505050565b5f8080610263848601866104ec565b6001546040516370a0823160e01b81526001600160a01b0389811660048301529293505f92909116906370a0823190602401602060405180830381865afa1580156102b0573d5f5f3e3d5ffd5b505050506040513d601f19601f820116820180604052508101906102d49190610503565b119250826102e2575f6102e4565b805b915050935093915050565b6102f761033f565b6103005f61036b565b565b61030a61033f565b6001600160a01b03811661033357604051631e4fbdf760e01b81525f60048201526024016101f2565b61033c8161036b565b50565b5f546001600160a01b031633146103005760405163118cdaa760e01b81523360048201526024016101f2565b5f80546001600160a01b038381166001600160a01b0319831681178455604051919092169283917f8be0079c531659141344cd1fd0a4f28419497f9722a3daafe3b4186f6b6457e09190a35050565b602081525f82518060208401528060208501604085015e5f604082850101526040601f19601f83011684010191505092915050565b80356001600160a01b0381168114610405575f5ffd5b919050565b5f6020828403121561041a575f5ffd5b610423826103ef565b9392505050565b5f5f5f6040848603121561043c575f5ffd5b610445846103ef565b9250602084013567ffffffffffffffff811115610460575f5ffd5b8401601f81018613610470575f5ffd5b803567ffffffffffffffff811115610486575f5ffd5b866020828401011115610497575f5ffd5b939660209190910195509293505050565b6bffffffffffffffffffffffff198560601b1681526bffffffffffffffffffffffff198460601b166014820152818360288301375f91016028019081529392505050565b5f602082840312156104fc575f5ffd5b5035919050565b5f60208284031215610513575f5ffd5b505191905056fea26469706673582212209e9f4ab035d62d2904ec13b8a7c1a479c1c5bfc9949824a31c76fa167fecce6664736f6c634300081c0033","linkReferences":{}},"methodIdentifiers":{"citizenNFT()":"d592256f","claimId(address,bytes)":"4e3c1509","isEligible(address,bytes)":"5dcbc01b","name()":"06fdde03","owner()":"8da5cb5b","renounceOwnership()":"715018a6","setCitizenNFTAddress(address)":"19247670","transferOwnership(address)":"f2fde38b","validAfter(address,bytes)":"61d01335"},"id":53}